{
  "contractName": "BidContract",
  "abi": [
    {
      "inputs": [
        {
          "internalType": "contract TenderContract",
          "name": "_tenderRef",
          "type": "address"
        }
      ],
      "stateMutability": "nonpayable",
      "type": "constructor"
    },
    {
      "inputs": [
        {
          "internalType": "uint256",
          "name": "",
          "type": "uint256"
        }
      ],
      "name": "bids",
      "outputs": [
        {
          "internalType": "string",
          "name": "bidClause",
          "type": "string"
        },
        {
          "internalType": "uint256",
          "name": "quotedAmount",
          "type": "uint256"
        },
        {
          "internalType": "address",
          "name": "bidderAddress",
          "type": "address"
        },
        {
          "internalType": "uint256",
          "name": "tenderAddress",
          "type": "uint256"
        },
        {
          "internalType": "enum BidContract.BidStatus",
          "name": "bidStatus",
          "type": "uint8"
        },
        {
          "internalType": "uint256",
          "name": "createdAt",
          "type": "uint256"
        }
      ],
      "stateMutability": "view",
      "type": "function",
      "constant": true
    },
    {
      "inputs": [],
      "name": "tenderRef",
      "outputs": [
        {
          "internalType": "contract TenderContract",
          "name": "",
          "type": "address"
        }
      ],
      "stateMutability": "view",
      "type": "function",
      "constant": true
    },
    {
      "inputs": [
        {
          "internalType": "address",
          "name": "_bidderAddress",
          "type": "address"
        },
        {
          "internalType": "uint256",
          "name": "_tenderAddress",
          "type": "uint256"
        },
        {
          "internalType": "string",
          "name": "_bidClause",
          "type": "string"
        },
        {
          "internalType": "uint256",
          "name": "_quotedAmount",
          "type": "uint256"
        }
      ],
      "name": "createBid",
      "outputs": [],
      "stateMutability": "nonpayable",
      "type": "function"
    },
    {
      "inputs": [
        {
          "internalType": "address",
          "name": "_bidderAddress",
          "type": "address"
        },
        {
          "internalType": "address",
          "name": "_issuerAddress",
          "type": "address"
        },
        {
          "internalType": "uint256",
          "name": "_tenderId",
          "type": "uint256"
        },
        {
          "internalType": "uint256",
          "name": "_bidId",
          "type": "uint256"
        }
      ],
      "name": "getBidDetails",
      "outputs": [
        {
          "components": [
            {
              "internalType": "string",
              "name": "bidClause",
              "type": "string"
            },
            {
              "internalType": "uint256",
              "name": "quotedAmount",
              "type": "uint256"
            },
            {
              "internalType": "address",
              "name": "bidderAddress",
              "type": "address"
            },
            {
              "internalType": "uint256",
              "name": "tenderAddress",
              "type": "uint256"
            },
            {
              "internalType": "enum BidContract.BidStatus",
              "name": "bidStatus",
              "type": "uint8"
            },
            {
              "internalType": "uint256",
              "name": "createdAt",
              "type": "uint256"
            }
          ],
          "internalType": "struct BidContract.Bid",
          "name": "",
          "type": "tuple"
        }
      ],
      "stateMutability": "view",
      "type": "function",
      "constant": true
    },
    {
      "inputs": [
        {
          "internalType": "address",
          "name": "_partyAddress",
          "type": "address"
        },
        {
          "internalType": "uint256",
          "name": "_tenderId",
          "type": "uint256"
        }
      ],
      "name": "getAllBids",
      "outputs": [
        {
          "components": [
            {
              "internalType": "string",
              "name": "bidClause",
              "type": "string"
            },
            {
              "internalType": "uint256",
              "name": "quotedAmount",
              "type": "uint256"
            },
            {
              "internalType": "address",
              "name": "bidderAddress",
              "type": "address"
            },
            {
              "internalType": "uint256",
              "name": "tenderAddress",
              "type": "uint256"
            },
            {
              "internalType": "enum BidContract.BidStatus",
              "name": "bidStatus",
              "type": "uint8"
            },
            {
              "internalType": "uint256",
              "name": "createdAt",
              "type": "uint256"
            }
          ],
          "internalType": "struct BidContract.Bid[]",
          "name": "",
          "type": "tuple[]"
        }
      ],
      "stateMutability": "view",
      "type": "function",
      "constant": true
    },
    {
      "inputs": [
        {
          "internalType": "address",
          "name": "_partyAddress",
          "type": "address"
        },
        {
          "internalType": "uint256",
          "name": "_tenderAddress",
          "type": "uint256"
        },
        {
          "internalType": "uint256",
          "name": "_bidAddress",
          "type": "uint256"
        },
        {
          "internalType": "enum BidContract.BidStatus",
          "name": "_bidStatus",
          "type": "uint8"
        }
      ],
      "name": "updateBidStatus",
      "outputs": [],
      "stateMutability": "nonpayable",
      "type": "function"
    },
    {
      "inputs": [
        {
          "internalType": "address",
          "name": "_bidderAddress",
          "type": "address"
        },
        {
          "internalType": "uint256",
          "name": "_bidId",
          "type": "uint256"
        },
        {
          "internalType": "string",
          "name": "_bidClause",
          "type": "string"
        },
        {
          "internalType": "uint256",
          "name": "_quotedAmount",
          "type": "uint256"
        }
      ],
      "name": "updateBid",
      "outputs": [],
      "stateMutability": "nonpayable",
      "type": "function"
    },
    {
      "inputs": [
        {
          "internalType": "address",
          "name": "_bidderAddress",
          "type": "address"
        },
        {
          "internalType": "uint256",
          "name": "_tenderId",
          "type": "uint256"
        },
        {
          "internalType": "uint256",
          "name": "_bidId",
          "type": "uint256"
        }
      ],
      "name": "deleteBid",
      "outputs": [],
      "stateMutability": "nonpayable",
      "type": "function"
    },
    {
      "inputs": [
        {
          "internalType": "address",
          "name": "_partyAddress",
          "type": "address"
        },
        {
          "internalType": "uint256",
          "name": "_tenderId",
          "type": "uint256"
        }
      ],
      "name": "selectTopBids",
      "outputs": [
        {
          "components": [
            {
              "internalType": "string",
              "name": "bidClause",
              "type": "string"
            },
            {
              "internalType": "uint256",
              "name": "quotedAmount",
              "type": "uint256"
            },
            {
              "internalType": "address",
              "name": "bidderAddress",
              "type": "address"
            },
            {
              "internalType": "uint256",
              "name": "tenderAddress",
              "type": "uint256"
            },
            {
              "internalType": "enum BidContract.BidStatus",
              "name": "bidStatus",
              "type": "uint8"
            },
            {
              "internalType": "uint256",
              "name": "createdAt",
              "type": "uint256"
            }
          ],
          "internalType": "struct BidContract.Bid[]",
          "name": "",
          "type": "tuple[]"
        }
      ],
      "stateMutability": "view",
      "type": "function",
      "constant": true
    },
    {
      "inputs": [
        {
          "internalType": "address",
          "name": "_partyAddress",
          "type": "address"
        },
        {
          "internalType": "uint256",
          "name": "_tenderId",
          "type": "uint256"
        },
        {
          "internalType": "uint256",
          "name": "_bidId",
          "type": "uint256"
        }
      ],
      "name": "finaliseWinnerBid",
      "outputs": [],
      "stateMutability": "nonpayable",
      "type": "function"
    }
  ],
  "bytecode": "0x608060405260006001553480156200001657600080fd5b50604051620033313803806200333183398181016040528101906200003c919062000102565b80600260006101000a81548173ffffffffffffffffffffffffffffffffffffffff021916908373ffffffffffffffffffffffffffffffffffffffff1602179055505062000134565b600080fd5b600073ffffffffffffffffffffffffffffffffffffffff82169050919050565b6000620000b68262000089565b9050919050565b6000620000ca82620000a9565b9050919050565b620000dc81620000bd565b8114620000e857600080fd5b50565b600081519050620000fc81620000d1565b92915050565b6000602082840312156200011b576200011a62000084565b5b60006200012b84828501620000eb565b91505092915050565b6131ed80620001446000396000f3fe608060405234801561001057600080fd5b506004361061009e5760003560e01c80638d5b8612116100665780638d5b86121461015c578063b344556c1461017a578063bb693c4d146101aa578063f91b6ae5146101c6578063fd140a95146101e25761009e565b8063167548c5146100a357806326b26e56146100bf5780634423c5f1146100db57806361281516146101105780636dc4d10c14610140575b600080fd5b6100bd60048036038101906100b8919061203c565b610212565b005b6100d960048036038101906100d491906120bf565b6102f1565b005b6100f560048036038101906100f09190612112565b6105d4565b60405161010796959493929190612253565b60405180910390f35b61012a600480360381019061012591906122bb565b6106c5565b60405161013791906124bd565b60405180910390f35b61015a60048036038101906101559190612504565b610add565b005b610164610c39565b60405161017191906125ca565b60405180910390f35b610194600480360381019061018f91906125e5565b610c5f565b6040516101a191906126d5565b60405180910390f35b6101c460048036038101906101bf91906120bf565b611017565b005b6101e060048036038101906101db919061203c565b611395565b005b6101fc60048036038101906101f791906122bb565b6118d8565b60405161020991906124bd565b60405180910390f35b83838173ffffffffffffffffffffffffffffffffffffffff1660008083815260200190815260200160002060020160009054906101000a900473ffffffffffffffffffffffffffffffffffffffff1673ffffffffffffffffffffffffffffffffffffffff16146102b7576040517f08c379a00000000000000000000000000000000000000000000000000000000081526004016102ae90612769565b60405180910390fd5b60008060008781526020019081526020016000209050848160000190816102de919061298b565b5083816001018190555050505050505050565b82826000600260009054906101000a900473ffffffffffffffffffffffffffffffffffffffff1673ffffffffffffffffffffffffffffffffffffffff16637e4d2d97836040518263ffffffff1660e01b81526004016103509190612a5d565b602060405180830381865afa15801561036d573d6000803e3d6000fd5b505050506040513d601f19601f820116820180604052508101906103919190612a8d565b90508273ffffffffffffffffffffffffffffffffffffffff168173ffffffffffffffffffffffffffffffffffffffff1614610401576040517f08c379a00000000000000000000000000000000000000000000000000000000081526004016103f890612769565b60405180910390fd5b6000600260009054906101000a900473ffffffffffffffffffffffffffffffffffffffff1673ffffffffffffffffffffffffffffffffffffffff166342222a43876040518263ffffffff1660e01b815260040161045e9190612a5d565b600060405180830381865afa15801561047b573d6000803e3d6000fd5b505050506040513d6000823e3d601f19601f820116820180604052508101906104a49190612b97565b905060005b815181101561053a57858282815181106104c6576104c5612be0565b5b6020026020010151036104ff576104fa88888484815181106104eb576104ea612be0565b5b60200260200101516002610add565b610527565b610526888884848151811061051757610516612be0565b5b60200260200101516001610add565b5b808061053290612c3e565b9150506104a9565b50600260009054906101000a900473ffffffffffffffffffffffffffffffffffffffff1673ffffffffffffffffffffffffffffffffffffffff1663aaaf41888760046040518363ffffffff1660e01b8152600401610599929190612cce565b600060405180830381600087803b1580156105b357600080fd5b505af11580156105c7573d6000803e3d6000fd5b5050505050505050505050565b60006020528060005260406000206000915090508060000180546105f7906127b8565b80601f0160208091040260200160405190810160405280929190818152602001828054610623906127b8565b80156106705780601f1061064557610100808354040283529160200191610670565b820191906000526020600020905b81548152906001019060200180831161065357829003601f168201915b5050505050908060010154908060020160009054906101000a900473ffffffffffffffffffffffffffffffffffffffff16908060030154908060040160009054906101000a900460ff16908060050154905086565b606082826000600260009054906101000a900473ffffffffffffffffffffffffffffffffffffffff1673ffffffffffffffffffffffffffffffffffffffff16637e4d2d97836040518263ffffffff1660e01b81526004016107269190612a5d565b602060405180830381865afa158015610743573d6000803e3d6000fd5b505050506040513d601f19601f820116820180604052508101906107679190612a8d565b90508273ffffffffffffffffffffffffffffffffffffffff168173ffffffffffffffffffffffffffffffffffffffff16146107d7576040517f08c379a00000000000000000000000000000000000000000000000000000000081526004016107ce90612769565b60405180910390fd5b6000600260009054906101000a900473ffffffffffffffffffffffffffffffffffffffff1673ffffffffffffffffffffffffffffffffffffffff166342222a43876040518263ffffffff1660e01b81526004016108349190612a5d565b600060405180830381865afa158015610851573d6000803e3d6000fd5b505050506040513d6000823e3d601f19601f8201168201806040525081019061087a9190612b97565b905060008151116108c0576040517f08c379a00000000000000000000000000000000000000000000000000000000081526004016108b790612d43565b60405180910390fd5b6000815167ffffffffffffffff8111156108dd576108dc611f11565b5b60405190808252806020026020018201604052801561091657816020015b610903611d93565b8152602001906001900390816108fb5790505b50905060005b8251811015610ace5760008084838151811061093b5761093a612be0565b5b602002602001015181526020019081526020016000206040518060c001604052908160008201805461096c906127b8565b80601f0160208091040260200160405190810160405280929190818152602001828054610998906127b8565b80156109e55780601f106109ba576101008083540402835291602001916109e5565b820191906000526020600020905b8154815290600101906020018083116109c857829003601f168201915b50505050508152602001600182015481526020016002820160009054906101000a900473ffffffffffffffffffffffffffffffffffffffff1673ffffffffffffffffffffffffffffffffffffffff1673ffffffffffffffffffffffffffffffffffffffff168152602001600382015481526020016004820160009054906101000a900460ff166002811115610a7d57610a7c6121dc565b5b6002811115610a8f57610a8e6121dc565b5b8152602001600582015481525050828281518110610ab057610aaf612be0565b5b60200260200101819052508080610ac690612c3e565b91505061091c565b50809550505050505092915050565b83836000600260009054906101000a900473ffffffffffffffffffffffffffffffffffffffff1673ffffffffffffffffffffffffffffffffffffffff16637e4d2d97836040518263ffffffff1660e01b8152600401610b3c9190612a5d565b602060405180830381865afa158015610b59573d6000803e3d6000fd5b505050506040513d601f19601f82011682018060405250810190610b7d9190612a8d565b90508273ffffffffffffffffffffffffffffffffffffffff168173ffffffffffffffffffffffffffffffffffffffff1614610bed576040517f08c379a0000000000000000000000000000000000000000000000000000000008152600401610be490612769565b60405180910390fd5b60008060008781526020019081526020016000209050848160040160006101000a81548160ff02191690836002811115610c2a57610c296121dc565b5b02179055505050505050505050565b600260009054906101000a900473ffffffffffffffffffffffffffffffffffffffff1681565b610c67611d93565b848484846000600260009054906101000a900473ffffffffffffffffffffffffffffffffffffffff1673ffffffffffffffffffffffffffffffffffffffff16637e4d2d97846040518263ffffffff1660e01b8152600401610cc89190612a5d565b602060405180830381865afa158015610ce5573d6000803e3d6000fd5b505050506040513d601f19601f82011682018060405250810190610d099190612a8d565b90508473ffffffffffffffffffffffffffffffffffffffff1660008084815260200190815260200160002060020160009054906101000a900473ffffffffffffffffffffffffffffffffffffffff1673ffffffffffffffffffffffffffffffffffffffff16148015610da657508373ffffffffffffffffffffffffffffffffffffffff168173ffffffffffffffffffffffffffffffffffffffff16145b8015610e1357508373ffffffffffffffffffffffffffffffffffffffff163373ffffffffffffffffffffffffffffffffffffffff161480610e1257508473ffffffffffffffffffffffffffffffffffffffff163373ffffffffffffffffffffffffffffffffffffffff16145b5b610e52576040517f08c379a0000000000000000000000000000000000000000000000000000000008152600401610e4990612dd5565b60405180910390fd5b60008060008981526020019081526020016000206001015411610eaa576040517f08c379a0000000000000000000000000000000000000000000000000000000008152600401610ea190612e41565b60405180910390fd5b6000808881526020019081526020016000206040518060c0016040529081600082018054610ed7906127b8565b80601f0160208091040260200160405190810160405280929190818152602001828054610f03906127b8565b8015610f505780601f10610f2557610100808354040283529160200191610f50565b820191906000526020600020905b815481529060010190602001808311610f3357829003601f168201915b50505050508152602001600182015481526020016002820160009054906101000a900473ffffffffffffffffffffffffffffffffffffffff1673ffffffffffffffffffffffffffffffffffffffff1673ffffffffffffffffffffffffffffffffffffffff168152602001600382015481526020016004820160009054906101000a900460ff166002811115610fe857610fe76121dc565b5b6002811115610ffa57610ff96121dc565b5b815260200160058201548152505095505050505050949350505050565b82818173ffffffffffffffffffffffffffffffffffffffff1660008083815260200190815260200160002060020160009054906101000a900473ffffffffffffffffffffffffffffffffffffffff1673ffffffffffffffffffffffffffffffffffffffff16146110bc576040517f08c379a00000000000000000000000000000000000000000000000000000000081526004016110b390612769565b60405180910390fd5b6000600260009054906101000a900473ffffffffffffffffffffffffffffffffffffffff1673ffffffffffffffffffffffffffffffffffffffff166342222a43866040518263ffffffff1660e01b81526004016111199190612a5d565b600060405180830381865afa158015611136573d6000803e3d6000fd5b505050506040513d6000823e3d601f19601f8201168201806040525081019061115f9190612b97565b905060008151116111a5576040517f08c379a000000000000000000000000000000000000000000000000000000000815260040161119c90612d43565b60405180910390fd5b600080600086815260200190815260200160002060010154116111fd576040517f08c379a00000000000000000000000000000000000000000000000000000000081526004016111f490612ead565b60405180910390fd5b60006002811115611211576112106121dc565b5b60008086815260200190815260200160002060040160009054906101000a900460ff166002811115611246576112456121dc565b5b03611286576040517f08c379a000000000000000000000000000000000000000000000000000000000815260040161127d90612f19565b60405180910390fd5b600080858152602001908152602001600020600080820160006112a99190611df1565b60018201600090556002820160006101000a81549073ffffffffffffffffffffffffffffffffffffffff021916905560038201600090556004820160006101000a81549060ff021916905560058201600090555050600260009054906101000a900473ffffffffffffffffffffffffffffffffffffffff1673ffffffffffffffffffffffffffffffffffffffff1663791778c186866040518363ffffffff1660e01b815260040161135b929190612f39565b600060405180830381600087803b15801561137557600080fd5b505af1158015611389573d6000803e3d6000fd5b50505050505050505050565b6000600260009054906101000a900473ffffffffffffffffffffffffffffffffffffffff1673ffffffffffffffffffffffffffffffffffffffff16632e4ea4c4856040518263ffffffff1660e01b81526004016113f29190612a5d565b602060405180830381865afa15801561140f573d6000803e3d6000fd5b505050506040513d601f19601f820116820180604052508101906114339190612f62565b90506000600260009054906101000a900473ffffffffffffffffffffffffffffffffffffffff1673ffffffffffffffffffffffffffffffffffffffff1663354133f7866040518263ffffffff1660e01b81526004016114929190612a5d565b602060405180830381865afa1580156114af573d6000803e3d6000fd5b505050506040513d601f19601f820116820180604052508101906114d39190612fb4565b90506000600260009054906101000a900473ffffffffffffffffffffffffffffffffffffffff1673ffffffffffffffffffffffffffffffffffffffff166382862275876040518263ffffffff1660e01b81526004016115329190612a5d565b602060405180830381865afa15801561154f573d6000803e3d6000fd5b505050506040513d601f19601f820116820180604052508101906115739190612f62565b90506000600260009054906101000a900473ffffffffffffffffffffffffffffffffffffffff1673ffffffffffffffffffffffffffffffffffffffff16637e4d2d97886040518263ffffffff1660e01b81526004016115d29190612a5d565b602060405180830381865afa1580156115ef573d6000803e3d6000fd5b505050506040513d601f19601f820116820180604052508101906116139190612a8d565b905060008411611658576040517f08c379a000000000000000000000000000000000000000000000000000000000815260040161164f9061302d565b60405180910390fd5b6001600481111561166c5761166b6121dc565b5b83600481111561167f5761167e6121dc565b5b146116bf576040517f08c379a00000000000000000000000000000000000000000000000000000000081526004016116b690613099565b60405180910390fd5b814211611701576040517f08c379a00000000000000000000000000000000000000000000000000000000081526004016116f890613105565b60405180910390fd5b8073ffffffffffffffffffffffffffffffffffffffff168873ffffffffffffffffffffffffffffffffffffffff160361176f576040517f08c379a000000000000000000000000000000000000000000000000000000000815260040161176690613197565b60405180910390fd5b60008060006001548152602001908152602001600020905086816000019081611798919061298b565b50858160010181905550888160020160006101000a81548173ffffffffffffffffffffffffffffffffffffffff021916908373ffffffffffffffffffffffffffffffffffffffff16021790555087816003018190555060008160040160006101000a81548160ff02191690836002811115611816576118156121dc565b5b0217905550428160050181905550600260009054906101000a900473ffffffffffffffffffffffffffffffffffffffff1673ffffffffffffffffffffffffffffffffffffffff1663f1d8ef4d896001546040518363ffffffff1660e01b8152600401611883929190612f39565b600060405180830381600087803b15801561189d57600080fd5b505af11580156118b1573d6000803e3d6000fd5b50505050600160008154809291906118c890612c3e565b9190505550505050505050505050565b606082826000600260009054906101000a900473ffffffffffffffffffffffffffffffffffffffff1673ffffffffffffffffffffffffffffffffffffffff16637e4d2d97836040518263ffffffff1660e01b81526004016119399190612a5d565b602060405180830381865afa158015611956573d6000803e3d6000fd5b505050506040513d601f19601f8201168201806040525081019061197a9190612a8d565b90508273ffffffffffffffffffffffffffffffffffffffff168173ffffffffffffffffffffffffffffffffffffffff16146119ea576040517f08c379a00000000000000000000000000000000000000000000000000000000081526004016119e190612769565b60405180910390fd5b846000600260009054906101000a900473ffffffffffffffffffffffffffffffffffffffff1673ffffffffffffffffffffffffffffffffffffffff166382862275836040518263ffffffff1660e01b8152600401611a489190612a5d565b602060405180830381865afa158015611a65573d6000803e3d6000fd5b505050506040513d601f19601f82011682018060405250810190611a899190612f62565b90506000600260009054906101000a900473ffffffffffffffffffffffffffffffffffffffff1673ffffffffffffffffffffffffffffffffffffffff1663354133f7846040518263ffffffff1660e01b8152600401611ae89190612a5d565b602060405180830381865afa158015611b05573d6000803e3d6000fd5b505050506040513d601f19601f82011682018060405250810190611b299190612fb4565b9050814210158015611b5f575060026004811115611b4a57611b496121dc565b5b816004811115611b5d57611b5c6121dc565b5b145b611b6857600080fd5b6000611b748a8a6106c5565b90506000815111611bba576040517f08c379a0000000000000000000000000000000000000000000000000000000008152600401611bb190612d43565b60405180910390fd5b6000600190505b8151811015611cb95760005b81811015611ca557828181518110611be857611be7612be0565b5b602002602001015160200151838381518110611c0757611c06612be0565b5b6020026020010151602001511015611c92576000838381518110611c2e57611c2d612be0565b5b60200260200101519050838281518110611c4b57611c4a612be0565b5b6020026020010151848481518110611c6657611c65612be0565b5b602002602001018190525080848381518110611c8557611c84612be0565b5b6020026020010181905250505b8080611c9d90612c3e565b915050611bcd565b508080611cb190612c3e565b915050611bc1565b5060006005825110611ccc576005611ccf565b81515b905060008167ffffffffffffffff811115611ced57611cec611f11565b5b604051908082528060200260200182016040528015611d2657816020015b611d13611d93565b815260200190600190039081611d0b5790505b50905060005b82811015611d8057838181518110611d4757611d46612be0565b5b6020026020010151828281518110611d6257611d61612be0565b5b60200260200101819052508080611d7890612c3e565b915050611d2c565b5080995050505050505050505092915050565b6040518060c001604052806060815260200160008152602001600073ffffffffffffffffffffffffffffffffffffffff1681526020016000815260200160006002811115611de457611de36121dc565b5b8152602001600081525090565b508054611dfd906127b8565b6000825580601f10611e0f5750611e2e565b601f016020900490600052602060002090810190611e2d9190611e31565b5b50565b5b80821115611e4a576000816000905550600101611e32565b5090565b6000604051905090565b600080fd5b600080fd5b600073ffffffffffffffffffffffffffffffffffffffff82169050919050565b6000611e8d82611e62565b9050919050565b611e9d81611e82565b8114611ea857600080fd5b50565b600081359050611eba81611e94565b92915050565b6000819050919050565b611ed381611ec0565b8114611ede57600080fd5b50565b600081359050611ef081611eca565b92915050565b600080fd5b600080fd5b6000601f19601f8301169050919050565b7f4e487b7100000000000000000000000000000000000000000000000000000000600052604160045260246000fd5b611f4982611f00565b810181811067ffffffffffffffff82111715611f6857611f67611f11565b5b80604052505050565b6000611f7b611e4e565b9050611f878282611f40565b919050565b600067ffffffffffffffff821115611fa757611fa6611f11565b5b611fb082611f00565b9050602081019050919050565b82818337600083830152505050565b6000611fdf611fda84611f8c565b611f71565b905082815260208101848484011115611ffb57611ffa611efb565b5b612006848285611fbd565b509392505050565b600082601f83011261202357612022611ef6565b5b8135612033848260208601611fcc565b91505092915050565b6000806000806080858703121561205657612055611e58565b5b600061206487828801611eab565b945050602061207587828801611ee1565b935050604085013567ffffffffffffffff81111561209657612095611e5d565b5b6120a28782880161200e565b92505060606120b387828801611ee1565b91505092959194509250565b6000806000606084860312156120d8576120d7611e58565b5b60006120e686828701611eab565b93505060206120f786828701611ee1565b925050604061210886828701611ee1565b9150509250925092565b60006020828403121561212857612127611e58565b5b600061213684828501611ee1565b91505092915050565b600081519050919050565b600082825260208201905092915050565b60005b8381101561217957808201518184015260208101905061215e565b60008484015250505050565b60006121908261213f565b61219a818561214a565b93506121aa81856020860161215b565b6121b381611f00565b840191505092915050565b6121c781611ec0565b82525050565b6121d681611e82565b82525050565b7f4e487b7100000000000000000000000000000000000000000000000000000000600052602160045260246000fd5b6003811061221c5761221b6121dc565b5b50565b600081905061222d8261220b565b919050565b600061223d8261221f565b9050919050565b61224d81612232565b82525050565b600060c082019050818103600083015261226d8189612185565b905061227c60208301886121be565b61228960408301876121cd565b61229660608301866121be565b6122a36080830185612244565b6122b060a08301846121be565b979650505050505050565b600080604083850312156122d2576122d1611e58565b5b60006122e085828601611eab565b92505060206122f185828601611ee1565b9150509250929050565b600081519050919050565b600082825260208201905092915050565b6000819050602082019050919050565b600082825260208201905092915050565b60006123438261213f565b61234d8185612327565b935061235d81856020860161215b565b61236681611f00565b840191505092915050565b61237a81611ec0565b82525050565b61238981611e82565b82525050565b61239881612232565b82525050565b600060c08301600083015184820360008601526123bb8282612338565b91505060208301516123d06020860182612371565b5060408301516123e36040860182612380565b5060608301516123f66060860182612371565b506080830151612409608086018261238f565b5060a083015161241c60a0860182612371565b508091505092915050565b6000612433838361239e565b905092915050565b6000602082019050919050565b6000612453826122fb565b61245d8185612306565b93508360208202850161246f85612317565b8060005b858110156124ab578484038952815161248c8582612427565b94506124978361243b565b925060208a01995050600181019050612473565b50829750879550505050505092915050565b600060208201905081810360008301526124d78184612448565b905092915050565b600381106124ec57600080fd5b50565b6000813590506124fe816124df565b92915050565b6000806000806080858703121561251e5761251d611e58565b5b600061252c87828801611eab565b945050602061253d87828801611ee1565b935050604061254e87828801611ee1565b925050606061255f878288016124ef565b91505092959194509250565b6000819050919050565b600061259061258b61258684611e62565b61256b565b611e62565b9050919050565b60006125a282612575565b9050919050565b60006125b482612597565b9050919050565b6125c4816125a9565b82525050565b60006020820190506125df60008301846125bb565b92915050565b600080600080608085870312156125ff576125fe611e58565b5b600061260d87828801611eab565b945050602061261e87828801611eab565b935050604061262f87828801611ee1565b925050606061264087828801611ee1565b91505092959194509250565b600060c08301600083015184820360008601526126698282612338565b915050602083015161267e6020860182612371565b5060408301516126916040860182612380565b5060608301516126a46060860182612371565b5060808301516126b7608086018261238f565b5060a08301516126ca60a0860182612371565b508091505092915050565b600060208201905081810360008301526126ef818461264c565b905092915050565b7f796f75277265206e6f7420617574686f72697a656420746f20706572666f726d60008201527f207468697320616374696f6e0000000000000000000000000000000000000000602082015250565b6000612753602c8361214a565b915061275e826126f7565b604082019050919050565b6000602082019050818103600083015261278281612746565b9050919050565b7f4e487b7100000000000000000000000000000000000000000000000000000000600052602260045260246000fd5b600060028204905060018216806127d057607f821691505b6020821081036127e3576127e2612789565b5b50919050565b60008190508160005260206000209050919050565b60006020601f8301049050919050565b600082821b905092915050565b60006008830261284b7fffffffffffffffffffffffffffffffffffffffffffffffffffffffffffffffff8261280e565b612855868361280e565b95508019841693508086168417925050509392505050565b600061288861288361287e84611ec0565b61256b565b611ec0565b9050919050565b6000819050919050565b6128a28361286d565b6128b66128ae8261288f565b84845461281b565b825550505050565b600090565b6128cb6128be565b6128d6818484612899565b505050565b5b818110156128fa576128ef6000826128c3565b6001810190506128dc565b5050565b601f82111561293f57612910816127e9565b612919846127fe565b81016020851015612928578190505b61293c612934856127fe565b8301826128db565b50505b505050565b600082821c905092915050565b600061296260001984600802612944565b1980831691505092915050565b600061297b8383612951565b9150826002028217905092915050565b6129948261213f565b67ffffffffffffffff8111156129ad576129ac611f11565b5b6129b782546127b8565b6129c28282856128fe565b600060209050601f8311600181146129f557600084156129e3578287015190505b6129ed858261296f565b865550612a55565b601f198416612a03866127e9565b60005b82811015612a2b57848901518255600182019150602085019450602081019050612a06565b86831015612a485784890151612a44601f891682612951565b8355505b6001600288020188555050505b505050505050565b6000602082019050612a7260008301846121be565b92915050565b600081519050612a8781611e94565b92915050565b600060208284031215612aa357612aa2611e58565b5b6000612ab184828501612a78565b91505092915050565b600067ffffffffffffffff821115612ad557612ad4611f11565b5b602082029050602081019050919050565b600080fd5b600081519050612afa81611eca565b92915050565b6000612b13612b0e84612aba565b611f71565b90508083825260208201905060208402830185811115612b3657612b35612ae6565b5b835b81811015612b5f5780612b4b8882612aeb565b845260208401935050602081019050612b38565b5050509392505050565b600082601f830112612b7e57612b7d611ef6565b5b8151612b8e848260208601612b00565b91505092915050565b600060208284031215612bad57612bac611e58565b5b600082015167ffffffffffffffff811115612bcb57612bca611e5d565b5b612bd784828501612b69565b91505092915050565b7f4e487b7100000000000000000000000000000000000000000000000000000000600052603260045260246000fd5b7f4e487b7100000000000000000000000000000000000000000000000000000000600052601160045260246000fd5b6000612c4982611ec0565b91507fffffffffffffffffffffffffffffffffffffffffffffffffffffffffffffffff8203612c7b57612c7a612c0f565b5b600182019050919050565b60058110612c9757612c966121dc565b5b50565b6000819050612ca882612c86565b919050565b6000612cb882612c9a565b9050919050565b612cc881612cad565b82525050565b6000604082019050612ce360008301856121be565b612cf06020830184612cbf565b9392505050565b7f4e6f206269647320657869737473000000000000000000000000000000000000600082015250565b6000612d2d600e8361214a565b9150612d3882612cf7565b602082019050919050565b60006020820190508181036000830152612d5c81612d20565b9050919050565b7f4e6f7420617574686f72697a656420746f20766965772062696420646574616960008201527f6c73000000000000000000000000000000000000000000000000000000000000602082015250565b6000612dbf60228361214a565b9150612dca82612d63565b604082019050919050565b60006020820190508181036000830152612dee81612db2565b9050919050565b7f42696420646f6573206e6f742065786973740000000000000000000000000000600082015250565b6000612e2b60128361214a565b9150612e3682612df5565b602082019050919050565b60006020820190508181036000830152612e5a81612e1e565b9050919050565b7f6269642077697468206164647265737320646f65736e27742065786973747300600082015250565b6000612e97601f8361214a565b9150612ea282612e61565b602082019050919050565b60006020820190508181036000830152612ec681612e8a565b9050919050565b7f6269642063616e6e6f742062652064656c657465640000000000000000000000600082015250565b6000612f0360158361214a565b9150612f0e82612ecd565b602082019050919050565b60006020820190508181036000830152612f3281612ef6565b9050919050565b6000604082019050612f4e60008301856121be565b612f5b60208301846121be565b9392505050565b600060208284031215612f7857612f77611e58565b5b6000612f8684828501612aeb565b91505092915050565b60058110612f9c57600080fd5b50565b600081519050612fae81612f8f565b92915050565b600060208284031215612fca57612fc9611e58565b5b6000612fd884828501612f9f565b91505092915050565b7f54656e64657220646f6573206e6f742065786973740000000000000000000000600082015250565b600061301760158361214a565b915061302282612fe1565b602082019050919050565b600060208201905081810360008301526130468161300a565b9050919050565b7f54656e646572206973206e6f74206f70656e20666f7220626964730000000000600082015250565b6000613083601b8361214a565b915061308e8261304d565b602082019050919050565b600060208201905081810360008301526130b281613076565b9050919050565b7f42696464696e672068617320656e646564000000000000000000000000000000600082015250565b60006130ef60118361214a565b91506130fa826130b9565b602082019050919050565b6000602082019050818103600083015261311e816130e2565b9050919050565b7f4f776e65722063616e6e6f7420626964206f6e207468656972206f776e20746560008201527f6e64657200000000000000000000000000000000000000000000000000000000602082015250565b600061318160248361214a565b915061318c82613125565b604082019050919050565b600060208201905081810360008301526131b081613174565b905091905056fea2646970667358221220f2a81c65681029d618c81ead26c710f0be54434758977826103fb2e63db2b3d464736f6c63430008130033",
  "immutableReferences": {},
  "source": "// SPDX-License-Identifier: UNLICENSED\r\n\r\n//the version of solidity that is compatible\r\npragma solidity ^0.8.0;\r\npragma experimental ABIEncoderV2;\r\n\r\nimport \"./TenderContract.sol\";\r\n\r\ncontract BidContract {\r\n    enum BidStatus{PENDING, REJECTED, APPROVED}\r\n\r\n    // Bidding Struct\r\n    struct Bid {\r\n        string bidClause;\r\n        uint256 quotedAmount;\r\n        address bidderAddress;\r\n        uint256 tenderAddress;\r\n        BidStatus bidStatus;\r\n        uint256 createdAt;\r\n    }\r\n\r\n    mapping (uint256 => Bid) public bids;\r\n    uint256 bidCount = 0;\r\n    TenderContract public tenderRef;\r\n\r\n    constructor(TenderContract _tenderRef){\r\n        tenderRef = _tenderRef;\r\n    }\r\n\r\n    modifier isTenderOwner(address _partyAddress, uint256 _tenderAddress) {\r\n        address issuerAddress = tenderRef.getIssuerAddress(_tenderAddress);\r\n        require(issuerAddress == _partyAddress, \"you're not authorized to perform this action\");\r\n        _;\r\n    }\r\n\r\n    modifier isBidOwner(address _bidderAddress, uint256 _bidId) {\r\n        require(bids[_bidId].bidderAddress == _bidderAddress, \"you're not authorized to perform this action\");\r\n        _;\r\n    }\r\n\r\n    function createBid(address _bidderAddress, uint256 _tenderAddress, string memory _bidClause, uint256 _quotedAmount) public{\r\n        // Tender storage _tender = tenderRef.tenders(_tenderAddress);\r\n        uint256 _budget = tenderRef.getBudget(_tenderAddress);\r\n        TenderStatus _tenderStatus = tenderRef.getTenderStatus(_tenderAddress);\r\n        uint256 _deadline = tenderRef.getDeadline(_tenderAddress);\r\n        address _issuerAddress = tenderRef.getIssuerAddress(_tenderAddress);\r\n        require(_budget > 0, \"Tender does not exist\");\r\n        require(_tenderStatus == TenderStatus.OPEN, \"Tender is not open for bids\");\r\n        require(block.timestamp > _deadline, \"Bidding has ended\");\r\n        require(_bidderAddress != _issuerAddress, \"Owner cannot bid on their own tender\");\r\n\r\n        Bid storage newBid = bids[bidCount];\r\n        newBid.bidClause = _bidClause;\r\n        newBid.quotedAmount = _quotedAmount;\r\n        newBid.bidderAddress = _bidderAddress;\r\n        newBid.tenderAddress = _tenderAddress;\r\n        newBid.bidStatus = BidStatus.PENDING;\r\n        newBid.createdAt = block.timestamp;\r\n        tenderRef.addBidId(_tenderAddress, bidCount);\r\n        bidCount++;\r\n    }\r\n\r\n    modifier canViewBid(address _bidderAddress, address _issuerAddress ,uint256 _tenderId, uint256 _bidId){\r\n        address issuerAddress = tenderRef.getIssuerAddress(_tenderId);\r\n        require(bids[_bidId].bidderAddress == _bidderAddress  && issuerAddress == _issuerAddress && (msg.sender == _issuerAddress || msg.sender == _bidderAddress), \"Not authorized to view bid details\");\r\n        _;\r\n    }\r\n\r\n    // For getting bid details like message, amount, address of bidders \r\n    function getBidDetails(address _bidderAddress, address _issuerAddress ,uint256 _tenderId, uint256 _bidId) public view canViewBid(_bidderAddress, _issuerAddress, _tenderId, _bidId) returns (Bid memory) {\r\n\t    require(bids[_bidId].quotedAmount > 0, \"Bid does not exist\");\r\n    \treturn (bids[_bidId]);\r\n    }\r\n\r\n    // For getting all bids of a tender\r\n    function getAllBids(address _partyAddress, uint256 _tenderId) public view isTenderOwner(_partyAddress, _tenderId) returns(Bid[] memory){\r\n        uint256[] memory tenderBidIds = tenderRef.getBidIds(_tenderId);\r\n        require(tenderBidIds.length > 0, \"No bids exists\");\r\n        Bid[] memory bidsList = new Bid[](tenderBidIds.length);\r\n        for (uint256 i = 0; i < tenderBidIds.length; i++) {\r\n            bidsList[i] = bids[tenderBidIds[i]];\r\n        }\r\n        return(bidsList);\r\n    }\r\n\r\n    function updateBidStatus(address _partyAddress, uint256 _tenderAddress, uint256 _bidAddress ,BidStatus _bidStatus) public isTenderOwner(_partyAddress, _tenderAddress) {\r\n        Bid storage updatedBid = bids[_bidAddress];\r\n        updatedBid.bidStatus = _bidStatus;\r\n    }\r\n\r\n    function updateBid(address _bidderAddress, uint256 _bidId, string memory _bidClause, uint256 _quotedAmount) public isBidOwner(_bidderAddress, _bidId) {\r\n        Bid storage updatedBid = bids[_bidId];\r\n        updatedBid.bidClause = _bidClause;\r\n        updatedBid.quotedAmount = _quotedAmount;\r\n    }\r\n\r\n    function deleteBid(address _bidderAddress, uint256 _tenderId ,uint256 _bidId) public isBidOwner(_bidderAddress, _bidId){ \r\n        uint256[] memory tenderBidIds = tenderRef.getBidIds(_tenderId);\r\n        require(tenderBidIds.length > 0, \"No bids exists\");\r\n        require(bids[_bidId].quotedAmount > 0 , \"bid with address doesn't exists\");\r\n        require(bids[_bidId].bidStatus != BidStatus.PENDING , \"bid cannot be deleted\");\r\n        delete bids[_bidId];\r\n        tenderRef.deleteBidId(_tenderId, _bidId);             \r\n    }\r\n\r\n    modifier isValidTender(uint256 tenderId) {\r\n        uint256 _deadline = tenderRef.getDeadline(tenderId);\r\n        TenderStatus _tenderStatus = tenderRef.getTenderStatus(tenderId);\r\n        require(block.timestamp >= _deadline && _tenderStatus == TenderStatus.CLOSED);\r\n        _;\r\n    }\r\n\r\n    function selectTopBids(address _partyAddress, uint256 _tenderId ) public view isTenderOwner(_partyAddress, _tenderId) isValidTender(_tenderId) returns (Bid[] memory) {\r\n        //invoke this function once deadline is crossed and can be invoked by project issue party, make sure this project is not assigned to anyone------modifier\r\n        // get all the bids for pt\r\n        Bid[] memory bidList = getAllBids(_partyAddress, _tenderId);\r\n        require(bidList.length > 0, \"No bids exists\");\r\n        // sort bids by price\r\n        for (uint i = 1; i < bidList.length; i++){\r\n            for (uint j = 0; j < i; j++){\r\n                if (bidList[i].quotedAmount < bidList[j].quotedAmount) {\r\n                    Bid memory tempBid = bidList[i];\r\n                    bidList[i] = bidList[j];\r\n                    bidList[j] = tempBid;\r\n                }\r\n            }\r\n        }\r\n        uint256 shortListedBidsCount = (bidList.length < 5) ? bidList.length : 5; \r\n        Bid[] memory shortListedBids = new Bid[](shortListedBidsCount);\r\n        for (uint i = 0; i < shortListedBidsCount; i++){\r\n            shortListedBids[i] = bidList[i];\r\n        }\r\n\r\n        return shortListedBids;\r\n        //returns a list of top 5 bidders and history of bidders\r\n\r\n        // - in case of a tie, the bidder with the largest \"trust\" is given the project. ( Trust in this context is measured in terms of the number of previous projects done and the token assets a party has.)\r\n        // update the status of each bid to APPROVED / REJECTED from PENDING.\r\n    }\r\n\r\n    function finaliseWinnerBid(address _partyAddress, uint256 _tenderId, uint256 _bidId) public isTenderOwner(_partyAddress, _tenderId){\r\n        uint256[] memory tenderBidIds = tenderRef.getBidIds(_tenderId);\r\n        for(uint256 i=0;i< tenderBidIds.length ;i++){\r\n            if(tenderBidIds[i] == _bidId)\r\n                updateBidStatus(_partyAddress, _tenderId, tenderBidIds[i], BidStatus.APPROVED);\r\n            else \r\n                updateBidStatus(_partyAddress, _tenderId, tenderBidIds[i], BidStatus.REJECTED);\r\n        }\r\n        tenderRef.updateTenderStatus(_tenderId, TenderStatus.ASSIGNED);\r\n    }\r\n\r\n}",
  "sourcePath": "C:\\Users\\sabba\\OneDrive\\Documents\\BlockchainProject\\blockchain-based-contracting-system\\contracts\\BidContract.sol",
  "compiler": {
    "name": "solc",
    "version": "0.8.19+commit.7dd6d404.Emscripten.clang"
  },
  "schemaVersion": "3.4.13",
  "updatedAt": "2023-04-10T20:48:41.643Z",
  "networkType": "ethereum",
  "devdoc": {
    "kind": "dev",
    "methods": {},
    "version": 1
  },
  "userdoc": {
    "kind": "user",
    "methods": {},
    "version": 1
  }
}