{
  "contractName": "BidContract",
  "abi": [
    {
      "inputs": [
        {
          "internalType": "contract TenderContract",
          "name": "_tenderRef",
          "type": "address"
        }
      ],
      "stateMutability": "nonpayable",
      "type": "constructor"
    },
    {
      "inputs": [
        {
          "internalType": "uint256",
          "name": "",
          "type": "uint256"
        }
      ],
      "name": "bids",
      "outputs": [
        {
          "internalType": "uint256",
          "name": "bidId",
          "type": "uint256"
        },
        {
          "internalType": "string",
          "name": "bidClause",
          "type": "string"
        },
        {
          "internalType": "uint256",
          "name": "quotedAmount",
          "type": "uint256"
        },
        {
          "internalType": "address",
          "name": "bidderAddress",
          "type": "address"
        },
        {
          "internalType": "uint256",
          "name": "tenderId",
          "type": "uint256"
        },
        {
          "internalType": "enum BidContract.BidStatus",
          "name": "bidStatus",
          "type": "uint8"
        },
        {
          "internalType": "uint256",
          "name": "createdAt",
          "type": "uint256"
        }
      ],
      "stateMutability": "view",
      "type": "function"
    },
    {
      "inputs": [],
      "name": "tenderRef",
      "outputs": [
        {
          "internalType": "contract TenderContract",
          "name": "",
          "type": "address"
        }
      ],
      "stateMutability": "view",
      "type": "function"
    },
    {
      "inputs": [
        {
          "internalType": "address",
          "name": "_bidderAddress",
          "type": "address"
        },
        {
          "internalType": "uint256",
          "name": "_tenderId",
          "type": "uint256"
        },
        {
          "internalType": "string",
          "name": "_bidClause",
          "type": "string"
        },
        {
          "internalType": "uint256",
          "name": "_quotedAmount",
          "type": "uint256"
        }
      ],
      "name": "createBid",
      "outputs": [],
      "stateMutability": "nonpayable",
      "type": "function"
    },
    {
      "inputs": [
        {
          "internalType": "address",
          "name": "_bidderAddress",
          "type": "address"
        },
        {
          "internalType": "address",
          "name": "_issuerAddress",
          "type": "address"
        },
        {
          "internalType": "uint256",
          "name": "_tenderId",
          "type": "uint256"
        },
        {
          "internalType": "uint256",
          "name": "_bidId",
          "type": "uint256"
        }
      ],
      "name": "getBidDetails",
      "outputs": [
        {
          "components": [
            {
              "internalType": "uint256",
              "name": "bidId",
              "type": "uint256"
            },
            {
              "internalType": "string",
              "name": "bidClause",
              "type": "string"
            },
            {
              "internalType": "uint256",
              "name": "quotedAmount",
              "type": "uint256"
            },
            {
              "internalType": "address",
              "name": "bidderAddress",
              "type": "address"
            },
            {
              "internalType": "uint256",
              "name": "tenderId",
              "type": "uint256"
            },
            {
              "internalType": "enum BidContract.BidStatus",
              "name": "bidStatus",
              "type": "uint8"
            },
            {
              "internalType": "uint256",
              "name": "createdAt",
              "type": "uint256"
            }
          ],
          "internalType": "struct BidContract.Bid",
          "name": "",
          "type": "tuple"
        }
      ],
      "stateMutability": "view",
      "type": "function"
    },
    {
      "inputs": [
        {
          "internalType": "address",
          "name": "_partyAddress",
          "type": "address"
        },
        {
          "internalType": "uint256",
          "name": "_tenderId",
          "type": "uint256"
        }
      ],
      "name": "getAllBids",
      "outputs": [
        {
          "components": [
            {
              "internalType": "uint256",
              "name": "bidId",
              "type": "uint256"
            },
            {
              "internalType": "string",
              "name": "bidClause",
              "type": "string"
            },
            {
              "internalType": "uint256",
              "name": "quotedAmount",
              "type": "uint256"
            },
            {
              "internalType": "address",
              "name": "bidderAddress",
              "type": "address"
            },
            {
              "internalType": "uint256",
              "name": "tenderId",
              "type": "uint256"
            },
            {
              "internalType": "enum BidContract.BidStatus",
              "name": "bidStatus",
              "type": "uint8"
            },
            {
              "internalType": "uint256",
              "name": "createdAt",
              "type": "uint256"
            }
          ],
          "internalType": "struct BidContract.Bid[]",
          "name": "",
          "type": "tuple[]"
        }
      ],
      "stateMutability": "view",
      "type": "function"
    },
    {
      "inputs": [
        {
          "internalType": "address",
          "name": "_partyAddress",
          "type": "address"
        },
        {
          "internalType": "uint256",
          "name": "_tenderId",
          "type": "uint256"
        },
        {
          "internalType": "uint256",
          "name": "_bidAddress",
          "type": "uint256"
        },
        {
          "internalType": "enum BidContract.BidStatus",
          "name": "_bidStatus",
          "type": "uint8"
        }
      ],
      "name": "updateBidStatus",
      "outputs": [],
      "stateMutability": "nonpayable",
      "type": "function"
    },
    {
      "inputs": [
        {
          "internalType": "address",
          "name": "_bidderAddress",
          "type": "address"
        },
        {
          "internalType": "uint256",
          "name": "_bidId",
          "type": "uint256"
        },
        {
          "internalType": "string",
          "name": "_bidClause",
          "type": "string"
        },
        {
          "internalType": "uint256",
          "name": "_quotedAmount",
          "type": "uint256"
        }
      ],
      "name": "updateBid",
      "outputs": [],
      "stateMutability": "nonpayable",
      "type": "function"
    },
    {
      "inputs": [
        {
          "internalType": "address",
          "name": "_bidderAddress",
          "type": "address"
        },
        {
          "internalType": "uint256",
          "name": "_tenderId",
          "type": "uint256"
        },
        {
          "internalType": "uint256",
          "name": "_bidId",
          "type": "uint256"
        }
      ],
      "name": "deleteBid",
      "outputs": [],
      "stateMutability": "nonpayable",
      "type": "function"
    },
    {
      "inputs": [
        {
          "internalType": "address",
          "name": "_partyAddress",
          "type": "address"
        },
        {
          "internalType": "uint256",
          "name": "_tenderId",
          "type": "uint256"
        }
      ],
      "name": "selectTopBids",
      "outputs": [
        {
          "components": [
            {
              "internalType": "uint256",
              "name": "bidId",
              "type": "uint256"
            },
            {
              "internalType": "string",
              "name": "bidClause",
              "type": "string"
            },
            {
              "internalType": "uint256",
              "name": "quotedAmount",
              "type": "uint256"
            },
            {
              "internalType": "address",
              "name": "bidderAddress",
              "type": "address"
            },
            {
              "internalType": "uint256",
              "name": "tenderId",
              "type": "uint256"
            },
            {
              "internalType": "enum BidContract.BidStatus",
              "name": "bidStatus",
              "type": "uint8"
            },
            {
              "internalType": "uint256",
              "name": "createdAt",
              "type": "uint256"
            }
          ],
          "internalType": "struct BidContract.Bid[]",
          "name": "",
          "type": "tuple[]"
        }
      ],
      "stateMutability": "view",
      "type": "function"
    },
    {
      "inputs": [
        {
          "internalType": "address",
          "name": "_partyAddress",
          "type": "address"
        },
        {
          "internalType": "uint256",
          "name": "_tenderId",
          "type": "uint256"
        },
        {
          "internalType": "uint256",
          "name": "_bidId",
          "type": "uint256"
        }
      ],
      "name": "finaliseWinnerBid",
      "outputs": [],
      "stateMutability": "nonpayable",
      "type": "function"
    }
  ],
  "bytecode": "0x608060405260006001553480156200001657600080fd5b506040516200339a3803806200339a83398181016040528101906200003c919062000102565b80600260006101000a81548173ffffffffffffffffffffffffffffffffffffffff021916908373ffffffffffffffffffffffffffffffffffffffff1602179055505062000134565b600080fd5b600073ffffffffffffffffffffffffffffffffffffffff82169050919050565b6000620000b68262000089565b9050919050565b6000620000ca82620000a9565b9050919050565b620000dc81620000bd565b8114620000e857600080fd5b50565b600081519050620000fc81620000d1565b92915050565b6000602082840312156200011b576200011a62000084565b5b60006200012b84828501620000eb565b91505092915050565b61325680620001446000396000f3fe608060405234801561001057600080fd5b506004361061009e5760003560e01c80638d5b8612116100665780638d5b86121461015d578063b344556c1461017b578063bb693c4d146101ab578063f91b6ae5146101c7578063fd140a95146101e35761009e565b8063167548c5146100a357806326b26e56146100bf5780634423c5f1146100db57806361281516146101115780636dc4d10c14610141575b600080fd5b6100bd60048036038101906100b89190612071565b610213565b005b6100d960048036038101906100d491906120f4565b6102f2565b005b6100f560048036038101906100f09190612147565b6105d5565b6040516101089796959493929190612288565b60405180910390f35b61012b600480360381019061012691906122fe565b6106cc565b6040516101389190612513565b60405180910390f35b61015b6004803603810190610156919061255a565b610aee565b005b610165610c4a565b6040516101729190612620565b60405180910390f35b6101956004803603810190610190919061263b565b610c70565b6040516101a2919061273e565b60405180910390f35b6101c560048036038101906101c091906120f4565b611032565b005b6101e160048036038101906101dc9190612071565b6113b8565b005b6101fd60048036038101906101f891906122fe565b611906565b60405161020a9190612513565b60405180910390f35b83838173ffffffffffffffffffffffffffffffffffffffff1660008083815260200190815260200160002060030160009054906101000a900473ffffffffffffffffffffffffffffffffffffffff1673ffffffffffffffffffffffffffffffffffffffff16146102b8576040517f08c379a00000000000000000000000000000000000000000000000000000000081526004016102af906127d2565b60405180910390fd5b60008060008781526020019081526020016000209050848160010190816102df91906129f4565b5083816002018190555050505050505050565b82826000600260009054906101000a900473ffffffffffffffffffffffffffffffffffffffff1673ffffffffffffffffffffffffffffffffffffffff16637e4d2d97836040518263ffffffff1660e01b81526004016103519190612ac6565b602060405180830381865afa15801561036e573d6000803e3d6000fd5b505050506040513d601f19601f820116820180604052508101906103929190612af6565b90508273ffffffffffffffffffffffffffffffffffffffff168173ffffffffffffffffffffffffffffffffffffffff1614610402576040517f08c379a00000000000000000000000000000000000000000000000000000000081526004016103f9906127d2565b60405180910390fd5b6000600260009054906101000a900473ffffffffffffffffffffffffffffffffffffffff1673ffffffffffffffffffffffffffffffffffffffff166342222a43876040518263ffffffff1660e01b815260040161045f9190612ac6565b600060405180830381865afa15801561047c573d6000803e3d6000fd5b505050506040513d6000823e3d601f19601f820116820180604052508101906104a59190612c00565b905060005b815181101561053b57858282815181106104c7576104c6612c49565b5b602002602001015103610500576104fb88888484815181106104ec576104eb612c49565b5b60200260200101516002610aee565b610528565b610527888884848151811061051857610517612c49565b5b60200260200101516001610aee565b5b808061053390612ca7565b9150506104aa565b50600260009054906101000a900473ffffffffffffffffffffffffffffffffffffffff1673ffffffffffffffffffffffffffffffffffffffff1663aaaf41888760046040518363ffffffff1660e01b815260040161059a929190612d37565b600060405180830381600087803b1580156105b457600080fd5b505af11580156105c8573d6000803e3d6000fd5b5050505050505050505050565b60006020528060005260406000206000915090508060000154908060010180546105fe90612821565b80601f016020809104026020016040519081016040528092919081815260200182805461062a90612821565b80156106775780601f1061064c57610100808354040283529160200191610677565b820191906000526020600020905b81548152906001019060200180831161065a57829003601f168201915b5050505050908060020154908060030160009054906101000a900473ffffffffffffffffffffffffffffffffffffffff16908060040154908060050160009054906101000a900460ff16908060060154905087565b606082826000600260009054906101000a900473ffffffffffffffffffffffffffffffffffffffff1673ffffffffffffffffffffffffffffffffffffffff16637e4d2d97836040518263ffffffff1660e01b815260040161072d9190612ac6565b602060405180830381865afa15801561074a573d6000803e3d6000fd5b505050506040513d601f19601f8201168201806040525081019061076e9190612af6565b90508273ffffffffffffffffffffffffffffffffffffffff168173ffffffffffffffffffffffffffffffffffffffff16146107de576040517f08c379a00000000000000000000000000000000000000000000000000000000081526004016107d5906127d2565b60405180910390fd5b6000600260009054906101000a900473ffffffffffffffffffffffffffffffffffffffff1673ffffffffffffffffffffffffffffffffffffffff166342222a43876040518263ffffffff1660e01b815260040161083b9190612ac6565b600060405180830381865afa158015610858573d6000803e3d6000fd5b505050506040513d6000823e3d601f19601f820116820180604052508101906108819190612c00565b905060008151116108c7576040517f08c379a00000000000000000000000000000000000000000000000000000000081526004016108be90612dac565b60405180910390fd5b6000815167ffffffffffffffff8111156108e4576108e3611f46565b5b60405190808252806020026020018201604052801561091d57816020015b61090a611dc1565b8152602001906001900390816109025790505b50905060005b8251811015610adf5760008084838151811061094257610941612c49565b5b602002602001015181526020019081526020016000206040518060e00160405290816000820154815260200160018201805461097d90612821565b80601f01602080910402602001604051908101604052809291908181526020018280546109a990612821565b80156109f65780601f106109cb576101008083540402835291602001916109f6565b820191906000526020600020905b8154815290600101906020018083116109d957829003601f168201915b50505050508152602001600282015481526020016003820160009054906101000a900473ffffffffffffffffffffffffffffffffffffffff1673ffffffffffffffffffffffffffffffffffffffff1673ffffffffffffffffffffffffffffffffffffffff168152602001600482015481526020016005820160009054906101000a900460ff166002811115610a8e57610a8d612211565b5b6002811115610aa057610a9f612211565b5b8152602001600682015481525050828281518110610ac157610ac0612c49565b5b60200260200101819052508080610ad790612ca7565b915050610923565b50809550505050505092915050565b83836000600260009054906101000a900473ffffffffffffffffffffffffffffffffffffffff1673ffffffffffffffffffffffffffffffffffffffff16637e4d2d97836040518263ffffffff1660e01b8152600401610b4d9190612ac6565b602060405180830381865afa158015610b6a573d6000803e3d6000fd5b505050506040513d601f19601f82011682018060405250810190610b8e9190612af6565b90508273ffffffffffffffffffffffffffffffffffffffff168173ffffffffffffffffffffffffffffffffffffffff1614610bfe576040517f08c379a0000000000000000000000000000000000000000000000000000000008152600401610bf5906127d2565b60405180910390fd5b60008060008781526020019081526020016000209050848160050160006101000a81548160ff02191690836002811115610c3b57610c3a612211565b5b02179055505050505050505050565b600260009054906101000a900473ffffffffffffffffffffffffffffffffffffffff1681565b610c78611dc1565b848484846000600260009054906101000a900473ffffffffffffffffffffffffffffffffffffffff1673ffffffffffffffffffffffffffffffffffffffff16637e4d2d97846040518263ffffffff1660e01b8152600401610cd99190612ac6565b602060405180830381865afa158015610cf6573d6000803e3d6000fd5b505050506040513d601f19601f82011682018060405250810190610d1a9190612af6565b90508473ffffffffffffffffffffffffffffffffffffffff1660008084815260200190815260200160002060030160009054906101000a900473ffffffffffffffffffffffffffffffffffffffff1673ffffffffffffffffffffffffffffffffffffffff16148015610db757508373ffffffffffffffffffffffffffffffffffffffff168173ffffffffffffffffffffffffffffffffffffffff16145b8015610e2457508373ffffffffffffffffffffffffffffffffffffffff163373ffffffffffffffffffffffffffffffffffffffff161480610e2357508473ffffffffffffffffffffffffffffffffffffffff163373ffffffffffffffffffffffffffffffffffffffff16145b5b610e63576040517f08c379a0000000000000000000000000000000000000000000000000000000008152600401610e5a90612e3e565b60405180910390fd5b60008060008981526020019081526020016000206002015411610ebb576040517f08c379a0000000000000000000000000000000000000000000000000000000008152600401610eb290612eaa565b60405180910390fd5b6000808881526020019081526020016000206040518060e001604052908160008201548152602001600182018054610ef290612821565b80601f0160208091040260200160405190810160405280929190818152602001828054610f1e90612821565b8015610f6b5780601f10610f4057610100808354040283529160200191610f6b565b820191906000526020600020905b815481529060010190602001808311610f4e57829003601f168201915b50505050508152602001600282015481526020016003820160009054906101000a900473ffffffffffffffffffffffffffffffffffffffff1673ffffffffffffffffffffffffffffffffffffffff1673ffffffffffffffffffffffffffffffffffffffff168152602001600482015481526020016005820160009054906101000a900460ff16600281111561100357611002612211565b5b600281111561101557611014612211565b5b815260200160068201548152505095505050505050949350505050565b82818173ffffffffffffffffffffffffffffffffffffffff1660008083815260200190815260200160002060030160009054906101000a900473ffffffffffffffffffffffffffffffffffffffff1673ffffffffffffffffffffffffffffffffffffffff16146110d7576040517f08c379a00000000000000000000000000000000000000000000000000000000081526004016110ce906127d2565b60405180910390fd5b6000600260009054906101000a900473ffffffffffffffffffffffffffffffffffffffff1673ffffffffffffffffffffffffffffffffffffffff166342222a43866040518263ffffffff1660e01b81526004016111349190612ac6565b600060405180830381865afa158015611151573d6000803e3d6000fd5b505050506040513d6000823e3d601f19601f8201168201806040525081019061117a9190612c00565b905060008151116111c0576040517f08c379a00000000000000000000000000000000000000000000000000000000081526004016111b790612dac565b60405180910390fd5b60008060008681526020019081526020016000206002015411611218576040517f08c379a000000000000000000000000000000000000000000000000000000000815260040161120f90612f16565b60405180910390fd5b6000600281111561122c5761122b612211565b5b60008086815260200190815260200160002060050160009054906101000a900460ff16600281111561126157611260612211565b5b036112a1576040517f08c379a000000000000000000000000000000000000000000000000000000000815260040161129890612f82565b60405180910390fd5b6000808581526020019081526020016000206000808201600090556001820160006112cc9190611e26565b60028201600090556003820160006101000a81549073ffffffffffffffffffffffffffffffffffffffff021916905560048201600090556005820160006101000a81549060ff021916905560068201600090555050600260009054906101000a900473ffffffffffffffffffffffffffffffffffffffff1673ffffffffffffffffffffffffffffffffffffffff1663791778c186866040518363ffffffff1660e01b815260040161137e929190612fa2565b600060405180830381600087803b15801561139857600080fd5b505af11580156113ac573d6000803e3d6000fd5b50505050505050505050565b6000600260009054906101000a900473ffffffffffffffffffffffffffffffffffffffff1673ffffffffffffffffffffffffffffffffffffffff16632e4ea4c4856040518263ffffffff1660e01b81526004016114159190612ac6565b602060405180830381865afa158015611432573d6000803e3d6000fd5b505050506040513d601f19601f820116820180604052508101906114569190612fcb565b90506000600260009054906101000a900473ffffffffffffffffffffffffffffffffffffffff1673ffffffffffffffffffffffffffffffffffffffff1663354133f7866040518263ffffffff1660e01b81526004016114b59190612ac6565b602060405180830381865afa1580156114d2573d6000803e3d6000fd5b505050506040513d601f19601f820116820180604052508101906114f6919061301d565b90506000600260009054906101000a900473ffffffffffffffffffffffffffffffffffffffff1673ffffffffffffffffffffffffffffffffffffffff166382862275876040518263ffffffff1660e01b81526004016115559190612ac6565b602060405180830381865afa158015611572573d6000803e3d6000fd5b505050506040513d601f19601f820116820180604052508101906115969190612fcb565b90506000600260009054906101000a900473ffffffffffffffffffffffffffffffffffffffff1673ffffffffffffffffffffffffffffffffffffffff16637e4d2d97886040518263ffffffff1660e01b81526004016115f59190612ac6565b602060405180830381865afa158015611612573d6000803e3d6000fd5b505050506040513d601f19601f820116820180604052508101906116369190612af6565b90506000841161167b576040517f08c379a000000000000000000000000000000000000000000000000000000000815260040161167290613096565b60405180910390fd5b6001600481111561168f5761168e612211565b5b8360048111156116a2576116a1612211565b5b146116e2576040517f08c379a00000000000000000000000000000000000000000000000000000000081526004016116d990613102565b60405180910390fd5b814211611724576040517f08c379a000000000000000000000000000000000000000000000000000000000815260040161171b9061316e565b60405180910390fd5b8073ffffffffffffffffffffffffffffffffffffffff168873ffffffffffffffffffffffffffffffffffffffff1603611792576040517f08c379a000000000000000000000000000000000000000000000000000000000815260040161178990613200565b60405180910390fd5b6000806000600154815260200190815260200160002090506001548160000181905550868160010190816117c691906129f4565b50858160020181905550888160030160006101000a81548173ffffffffffffffffffffffffffffffffffffffff021916908373ffffffffffffffffffffffffffffffffffffffff16021790555087816004018190555060008160050160006101000a81548160ff0219169083600281111561184457611843612211565b5b0217905550428160060181905550600260009054906101000a900473ffffffffffffffffffffffffffffffffffffffff1673ffffffffffffffffffffffffffffffffffffffff1663f1d8ef4d896001546040518363ffffffff1660e01b81526004016118b1929190612fa2565b600060405180830381600087803b1580156118cb57600080fd5b505af11580156118df573d6000803e3d6000fd5b50505050600160008154809291906118f690612ca7565b9190505550505050505050505050565b606082826000600260009054906101000a900473ffffffffffffffffffffffffffffffffffffffff1673ffffffffffffffffffffffffffffffffffffffff16637e4d2d97836040518263ffffffff1660e01b81526004016119679190612ac6565b602060405180830381865afa158015611984573d6000803e3d6000fd5b505050506040513d601f19601f820116820180604052508101906119a89190612af6565b90508273ffffffffffffffffffffffffffffffffffffffff168173ffffffffffffffffffffffffffffffffffffffff1614611a18576040517f08c379a0000000000000000000000000000000000000000000000000000000008152600401611a0f906127d2565b60405180910390fd5b846000600260009054906101000a900473ffffffffffffffffffffffffffffffffffffffff1673ffffffffffffffffffffffffffffffffffffffff166382862275836040518263ffffffff1660e01b8152600401611a769190612ac6565b602060405180830381865afa158015611a93573d6000803e3d6000fd5b505050506040513d601f19601f82011682018060405250810190611ab79190612fcb565b90506000600260009054906101000a900473ffffffffffffffffffffffffffffffffffffffff1673ffffffffffffffffffffffffffffffffffffffff1663354133f7846040518263ffffffff1660e01b8152600401611b169190612ac6565b602060405180830381865afa158015611b33573d6000803e3d6000fd5b505050506040513d601f19601f82011682018060405250810190611b57919061301d565b9050814210158015611b8d575060026004811115611b7857611b77612211565b5b816004811115611b8b57611b8a612211565b5b145b611b9657600080fd5b6000611ba28a8a6106cc565b90506000815111611be8576040517f08c379a0000000000000000000000000000000000000000000000000000000008152600401611bdf90612dac565b60405180910390fd5b6000600190505b8151811015611ce75760005b81811015611cd357828181518110611c1657611c15612c49565b5b602002602001015160400151838381518110611c3557611c34612c49565b5b6020026020010151604001511015611cc0576000838381518110611c5c57611c5b612c49565b5b60200260200101519050838281518110611c7957611c78612c49565b5b6020026020010151848481518110611c9457611c93612c49565b5b602002602001018190525080848381518110611cb357611cb2612c49565b5b6020026020010181905250505b8080611ccb90612ca7565b915050611bfb565b508080611cdf90612ca7565b915050611bef565b5060006005825110611cfa576005611cfd565b81515b905060008167ffffffffffffffff811115611d1b57611d1a611f46565b5b604051908082528060200260200182016040528015611d5457816020015b611d41611dc1565b815260200190600190039081611d395790505b50905060005b82811015611dae57838181518110611d7557611d74612c49565b5b6020026020010151828281518110611d9057611d8f612c49565b5b60200260200101819052508080611da690612ca7565b915050611d5a565b5080995050505050505050505092915050565b6040518060e00160405280600081526020016060815260200160008152602001600073ffffffffffffffffffffffffffffffffffffffff1681526020016000815260200160006002811115611e1957611e18612211565b5b8152602001600081525090565b508054611e3290612821565b6000825580601f10611e445750611e63565b601f016020900490600052602060002090810190611e629190611e66565b5b50565b5b80821115611e7f576000816000905550600101611e67565b5090565b6000604051905090565b600080fd5b600080fd5b600073ffffffffffffffffffffffffffffffffffffffff82169050919050565b6000611ec282611e97565b9050919050565b611ed281611eb7565b8114611edd57600080fd5b50565b600081359050611eef81611ec9565b92915050565b6000819050919050565b611f0881611ef5565b8114611f1357600080fd5b50565b600081359050611f2581611eff565b92915050565b600080fd5b600080fd5b6000601f19601f8301169050919050565b7f4e487b7100000000000000000000000000000000000000000000000000000000600052604160045260246000fd5b611f7e82611f35565b810181811067ffffffffffffffff82111715611f9d57611f9c611f46565b5b80604052505050565b6000611fb0611e83565b9050611fbc8282611f75565b919050565b600067ffffffffffffffff821115611fdc57611fdb611f46565b5b611fe582611f35565b9050602081019050919050565b82818337600083830152505050565b600061201461200f84611fc1565b611fa6565b9050828152602081018484840111156120305761202f611f30565b5b61203b848285611ff2565b509392505050565b600082601f83011261205857612057611f2b565b5b8135612068848260208601612001565b91505092915050565b6000806000806080858703121561208b5761208a611e8d565b5b600061209987828801611ee0565b94505060206120aa87828801611f16565b935050604085013567ffffffffffffffff8111156120cb576120ca611e92565b5b6120d787828801612043565b92505060606120e887828801611f16565b91505092959194509250565b60008060006060848603121561210d5761210c611e8d565b5b600061211b86828701611ee0565b935050602061212c86828701611f16565b925050604061213d86828701611f16565b9150509250925092565b60006020828403121561215d5761215c611e8d565b5b600061216b84828501611f16565b91505092915050565b61217d81611ef5565b82525050565b600081519050919050565b600082825260208201905092915050565b60005b838110156121bd5780820151818401526020810190506121a2565b60008484015250505050565b60006121d482612183565b6121de818561218e565b93506121ee81856020860161219f565b6121f781611f35565b840191505092915050565b61220b81611eb7565b82525050565b7f4e487b7100000000000000000000000000000000000000000000000000000000600052602160045260246000fd5b6003811061225157612250612211565b5b50565b600081905061226282612240565b919050565b600061227282612254565b9050919050565b61228281612267565b82525050565b600060e08201905061229d600083018a612174565b81810360208301526122af81896121c9565b90506122be6040830188612174565b6122cb6060830187612202565b6122d86080830186612174565b6122e560a0830185612279565b6122f260c0830184612174565b98975050505050505050565b6000806040838503121561231557612314611e8d565b5b600061232385828601611ee0565b925050602061233485828601611f16565b9150509250929050565b600081519050919050565b600082825260208201905092915050565b6000819050602082019050919050565b61237381611ef5565b82525050565b600082825260208201905092915050565b600061239582612183565b61239f8185612379565b93506123af81856020860161219f565b6123b881611f35565b840191505092915050565b6123cc81611eb7565b82525050565b6123db81612267565b82525050565b600060e0830160008301516123f9600086018261236a565b5060208301518482036020860152612411828261238a565b9150506040830151612426604086018261236a565b50606083015161243960608601826123c3565b50608083015161244c608086018261236a565b5060a083015161245f60a08601826123d2565b5060c083015161247260c086018261236a565b508091505092915050565b600061248983836123e1565b905092915050565b6000602082019050919050565b60006124a98261233e565b6124b38185612349565b9350836020820285016124c58561235a565b8060005b8581101561250157848403895281516124e2858261247d565b94506124ed83612491565b925060208a019950506001810190506124c9565b50829750879550505050505092915050565b6000602082019050818103600083015261252d818461249e565b905092915050565b6003811061254257600080fd5b50565b60008135905061255481612535565b92915050565b6000806000806080858703121561257457612573611e8d565b5b600061258287828801611ee0565b945050602061259387828801611f16565b93505060406125a487828801611f16565b92505060606125b587828801612545565b91505092959194509250565b6000819050919050565b60006125e66125e16125dc84611e97565b6125c1565b611e97565b9050919050565b60006125f8826125cb565b9050919050565b600061260a826125ed565b9050919050565b61261a816125ff565b82525050565b60006020820190506126356000830184612611565b92915050565b6000806000806080858703121561265557612654611e8d565b5b600061266387828801611ee0565b945050602061267487828801611ee0565b935050604061268587828801611f16565b925050606061269687828801611f16565b91505092959194509250565b600060e0830160008301516126ba600086018261236a565b50602083015184820360208601526126d2828261238a565b91505060408301516126e7604086018261236a565b5060608301516126fa60608601826123c3565b50608083015161270d608086018261236a565b5060a083015161272060a08601826123d2565b5060c083015161273360c086018261236a565b508091505092915050565b6000602082019050818103600083015261275881846126a2565b905092915050565b7f796f75277265206e6f7420617574686f72697a656420746f20706572666f726d60008201527f207468697320616374696f6e0000000000000000000000000000000000000000602082015250565b60006127bc602c8361218e565b91506127c782612760565b604082019050919050565b600060208201905081810360008301526127eb816127af565b9050919050565b7f4e487b7100000000000000000000000000000000000000000000000000000000600052602260045260246000fd5b6000600282049050600182168061283957607f821691505b60208210810361284c5761284b6127f2565b5b50919050565b60008190508160005260206000209050919050565b60006020601f8301049050919050565b600082821b905092915050565b6000600883026128b47fffffffffffffffffffffffffffffffffffffffffffffffffffffffffffffffff82612877565b6128be8683612877565b95508019841693508086168417925050509392505050565b60006128f16128ec6128e784611ef5565b6125c1565b611ef5565b9050919050565b6000819050919050565b61290b836128d6565b61291f612917826128f8565b848454612884565b825550505050565b600090565b612934612927565b61293f818484612902565b505050565b5b818110156129635761295860008261292c565b600181019050612945565b5050565b601f8211156129a85761297981612852565b61298284612867565b81016020851015612991578190505b6129a561299d85612867565b830182612944565b50505b505050565b600082821c905092915050565b60006129cb600019846008026129ad565b1980831691505092915050565b60006129e483836129ba565b9150826002028217905092915050565b6129fd82612183565b67ffffffffffffffff811115612a1657612a15611f46565b5b612a208254612821565b612a2b828285612967565b600060209050601f831160018114612a5e5760008415612a4c578287015190505b612a5685826129d8565b865550612abe565b601f198416612a6c86612852565b60005b82811015612a9457848901518255600182019150602085019450602081019050612a6f565b86831015612ab15784890151612aad601f8916826129ba565b8355505b6001600288020188555050505b505050505050565b6000602082019050612adb6000830184612174565b92915050565b600081519050612af081611ec9565b92915050565b600060208284031215612b0c57612b0b611e8d565b5b6000612b1a84828501612ae1565b91505092915050565b600067ffffffffffffffff821115612b3e57612b3d611f46565b5b602082029050602081019050919050565b600080fd5b600081519050612b6381611eff565b92915050565b6000612b7c612b7784612b23565b611fa6565b90508083825260208201905060208402830185811115612b9f57612b9e612b4f565b5b835b81811015612bc85780612bb48882612b54565b845260208401935050602081019050612ba1565b5050509392505050565b600082601f830112612be757612be6611f2b565b5b8151612bf7848260208601612b69565b91505092915050565b600060208284031215612c1657612c15611e8d565b5b600082015167ffffffffffffffff811115612c3457612c33611e92565b5b612c4084828501612bd2565b91505092915050565b7f4e487b7100000000000000000000000000000000000000000000000000000000600052603260045260246000fd5b7f4e487b7100000000000000000000000000000000000000000000000000000000600052601160045260246000fd5b6000612cb282611ef5565b91507fffffffffffffffffffffffffffffffffffffffffffffffffffffffffffffffff8203612ce457612ce3612c78565b5b600182019050919050565b60058110612d0057612cff612211565b5b50565b6000819050612d1182612cef565b919050565b6000612d2182612d03565b9050919050565b612d3181612d16565b82525050565b6000604082019050612d4c6000830185612174565b612d596020830184612d28565b9392505050565b7f4e6f206269647320657869737473000000000000000000000000000000000000600082015250565b6000612d96600e8361218e565b9150612da182612d60565b602082019050919050565b60006020820190508181036000830152612dc581612d89565b9050919050565b7f4e6f7420617574686f72697a656420746f20766965772062696420646574616960008201527f6c73000000000000000000000000000000000000000000000000000000000000602082015250565b6000612e2860228361218e565b9150612e3382612dcc565b604082019050919050565b60006020820190508181036000830152612e5781612e1b565b9050919050565b7f42696420646f6573206e6f742065786973740000000000000000000000000000600082015250565b6000612e9460128361218e565b9150612e9f82612e5e565b602082019050919050565b60006020820190508181036000830152612ec381612e87565b9050919050565b7f6269642077697468206164647265737320646f65736e27742065786973747300600082015250565b6000612f00601f8361218e565b9150612f0b82612eca565b602082019050919050565b60006020820190508181036000830152612f2f81612ef3565b9050919050565b7f6269642063616e6e6f742062652064656c657465640000000000000000000000600082015250565b6000612f6c60158361218e565b9150612f7782612f36565b602082019050919050565b60006020820190508181036000830152612f9b81612f5f565b9050919050565b6000604082019050612fb76000830185612174565b612fc46020830184612174565b9392505050565b600060208284031215612fe157612fe0611e8d565b5b6000612fef84828501612b54565b91505092915050565b6005811061300557600080fd5b50565b60008151905061301781612ff8565b92915050565b60006020828403121561303357613032611e8d565b5b600061304184828501613008565b91505092915050565b7f54656e64657220646f6573206e6f742065786973740000000000000000000000600082015250565b600061308060158361218e565b915061308b8261304a565b602082019050919050565b600060208201905081810360008301526130af81613073565b9050919050565b7f54656e646572206973206e6f74206f70656e20666f7220626964730000000000600082015250565b60006130ec601b8361218e565b91506130f7826130b6565b602082019050919050565b6000602082019050818103600083015261311b816130df565b9050919050565b7f42696464696e672068617320656e646564000000000000000000000000000000600082015250565b600061315860118361218e565b915061316382613122565b602082019050919050565b600060208201905081810360008301526131878161314b565b9050919050565b7f4f776e65722063616e6e6f7420626964206f6e207468656972206f776e20746560008201527f6e64657200000000000000000000000000000000000000000000000000000000602082015250565b60006131ea60248361218e565b91506131f58261318e565b604082019050919050565b60006020820190508181036000830152613219816131dd565b905091905056fea2646970667358221220f61db4ed24e4d65c8ab48d04b86fc34d857e53613d7a6f4c94013d41f9982fc864736f6c63430008130033",
  "immutableReferences": {},
  "source": "// SPDX-License-Identifier: UNLICENSED\r\n\r\n//the version of solidity that is compatible\r\npragma solidity ^0.8.0;\r\npragma experimental ABIEncoderV2;\r\n\r\nimport \"./TenderContract.sol\";\r\n\r\ncontract BidContract {\r\n    enum BidStatus{PENDING, REJECTED, APPROVED}\r\n\r\n    // Bidding Struct\r\n    struct Bid {\r\n        uint256 bidId;\r\n        string bidClause;\r\n        uint256 quotedAmount;\r\n        address bidderAddress;\r\n        uint256 tenderId;\r\n        BidStatus bidStatus;\r\n        uint256 createdAt;\r\n    }\r\n\r\n    mapping (uint256 => Bid) public bids;\r\n    uint256 bidCount = 0;\r\n    TenderContract public tenderRef;\r\n\r\n    constructor(TenderContract _tenderRef){\r\n        tenderRef = _tenderRef;\r\n    }\r\n\r\n    modifier isTenderOwner(address _partyAddress, uint256 _tenderId) {\r\n        address issuerAddress = tenderRef.getIssuerAddress(_tenderId);\r\n        require(issuerAddress == _partyAddress, \"you're not authorized to perform this action\");\r\n        _;\r\n    }\r\n\r\n    modifier isBidOwner(address _bidderAddress, uint256 _bidId) {\r\n        require(bids[_bidId].bidderAddress == _bidderAddress, \"you're not authorized to perform this action\");\r\n        _;\r\n    }\r\n\r\n    function createBid(address _bidderAddress, uint256 _tenderId, string memory _bidClause, uint256 _quotedAmount) public{\r\n        // Tender storage _tender = tenderRef.tenders(_tenderId);\r\n        uint256 _budget = tenderRef.getBudget(_tenderId);\r\n        TenderStatus _tenderStatus = tenderRef.getTenderStatus(_tenderId);\r\n        uint256 _deadline = tenderRef.getDeadline(_tenderId);\r\n        address _issuerAddress = tenderRef.getIssuerAddress(_tenderId);\r\n        require(_budget > 0, \"Tender does not exist\");\r\n        require(_tenderStatus == TenderStatus.OPEN, \"Tender is not open for bids\");\r\n        require(block.timestamp > _deadline, \"Bidding has ended\");\r\n        require(_bidderAddress != _issuerAddress, \"Owner cannot bid on their own tender\");\r\n\r\n        Bid storage newBid = bids[bidCount];\r\n        newBid.bidId = bidCount;\r\n        newBid.bidClause = _bidClause;\r\n        newBid.quotedAmount = _quotedAmount;\r\n        newBid.bidderAddress = _bidderAddress;\r\n        newBid.tenderId = _tenderId;\r\n        newBid.bidStatus = BidStatus.PENDING;\r\n        newBid.createdAt = block.timestamp;\r\n        tenderRef.addBidId(_tenderId, bidCount);\r\n        bidCount++;\r\n    }\r\n\r\n    modifier canViewBid(address _bidderAddress, address _issuerAddress ,uint256 _tenderId, uint256 _bidId){\r\n        address issuerAddress = tenderRef.getIssuerAddress(_tenderId);\r\n        require(bids[_bidId].bidderAddress == _bidderAddress  && issuerAddress == _issuerAddress && (msg.sender == _issuerAddress || msg.sender == _bidderAddress), \"Not authorized to view bid details\");\r\n        _;\r\n    }\r\n\r\n    // For getting bid details like message, amount, address of bidders \r\n    function getBidDetails(address _bidderAddress, address _issuerAddress ,uint256 _tenderId, uint256 _bidId) public view canViewBid(_bidderAddress, _issuerAddress, _tenderId, _bidId) returns (Bid memory) {\r\n\t    require(bids[_bidId].quotedAmount > 0, \"Bid does not exist\");\r\n    \treturn (bids[_bidId]);\r\n    }\r\n\r\n    // For getting all bids of a tender\r\n    function getAllBids(address _partyAddress, uint256 _tenderId) public view isTenderOwner(_partyAddress, _tenderId) returns(Bid[] memory){\r\n        uint256[] memory tenderBidIds = tenderRef.getBidIds(_tenderId);\r\n        require(tenderBidIds.length > 0, \"No bids exists\");\r\n        Bid[] memory bidsList = new Bid[](tenderBidIds.length);\r\n        for (uint256 i = 0; i < tenderBidIds.length; i++) {\r\n            bidsList[i] = bids[tenderBidIds[i]];\r\n        }\r\n        return(bidsList);\r\n    }\r\n\r\n    function updateBidStatus(address _partyAddress, uint256 _tenderId, uint256 _bidAddress ,BidStatus _bidStatus) public isTenderOwner(_partyAddress, _tenderId) {\r\n        Bid storage updatedBid = bids[_bidAddress];\r\n        updatedBid.bidStatus = _bidStatus;\r\n    }\r\n\r\n    function updateBid(address _bidderAddress, uint256 _bidId, string memory _bidClause, uint256 _quotedAmount) public isBidOwner(_bidderAddress, _bidId) {\r\n        Bid storage updatedBid = bids[_bidId];\r\n        updatedBid.bidClause = _bidClause;\r\n        updatedBid.quotedAmount = _quotedAmount;\r\n    }\r\n\r\n    function deleteBid(address _bidderAddress, uint256 _tenderId ,uint256 _bidId) public isBidOwner(_bidderAddress, _bidId){ \r\n        uint256[] memory tenderBidIds = tenderRef.getBidIds(_tenderId);\r\n        require(tenderBidIds.length > 0, \"No bids exists\");\r\n        require(bids[_bidId].quotedAmount > 0 , \"bid with address doesn't exists\");\r\n        require(bids[_bidId].bidStatus != BidStatus.PENDING , \"bid cannot be deleted\");\r\n        delete bids[_bidId];\r\n        tenderRef.deleteBidId(_tenderId, _bidId);             \r\n    }\r\n\r\n    modifier isValidTender(uint256 tenderId) {\r\n        uint256 _deadline = tenderRef.getDeadline(tenderId);\r\n        TenderStatus _tenderStatus = tenderRef.getTenderStatus(tenderId);\r\n        require(block.timestamp >= _deadline && _tenderStatus == TenderStatus.CLOSED);\r\n        _;\r\n    }\r\n\r\n    function selectTopBids(address _partyAddress, uint256 _tenderId ) public view isTenderOwner(_partyAddress, _tenderId) isValidTender(_tenderId) returns (Bid[] memory) {\r\n        //invoke this function once deadline is crossed and can be invoked by project issue party, make sure this project is not assigned to anyone------modifier\r\n        // get all the bids for pt\r\n        Bid[] memory bidList = getAllBids(_partyAddress, _tenderId);\r\n        require(bidList.length > 0, \"No bids exists\");\r\n        // sort bids by price\r\n        for (uint i = 1; i < bidList.length; i++){\r\n            for (uint j = 0; j < i; j++){\r\n                if (bidList[i].quotedAmount < bidList[j].quotedAmount) {\r\n                    Bid memory tempBid = bidList[i];\r\n                    bidList[i] = bidList[j];\r\n                    bidList[j] = tempBid;\r\n                }\r\n            }\r\n        }\r\n        uint256 shortListedBidsCount = (bidList.length < 5) ? bidList.length : 5; \r\n        Bid[] memory shortListedBids = new Bid[](shortListedBidsCount);\r\n        for (uint i = 0; i < shortListedBidsCount; i++){\r\n            shortListedBids[i] = bidList[i];\r\n        }\r\n\r\n        return shortListedBids;\r\n        //returns a list of top 5 bidders and history of bidders\r\n\r\n        // - in case of a tie, the bidder with the largest \"trust\" is given the project. ( Trust in this context is measured in terms of the number of previous projects done and the token assets a party has.)\r\n        // update the status of each bid to APPROVED / REJECTED from PENDING.\r\n    }\r\n\r\n    function finaliseWinnerBid(address _partyAddress, uint256 _tenderId, uint256 _bidId) public isTenderOwner(_partyAddress, _tenderId){\r\n        uint256[] memory tenderBidIds = tenderRef.getBidIds(_tenderId);\r\n        for(uint256 i=0;i< tenderBidIds.length ;i++){\r\n            if(tenderBidIds[i] == _bidId)\r\n                updateBidStatus(_partyAddress, _tenderId, tenderBidIds[i], BidStatus.APPROVED);\r\n            else \r\n                updateBidStatus(_partyAddress, _tenderId, tenderBidIds[i], BidStatus.REJECTED);\r\n        }\r\n        tenderRef.updateTenderStatus(_tenderId, TenderStatus.ASSIGNED);\r\n    }\r\n\r\n}",
  "sourcePath": "C:\\Users\\sabba\\OneDrive\\Documents\\BlockchainProject\\blockchain-based-contracting-system\\contracts\\BidContract.sol",
  "compiler": {
    "name": "solc",
    "version": "0.8.19+commit.7dd6d404.Emscripten.clang"
  },
  "schemaVersion": "3.4.13",
  "updatedAt": "2023-04-13T13:31:12.264Z",
  "devdoc": {
    "kind": "dev",
    "methods": {},
    "version": 1
  },
  "userdoc": {
    "kind": "user",
    "methods": {},
    "version": 1
  }
}