{
  "contractName": "BidContract",
  "abi": [
    {
      "inputs": [
        {
          "internalType": "contract TenderContract",
          "name": "_tenderRef",
          "type": "address"
        }
      ],
      "stateMutability": "nonpayable",
      "type": "constructor"
    },
    {
      "inputs": [
        {
          "internalType": "uint256",
          "name": "",
          "type": "uint256"
        }
      ],
      "name": "bids",
      "outputs": [
        {
          "internalType": "uint256",
          "name": "bidId",
          "type": "uint256"
        },
        {
          "internalType": "string",
          "name": "bidClause",
          "type": "string"
        },
        {
          "internalType": "uint256",
          "name": "quotedAmount",
          "type": "uint256"
        },
        {
          "internalType": "address",
          "name": "bidderAddress",
          "type": "address"
        },
        {
          "internalType": "uint256",
          "name": "tenderId",
          "type": "uint256"
        },
        {
          "internalType": "enum BidContract.BidStatus",
          "name": "bidStatus",
          "type": "uint8"
        },
        {
          "internalType": "uint256",
          "name": "createdAt",
          "type": "uint256"
        }
      ],
      "stateMutability": "view",
      "type": "function",
      "constant": true
    },
    {
      "inputs": [],
      "name": "tenderRef",
      "outputs": [
        {
          "internalType": "contract TenderContract",
          "name": "",
          "type": "address"
        }
      ],
      "stateMutability": "view",
      "type": "function",
      "constant": true
    },
    {
      "inputs": [
        {
          "internalType": "uint256",
          "name": "_bidId",
          "type": "uint256"
        }
      ],
      "name": "getBidderAddress",
      "outputs": [
        {
          "internalType": "address",
          "name": "",
          "type": "address"
        }
      ],
      "stateMutability": "view",
      "type": "function",
      "constant": true
    },
    {
      "inputs": [
        {
          "internalType": "address",
          "name": "_bidderAddress",
          "type": "address"
        },
        {
          "internalType": "uint256",
          "name": "_tenderId",
          "type": "uint256"
        },
        {
          "internalType": "string",
          "name": "_bidClause",
          "type": "string"
        },
        {
          "internalType": "uint256",
          "name": "_quotedAmount",
          "type": "uint256"
        }
      ],
      "name": "createBid",
      "outputs": [],
      "stateMutability": "nonpayable",
      "type": "function"
    },
    {
      "inputs": [
        {
          "internalType": "address",
          "name": "_partyAddress",
          "type": "address"
        },
        {
          "internalType": "uint256",
          "name": "_tenderId",
          "type": "uint256"
        },
        {
          "internalType": "uint256",
          "name": "_bidId",
          "type": "uint256"
        }
      ],
      "name": "getBidDetails",
      "outputs": [
        {
          "components": [
            {
              "internalType": "uint256",
              "name": "bidId",
              "type": "uint256"
            },
            {
              "internalType": "string",
              "name": "bidClause",
              "type": "string"
            },
            {
              "internalType": "uint256",
              "name": "quotedAmount",
              "type": "uint256"
            },
            {
              "internalType": "address",
              "name": "bidderAddress",
              "type": "address"
            },
            {
              "internalType": "uint256",
              "name": "tenderId",
              "type": "uint256"
            },
            {
              "internalType": "enum BidContract.BidStatus",
              "name": "bidStatus",
              "type": "uint8"
            },
            {
              "internalType": "uint256",
              "name": "createdAt",
              "type": "uint256"
            }
          ],
          "internalType": "struct BidContract.Bid",
          "name": "",
          "type": "tuple"
        }
      ],
      "stateMutability": "view",
      "type": "function",
      "constant": true
    },
    {
      "inputs": [
        {
          "internalType": "address",
          "name": "_bidderAddress",
          "type": "address"
        }
      ],
      "name": "getMyBids",
      "outputs": [
        {
          "components": [
            {
              "internalType": "uint256",
              "name": "bidId",
              "type": "uint256"
            },
            {
              "internalType": "string",
              "name": "bidClause",
              "type": "string"
            },
            {
              "internalType": "uint256",
              "name": "quotedAmount",
              "type": "uint256"
            },
            {
              "internalType": "address",
              "name": "bidderAddress",
              "type": "address"
            },
            {
              "internalType": "uint256",
              "name": "tenderId",
              "type": "uint256"
            },
            {
              "internalType": "enum BidContract.BidStatus",
              "name": "bidStatus",
              "type": "uint8"
            },
            {
              "internalType": "uint256",
              "name": "createdAt",
              "type": "uint256"
            }
          ],
          "internalType": "struct BidContract.Bid[]",
          "name": "",
          "type": "tuple[]"
        },
        {
          "internalType": "uint256",
          "name": "",
          "type": "uint256"
        }
      ],
      "stateMutability": "view",
      "type": "function",
      "constant": true
    },
    {
      "inputs": [
        {
          "internalType": "address",
          "name": "_partyAddress",
          "type": "address"
        },
        {
          "internalType": "uint256",
          "name": "_tenderId",
          "type": "uint256"
        }
      ],
      "name": "getAllBids",
      "outputs": [
        {
          "components": [
            {
              "internalType": "uint256",
              "name": "bidId",
              "type": "uint256"
            },
            {
              "internalType": "string",
              "name": "bidClause",
              "type": "string"
            },
            {
              "internalType": "uint256",
              "name": "quotedAmount",
              "type": "uint256"
            },
            {
              "internalType": "address",
              "name": "bidderAddress",
              "type": "address"
            },
            {
              "internalType": "uint256",
              "name": "tenderId",
              "type": "uint256"
            },
            {
              "internalType": "enum BidContract.BidStatus",
              "name": "bidStatus",
              "type": "uint8"
            },
            {
              "internalType": "uint256",
              "name": "createdAt",
              "type": "uint256"
            }
          ],
          "internalType": "struct BidContract.Bid[]",
          "name": "",
          "type": "tuple[]"
        }
      ],
      "stateMutability": "view",
      "type": "function",
      "constant": true
    },
    {
      "inputs": [
        {
          "internalType": "address",
          "name": "_partyAddress",
          "type": "address"
        },
        {
          "internalType": "uint256",
          "name": "_tenderId",
          "type": "uint256"
        },
        {
          "internalType": "uint256",
          "name": "_bidAddress",
          "type": "uint256"
        },
        {
          "internalType": "enum BidContract.BidStatus",
          "name": "_bidStatus",
          "type": "uint8"
        }
      ],
      "name": "updateBidStatus",
      "outputs": [],
      "stateMutability": "nonpayable",
      "type": "function"
    },
    {
      "inputs": [
        {
          "internalType": "address",
          "name": "_bidderAddress",
          "type": "address"
        },
        {
          "internalType": "uint256",
          "name": "_bidId",
          "type": "uint256"
        },
        {
          "internalType": "string",
          "name": "_bidClause",
          "type": "string"
        },
        {
          "internalType": "uint256",
          "name": "_quotedAmount",
          "type": "uint256"
        }
      ],
      "name": "updateBid",
      "outputs": [],
      "stateMutability": "nonpayable",
      "type": "function"
    },
    {
      "inputs": [
        {
          "internalType": "address",
          "name": "_bidderAddress",
          "type": "address"
        },
        {
          "internalType": "uint256",
          "name": "_tenderId",
          "type": "uint256"
        },
        {
          "internalType": "uint256",
          "name": "_bidId",
          "type": "uint256"
        }
      ],
      "name": "deleteBid",
      "outputs": [],
      "stateMutability": "nonpayable",
      "type": "function"
    },
    {
      "inputs": [
        {
          "internalType": "address",
          "name": "_partyAddress",
          "type": "address"
        },
        {
          "internalType": "uint256",
          "name": "_tenderId",
          "type": "uint256"
        }
      ],
      "name": "selectTopBids",
      "outputs": [
        {
          "components": [
            {
              "internalType": "uint256",
              "name": "bidId",
              "type": "uint256"
            },
            {
              "internalType": "string",
              "name": "bidClause",
              "type": "string"
            },
            {
              "internalType": "uint256",
              "name": "quotedAmount",
              "type": "uint256"
            },
            {
              "internalType": "address",
              "name": "bidderAddress",
              "type": "address"
            },
            {
              "internalType": "uint256",
              "name": "tenderId",
              "type": "uint256"
            },
            {
              "internalType": "enum BidContract.BidStatus",
              "name": "bidStatus",
              "type": "uint8"
            },
            {
              "internalType": "uint256",
              "name": "createdAt",
              "type": "uint256"
            }
          ],
          "internalType": "struct BidContract.Bid[]",
          "name": "",
          "type": "tuple[]"
        }
      ],
      "stateMutability": "view",
      "type": "function",
      "constant": true
    },
    {
      "inputs": [
        {
          "internalType": "address",
          "name": "_partyAddress",
          "type": "address"
        },
        {
          "internalType": "uint256",
          "name": "_tenderId",
          "type": "uint256"
        },
        {
          "internalType": "uint256",
          "name": "_bidId",
          "type": "uint256"
        }
      ],
      "name": "finaliseWinnerBid",
      "outputs": [],
      "stateMutability": "nonpayable",
      "type": "function"
    }
  ],
  "bytecode": "0x608060405260006001553480156200001657600080fd5b50604051620039e2380380620039e283398181016040528101906200003c919062000102565b80600260006101000a81548173ffffffffffffffffffffffffffffffffffffffff021916908373ffffffffffffffffffffffffffffffffffffffff1602179055505062000134565b600080fd5b600073ffffffffffffffffffffffffffffffffffffffff82169050919050565b6000620000b68262000089565b9050919050565b6000620000ca82620000a9565b9050919050565b620000dc81620000bd565b8114620000e857600080fd5b50565b600081519050620000fc81620000d1565b92915050565b6000602082840312156200011b576200011a62000084565b5b60006200012b84828501620000eb565b91505092915050565b61389e80620001446000396000f3fe608060405234801561001057600080fd5b50600436106100b45760003560e01c80638d5b8612116100715780638d5b8612146101a3578063bb693c4d146101c1578063eac24737146101dd578063ebc25fa61461020d578063f91b6ae51461023e578063fd140a951461025a576100b4565b8063167548c5146100b957806326b26e56146100d55780634423c5f1146100f15780635fa382801461012757806361281516146101575780636dc4d10c14610187575b600080fd5b6100d360048036038101906100ce9190612564565b61028a565b005b6100ef60048036038101906100ea91906125e7565b61044a565b005b61010b6004803603810190610106919061263a565b61072d565b60405161011e979695949392919061277b565b60405180910390f35b610141600480360381019061013c919061263a565b610824565b60405161014e91906127f1565b60405180910390f35b610171600480360381019061016c919061280c565b610863565b60405161017e9190612a21565b60405180910390f35b6101a1600480360381019061019c9190612a68565b610c85565b005b6101ab610de1565b6040516101b89190612b2e565b60405180910390f35b6101db60048036038101906101d691906125e7565b610e07565b005b6101f760048036038101906101f291906125e7565b61118d565b6040516102049190612be5565b60405180910390f35b61022760048036038101906102229190612c07565b6114de565b604051610235929190612c34565b60405180910390f35b61025860048036038101906102539190612564565b6118ab565b005b610274600480360381019061026f919061280c565b611df9565b6040516102819190612a21565b60405180910390f35b83838173ffffffffffffffffffffffffffffffffffffffff1660008083815260200190815260200160002060030160009054906101000a900473ffffffffffffffffffffffffffffffffffffffff1673ffffffffffffffffffffffffffffffffffffffff161461032f576040517f08c379a000000000000000000000000000000000000000000000000000000000815260040161032690612cd6565b60405180910390fd5b60008060008781526020019081526020016000206002015411610387576040517f08c379a000000000000000000000000000000000000000000000000000000000815260040161037e90612d42565b60405180910390fd5b6000600281111561039b5761039a612704565b5b60008087815260200190815260200160002060050160009054906101000a900460ff1660028111156103d0576103cf612704565b5b03610410576040517f08c379a000000000000000000000000000000000000000000000000000000000815260040161040790612dae565b60405180910390fd5b60008060008781526020019081526020016000209050848160010190816104379190612fd0565b5083816002018190555050505050505050565b82826000600260009054906101000a900473ffffffffffffffffffffffffffffffffffffffff1673ffffffffffffffffffffffffffffffffffffffff16637e4d2d97836040518263ffffffff1660e01b81526004016104a991906130a2565b602060405180830381865afa1580156104c6573d6000803e3d6000fd5b505050506040513d601f19601f820116820180604052508101906104ea91906130d2565b90508273ffffffffffffffffffffffffffffffffffffffff168173ffffffffffffffffffffffffffffffffffffffff161461055a576040517f08c379a000000000000000000000000000000000000000000000000000000000815260040161055190612cd6565b60405180910390fd5b6000600260009054906101000a900473ffffffffffffffffffffffffffffffffffffffff1673ffffffffffffffffffffffffffffffffffffffff166342222a43876040518263ffffffff1660e01b81526004016105b791906130a2565b600060405180830381865afa1580156105d4573d6000803e3d6000fd5b505050506040513d6000823e3d601f19601f820116820180604052508101906105fd91906131dc565b905060005b8151811015610693578582828151811061061f5761061e613225565b5b60200260200101510361065857610653888884848151811061064457610643613225565b5b60200260200101516002610c85565b610680565b61067f88888484815181106106705761066f613225565b5b60200260200101516001610c85565b5b808061068b90613283565b915050610602565b50600260009054906101000a900473ffffffffffffffffffffffffffffffffffffffff1673ffffffffffffffffffffffffffffffffffffffff1663aaaf41888760046040518363ffffffff1660e01b81526004016106f2929190613313565b600060405180830381600087803b15801561070c57600080fd5b505af1158015610720573d6000803e3d6000fd5b5050505050505050505050565b600060205280600052604060002060009150905080600001549080600101805461075690612dfd565b80601f016020809104026020016040519081016040528092919081815260200182805461078290612dfd565b80156107cf5780601f106107a4576101008083540402835291602001916107cf565b820191906000526020600020905b8154815290600101906020018083116107b257829003601f168201915b5050505050908060020154908060030160009054906101000a900473ffffffffffffffffffffffffffffffffffffffff16908060040154908060050160009054906101000a900460ff16908060060154905087565b600080600083815260200190815260200160002060030160009054906101000a900473ffffffffffffffffffffffffffffffffffffffff169050919050565b606082826000600260009054906101000a900473ffffffffffffffffffffffffffffffffffffffff1673ffffffffffffffffffffffffffffffffffffffff16637e4d2d97836040518263ffffffff1660e01b81526004016108c491906130a2565b602060405180830381865afa1580156108e1573d6000803e3d6000fd5b505050506040513d601f19601f8201168201806040525081019061090591906130d2565b90508273ffffffffffffffffffffffffffffffffffffffff168173ffffffffffffffffffffffffffffffffffffffff1614610975576040517f08c379a000000000000000000000000000000000000000000000000000000000815260040161096c90612cd6565b60405180910390fd5b6000600260009054906101000a900473ffffffffffffffffffffffffffffffffffffffff1673ffffffffffffffffffffffffffffffffffffffff166342222a43876040518263ffffffff1660e01b81526004016109d291906130a2565b600060405180830381865afa1580156109ef573d6000803e3d6000fd5b505050506040513d6000823e3d601f19601f82011682018060405250810190610a1891906131dc565b90506000815111610a5e576040517f08c379a0000000000000000000000000000000000000000000000000000000008152600401610a5590613388565b60405180910390fd5b6000815167ffffffffffffffff811115610a7b57610a7a612439565b5b604051908082528060200260200182016040528015610ab457816020015b610aa16122b4565b815260200190600190039081610a995790505b50905060005b8251811015610c7657600080848381518110610ad957610ad8613225565b5b602002602001015181526020019081526020016000206040518060e001604052908160008201548152602001600182018054610b1490612dfd565b80601f0160208091040260200160405190810160405280929190818152602001828054610b4090612dfd565b8015610b8d5780601f10610b6257610100808354040283529160200191610b8d565b820191906000526020600020905b815481529060010190602001808311610b7057829003601f168201915b50505050508152602001600282015481526020016003820160009054906101000a900473ffffffffffffffffffffffffffffffffffffffff1673ffffffffffffffffffffffffffffffffffffffff1673ffffffffffffffffffffffffffffffffffffffff168152602001600482015481526020016005820160009054906101000a900460ff166002811115610c2557610c24612704565b5b6002811115610c3757610c36612704565b5b8152602001600682015481525050828281518110610c5857610c57613225565b5b60200260200101819052508080610c6e90613283565b915050610aba565b50809550505050505092915050565b83836000600260009054906101000a900473ffffffffffffffffffffffffffffffffffffffff1673ffffffffffffffffffffffffffffffffffffffff16637e4d2d97836040518263ffffffff1660e01b8152600401610ce491906130a2565b602060405180830381865afa158015610d01573d6000803e3d6000fd5b505050506040513d601f19601f82011682018060405250810190610d2591906130d2565b90508273ffffffffffffffffffffffffffffffffffffffff168173ffffffffffffffffffffffffffffffffffffffff1614610d95576040517f08c379a0000000000000000000000000000000000000000000000000000000008152600401610d8c90612cd6565b60405180910390fd5b60008060008781526020019081526020016000209050848160050160006101000a81548160ff02191690836002811115610dd257610dd1612704565b5b02179055505050505050505050565b600260009054906101000a900473ffffffffffffffffffffffffffffffffffffffff1681565b82818173ffffffffffffffffffffffffffffffffffffffff1660008083815260200190815260200160002060030160009054906101000a900473ffffffffffffffffffffffffffffffffffffffff1673ffffffffffffffffffffffffffffffffffffffff1614610eac576040517f08c379a0000000000000000000000000000000000000000000000000000000008152600401610ea390612cd6565b60405180910390fd5b6000600260009054906101000a900473ffffffffffffffffffffffffffffffffffffffff1673ffffffffffffffffffffffffffffffffffffffff166342222a43866040518263ffffffff1660e01b8152600401610f0991906130a2565b600060405180830381865afa158015610f26573d6000803e3d6000fd5b505050506040513d6000823e3d601f19601f82011682018060405250810190610f4f91906131dc565b90506000815111610f95576040517f08c379a0000000000000000000000000000000000000000000000000000000008152600401610f8c90613388565b60405180910390fd5b60008060008681526020019081526020016000206002015411610fed576040517f08c379a0000000000000000000000000000000000000000000000000000000008152600401610fe490612d42565b60405180910390fd5b6000600281111561100157611000612704565b5b60008086815260200190815260200160002060050160009054906101000a900460ff16600281111561103657611035612704565b5b14611076576040517f08c379a000000000000000000000000000000000000000000000000000000000815260040161106d906133f4565b60405180910390fd5b6000808581526020019081526020016000206000808201600090556001820160006110a19190612319565b60028201600090556003820160006101000a81549073ffffffffffffffffffffffffffffffffffffffff021916905560048201600090556005820160006101000a81549060ff021916905560068201600090555050600260009054906101000a900473ffffffffffffffffffffffffffffffffffffffff1673ffffffffffffffffffffffffffffffffffffffff1663791778c186866040518363ffffffff1660e01b8152600401611153929190613414565b600060405180830381600087803b15801561116d57600080fd5b505af1158015611181573d6000803e3d6000fd5b50505050505050505050565b6111956122b4565b8383836000600260009054906101000a900473ffffffffffffffffffffffffffffffffffffffff1673ffffffffffffffffffffffffffffffffffffffff16637e4d2d97846040518263ffffffff1660e01b81526004016111f591906130a2565b602060405180830381865afa158015611212573d6000803e3d6000fd5b505050506040513d601f19601f8201168201806040525081019061123691906130d2565b90508373ffffffffffffffffffffffffffffffffffffffff1660008084815260200190815260200160002060030160009054906101000a900473ffffffffffffffffffffffffffffffffffffffff1673ffffffffffffffffffffffffffffffffffffffff1614806112d257508373ffffffffffffffffffffffffffffffffffffffff168173ffffffffffffffffffffffffffffffffffffffff16145b611311576040517f08c379a0000000000000000000000000000000000000000000000000000000008152600401611308906134af565b60405180910390fd5b60008060008881526020019081526020016000206002015411611369576040517f08c379a00000000000000000000000000000000000000000000000000000000081526004016113609061351b565b60405180910390fd5b6000808781526020019081526020016000206040518060e0016040529081600082015481526020016001820180546113a090612dfd565b80601f01602080910402602001604051908101604052809291908181526020018280546113cc90612dfd565b80156114195780601f106113ee57610100808354040283529160200191611419565b820191906000526020600020905b8154815290600101906020018083116113fc57829003601f168201915b50505050508152602001600282015481526020016003820160009054906101000a900473ffffffffffffffffffffffffffffffffffffffff1673ffffffffffffffffffffffffffffffffffffffff1673ffffffffffffffffffffffffffffffffffffffff168152602001600482015481526020016005820160009054906101000a900460ff1660028111156114b1576114b0612704565b5b60028111156114c3576114c2612704565b5b81526020016006820154815250509450505050509392505050565b60606000828073ffffffffffffffffffffffffffffffffffffffff163373ffffffffffffffffffffffffffffffffffffffff1614611551576040517f08c379a000000000000000000000000000000000000000000000000000000000815260040161154890613587565b60405180910390fd5b600060015411611596576040517f08c379a000000000000000000000000000000000000000000000000000000000815260040161158d906135f3565b60405180910390fd5b600080600260009054906101000a900473ffffffffffffffffffffffffffffffffffffffff1673ffffffffffffffffffffffffffffffffffffffff16635850b3836040518163ffffffff1660e01b8152600401602060405180830381865afa158015611606573d6000803e3d6000fd5b505050506040513d601f19601f8201168201806040525081019061162a9190613613565b67ffffffffffffffff81111561164357611642612439565b5b60405190808252806020026020018201604052801561167c57816020015b6116696122b4565b8152602001906001900390816116615790505b50905060005b60015481101561189c578673ffffffffffffffffffffffffffffffffffffffff1660008083815260200190815260200160002060030160009054906101000a900473ffffffffffffffffffffffffffffffffffffffff1673ffffffffffffffffffffffffffffffffffffffff16036118895782806116ff90613283565b9350506000808281526020019081526020016000206040518060e00160405290816000820154815260200160018201805461173990612dfd565b80601f016020809104026020016040519081016040528092919081815260200182805461176590612dfd565b80156117b25780601f10611787576101008083540402835291602001916117b2565b820191906000526020600020905b81548152906001019060200180831161179557829003601f168201915b50505050508152602001600282015481526020016003820160009054906101000a900473ffffffffffffffffffffffffffffffffffffffff1673ffffffffffffffffffffffffffffffffffffffff1673ffffffffffffffffffffffffffffffffffffffff168152602001600482015481526020016005820160009054906101000a900460ff16600281111561184a57611849612704565b5b600281111561185c5761185b612704565b5b815260200160068201548152505082828151811061187d5761187c613225565b5b60200260200101819052505b808061189490613283565b915050611682565b50808294509450505050915091565b6000600260009054906101000a900473ffffffffffffffffffffffffffffffffffffffff1673ffffffffffffffffffffffffffffffffffffffff16632e4ea4c4856040518263ffffffff1660e01b815260040161190891906130a2565b602060405180830381865afa158015611925573d6000803e3d6000fd5b505050506040513d601f19601f820116820180604052508101906119499190613613565b90506000600260009054906101000a900473ffffffffffffffffffffffffffffffffffffffff1673ffffffffffffffffffffffffffffffffffffffff1663354133f7866040518263ffffffff1660e01b81526004016119a891906130a2565b602060405180830381865afa1580156119c5573d6000803e3d6000fd5b505050506040513d601f19601f820116820180604052508101906119e99190613665565b90506000600260009054906101000a900473ffffffffffffffffffffffffffffffffffffffff1673ffffffffffffffffffffffffffffffffffffffff166382862275876040518263ffffffff1660e01b8152600401611a4891906130a2565b602060405180830381865afa158015611a65573d6000803e3d6000fd5b505050506040513d601f19601f82011682018060405250810190611a899190613613565b90506000600260009054906101000a900473ffffffffffffffffffffffffffffffffffffffff1673ffffffffffffffffffffffffffffffffffffffff16637e4d2d97886040518263ffffffff1660e01b8152600401611ae891906130a2565b602060405180830381865afa158015611b05573d6000803e3d6000fd5b505050506040513d601f19601f82011682018060405250810190611b2991906130d2565b905060008411611b6e576040517f08c379a0000000000000000000000000000000000000000000000000000000008152600401611b65906136de565b60405180910390fd5b60016004811115611b8257611b81612704565b5b836004811115611b9557611b94612704565b5b14611bd5576040517f08c379a0000000000000000000000000000000000000000000000000000000008152600401611bcc9061374a565b60405180910390fd5b814210611c17576040517f08c379a0000000000000000000000000000000000000000000000000000000008152600401611c0e906137b6565b60405180910390fd5b8073ffffffffffffffffffffffffffffffffffffffff168873ffffffffffffffffffffffffffffffffffffffff1603611c85576040517f08c379a0000000000000000000000000000000000000000000000000000000008152600401611c7c90613848565b60405180910390fd5b600080600060015481526020019081526020016000209050600154816000018190555086816001019081611cb99190612fd0565b50858160020181905550888160030160006101000a81548173ffffffffffffffffffffffffffffffffffffffff021916908373ffffffffffffffffffffffffffffffffffffffff16021790555087816004018190555060008160050160006101000a81548160ff02191690836002811115611d3757611d36612704565b5b0217905550428160060181905550600260009054906101000a900473ffffffffffffffffffffffffffffffffffffffff1673ffffffffffffffffffffffffffffffffffffffff1663f1d8ef4d896001546040518363ffffffff1660e01b8152600401611da4929190613414565b600060405180830381600087803b158015611dbe57600080fd5b505af1158015611dd2573d6000803e3d6000fd5b5050505060016000815480929190611de990613283565b9190505550505050505050505050565b606082826000600260009054906101000a900473ffffffffffffffffffffffffffffffffffffffff1673ffffffffffffffffffffffffffffffffffffffff16637e4d2d97836040518263ffffffff1660e01b8152600401611e5a91906130a2565b602060405180830381865afa158015611e77573d6000803e3d6000fd5b505050506040513d601f19601f82011682018060405250810190611e9b91906130d2565b90508273ffffffffffffffffffffffffffffffffffffffff168173ffffffffffffffffffffffffffffffffffffffff1614611f0b576040517f08c379a0000000000000000000000000000000000000000000000000000000008152600401611f0290612cd6565b60405180910390fd5b846000600260009054906101000a900473ffffffffffffffffffffffffffffffffffffffff1673ffffffffffffffffffffffffffffffffffffffff166382862275836040518263ffffffff1660e01b8152600401611f6991906130a2565b602060405180830381865afa158015611f86573d6000803e3d6000fd5b505050506040513d601f19601f82011682018060405250810190611faa9190613613565b90506000600260009054906101000a900473ffffffffffffffffffffffffffffffffffffffff1673ffffffffffffffffffffffffffffffffffffffff1663354133f7846040518263ffffffff1660e01b815260040161200991906130a2565b602060405180830381865afa158015612026573d6000803e3d6000fd5b505050506040513d601f19601f8201168201806040525081019061204a9190613665565b905081421015801561208057506002600481111561206b5761206a612704565b5b81600481111561207e5761207d612704565b5b145b61208957600080fd5b60006120958a8a610863565b905060008151116120db576040517f08c379a00000000000000000000000000000000000000000000000000000000081526004016120d290613388565b60405180910390fd5b6000600190505b81518110156121da5760005b818110156121c65782818151811061210957612108613225565b5b60200260200101516040015183838151811061212857612127613225565b5b60200260200101516040015110156121b357600083838151811061214f5761214e613225565b5b6020026020010151905083828151811061216c5761216b613225565b5b602002602001015184848151811061218757612186613225565b5b6020026020010181905250808483815181106121a6576121a5613225565b5b6020026020010181905250505b80806121be90613283565b9150506120ee565b5080806121d290613283565b9150506120e2565b50600060058251106121ed5760056121f0565b81515b905060008167ffffffffffffffff81111561220e5761220d612439565b5b60405190808252806020026020018201604052801561224757816020015b6122346122b4565b81526020019060019003908161222c5790505b50905060005b828110156122a15783818151811061226857612267613225565b5b602002602001015182828151811061228357612282613225565b5b6020026020010181905250808061229990613283565b91505061224d565b5080995050505050505050505092915050565b6040518060e00160405280600081526020016060815260200160008152602001600073ffffffffffffffffffffffffffffffffffffffff168152602001600081526020016000600281111561230c5761230b612704565b5b8152602001600081525090565b50805461232590612dfd565b6000825580601f106123375750612356565b601f0160209004906000526020600020908101906123559190612359565b5b50565b5b8082111561237257600081600090555060010161235a565b5090565b6000604051905090565b600080fd5b600080fd5b600073ffffffffffffffffffffffffffffffffffffffff82169050919050565b60006123b58261238a565b9050919050565b6123c5816123aa565b81146123d057600080fd5b50565b6000813590506123e2816123bc565b92915050565b6000819050919050565b6123fb816123e8565b811461240657600080fd5b50565b600081359050612418816123f2565b92915050565b600080fd5b600080fd5b6000601f19601f8301169050919050565b7f4e487b7100000000000000000000000000000000000000000000000000000000600052604160045260246000fd5b61247182612428565b810181811067ffffffffffffffff821117156124905761248f612439565b5b80604052505050565b60006124a3612376565b90506124af8282612468565b919050565b600067ffffffffffffffff8211156124cf576124ce612439565b5b6124d882612428565b9050602081019050919050565b82818337600083830152505050565b6000612507612502846124b4565b612499565b90508281526020810184848401111561252357612522612423565b5b61252e8482856124e5565b509392505050565b600082601f83011261254b5761254a61241e565b5b813561255b8482602086016124f4565b91505092915050565b6000806000806080858703121561257e5761257d612380565b5b600061258c878288016123d3565b945050602061259d87828801612409565b935050604085013567ffffffffffffffff8111156125be576125bd612385565b5b6125ca87828801612536565b92505060606125db87828801612409565b91505092959194509250565b600080600060608486031215612600576125ff612380565b5b600061260e868287016123d3565b935050602061261f86828701612409565b925050604061263086828701612409565b9150509250925092565b6000602082840312156126505761264f612380565b5b600061265e84828501612409565b91505092915050565b612670816123e8565b82525050565b600081519050919050565b600082825260208201905092915050565b60005b838110156126b0578082015181840152602081019050612695565b60008484015250505050565b60006126c782612676565b6126d18185612681565b93506126e1818560208601612692565b6126ea81612428565b840191505092915050565b6126fe816123aa565b82525050565b7f4e487b7100000000000000000000000000000000000000000000000000000000600052602160045260246000fd5b6003811061274457612743612704565b5b50565b600081905061275582612733565b919050565b600061276582612747565b9050919050565b6127758161275a565b82525050565b600060e082019050612790600083018a612667565b81810360208301526127a281896126bc565b90506127b16040830188612667565b6127be60608301876126f5565b6127cb6080830186612667565b6127d860a083018561276c565b6127e560c0830184612667565b98975050505050505050565b600060208201905061280660008301846126f5565b92915050565b6000806040838503121561282357612822612380565b5b6000612831858286016123d3565b925050602061284285828601612409565b9150509250929050565b600081519050919050565b600082825260208201905092915050565b6000819050602082019050919050565b612881816123e8565b82525050565b600082825260208201905092915050565b60006128a382612676565b6128ad8185612887565b93506128bd818560208601612692565b6128c681612428565b840191505092915050565b6128da816123aa565b82525050565b6128e98161275a565b82525050565b600060e0830160008301516129076000860182612878565b506020830151848203602086015261291f8282612898565b91505060408301516129346040860182612878565b50606083015161294760608601826128d1565b50608083015161295a6080860182612878565b5060a083015161296d60a08601826128e0565b5060c083015161298060c0860182612878565b508091505092915050565b600061299783836128ef565b905092915050565b6000602082019050919050565b60006129b78261284c565b6129c18185612857565b9350836020820285016129d385612868565b8060005b85811015612a0f57848403895281516129f0858261298b565b94506129fb8361299f565b925060208a019950506001810190506129d7565b50829750879550505050505092915050565b60006020820190508181036000830152612a3b81846129ac565b905092915050565b60038110612a5057600080fd5b50565b600081359050612a6281612a43565b92915050565b60008060008060808587031215612a8257612a81612380565b5b6000612a90878288016123d3565b9450506020612aa187828801612409565b9350506040612ab287828801612409565b9250506060612ac387828801612a53565b91505092959194509250565b6000819050919050565b6000612af4612aef612aea8461238a565b612acf565b61238a565b9050919050565b6000612b0682612ad9565b9050919050565b6000612b1882612afb565b9050919050565b612b2881612b0d565b82525050565b6000602082019050612b436000830184612b1f565b92915050565b600060e083016000830151612b616000860182612878565b5060208301518482036020860152612b798282612898565b9150506040830151612b8e6040860182612878565b506060830151612ba160608601826128d1565b506080830151612bb46080860182612878565b5060a0830151612bc760a08601826128e0565b5060c0830151612bda60c0860182612878565b508091505092915050565b60006020820190508181036000830152612bff8184612b49565b905092915050565b600060208284031215612c1d57612c1c612380565b5b6000612c2b848285016123d3565b91505092915050565b60006040820190508181036000830152612c4e81856129ac565b9050612c5d6020830184612667565b9392505050565b7f796f75277265206e6f7420617574686f72697a656420746f20706572666f726d60008201527f207468697320616374696f6e0000000000000000000000000000000000000000602082015250565b6000612cc0602c83612681565b9150612ccb82612c64565b604082019050919050565b60006020820190508181036000830152612cef81612cb3565b9050919050565b7f6269642077697468206164647265737320646f65736e27742065786973747300600082015250565b6000612d2c601f83612681565b9150612d3782612cf6565b602082019050919050565b60006020820190508181036000830152612d5b81612d1f565b9050919050565b7f6269642063616e6e6f7420626520757064617465640000000000000000000000600082015250565b6000612d98601583612681565b9150612da382612d62565b602082019050919050565b60006020820190508181036000830152612dc781612d8b565b9050919050565b7f4e487b7100000000000000000000000000000000000000000000000000000000600052602260045260246000fd5b60006002820490506001821680612e1557607f821691505b602082108103612e2857612e27612dce565b5b50919050565b60008190508160005260206000209050919050565b60006020601f8301049050919050565b600082821b905092915050565b600060088302612e907fffffffffffffffffffffffffffffffffffffffffffffffffffffffffffffffff82612e53565b612e9a8683612e53565b95508019841693508086168417925050509392505050565b6000612ecd612ec8612ec3846123e8565b612acf565b6123e8565b9050919050565b6000819050919050565b612ee783612eb2565b612efb612ef382612ed4565b848454612e60565b825550505050565b600090565b612f10612f03565b612f1b818484612ede565b505050565b5b81811015612f3f57612f34600082612f08565b600181019050612f21565b5050565b601f821115612f8457612f5581612e2e565b612f5e84612e43565b81016020851015612f6d578190505b612f81612f7985612e43565b830182612f20565b50505b505050565b600082821c905092915050565b6000612fa760001984600802612f89565b1980831691505092915050565b6000612fc08383612f96565b9150826002028217905092915050565b612fd982612676565b67ffffffffffffffff811115612ff257612ff1612439565b5b612ffc8254612dfd565b613007828285612f43565b600060209050601f83116001811461303a5760008415613028578287015190505b6130328582612fb4565b86555061309a565b601f19841661304886612e2e565b60005b828110156130705784890151825560018201915060208501945060208101905061304b565b8683101561308d5784890151613089601f891682612f96565b8355505b6001600288020188555050505b505050505050565b60006020820190506130b76000830184612667565b92915050565b6000815190506130cc816123bc565b92915050565b6000602082840312156130e8576130e7612380565b5b60006130f6848285016130bd565b91505092915050565b600067ffffffffffffffff82111561311a57613119612439565b5b602082029050602081019050919050565b600080fd5b60008151905061313f816123f2565b92915050565b6000613158613153846130ff565b612499565b9050808382526020820190506020840283018581111561317b5761317a61312b565b5b835b818110156131a457806131908882613130565b84526020840193505060208101905061317d565b5050509392505050565b600082601f8301126131c3576131c261241e565b5b81516131d3848260208601613145565b91505092915050565b6000602082840312156131f2576131f1612380565b5b600082015167ffffffffffffffff8111156132105761320f612385565b5b61321c848285016131ae565b91505092915050565b7f4e487b7100000000000000000000000000000000000000000000000000000000600052603260045260246000fd5b7f4e487b7100000000000000000000000000000000000000000000000000000000600052601160045260246000fd5b600061328e826123e8565b91507fffffffffffffffffffffffffffffffffffffffffffffffffffffffffffffffff82036132c0576132bf613254565b5b600182019050919050565b600581106132dc576132db612704565b5b50565b60008190506132ed826132cb565b919050565b60006132fd826132df565b9050919050565b61330d816132f2565b82525050565b60006040820190506133286000830185612667565b6133356020830184613304565b9392505050565b7f4e6f206269647320657869737473000000000000000000000000000000000000600082015250565b6000613372600e83612681565b915061337d8261333c565b602082019050919050565b600060208201905081810360008301526133a181613365565b9050919050565b7f6269642063616e6e6f742062652064656c657465640000000000000000000000600082015250565b60006133de601583612681565b91506133e9826133a8565b602082019050919050565b6000602082019050818103600083015261340d816133d1565b9050919050565b60006040820190506134296000830185612667565b6134366020830184612667565b9392505050565b7f4e6f7420617574686f72697a656420746f20766965772062696420646574616960008201527f6c73000000000000000000000000000000000000000000000000000000000000602082015250565b6000613499602283612681565b91506134a48261343d565b604082019050919050565b600060208201905081810360008301526134c88161348c565b9050919050565b7f42696420646f6573206e6f742065786973740000000000000000000000000000600082015250565b6000613505601283612681565b9150613510826134cf565b602082019050919050565b60006020820190508181036000830152613534816134f8565b9050919050565b7f43616c6c6572206973206e6f74206f776e657200000000000000000000000000600082015250565b6000613571601383612681565b915061357c8261353b565b602082019050919050565b600060208201905081810360008301526135a081613564565b9050919050565b7f4e6f206269647320657869737400000000000000000000000000000000000000600082015250565b60006135dd600d83612681565b91506135e8826135a7565b602082019050919050565b6000602082019050818103600083015261360c816135d0565b9050919050565b60006020828403121561362957613628612380565b5b600061363784828501613130565b91505092915050565b6005811061364d57600080fd5b50565b60008151905061365f81613640565b92915050565b60006020828403121561367b5761367a612380565b5b600061368984828501613650565b91505092915050565b7f54656e64657220646f6573206e6f742065786973740000000000000000000000600082015250565b60006136c8601583612681565b91506136d382613692565b602082019050919050565b600060208201905081810360008301526136f7816136bb565b9050919050565b7f54656e646572206973206e6f74206f70656e20666f7220626964730000000000600082015250565b6000613734601b83612681565b915061373f826136fe565b602082019050919050565b6000602082019050818103600083015261376381613727565b9050919050565b7f42696464696e672068617320656e646564000000000000000000000000000000600082015250565b60006137a0601183612681565b91506137ab8261376a565b602082019050919050565b600060208201905081810360008301526137cf81613793565b9050919050565b7f4f776e65722063616e6e6f7420626964206f6e207468656972206f776e20746560008201527f6e64657200000000000000000000000000000000000000000000000000000000602082015250565b6000613832602483612681565b915061383d826137d6565b604082019050919050565b6000602082019050818103600083015261386181613825565b905091905056fea2646970667358221220f8fe02a86f9520a4288c3c295d31962bd044ded8b3161d97931d701d2a65cb7464736f6c63430008130033",
  "immutableReferences": {},
  "source": "// SPDX-License-Identifier: UNLICENSED\r\n\r\n//the version of solidity that is compatible\r\npragma solidity ^0.8.0;\r\npragma experimental ABIEncoderV2;\r\n\r\nimport \"./TenderContract.sol\";\r\n\r\ncontract BidContract {\r\n    enum BidStatus{PENDING, REJECTED, APPROVED}\r\n\r\n    // Bidding Struct\r\n    struct Bid {\r\n        uint256 bidId;\r\n        string bidClause;\r\n        uint256 quotedAmount;\r\n        address bidderAddress;\r\n        uint256 tenderId;\r\n        BidStatus bidStatus;\r\n        uint256 createdAt;\r\n    }\r\n\r\n    mapping (uint256 => Bid) public bids;\r\n    uint256 bidCount = 0;\r\n    TenderContract public tenderRef;\r\n\r\n    constructor(TenderContract _tenderRef){\r\n        tenderRef = _tenderRef;\r\n    }\r\n\r\n    //setters and getters\r\n    function getBidderAddress(uint256 _bidId) public view returns(address) {\r\n        return bids[_bidId].bidderAddress;\r\n    }\r\n\r\n    modifier isOwner(address owner) {\r\n        require(msg.sender == owner, \"Caller is not owner\");\r\n        _;\r\n    }\r\n\r\n    modifier isTenderOwner(address _partyAddress, uint256 _tenderId) {\r\n        address issuerAddress = tenderRef.getIssuerAddress(_tenderId);\r\n        require(issuerAddress == _partyAddress, \"you're not authorized to perform this action\");\r\n        _;\r\n    }\r\n\r\n    modifier isBidOwner(address _bidderAddress, uint256 _bidId) {\r\n        require(bids[_bidId].bidderAddress == _bidderAddress, \"you're not authorized to perform this action\");\r\n        _;\r\n    }\r\n\r\n    function createBid(address _bidderAddress, uint256 _tenderId, string memory _bidClause, uint256 _quotedAmount) public{\r\n        // Tender storage _tender = tenderRef.tenders(_tenderId);\r\n        uint256 _budget = tenderRef.getBudget(_tenderId);\r\n        TenderStatus _tenderStatus = tenderRef.getTenderStatus(_tenderId);\r\n        uint256 _deadline = tenderRef.getDeadline(_tenderId);\r\n        address _issuerAddress = tenderRef.getIssuerAddress(_tenderId);\r\n        require(_budget > 0, \"Tender does not exist\");\r\n        require(_tenderStatus == TenderStatus.OPEN, \"Tender is not open for bids\");\r\n        require(block.timestamp < _deadline, \"Bidding has ended\");\r\n        require(_bidderAddress != _issuerAddress, \"Owner cannot bid on their own tender\");\r\n\r\n        Bid storage newBid = bids[bidCount];\r\n        newBid.bidId = bidCount;\r\n        newBid.bidClause = _bidClause;\r\n        newBid.quotedAmount = _quotedAmount;\r\n        newBid.bidderAddress = _bidderAddress;\r\n        newBid.tenderId = _tenderId;\r\n        newBid.bidStatus = BidStatus.PENDING;\r\n        newBid.createdAt = block.timestamp;\r\n        tenderRef.addBidId(_tenderId, bidCount);\r\n        bidCount++;\r\n    }\r\n\r\n    modifier canViewBid(address _partyAddress ,uint256 _tenderId, uint256 _bidId){\r\n        address issuerAddress = tenderRef.getIssuerAddress(_tenderId);\r\n        require((bids[_bidId].bidderAddress == _partyAddress  || issuerAddress == _partyAddress), \"Not authorized to view bid details\");\r\n        _;\r\n    }\r\n\r\n    // For getting bid details like message, amount, address of bidders \r\n    function getBidDetails(address _partyAddress ,uint256 _tenderId, uint256 _bidId) public view canViewBid(_partyAddress, _tenderId, _bidId) returns (Bid memory) {\r\n\t    require(bids[_bidId].quotedAmount > 0, \"Bid does not exist\");\r\n    \treturn (bids[_bidId]);\r\n    }\r\n\r\n    function getMyBids(address _bidderAddress) public view isOwner(_bidderAddress) returns(Bid[] memory, uint){\r\n        require(bidCount > 0, \"No bids exist\");\r\n        uint count =0;\r\n        Bid[] memory bidsList = new Bid[](tenderRef.getTenderCount());\r\n        for (uint256 i = 0; i < bidCount; i++) {\r\n            if(bids[i].bidderAddress == _bidderAddress){\r\n                count++;\r\n                bidsList[i] = bids[i];\r\n            }\r\n                \r\n        }\r\n        return(bidsList, count);\r\n    }\r\n\r\n    // For getting all bids of a tender\r\n    function getAllBids(address _partyAddress, uint256 _tenderId) public view isTenderOwner(_partyAddress, _tenderId) returns(Bid[] memory){\r\n        uint256[] memory tenderBidIds = tenderRef.getBidIds(_tenderId);\r\n        require(tenderBidIds.length > 0, \"No bids exists\");\r\n        Bid[] memory bidsList = new Bid[](tenderBidIds.length);\r\n        for (uint256 i = 0; i < tenderBidIds.length; i++) {\r\n            bidsList[i] = bids[tenderBidIds[i]];\r\n        }\r\n        return(bidsList);\r\n    }\r\n\r\n    function updateBidStatus(address _partyAddress, uint256 _tenderId, uint256 _bidAddress ,BidStatus _bidStatus) public isTenderOwner(_partyAddress, _tenderId) {\r\n        Bid storage updatedBid = bids[_bidAddress];\r\n        updatedBid.bidStatus = _bidStatus;\r\n    }\r\n\r\n    function updateBid(address _bidderAddress, uint256 _bidId, string memory _bidClause, uint256 _quotedAmount) public isBidOwner(_bidderAddress, _bidId) {\r\n        require(bids[_bidId].quotedAmount > 0 , \"bid with address doesn't exists\");\r\n        require(bids[_bidId].bidStatus != BidStatus.PENDING , \"bid cannot be updated\");\r\n        Bid storage updatedBid = bids[_bidId];\r\n        updatedBid.bidClause = _bidClause;\r\n        updatedBid.quotedAmount = _quotedAmount;\r\n    }\r\n\r\n    function deleteBid(address _bidderAddress, uint256 _tenderId ,uint256 _bidId) public isBidOwner(_bidderAddress, _bidId){ \r\n        uint256[] memory tenderBidIds = tenderRef.getBidIds(_tenderId);\r\n        require(tenderBidIds.length > 0, \"No bids exists\");\r\n        require(bids[_bidId].quotedAmount > 0 , \"bid with address doesn't exists\");\r\n        require(bids[_bidId].bidStatus == BidStatus.PENDING , \"bid cannot be deleted\");\r\n        delete bids[_bidId];\r\n        tenderRef.deleteBidId(_tenderId, _bidId);             \r\n    }\r\n\r\n    modifier isValidTender(uint256 tenderId) {\r\n        uint256 _deadline = tenderRef.getDeadline(tenderId);\r\n        TenderStatus _tenderStatus = tenderRef.getTenderStatus(tenderId);\r\n        require(block.timestamp >= _deadline && _tenderStatus == TenderStatus.CLOSED);\r\n        _;\r\n    }\r\n\r\n    function selectTopBids(address _partyAddress, uint256 _tenderId ) public view isTenderOwner(_partyAddress, _tenderId) isValidTender(_tenderId) returns (Bid[] memory) {\r\n        //invoke this function once deadline is crossed and can be invoked by project issue party, make sure this project is not assigned to anyone------modifier\r\n        // get all the bids for pt\r\n        Bid[] memory bidList = getAllBids(_partyAddress, _tenderId);\r\n        require(bidList.length > 0, \"No bids exists\");\r\n        // sort bids by price\r\n        for (uint i = 1; i < bidList.length; i++){\r\n            for (uint j = 0; j < i; j++){\r\n                if (bidList[i].quotedAmount < bidList[j].quotedAmount) {\r\n                    Bid memory tempBid = bidList[i];\r\n                    bidList[i] = bidList[j];\r\n                    bidList[j] = tempBid;\r\n                }\r\n            }\r\n        }\r\n        uint256 shortListedBidsCount = (bidList.length < 5) ? bidList.length : 5; \r\n        Bid[] memory shortListedBids = new Bid[](shortListedBidsCount);\r\n        for (uint i = 0; i < shortListedBidsCount; i++){\r\n            shortListedBids[i] = bidList[i];\r\n        }\r\n\r\n        return shortListedBids;\r\n        //returns a list of top 5 bidders and history of bidders\r\n\r\n        // - in case of a tie, the bidder with the largest \"trust\" is given the project. ( Trust in this context is measured in terms of the number of previous projects done and the token assets a party has.)\r\n        // update the status of each bid to APPROVED / REJECTED from PENDING.\r\n    }\r\n\r\n    function finaliseWinnerBid(address _partyAddress, uint256 _tenderId, uint256 _bidId) public isTenderOwner(_partyAddress, _tenderId){\r\n        uint256[] memory tenderBidIds = tenderRef.getBidIds(_tenderId);\r\n        for(uint256 i=0;i< tenderBidIds.length ;i++){\r\n            if(tenderBidIds[i] == _bidId)\r\n                updateBidStatus(_partyAddress, _tenderId, tenderBidIds[i], BidStatus.APPROVED);\r\n            else \r\n                updateBidStatus(_partyAddress, _tenderId, tenderBidIds[i], BidStatus.REJECTED);\r\n        }\r\n        tenderRef.updateTenderStatus(_tenderId, TenderStatus.ASSIGNED);\r\n    }\r\n\r\n}",
  "sourcePath": "C:\\Users\\sabba\\OneDrive\\Documents\\BlockchainProject\\blockchain-based-contracting-system\\contracts\\BidContract.sol",
  "compiler": {
    "name": "solc",
    "version": "0.8.19+commit.7dd6d404.Emscripten.clang"
  },
  "schemaVersion": "3.4.13",
  "updatedAt": "2023-04-14T21:53:50.162Z",
  "networkType": "ethereum",
  "devdoc": {
    "kind": "dev",
    "methods": {},
    "version": 1
  },
  "userdoc": {
    "kind": "user",
    "methods": {},
    "version": 1
  }
}