{
  "contractName": "BidContract",
  "abi": [
    {
      "inputs": [
        {
          "internalType": "contract TenderContract",
          "name": "_tenderRef",
          "type": "address"
        }
      ],
      "stateMutability": "nonpayable",
      "type": "constructor"
    },
    {
      "inputs": [
        {
          "internalType": "uint256",
          "name": "",
          "type": "uint256"
        }
      ],
      "name": "bids",
      "outputs": [
        {
          "internalType": "uint256",
          "name": "bidId",
          "type": "uint256"
        },
        {
          "internalType": "string",
          "name": "bidClause",
          "type": "string"
        },
        {
          "internalType": "uint256",
          "name": "quotedAmount",
          "type": "uint256"
        },
        {
          "internalType": "address",
          "name": "bidderAddress",
          "type": "address"
        },
        {
          "internalType": "uint256",
          "name": "tenderId",
          "type": "uint256"
        },
        {
          "internalType": "enum BidContract.BidStatus",
          "name": "bidStatus",
          "type": "uint8"
        },
        {
          "internalType": "uint256",
          "name": "createdAt",
          "type": "uint256"
        }
      ],
      "stateMutability": "view",
      "type": "function",
      "constant": true
    },
    {
      "inputs": [],
      "name": "tenderRef",
      "outputs": [
        {
          "internalType": "contract TenderContract",
          "name": "",
          "type": "address"
        }
      ],
      "stateMutability": "view",
      "type": "function",
      "constant": true
    },
    {
      "inputs": [
        {
          "internalType": "address",
          "name": "_bidderAddress",
          "type": "address"
        },
        {
          "internalType": "uint256",
          "name": "_tenderId",
          "type": "uint256"
        },
        {
          "internalType": "string",
          "name": "_bidClause",
          "type": "string"
        },
        {
          "internalType": "uint256",
          "name": "_quotedAmount",
          "type": "uint256"
        }
      ],
      "name": "createBid",
      "outputs": [],
      "stateMutability": "nonpayable",
      "type": "function"
    },
    {
      "inputs": [
        {
          "internalType": "address",
          "name": "_bidderAddress",
          "type": "address"
        },
        {
          "internalType": "address",
          "name": "_issuerAddress",
          "type": "address"
        },
        {
          "internalType": "uint256",
          "name": "_tenderId",
          "type": "uint256"
        },
        {
          "internalType": "uint256",
          "name": "_bidId",
          "type": "uint256"
        }
      ],
      "name": "getBidDetails",
      "outputs": [
        {
          "components": [
            {
              "internalType": "uint256",
              "name": "bidId",
              "type": "uint256"
            },
            {
              "internalType": "string",
              "name": "bidClause",
              "type": "string"
            },
            {
              "internalType": "uint256",
              "name": "quotedAmount",
              "type": "uint256"
            },
            {
              "internalType": "address",
              "name": "bidderAddress",
              "type": "address"
            },
            {
              "internalType": "uint256",
              "name": "tenderId",
              "type": "uint256"
            },
            {
              "internalType": "enum BidContract.BidStatus",
              "name": "bidStatus",
              "type": "uint8"
            },
            {
              "internalType": "uint256",
              "name": "createdAt",
              "type": "uint256"
            }
          ],
          "internalType": "struct BidContract.Bid",
          "name": "",
          "type": "tuple"
        }
      ],
      "stateMutability": "view",
      "type": "function",
      "constant": true
    },
    {
      "inputs": [
        {
          "internalType": "address",
          "name": "_bidderAddress",
          "type": "address"
        }
      ],
      "name": "getMyBids",
      "outputs": [
        {
          "components": [
            {
              "internalType": "uint256",
              "name": "bidId",
              "type": "uint256"
            },
            {
              "internalType": "string",
              "name": "bidClause",
              "type": "string"
            },
            {
              "internalType": "uint256",
              "name": "quotedAmount",
              "type": "uint256"
            },
            {
              "internalType": "address",
              "name": "bidderAddress",
              "type": "address"
            },
            {
              "internalType": "uint256",
              "name": "tenderId",
              "type": "uint256"
            },
            {
              "internalType": "enum BidContract.BidStatus",
              "name": "bidStatus",
              "type": "uint8"
            },
            {
              "internalType": "uint256",
              "name": "createdAt",
              "type": "uint256"
            }
          ],
          "internalType": "struct BidContract.Bid[]",
          "name": "",
          "type": "tuple[]"
        },
        {
          "internalType": "uint256",
          "name": "",
          "type": "uint256"
        }
      ],
      "stateMutability": "view",
      "type": "function",
      "constant": true
    },
    {
      "inputs": [
        {
          "internalType": "address",
          "name": "_partyAddress",
          "type": "address"
        },
        {
          "internalType": "uint256",
          "name": "_tenderId",
          "type": "uint256"
        }
      ],
      "name": "getAllBids",
      "outputs": [
        {
          "components": [
            {
              "internalType": "uint256",
              "name": "bidId",
              "type": "uint256"
            },
            {
              "internalType": "string",
              "name": "bidClause",
              "type": "string"
            },
            {
              "internalType": "uint256",
              "name": "quotedAmount",
              "type": "uint256"
            },
            {
              "internalType": "address",
              "name": "bidderAddress",
              "type": "address"
            },
            {
              "internalType": "uint256",
              "name": "tenderId",
              "type": "uint256"
            },
            {
              "internalType": "enum BidContract.BidStatus",
              "name": "bidStatus",
              "type": "uint8"
            },
            {
              "internalType": "uint256",
              "name": "createdAt",
              "type": "uint256"
            }
          ],
          "internalType": "struct BidContract.Bid[]",
          "name": "",
          "type": "tuple[]"
        }
      ],
      "stateMutability": "view",
      "type": "function",
      "constant": true
    },
    {
      "inputs": [
        {
          "internalType": "address",
          "name": "_partyAddress",
          "type": "address"
        },
        {
          "internalType": "uint256",
          "name": "_tenderId",
          "type": "uint256"
        },
        {
          "internalType": "uint256",
          "name": "_bidAddress",
          "type": "uint256"
        },
        {
          "internalType": "enum BidContract.BidStatus",
          "name": "_bidStatus",
          "type": "uint8"
        }
      ],
      "name": "updateBidStatus",
      "outputs": [],
      "stateMutability": "nonpayable",
      "type": "function"
    },
    {
      "inputs": [
        {
          "internalType": "address",
          "name": "_bidderAddress",
          "type": "address"
        },
        {
          "internalType": "uint256",
          "name": "_bidId",
          "type": "uint256"
        },
        {
          "internalType": "string",
          "name": "_bidClause",
          "type": "string"
        },
        {
          "internalType": "uint256",
          "name": "_quotedAmount",
          "type": "uint256"
        }
      ],
      "name": "updateBid",
      "outputs": [],
      "stateMutability": "nonpayable",
      "type": "function"
    },
    {
      "inputs": [
        {
          "internalType": "address",
          "name": "_bidderAddress",
          "type": "address"
        },
        {
          "internalType": "uint256",
          "name": "_tenderId",
          "type": "uint256"
        },
        {
          "internalType": "uint256",
          "name": "_bidId",
          "type": "uint256"
        }
      ],
      "name": "deleteBid",
      "outputs": [],
      "stateMutability": "nonpayable",
      "type": "function"
    },
    {
      "inputs": [
        {
          "internalType": "address",
          "name": "_partyAddress",
          "type": "address"
        },
        {
          "internalType": "uint256",
          "name": "_tenderId",
          "type": "uint256"
        }
      ],
      "name": "selectTopBids",
      "outputs": [
        {
          "components": [
            {
              "internalType": "uint256",
              "name": "bidId",
              "type": "uint256"
            },
            {
              "internalType": "string",
              "name": "bidClause",
              "type": "string"
            },
            {
              "internalType": "uint256",
              "name": "quotedAmount",
              "type": "uint256"
            },
            {
              "internalType": "address",
              "name": "bidderAddress",
              "type": "address"
            },
            {
              "internalType": "uint256",
              "name": "tenderId",
              "type": "uint256"
            },
            {
              "internalType": "enum BidContract.BidStatus",
              "name": "bidStatus",
              "type": "uint8"
            },
            {
              "internalType": "uint256",
              "name": "createdAt",
              "type": "uint256"
            }
          ],
          "internalType": "struct BidContract.Bid[]",
          "name": "",
          "type": "tuple[]"
        }
      ],
      "stateMutability": "view",
      "type": "function",
      "constant": true
    },
    {
      "inputs": [
        {
          "internalType": "address",
          "name": "_partyAddress",
          "type": "address"
        },
        {
          "internalType": "uint256",
          "name": "_tenderId",
          "type": "uint256"
        },
        {
          "internalType": "uint256",
          "name": "_bidId",
          "type": "uint256"
        }
      ],
      "name": "finaliseWinnerBid",
      "outputs": [],
      "stateMutability": "nonpayable",
      "type": "function"
    }
  ],
  "bytecode": "0x608060405260006001553480156200001657600080fd5b5060405162003a2538038062003a2583398181016040528101906200003c919062000102565b80600260006101000a81548173ffffffffffffffffffffffffffffffffffffffff021916908373ffffffffffffffffffffffffffffffffffffffff1602179055505062000134565b600080fd5b600073ffffffffffffffffffffffffffffffffffffffff82169050919050565b6000620000b68262000089565b9050919050565b6000620000ca82620000a9565b9050919050565b620000dc81620000bd565b8114620000e857600080fd5b50565b600081519050620000fc81620000d1565b92915050565b6000602082840312156200011b576200011a62000084565b5b60006200012b84828501620000eb565b91505092915050565b6138e180620001446000396000f3fe608060405234801561001057600080fd5b50600436106100a95760003560e01c80638d5b8612116100715780638d5b861214610168578063b344556c14610186578063bb693c4d146101b6578063ebc25fa6146101d2578063f91b6ae514610203578063fd140a951461021f576100a9565b8063167548c5146100ae57806326b26e56146100ca5780634423c5f1146100e6578063612815161461011c5780636dc4d10c1461014c575b600080fd5b6100c860048036038101906100c3919061255b565b61024f565b005b6100e460048036038101906100df91906125de565b61040f565b005b61010060048036038101906100fb9190612631565b6106f2565b6040516101139796959493929190612772565b60405180910390f35b610136600480360381019061013191906127e8565b6107e9565b60405161014391906129fd565b60405180910390f35b61016660048036038101906101619190612a44565b610c0b565b005b610170610d67565b60405161017d9190612b0a565b60405180910390f35b6101a0600480360381019061019b9190612b25565b610d8d565b6040516101ad9190612c28565b60405180910390f35b6101d060048036038101906101cb91906125de565b61114f565b005b6101ec60048036038101906101e79190612c4a565b6114d5565b6040516101fa929190612c77565b60405180910390f35b61021d6004803603810190610218919061255b565b6118a2565b005b610239600480360381019061023491906127e8565b611df0565b60405161024691906129fd565b60405180910390f35b83838173ffffffffffffffffffffffffffffffffffffffff1660008083815260200190815260200160002060030160009054906101000a900473ffffffffffffffffffffffffffffffffffffffff1673ffffffffffffffffffffffffffffffffffffffff16146102f4576040517f08c379a00000000000000000000000000000000000000000000000000000000081526004016102eb90612d19565b60405180910390fd5b6000806000878152602001908152602001600020600201541161034c576040517f08c379a000000000000000000000000000000000000000000000000000000000815260040161034390612d85565b60405180910390fd5b600060028111156103605761035f6126fb565b5b60008087815260200190815260200160002060050160009054906101000a900460ff166002811115610395576103946126fb565b5b036103d5576040517f08c379a00000000000000000000000000000000000000000000000000000000081526004016103cc90612df1565b60405180910390fd5b60008060008781526020019081526020016000209050848160010190816103fc9190613013565b5083816002018190555050505050505050565b82826000600260009054906101000a900473ffffffffffffffffffffffffffffffffffffffff1673ffffffffffffffffffffffffffffffffffffffff16637e4d2d97836040518263ffffffff1660e01b815260040161046e91906130e5565b602060405180830381865afa15801561048b573d6000803e3d6000fd5b505050506040513d601f19601f820116820180604052508101906104af9190613115565b90508273ffffffffffffffffffffffffffffffffffffffff168173ffffffffffffffffffffffffffffffffffffffff161461051f576040517f08c379a000000000000000000000000000000000000000000000000000000000815260040161051690612d19565b60405180910390fd5b6000600260009054906101000a900473ffffffffffffffffffffffffffffffffffffffff1673ffffffffffffffffffffffffffffffffffffffff166342222a43876040518263ffffffff1660e01b815260040161057c91906130e5565b600060405180830381865afa158015610599573d6000803e3d6000fd5b505050506040513d6000823e3d601f19601f820116820180604052508101906105c2919061321f565b905060005b815181101561065857858282815181106105e4576105e3613268565b5b60200260200101510361061d57610618888884848151811061060957610608613268565b5b60200260200101516002610c0b565b610645565b610644888884848151811061063557610634613268565b5b60200260200101516001610c0b565b5b8080610650906132c6565b9150506105c7565b50600260009054906101000a900473ffffffffffffffffffffffffffffffffffffffff1673ffffffffffffffffffffffffffffffffffffffff1663aaaf41888760046040518363ffffffff1660e01b81526004016106b7929190613356565b600060405180830381600087803b1580156106d157600080fd5b505af11580156106e5573d6000803e3d6000fd5b5050505050505050505050565b600060205280600052604060002060009150905080600001549080600101805461071b90612e40565b80601f016020809104026020016040519081016040528092919081815260200182805461074790612e40565b80156107945780601f1061076957610100808354040283529160200191610794565b820191906000526020600020905b81548152906001019060200180831161077757829003601f168201915b5050505050908060020154908060030160009054906101000a900473ffffffffffffffffffffffffffffffffffffffff16908060040154908060050160009054906101000a900460ff16908060060154905087565b606082826000600260009054906101000a900473ffffffffffffffffffffffffffffffffffffffff1673ffffffffffffffffffffffffffffffffffffffff16637e4d2d97836040518263ffffffff1660e01b815260040161084a91906130e5565b602060405180830381865afa158015610867573d6000803e3d6000fd5b505050506040513d601f19601f8201168201806040525081019061088b9190613115565b90508273ffffffffffffffffffffffffffffffffffffffff168173ffffffffffffffffffffffffffffffffffffffff16146108fb576040517f08c379a00000000000000000000000000000000000000000000000000000000081526004016108f290612d19565b60405180910390fd5b6000600260009054906101000a900473ffffffffffffffffffffffffffffffffffffffff1673ffffffffffffffffffffffffffffffffffffffff166342222a43876040518263ffffffff1660e01b815260040161095891906130e5565b600060405180830381865afa158015610975573d6000803e3d6000fd5b505050506040513d6000823e3d601f19601f8201168201806040525081019061099e919061321f565b905060008151116109e4576040517f08c379a00000000000000000000000000000000000000000000000000000000081526004016109db906133cb565b60405180910390fd5b6000815167ffffffffffffffff811115610a0157610a00612430565b5b604051908082528060200260200182016040528015610a3a57816020015b610a276122ab565b815260200190600190039081610a1f5790505b50905060005b8251811015610bfc57600080848381518110610a5f57610a5e613268565b5b602002602001015181526020019081526020016000206040518060e001604052908160008201548152602001600182018054610a9a90612e40565b80601f0160208091040260200160405190810160405280929190818152602001828054610ac690612e40565b8015610b135780601f10610ae857610100808354040283529160200191610b13565b820191906000526020600020905b815481529060010190602001808311610af657829003601f168201915b50505050508152602001600282015481526020016003820160009054906101000a900473ffffffffffffffffffffffffffffffffffffffff1673ffffffffffffffffffffffffffffffffffffffff1673ffffffffffffffffffffffffffffffffffffffff168152602001600482015481526020016005820160009054906101000a900460ff166002811115610bab57610baa6126fb565b5b6002811115610bbd57610bbc6126fb565b5b8152602001600682015481525050828281518110610bde57610bdd613268565b5b60200260200101819052508080610bf4906132c6565b915050610a40565b50809550505050505092915050565b83836000600260009054906101000a900473ffffffffffffffffffffffffffffffffffffffff1673ffffffffffffffffffffffffffffffffffffffff16637e4d2d97836040518263ffffffff1660e01b8152600401610c6a91906130e5565b602060405180830381865afa158015610c87573d6000803e3d6000fd5b505050506040513d601f19601f82011682018060405250810190610cab9190613115565b90508273ffffffffffffffffffffffffffffffffffffffff168173ffffffffffffffffffffffffffffffffffffffff1614610d1b576040517f08c379a0000000000000000000000000000000000000000000000000000000008152600401610d1290612d19565b60405180910390fd5b60008060008781526020019081526020016000209050848160050160006101000a81548160ff02191690836002811115610d5857610d576126fb565b5b02179055505050505050505050565b600260009054906101000a900473ffffffffffffffffffffffffffffffffffffffff1681565b610d956122ab565b848484846000600260009054906101000a900473ffffffffffffffffffffffffffffffffffffffff1673ffffffffffffffffffffffffffffffffffffffff16637e4d2d97846040518263ffffffff1660e01b8152600401610df691906130e5565b602060405180830381865afa158015610e13573d6000803e3d6000fd5b505050506040513d601f19601f82011682018060405250810190610e379190613115565b90508473ffffffffffffffffffffffffffffffffffffffff1660008084815260200190815260200160002060030160009054906101000a900473ffffffffffffffffffffffffffffffffffffffff1673ffffffffffffffffffffffffffffffffffffffff16148015610ed457508373ffffffffffffffffffffffffffffffffffffffff168173ffffffffffffffffffffffffffffffffffffffff16145b8015610f4157508373ffffffffffffffffffffffffffffffffffffffff163373ffffffffffffffffffffffffffffffffffffffff161480610f4057508473ffffffffffffffffffffffffffffffffffffffff163373ffffffffffffffffffffffffffffffffffffffff16145b5b610f80576040517f08c379a0000000000000000000000000000000000000000000000000000000008152600401610f779061345d565b60405180910390fd5b60008060008981526020019081526020016000206002015411610fd8576040517f08c379a0000000000000000000000000000000000000000000000000000000008152600401610fcf906134c9565b60405180910390fd5b6000808881526020019081526020016000206040518060e00160405290816000820154815260200160018201805461100f90612e40565b80601f016020809104026020016040519081016040528092919081815260200182805461103b90612e40565b80156110885780601f1061105d57610100808354040283529160200191611088565b820191906000526020600020905b81548152906001019060200180831161106b57829003601f168201915b50505050508152602001600282015481526020016003820160009054906101000a900473ffffffffffffffffffffffffffffffffffffffff1673ffffffffffffffffffffffffffffffffffffffff1673ffffffffffffffffffffffffffffffffffffffff168152602001600482015481526020016005820160009054906101000a900460ff1660028111156111205761111f6126fb565b5b6002811115611132576111316126fb565b5b815260200160068201548152505095505050505050949350505050565b82818173ffffffffffffffffffffffffffffffffffffffff1660008083815260200190815260200160002060030160009054906101000a900473ffffffffffffffffffffffffffffffffffffffff1673ffffffffffffffffffffffffffffffffffffffff16146111f4576040517f08c379a00000000000000000000000000000000000000000000000000000000081526004016111eb90612d19565b60405180910390fd5b6000600260009054906101000a900473ffffffffffffffffffffffffffffffffffffffff1673ffffffffffffffffffffffffffffffffffffffff166342222a43866040518263ffffffff1660e01b815260040161125191906130e5565b600060405180830381865afa15801561126e573d6000803e3d6000fd5b505050506040513d6000823e3d601f19601f82011682018060405250810190611297919061321f565b905060008151116112dd576040517f08c379a00000000000000000000000000000000000000000000000000000000081526004016112d4906133cb565b60405180910390fd5b60008060008681526020019081526020016000206002015411611335576040517f08c379a000000000000000000000000000000000000000000000000000000000815260040161132c90612d85565b60405180910390fd5b60006002811115611349576113486126fb565b5b60008086815260200190815260200160002060050160009054906101000a900460ff16600281111561137e5761137d6126fb565b5b036113be576040517f08c379a00000000000000000000000000000000000000000000000000000000081526004016113b590613535565b60405180910390fd5b6000808581526020019081526020016000206000808201600090556001820160006113e99190612310565b60028201600090556003820160006101000a81549073ffffffffffffffffffffffffffffffffffffffff021916905560048201600090556005820160006101000a81549060ff021916905560068201600090555050600260009054906101000a900473ffffffffffffffffffffffffffffffffffffffff1673ffffffffffffffffffffffffffffffffffffffff1663791778c186866040518363ffffffff1660e01b815260040161149b929190613555565b600060405180830381600087803b1580156114b557600080fd5b505af11580156114c9573d6000803e3d6000fd5b50505050505050505050565b60606000828073ffffffffffffffffffffffffffffffffffffffff163373ffffffffffffffffffffffffffffffffffffffff1614611548576040517f08c379a000000000000000000000000000000000000000000000000000000000815260040161153f906135ca565b60405180910390fd5b60006001541161158d576040517f08c379a000000000000000000000000000000000000000000000000000000000815260040161158490613636565b60405180910390fd5b600080600260009054906101000a900473ffffffffffffffffffffffffffffffffffffffff1673ffffffffffffffffffffffffffffffffffffffff16635850b3836040518163ffffffff1660e01b8152600401602060405180830381865afa1580156115fd573d6000803e3d6000fd5b505050506040513d601f19601f820116820180604052508101906116219190613656565b67ffffffffffffffff81111561163a57611639612430565b5b60405190808252806020026020018201604052801561167357816020015b6116606122ab565b8152602001906001900390816116585790505b50905060005b600154811015611893578673ffffffffffffffffffffffffffffffffffffffff1660008083815260200190815260200160002060030160009054906101000a900473ffffffffffffffffffffffffffffffffffffffff1673ffffffffffffffffffffffffffffffffffffffff16036118805782806116f6906132c6565b9350506000808281526020019081526020016000206040518060e00160405290816000820154815260200160018201805461173090612e40565b80601f016020809104026020016040519081016040528092919081815260200182805461175c90612e40565b80156117a95780601f1061177e576101008083540402835291602001916117a9565b820191906000526020600020905b81548152906001019060200180831161178c57829003601f168201915b50505050508152602001600282015481526020016003820160009054906101000a900473ffffffffffffffffffffffffffffffffffffffff1673ffffffffffffffffffffffffffffffffffffffff1673ffffffffffffffffffffffffffffffffffffffff168152602001600482015481526020016005820160009054906101000a900460ff166002811115611841576118406126fb565b5b6002811115611853576118526126fb565b5b815260200160068201548152505082828151811061187457611873613268565b5b60200260200101819052505b808061188b906132c6565b915050611679565b50808294509450505050915091565b6000600260009054906101000a900473ffffffffffffffffffffffffffffffffffffffff1673ffffffffffffffffffffffffffffffffffffffff16632e4ea4c4856040518263ffffffff1660e01b81526004016118ff91906130e5565b602060405180830381865afa15801561191c573d6000803e3d6000fd5b505050506040513d601f19601f820116820180604052508101906119409190613656565b90506000600260009054906101000a900473ffffffffffffffffffffffffffffffffffffffff1673ffffffffffffffffffffffffffffffffffffffff1663354133f7866040518263ffffffff1660e01b815260040161199f91906130e5565b602060405180830381865afa1580156119bc573d6000803e3d6000fd5b505050506040513d601f19601f820116820180604052508101906119e091906136a8565b90506000600260009054906101000a900473ffffffffffffffffffffffffffffffffffffffff1673ffffffffffffffffffffffffffffffffffffffff166382862275876040518263ffffffff1660e01b8152600401611a3f91906130e5565b602060405180830381865afa158015611a5c573d6000803e3d6000fd5b505050506040513d601f19601f82011682018060405250810190611a809190613656565b90506000600260009054906101000a900473ffffffffffffffffffffffffffffffffffffffff1673ffffffffffffffffffffffffffffffffffffffff16637e4d2d97886040518263ffffffff1660e01b8152600401611adf91906130e5565b602060405180830381865afa158015611afc573d6000803e3d6000fd5b505050506040513d601f19601f82011682018060405250810190611b209190613115565b905060008411611b65576040517f08c379a0000000000000000000000000000000000000000000000000000000008152600401611b5c90613721565b60405180910390fd5b60016004811115611b7957611b786126fb565b5b836004811115611b8c57611b8b6126fb565b5b14611bcc576040517f08c379a0000000000000000000000000000000000000000000000000000000008152600401611bc39061378d565b60405180910390fd5b814210611c0e576040517f08c379a0000000000000000000000000000000000000000000000000000000008152600401611c05906137f9565b60405180910390fd5b8073ffffffffffffffffffffffffffffffffffffffff168873ffffffffffffffffffffffffffffffffffffffff1603611c7c576040517f08c379a0000000000000000000000000000000000000000000000000000000008152600401611c739061388b565b60405180910390fd5b600080600060015481526020019081526020016000209050600154816000018190555086816001019081611cb09190613013565b50858160020181905550888160030160006101000a81548173ffffffffffffffffffffffffffffffffffffffff021916908373ffffffffffffffffffffffffffffffffffffffff16021790555087816004018190555060008160050160006101000a81548160ff02191690836002811115611d2e57611d2d6126fb565b5b0217905550428160060181905550600260009054906101000a900473ffffffffffffffffffffffffffffffffffffffff1673ffffffffffffffffffffffffffffffffffffffff1663f1d8ef4d896001546040518363ffffffff1660e01b8152600401611d9b929190613555565b600060405180830381600087803b158015611db557600080fd5b505af1158015611dc9573d6000803e3d6000fd5b5050505060016000815480929190611de0906132c6565b9190505550505050505050505050565b606082826000600260009054906101000a900473ffffffffffffffffffffffffffffffffffffffff1673ffffffffffffffffffffffffffffffffffffffff16637e4d2d97836040518263ffffffff1660e01b8152600401611e5191906130e5565b602060405180830381865afa158015611e6e573d6000803e3d6000fd5b505050506040513d601f19601f82011682018060405250810190611e929190613115565b90508273ffffffffffffffffffffffffffffffffffffffff168173ffffffffffffffffffffffffffffffffffffffff1614611f02576040517f08c379a0000000000000000000000000000000000000000000000000000000008152600401611ef990612d19565b60405180910390fd5b846000600260009054906101000a900473ffffffffffffffffffffffffffffffffffffffff1673ffffffffffffffffffffffffffffffffffffffff166382862275836040518263ffffffff1660e01b8152600401611f6091906130e5565b602060405180830381865afa158015611f7d573d6000803e3d6000fd5b505050506040513d601f19601f82011682018060405250810190611fa19190613656565b90506000600260009054906101000a900473ffffffffffffffffffffffffffffffffffffffff1673ffffffffffffffffffffffffffffffffffffffff1663354133f7846040518263ffffffff1660e01b815260040161200091906130e5565b602060405180830381865afa15801561201d573d6000803e3d6000fd5b505050506040513d601f19601f8201168201806040525081019061204191906136a8565b9050814210158015612077575060026004811115612062576120616126fb565b5b816004811115612075576120746126fb565b5b145b61208057600080fd5b600061208c8a8a6107e9565b905060008151116120d2576040517f08c379a00000000000000000000000000000000000000000000000000000000081526004016120c9906133cb565b60405180910390fd5b6000600190505b81518110156121d15760005b818110156121bd57828181518110612100576120ff613268565b5b60200260200101516040015183838151811061211f5761211e613268565b5b60200260200101516040015110156121aa57600083838151811061214657612145613268565b5b6020026020010151905083828151811061216357612162613268565b5b602002602001015184848151811061217e5761217d613268565b5b60200260200101819052508084838151811061219d5761219c613268565b5b6020026020010181905250505b80806121b5906132c6565b9150506120e5565b5080806121c9906132c6565b9150506120d9565b50600060058251106121e45760056121e7565b81515b905060008167ffffffffffffffff81111561220557612204612430565b5b60405190808252806020026020018201604052801561223e57816020015b61222b6122ab565b8152602001906001900390816122235790505b50905060005b828110156122985783818151811061225f5761225e613268565b5b602002602001015182828151811061227a57612279613268565b5b60200260200101819052508080612290906132c6565b915050612244565b5080995050505050505050505092915050565b6040518060e00160405280600081526020016060815260200160008152602001600073ffffffffffffffffffffffffffffffffffffffff1681526020016000815260200160006002811115612303576123026126fb565b5b8152602001600081525090565b50805461231c90612e40565b6000825580601f1061232e575061234d565b601f01602090049060005260206000209081019061234c9190612350565b5b50565b5b80821115612369576000816000905550600101612351565b5090565b6000604051905090565b600080fd5b600080fd5b600073ffffffffffffffffffffffffffffffffffffffff82169050919050565b60006123ac82612381565b9050919050565b6123bc816123a1565b81146123c757600080fd5b50565b6000813590506123d9816123b3565b92915050565b6000819050919050565b6123f2816123df565b81146123fd57600080fd5b50565b60008135905061240f816123e9565b92915050565b600080fd5b600080fd5b6000601f19601f8301169050919050565b7f4e487b7100000000000000000000000000000000000000000000000000000000600052604160045260246000fd5b6124688261241f565b810181811067ffffffffffffffff8211171561248757612486612430565b5b80604052505050565b600061249a61236d565b90506124a6828261245f565b919050565b600067ffffffffffffffff8211156124c6576124c5612430565b5b6124cf8261241f565b9050602081019050919050565b82818337600083830152505050565b60006124fe6124f9846124ab565b612490565b90508281526020810184848401111561251a5761251961241a565b5b6125258482856124dc565b509392505050565b600082601f83011261254257612541612415565b5b81356125528482602086016124eb565b91505092915050565b6000806000806080858703121561257557612574612377565b5b6000612583878288016123ca565b945050602061259487828801612400565b935050604085013567ffffffffffffffff8111156125b5576125b461237c565b5b6125c18782880161252d565b92505060606125d287828801612400565b91505092959194509250565b6000806000606084860312156125f7576125f6612377565b5b6000612605868287016123ca565b935050602061261686828701612400565b925050604061262786828701612400565b9150509250925092565b60006020828403121561264757612646612377565b5b600061265584828501612400565b91505092915050565b612667816123df565b82525050565b600081519050919050565b600082825260208201905092915050565b60005b838110156126a757808201518184015260208101905061268c565b60008484015250505050565b60006126be8261266d565b6126c88185612678565b93506126d8818560208601612689565b6126e18161241f565b840191505092915050565b6126f5816123a1565b82525050565b7f4e487b7100000000000000000000000000000000000000000000000000000000600052602160045260246000fd5b6003811061273b5761273a6126fb565b5b50565b600081905061274c8261272a565b919050565b600061275c8261273e565b9050919050565b61276c81612751565b82525050565b600060e082019050612787600083018a61265e565b818103602083015261279981896126b3565b90506127a8604083018861265e565b6127b560608301876126ec565b6127c2608083018661265e565b6127cf60a0830185612763565b6127dc60c083018461265e565b98975050505050505050565b600080604083850312156127ff576127fe612377565b5b600061280d858286016123ca565b925050602061281e85828601612400565b9150509250929050565b600081519050919050565b600082825260208201905092915050565b6000819050602082019050919050565b61285d816123df565b82525050565b600082825260208201905092915050565b600061287f8261266d565b6128898185612863565b9350612899818560208601612689565b6128a28161241f565b840191505092915050565b6128b6816123a1565b82525050565b6128c581612751565b82525050565b600060e0830160008301516128e36000860182612854565b50602083015184820360208601526128fb8282612874565b91505060408301516129106040860182612854565b50606083015161292360608601826128ad565b5060808301516129366080860182612854565b5060a083015161294960a08601826128bc565b5060c083015161295c60c0860182612854565b508091505092915050565b600061297383836128cb565b905092915050565b6000602082019050919050565b600061299382612828565b61299d8185612833565b9350836020820285016129af85612844565b8060005b858110156129eb57848403895281516129cc8582612967565b94506129d78361297b565b925060208a019950506001810190506129b3565b50829750879550505050505092915050565b60006020820190508181036000830152612a178184612988565b905092915050565b60038110612a2c57600080fd5b50565b600081359050612a3e81612a1f565b92915050565b60008060008060808587031215612a5e57612a5d612377565b5b6000612a6c878288016123ca565b9450506020612a7d87828801612400565b9350506040612a8e87828801612400565b9250506060612a9f87828801612a2f565b91505092959194509250565b6000819050919050565b6000612ad0612acb612ac684612381565b612aab565b612381565b9050919050565b6000612ae282612ab5565b9050919050565b6000612af482612ad7565b9050919050565b612b0481612ae9565b82525050565b6000602082019050612b1f6000830184612afb565b92915050565b60008060008060808587031215612b3f57612b3e612377565b5b6000612b4d878288016123ca565b9450506020612b5e878288016123ca565b9350506040612b6f87828801612400565b9250506060612b8087828801612400565b91505092959194509250565b600060e083016000830151612ba46000860182612854565b5060208301518482036020860152612bbc8282612874565b9150506040830151612bd16040860182612854565b506060830151612be460608601826128ad565b506080830151612bf76080860182612854565b5060a0830151612c0a60a08601826128bc565b5060c0830151612c1d60c0860182612854565b508091505092915050565b60006020820190508181036000830152612c428184612b8c565b905092915050565b600060208284031215612c6057612c5f612377565b5b6000612c6e848285016123ca565b91505092915050565b60006040820190508181036000830152612c918185612988565b9050612ca0602083018461265e565b9392505050565b7f796f75277265206e6f7420617574686f72697a656420746f20706572666f726d60008201527f207468697320616374696f6e0000000000000000000000000000000000000000602082015250565b6000612d03602c83612678565b9150612d0e82612ca7565b604082019050919050565b60006020820190508181036000830152612d3281612cf6565b9050919050565b7f6269642077697468206164647265737320646f65736e27742065786973747300600082015250565b6000612d6f601f83612678565b9150612d7a82612d39565b602082019050919050565b60006020820190508181036000830152612d9e81612d62565b9050919050565b7f6269642063616e6e6f7420626520757064617465640000000000000000000000600082015250565b6000612ddb601583612678565b9150612de682612da5565b602082019050919050565b60006020820190508181036000830152612e0a81612dce565b9050919050565b7f4e487b7100000000000000000000000000000000000000000000000000000000600052602260045260246000fd5b60006002820490506001821680612e5857607f821691505b602082108103612e6b57612e6a612e11565b5b50919050565b60008190508160005260206000209050919050565b60006020601f8301049050919050565b600082821b905092915050565b600060088302612ed37fffffffffffffffffffffffffffffffffffffffffffffffffffffffffffffffff82612e96565b612edd8683612e96565b95508019841693508086168417925050509392505050565b6000612f10612f0b612f06846123df565b612aab565b6123df565b9050919050565b6000819050919050565b612f2a83612ef5565b612f3e612f3682612f17565b848454612ea3565b825550505050565b600090565b612f53612f46565b612f5e818484612f21565b505050565b5b81811015612f8257612f77600082612f4b565b600181019050612f64565b5050565b601f821115612fc757612f9881612e71565b612fa184612e86565b81016020851015612fb0578190505b612fc4612fbc85612e86565b830182612f63565b50505b505050565b600082821c905092915050565b6000612fea60001984600802612fcc565b1980831691505092915050565b60006130038383612fd9565b9150826002028217905092915050565b61301c8261266d565b67ffffffffffffffff81111561303557613034612430565b5b61303f8254612e40565b61304a828285612f86565b600060209050601f83116001811461307d576000841561306b578287015190505b6130758582612ff7565b8655506130dd565b601f19841661308b86612e71565b60005b828110156130b35784890151825560018201915060208501945060208101905061308e565b868310156130d057848901516130cc601f891682612fd9565b8355505b6001600288020188555050505b505050505050565b60006020820190506130fa600083018461265e565b92915050565b60008151905061310f816123b3565b92915050565b60006020828403121561312b5761312a612377565b5b600061313984828501613100565b91505092915050565b600067ffffffffffffffff82111561315d5761315c612430565b5b602082029050602081019050919050565b600080fd5b600081519050613182816123e9565b92915050565b600061319b61319684613142565b612490565b905080838252602082019050602084028301858111156131be576131bd61316e565b5b835b818110156131e757806131d38882613173565b8452602084019350506020810190506131c0565b5050509392505050565b600082601f83011261320657613205612415565b5b8151613216848260208601613188565b91505092915050565b60006020828403121561323557613234612377565b5b600082015167ffffffffffffffff8111156132535761325261237c565b5b61325f848285016131f1565b91505092915050565b7f4e487b7100000000000000000000000000000000000000000000000000000000600052603260045260246000fd5b7f4e487b7100000000000000000000000000000000000000000000000000000000600052601160045260246000fd5b60006132d1826123df565b91507fffffffffffffffffffffffffffffffffffffffffffffffffffffffffffffffff820361330357613302613297565b5b600182019050919050565b6005811061331f5761331e6126fb565b5b50565b60008190506133308261330e565b919050565b600061334082613322565b9050919050565b61335081613335565b82525050565b600060408201905061336b600083018561265e565b6133786020830184613347565b9392505050565b7f4e6f206269647320657869737473000000000000000000000000000000000000600082015250565b60006133b5600e83612678565b91506133c08261337f565b602082019050919050565b600060208201905081810360008301526133e4816133a8565b9050919050565b7f4e6f7420617574686f72697a656420746f20766965772062696420646574616960008201527f6c73000000000000000000000000000000000000000000000000000000000000602082015250565b6000613447602283612678565b9150613452826133eb565b604082019050919050565b600060208201905081810360008301526134768161343a565b9050919050565b7f42696420646f6573206e6f742065786973740000000000000000000000000000600082015250565b60006134b3601283612678565b91506134be8261347d565b602082019050919050565b600060208201905081810360008301526134e2816134a6565b9050919050565b7f6269642063616e6e6f742062652064656c657465640000000000000000000000600082015250565b600061351f601583612678565b915061352a826134e9565b602082019050919050565b6000602082019050818103600083015261354e81613512565b9050919050565b600060408201905061356a600083018561265e565b613577602083018461265e565b9392505050565b7f43616c6c6572206973206e6f74206f776e657200000000000000000000000000600082015250565b60006135b4601383612678565b91506135bf8261357e565b602082019050919050565b600060208201905081810360008301526135e3816135a7565b9050919050565b7f4e6f206269647320657869737400000000000000000000000000000000000000600082015250565b6000613620600d83612678565b915061362b826135ea565b602082019050919050565b6000602082019050818103600083015261364f81613613565b9050919050565b60006020828403121561366c5761366b612377565b5b600061367a84828501613173565b91505092915050565b6005811061369057600080fd5b50565b6000815190506136a281613683565b92915050565b6000602082840312156136be576136bd612377565b5b60006136cc84828501613693565b91505092915050565b7f54656e64657220646f6573206e6f742065786973740000000000000000000000600082015250565b600061370b601583612678565b9150613716826136d5565b602082019050919050565b6000602082019050818103600083015261373a816136fe565b9050919050565b7f54656e646572206973206e6f74206f70656e20666f7220626964730000000000600082015250565b6000613777601b83612678565b915061378282613741565b602082019050919050565b600060208201905081810360008301526137a68161376a565b9050919050565b7f42696464696e672068617320656e646564000000000000000000000000000000600082015250565b60006137e3601183612678565b91506137ee826137ad565b602082019050919050565b60006020820190508181036000830152613812816137d6565b9050919050565b7f4f776e65722063616e6e6f7420626964206f6e207468656972206f776e20746560008201527f6e64657200000000000000000000000000000000000000000000000000000000602082015250565b6000613875602483612678565b915061388082613819565b604082019050919050565b600060208201905081810360008301526138a481613868565b905091905056fea26469706673582212209ee32e80e4ed5cb0e7110da2221cc8a432440fa7b061dd787a7f58a72d236f9c64736f6c63430008130033",
  "immutableReferences": {},
  "source": "// SPDX-License-Identifier: UNLICENSED\r\n\r\n//the version of solidity that is compatible\r\npragma solidity ^0.8.0;\r\npragma experimental ABIEncoderV2;\r\n\r\nimport \"./TenderContract.sol\";\r\n\r\ncontract BidContract {\r\n    enum BidStatus{PENDING, REJECTED, APPROVED}\r\n\r\n    // Bidding Struct\r\n    struct Bid {\r\n        uint256 bidId;\r\n        string bidClause;\r\n        uint256 quotedAmount;\r\n        address bidderAddress;\r\n        uint256 tenderId;\r\n        BidStatus bidStatus;\r\n        uint256 createdAt;\r\n    }\r\n\r\n    mapping (uint256 => Bid) public bids;\r\n    uint256 bidCount = 0;\r\n    TenderContract public tenderRef;\r\n\r\n    constructor(TenderContract _tenderRef){\r\n        tenderRef = _tenderRef;\r\n    }\r\n\r\n    modifier isOwner(address owner) {\r\n        require(msg.sender == owner, \"Caller is not owner\");\r\n        _;\r\n    }\r\n\r\n    modifier isTenderOwner(address _partyAddress, uint256 _tenderId) {\r\n        address issuerAddress = tenderRef.getIssuerAddress(_tenderId);\r\n        require(issuerAddress == _partyAddress, \"you're not authorized to perform this action\");\r\n        _;\r\n    }\r\n\r\n    modifier isBidOwner(address _bidderAddress, uint256 _bidId) {\r\n        require(bids[_bidId].bidderAddress == _bidderAddress, \"you're not authorized to perform this action\");\r\n        _;\r\n    }\r\n\r\n    function createBid(address _bidderAddress, uint256 _tenderId, string memory _bidClause, uint256 _quotedAmount) public{\r\n        // Tender storage _tender = tenderRef.tenders(_tenderId);\r\n        uint256 _budget = tenderRef.getBudget(_tenderId);\r\n        TenderStatus _tenderStatus = tenderRef.getTenderStatus(_tenderId);\r\n        uint256 _deadline = tenderRef.getDeadline(_tenderId);\r\n        address _issuerAddress = tenderRef.getIssuerAddress(_tenderId);\r\n        require(_budget > 0, \"Tender does not exist\");\r\n        require(_tenderStatus == TenderStatus.OPEN, \"Tender is not open for bids\");\r\n        require(block.timestamp < _deadline, \"Bidding has ended\");\r\n        require(_bidderAddress != _issuerAddress, \"Owner cannot bid on their own tender\");\r\n\r\n        Bid storage newBid = bids[bidCount];\r\n        newBid.bidId = bidCount;\r\n        newBid.bidClause = _bidClause;\r\n        newBid.quotedAmount = _quotedAmount;\r\n        newBid.bidderAddress = _bidderAddress;\r\n        newBid.tenderId = _tenderId;\r\n        newBid.bidStatus = BidStatus.PENDING;\r\n        newBid.createdAt = block.timestamp;\r\n        tenderRef.addBidId(_tenderId, bidCount);\r\n        bidCount++;\r\n    }\r\n\r\n    modifier canViewBid(address _bidderAddress, address _issuerAddress ,uint256 _tenderId, uint256 _bidId){\r\n        address issuerAddress = tenderRef.getIssuerAddress(_tenderId);\r\n        require(bids[_bidId].bidderAddress == _bidderAddress  && issuerAddress == _issuerAddress && (msg.sender == _issuerAddress || msg.sender == _bidderAddress), \"Not authorized to view bid details\");\r\n        _;\r\n    }\r\n\r\n    // For getting bid details like message, amount, address of bidders \r\n    function getBidDetails(address _bidderAddress, address _issuerAddress ,uint256 _tenderId, uint256 _bidId) public view canViewBid(_bidderAddress, _issuerAddress, _tenderId, _bidId) returns (Bid memory) {\r\n\t    require(bids[_bidId].quotedAmount > 0, \"Bid does not exist\");\r\n    \treturn (bids[_bidId]);\r\n    }\r\n\r\n    function getMyBids(address _bidderAddress) public view isOwner(_bidderAddress) returns(Bid[] memory, uint){\r\n        require(bidCount > 0, \"No bids exist\");\r\n        uint count =0;\r\n        Bid[] memory bidsList = new Bid[](tenderRef.getTenderCount());\r\n        for (uint256 i = 0; i < bidCount; i++) {\r\n            if(bids[i].bidderAddress == _bidderAddress){\r\n                count++;\r\n                bidsList[i] = bids[i];\r\n            }\r\n                \r\n        }\r\n        return(bidsList, count);\r\n    }\r\n\r\n    // For getting all bids of a tender\r\n    function getAllBids(address _partyAddress, uint256 _tenderId) public view isTenderOwner(_partyAddress, _tenderId) returns(Bid[] memory){\r\n        uint256[] memory tenderBidIds = tenderRef.getBidIds(_tenderId);\r\n        require(tenderBidIds.length > 0, \"No bids exists\");\r\n        Bid[] memory bidsList = new Bid[](tenderBidIds.length);\r\n        for (uint256 i = 0; i < tenderBidIds.length; i++) {\r\n            bidsList[i] = bids[tenderBidIds[i]];\r\n        }\r\n        return(bidsList);\r\n    }\r\n\r\n    function updateBidStatus(address _partyAddress, uint256 _tenderId, uint256 _bidAddress ,BidStatus _bidStatus) public isTenderOwner(_partyAddress, _tenderId) {\r\n        Bid storage updatedBid = bids[_bidAddress];\r\n        updatedBid.bidStatus = _bidStatus;\r\n    }\r\n\r\n    function updateBid(address _bidderAddress, uint256 _bidId, string memory _bidClause, uint256 _quotedAmount) public isBidOwner(_bidderAddress, _bidId) {\r\n        require(bids[_bidId].quotedAmount > 0 , \"bid with address doesn't exists\");\r\n        require(bids[_bidId].bidStatus != BidStatus.PENDING , \"bid cannot be updated\");\r\n        Bid storage updatedBid = bids[_bidId];\r\n        updatedBid.bidClause = _bidClause;\r\n        updatedBid.quotedAmount = _quotedAmount;\r\n    }\r\n\r\n    function deleteBid(address _bidderAddress, uint256 _tenderId ,uint256 _bidId) public isBidOwner(_bidderAddress, _bidId){ \r\n        uint256[] memory tenderBidIds = tenderRef.getBidIds(_tenderId);\r\n        require(tenderBidIds.length > 0, \"No bids exists\");\r\n        require(bids[_bidId].quotedAmount > 0 , \"bid with address doesn't exists\");\r\n        require(bids[_bidId].bidStatus != BidStatus.PENDING , \"bid cannot be deleted\");\r\n        delete bids[_bidId];\r\n        tenderRef.deleteBidId(_tenderId, _bidId);             \r\n    }\r\n\r\n    modifier isValidTender(uint256 tenderId) {\r\n        uint256 _deadline = tenderRef.getDeadline(tenderId);\r\n        TenderStatus _tenderStatus = tenderRef.getTenderStatus(tenderId);\r\n        require(block.timestamp >= _deadline && _tenderStatus == TenderStatus.CLOSED);\r\n        _;\r\n    }\r\n\r\n    function selectTopBids(address _partyAddress, uint256 _tenderId ) public view isTenderOwner(_partyAddress, _tenderId) isValidTender(_tenderId) returns (Bid[] memory) {\r\n        //invoke this function once deadline is crossed and can be invoked by project issue party, make sure this project is not assigned to anyone------modifier\r\n        // get all the bids for pt\r\n        Bid[] memory bidList = getAllBids(_partyAddress, _tenderId);\r\n        require(bidList.length > 0, \"No bids exists\");\r\n        // sort bids by price\r\n        for (uint i = 1; i < bidList.length; i++){\r\n            for (uint j = 0; j < i; j++){\r\n                if (bidList[i].quotedAmount < bidList[j].quotedAmount) {\r\n                    Bid memory tempBid = bidList[i];\r\n                    bidList[i] = bidList[j];\r\n                    bidList[j] = tempBid;\r\n                }\r\n            }\r\n        }\r\n        uint256 shortListedBidsCount = (bidList.length < 5) ? bidList.length : 5; \r\n        Bid[] memory shortListedBids = new Bid[](shortListedBidsCount);\r\n        for (uint i = 0; i < shortListedBidsCount; i++){\r\n            shortListedBids[i] = bidList[i];\r\n        }\r\n\r\n        return shortListedBids;\r\n        //returns a list of top 5 bidders and history of bidders\r\n\r\n        // - in case of a tie, the bidder with the largest \"trust\" is given the project. ( Trust in this context is measured in terms of the number of previous projects done and the token assets a party has.)\r\n        // update the status of each bid to APPROVED / REJECTED from PENDING.\r\n    }\r\n\r\n    function finaliseWinnerBid(address _partyAddress, uint256 _tenderId, uint256 _bidId) public isTenderOwner(_partyAddress, _tenderId){\r\n        uint256[] memory tenderBidIds = tenderRef.getBidIds(_tenderId);\r\n        for(uint256 i=0;i< tenderBidIds.length ;i++){\r\n            if(tenderBidIds[i] == _bidId)\r\n                updateBidStatus(_partyAddress, _tenderId, tenderBidIds[i], BidStatus.APPROVED);\r\n            else \r\n                updateBidStatus(_partyAddress, _tenderId, tenderBidIds[i], BidStatus.REJECTED);\r\n        }\r\n        tenderRef.updateTenderStatus(_tenderId, TenderStatus.ASSIGNED);\r\n    }\r\n\r\n}",
  "sourcePath": "C:\\Users\\sabba\\OneDrive\\Documents\\BlockchainProject\\blockchain-based-contracting-system\\contracts\\BidContract.sol",
  "compiler": {
    "name": "solc",
    "version": "0.8.19+commit.7dd6d404.Emscripten.clang"
  },
  "schemaVersion": "3.4.13",
  "updatedAt": "2023-04-14T14:55:37.780Z",
  "networkType": "ethereum",
  "devdoc": {
    "kind": "dev",
    "methods": {},
    "version": 1
  },
  "userdoc": {
    "kind": "user",
    "methods": {},
    "version": 1
  }
}