{
  "contractName": "BidContract",
  "abi": [
    {
      "inputs": [
        {
          "internalType": "contract TenderContract",
          "name": "_tenderRef",
          "type": "address"
        }
      ],
      "stateMutability": "nonpayable",
      "type": "constructor"
    },
    {
      "inputs": [
        {
          "internalType": "uint256",
          "name": "",
          "type": "uint256"
        }
      ],
      "name": "bids",
      "outputs": [
        {
          "internalType": "uint256",
          "name": "bidId",
          "type": "uint256"
        },
        {
          "internalType": "string",
          "name": "bidClause",
          "type": "string"
        },
        {
          "internalType": "uint256",
          "name": "quotedAmount",
          "type": "uint256"
        },
        {
          "internalType": "address",
          "name": "bidderAddress",
          "type": "address"
        },
        {
          "internalType": "uint256",
          "name": "tenderId",
          "type": "uint256"
        },
        {
          "internalType": "enum BidContract.BidStatus",
          "name": "bidStatus",
          "type": "uint8"
        },
        {
          "internalType": "uint256",
          "name": "createdAt",
          "type": "uint256"
        }
      ],
      "stateMutability": "view",
      "type": "function"
    },
    {
      "inputs": [],
      "name": "tenderRef",
      "outputs": [
        {
          "internalType": "contract TenderContract",
          "name": "",
          "type": "address"
        }
      ],
      "stateMutability": "view",
      "type": "function"
    },
    {
      "inputs": [
        {
          "internalType": "uint256",
          "name": "_bidId",
          "type": "uint256"
        }
      ],
      "name": "getBidderAddress",
      "outputs": [
        {
          "internalType": "address",
          "name": "",
          "type": "address"
        }
      ],
      "stateMutability": "view",
      "type": "function"
    },
    {
      "inputs": [
        {
          "internalType": "address",
          "name": "_bidderAddress",
          "type": "address"
        },
        {
          "internalType": "uint256",
          "name": "_tenderId",
          "type": "uint256"
        },
        {
          "internalType": "string",
          "name": "_bidClause",
          "type": "string"
        },
        {
          "internalType": "uint256",
          "name": "_quotedAmount",
          "type": "uint256"
        }
      ],
      "name": "createBid",
      "outputs": [],
      "stateMutability": "nonpayable",
      "type": "function"
    },
    {
      "inputs": [
        {
          "internalType": "address",
          "name": "_bidderAddress",
          "type": "address"
        },
        {
          "internalType": "address",
          "name": "_issuerAddress",
          "type": "address"
        },
        {
          "internalType": "uint256",
          "name": "_tenderId",
          "type": "uint256"
        },
        {
          "internalType": "uint256",
          "name": "_bidId",
          "type": "uint256"
        }
      ],
      "name": "getBidDetails",
      "outputs": [
        {
          "components": [
            {
              "internalType": "uint256",
              "name": "bidId",
              "type": "uint256"
            },
            {
              "internalType": "string",
              "name": "bidClause",
              "type": "string"
            },
            {
              "internalType": "uint256",
              "name": "quotedAmount",
              "type": "uint256"
            },
            {
              "internalType": "address",
              "name": "bidderAddress",
              "type": "address"
            },
            {
              "internalType": "uint256",
              "name": "tenderId",
              "type": "uint256"
            },
            {
              "internalType": "enum BidContract.BidStatus",
              "name": "bidStatus",
              "type": "uint8"
            },
            {
              "internalType": "uint256",
              "name": "createdAt",
              "type": "uint256"
            }
          ],
          "internalType": "struct BidContract.Bid",
          "name": "",
          "type": "tuple"
        }
      ],
      "stateMutability": "view",
      "type": "function"
    },
    {
      "inputs": [
        {
          "internalType": "address",
          "name": "_bidderAddress",
          "type": "address"
        }
      ],
      "name": "getMyBids",
      "outputs": [
        {
          "components": [
            {
              "internalType": "uint256",
              "name": "bidId",
              "type": "uint256"
            },
            {
              "internalType": "string",
              "name": "bidClause",
              "type": "string"
            },
            {
              "internalType": "uint256",
              "name": "quotedAmount",
              "type": "uint256"
            },
            {
              "internalType": "address",
              "name": "bidderAddress",
              "type": "address"
            },
            {
              "internalType": "uint256",
              "name": "tenderId",
              "type": "uint256"
            },
            {
              "internalType": "enum BidContract.BidStatus",
              "name": "bidStatus",
              "type": "uint8"
            },
            {
              "internalType": "uint256",
              "name": "createdAt",
              "type": "uint256"
            }
          ],
          "internalType": "struct BidContract.Bid[]",
          "name": "",
          "type": "tuple[]"
        },
        {
          "internalType": "uint256",
          "name": "",
          "type": "uint256"
        }
      ],
      "stateMutability": "view",
      "type": "function"
    },
    {
      "inputs": [
        {
          "internalType": "address",
          "name": "_partyAddress",
          "type": "address"
        },
        {
          "internalType": "uint256",
          "name": "_tenderId",
          "type": "uint256"
        }
      ],
      "name": "getAllBids",
      "outputs": [
        {
          "components": [
            {
              "internalType": "uint256",
              "name": "bidId",
              "type": "uint256"
            },
            {
              "internalType": "string",
              "name": "bidClause",
              "type": "string"
            },
            {
              "internalType": "uint256",
              "name": "quotedAmount",
              "type": "uint256"
            },
            {
              "internalType": "address",
              "name": "bidderAddress",
              "type": "address"
            },
            {
              "internalType": "uint256",
              "name": "tenderId",
              "type": "uint256"
            },
            {
              "internalType": "enum BidContract.BidStatus",
              "name": "bidStatus",
              "type": "uint8"
            },
            {
              "internalType": "uint256",
              "name": "createdAt",
              "type": "uint256"
            }
          ],
          "internalType": "struct BidContract.Bid[]",
          "name": "",
          "type": "tuple[]"
        }
      ],
      "stateMutability": "view",
      "type": "function"
    },
    {
      "inputs": [
        {
          "internalType": "address",
          "name": "_partyAddress",
          "type": "address"
        },
        {
          "internalType": "uint256",
          "name": "_tenderId",
          "type": "uint256"
        },
        {
          "internalType": "uint256",
          "name": "_bidAddress",
          "type": "uint256"
        },
        {
          "internalType": "enum BidContract.BidStatus",
          "name": "_bidStatus",
          "type": "uint8"
        }
      ],
      "name": "updateBidStatus",
      "outputs": [],
      "stateMutability": "nonpayable",
      "type": "function"
    },
    {
      "inputs": [
        {
          "internalType": "address",
          "name": "_bidderAddress",
          "type": "address"
        },
        {
          "internalType": "uint256",
          "name": "_bidId",
          "type": "uint256"
        },
        {
          "internalType": "string",
          "name": "_bidClause",
          "type": "string"
        },
        {
          "internalType": "uint256",
          "name": "_quotedAmount",
          "type": "uint256"
        }
      ],
      "name": "updateBid",
      "outputs": [],
      "stateMutability": "nonpayable",
      "type": "function"
    },
    {
      "inputs": [
        {
          "internalType": "address",
          "name": "_bidderAddress",
          "type": "address"
        },
        {
          "internalType": "uint256",
          "name": "_tenderId",
          "type": "uint256"
        },
        {
          "internalType": "uint256",
          "name": "_bidId",
          "type": "uint256"
        }
      ],
      "name": "deleteBid",
      "outputs": [],
      "stateMutability": "nonpayable",
      "type": "function"
    },
    {
      "inputs": [
        {
          "internalType": "address",
          "name": "_partyAddress",
          "type": "address"
        },
        {
          "internalType": "uint256",
          "name": "_tenderId",
          "type": "uint256"
        }
      ],
      "name": "selectTopBids",
      "outputs": [
        {
          "components": [
            {
              "internalType": "uint256",
              "name": "bidId",
              "type": "uint256"
            },
            {
              "internalType": "string",
              "name": "bidClause",
              "type": "string"
            },
            {
              "internalType": "uint256",
              "name": "quotedAmount",
              "type": "uint256"
            },
            {
              "internalType": "address",
              "name": "bidderAddress",
              "type": "address"
            },
            {
              "internalType": "uint256",
              "name": "tenderId",
              "type": "uint256"
            },
            {
              "internalType": "enum BidContract.BidStatus",
              "name": "bidStatus",
              "type": "uint8"
            },
            {
              "internalType": "uint256",
              "name": "createdAt",
              "type": "uint256"
            }
          ],
          "internalType": "struct BidContract.Bid[]",
          "name": "",
          "type": "tuple[]"
        }
      ],
      "stateMutability": "view",
      "type": "function"
    },
    {
      "inputs": [
        {
          "internalType": "address",
          "name": "_partyAddress",
          "type": "address"
        },
        {
          "internalType": "uint256",
          "name": "_tenderId",
          "type": "uint256"
        },
        {
          "internalType": "uint256",
          "name": "_bidId",
          "type": "uint256"
        }
      ],
      "name": "finaliseWinnerBid",
      "outputs": [],
      "stateMutability": "nonpayable",
      "type": "function"
    }
  ],
  "bytecode": "0x608060405260006001553480156200001657600080fd5b5060405162003aba38038062003aba83398181016040528101906200003c919062000102565b80600260006101000a81548173ffffffffffffffffffffffffffffffffffffffff021916908373ffffffffffffffffffffffffffffffffffffffff1602179055505062000134565b600080fd5b600073ffffffffffffffffffffffffffffffffffffffff82169050919050565b6000620000b68262000089565b9050919050565b6000620000ca82620000a9565b9050919050565b620000dc81620000bd565b8114620000e857600080fd5b50565b600081519050620000fc81620000d1565b92915050565b6000602082840312156200011b576200011a62000084565b5b60006200012b84828501620000eb565b91505092915050565b61397680620001446000396000f3fe608060405234801561001057600080fd5b50600436106100b45760003560e01c80638d5b8612116100715780638d5b8612146101a3578063b344556c146101c1578063bb693c4d146101f1578063ebc25fa61461020d578063f91b6ae51461023e578063fd140a951461025a576100b4565b8063167548c5146100b957806326b26e56146100d55780634423c5f1146100f15780635fa382801461012757806361281516146101575780636dc4d10c14610187575b600080fd5b6100d360048036038101906100ce91906125d5565b61028a565b005b6100ef60048036038101906100ea9190612658565b61044a565b005b61010b600480360381019061010691906126ab565b61072d565b60405161011e97969594939291906127ec565b60405180910390f35b610141600480360381019061013c91906126ab565b610824565b60405161014e9190612862565b60405180910390f35b610171600480360381019061016c919061287d565b610863565b60405161017e9190612a92565b60405180910390f35b6101a1600480360381019061019c9190612ad9565b610c85565b005b6101ab610de1565b6040516101b89190612b9f565b60405180910390f35b6101db60048036038101906101d69190612bba565b610e07565b6040516101e89190612cbd565b60405180910390f35b61020b60048036038101906102069190612658565b6111c9565b005b61022760048036038101906102229190612cdf565b61154f565b604051610235929190612d0c565b60405180910390f35b610258600480360381019061025391906125d5565b61191c565b005b610274600480360381019061026f919061287d565b611e6a565b6040516102819190612a92565b60405180910390f35b83838173ffffffffffffffffffffffffffffffffffffffff1660008083815260200190815260200160002060030160009054906101000a900473ffffffffffffffffffffffffffffffffffffffff1673ffffffffffffffffffffffffffffffffffffffff161461032f576040517f08c379a000000000000000000000000000000000000000000000000000000000815260040161032690612dae565b60405180910390fd5b60008060008781526020019081526020016000206002015411610387576040517f08c379a000000000000000000000000000000000000000000000000000000000815260040161037e90612e1a565b60405180910390fd5b6000600281111561039b5761039a612775565b5b60008087815260200190815260200160002060050160009054906101000a900460ff1660028111156103d0576103cf612775565b5b03610410576040517f08c379a000000000000000000000000000000000000000000000000000000000815260040161040790612e86565b60405180910390fd5b600080600087815260200190815260200160002090508481600101908161043791906130a8565b5083816002018190555050505050505050565b82826000600260009054906101000a900473ffffffffffffffffffffffffffffffffffffffff1673ffffffffffffffffffffffffffffffffffffffff16637e4d2d97836040518263ffffffff1660e01b81526004016104a9919061317a565b602060405180830381865afa1580156104c6573d6000803e3d6000fd5b505050506040513d601f19601f820116820180604052508101906104ea91906131aa565b90508273ffffffffffffffffffffffffffffffffffffffff168173ffffffffffffffffffffffffffffffffffffffff161461055a576040517f08c379a000000000000000000000000000000000000000000000000000000000815260040161055190612dae565b60405180910390fd5b6000600260009054906101000a900473ffffffffffffffffffffffffffffffffffffffff1673ffffffffffffffffffffffffffffffffffffffff166342222a43876040518263ffffffff1660e01b81526004016105b7919061317a565b600060405180830381865afa1580156105d4573d6000803e3d6000fd5b505050506040513d6000823e3d601f19601f820116820180604052508101906105fd91906132b4565b905060005b8151811015610693578582828151811061061f5761061e6132fd565b5b602002602001015103610658576106538888848481518110610644576106436132fd565b5b60200260200101516002610c85565b610680565b61067f88888484815181106106705761066f6132fd565b5b60200260200101516001610c85565b5b808061068b9061335b565b915050610602565b50600260009054906101000a900473ffffffffffffffffffffffffffffffffffffffff1673ffffffffffffffffffffffffffffffffffffffff1663aaaf41888760046040518363ffffffff1660e01b81526004016106f29291906133eb565b600060405180830381600087803b15801561070c57600080fd5b505af1158015610720573d6000803e3d6000fd5b5050505050505050505050565b600060205280600052604060002060009150905080600001549080600101805461075690612ed5565b80601f016020809104026020016040519081016040528092919081815260200182805461078290612ed5565b80156107cf5780601f106107a4576101008083540402835291602001916107cf565b820191906000526020600020905b8154815290600101906020018083116107b257829003601f168201915b5050505050908060020154908060030160009054906101000a900473ffffffffffffffffffffffffffffffffffffffff16908060040154908060050160009054906101000a900460ff16908060060154905087565b600080600083815260200190815260200160002060030160009054906101000a900473ffffffffffffffffffffffffffffffffffffffff169050919050565b606082826000600260009054906101000a900473ffffffffffffffffffffffffffffffffffffffff1673ffffffffffffffffffffffffffffffffffffffff16637e4d2d97836040518263ffffffff1660e01b81526004016108c4919061317a565b602060405180830381865afa1580156108e1573d6000803e3d6000fd5b505050506040513d601f19601f8201168201806040525081019061090591906131aa565b90508273ffffffffffffffffffffffffffffffffffffffff168173ffffffffffffffffffffffffffffffffffffffff1614610975576040517f08c379a000000000000000000000000000000000000000000000000000000000815260040161096c90612dae565b60405180910390fd5b6000600260009054906101000a900473ffffffffffffffffffffffffffffffffffffffff1673ffffffffffffffffffffffffffffffffffffffff166342222a43876040518263ffffffff1660e01b81526004016109d2919061317a565b600060405180830381865afa1580156109ef573d6000803e3d6000fd5b505050506040513d6000823e3d601f19601f82011682018060405250810190610a1891906132b4565b90506000815111610a5e576040517f08c379a0000000000000000000000000000000000000000000000000000000008152600401610a5590613460565b60405180910390fd5b6000815167ffffffffffffffff811115610a7b57610a7a6124aa565b5b604051908082528060200260200182016040528015610ab457816020015b610aa1612325565b815260200190600190039081610a995790505b50905060005b8251811015610c7657600080848381518110610ad957610ad86132fd565b5b602002602001015181526020019081526020016000206040518060e001604052908160008201548152602001600182018054610b1490612ed5565b80601f0160208091040260200160405190810160405280929190818152602001828054610b4090612ed5565b8015610b8d5780601f10610b6257610100808354040283529160200191610b8d565b820191906000526020600020905b815481529060010190602001808311610b7057829003601f168201915b50505050508152602001600282015481526020016003820160009054906101000a900473ffffffffffffffffffffffffffffffffffffffff1673ffffffffffffffffffffffffffffffffffffffff1673ffffffffffffffffffffffffffffffffffffffff168152602001600482015481526020016005820160009054906101000a900460ff166002811115610c2557610c24612775565b5b6002811115610c3757610c36612775565b5b8152602001600682015481525050828281518110610c5857610c576132fd565b5b60200260200101819052508080610c6e9061335b565b915050610aba565b50809550505050505092915050565b83836000600260009054906101000a900473ffffffffffffffffffffffffffffffffffffffff1673ffffffffffffffffffffffffffffffffffffffff16637e4d2d97836040518263ffffffff1660e01b8152600401610ce4919061317a565b602060405180830381865afa158015610d01573d6000803e3d6000fd5b505050506040513d601f19601f82011682018060405250810190610d2591906131aa565b90508273ffffffffffffffffffffffffffffffffffffffff168173ffffffffffffffffffffffffffffffffffffffff1614610d95576040517f08c379a0000000000000000000000000000000000000000000000000000000008152600401610d8c90612dae565b60405180910390fd5b60008060008781526020019081526020016000209050848160050160006101000a81548160ff02191690836002811115610dd257610dd1612775565b5b02179055505050505050505050565b600260009054906101000a900473ffffffffffffffffffffffffffffffffffffffff1681565b610e0f612325565b848484846000600260009054906101000a900473ffffffffffffffffffffffffffffffffffffffff1673ffffffffffffffffffffffffffffffffffffffff16637e4d2d97846040518263ffffffff1660e01b8152600401610e70919061317a565b602060405180830381865afa158015610e8d573d6000803e3d6000fd5b505050506040513d601f19601f82011682018060405250810190610eb191906131aa565b90508473ffffffffffffffffffffffffffffffffffffffff1660008084815260200190815260200160002060030160009054906101000a900473ffffffffffffffffffffffffffffffffffffffff1673ffffffffffffffffffffffffffffffffffffffff16148015610f4e57508373ffffffffffffffffffffffffffffffffffffffff168173ffffffffffffffffffffffffffffffffffffffff16145b8015610fbb57508373ffffffffffffffffffffffffffffffffffffffff163373ffffffffffffffffffffffffffffffffffffffff161480610fba57508473ffffffffffffffffffffffffffffffffffffffff163373ffffffffffffffffffffffffffffffffffffffff16145b5b610ffa576040517f08c379a0000000000000000000000000000000000000000000000000000000008152600401610ff1906134f2565b60405180910390fd5b60008060008981526020019081526020016000206002015411611052576040517f08c379a00000000000000000000000000000000000000000000000000000000081526004016110499061355e565b60405180910390fd5b6000808881526020019081526020016000206040518060e00160405290816000820154815260200160018201805461108990612ed5565b80601f01602080910402602001604051908101604052809291908181526020018280546110b590612ed5565b80156111025780601f106110d757610100808354040283529160200191611102565b820191906000526020600020905b8154815290600101906020018083116110e557829003601f168201915b50505050508152602001600282015481526020016003820160009054906101000a900473ffffffffffffffffffffffffffffffffffffffff1673ffffffffffffffffffffffffffffffffffffffff1673ffffffffffffffffffffffffffffffffffffffff168152602001600482015481526020016005820160009054906101000a900460ff16600281111561119a57611199612775565b5b60028111156111ac576111ab612775565b5b815260200160068201548152505095505050505050949350505050565b82818173ffffffffffffffffffffffffffffffffffffffff1660008083815260200190815260200160002060030160009054906101000a900473ffffffffffffffffffffffffffffffffffffffff1673ffffffffffffffffffffffffffffffffffffffff161461126e576040517f08c379a000000000000000000000000000000000000000000000000000000000815260040161126590612dae565b60405180910390fd5b6000600260009054906101000a900473ffffffffffffffffffffffffffffffffffffffff1673ffffffffffffffffffffffffffffffffffffffff166342222a43866040518263ffffffff1660e01b81526004016112cb919061317a565b600060405180830381865afa1580156112e8573d6000803e3d6000fd5b505050506040513d6000823e3d601f19601f8201168201806040525081019061131191906132b4565b90506000815111611357576040517f08c379a000000000000000000000000000000000000000000000000000000000815260040161134e90613460565b60405180910390fd5b600080600086815260200190815260200160002060020154116113af576040517f08c379a00000000000000000000000000000000000000000000000000000000081526004016113a690612e1a565b60405180910390fd5b600060028111156113c3576113c2612775565b5b60008086815260200190815260200160002060050160009054906101000a900460ff1660028111156113f8576113f7612775565b5b14611438576040517f08c379a000000000000000000000000000000000000000000000000000000000815260040161142f906135ca565b60405180910390fd5b600080858152602001908152602001600020600080820160009055600182016000611463919061238a565b60028201600090556003820160006101000a81549073ffffffffffffffffffffffffffffffffffffffff021916905560048201600090556005820160006101000a81549060ff021916905560068201600090555050600260009054906101000a900473ffffffffffffffffffffffffffffffffffffffff1673ffffffffffffffffffffffffffffffffffffffff1663791778c186866040518363ffffffff1660e01b81526004016115159291906135ea565b600060405180830381600087803b15801561152f57600080fd5b505af1158015611543573d6000803e3d6000fd5b50505050505050505050565b60606000828073ffffffffffffffffffffffffffffffffffffffff163373ffffffffffffffffffffffffffffffffffffffff16146115c2576040517f08c379a00000000000000000000000000000000000000000000000000000000081526004016115b99061365f565b60405180910390fd5b600060015411611607576040517f08c379a00000000000000000000000000000000000000000000000000000000081526004016115fe906136cb565b60405180910390fd5b600080600260009054906101000a900473ffffffffffffffffffffffffffffffffffffffff1673ffffffffffffffffffffffffffffffffffffffff16635850b3836040518163ffffffff1660e01b8152600401602060405180830381865afa158015611677573d6000803e3d6000fd5b505050506040513d601f19601f8201168201806040525081019061169b91906136eb565b67ffffffffffffffff8111156116b4576116b36124aa565b5b6040519080825280602002602001820160405280156116ed57816020015b6116da612325565b8152602001906001900390816116d25790505b50905060005b60015481101561190d578673ffffffffffffffffffffffffffffffffffffffff1660008083815260200190815260200160002060030160009054906101000a900473ffffffffffffffffffffffffffffffffffffffff1673ffffffffffffffffffffffffffffffffffffffff16036118fa5782806117709061335b565b9350506000808281526020019081526020016000206040518060e0016040529081600082015481526020016001820180546117aa90612ed5565b80601f01602080910402602001604051908101604052809291908181526020018280546117d690612ed5565b80156118235780601f106117f857610100808354040283529160200191611823565b820191906000526020600020905b81548152906001019060200180831161180657829003601f168201915b50505050508152602001600282015481526020016003820160009054906101000a900473ffffffffffffffffffffffffffffffffffffffff1673ffffffffffffffffffffffffffffffffffffffff1673ffffffffffffffffffffffffffffffffffffffff168152602001600482015481526020016005820160009054906101000a900460ff1660028111156118bb576118ba612775565b5b60028111156118cd576118cc612775565b5b81526020016006820154815250508282815181106118ee576118ed6132fd565b5b60200260200101819052505b80806119059061335b565b9150506116f3565b50808294509450505050915091565b6000600260009054906101000a900473ffffffffffffffffffffffffffffffffffffffff1673ffffffffffffffffffffffffffffffffffffffff16632e4ea4c4856040518263ffffffff1660e01b8152600401611979919061317a565b602060405180830381865afa158015611996573d6000803e3d6000fd5b505050506040513d601f19601f820116820180604052508101906119ba91906136eb565b90506000600260009054906101000a900473ffffffffffffffffffffffffffffffffffffffff1673ffffffffffffffffffffffffffffffffffffffff1663354133f7866040518263ffffffff1660e01b8152600401611a19919061317a565b602060405180830381865afa158015611a36573d6000803e3d6000fd5b505050506040513d601f19601f82011682018060405250810190611a5a919061373d565b90506000600260009054906101000a900473ffffffffffffffffffffffffffffffffffffffff1673ffffffffffffffffffffffffffffffffffffffff166382862275876040518263ffffffff1660e01b8152600401611ab9919061317a565b602060405180830381865afa158015611ad6573d6000803e3d6000fd5b505050506040513d601f19601f82011682018060405250810190611afa91906136eb565b90506000600260009054906101000a900473ffffffffffffffffffffffffffffffffffffffff1673ffffffffffffffffffffffffffffffffffffffff16637e4d2d97886040518263ffffffff1660e01b8152600401611b59919061317a565b602060405180830381865afa158015611b76573d6000803e3d6000fd5b505050506040513d601f19601f82011682018060405250810190611b9a91906131aa565b905060008411611bdf576040517f08c379a0000000000000000000000000000000000000000000000000000000008152600401611bd6906137b6565b60405180910390fd5b60016004811115611bf357611bf2612775565b5b836004811115611c0657611c05612775565b5b14611c46576040517f08c379a0000000000000000000000000000000000000000000000000000000008152600401611c3d90613822565b60405180910390fd5b814210611c88576040517f08c379a0000000000000000000000000000000000000000000000000000000008152600401611c7f9061388e565b60405180910390fd5b8073ffffffffffffffffffffffffffffffffffffffff168873ffffffffffffffffffffffffffffffffffffffff1603611cf6576040517f08c379a0000000000000000000000000000000000000000000000000000000008152600401611ced90613920565b60405180910390fd5b600080600060015481526020019081526020016000209050600154816000018190555086816001019081611d2a91906130a8565b50858160020181905550888160030160006101000a81548173ffffffffffffffffffffffffffffffffffffffff021916908373ffffffffffffffffffffffffffffffffffffffff16021790555087816004018190555060008160050160006101000a81548160ff02191690836002811115611da857611da7612775565b5b0217905550428160060181905550600260009054906101000a900473ffffffffffffffffffffffffffffffffffffffff1673ffffffffffffffffffffffffffffffffffffffff1663f1d8ef4d896001546040518363ffffffff1660e01b8152600401611e159291906135ea565b600060405180830381600087803b158015611e2f57600080fd5b505af1158015611e43573d6000803e3d6000fd5b5050505060016000815480929190611e5a9061335b565b9190505550505050505050505050565b606082826000600260009054906101000a900473ffffffffffffffffffffffffffffffffffffffff1673ffffffffffffffffffffffffffffffffffffffff16637e4d2d97836040518263ffffffff1660e01b8152600401611ecb919061317a565b602060405180830381865afa158015611ee8573d6000803e3d6000fd5b505050506040513d601f19601f82011682018060405250810190611f0c91906131aa565b90508273ffffffffffffffffffffffffffffffffffffffff168173ffffffffffffffffffffffffffffffffffffffff1614611f7c576040517f08c379a0000000000000000000000000000000000000000000000000000000008152600401611f7390612dae565b60405180910390fd5b846000600260009054906101000a900473ffffffffffffffffffffffffffffffffffffffff1673ffffffffffffffffffffffffffffffffffffffff166382862275836040518263ffffffff1660e01b8152600401611fda919061317a565b602060405180830381865afa158015611ff7573d6000803e3d6000fd5b505050506040513d601f19601f8201168201806040525081019061201b91906136eb565b90506000600260009054906101000a900473ffffffffffffffffffffffffffffffffffffffff1673ffffffffffffffffffffffffffffffffffffffff1663354133f7846040518263ffffffff1660e01b815260040161207a919061317a565b602060405180830381865afa158015612097573d6000803e3d6000fd5b505050506040513d601f19601f820116820180604052508101906120bb919061373d565b90508142101580156120f15750600260048111156120dc576120db612775565b5b8160048111156120ef576120ee612775565b5b145b6120fa57600080fd5b60006121068a8a610863565b9050600081511161214c576040517f08c379a000000000000000000000000000000000000000000000000000000000815260040161214390613460565b60405180910390fd5b6000600190505b815181101561224b5760005b818110156122375782818151811061217a576121796132fd565b5b602002602001015160400151838381518110612199576121986132fd565b5b60200260200101516040015110156122245760008383815181106121c0576121bf6132fd565b5b602002602001015190508382815181106121dd576121dc6132fd565b5b60200260200101518484815181106121f8576121f76132fd565b5b602002602001018190525080848381518110612217576122166132fd565b5b6020026020010181905250505b808061222f9061335b565b91505061215f565b5080806122439061335b565b915050612153565b506000600582511061225e576005612261565b81515b905060008167ffffffffffffffff81111561227f5761227e6124aa565b5b6040519080825280602002602001820160405280156122b857816020015b6122a5612325565b81526020019060019003908161229d5790505b50905060005b82811015612312578381815181106122d9576122d86132fd565b5b60200260200101518282815181106122f4576122f36132fd565b5b6020026020010181905250808061230a9061335b565b9150506122be565b5080995050505050505050505092915050565b6040518060e00160405280600081526020016060815260200160008152602001600073ffffffffffffffffffffffffffffffffffffffff168152602001600081526020016000600281111561237d5761237c612775565b5b8152602001600081525090565b50805461239690612ed5565b6000825580601f106123a857506123c7565b601f0160209004906000526020600020908101906123c691906123ca565b5b50565b5b808211156123e35760008160009055506001016123cb565b5090565b6000604051905090565b600080fd5b600080fd5b600073ffffffffffffffffffffffffffffffffffffffff82169050919050565b6000612426826123fb565b9050919050565b6124368161241b565b811461244157600080fd5b50565b6000813590506124538161242d565b92915050565b6000819050919050565b61246c81612459565b811461247757600080fd5b50565b60008135905061248981612463565b92915050565b600080fd5b600080fd5b6000601f19601f8301169050919050565b7f4e487b7100000000000000000000000000000000000000000000000000000000600052604160045260246000fd5b6124e282612499565b810181811067ffffffffffffffff82111715612501576125006124aa565b5b80604052505050565b60006125146123e7565b905061252082826124d9565b919050565b600067ffffffffffffffff8211156125405761253f6124aa565b5b61254982612499565b9050602081019050919050565b82818337600083830152505050565b600061257861257384612525565b61250a565b90508281526020810184848401111561259457612593612494565b5b61259f848285612556565b509392505050565b600082601f8301126125bc576125bb61248f565b5b81356125cc848260208601612565565b91505092915050565b600080600080608085870312156125ef576125ee6123f1565b5b60006125fd87828801612444565b945050602061260e8782880161247a565b935050604085013567ffffffffffffffff81111561262f5761262e6123f6565b5b61263b878288016125a7565b925050606061264c8782880161247a565b91505092959194509250565b600080600060608486031215612671576126706123f1565b5b600061267f86828701612444565b93505060206126908682870161247a565b92505060406126a18682870161247a565b9150509250925092565b6000602082840312156126c1576126c06123f1565b5b60006126cf8482850161247a565b91505092915050565b6126e181612459565b82525050565b600081519050919050565b600082825260208201905092915050565b60005b83811015612721578082015181840152602081019050612706565b60008484015250505050565b6000612738826126e7565b61274281856126f2565b9350612752818560208601612703565b61275b81612499565b840191505092915050565b61276f8161241b565b82525050565b7f4e487b7100000000000000000000000000000000000000000000000000000000600052602160045260246000fd5b600381106127b5576127b4612775565b5b50565b60008190506127c6826127a4565b919050565b60006127d6826127b8565b9050919050565b6127e6816127cb565b82525050565b600060e082019050612801600083018a6126d8565b8181036020830152612813818961272d565b905061282260408301886126d8565b61282f6060830187612766565b61283c60808301866126d8565b61284960a08301856127dd565b61285660c08301846126d8565b98975050505050505050565b60006020820190506128776000830184612766565b92915050565b60008060408385031215612894576128936123f1565b5b60006128a285828601612444565b92505060206128b38582860161247a565b9150509250929050565b600081519050919050565b600082825260208201905092915050565b6000819050602082019050919050565b6128f281612459565b82525050565b600082825260208201905092915050565b6000612914826126e7565b61291e81856128f8565b935061292e818560208601612703565b61293781612499565b840191505092915050565b61294b8161241b565b82525050565b61295a816127cb565b82525050565b600060e08301600083015161297860008601826128e9565b50602083015184820360208601526129908282612909565b91505060408301516129a560408601826128e9565b5060608301516129b86060860182612942565b5060808301516129cb60808601826128e9565b5060a08301516129de60a0860182612951565b5060c08301516129f160c08601826128e9565b508091505092915050565b6000612a088383612960565b905092915050565b6000602082019050919050565b6000612a28826128bd565b612a3281856128c8565b935083602082028501612a44856128d9565b8060005b85811015612a805784840389528151612a6185826129fc565b9450612a6c83612a10565b925060208a01995050600181019050612a48565b50829750879550505050505092915050565b60006020820190508181036000830152612aac8184612a1d565b905092915050565b60038110612ac157600080fd5b50565b600081359050612ad381612ab4565b92915050565b60008060008060808587031215612af357612af26123f1565b5b6000612b0187828801612444565b9450506020612b128782880161247a565b9350506040612b238782880161247a565b9250506060612b3487828801612ac4565b91505092959194509250565b6000819050919050565b6000612b65612b60612b5b846123fb565b612b40565b6123fb565b9050919050565b6000612b7782612b4a565b9050919050565b6000612b8982612b6c565b9050919050565b612b9981612b7e565b82525050565b6000602082019050612bb46000830184612b90565b92915050565b60008060008060808587031215612bd457612bd36123f1565b5b6000612be287828801612444565b9450506020612bf387828801612444565b9350506040612c048782880161247a565b9250506060612c158782880161247a565b91505092959194509250565b600060e083016000830151612c3960008601826128e9565b5060208301518482036020860152612c518282612909565b9150506040830151612c6660408601826128e9565b506060830151612c796060860182612942565b506080830151612c8c60808601826128e9565b5060a0830151612c9f60a0860182612951565b5060c0830151612cb260c08601826128e9565b508091505092915050565b60006020820190508181036000830152612cd78184612c21565b905092915050565b600060208284031215612cf557612cf46123f1565b5b6000612d0384828501612444565b91505092915050565b60006040820190508181036000830152612d268185612a1d565b9050612d3560208301846126d8565b9392505050565b7f796f75277265206e6f7420617574686f72697a656420746f20706572666f726d60008201527f207468697320616374696f6e0000000000000000000000000000000000000000602082015250565b6000612d98602c836126f2565b9150612da382612d3c565b604082019050919050565b60006020820190508181036000830152612dc781612d8b565b9050919050565b7f6269642077697468206164647265737320646f65736e27742065786973747300600082015250565b6000612e04601f836126f2565b9150612e0f82612dce565b602082019050919050565b60006020820190508181036000830152612e3381612df7565b9050919050565b7f6269642063616e6e6f7420626520757064617465640000000000000000000000600082015250565b6000612e706015836126f2565b9150612e7b82612e3a565b602082019050919050565b60006020820190508181036000830152612e9f81612e63565b9050919050565b7f4e487b7100000000000000000000000000000000000000000000000000000000600052602260045260246000fd5b60006002820490506001821680612eed57607f821691505b602082108103612f0057612eff612ea6565b5b50919050565b60008190508160005260206000209050919050565b60006020601f8301049050919050565b600082821b905092915050565b600060088302612f687fffffffffffffffffffffffffffffffffffffffffffffffffffffffffffffffff82612f2b565b612f728683612f2b565b95508019841693508086168417925050509392505050565b6000612fa5612fa0612f9b84612459565b612b40565b612459565b9050919050565b6000819050919050565b612fbf83612f8a565b612fd3612fcb82612fac565b848454612f38565b825550505050565b600090565b612fe8612fdb565b612ff3818484612fb6565b505050565b5b818110156130175761300c600082612fe0565b600181019050612ff9565b5050565b601f82111561305c5761302d81612f06565b61303684612f1b565b81016020851015613045578190505b61305961305185612f1b565b830182612ff8565b50505b505050565b600082821c905092915050565b600061307f60001984600802613061565b1980831691505092915050565b6000613098838361306e565b9150826002028217905092915050565b6130b1826126e7565b67ffffffffffffffff8111156130ca576130c96124aa565b5b6130d48254612ed5565b6130df82828561301b565b600060209050601f8311600181146131125760008415613100578287015190505b61310a858261308c565b865550613172565b601f19841661312086612f06565b60005b8281101561314857848901518255600182019150602085019450602081019050613123565b868310156131655784890151613161601f89168261306e565b8355505b6001600288020188555050505b505050505050565b600060208201905061318f60008301846126d8565b92915050565b6000815190506131a48161242d565b92915050565b6000602082840312156131c0576131bf6123f1565b5b60006131ce84828501613195565b91505092915050565b600067ffffffffffffffff8211156131f2576131f16124aa565b5b602082029050602081019050919050565b600080fd5b60008151905061321781612463565b92915050565b600061323061322b846131d7565b61250a565b9050808382526020820190506020840283018581111561325357613252613203565b5b835b8181101561327c57806132688882613208565b845260208401935050602081019050613255565b5050509392505050565b600082601f83011261329b5761329a61248f565b5b81516132ab84826020860161321d565b91505092915050565b6000602082840312156132ca576132c96123f1565b5b600082015167ffffffffffffffff8111156132e8576132e76123f6565b5b6132f484828501613286565b91505092915050565b7f4e487b7100000000000000000000000000000000000000000000000000000000600052603260045260246000fd5b7f4e487b7100000000000000000000000000000000000000000000000000000000600052601160045260246000fd5b600061336682612459565b91507fffffffffffffffffffffffffffffffffffffffffffffffffffffffffffffffff82036133985761339761332c565b5b600182019050919050565b600581106133b4576133b3612775565b5b50565b60008190506133c5826133a3565b919050565b60006133d5826133b7565b9050919050565b6133e5816133ca565b82525050565b600060408201905061340060008301856126d8565b61340d60208301846133dc565b9392505050565b7f4e6f206269647320657869737473000000000000000000000000000000000000600082015250565b600061344a600e836126f2565b915061345582613414565b602082019050919050565b600060208201905081810360008301526134798161343d565b9050919050565b7f4e6f7420617574686f72697a656420746f20766965772062696420646574616960008201527f6c73000000000000000000000000000000000000000000000000000000000000602082015250565b60006134dc6022836126f2565b91506134e782613480565b604082019050919050565b6000602082019050818103600083015261350b816134cf565b9050919050565b7f42696420646f6573206e6f742065786973740000000000000000000000000000600082015250565b60006135486012836126f2565b915061355382613512565b602082019050919050565b600060208201905081810360008301526135778161353b565b9050919050565b7f6269642063616e6e6f742062652064656c657465640000000000000000000000600082015250565b60006135b46015836126f2565b91506135bf8261357e565b602082019050919050565b600060208201905081810360008301526135e3816135a7565b9050919050565b60006040820190506135ff60008301856126d8565b61360c60208301846126d8565b9392505050565b7f43616c6c6572206973206e6f74206f776e657200000000000000000000000000600082015250565b60006136496013836126f2565b915061365482613613565b602082019050919050565b600060208201905081810360008301526136788161363c565b9050919050565b7f4e6f206269647320657869737400000000000000000000000000000000000000600082015250565b60006136b5600d836126f2565b91506136c08261367f565b602082019050919050565b600060208201905081810360008301526136e4816136a8565b9050919050565b600060208284031215613701576137006123f1565b5b600061370f84828501613208565b91505092915050565b6005811061372557600080fd5b50565b60008151905061373781613718565b92915050565b600060208284031215613753576137526123f1565b5b600061376184828501613728565b91505092915050565b7f54656e64657220646f6573206e6f742065786973740000000000000000000000600082015250565b60006137a06015836126f2565b91506137ab8261376a565b602082019050919050565b600060208201905081810360008301526137cf81613793565b9050919050565b7f54656e646572206973206e6f74206f70656e20666f7220626964730000000000600082015250565b600061380c601b836126f2565b9150613817826137d6565b602082019050919050565b6000602082019050818103600083015261383b816137ff565b9050919050565b7f42696464696e672068617320656e646564000000000000000000000000000000600082015250565b60006138786011836126f2565b915061388382613842565b602082019050919050565b600060208201905081810360008301526138a78161386b565b9050919050565b7f4f776e65722063616e6e6f7420626964206f6e207468656972206f776e20746560008201527f6e64657200000000000000000000000000000000000000000000000000000000602082015250565b600061390a6024836126f2565b9150613915826138ae565b604082019050919050565b60006020820190508181036000830152613939816138fd565b905091905056fea264697066735822122095d75fd017b100eb860876e06baad878c347d065addb36e120bb7ce5c001622764736f6c63430008130033",
  "immutableReferences": {},
  "source": "// SPDX-License-Identifier: UNLICENSED\r\n\r\n//the version of solidity that is compatible\r\npragma solidity ^0.8.0;\r\npragma experimental ABIEncoderV2;\r\n\r\nimport \"./TenderContract.sol\";\r\n\r\ncontract BidContract {\r\n    enum BidStatus{PENDING, REJECTED, APPROVED}\r\n\r\n    // Bidding Struct\r\n    struct Bid {\r\n        uint256 bidId;\r\n        string bidClause;\r\n        uint256 quotedAmount;\r\n        address bidderAddress;\r\n        uint256 tenderId;\r\n        BidStatus bidStatus;\r\n        uint256 createdAt;\r\n    }\r\n\r\n    mapping (uint256 => Bid) public bids;\r\n    uint256 bidCount = 0;\r\n    TenderContract public tenderRef;\r\n\r\n    constructor(TenderContract _tenderRef){\r\n        tenderRef = _tenderRef;\r\n    }\r\n\r\n    //setters and getters\r\n    function getBidderAddress(uint256 _bidId) public view returns(address) {\r\n        return bids[_bidId].bidderAddress;\r\n    }\r\n\r\n    modifier isOwner(address owner) {\r\n        require(msg.sender == owner, \"Caller is not owner\");\r\n        _;\r\n    }\r\n\r\n    modifier isTenderOwner(address _partyAddress, uint256 _tenderId) {\r\n        address issuerAddress = tenderRef.getIssuerAddress(_tenderId);\r\n        require(issuerAddress == _partyAddress, \"you're not authorized to perform this action\");\r\n        _;\r\n    }\r\n\r\n    modifier isBidOwner(address _bidderAddress, uint256 _bidId) {\r\n        require(bids[_bidId].bidderAddress == _bidderAddress, \"you're not authorized to perform this action\");\r\n        _;\r\n    }\r\n\r\n    function createBid(address _bidderAddress, uint256 _tenderId, string memory _bidClause, uint256 _quotedAmount) public{\r\n        // Tender storage _tender = tenderRef.tenders(_tenderId);\r\n        uint256 _budget = tenderRef.getBudget(_tenderId);\r\n        TenderStatus _tenderStatus = tenderRef.getTenderStatus(_tenderId);\r\n        uint256 _deadline = tenderRef.getDeadline(_tenderId);\r\n        address _issuerAddress = tenderRef.getIssuerAddress(_tenderId);\r\n        require(_budget > 0, \"Tender does not exist\");\r\n        require(_tenderStatus == TenderStatus.OPEN, \"Tender is not open for bids\");\r\n        require(block.timestamp < _deadline, \"Bidding has ended\");\r\n        require(_bidderAddress != _issuerAddress, \"Owner cannot bid on their own tender\");\r\n\r\n        Bid storage newBid = bids[bidCount];\r\n        newBid.bidId = bidCount;\r\n        newBid.bidClause = _bidClause;\r\n        newBid.quotedAmount = _quotedAmount;\r\n        newBid.bidderAddress = _bidderAddress;\r\n        newBid.tenderId = _tenderId;\r\n        newBid.bidStatus = BidStatus.PENDING;\r\n        newBid.createdAt = block.timestamp;\r\n        tenderRef.addBidId(_tenderId, bidCount);\r\n        bidCount++;\r\n    }\r\n\r\n    modifier canViewBid(address _bidderAddress, address _issuerAddress ,uint256 _tenderId, uint256 _bidId){\r\n        address issuerAddress = tenderRef.getIssuerAddress(_tenderId);\r\n        require(bids[_bidId].bidderAddress == _bidderAddress  && issuerAddress == _issuerAddress && (msg.sender == _issuerAddress || msg.sender == _bidderAddress), \"Not authorized to view bid details\");\r\n        _;\r\n    }\r\n\r\n    // For getting bid details like message, amount, address of bidders \r\n    function getBidDetails(address _bidderAddress, address _issuerAddress ,uint256 _tenderId, uint256 _bidId) public view canViewBid(_bidderAddress, _issuerAddress, _tenderId, _bidId) returns (Bid memory) {\r\n\t    require(bids[_bidId].quotedAmount > 0, \"Bid does not exist\");\r\n    \treturn (bids[_bidId]);\r\n    }\r\n\r\n    function getMyBids(address _bidderAddress) public view isOwner(_bidderAddress) returns(Bid[] memory, uint){\r\n        require(bidCount > 0, \"No bids exist\");\r\n        uint count =0;\r\n        Bid[] memory bidsList = new Bid[](tenderRef.getTenderCount());\r\n        for (uint256 i = 0; i < bidCount; i++) {\r\n            if(bids[i].bidderAddress == _bidderAddress){\r\n                count++;\r\n                bidsList[i] = bids[i];\r\n            }\r\n                \r\n        }\r\n        return(bidsList, count);\r\n    }\r\n\r\n    // For getting all bids of a tender\r\n    function getAllBids(address _partyAddress, uint256 _tenderId) public view isTenderOwner(_partyAddress, _tenderId) returns(Bid[] memory){\r\n        uint256[] memory tenderBidIds = tenderRef.getBidIds(_tenderId);\r\n        require(tenderBidIds.length > 0, \"No bids exists\");\r\n        Bid[] memory bidsList = new Bid[](tenderBidIds.length);\r\n        for (uint256 i = 0; i < tenderBidIds.length; i++) {\r\n            bidsList[i] = bids[tenderBidIds[i]];\r\n        }\r\n        return(bidsList);\r\n    }\r\n\r\n    function updateBidStatus(address _partyAddress, uint256 _tenderId, uint256 _bidAddress ,BidStatus _bidStatus) public isTenderOwner(_partyAddress, _tenderId) {\r\n        Bid storage updatedBid = bids[_bidAddress];\r\n        updatedBid.bidStatus = _bidStatus;\r\n    }\r\n\r\n    function updateBid(address _bidderAddress, uint256 _bidId, string memory _bidClause, uint256 _quotedAmount) public isBidOwner(_bidderAddress, _bidId) {\r\n        require(bids[_bidId].quotedAmount > 0 , \"bid with address doesn't exists\");\r\n        require(bids[_bidId].bidStatus != BidStatus.PENDING , \"bid cannot be updated\");\r\n        Bid storage updatedBid = bids[_bidId];\r\n        updatedBid.bidClause = _bidClause;\r\n        updatedBid.quotedAmount = _quotedAmount;\r\n    }\r\n\r\n    function deleteBid(address _bidderAddress, uint256 _tenderId ,uint256 _bidId) public isBidOwner(_bidderAddress, _bidId){ \r\n        uint256[] memory tenderBidIds = tenderRef.getBidIds(_tenderId);\r\n        require(tenderBidIds.length > 0, \"No bids exists\");\r\n        require(bids[_bidId].quotedAmount > 0 , \"bid with address doesn't exists\");\r\n        require(bids[_bidId].bidStatus == BidStatus.PENDING , \"bid cannot be deleted\");\r\n        delete bids[_bidId];\r\n        tenderRef.deleteBidId(_tenderId, _bidId);             \r\n    }\r\n\r\n    modifier isValidTender(uint256 tenderId) {\r\n        uint256 _deadline = tenderRef.getDeadline(tenderId);\r\n        TenderStatus _tenderStatus = tenderRef.getTenderStatus(tenderId);\r\n        require(block.timestamp >= _deadline && _tenderStatus == TenderStatus.CLOSED);\r\n        _;\r\n    }\r\n\r\n    function selectTopBids(address _partyAddress, uint256 _tenderId ) public view isTenderOwner(_partyAddress, _tenderId) isValidTender(_tenderId) returns (Bid[] memory) {\r\n        //invoke this function once deadline is crossed and can be invoked by project issue party, make sure this project is not assigned to anyone------modifier\r\n        // get all the bids for pt\r\n        Bid[] memory bidList = getAllBids(_partyAddress, _tenderId);\r\n        require(bidList.length > 0, \"No bids exists\");\r\n        // sort bids by price\r\n        for (uint i = 1; i < bidList.length; i++){\r\n            for (uint j = 0; j < i; j++){\r\n                if (bidList[i].quotedAmount < bidList[j].quotedAmount) {\r\n                    Bid memory tempBid = bidList[i];\r\n                    bidList[i] = bidList[j];\r\n                    bidList[j] = tempBid;\r\n                }\r\n            }\r\n        }\r\n        uint256 shortListedBidsCount = (bidList.length < 5) ? bidList.length : 5; \r\n        Bid[] memory shortListedBids = new Bid[](shortListedBidsCount);\r\n        for (uint i = 0; i < shortListedBidsCount; i++){\r\n            shortListedBids[i] = bidList[i];\r\n        }\r\n\r\n        return shortListedBids;\r\n        //returns a list of top 5 bidders and history of bidders\r\n\r\n        // - in case of a tie, the bidder with the largest \"trust\" is given the project. ( Trust in this context is measured in terms of the number of previous projects done and the token assets a party has.)\r\n        // update the status of each bid to APPROVED / REJECTED from PENDING.\r\n    }\r\n\r\n    function finaliseWinnerBid(address _partyAddress, uint256 _tenderId, uint256 _bidId) public isTenderOwner(_partyAddress, _tenderId){\r\n        uint256[] memory tenderBidIds = tenderRef.getBidIds(_tenderId);\r\n        for(uint256 i=0;i< tenderBidIds.length ;i++){\r\n            if(tenderBidIds[i] == _bidId)\r\n                updateBidStatus(_partyAddress, _tenderId, tenderBidIds[i], BidStatus.APPROVED);\r\n            else \r\n                updateBidStatus(_partyAddress, _tenderId, tenderBidIds[i], BidStatus.REJECTED);\r\n        }\r\n        tenderRef.updateTenderStatus(_tenderId, TenderStatus.ASSIGNED);\r\n    }\r\n\r\n}",
  "sourcePath": "C:\\Users\\sabba\\OneDrive\\Documents\\BlockchainProject\\blockchain-based-contracting-system\\contracts\\BidContract.sol",
  "compiler": {
    "name": "solc",
    "version": "0.8.19+commit.7dd6d404.Emscripten.clang"
  },
  "schemaVersion": "3.4.13",
  "updatedAt": "2023-04-14T19:43:32.239Z",
  "devdoc": {
    "kind": "dev",
    "methods": {},
    "version": 1
  },
  "userdoc": {
    "kind": "user",
    "methods": {},
    "version": 1
  }
}