{
  "contractName": "BidContract",
  "abi": [
    {
      "inputs": [
        {
          "internalType": "contract TenderContract",
          "name": "_tenderRef",
          "type": "address"
        }
      ],
      "stateMutability": "nonpayable",
      "type": "constructor"
    },
    {
      "inputs": [
        {
          "internalType": "uint256",
          "name": "",
          "type": "uint256"
        }
      ],
      "name": "bids",
      "outputs": [
        {
          "internalType": "uint256",
          "name": "bidId",
          "type": "uint256"
        },
        {
          "internalType": "string",
          "name": "bidClause",
          "type": "string"
        },
        {
          "internalType": "uint256",
          "name": "quotedAmount",
          "type": "uint256"
        },
        {
          "internalType": "address",
          "name": "bidderAddress",
          "type": "address"
        },
        {
          "internalType": "uint256",
          "name": "tenderId",
          "type": "uint256"
        },
        {
          "internalType": "enum BidContract.BidStatus",
          "name": "bidStatus",
          "type": "uint8"
        },
        {
          "internalType": "uint256",
          "name": "createdAt",
          "type": "uint256"
        },
        {
          "internalType": "bool",
          "name": "isExists",
          "type": "bool"
        }
      ],
      "stateMutability": "view",
      "type": "function",
      "constant": true
    },
    {
      "inputs": [],
      "name": "tenderRef",
      "outputs": [
        {
          "internalType": "contract TenderContract",
          "name": "",
          "type": "address"
        }
      ],
      "stateMutability": "view",
      "type": "function",
      "constant": true
    },
    {
      "inputs": [
        {
          "internalType": "uint256",
          "name": "_bidId",
          "type": "uint256"
        }
      ],
      "name": "getBidderAddress",
      "outputs": [
        {
          "internalType": "address",
          "name": "",
          "type": "address"
        }
      ],
      "stateMutability": "view",
      "type": "function",
      "constant": true
    },
    {
      "inputs": [
        {
          "internalType": "address",
          "name": "_bidderAddress",
          "type": "address"
        },
        {
          "internalType": "uint256",
          "name": "_tenderId",
          "type": "uint256"
        },
        {
          "internalType": "string",
          "name": "_bidClause",
          "type": "string"
        },
        {
          "internalType": "uint256",
          "name": "_quotedAmount",
          "type": "uint256"
        }
      ],
      "name": "createBid",
      "outputs": [],
      "stateMutability": "nonpayable",
      "type": "function"
    },
    {
      "inputs": [
        {
          "internalType": "address",
          "name": "_partyAddress",
          "type": "address"
        },
        {
          "internalType": "uint256",
          "name": "_tenderId",
          "type": "uint256"
        },
        {
          "internalType": "uint256",
          "name": "_bidId",
          "type": "uint256"
        }
      ],
      "name": "getBidDetails",
      "outputs": [
        {
          "components": [
            {
              "internalType": "uint256",
              "name": "bidId",
              "type": "uint256"
            },
            {
              "internalType": "string",
              "name": "bidClause",
              "type": "string"
            },
            {
              "internalType": "uint256",
              "name": "quotedAmount",
              "type": "uint256"
            },
            {
              "internalType": "address",
              "name": "bidderAddress",
              "type": "address"
            },
            {
              "internalType": "uint256",
              "name": "tenderId",
              "type": "uint256"
            },
            {
              "internalType": "enum BidContract.BidStatus",
              "name": "bidStatus",
              "type": "uint8"
            },
            {
              "internalType": "uint256",
              "name": "createdAt",
              "type": "uint256"
            },
            {
              "internalType": "bool",
              "name": "isExists",
              "type": "bool"
            }
          ],
          "internalType": "struct BidContract.Bid",
          "name": "",
          "type": "tuple"
        }
      ],
      "stateMutability": "view",
      "type": "function",
      "constant": true
    },
    {
      "inputs": [
        {
          "internalType": "address",
          "name": "_bidderAddress",
          "type": "address"
        }
      ],
      "name": "getMyBids",
      "outputs": [
        {
          "components": [
            {
              "internalType": "uint256",
              "name": "bidId",
              "type": "uint256"
            },
            {
              "internalType": "string",
              "name": "bidClause",
              "type": "string"
            },
            {
              "internalType": "uint256",
              "name": "quotedAmount",
              "type": "uint256"
            },
            {
              "internalType": "address",
              "name": "bidderAddress",
              "type": "address"
            },
            {
              "internalType": "uint256",
              "name": "tenderId",
              "type": "uint256"
            },
            {
              "internalType": "enum BidContract.BidStatus",
              "name": "bidStatus",
              "type": "uint8"
            },
            {
              "internalType": "uint256",
              "name": "createdAt",
              "type": "uint256"
            },
            {
              "internalType": "bool",
              "name": "isExists",
              "type": "bool"
            }
          ],
          "internalType": "struct BidContract.Bid[]",
          "name": "",
          "type": "tuple[]"
        },
        {
          "internalType": "uint256",
          "name": "",
          "type": "uint256"
        }
      ],
      "stateMutability": "view",
      "type": "function",
      "constant": true
    },
    {
      "inputs": [
        {
          "internalType": "address",
          "name": "_partyAddress",
          "type": "address"
        },
        {
          "internalType": "uint256",
          "name": "_tenderId",
          "type": "uint256"
        }
      ],
      "name": "getAllBids",
      "outputs": [
        {
          "components": [
            {
              "internalType": "uint256",
              "name": "bidId",
              "type": "uint256"
            },
            {
              "internalType": "string",
              "name": "bidClause",
              "type": "string"
            },
            {
              "internalType": "uint256",
              "name": "quotedAmount",
              "type": "uint256"
            },
            {
              "internalType": "address",
              "name": "bidderAddress",
              "type": "address"
            },
            {
              "internalType": "uint256",
              "name": "tenderId",
              "type": "uint256"
            },
            {
              "internalType": "enum BidContract.BidStatus",
              "name": "bidStatus",
              "type": "uint8"
            },
            {
              "internalType": "uint256",
              "name": "createdAt",
              "type": "uint256"
            },
            {
              "internalType": "bool",
              "name": "isExists",
              "type": "bool"
            }
          ],
          "internalType": "struct BidContract.Bid[]",
          "name": "",
          "type": "tuple[]"
        }
      ],
      "stateMutability": "view",
      "type": "function",
      "constant": true
    },
    {
      "inputs": [
        {
          "internalType": "address",
          "name": "_partyAddress",
          "type": "address"
        },
        {
          "internalType": "uint256",
          "name": "_tenderId",
          "type": "uint256"
        },
        {
          "internalType": "uint256",
          "name": "_bidAddress",
          "type": "uint256"
        },
        {
          "internalType": "enum BidContract.BidStatus",
          "name": "_bidStatus",
          "type": "uint8"
        }
      ],
      "name": "updateBidStatus",
      "outputs": [],
      "stateMutability": "nonpayable",
      "type": "function"
    },
    {
      "inputs": [
        {
          "internalType": "address",
          "name": "_bidderAddress",
          "type": "address"
        },
        {
          "internalType": "uint256",
          "name": "_bidId",
          "type": "uint256"
        },
        {
          "internalType": "string",
          "name": "_bidClause",
          "type": "string"
        },
        {
          "internalType": "uint256",
          "name": "_quotedAmount",
          "type": "uint256"
        }
      ],
      "name": "updateBid",
      "outputs": [],
      "stateMutability": "nonpayable",
      "type": "function"
    },
    {
      "inputs": [
        {
          "internalType": "address",
          "name": "_bidderAddress",
          "type": "address"
        },
        {
          "internalType": "uint256",
          "name": "_tenderId",
          "type": "uint256"
        },
        {
          "internalType": "uint256",
          "name": "_bidId",
          "type": "uint256"
        }
      ],
      "name": "deleteBid",
      "outputs": [],
      "stateMutability": "nonpayable",
      "type": "function"
    },
    {
      "inputs": [
        {
          "internalType": "address",
          "name": "_partyAddress",
          "type": "address"
        },
        {
          "internalType": "uint256",
          "name": "_tenderId",
          "type": "uint256"
        }
      ],
      "name": "selectTopBids",
      "outputs": [
        {
          "components": [
            {
              "internalType": "uint256",
              "name": "bidId",
              "type": "uint256"
            },
            {
              "internalType": "string",
              "name": "bidClause",
              "type": "string"
            },
            {
              "internalType": "uint256",
              "name": "quotedAmount",
              "type": "uint256"
            },
            {
              "internalType": "address",
              "name": "bidderAddress",
              "type": "address"
            },
            {
              "internalType": "uint256",
              "name": "tenderId",
              "type": "uint256"
            },
            {
              "internalType": "enum BidContract.BidStatus",
              "name": "bidStatus",
              "type": "uint8"
            },
            {
              "internalType": "uint256",
              "name": "createdAt",
              "type": "uint256"
            },
            {
              "internalType": "bool",
              "name": "isExists",
              "type": "bool"
            }
          ],
          "internalType": "struct BidContract.Bid[]",
          "name": "",
          "type": "tuple[]"
        }
      ],
      "stateMutability": "view",
      "type": "function",
      "constant": true
    },
    {
      "inputs": [
        {
          "internalType": "address",
          "name": "_partyAddress",
          "type": "address"
        },
        {
          "internalType": "uint256",
          "name": "_tenderId",
          "type": "uint256"
        },
        {
          "internalType": "uint256",
          "name": "_bidId",
          "type": "uint256"
        }
      ],
      "name": "finaliseWinnerBid",
      "outputs": [],
      "stateMutability": "nonpayable",
      "type": "function"
    }
  ],
  "bytecode": "0x608060405260006001553480156200001657600080fd5b5060405162003d9638038062003d9683398181016040528101906200003c919062000102565b80600260006101000a81548173ffffffffffffffffffffffffffffffffffffffff021916908373ffffffffffffffffffffffffffffffffffffffff1602179055505062000134565b600080fd5b600073ffffffffffffffffffffffffffffffffffffffff82169050919050565b6000620000b68262000089565b9050919050565b6000620000ca82620000a9565b9050919050565b620000dc81620000bd565b8114620000e857600080fd5b50565b600081519050620000fc81620000d1565b92915050565b6000602082840312156200011b576200011a62000084565b5b60006200012b84828501620000eb565b91505092915050565b613c5280620001446000396000f3fe608060405234801561001057600080fd5b50600436106100b45760003560e01c80638d5b8612116100715780638d5b8612146101a4578063bb693c4d146101c2578063eac24737146101de578063ebc25fa61461020e578063f91b6ae51461023f578063fd140a951461025b576100b4565b8063167548c5146100b957806326b26e56146100d55780634423c5f1146100f15780635fa382801461012857806361281516146101585780636dc4d10c14610188575b600080fd5b6100d360048036038101906100ce9190612712565b61028b565b005b6100ef60048036038101906100ea9190612795565b61044b565b005b61010b600480360381019061010691906127e8565b61072e565b60405161011f989796959493929190612944565b60405180910390f35b610142600480360381019061013d91906127e8565b610838565b60405161014f91906129c9565b60405180910390f35b610172600480360381019061016d91906129e4565b610877565b60405161017f9190612c1c565b60405180910390f35b6101a2600480360381019061019d9190612c63565b610ce4565b005b6101ac610e40565b6040516101b99190612d29565b60405180910390f35b6101dc60048036038101906101d79190612795565b610e66565b005b6101f860048036038101906101f39190612795565b611227565b6040516102059190612df4565b60405180910390f35b61022860048036038101906102239190612e16565b611594565b604051610236929190612e43565b60405180910390f35b61025960048036038101906102549190612712565b6119b0565b005b610275600480360381019061027091906129e4565b611ffa565b6040516102829190612c1c565b60405180910390f35b83838173ffffffffffffffffffffffffffffffffffffffff1660008083815260200190815260200160002060030160009054906101000a900473ffffffffffffffffffffffffffffffffffffffff1673ffffffffffffffffffffffffffffffffffffffff1614610330576040517f08c379a000000000000000000000000000000000000000000000000000000000815260040161032790612ee5565b60405180910390fd5b60008060008781526020019081526020016000206002015411610388576040517f08c379a000000000000000000000000000000000000000000000000000000000815260040161037f90612f51565b60405180910390fd5b6000600281111561039c5761039b6128b2565b5b60008087815260200190815260200160002060050160009054906101000a900460ff1660028111156103d1576103d06128b2565b5b14610411576040517f08c379a000000000000000000000000000000000000000000000000000000000815260040161040890612fbd565b60405180910390fd5b600080600087815260200190815260200160002090508481600101908161043891906131df565b5083816002018190555050505050505050565b82826000600260009054906101000a900473ffffffffffffffffffffffffffffffffffffffff1673ffffffffffffffffffffffffffffffffffffffff16637e4d2d97836040518263ffffffff1660e01b81526004016104aa91906132b1565b602060405180830381865afa1580156104c7573d6000803e3d6000fd5b505050506040513d601f19601f820116820180604052508101906104eb91906132e1565b90508273ffffffffffffffffffffffffffffffffffffffff168173ffffffffffffffffffffffffffffffffffffffff161461055b576040517f08c379a000000000000000000000000000000000000000000000000000000000815260040161055290612ee5565b60405180910390fd5b6000600260009054906101000a900473ffffffffffffffffffffffffffffffffffffffff1673ffffffffffffffffffffffffffffffffffffffff166342222a43876040518263ffffffff1660e01b81526004016105b891906132b1565b600060405180830381865afa1580156105d5573d6000803e3d6000fd5b505050506040513d6000823e3d601f19601f820116820180604052508101906105fe91906133eb565b905060005b815181101561069457858282815181106106205761061f613434565b5b60200260200101510361065957610654888884848151811061064557610644613434565b5b60200260200101516002610ce4565b610681565b610680888884848151811061067157610670613434565b5b60200260200101516001610ce4565b5b808061068c90613492565b915050610603565b50600260009054906101000a900473ffffffffffffffffffffffffffffffffffffffff1673ffffffffffffffffffffffffffffffffffffffff1663aaaf41888760046040518363ffffffff1660e01b81526004016106f3929190613522565b600060405180830381600087803b15801561070d57600080fd5b505af1158015610721573d6000803e3d6000fd5b5050505050505050505050565b60006020528060005260406000206000915090508060000154908060010180546107579061300c565b80601f01602080910402602001604051908101604052809291908181526020018280546107839061300c565b80156107d05780601f106107a5576101008083540402835291602001916107d0565b820191906000526020600020905b8154815290600101906020018083116107b357829003601f168201915b5050505050908060020154908060030160009054906101000a900473ffffffffffffffffffffffffffffffffffffffff16908060040154908060050160009054906101000a900460ff16908060060154908060070160009054906101000a900460ff16905088565b600080600083815260200190815260200160002060030160009054906101000a900473ffffffffffffffffffffffffffffffffffffffff169050919050565b606082826000600260009054906101000a900473ffffffffffffffffffffffffffffffffffffffff1673ffffffffffffffffffffffffffffffffffffffff16637e4d2d97836040518263ffffffff1660e01b81526004016108d891906132b1565b602060405180830381865afa1580156108f5573d6000803e3d6000fd5b505050506040513d601f19601f8201168201806040525081019061091991906132e1565b90508273ffffffffffffffffffffffffffffffffffffffff168173ffffffffffffffffffffffffffffffffffffffff1614610989576040517f08c379a000000000000000000000000000000000000000000000000000000000815260040161098090612ee5565b60405180910390fd5b6000600260009054906101000a900473ffffffffffffffffffffffffffffffffffffffff1673ffffffffffffffffffffffffffffffffffffffff166342222a43876040518263ffffffff1660e01b81526004016109e691906132b1565b600060405180830381865afa158015610a03573d6000803e3d6000fd5b505050506040513d6000823e3d601f19601f82011682018060405250810190610a2c91906133eb565b90506000815111610a72576040517f08c379a0000000000000000000000000000000000000000000000000000000008152600401610a6990613597565b60405180910390fd5b6000815167ffffffffffffffff811115610a8f57610a8e6125e7565b5b604051908082528060200260200182016040528015610ac857816020015b610ab56124b5565b815260200190600190039081610aad5790505b50905060005b8251811015610cd5576001151560008083815260200190815260200160002060070160009054906101000a900460ff16151503610cc257600080848381518110610b1b57610b1a613434565b5b602002602001015181526020019081526020016000206040518061010001604052908160008201548152602001600182018054610b579061300c565b80601f0160208091040260200160405190810160405280929190818152602001828054610b839061300c565b8015610bd05780601f10610ba557610100808354040283529160200191610bd0565b820191906000526020600020905b815481529060010190602001808311610bb357829003601f168201915b50505050508152602001600282015481526020016003820160009054906101000a900473ffffffffffffffffffffffffffffffffffffffff1673ffffffffffffffffffffffffffffffffffffffff1673ffffffffffffffffffffffffffffffffffffffff168152602001600482015481526020016005820160009054906101000a900460ff166002811115610c6857610c676128b2565b5b6002811115610c7a57610c796128b2565b5b8152602001600682015481526020016007820160009054906101000a900460ff161515151581525050828281518110610cb657610cb5613434565b5b60200260200101819052505b8080610ccd90613492565b915050610ace565b50809550505050505092915050565b83836000600260009054906101000a900473ffffffffffffffffffffffffffffffffffffffff1673ffffffffffffffffffffffffffffffffffffffff16637e4d2d97836040518263ffffffff1660e01b8152600401610d4391906132b1565b602060405180830381865afa158015610d60573d6000803e3d6000fd5b505050506040513d601f19601f82011682018060405250810190610d8491906132e1565b90508273ffffffffffffffffffffffffffffffffffffffff168173ffffffffffffffffffffffffffffffffffffffff1614610df4576040517f08c379a0000000000000000000000000000000000000000000000000000000008152600401610deb90612ee5565b60405180910390fd5b60008060008781526020019081526020016000209050848160050160006101000a81548160ff02191690836002811115610e3157610e306128b2565b5b02179055505050505050505050565b600260009054906101000a900473ffffffffffffffffffffffffffffffffffffffff1681565b82818173ffffffffffffffffffffffffffffffffffffffff1660008083815260200190815260200160002060030160009054906101000a900473ffffffffffffffffffffffffffffffffffffffff1673ffffffffffffffffffffffffffffffffffffffff1614610f0b576040517f08c379a0000000000000000000000000000000000000000000000000000000008152600401610f0290612ee5565b60405180910390fd5b6000600260009054906101000a900473ffffffffffffffffffffffffffffffffffffffff1673ffffffffffffffffffffffffffffffffffffffff166342222a43866040518263ffffffff1660e01b8152600401610f6891906132b1565b600060405180830381865afa158015610f85573d6000803e3d6000fd5b505050506040513d6000823e3d601f19601f82011682018060405250810190610fae91906133eb565b90506000815111610ff4576040517f08c379a0000000000000000000000000000000000000000000000000000000008152600401610feb90613597565b60405180910390fd5b6000806000868152602001908152602001600020600201541161104c576040517f08c379a000000000000000000000000000000000000000000000000000000000815260040161104390612f51565b60405180910390fd5b600060028111156110605761105f6128b2565b5b60008086815260200190815260200160002060050160009054906101000a900460ff166002811115611095576110946128b2565b5b146110d5576040517f08c379a00000000000000000000000000000000000000000000000000000000081526004016110cc90613603565b60405180910390fd5b600080600086815260200190815260200160002060070160006101000a81548160ff02191690831515021790555060005b815181101561121e578482828151811061112357611122613434565b5b60200260200101510361120b57816001835161113f9190613623565b815181106111505761114f613434565b5b602002602001015182828151811061116b5761116a613434565b5b602002602001018181525050600260009054906101000a900473ffffffffffffffffffffffffffffffffffffffff1673ffffffffffffffffffffffffffffffffffffffff1663897bb97983886040518363ffffffff1660e01b81526004016111d4929190613706565b600060405180830381600087803b1580156111ee57600080fd5b505af1158015611202573d6000803e3d6000fd5b5050505061121e565b808061121690613492565b915050611106565b50505050505050565b61122f6124b5565b8383836000600260009054906101000a900473ffffffffffffffffffffffffffffffffffffffff1673ffffffffffffffffffffffffffffffffffffffff16637e4d2d97846040518263ffffffff1660e01b815260040161128f91906132b1565b602060405180830381865afa1580156112ac573d6000803e3d6000fd5b505050506040513d601f19601f820116820180604052508101906112d091906132e1565b90508373ffffffffffffffffffffffffffffffffffffffff1660008084815260200190815260200160002060030160009054906101000a900473ffffffffffffffffffffffffffffffffffffffff1673ffffffffffffffffffffffffffffffffffffffff16148061136c57508373ffffffffffffffffffffffffffffffffffffffff168173ffffffffffffffffffffffffffffffffffffffff16145b6113ab576040517f08c379a00000000000000000000000000000000000000000000000000000000081526004016113a2906137a8565b60405180910390fd5b60008060008881526020019081526020016000206002015411611403576040517f08c379a00000000000000000000000000000000000000000000000000000000081526004016113fa90613814565b60405180910390fd5b600080878152602001908152602001600020604051806101000160405290816000820154815260200160018201805461143b9061300c565b80601f01602080910402602001604051908101604052809291908181526020018280546114679061300c565b80156114b45780601f10611489576101008083540402835291602001916114b4565b820191906000526020600020905b81548152906001019060200180831161149757829003601f168201915b50505050508152602001600282015481526020016003820160009054906101000a900473ffffffffffffffffffffffffffffffffffffffff1673ffffffffffffffffffffffffffffffffffffffff1673ffffffffffffffffffffffffffffffffffffffff168152602001600482015481526020016005820160009054906101000a900460ff16600281111561154c5761154b6128b2565b5b600281111561155e5761155d6128b2565b5b8152602001600682015481526020016007820160009054906101000a900460ff1615151515815250509450505050509392505050565b60606000828073ffffffffffffffffffffffffffffffffffffffff163373ffffffffffffffffffffffffffffffffffffffff1614611607576040517f08c379a00000000000000000000000000000000000000000000000000000000081526004016115fe90613880565b60405180910390fd5b60006001541161164c576040517f08c379a0000000000000000000000000000000000000000000000000000000008152600401611643906138ec565b60405180910390fd5b600080600260009054906101000a900473ffffffffffffffffffffffffffffffffffffffff1673ffffffffffffffffffffffffffffffffffffffff16635850b3836040518163ffffffff1660e01b8152600401602060405180830381865afa1580156116bc573d6000803e3d6000fd5b505050506040513d601f19601f820116820180604052508101906116e0919061390c565b67ffffffffffffffff8111156116f9576116f86125e7565b5b60405190808252806020026020018201604052801561173257816020015b61171f6124b5565b8152602001906001900390816117175790505b50905060005b6001548110156119a1576001151560008083815260200190815260200160002060070160009054906101000a900460ff1615151480156117d857508673ffffffffffffffffffffffffffffffffffffffff1660008083815260200190815260200160002060030160009054906101000a900473ffffffffffffffffffffffffffffffffffffffff1673ffffffffffffffffffffffffffffffffffffffff16145b1561198e5782806117e890613492565b93505060008082815260200190815260200160002060405180610100016040529081600082015481526020016001820180546118239061300c565b80601f016020809104026020016040519081016040528092919081815260200182805461184f9061300c565b801561189c5780601f106118715761010080835404028352916020019161189c565b820191906000526020600020905b81548152906001019060200180831161187f57829003601f168201915b50505050508152602001600282015481526020016003820160009054906101000a900473ffffffffffffffffffffffffffffffffffffffff1673ffffffffffffffffffffffffffffffffffffffff1673ffffffffffffffffffffffffffffffffffffffff168152602001600482015481526020016005820160009054906101000a900460ff166002811115611934576119336128b2565b5b6002811115611946576119456128b2565b5b8152602001600682015481526020016007820160009054906101000a900460ff16151515158152505082828151811061198257611981613434565b5b60200260200101819052505b808061199990613492565b915050611738565b50808294509450505050915091565b600f600260009054906101000a900473ffffffffffffffffffffffffffffffffffffffff1673ffffffffffffffffffffffffffffffffffffffff16634008f9c0856040518263ffffffff1660e01b8152600401611a0d91906132b1565b602060405180830381865afa158015611a2a573d6000803e3d6000fd5b505050506040513d601f19601f82011682018060405250810190611a4e919061390c565b1115611a8f576040517f08c379a0000000000000000000000000000000000000000000000000000000008152600401611a86906139ab565b60405180910390fd5b6000600260009054906101000a900473ffffffffffffffffffffffffffffffffffffffff1673ffffffffffffffffffffffffffffffffffffffff16632e4ea4c4856040518263ffffffff1660e01b8152600401611aec91906132b1565b602060405180830381865afa158015611b09573d6000803e3d6000fd5b505050506040513d601f19601f82011682018060405250810190611b2d919061390c565b90506000600260009054906101000a900473ffffffffffffffffffffffffffffffffffffffff1673ffffffffffffffffffffffffffffffffffffffff1663354133f7866040518263ffffffff1660e01b8152600401611b8c91906132b1565b602060405180830381865afa158015611ba9573d6000803e3d6000fd5b505050506040513d601f19601f82011682018060405250810190611bcd91906139f0565b90506000600260009054906101000a900473ffffffffffffffffffffffffffffffffffffffff1673ffffffffffffffffffffffffffffffffffffffff166382862275876040518263ffffffff1660e01b8152600401611c2c91906132b1565b602060405180830381865afa158015611c49573d6000803e3d6000fd5b505050506040513d601f19601f82011682018060405250810190611c6d919061390c565b90506000600260009054906101000a900473ffffffffffffffffffffffffffffffffffffffff1673ffffffffffffffffffffffffffffffffffffffff16637e4d2d97886040518263ffffffff1660e01b8152600401611ccc91906132b1565b602060405180830381865afa158015611ce9573d6000803e3d6000fd5b505050506040513d601f19601f82011682018060405250810190611d0d91906132e1565b905060008411611d52576040517f08c379a0000000000000000000000000000000000000000000000000000000008152600401611d4990613a69565b60405180910390fd5b60016004811115611d6657611d656128b2565b5b836004811115611d7957611d786128b2565b5b14611db9576040517f08c379a0000000000000000000000000000000000000000000000000000000008152600401611db090613ad5565b60405180910390fd5b814210611dfb576040517f08c379a0000000000000000000000000000000000000000000000000000000008152600401611df290613b41565b60405180910390fd5b8073ffffffffffffffffffffffffffffffffffffffff168873ffffffffffffffffffffffffffffffffffffffff1603611e69576040517f08c379a0000000000000000000000000000000000000000000000000000000008152600401611e6090613bd3565b60405180910390fd5b600080600060015481526020019081526020016000209050600154816000018190555086816001019081611e9d91906131df565b50858160020181905550888160030160006101000a81548173ffffffffffffffffffffffffffffffffffffffff021916908373ffffffffffffffffffffffffffffffffffffffff16021790555087816004018190555060008160050160006101000a81548160ff02191690836002811115611f1b57611f1a6128b2565b5b021790555042816006018190555060018160070160006101000a81548160ff021916908315150217905550600260009054906101000a900473ffffffffffffffffffffffffffffffffffffffff1673ffffffffffffffffffffffffffffffffffffffff1663f1d8ef4d896001546040518363ffffffff1660e01b8152600401611fa5929190613bf3565b600060405180830381600087803b158015611fbf57600080fd5b505af1158015611fd3573d6000803e3d6000fd5b5050505060016000815480929190611fea90613492565b9190505550505050505050505050565b606082826000600260009054906101000a900473ffffffffffffffffffffffffffffffffffffffff1673ffffffffffffffffffffffffffffffffffffffff16637e4d2d97836040518263ffffffff1660e01b815260040161205b91906132b1565b602060405180830381865afa158015612078573d6000803e3d6000fd5b505050506040513d601f19601f8201168201806040525081019061209c91906132e1565b90508273ffffffffffffffffffffffffffffffffffffffff168173ffffffffffffffffffffffffffffffffffffffff161461210c576040517f08c379a000000000000000000000000000000000000000000000000000000000815260040161210390612ee5565b60405180910390fd5b846000600260009054906101000a900473ffffffffffffffffffffffffffffffffffffffff1673ffffffffffffffffffffffffffffffffffffffff166382862275836040518263ffffffff1660e01b815260040161216a91906132b1565b602060405180830381865afa158015612187573d6000803e3d6000fd5b505050506040513d601f19601f820116820180604052508101906121ab919061390c565b90506000600260009054906101000a900473ffffffffffffffffffffffffffffffffffffffff1673ffffffffffffffffffffffffffffffffffffffff1663354133f7846040518263ffffffff1660e01b815260040161220a91906132b1565b602060405180830381865afa158015612227573d6000803e3d6000fd5b505050506040513d601f19601f8201168201806040525081019061224b91906139f0565b905081421015801561228157506002600481111561226c5761226b6128b2565b5b81600481111561227f5761227e6128b2565b5b145b61228a57600080fd5b60006122968a8a610877565b905060008151116122dc576040517f08c379a00000000000000000000000000000000000000000000000000000000081526004016122d390613597565b60405180910390fd5b6000600190505b81518110156123db5760005b818110156123c75782818151811061230a57612309613434565b5b60200260200101516040015183838151811061232957612328613434565b5b60200260200101516040015110156123b45760008383815181106123505761234f613434565b5b6020026020010151905083828151811061236d5761236c613434565b5b602002602001015184848151811061238857612387613434565b5b6020026020010181905250808483815181106123a7576123a6613434565b5b6020026020010181905250505b80806123bf90613492565b9150506122ef565b5080806123d390613492565b9150506122e3565b50600060058251106123ee5760056123f1565b81515b905060008167ffffffffffffffff81111561240f5761240e6125e7565b5b60405190808252806020026020018201604052801561244857816020015b6124356124b5565b81526020019060019003908161242d5790505b50905060005b828110156124a25783818151811061246957612468613434565b5b602002602001015182828151811061248457612483613434565b5b6020026020010181905250808061249a90613492565b91505061244e565b5080995050505050505050505092915050565b604051806101000160405280600081526020016060815260200160008152602001600073ffffffffffffffffffffffffffffffffffffffff168152602001600081526020016000600281111561250e5761250d6128b2565b5b8152602001600081526020016000151581525090565b6000604051905090565b600080fd5b600080fd5b600073ffffffffffffffffffffffffffffffffffffffff82169050919050565b600061256382612538565b9050919050565b61257381612558565b811461257e57600080fd5b50565b6000813590506125908161256a565b92915050565b6000819050919050565b6125a981612596565b81146125b457600080fd5b50565b6000813590506125c6816125a0565b92915050565b600080fd5b600080fd5b6000601f19601f8301169050919050565b7f4e487b7100000000000000000000000000000000000000000000000000000000600052604160045260246000fd5b61261f826125d6565b810181811067ffffffffffffffff8211171561263e5761263d6125e7565b5b80604052505050565b6000612651612524565b905061265d8282612616565b919050565b600067ffffffffffffffff82111561267d5761267c6125e7565b5b612686826125d6565b9050602081019050919050565b82818337600083830152505050565b60006126b56126b084612662565b612647565b9050828152602081018484840111156126d1576126d06125d1565b5b6126dc848285612693565b509392505050565b600082601f8301126126f9576126f86125cc565b5b81356127098482602086016126a2565b91505092915050565b6000806000806080858703121561272c5761272b61252e565b5b600061273a87828801612581565b945050602061274b878288016125b7565b935050604085013567ffffffffffffffff81111561276c5761276b612533565b5b612778878288016126e4565b9250506060612789878288016125b7565b91505092959194509250565b6000806000606084860312156127ae576127ad61252e565b5b60006127bc86828701612581565b93505060206127cd868287016125b7565b92505060406127de868287016125b7565b9150509250925092565b6000602082840312156127fe576127fd61252e565b5b600061280c848285016125b7565b91505092915050565b61281e81612596565b82525050565b600081519050919050565b600082825260208201905092915050565b60005b8381101561285e578082015181840152602081019050612843565b60008484015250505050565b600061287582612824565b61287f818561282f565b935061288f818560208601612840565b612898816125d6565b840191505092915050565b6128ac81612558565b82525050565b7f4e487b7100000000000000000000000000000000000000000000000000000000600052602160045260246000fd5b600381106128f2576128f16128b2565b5b50565b6000819050612903826128e1565b919050565b6000612913826128f5565b9050919050565b61292381612908565b82525050565b60008115159050919050565b61293e81612929565b82525050565b60006101008201905061295a600083018b612815565b818103602083015261296c818a61286a565b905061297b6040830189612815565b61298860608301886128a3565b6129956080830187612815565b6129a260a083018661291a565b6129af60c0830185612815565b6129bc60e0830184612935565b9998505050505050505050565b60006020820190506129de60008301846128a3565b92915050565b600080604083850312156129fb576129fa61252e565b5b6000612a0985828601612581565b9250506020612a1a858286016125b7565b9150509250929050565b600081519050919050565b600082825260208201905092915050565b6000819050602082019050919050565b612a5981612596565b82525050565b600082825260208201905092915050565b6000612a7b82612824565b612a858185612a5f565b9350612a95818560208601612840565b612a9e816125d6565b840191505092915050565b612ab281612558565b82525050565b612ac181612908565b82525050565b612ad081612929565b82525050565b600061010083016000830151612aef6000860182612a50565b5060208301518482036020860152612b078282612a70565b9150506040830151612b1c6040860182612a50565b506060830151612b2f6060860182612aa9565b506080830151612b426080860182612a50565b5060a0830151612b5560a0860182612ab8565b5060c0830151612b6860c0860182612a50565b5060e0830151612b7b60e0860182612ac7565b508091505092915050565b6000612b928383612ad6565b905092915050565b6000602082019050919050565b6000612bb282612a24565b612bbc8185612a2f565b935083602082028501612bce85612a40565b8060005b85811015612c0a5784840389528151612beb8582612b86565b9450612bf683612b9a565b925060208a01995050600181019050612bd2565b50829750879550505050505092915050565b60006020820190508181036000830152612c368184612ba7565b905092915050565b60038110612c4b57600080fd5b50565b600081359050612c5d81612c3e565b92915050565b60008060008060808587031215612c7d57612c7c61252e565b5b6000612c8b87828801612581565b9450506020612c9c878288016125b7565b9350506040612cad878288016125b7565b9250506060612cbe87828801612c4e565b91505092959194509250565b6000819050919050565b6000612cef612cea612ce584612538565b612cca565b612538565b9050919050565b6000612d0182612cd4565b9050919050565b6000612d1382612cf6565b9050919050565b612d2381612d08565b82525050565b6000602082019050612d3e6000830184612d1a565b92915050565b600061010083016000830151612d5d6000860182612a50565b5060208301518482036020860152612d758282612a70565b9150506040830151612d8a6040860182612a50565b506060830151612d9d6060860182612aa9565b506080830151612db06080860182612a50565b5060a0830151612dc360a0860182612ab8565b5060c0830151612dd660c0860182612a50565b5060e0830151612de960e0860182612ac7565b508091505092915050565b60006020820190508181036000830152612e0e8184612d44565b905092915050565b600060208284031215612e2c57612e2b61252e565b5b6000612e3a84828501612581565b91505092915050565b60006040820190508181036000830152612e5d8185612ba7565b9050612e6c6020830184612815565b9392505050565b7f796f75277265206e6f7420617574686f72697a656420746f20706572666f726d60008201527f207468697320616374696f6e0000000000000000000000000000000000000000602082015250565b6000612ecf602c8361282f565b9150612eda82612e73565b604082019050919050565b60006020820190508181036000830152612efe81612ec2565b9050919050565b7f6269642077697468206164647265737320646f65736e27742065786973747300600082015250565b6000612f3b601f8361282f565b9150612f4682612f05565b602082019050919050565b60006020820190508181036000830152612f6a81612f2e565b9050919050565b7f6269642063616e6e6f7420626520757064617465640000000000000000000000600082015250565b6000612fa760158361282f565b9150612fb282612f71565b602082019050919050565b60006020820190508181036000830152612fd681612f9a565b9050919050565b7f4e487b7100000000000000000000000000000000000000000000000000000000600052602260045260246000fd5b6000600282049050600182168061302457607f821691505b60208210810361303757613036612fdd565b5b50919050565b60008190508160005260206000209050919050565b60006020601f8301049050919050565b600082821b905092915050565b60006008830261309f7fffffffffffffffffffffffffffffffffffffffffffffffffffffffffffffffff82613062565b6130a98683613062565b95508019841693508086168417925050509392505050565b60006130dc6130d76130d284612596565b612cca565b612596565b9050919050565b6000819050919050565b6130f6836130c1565b61310a613102826130e3565b84845461306f565b825550505050565b600090565b61311f613112565b61312a8184846130ed565b505050565b5b8181101561314e57613143600082613117565b600181019050613130565b5050565b601f821115613193576131648161303d565b61316d84613052565b8101602085101561317c578190505b61319061318885613052565b83018261312f565b50505b505050565b600082821c905092915050565b60006131b660001984600802613198565b1980831691505092915050565b60006131cf83836131a5565b9150826002028217905092915050565b6131e882612824565b67ffffffffffffffff811115613201576132006125e7565b5b61320b825461300c565b613216828285613152565b600060209050601f8311600181146132495760008415613237578287015190505b61324185826131c3565b8655506132a9565b601f1984166132578661303d565b60005b8281101561327f5784890151825560018201915060208501945060208101905061325a565b8683101561329c5784890151613298601f8916826131a5565b8355505b6001600288020188555050505b505050505050565b60006020820190506132c66000830184612815565b92915050565b6000815190506132db8161256a565b92915050565b6000602082840312156132f7576132f661252e565b5b6000613305848285016132cc565b91505092915050565b600067ffffffffffffffff821115613329576133286125e7565b5b602082029050602081019050919050565b600080fd5b60008151905061334e816125a0565b92915050565b60006133676133628461330e565b612647565b9050808382526020820190506020840283018581111561338a5761338961333a565b5b835b818110156133b3578061339f888261333f565b84526020840193505060208101905061338c565b5050509392505050565b600082601f8301126133d2576133d16125cc565b5b81516133e2848260208601613354565b91505092915050565b6000602082840312156134015761340061252e565b5b600082015167ffffffffffffffff81111561341f5761341e612533565b5b61342b848285016133bd565b91505092915050565b7f4e487b7100000000000000000000000000000000000000000000000000000000600052603260045260246000fd5b7f4e487b7100000000000000000000000000000000000000000000000000000000600052601160045260246000fd5b600061349d82612596565b91507fffffffffffffffffffffffffffffffffffffffffffffffffffffffffffffffff82036134cf576134ce613463565b5b600182019050919050565b600581106134eb576134ea6128b2565b5b50565b60008190506134fc826134da565b919050565b600061350c826134ee565b9050919050565b61351c81613501565b82525050565b60006040820190506135376000830185612815565b6135446020830184613513565b9392505050565b7f4e6f206269647320657869737473000000000000000000000000000000000000600082015250565b6000613581600e8361282f565b915061358c8261354b565b602082019050919050565b600060208201905081810360008301526135b081613574565b9050919050565b7f6269642063616e6e6f742062652064656c657465640000000000000000000000600082015250565b60006135ed60158361282f565b91506135f8826135b7565b602082019050919050565b6000602082019050818103600083015261361c816135e0565b9050919050565b600061362e82612596565b915061363983612596565b925082820390508181111561365157613650613463565b5b92915050565b600081519050919050565b600082825260208201905092915050565b6000819050602082019050919050565b600061368f8383612a50565b60208301905092915050565b6000602082019050919050565b60006136b382613657565b6136bd8185613662565b93506136c883613673565b8060005b838110156136f95781516136e08882613683565b97506136eb8361369b565b9250506001810190506136cc565b5085935050505092915050565b6000604082019050818103600083015261372081856136a8565b905061372f6020830184612815565b9392505050565b7f4e6f7420617574686f72697a656420746f20766965772062696420646574616960008201527f6c73000000000000000000000000000000000000000000000000000000000000602082015250565b600061379260228361282f565b915061379d82613736565b604082019050919050565b600060208201905081810360008301526137c181613785565b9050919050565b7f42696420646f6573206e6f742065786973740000000000000000000000000000600082015250565b60006137fe60128361282f565b9150613809826137c8565b602082019050919050565b6000602082019050818103600083015261382d816137f1565b9050919050565b7f43616c6c6572206973206e6f74206f776e657200000000000000000000000000600082015250565b600061386a60138361282f565b915061387582613834565b602082019050919050565b600060208201905081810360008301526138998161385d565b9050919050565b7f4e6f206269647320657869737400000000000000000000000000000000000000600082015250565b60006138d6600d8361282f565b91506138e1826138a0565b602082019050919050565b60006020820190508181036000830152613905816138c9565b9050919050565b6000602082840312156139225761392161252e565b5b60006139308482850161333f565b91505092915050565b7f4d6178696d756d206269647320666f7220746869732074656e6465722065786360008201527f6565646564000000000000000000000000000000000000000000000000000000602082015250565b600061399560258361282f565b91506139a082613939565b604082019050919050565b600060208201905081810360008301526139c481613988565b9050919050565b600581106139d857600080fd5b50565b6000815190506139ea816139cb565b92915050565b600060208284031215613a0657613a0561252e565b5b6000613a14848285016139db565b91505092915050565b7f54656e64657220646f6573206e6f742065786973740000000000000000000000600082015250565b6000613a5360158361282f565b9150613a5e82613a1d565b602082019050919050565b60006020820190508181036000830152613a8281613a46565b9050919050565b7f54656e646572206973206e6f74206f70656e20666f7220626964730000000000600082015250565b6000613abf601b8361282f565b9150613aca82613a89565b602082019050919050565b60006020820190508181036000830152613aee81613ab2565b9050919050565b7f42696464696e672068617320656e646564000000000000000000000000000000600082015250565b6000613b2b60118361282f565b9150613b3682613af5565b602082019050919050565b60006020820190508181036000830152613b5a81613b1e565b9050919050565b7f4f776e65722063616e6e6f7420626964206f6e207468656972206f776e20746560008201527f6e64657200000000000000000000000000000000000000000000000000000000602082015250565b6000613bbd60248361282f565b9150613bc882613b61565b604082019050919050565b60006020820190508181036000830152613bec81613bb0565b9050919050565b6000604082019050613c086000830185612815565b613c156020830184612815565b939250505056fea264697066735822122074cf416d27e872f2cca4ca80d5d04956d433205b1cd1b43800c6bedbe84e09bd64736f6c63430008130033",
  "immutableReferences": {},
  "source": "// SPDX-License-Identifier: UNLICENSED\r\n\r\n//the version of solidity that is compatible\r\npragma solidity ^0.8.0;\r\npragma experimental ABIEncoderV2;\r\n\r\nimport \"./TenderContract.sol\";\r\n\r\ncontract BidContract {\r\n    enum BidStatus{PENDING, REJECTED, APPROVED}\r\n\r\n    // Bidding Struct\r\n    struct Bid {\r\n        uint256 bidId;\r\n        string bidClause;\r\n        uint256 quotedAmount;\r\n        address bidderAddress;\r\n        uint256 tenderId;\r\n        BidStatus bidStatus;\r\n        uint256 createdAt;\r\n        bool isExists;\r\n    }\r\n\r\n    mapping (uint256 => Bid) public bids;\r\n    uint256 bidCount = 0;\r\n    TenderContract public tenderRef;\r\n\r\n    constructor(TenderContract _tenderRef){\r\n        tenderRef = _tenderRef;\r\n    }\r\n\r\n    //setters and getters\r\n    function getBidderAddress(uint256 _bidId) public view returns(address) {\r\n        return bids[_bidId].bidderAddress;\r\n    }\r\n\r\n    modifier isOwner(address owner) {\r\n        require(msg.sender == owner, \"Caller is not owner\");\r\n        _;\r\n    }\r\n\r\n    modifier isTenderOwner(address _partyAddress, uint256 _tenderId) {\r\n        address issuerAddress = tenderRef.getIssuerAddress(_tenderId);\r\n        require(issuerAddress == _partyAddress, \"you're not authorized to perform this action\");\r\n        _;\r\n    }\r\n\r\n    modifier isBidOwner(address _bidderAddress, uint256 _bidId) {\r\n        require(bids[_bidId].bidderAddress == _bidderAddress, \"you're not authorized to perform this action\");\r\n        _;\r\n    }\r\n\r\n    function createBid(address _bidderAddress, uint256 _tenderId, string memory _bidClause, uint256 _quotedAmount) public{\r\n        // Tender storage _tender = tenderRef.tenders(_tenderId);\r\n        require(tenderRef.getBidsCount(_tenderId) <= 15, \"Maximum bids for this tender exceeded\");\r\n        uint256 _budget = tenderRef.getBudget(_tenderId);\r\n        TenderStatus _tenderStatus = tenderRef.getTenderStatus(_tenderId);\r\n        uint256 _deadline = tenderRef.getDeadline(_tenderId);\r\n        address _issuerAddress = tenderRef.getIssuerAddress(_tenderId);\r\n        require(_budget > 0, \"Tender does not exist\");\r\n        require(_tenderStatus == TenderStatus.OPEN, \"Tender is not open for bids\");\r\n        require(block.timestamp < _deadline, \"Bidding has ended\");\r\n        require(_bidderAddress != _issuerAddress, \"Owner cannot bid on their own tender\");\r\n\r\n        Bid storage newBid = bids[bidCount];\r\n        newBid.bidId = bidCount;\r\n        newBid.bidClause = _bidClause;\r\n        newBid.quotedAmount = _quotedAmount;\r\n        newBid.bidderAddress = _bidderAddress;\r\n        newBid.tenderId = _tenderId;\r\n        newBid.bidStatus = BidStatus.PENDING;\r\n        newBid.createdAt = block.timestamp;\r\n        newBid.isExists = true;\r\n        tenderRef.addBidId(_tenderId, bidCount);\r\n        bidCount++;\r\n    }\r\n\r\n    modifier canViewBid(address _partyAddress ,uint256 _tenderId, uint256 _bidId){\r\n        address issuerAddress = tenderRef.getIssuerAddress(_tenderId);\r\n        require((bids[_bidId].bidderAddress == _partyAddress  || issuerAddress == _partyAddress), \"Not authorized to view bid details\");\r\n        _;\r\n    }\r\n\r\n    // For getting bid details like message, amount, address of bidders \r\n    function getBidDetails(address _partyAddress ,uint256 _tenderId, uint256 _bidId) public view canViewBid(_partyAddress, _tenderId, _bidId) returns (Bid memory) {\r\n\t    require(bids[_bidId].quotedAmount > 0, \"Bid does not exist\");\r\n    \treturn (bids[_bidId]);\r\n    }\r\n\r\n    function getMyBids(address _bidderAddress) public view isOwner(_bidderAddress) returns(Bid[] memory, uint){\r\n        require(bidCount > 0, \"No bids exist\");\r\n        uint count =0;\r\n        Bid[] memory bidsList = new Bid[](tenderRef.getTenderCount());\r\n        for (uint256 i = 0; i < bidCount; i++) {\r\n            if(bids[i].isExists == true && bids[i].bidderAddress == _bidderAddress){\r\n                count++;\r\n                bidsList[i] = bids[i];\r\n            }\r\n                \r\n        }\r\n        return(bidsList, count);\r\n    }\r\n\r\n    // For getting all bids of a tender\r\n    function getAllBids(address _partyAddress, uint256 _tenderId) public view isTenderOwner(_partyAddress, _tenderId) returns(Bid[] memory){\r\n        uint256[] memory tenderBidIds = tenderRef.getBidIds(_tenderId);\r\n        require(tenderBidIds.length > 0, \"No bids exists\");\r\n        Bid[] memory bidsList = new Bid[](tenderBidIds.length);\r\n        for (uint256 i = 0; i < tenderBidIds.length; i++) {\r\n            if(bids[i].isExists == true) {\r\n                bidsList[i] = bids[tenderBidIds[i]];\r\n            }\r\n        }\r\n        return(bidsList);\r\n    }\r\n\r\n    function updateBidStatus(address _partyAddress, uint256 _tenderId, uint256 _bidAddress ,BidStatus _bidStatus) public isTenderOwner(_partyAddress, _tenderId) {\r\n        Bid storage updatedBid = bids[_bidAddress];\r\n        updatedBid.bidStatus = _bidStatus;\r\n    }\r\n\r\n    function updateBid(address _bidderAddress, uint256 _bidId, string memory _bidClause, uint256 _quotedAmount) public isBidOwner(_bidderAddress, _bidId) {\r\n        require(bids[_bidId].quotedAmount > 0 , \"bid with address doesn't exists\");\r\n        require(bids[_bidId].bidStatus == BidStatus.PENDING , \"bid cannot be updated\");\r\n        Bid storage updatedBid = bids[_bidId];\r\n        updatedBid.bidClause = _bidClause;\r\n        updatedBid.quotedAmount = _quotedAmount;\r\n    }\r\n\r\n    function deleteBid(address _bidderAddress, uint256 _tenderId ,uint256 _bidId) public isBidOwner(_bidderAddress, _bidId){ \r\n        uint256[] memory tenderBidIds = tenderRef.getBidIds(_tenderId);\r\n        require(tenderBidIds.length > 0, \"No bids exists\");\r\n        require(bids[_bidId].quotedAmount > 0 , \"bid with address doesn't exists\");\r\n        require(bids[_bidId].bidStatus == BidStatus.PENDING , \"bid cannot be deleted\");\r\n        bids[_bidId].isExists = false;\r\n        // delete bids[_bidId];\r\n        // tenderRef.deleteBidId(_tenderId, _bidId);         \r\n        for(uint256 i=0;i<tenderBidIds.length;i++){\r\n            if(tenderBidIds[i] == _bidId){\r\n                tenderBidIds[i] = tenderBidIds[tenderBidIds.length -1];\r\n                tenderRef.setBidIds(tenderBidIds, _tenderId);\r\n                break;\r\n            }\r\n        }    \r\n    }\r\n\r\n    modifier isValidTender(uint256 tenderId) {\r\n        uint256 _deadline = tenderRef.getDeadline(tenderId);\r\n        TenderStatus _tenderStatus = tenderRef.getTenderStatus(tenderId);\r\n        require(block.timestamp >= _deadline && _tenderStatus == TenderStatus.CLOSED);\r\n        _;\r\n    }\r\n\r\n    function selectTopBids(address _partyAddress, uint256 _tenderId ) public view isTenderOwner(_partyAddress, _tenderId) isValidTender(_tenderId) returns (Bid[] memory) {\r\n        //invoke this function once deadline is crossed and can be invoked by project issue party, make sure this project is not assigned to anyone------modifier\r\n        // get all the bids for pt\r\n        Bid[] memory bidList = getAllBids(_partyAddress, _tenderId);\r\n        require(bidList.length > 0, \"No bids exists\");\r\n        // sort bids by price\r\n        for (uint i = 1; i < bidList.length; i++){\r\n            for (uint j = 0; j < i; j++){\r\n                if (bidList[i].quotedAmount < bidList[j].quotedAmount) {\r\n                    Bid memory tempBid = bidList[i];\r\n                    bidList[i] = bidList[j];\r\n                    bidList[j] = tempBid;\r\n                }\r\n            }\r\n        }\r\n        uint256 shortListedBidsCount = (bidList.length < 5) ? bidList.length : 5; \r\n        Bid[] memory shortListedBids = new Bid[](shortListedBidsCount);\r\n        for (uint i = 0; i < shortListedBidsCount; i++){\r\n            shortListedBids[i] = bidList[i];\r\n        }\r\n\r\n        return shortListedBids;\r\n        //returns a list of top 5 bidders and history of bidders\r\n\r\n        // - in case of a tie, the bidder with the largest \"trust\" is given the project. ( Trust in this context is measured in terms of the number of previous projects done and the token assets a party has.)\r\n        // update the status of each bid to APPROVED / REJECTED from PENDING.\r\n    }\r\n\r\n    function finaliseWinnerBid(address _partyAddress, uint256 _tenderId, uint256 _bidId) public isTenderOwner(_partyAddress, _tenderId){\r\n        uint256[] memory tenderBidIds = tenderRef.getBidIds(_tenderId);\r\n        for(uint256 i=0;i< tenderBidIds.length ;i++){\r\n            if(tenderBidIds[i] == _bidId)\r\n                updateBidStatus(_partyAddress, _tenderId, tenderBidIds[i], BidStatus.APPROVED);\r\n            else \r\n                updateBidStatus(_partyAddress, _tenderId, tenderBidIds[i], BidStatus.REJECTED);\r\n        }\r\n        tenderRef.updateTenderStatus(_tenderId, TenderStatus.ASSIGNED);\r\n    }\r\n    \r\n    // function filterBidsByQuotedAmount(Bid[] memory bidList) public returns(Bid[] memory) {\r\n\t// for (uint i = 1; i < bidList.length; i++) {\r\n\t// \tfor (uint j = 0; j < i; j++) {\r\n\t// \t\tif (bidList[i].quotedAmount < bidList[j].quotedAmount) {\r\n\t// \t\t\tBid memory tempBid = bidList[i];\r\n\t// \t\t\tbidList[i] = bidList[j];\r\n\t// \t\t\tbidList[j] = tempBid;\r\n\t// \t\t}\r\n\t// \t}\r\n\t// }\r\n\t// return bidList;\r\n    //  }\r\n\r\n}\r\n",
  "sourcePath": "C:\\Users\\sabba\\OneDrive\\Documents\\BlockchainProject\\blockchain-based-contracting-system\\contracts\\BidContract.sol",
  "compiler": {
    "name": "solc",
    "version": "0.8.19+commit.7dd6d404.Emscripten.clang"
  },
  "schemaVersion": "3.4.13",
  "updatedAt": "2023-04-15T17:53:30.172Z",
  "networkType": "ethereum",
  "devdoc": {
    "kind": "dev",
    "methods": {},
    "version": 1
  },
  "userdoc": {
    "kind": "user",
    "methods": {},
    "version": 1
  }
}