{
  "contractName": "MilestonesContract",
  "abi": [
    {
      "inputs": [
        {
          "internalType": "contract PartyContract",
          "name": "_partyRef",
          "type": "address"
        },
        {
          "internalType": "contract TenderContract",
          "name": "_tenderRef",
          "type": "address"
        },
        {
          "internalType": "contract BidContract",
          "name": "_bidRef",
          "type": "address"
        }
      ],
      "stateMutability": "nonpayable",
      "type": "constructor"
    },
    {
      "inputs": [],
      "name": "bidRef",
      "outputs": [
        {
          "internalType": "contract BidContract",
          "name": "",
          "type": "address"
        }
      ],
      "stateMutability": "view",
      "type": "function",
      "constant": true
    },
    {
      "inputs": [],
      "name": "partyRef",
      "outputs": [
        {
          "internalType": "contract PartyContract",
          "name": "",
          "type": "address"
        }
      ],
      "stateMutability": "view",
      "type": "function",
      "constant": true
    },
    {
      "inputs": [],
      "name": "tenderRef",
      "outputs": [
        {
          "internalType": "contract TenderContract",
          "name": "",
          "type": "address"
        }
      ],
      "stateMutability": "view",
      "type": "function",
      "constant": true
    },
    {
      "inputs": [
        {
          "internalType": "uint256[]",
          "name": "_milestoneTimePeriods",
          "type": "uint256[]"
        },
        {
          "internalType": "uint256",
          "name": "_bidId",
          "type": "uint256"
        },
        {
          "internalType": "uint256",
          "name": "_tenderId",
          "type": "uint256"
        }
      ],
      "name": "setMilestoneTimeline",
      "outputs": [],
      "stateMutability": "nonpayable",
      "type": "function"
    },
    {
      "inputs": [
        {
          "internalType": "uint256",
          "name": "_tenderId",
          "type": "uint256"
        },
        {
          "internalType": "uint256",
          "name": "_milestoneNumber",
          "type": "uint256"
        },
        {
          "internalType": "uint256",
          "name": "_days",
          "type": "uint256"
        }
      ],
      "name": "markMilestoneComplete",
      "outputs": [],
      "stateMutability": "nonpayable",
      "type": "function"
    },
    {
      "inputs": [
        {
          "internalType": "uint256",
          "name": "_tenderId",
          "type": "uint256"
        },
        {
          "internalType": "bool",
          "name": "approval",
          "type": "bool"
        }
      ],
      "name": "approveMilestoneCompletion",
      "outputs": [],
      "stateMutability": "nonpayable",
      "type": "function"
    },
    {
      "inputs": [
        {
          "internalType": "uint256",
          "name": "_tenderId",
          "type": "uint256"
        }
      ],
      "name": "projectCompleted",
      "outputs": [],
      "stateMutability": "nonpayable",
      "type": "function"
    },
    {
      "inputs": [
        {
          "internalType": "uint256",
          "name": "_tenderId",
          "type": "uint256"
        }
      ],
      "name": "projectHalt",
      "outputs": [],
      "stateMutability": "nonpayable",
      "type": "function"
    }
  ],
  "bytecode": "0x60806040523480156200001157600080fd5b5060405162001b4b38038062001b4b83398181016040528101906200003791906200020a565b826000806101000a81548173ffffffffffffffffffffffffffffffffffffffff021916908373ffffffffffffffffffffffffffffffffffffffff16021790555081600160006101000a81548173ffffffffffffffffffffffffffffffffffffffff021916908373ffffffffffffffffffffffffffffffffffffffff16021790555080600260006101000a81548173ffffffffffffffffffffffffffffffffffffffff021916908373ffffffffffffffffffffffffffffffffffffffff16021790555050505062000266565b600080fd5b600073ffffffffffffffffffffffffffffffffffffffff82169050919050565b6000620001348262000107565b9050919050565b6000620001488262000127565b9050919050565b6200015a816200013b565b81146200016657600080fd5b50565b6000815190506200017a816200014f565b92915050565b60006200018d8262000127565b9050919050565b6200019f8162000180565b8114620001ab57600080fd5b50565b600081519050620001bf8162000194565b92915050565b6000620001d28262000127565b9050919050565b620001e481620001c5565b8114620001f057600080fd5b50565b6000815190506200020481620001d9565b92915050565b60008060006060848603121562000226576200022562000102565b5b6000620002368682870162000169565b93505060206200024986828701620001ae565b92505060406200025c86828701620001f3565b9150509250925092565b6118d580620002766000396000f3fe608060405234801561001057600080fd5b50600436106100885760003560e01c806375607db81161005b57806375607db8146100ff5780638d4553991461011b5780638d5b861214610139578063e21c42181461015757610088565b80633c2c02f31461008d5780634093c22b146100a95780636bf26ab1146100c557806374862d47146100e1575b600080fd5b6100a760048036038101906100a29190611007565b610173565b005b6100c360048036038101906100be91906111a0565b6102ba565b005b6100df60048036038101906100da919061120f565b610717565b005b6100e961086e565b6040516100f691906112bb565b60405180910390f35b6101196004803603810190610114919061120f565b610894565b005b610123610c0d565b60405161013091906112f7565b60405180910390f35b610141610c31565b60405161014e9190611333565b60405180910390f35b610171600480360381019061016c919061134e565b610c57565b005b6000600160009054906101000a900473ffffffffffffffffffffffffffffffffffffffff1673ffffffffffffffffffffffffffffffffffffffff16637e4d2d97846040518263ffffffff1660e01b81526004016101d091906113b0565b602060405180830381865afa1580156101ed573d6000803e3d6000fd5b505050506040513d601f19601f820116820180604052508101906102119190611409565b90503373ffffffffffffffffffffffffffffffffffffffff168173ffffffffffffffffffffffffffffffffffffffff1614610281576040517f08c379a0000000000000000000000000000000000000000000000000000000008152600401610278906114b9565b60405180910390fd5b6000600360008581526020019081526020016000209050828160060160006101000a81548160ff02191690831515021790555050505050565b6000600160009054906101000a900473ffffffffffffffffffffffffffffffffffffffff1673ffffffffffffffffffffffffffffffffffffffff16637e4d2d97836040518263ffffffff1660e01b815260040161031791906113b0565b602060405180830381865afa158015610334573d6000803e3d6000fd5b505050506040513d601f19601f820116820180604052508101906103589190611409565b90503373ffffffffffffffffffffffffffffffffffffffff168173ffffffffffffffffffffffffffffffffffffffff16146103c8576040517f08c379a00000000000000000000000000000000000000000000000000000000081526004016103bf9061154b565b60405180910390fd5b60006003600084815260200190815260200160002090506000600260009054906101000a900473ffffffffffffffffffffffffffffffffffffffff1673ffffffffffffffffffffffffffffffffffffffff16635fa38280866040518263ffffffff1660e01b815260040161043c91906113b0565b602060405180830381865afa158015610459573d6000803e3d6000fd5b505050506040513d601f19601f8201168201806040525081019061047d9190611409565b905085826003019080519060200190610497929190610e5a565b50338260010160006101000a81548173ffffffffffffffffffffffffffffffffffffffff021916908373ffffffffffffffffffffffffffffffffffffffff160217905550808260020160006101000a81548173ffffffffffffffffffffffffffffffffffffffff021916908373ffffffffffffffffffffffffffffffffffffffff16021790555083826000018190555060008260060160006101000a81548160ff02191690831515021790555060008260060160016101000a81548160ff0219169083600281111561056c5761056b61156b565b5b02179055508160036000868152602001908152602001600020600082015481600001556001820160009054906101000a900473ffffffffffffffffffffffffffffffffffffffff168160010160006101000a81548173ffffffffffffffffffffffffffffffffffffffff021916908373ffffffffffffffffffffffffffffffffffffffff1602179055506002820160009054906101000a900473ffffffffffffffffffffffffffffffffffffffff168160020160006101000a81548173ffffffffffffffffffffffffffffffffffffffff021916908373ffffffffffffffffffffffffffffffffffffffff1602179055506003820181600301908054610673929190610ea7565b50600482018160040190805461068a929190610ea7565b5060058201816005019080546106a1929190610ef9565b506006820160009054906101000a900460ff168160060160006101000a81548160ff0219169083151502179055506006820160019054906101000a900460ff168160060160016101000a81548160ff021916908360028111156107075761070661156b565b5b0217905550905050505050505050565b6000600160009054906101000a900473ffffffffffffffffffffffffffffffffffffffff1673ffffffffffffffffffffffffffffffffffffffff16637e4d2d97836040518263ffffffff1660e01b815260040161077491906113b0565b602060405180830381865afa158015610791573d6000803e3d6000fd5b505050506040513d601f19601f820116820180604052508101906107b59190611409565b90503373ffffffffffffffffffffffffffffffffffffffff168173ffffffffffffffffffffffffffffffffffffffff1614610825576040517f08c379a000000000000000000000000000000000000000000000000000000000815260040161081c906114b9565b60405180910390fd5b600060036000848152602001908152602001600020905060028160060160016101000a81548160ff021916908360028111156108645761086361156b565b5b0217905550505050565b600260009054906101000a900473ffffffffffffffffffffffffffffffffffffffff1681565b6000600160009054906101000a900473ffffffffffffffffffffffffffffffffffffffff1673ffffffffffffffffffffffffffffffffffffffff16637e4d2d97836040518263ffffffff1660e01b81526004016108f191906113b0565b602060405180830381865afa15801561090e573d6000803e3d6000fd5b505050506040513d601f19601f820116820180604052508101906109329190611409565b90503373ffffffffffffffffffffffffffffffffffffffff168173ffffffffffffffffffffffffffffffffffffffff16146109a2576040517f08c379a0000000000000000000000000000000000000000000000000000000008152600401610999906114b9565b60405180910390fd5b600060036000848152602001908152602001600020905060018160060160016101000a81548160ff021916908360028111156109e1576109e061156b565b5b021790555060008060009054906101000a900473ffffffffffffffffffffffffffffffffffffffff1673ffffffffffffffffffffffffffffffffffffffff16635e09eea18360020160009054906101000a900473ffffffffffffffffffffffffffffffffffffffff166040518263ffffffff1660e01b8152600401610a6691906115a9565b602060405180830381865afa158015610a83573d6000803e3d6000fd5b505050506040513d601f19601f82011682018060405250810190610aa791906115d9565b905060008190506000836005018054905090506000805b82811015610b0757856005018181548110610adc57610adb611606565b5b906000526020600020015482610af2919061166e565b91508080610aff906116b2565b915050610abe565b5060008282610b169190611729565b905060008185610b26919061166e565b90506005811115610b3a5760059550610b51565b6000811015610b4c5760009550610b50565b8095505b5b60008054906101000a900473ffffffffffffffffffffffffffffffffffffffff1673ffffffffffffffffffffffffffffffffffffffff1663feec47588860020160009054906101000a900473ffffffffffffffffffffffffffffffffffffffff16886040518363ffffffff1660e01b8152600401610bd0929190611793565b600060405180830381600087803b158015610bea57600080fd5b505af1158015610bfe573d6000803e3d6000fd5b50505050505050505050505050565b60008054906101000a900473ffffffffffffffffffffffffffffffffffffffff1681565b600160009054906101000a900473ffffffffffffffffffffffffffffffffffffffff1681565b60006003600085815260200190815260200160002090503373ffffffffffffffffffffffffffffffffffffffff168160020160009054906101000a900473ffffffffffffffffffffffffffffffffffffffff1673ffffffffffffffffffffffffffffffffffffffff1614610d00576040517f08c379a0000000000000000000000000000000000000000000000000000000008152600401610cf7906114b9565b60405180910390fd5b600081600401600185610d1391906117bc565b81548110610d2457610d23611606565b5b906000526020600020015414610d6f576040517f08c379a0000000000000000000000000000000000000000000000000000000008152600401610d669061183c565b60405180910390fd5b60008160060160009054906101000a900460ff1690508015610e53578282600401600186610d9d91906117bc565b81548110610dae57610dad611606565b5b9060005260206000200181905550600082600301600186610dcf91906117bc565b81548110610de057610ddf611606565b5b90600052602060002001549050808482610dfa919061185c565b610e049190611729565b83600501600187610e1591906117bc565b81548110610e2657610e25611606565b5b906000526020600020018190555060008360060160006101000a81548160ff021916908315150217905550505b5050505050565b828054828255906000526020600020908101928215610e96579160200282015b82811115610e95578251825591602001919060010190610e7a565b5b509050610ea39190610f4b565b5090565b828054828255906000526020600020908101928215610ee85760005260206000209182015b82811115610ee7578254825591600101919060010190610ecc565b5b509050610ef59190610f4b565b5090565b828054828255906000526020600020908101928215610f3a5760005260206000209182015b82811115610f39578254825591600101919060010190610f1e565b5b509050610f479190610f68565b5090565b5b80821115610f64576000816000905550600101610f4c565b5090565b5b80821115610f81576000816000905550600101610f69565b5090565b6000604051905090565b600080fd5b600080fd5b6000819050919050565b610fac81610f99565b8114610fb757600080fd5b50565b600081359050610fc981610fa3565b92915050565b60008115159050919050565b610fe481610fcf565b8114610fef57600080fd5b50565b60008135905061100181610fdb565b92915050565b6000806040838503121561101e5761101d610f8f565b5b600061102c85828601610fba565b925050602061103d85828601610ff2565b9150509250929050565b600080fd5b6000601f19601f8301169050919050565b7f4e487b7100000000000000000000000000000000000000000000000000000000600052604160045260246000fd5b6110958261104c565b810181811067ffffffffffffffff821117156110b4576110b361105d565b5b80604052505050565b60006110c7610f85565b90506110d3828261108c565b919050565b600067ffffffffffffffff8211156110f3576110f261105d565b5b602082029050602081019050919050565b600080fd5b600061111c611117846110d8565b6110bd565b9050808382526020820190506020840283018581111561113f5761113e611104565b5b835b8181101561116857806111548882610fba565b845260208401935050602081019050611141565b5050509392505050565b600082601f83011261118757611186611047565b5b8135611197848260208601611109565b91505092915050565b6000806000606084860312156111b9576111b8610f8f565b5b600084013567ffffffffffffffff8111156111d7576111d6610f94565b5b6111e386828701611172565b93505060206111f486828701610fba565b925050604061120586828701610fba565b9150509250925092565b60006020828403121561122557611224610f8f565b5b600061123384828501610fba565b91505092915050565b600073ffffffffffffffffffffffffffffffffffffffff82169050919050565b6000819050919050565b600061128161127c6112778461123c565b61125c565b61123c565b9050919050565b600061129382611266565b9050919050565b60006112a582611288565b9050919050565b6112b58161129a565b82525050565b60006020820190506112d060008301846112ac565b92915050565b60006112e182611288565b9050919050565b6112f1816112d6565b82525050565b600060208201905061130c60008301846112e8565b92915050565b600061131d82611288565b9050919050565b61132d81611312565b82525050565b60006020820190506113486000830184611324565b92915050565b60008060006060848603121561136757611366610f8f565b5b600061137586828701610fba565b935050602061138686828701610fba565b925050604061139786828701610fba565b9150509250925092565b6113aa81610f99565b82525050565b60006020820190506113c560008301846113a1565b92915050565b60006113d68261123c565b9050919050565b6113e6816113cb565b81146113f157600080fd5b50565b600081519050611403816113dd565b92915050565b60006020828403121561141f5761141e610f8f565b5b600061142d848285016113f4565b91505092915050565b600082825260208201905092915050565b7f596f75277265206e6f7420617574686f72697a656420746f20706572666f726d60008201527f207468697320616374696f6e2e00000000000000000000000000000000000000602082015250565b60006114a3602d83611436565b91506114ae82611447565b604082019050919050565b600060208201905081810360008301526114d281611496565b9050919050565b7f596f75277265206e6f7420617574686f72697a656420746f20706572666f726d60008201527f20746869732066756e6374696f6e2e0000000000000000000000000000000000602082015250565b6000611535602f83611436565b9150611540826114d9565b604082019050919050565b6000602082019050818103600083015261156481611528565b9050919050565b7f4e487b7100000000000000000000000000000000000000000000000000000000600052602160045260246000fd5b6115a3816113cb565b82525050565b60006020820190506115be600083018461159a565b92915050565b6000815190506115d381610fa3565b92915050565b6000602082840312156115ef576115ee610f8f565b5b60006115fd848285016115c4565b91505092915050565b7f4e487b7100000000000000000000000000000000000000000000000000000000600052603260045260246000fd5b6000819050919050565b7f4e487b7100000000000000000000000000000000000000000000000000000000600052601160045260246000fd5b600061167982611635565b915061168483611635565b9250828201905082811215600083121683821260008412151617156116ac576116ab61163f565b5b92915050565b60006116bd82610f99565b91507fffffffffffffffffffffffffffffffffffffffffffffffffffffffffffffffff82036116ef576116ee61163f565b5b600182019050919050565b7f4e487b7100000000000000000000000000000000000000000000000000000000600052601260045260246000fd5b600061173482611635565b915061173f83611635565b92508261174f5761174e6116fa565b5b600160000383147f8000000000000000000000000000000000000000000000000000000000000000831416156117885761178761163f565b5b828205905092915050565b60006040820190506117a8600083018561159a565b6117b560208301846113a1565b9392505050565b60006117c782610f99565b91506117d283610f99565b92508282039050818111156117ea576117e961163f565b5b92915050565b7f4d696c6573746f6e6520616c726561647920636f6d706c657465642e00000000600082015250565b6000611826601c83611436565b9150611831826117f0565b602082019050919050565b6000602082019050818103600083015261185581611819565b9050919050565b600061186782611635565b915061187283611635565b92508282039050818112600084121682821360008512151617156118995761189861163f565b5b9291505056fea2646970667358221220bd31277ee534157c63342238b8e142ad7600351ca2e05b4a68ae7a2bb3a2311064736f6c63430008130033",
  "immutableReferences": {},
  "source": "// SPDX-License-Identifier: GPL-3.0\r\npragma solidity >=0.7.0 <0.9.0;\r\n\r\nimport './PartyContract.sol';\r\nimport './BidContract.sol';\r\n\r\nenum ProjectStatus{ ONGOING, COMPLETED, HALTED } //bid selected - ONGOING, project completed - COMPLETED, project suspended - HALTED\r\n\r\ncontract MilestonesContract {\r\n    PartyContract public partyRef;\r\n    TenderContract public tenderRef;\r\n    BidContract public bidRef;\r\n\r\n    struct Projects {\r\n        uint256 tenderId;\r\n        address issuerAddress;\r\n        address bidderAddress;\r\n        uint[] milestoneTimePeriods;\r\n        uint[] completedMilestoneTimePeriods;\r\n        int[] workScore;\r\n        bool approvalFromIssuer;\r\n        ProjectStatus projectStatus;\r\n    }\r\n\r\n    constructor(PartyContract _partyRef, TenderContract _tenderRef, BidContract _bidRef){\r\n        partyRef = _partyRef;\r\n        tenderRef = _tenderRef;\r\n        bidRef = _bidRef;\r\n    }\r\n    mapping (uint256 => Projects) projects;\r\n\r\n    function setMilestoneTimeline(uint[] memory _milestoneTimePeriods, uint256 _bidId, uint256 _tenderId) public {\r\n        address issuerAddress = tenderRef.getIssuerAddress(_tenderId);\r\n        require(issuerAddress == msg.sender, \"You're not authorized to perform this function.\");\r\n        Projects storage newProject = projects[_tenderId];\r\n        address _bidderAddress = bidRef.getBidderAddress(_bidId);\r\n        newProject.milestoneTimePeriods = _milestoneTimePeriods;\r\n        newProject.issuerAddress = msg.sender;\r\n        newProject.bidderAddress = _bidderAddress;\r\n        newProject.tenderId = _tenderId;\r\n        newProject.approvalFromIssuer = false;\r\n        newProject.projectStatus = ProjectStatus.ONGOING;\r\n        projects[_tenderId] = newProject;\r\n    }\r\n\r\n    function markMilestoneComplete(uint256 _tenderId, uint _milestoneNumber, uint _days) public {\r\n        Projects storage project = projects[_tenderId];\r\n        require(project.bidderAddress == msg.sender, \"You're not authorized to perform this action.\");\r\n        require(project.completedMilestoneTimePeriods[_milestoneNumber-1] == 0, \"Milestone already completed.\");\r\n        //modify trustscore\r\n        //save days in milestoneCompletion[milestoneNumber-1] after getting approval from issuer\r\n        bool approval = project.approvalFromIssuer;\r\n        if(approval) {\r\n            project.completedMilestoneTimePeriods[_milestoneNumber-1] = _days;\r\n            int decidedDays = int(project.milestoneTimePeriods[_milestoneNumber-1]);\r\n            project.workScore[_milestoneNumber-1] = int((decidedDays - int(_days)) / decidedDays);\r\n            project.approvalFromIssuer = false;\r\n        }\r\n    }\r\n\r\n    function approveMilestoneCompletion(uint256 _tenderId, bool approval) public {\r\n        address issuerAddress = tenderRef.getIssuerAddress(_tenderId);\r\n        require(issuerAddress == msg.sender, \"You're not authorized to perform this action.\");\r\n        Projects storage project = projects[_tenderId];\r\n        project.approvalFromIssuer = approval;\r\n    }\r\n\r\n    function projectCompleted(uint256 _tenderId) public {\r\n        address issuerAddress = tenderRef.getIssuerAddress(_tenderId);\r\n        require(issuerAddress == msg.sender, \"You're not authorized to perform this action.\");\r\n        Projects storage project = projects[_tenderId];\r\n        project.projectStatus = ProjectStatus.COMPLETED;\r\n        // Party memory bidder = PC.getPartyDetails(project.bidderAddress);\r\n        uint256 trustScore = partyRef.getTrustScore(project.bidderAddress);\r\n        int oldTrustScore = int(trustScore);\r\n        uint len = project.workScore.length;\r\n        int sum = 0;\r\n        for(uint i=0; i < len; i++) {\r\n            sum = sum + project.workScore[i];\r\n        }\r\n        int avgWorkScore = sum/int(len);\r\n        uint256 newTrustScore = uint(oldTrustScore + avgWorkScore);\r\n\r\n        if(newTrustScore > 5) {\r\n            trustScore = 5;\r\n        }\r\n        else if(newTrustScore < 0) {\r\n            trustScore = 0;\r\n        }\r\n        else {\r\n            trustScore = newTrustScore;\r\n        }\r\n        partyRef.setTrustScore(project.bidderAddress, trustScore);\r\n    }\r\n\r\n    function projectHalt(uint256 _tenderId) public {\r\n        address issuerAddress = tenderRef.getIssuerAddress(_tenderId);\r\n        require(issuerAddress == msg.sender, \"You're not authorized to perform this action.\");\r\n        Projects storage project = projects[_tenderId];\r\n        project.projectStatus = ProjectStatus.HALTED;\r\n    }\r\n}\r\n",
  "sourcePath": "C:\\Users\\sabba\\OneDrive\\Documents\\BlockchainProject\\blockchain-based-contracting-system\\contracts\\MilestonesContract.sol",
  "compiler": {
    "name": "solc",
    "version": "0.8.19+commit.7dd6d404.Emscripten.clang"
  },
  "schemaVersion": "3.4.13",
  "updatedAt": "2023-04-14T21:53:50.178Z",
  "networkType": "ethereum",
  "devdoc": {
    "kind": "dev",
    "methods": {},
    "version": 1
  },
  "userdoc": {
    "kind": "user",
    "methods": {},
    "version": 1
  }
}