{
  "contractName": "MilestonesContract",
  "abi": [
    {
      "inputs": [
        {
          "internalType": "contract PartyContract",
          "name": "_partyRef",
          "type": "address"
        },
        {
          "internalType": "contract TenderContract",
          "name": "_tenderRef",
          "type": "address"
        },
        {
          "internalType": "contract BidContract",
          "name": "_bidRef",
          "type": "address"
        }
      ],
      "stateMutability": "nonpayable",
      "type": "constructor"
    },
    {
      "inputs": [],
      "name": "bidRef",
      "outputs": [
        {
          "internalType": "contract BidContract",
          "name": "",
          "type": "address"
        }
      ],
      "stateMutability": "view",
      "type": "function",
      "constant": true
    },
    {
      "inputs": [],
      "name": "partyRef",
      "outputs": [
        {
          "internalType": "contract PartyContract",
          "name": "",
          "type": "address"
        }
      ],
      "stateMutability": "view",
      "type": "function",
      "constant": true
    },
    {
      "inputs": [],
      "name": "tenderRef",
      "outputs": [
        {
          "internalType": "contract TenderContract",
          "name": "",
          "type": "address"
        }
      ],
      "stateMutability": "view",
      "type": "function",
      "constant": true
    },
    {
      "inputs": [
        {
          "internalType": "uint256[]",
          "name": "_milestoneTimePeriods",
          "type": "uint256[]"
        },
        {
          "internalType": "uint256",
          "name": "_bidId",
          "type": "uint256"
        },
        {
          "internalType": "uint256",
          "name": "_tenderId",
          "type": "uint256"
        }
      ],
      "name": "setMilestoneTimeline",
      "outputs": [],
      "stateMutability": "nonpayable",
      "type": "function"
    },
    {
      "inputs": [
        {
          "internalType": "uint256",
          "name": "_tenderId",
          "type": "uint256"
        },
        {
          "internalType": "uint256",
          "name": "_milestoneNumber",
          "type": "uint256"
        },
        {
          "internalType": "uint256",
          "name": "_days",
          "type": "uint256"
        }
      ],
      "name": "markMilestoneComplete",
      "outputs": [],
      "stateMutability": "nonpayable",
      "type": "function"
    },
    {
      "inputs": [
        {
          "internalType": "uint256",
          "name": "_tenderId",
          "type": "uint256"
        },
        {
          "internalType": "bool",
          "name": "approval",
          "type": "bool"
        }
      ],
      "name": "approveMilestoneCompletion",
      "outputs": [],
      "stateMutability": "nonpayable",
      "type": "function"
    },
    {
      "inputs": [
        {
          "internalType": "uint256",
          "name": "_tenderId",
          "type": "uint256"
        }
      ],
      "name": "projectCompleted",
      "outputs": [],
      "stateMutability": "nonpayable",
      "type": "function"
    },
    {
      "inputs": [
        {
          "internalType": "uint256",
          "name": "_tenderId",
          "type": "uint256"
        }
      ],
      "name": "projectHalt",
      "outputs": [],
      "stateMutability": "nonpayable",
      "type": "function"
    },
    {
      "inputs": [
        {
          "internalType": "uint256",
          "name": "_tenderId",
          "type": "uint256"
        },
        {
          "internalType": "uint256",
          "name": "_days",
          "type": "uint256"
        }
      ],
      "name": "addMilestone",
      "outputs": [],
      "stateMutability": "nonpayable",
      "type": "function"
    }
  ],
  "bytecode": "0x60806040523480156200001157600080fd5b5060405162001e9e38038062001e9e83398181016040528101906200003791906200020a565b826000806101000a81548173ffffffffffffffffffffffffffffffffffffffff021916908373ffffffffffffffffffffffffffffffffffffffff16021790555081600160006101000a81548173ffffffffffffffffffffffffffffffffffffffff021916908373ffffffffffffffffffffffffffffffffffffffff16021790555080600260006101000a81548173ffffffffffffffffffffffffffffffffffffffff021916908373ffffffffffffffffffffffffffffffffffffffff16021790555050505062000266565b600080fd5b600073ffffffffffffffffffffffffffffffffffffffff82169050919050565b6000620001348262000107565b9050919050565b6000620001488262000127565b9050919050565b6200015a816200013b565b81146200016657600080fd5b50565b6000815190506200017a816200014f565b92915050565b60006200018d8262000127565b9050919050565b6200019f8162000180565b8114620001ab57600080fd5b50565b600081519050620001bf8162000194565b92915050565b6000620001d28262000127565b9050919050565b620001e481620001c5565b8114620001f057600080fd5b50565b6000815190506200020481620001d9565b92915050565b60008060006060848603121562000226576200022562000102565b5b6000620002368682870162000169565b93505060206200024986828701620001ae565b92505060406200025c86828701620001f3565b9150509250925092565b611c2880620002766000396000f3fe608060405234801561001057600080fd5b50600436106100935760003560e01c806374862d471161006657806374862d471461010857806375607db8146101265780638d455399146101425780638d5b861214610160578063e21c42181461017e57610093565b80633c2c02f3146100985780634093c22b146100b45780635601477b146100d05780636bf26ab1146100ec575b600080fd5b6100b260048036038101906100ad9190611254565b61019a565b005b6100ce60048036038101906100c991906113ed565b6102e1565b005b6100ea60048036038101906100e5919061145c565b6107f2565b005b6101066004803603810190610101919061149c565b610964565b005b610110610abb565b60405161011d9190611548565b60405180910390f35b610140600480360381019061013b919061149c565b610ae1565b005b61014a610e5a565b6040516101579190611584565b60405180910390f35b610168610e7e565b60405161017591906115c0565b60405180910390f35b610198600480360381019061019391906115db565b610ea4565b005b6000600160009054906101000a900473ffffffffffffffffffffffffffffffffffffffff1673ffffffffffffffffffffffffffffffffffffffff16637e4d2d97846040518263ffffffff1660e01b81526004016101f7919061163d565b602060405180830381865afa158015610214573d6000803e3d6000fd5b505050506040513d601f19601f820116820180604052508101906102389190611696565b90503373ffffffffffffffffffffffffffffffffffffffff168173ffffffffffffffffffffffffffffffffffffffff16146102a8576040517f08c379a000000000000000000000000000000000000000000000000000000000815260040161029f90611746565b60405180910390fd5b6000600360008581526020019081526020016000209050828160070160006101000a81548160ff02191690831515021790555050505050565b6000600160009054906101000a900473ffffffffffffffffffffffffffffffffffffffff1673ffffffffffffffffffffffffffffffffffffffff16637e4d2d97836040518263ffffffff1660e01b815260040161033e919061163d565b602060405180830381865afa15801561035b573d6000803e3d6000fd5b505050506040513d601f19601f8201168201806040525081019061037f9190611696565b90506000600160009054906101000a900473ffffffffffffffffffffffffffffffffffffffff1673ffffffffffffffffffffffffffffffffffffffff1663e2e5384d846040518263ffffffff1660e01b81526004016103de919061163d565b602060405180830381865afa1580156103fb573d6000803e3d6000fd5b505050506040513d601f19601f8201168201806040525081019061041f919061177b565b90503373ffffffffffffffffffffffffffffffffffffffff168273ffffffffffffffffffffffffffffffffffffffff161461048f576040517f08c379a00000000000000000000000000000000000000000000000000000000081526004016104869061181a565b60405180910390fd5b60006003600085815260200190815260200160002090506000600260009054906101000a900473ffffffffffffffffffffffffffffffffffffffff1673ffffffffffffffffffffffffffffffffffffffff16635fa38280876040518263ffffffff1660e01b8152600401610503919061163d565b602060405180830381865afa158015610520573d6000803e3d6000fd5b505050506040513d601f19601f820116820180604052508101906105449190611696565b90508682600401908051906020019061055e9291906110a7565b50338260010160006101000a81548173ffffffffffffffffffffffffffffffffffffffff021916908373ffffffffffffffffffffffffffffffffffffffff160217905550808260020160006101000a81548173ffffffffffffffffffffffffffffffffffffffff021916908373ffffffffffffffffffffffffffffffffffffffff16021790555082826003018190555084826000018190555060008260070160006101000a81548160ff02191690831515021790555060008260070160016101000a81548160ff0219169083600281111561063c5761063b61183a565b5b02179055508160036000878152602001908152602001600020600082015481600001556001820160009054906101000a900473ffffffffffffffffffffffffffffffffffffffff168160010160006101000a81548173ffffffffffffffffffffffffffffffffffffffff021916908373ffffffffffffffffffffffffffffffffffffffff1602179055506002820160009054906101000a900473ffffffffffffffffffffffffffffffffffffffff168160020160006101000a81548173ffffffffffffffffffffffffffffffffffffffff021916908373ffffffffffffffffffffffffffffffffffffffff16021790555060038201548160030155600482018160040190805461074d9291906110f4565b5060058201816005019080546107649291906110f4565b50600682018160060190805461077b929190611146565b506007820160009054906101000a900460ff168160070160006101000a81548160ff0219169083151502179055506007820160019054906101000a900460ff168160070160016101000a81548160ff021916908360028111156107e1576107e061183a565b5b021790555090505050505050505050565b6000600160009054906101000a900473ffffffffffffffffffffffffffffffffffffffff1673ffffffffffffffffffffffffffffffffffffffff16637e4d2d97846040518263ffffffff1660e01b815260040161084f919061163d565b602060405180830381865afa15801561086c573d6000803e3d6000fd5b505050506040513d601f19601f820116820180604052508101906108909190611696565b90503373ffffffffffffffffffffffffffffffffffffffff168173ffffffffffffffffffffffffffffffffffffffff1614610900576040517f08c379a00000000000000000000000000000000000000000000000000000000081526004016108f7906118db565b60405180910390fd5b6000600360008581526020019081526020016000209050806004018390806001815401808255809150506001900390600052602060002001600090919091909150556001816003016000828254610957919061192a565b9250508190555050505050565b6000600160009054906101000a900473ffffffffffffffffffffffffffffffffffffffff1673ffffffffffffffffffffffffffffffffffffffff16637e4d2d97836040518263ffffffff1660e01b81526004016109c1919061163d565b602060405180830381865afa1580156109de573d6000803e3d6000fd5b505050506040513d601f19601f82011682018060405250810190610a029190611696565b90503373ffffffffffffffffffffffffffffffffffffffff168173ffffffffffffffffffffffffffffffffffffffff1614610a72576040517f08c379a0000000000000000000000000000000000000000000000000000000008152600401610a6990611746565b60405180910390fd5b600060036000848152602001908152602001600020905060028160070160016101000a81548160ff02191690836002811115610ab157610ab061183a565b5b0217905550505050565b600260009054906101000a900473ffffffffffffffffffffffffffffffffffffffff1681565b6000600160009054906101000a900473ffffffffffffffffffffffffffffffffffffffff1673ffffffffffffffffffffffffffffffffffffffff16637e4d2d97836040518263ffffffff1660e01b8152600401610b3e919061163d565b602060405180830381865afa158015610b5b573d6000803e3d6000fd5b505050506040513d601f19601f82011682018060405250810190610b7f9190611696565b90503373ffffffffffffffffffffffffffffffffffffffff168173ffffffffffffffffffffffffffffffffffffffff1614610bef576040517f08c379a0000000000000000000000000000000000000000000000000000000008152600401610be690611746565b60405180910390fd5b600060036000848152602001908152602001600020905060018160070160016101000a81548160ff02191690836002811115610c2e57610c2d61183a565b5b021790555060008060009054906101000a900473ffffffffffffffffffffffffffffffffffffffff1673ffffffffffffffffffffffffffffffffffffffff16635e09eea18360020160009054906101000a900473ffffffffffffffffffffffffffffffffffffffff166040518263ffffffff1660e01b8152600401610cb3919061196d565b602060405180830381865afa158015610cd0573d6000803e3d6000fd5b505050506040513d601f19601f82011682018060405250810190610cf4919061177b565b905060008190506000836006018054905090506000805b82811015610d5457856006018181548110610d2957610d28611988565b5b906000526020600020015482610d3f91906119c1565b91508080610d4c90611a05565b915050610d0b565b5060008282610d639190611a7c565b905060008185610d7391906119c1565b90506005811115610d875760059550610d9e565b6000811015610d995760009550610d9d565b8095505b5b60008054906101000a900473ffffffffffffffffffffffffffffffffffffffff1673ffffffffffffffffffffffffffffffffffffffff1663feec47588860020160009054906101000a900473ffffffffffffffffffffffffffffffffffffffff16886040518363ffffffff1660e01b8152600401610e1d929190611ae6565b600060405180830381600087803b158015610e3757600080fd5b505af1158015610e4b573d6000803e3d6000fd5b50505050505050505050505050565b60008054906101000a900473ffffffffffffffffffffffffffffffffffffffff1681565b600160009054906101000a900473ffffffffffffffffffffffffffffffffffffffff1681565b60006003600085815260200190815260200160002090503373ffffffffffffffffffffffffffffffffffffffff168160020160009054906101000a900473ffffffffffffffffffffffffffffffffffffffff1673ffffffffffffffffffffffffffffffffffffffff1614610f4d576040517f08c379a0000000000000000000000000000000000000000000000000000000008152600401610f4490611746565b60405180910390fd5b600081600501600185610f609190611b0f565b81548110610f7157610f70611988565b5b906000526020600020015414610fbc576040517f08c379a0000000000000000000000000000000000000000000000000000000008152600401610fb390611b8f565b60405180910390fd5b60008160070160009054906101000a900460ff16905080156110a0578282600501600186610fea9190611b0f565b81548110610ffb57610ffa611988565b5b906000526020600020018190555060008260040160018661101c9190611b0f565b8154811061102d5761102c611988565b5b906000526020600020015490508084826110479190611baf565b6110519190611a7c565b836006016001876110629190611b0f565b8154811061107357611072611988565b5b906000526020600020018190555060008360070160006101000a81548160ff021916908315150217905550505b5050505050565b8280548282559060005260206000209081019282156110e3579160200282015b828111156110e25782518255916020019190600101906110c7565b5b5090506110f09190611198565b5090565b8280548282559060005260206000209081019282156111355760005260206000209182015b82811115611134578254825591600101919060010190611119565b5b5090506111429190611198565b5090565b8280548282559060005260206000209081019282156111875760005260206000209182015b8281111561118657825482559160010191906001019061116b565b5b50905061119491906111b5565b5090565b5b808211156111b1576000816000905550600101611199565b5090565b5b808211156111ce5760008160009055506001016111b6565b5090565b6000604051905090565b600080fd5b600080fd5b6000819050919050565b6111f9816111e6565b811461120457600080fd5b50565b600081359050611216816111f0565b92915050565b60008115159050919050565b6112318161121c565b811461123c57600080fd5b50565b60008135905061124e81611228565b92915050565b6000806040838503121561126b5761126a6111dc565b5b600061127985828601611207565b925050602061128a8582860161123f565b9150509250929050565b600080fd5b6000601f19601f8301169050919050565b7f4e487b7100000000000000000000000000000000000000000000000000000000600052604160045260246000fd5b6112e282611299565b810181811067ffffffffffffffff82111715611301576113006112aa565b5b80604052505050565b60006113146111d2565b905061132082826112d9565b919050565b600067ffffffffffffffff8211156113405761133f6112aa565b5b602082029050602081019050919050565b600080fd5b600061136961136484611325565b61130a565b9050808382526020820190506020840283018581111561138c5761138b611351565b5b835b818110156113b557806113a18882611207565b84526020840193505060208101905061138e565b5050509392505050565b600082601f8301126113d4576113d3611294565b5b81356113e4848260208601611356565b91505092915050565b600080600060608486031215611406576114056111dc565b5b600084013567ffffffffffffffff811115611424576114236111e1565b5b611430868287016113bf565b935050602061144186828701611207565b925050604061145286828701611207565b9150509250925092565b60008060408385031215611473576114726111dc565b5b600061148185828601611207565b925050602061149285828601611207565b9150509250929050565b6000602082840312156114b2576114b16111dc565b5b60006114c084828501611207565b91505092915050565b600073ffffffffffffffffffffffffffffffffffffffff82169050919050565b6000819050919050565b600061150e611509611504846114c9565b6114e9565b6114c9565b9050919050565b6000611520826114f3565b9050919050565b600061153282611515565b9050919050565b61154281611527565b82525050565b600060208201905061155d6000830184611539565b92915050565b600061156e82611515565b9050919050565b61157e81611563565b82525050565b60006020820190506115996000830184611575565b92915050565b60006115aa82611515565b9050919050565b6115ba8161159f565b82525050565b60006020820190506115d560008301846115b1565b92915050565b6000806000606084860312156115f4576115f36111dc565b5b600061160286828701611207565b935050602061161386828701611207565b925050604061162486828701611207565b9150509250925092565b611637816111e6565b82525050565b6000602082019050611652600083018461162e565b92915050565b6000611663826114c9565b9050919050565b61167381611658565b811461167e57600080fd5b50565b6000815190506116908161166a565b92915050565b6000602082840312156116ac576116ab6111dc565b5b60006116ba84828501611681565b91505092915050565b600082825260208201905092915050565b7f596f75277265206e6f7420617574686f72697a656420746f20706572666f726d60008201527f207468697320616374696f6e2e00000000000000000000000000000000000000602082015250565b6000611730602d836116c3565b915061173b826116d4565b604082019050919050565b6000602082019050818103600083015261175f81611723565b9050919050565b600081519050611775816111f0565b92915050565b600060208284031215611791576117906111dc565b5b600061179f84828501611766565b91505092915050565b7f596f75277265206e6f7420617574686f72697a656420746f20706572666f726d60008201527f20746869732066756e6374696f6e2e0000000000000000000000000000000000602082015250565b6000611804602f836116c3565b915061180f826117a8565b604082019050919050565b60006020820190508181036000830152611833816117f7565b9050919050565b7f4e487b7100000000000000000000000000000000000000000000000000000000600052602160045260246000fd5b7f596f75277265206e6f7420617574686f726973656420746f20706572666f726d60008201527f207468697320616374696f6e2e00000000000000000000000000000000000000602082015250565b60006118c5602d836116c3565b91506118d082611869565b604082019050919050565b600060208201905081810360008301526118f4816118b8565b9050919050565b7f4e487b7100000000000000000000000000000000000000000000000000000000600052601160045260246000fd5b6000611935826111e6565b9150611940836111e6565b9250828201905080821115611958576119576118fb565b5b92915050565b61196781611658565b82525050565b6000602082019050611982600083018461195e565b92915050565b7f4e487b7100000000000000000000000000000000000000000000000000000000600052603260045260246000fd5b6000819050919050565b60006119cc826119b7565b91506119d7836119b7565b9250828201905082811215600083121683821260008412151617156119ff576119fe6118fb565b5b92915050565b6000611a10826111e6565b91507fffffffffffffffffffffffffffffffffffffffffffffffffffffffffffffffff8203611a4257611a416118fb565b5b600182019050919050565b7f4e487b7100000000000000000000000000000000000000000000000000000000600052601260045260246000fd5b6000611a87826119b7565b9150611a92836119b7565b925082611aa257611aa1611a4d565b5b600160000383147f800000000000000000000000000000000000000000000000000000000000000083141615611adb57611ada6118fb565b5b828205905092915050565b6000604082019050611afb600083018561195e565b611b08602083018461162e565b9392505050565b6000611b1a826111e6565b9150611b25836111e6565b9250828203905081811115611b3d57611b3c6118fb565b5b92915050565b7f4d696c6573746f6e6520616c726561647920636f6d706c657465642e00000000600082015250565b6000611b79601c836116c3565b9150611b8482611b43565b602082019050919050565b60006020820190508181036000830152611ba881611b6c565b9050919050565b6000611bba826119b7565b9150611bc5836119b7565b9250828203905081811260008412168282136000851215161715611bec57611beb6118fb565b5b9291505056fea2646970667358221220384e1c0060c36dc7bae9e997c21e127f5d69feb6b6f48abe0fa6f9f7662cbb0764736f6c63430008130033",
  "immutableReferences": {},
  "source": "// SPDX-License-Identifier: GPL-3.0\r\npragma solidity >=0.7.0 <0.9.0;\r\n\r\nimport './PartyContract.sol';\r\nimport './BidContract.sol';\r\n\r\nenum ProjectStatus{ ONGOING, COMPLETED, HALTED } //bid selected - ONGOING, project completed - COMPLETED, project suspended - HALTED\r\n\r\ncontract MilestonesContract {\r\n    PartyContract public partyRef;\r\n    TenderContract public tenderRef;\r\n    BidContract public bidRef;\r\n\r\n    struct Projects {\r\n        uint256 tenderId;\r\n        address issuerAddress;\r\n        address bidderAddress;\r\n        uint256 totalMilestones;\r\n        uint[] milestoneTimePeriods;\r\n        uint[] completedMilestoneTimePeriods;\r\n        int[] workScore;\r\n        bool approvalFromIssuer;\r\n        ProjectStatus projectStatus;\r\n    }\r\n\r\n    constructor(PartyContract _partyRef, TenderContract _tenderRef, BidContract _bidRef){\r\n        partyRef = _partyRef;\r\n        tenderRef = _tenderRef;\r\n        bidRef = _bidRef;\r\n    }\r\n    mapping (uint256 => Projects) projects;\r\n\r\n    function setMilestoneTimeline(uint[] memory _milestoneTimePeriods, uint256 _bidId, uint256 _tenderId) public {\r\n        address issuerAddress = tenderRef.getIssuerAddress(_tenderId);\r\n        uint256 _totalMilestones = tenderRef.getTotalMilestones(_tenderId);\r\n        require(issuerAddress == msg.sender, \"You're not authorized to perform this function.\");\r\n        Projects storage newProject = projects[_tenderId];\r\n        address _bidderAddress = bidRef.getBidderAddress(_bidId);\r\n        newProject.milestoneTimePeriods = _milestoneTimePeriods;\r\n        newProject.issuerAddress = msg.sender;\r\n        newProject.bidderAddress = _bidderAddress;\r\n        newProject.totalMilestones = _totalMilestones;\r\n        newProject.tenderId = _tenderId;\r\n        newProject.approvalFromIssuer = false;\r\n        newProject.projectStatus = ProjectStatus.ONGOING;\r\n        projects[_tenderId] = newProject;\r\n    }\r\n\r\n    function markMilestoneComplete(uint256 _tenderId, uint _milestoneNumber, uint _days) public {\r\n        Projects storage project = projects[_tenderId];\r\n        require(project.bidderAddress == msg.sender, \"You're not authorized to perform this action.\");\r\n        require(project.completedMilestoneTimePeriods[_milestoneNumber-1] == 0, \"Milestone already completed.\");\r\n        //modify trustscore\r\n        //save days in milestoneCompletion[milestoneNumber-1] after getting approval from issuer\r\n        bool approval = project.approvalFromIssuer;\r\n        if(approval) {\r\n            project.completedMilestoneTimePeriods[_milestoneNumber-1] = _days;\r\n            int decidedDays = int(project.milestoneTimePeriods[_milestoneNumber-1]);\r\n            project.workScore[_milestoneNumber-1] = int((decidedDays - int(_days)) / decidedDays);\r\n            project.approvalFromIssuer = false;\r\n        }\r\n    }\r\n\r\n    function approveMilestoneCompletion(uint256 _tenderId, bool approval) public {\r\n        address issuerAddress = tenderRef.getIssuerAddress(_tenderId);\r\n        require(issuerAddress == msg.sender, \"You're not authorized to perform this action.\");\r\n        Projects storage project = projects[_tenderId];\r\n        project.approvalFromIssuer = approval;\r\n    }\r\n\r\n    function projectCompleted(uint256 _tenderId) public {\r\n        address issuerAddress = tenderRef.getIssuerAddress(_tenderId);\r\n        require(issuerAddress == msg.sender, \"You're not authorized to perform this action.\");\r\n        Projects storage project = projects[_tenderId];\r\n        project.projectStatus = ProjectStatus.COMPLETED;\r\n        // Party memory bidder = PC.getPartyDetails(project.bidderAddress);\r\n        uint256 trustScore = partyRef.getTrustScore(project.bidderAddress);\r\n        int oldTrustScore = int(trustScore);\r\n        uint len = project.workScore.length;\r\n        int sum = 0;\r\n        for(uint i=0; i < len; i++) {\r\n            sum = sum + project.workScore[i];\r\n        }\r\n        int avgWorkScore = sum/int(len);\r\n        uint256 newTrustScore = uint(oldTrustScore + avgWorkScore);\r\n\r\n        if(newTrustScore > 5) {\r\n            trustScore = 5;\r\n        }\r\n        else if(newTrustScore < 0) {\r\n            trustScore = 0;\r\n        }\r\n        else {\r\n            trustScore = newTrustScore;\r\n        }\r\n        partyRef.setTrustScore(project.bidderAddress, trustScore);\r\n    }\r\n\r\n    function projectHalt(uint256 _tenderId) public {\r\n        address issuerAddress = tenderRef.getIssuerAddress(_tenderId);\r\n        require(issuerAddress == msg.sender, \"You're not authorized to perform this action.\");\r\n        Projects storage project = projects[_tenderId];\r\n        project.projectStatus = ProjectStatus.HALTED;\r\n    }\r\n\r\n    function addMilestone(uint256 _tenderId, uint256 _days) public {\r\n        address issuerAddress = tenderRef.getIssuerAddress(_tenderId);\r\n        require(issuerAddress == msg.sender, \"You're not authorised to perform this action.\");\r\n        Projects storage project = projects[_tenderId];\r\n\r\n        project.milestoneTimePeriods.push(_days);\r\n        project.totalMilestones += 1;\r\n    }\r\n}\r\n",
  "sourcePath": "C:\\Users\\sabba\\OneDrive\\Documents\\BlockchainProject\\blockchain-based-contracting-system\\contracts\\MilestonesContract.sol",
  "compiler": {
    "name": "solc",
    "version": "0.8.19+commit.7dd6d404.Emscripten.clang"
  },
  "schemaVersion": "3.4.13",
  "updatedAt": "2023-04-15T10:21:50.401Z",
  "networkType": "ethereum",
  "devdoc": {
    "kind": "dev",
    "methods": {},
    "version": 1
  },
  "userdoc": {
    "kind": "user",
    "methods": {},
    "version": 1
  }
}