{
  "contractName": "PartyContract",
  "abi": [
    {
      "inputs": [],
      "stateMutability": "nonpayable",
      "type": "constructor"
    },
    {
      "inputs": [],
      "name": "admin",
      "outputs": [
        {
          "internalType": "address",
          "name": "",
          "type": "address"
        }
      ],
      "stateMutability": "view",
      "type": "function",
      "constant": true
    },
    {
      "inputs": [
        {
          "internalType": "address",
          "name": "",
          "type": "address"
        }
      ],
      "name": "parties",
      "outputs": [
        {
          "internalType": "string",
          "name": "name",
          "type": "string"
        },
        {
          "internalType": "string",
          "name": "contactNumber",
          "type": "string"
        },
        {
          "internalType": "string",
          "name": "email",
          "type": "string"
        },
        {
          "internalType": "string",
          "name": "password",
          "type": "string"
        },
        {
          "internalType": "uint256",
          "name": "trustScore",
          "type": "uint256"
        },
        {
          "internalType": "uint256",
          "name": "createdAt",
          "type": "uint256"
        },
        {
          "internalType": "address",
          "name": "partyAddress",
          "type": "address"
        }
      ],
      "stateMutability": "view",
      "type": "function",
      "constant": true
    },
    {
      "inputs": [
        {
          "internalType": "uint256",
          "name": "",
          "type": "uint256"
        }
      ],
      "name": "partyAddresses",
      "outputs": [
        {
          "internalType": "address",
          "name": "",
          "type": "address"
        }
      ],
      "stateMutability": "view",
      "type": "function",
      "constant": true
    },
    {
      "inputs": [
        {
          "internalType": "string",
          "name": "_name",
          "type": "string"
        },
        {
          "internalType": "string",
          "name": "_contactNumber",
          "type": "string"
        },
        {
          "internalType": "string",
          "name": "_email",
          "type": "string"
        },
        {
          "internalType": "string",
          "name": "_password",
          "type": "string"
        },
        {
          "internalType": "address",
          "name": "_partyAddress",
          "type": "address"
        }
      ],
      "name": "createParty",
      "outputs": [],
      "stateMutability": "nonpayable",
      "type": "function"
    },
    {
      "inputs": [
        {
          "internalType": "string",
          "name": "_name",
          "type": "string"
        },
        {
          "internalType": "string",
          "name": "_password",
          "type": "string"
        },
        {
          "internalType": "address",
          "name": "_partyAddress",
          "type": "address"
        }
      ],
      "name": "updateParty",
      "outputs": [],
      "stateMutability": "nonpayable",
      "type": "function"
    },
    {
      "inputs": [
        {
          "internalType": "address",
          "name": "_partyAddress",
          "type": "address"
        }
      ],
      "name": "deleteParty",
      "outputs": [],
      "stateMutability": "nonpayable",
      "type": "function"
    },
    {
      "inputs": [
        {
          "internalType": "address",
          "name": "_partyAddress",
          "type": "address"
        }
      ],
      "name": "getPartyDetails",
      "outputs": [
        {
          "internalType": "string",
          "name": "",
          "type": "string"
        },
        {
          "internalType": "string",
          "name": "",
          "type": "string"
        },
        {
          "internalType": "string",
          "name": "",
          "type": "string"
        },
        {
          "internalType": "address",
          "name": "",
          "type": "address"
        },
        {
          "internalType": "uint256",
          "name": "",
          "type": "uint256"
        },
        {
          "internalType": "string",
          "name": "",
          "type": "string"
        }
      ],
      "stateMutability": "view",
      "type": "function",
      "constant": true
    }
  ],
  "bytecode": "0x608060405234801561001057600080fd5b50611d8b806100206000396000f3fe608060405234801561001057600080fd5b506004361061007c5760003560e01c80637a0c7d391161005b5780637a0c7d3914610108578063c792d8fd14610124578063ef8c039114610154578063f851a440146101705761007c565b8062da722814610081578063171fd848146100b65780634f235207146100d2575b600080fd5b61009b6004803603810190610096919061131e565b61018e565b6040516100ad96959493929190611403565b60405180910390f35b6100d060048036038101906100cb91906115b5565b6106c7565b005b6100ec60048036038101906100e7919061131e565b6109b4565b6040516100ff97969594939291906116a0565b60405180910390f35b610122600480360381019061011d919061172b565b610c36565b005b61013e600480360381019061013991906117e2565b610de4565b60405161014b919061180f565b60405180910390f35b61016e6004803603810190610169919061131e565b610e23565b005b6101786111bb565b604051610185919061180f565b60405180910390f35b60608060606000806060868073ffffffffffffffffffffffffffffffffffffffff163373ffffffffffffffffffffffffffffffffffffffff1614610207576040517f08c379a00000000000000000000000000000000000000000000000000000000081526004016101fe90611876565b60405180910390fd5b87600073ffffffffffffffffffffffffffffffffffffffff166000808373ffffffffffffffffffffffffffffffffffffffff1673ffffffffffffffffffffffffffffffffffffffff16815260200190815260200160002060060160009054906101000a900473ffffffffffffffffffffffffffffffffffffffff1673ffffffffffffffffffffffffffffffffffffffff16036102d8576040517f08c379a00000000000000000000000000000000000000000000000000000000081526004016102cf906118e2565b60405180910390fd5b6000808a73ffffffffffffffffffffffffffffffffffffffff1673ffffffffffffffffffffffffffffffffffffffff1681526020019081526020016000206000016000808b73ffffffffffffffffffffffffffffffffffffffff1673ffffffffffffffffffffffffffffffffffffffff1681526020019081526020016000206001016000808c73ffffffffffffffffffffffffffffffffffffffff1673ffffffffffffffffffffffffffffffffffffffff1681526020019081526020016000206002016000808d73ffffffffffffffffffffffffffffffffffffffff1673ffffffffffffffffffffffffffffffffffffffff16815260200190815260200160002060060160009054906101000a900473ffffffffffffffffffffffffffffffffffffffff166000808e73ffffffffffffffffffffffffffffffffffffffff1673ffffffffffffffffffffffffffffffffffffffff168152602001908152602001600020600401546000808f73ffffffffffffffffffffffffffffffffffffffff1673ffffffffffffffffffffffffffffffffffffffff16815260200190815260200160002060030185805461048c90611931565b80601f01602080910402602001604051908101604052809291908181526020018280546104b890611931565b80156105055780601f106104da57610100808354040283529160200191610505565b820191906000526020600020905b8154815290600101906020018083116104e857829003601f168201915b5050505050955084805461051890611931565b80601f016020809104026020016040519081016040528092919081815260200182805461054490611931565b80156105915780601f1061056657610100808354040283529160200191610591565b820191906000526020600020905b81548152906001019060200180831161057457829003601f168201915b505050505094508380546105a490611931565b80601f01602080910402602001604051908101604052809291908181526020018280546105d090611931565b801561061d5780601f106105f25761010080835404028352916020019161061d565b820191906000526020600020905b81548152906001019060200180831161060057829003601f168201915b5050505050935080805461063090611931565b80601f016020809104026020016040519081016040528092919081815260200182805461065c90611931565b80156106a95780601f1061067e576101008083540402835291602001916106a9565b820191906000526020600020905b81548152906001019060200180831161068c57829003601f168201915b50505050509050975097509750975097509750505091939550919395565b808073ffffffffffffffffffffffffffffffffffffffff163373ffffffffffffffffffffffffffffffffffffffff1614610736576040517f08c379a000000000000000000000000000000000000000000000000000000000815260040161072d90611876565b60405180910390fd5b600073ffffffffffffffffffffffffffffffffffffffff166000808473ffffffffffffffffffffffffffffffffffffffff1673ffffffffffffffffffffffffffffffffffffffff16815260200190815260200160002060060160009054906101000a900473ffffffffffffffffffffffffffffffffffffffff1673ffffffffffffffffffffffffffffffffffffffff1614610806576040517f08c379a00000000000000000000000000000000000000000000000000000000081526004016107fd906119ae565b60405180910390fd5b60008060008473ffffffffffffffffffffffffffffffffffffffff1673ffffffffffffffffffffffffffffffffffffffff1681526020019081526020016000209050868160000190816108599190611b7a565b508581600101908161086b9190611b7a565b508481600201908161087d9190611b7a565b508381600301908161088f9190611b7a565b5060008160040181905550428160050181905550828160060160006101000a81548173ffffffffffffffffffffffffffffffffffffffff021916908373ffffffffffffffffffffffffffffffffffffffff160217905550600067ffffffffffffffff8111156109015761090061148a565b5b60405190808252806020026020018201604052801561092f5781602001602082028036833780820191505090505b508160070190805190602001906109479291906111e1565b506001839080600181540180825580915050600190039060005260206000200160009091909190916101000a81548173ffffffffffffffffffffffffffffffffffffffff021916908373ffffffffffffffffffffffffffffffffffffffff16021790555050505050505050565b60006020528060005260406000206000915090508060000180546109d790611931565b80601f0160208091040260200160405190810160405280929190818152602001828054610a0390611931565b8015610a505780601f10610a2557610100808354040283529160200191610a50565b820191906000526020600020905b815481529060010190602001808311610a3357829003601f168201915b505050505090806001018054610a6590611931565b80601f0160208091040260200160405190810160405280929190818152602001828054610a9190611931565b8015610ade5780601f10610ab357610100808354040283529160200191610ade565b820191906000526020600020905b815481529060010190602001808311610ac157829003601f168201915b505050505090806002018054610af390611931565b80601f0160208091040260200160405190810160405280929190818152602001828054610b1f90611931565b8015610b6c5780601f10610b4157610100808354040283529160200191610b6c565b820191906000526020600020905b815481529060010190602001808311610b4f57829003601f168201915b505050505090806003018054610b8190611931565b80601f0160208091040260200160405190810160405280929190818152602001828054610bad90611931565b8015610bfa5780601f10610bcf57610100808354040283529160200191610bfa565b820191906000526020600020905b815481529060010190602001808311610bdd57829003601f168201915b5050505050908060040154908060050154908060060160009054906101000a900473ffffffffffffffffffffffffffffffffffffffff16905087565b808073ffffffffffffffffffffffffffffffffffffffff163373ffffffffffffffffffffffffffffffffffffffff1614610ca5576040517f08c379a0000000000000000000000000000000000000000000000000000000008152600401610c9c90611876565b60405180910390fd5b81600073ffffffffffffffffffffffffffffffffffffffff166000808373ffffffffffffffffffffffffffffffffffffffff1673ffffffffffffffffffffffffffffffffffffffff16815260200190815260200160002060060160009054906101000a900473ffffffffffffffffffffffffffffffffffffffff1673ffffffffffffffffffffffffffffffffffffffff1603610d76576040517f08c379a0000000000000000000000000000000000000000000000000000000008152600401610d6d906118e2565b60405180910390fd5b60008060008573ffffffffffffffffffffffffffffffffffffffff1673ffffffffffffffffffffffffffffffffffffffff168152602001908152602001600020905085816000019081610dc99190611b7a565b5084816003019081610ddb9190611b7a565b50505050505050565b60018181548110610df457600080fd5b906000526020600020016000915054906101000a900473ffffffffffffffffffffffffffffffffffffffff1681565b808073ffffffffffffffffffffffffffffffffffffffff163373ffffffffffffffffffffffffffffffffffffffff1614610e92576040517f08c379a0000000000000000000000000000000000000000000000000000000008152600401610e8990611876565b60405180910390fd5b81600073ffffffffffffffffffffffffffffffffffffffff166000808373ffffffffffffffffffffffffffffffffffffffff1673ffffffffffffffffffffffffffffffffffffffff16815260200190815260200160002060060160009054906101000a900473ffffffffffffffffffffffffffffffffffffffff1673ffffffffffffffffffffffffffffffffffffffff1603610f63576040517f08c379a0000000000000000000000000000000000000000000000000000000008152600401610f5a906118e2565b60405180910390fd5b6000808473ffffffffffffffffffffffffffffffffffffffff1673ffffffffffffffffffffffffffffffffffffffff16815260200190815260200160002060008082016000610fb2919061122e565b600182016000610fc2919061122e565b600282016000610fd2919061122e565b600382016000610fe2919061122e565b600482016000905560058201600090556006820160006101000a81549073ffffffffffffffffffffffffffffffffffffffff0219169055600782016000611029919061126e565b505060005b6001805490508110156111b5573373ffffffffffffffffffffffffffffffffffffffff166001828154811061106657611065611c4c565b5b9060005260206000200160009054906101000a900473ffffffffffffffffffffffffffffffffffffffff1673ffffffffffffffffffffffffffffffffffffffff16036111a25760018080805490506110be9190611caa565b815481106110cf576110ce611c4c565b5b9060005260206000200160009054906101000a900473ffffffffffffffffffffffffffffffffffffffff166001828154811061110e5761110d611c4c565b5b9060005260206000200160006101000a81548173ffffffffffffffffffffffffffffffffffffffff021916908373ffffffffffffffffffffffffffffffffffffffff160217905550600180548061116857611167611cde565b5b6001900381819060005260206000200160006101000a81549073ffffffffffffffffffffffffffffffffffffffff021916905590556111b5565b80806111ad90611d0d565b91505061102e565b50505050565b600260009054906101000a900473ffffffffffffffffffffffffffffffffffffffff1681565b82805482825590600052602060002090810192821561121d579160200282015b8281111561121c578251825591602001919060010190611201565b5b50905061122a919061128f565b5090565b50805461123a90611931565b6000825580601f1061124c575061126b565b601f01602090049060005260206000209081019061126a919061128f565b5b50565b508054600082559060005260206000209081019061128c919061128f565b50565b5b808211156112a8576000816000905550600101611290565b5090565b6000604051905090565b600080fd5b600080fd5b600073ffffffffffffffffffffffffffffffffffffffff82169050919050565b60006112eb826112c0565b9050919050565b6112fb816112e0565b811461130657600080fd5b50565b600081359050611318816112f2565b92915050565b600060208284031215611334576113336112b6565b5b600061134284828501611309565b91505092915050565b600081519050919050565b600082825260208201905092915050565b60005b8381101561138557808201518184015260208101905061136a565b60008484015250505050565b6000601f19601f8301169050919050565b60006113ad8261134b565b6113b78185611356565b93506113c7818560208601611367565b6113d081611391565b840191505092915050565b6113e4816112e0565b82525050565b6000819050919050565b6113fd816113ea565b82525050565b600060c082019050818103600083015261141d81896113a2565b9050818103602083015261143181886113a2565b9050818103604083015261144581876113a2565b905061145460608301866113db565b61146160808301856113f4565b81810360a083015261147381846113a2565b9050979650505050505050565b600080fd5b600080fd5b7f4e487b7100000000000000000000000000000000000000000000000000000000600052604160045260246000fd5b6114c282611391565b810181811067ffffffffffffffff821117156114e1576114e061148a565b5b80604052505050565b60006114f46112ac565b905061150082826114b9565b919050565b600067ffffffffffffffff8211156115205761151f61148a565b5b61152982611391565b9050602081019050919050565b82818337600083830152505050565b600061155861155384611505565b6114ea565b90508281526020810184848401111561157457611573611485565b5b61157f848285611536565b509392505050565b600082601f83011261159c5761159b611480565b5b81356115ac848260208601611545565b91505092915050565b600080600080600060a086880312156115d1576115d06112b6565b5b600086013567ffffffffffffffff8111156115ef576115ee6112bb565b5b6115fb88828901611587565b955050602086013567ffffffffffffffff81111561161c5761161b6112bb565b5b61162888828901611587565b945050604086013567ffffffffffffffff811115611649576116486112bb565b5b61165588828901611587565b935050606086013567ffffffffffffffff811115611676576116756112bb565b5b61168288828901611587565b925050608061169388828901611309565b9150509295509295909350565b600060e08201905081810360008301526116ba818a6113a2565b905081810360208301526116ce81896113a2565b905081810360408301526116e281886113a2565b905081810360608301526116f681876113a2565b905061170560808301866113f4565b61171260a08301856113f4565b61171f60c08301846113db565b98975050505050505050565b600080600060608486031215611744576117436112b6565b5b600084013567ffffffffffffffff811115611762576117616112bb565b5b61176e86828701611587565b935050602084013567ffffffffffffffff81111561178f5761178e6112bb565b5b61179b86828701611587565b92505060406117ac86828701611309565b9150509250925092565b6117bf816113ea565b81146117ca57600080fd5b50565b6000813590506117dc816117b6565b92915050565b6000602082840312156117f8576117f76112b6565b5b6000611806848285016117cd565b91505092915050565b600060208201905061182460008301846113db565b92915050565b7f43616c6c6572206973206e6f74206f776e657200000000000000000000000000600082015250565b6000611860601383611356565b915061186b8261182a565b602082019050919050565b6000602082019050818103600083015261188f81611853565b9050919050565b7f506172747920646f6573206e6f74206578697374000000000000000000000000600082015250565b60006118cc601483611356565b91506118d782611896565b602082019050919050565b600060208201905081810360008301526118fb816118bf565b9050919050565b7f4e487b7100000000000000000000000000000000000000000000000000000000600052602260045260246000fd5b6000600282049050600182168061194957607f821691505b60208210810361195c5761195b611902565b5b50919050565b7f506172747920616c726561647920657869737473000000000000000000000000600082015250565b6000611998601483611356565b91506119a382611962565b602082019050919050565b600060208201905081810360008301526119c78161198b565b9050919050565b60008190508160005260206000209050919050565b60006020601f8301049050919050565b600082821b905092915050565b600060088302611a307fffffffffffffffffffffffffffffffffffffffffffffffffffffffffffffffff826119f3565b611a3a86836119f3565b95508019841693508086168417925050509392505050565b6000819050919050565b6000611a77611a72611a6d846113ea565b611a52565b6113ea565b9050919050565b6000819050919050565b611a9183611a5c565b611aa5611a9d82611a7e565b848454611a00565b825550505050565b600090565b611aba611aad565b611ac5818484611a88565b505050565b5b81811015611ae957611ade600082611ab2565b600181019050611acb565b5050565b601f821115611b2e57611aff816119ce565b611b08846119e3565b81016020851015611b17578190505b611b2b611b23856119e3565b830182611aca565b50505b505050565b600082821c905092915050565b6000611b5160001984600802611b33565b1980831691505092915050565b6000611b6a8383611b40565b9150826002028217905092915050565b611b838261134b565b67ffffffffffffffff811115611b9c57611b9b61148a565b5b611ba68254611931565b611bb1828285611aed565b600060209050601f831160018114611be45760008415611bd2578287015190505b611bdc8582611b5e565b865550611c44565b601f198416611bf2866119ce565b60005b82811015611c1a57848901518255600182019150602085019450602081019050611bf5565b86831015611c375784890151611c33601f891682611b40565b8355505b6001600288020188555050505b505050505050565b7f4e487b7100000000000000000000000000000000000000000000000000000000600052603260045260246000fd5b7f4e487b7100000000000000000000000000000000000000000000000000000000600052601160045260246000fd5b6000611cb5826113ea565b9150611cc0836113ea565b9250828203905081811115611cd857611cd7611c7b565b5b92915050565b7f4e487b7100000000000000000000000000000000000000000000000000000000600052603160045260246000fd5b6000611d18826113ea565b91507fffffffffffffffffffffffffffffffffffffffffffffffffffffffffffffffff8203611d4a57611d49611c7b565b5b60018201905091905056fea2646970667358221220b6940255f74d4931007dffe81ce88ab240b0d0d6ba6947e4884f8f5d2b3c33d564736f6c63430008130033",
  "immutableReferences": {},
  "source": "// SPDX-License-Identifier: UNLICENSED\r\n\r\npragma solidity >=0.7.0 <0.9.0;\r\n\r\n\r\ncontract PartyContract {\r\n    struct Party {\r\n        string name;\r\n        string contactNumber;\r\n        string email;\r\n        string password;\r\n        uint256 trustScore;\r\n        uint256 createdAt;\r\n        address partyAddress;\r\n        uint256[] tenderIds;\r\n    }\r\n    \r\n    mapping (address => Party) public parties;\r\n    address[] public partyAddresses;\r\n    address public admin;\r\n       \r\n    constructor() {  \r\n        // admin = msg.sender;\r\n        // _mint(payable(msg.sender), 5000000000000000000000000000000000000000 * (10 ** 18));\r\n    }\r\n\r\n    modifier isOwner(address owner) {\r\n        require(msg.sender == owner, \"Caller is not owner\");\r\n        _;\r\n    }\r\n\r\n    modifier isPartyExists(address _partyAddress) {\r\n        require(parties[_partyAddress].partyAddress != address(0), \"Party does not exist\");\r\n        _;\r\n    }\r\n\r\n    // Function for creating party\r\n    function createParty(string memory _name, string memory _contactNumber, string memory _email, string memory _password, address _partyAddress) public isOwner(_partyAddress){\r\n        require(parties[_partyAddress].partyAddress == address(0), \"Party already exists\"); //\r\n\r\n        Party storage newParty = parties[_partyAddress];\r\n        newParty.name = _name;\r\n        newParty.contactNumber = _contactNumber;\r\n        newParty.email = _email;\r\n        newParty.password = _password;\r\n        newParty.trustScore = 0;\r\n        newParty.createdAt = block.timestamp;\r\n        newParty.partyAddress = _partyAddress;\r\n        newParty.tenderIds = new uint256[](0);\r\n        \r\n        // Giving 50 token to created party\r\n        // uint256 tokenAmount = 50; // Fixed amount of tokens to credit\r\n        // _transfer(admin, payable(_partyAddress), tokenAmount * (10 ** 18));\r\n\r\n        // newParty.trust_score = balanceOf(_partyAddress);\r\n        \r\n        partyAddresses.push(_partyAddress);\r\n    }\r\n\r\n    //Function for updating party\r\n    function updateParty(string memory _name, string memory _password, address _partyAddress) public isOwner(_partyAddress) isPartyExists(_partyAddress) {\r\n        // require(msg.sender == parties[_partyAddress].partyAddress, \"Only party owner can update/delete party details.\");\r\n        Party storage updatedParty = parties[_partyAddress];\r\n        updatedParty.name  = _name;\r\n        updatedParty.password = _password;\r\n    }\r\n    \r\n    //Function for deleting a party on platform\r\n    function deleteParty(address _partyAddress) public isOwner(_partyAddress) isPartyExists(_partyAddress) {\r\n        // require(msg.sender == parties[_partyAddress].partyAddress, \"Only party owner can update/delete party details.\");\r\n        delete parties[_partyAddress];\r\n        for (uint256 i = 0; i < partyAddresses.length; i++) {\r\n            if (partyAddresses[i] == msg.sender) {\r\n                partyAddresses[i] = partyAddresses[partyAddresses.length - 1];\r\n                partyAddresses.pop();\r\n                break;\r\n            }\r\n        }\r\n    }\r\n \r\n    // Function for getting details of a particular party\r\n    function getPartyDetails(address _partyAddress) public isOwner(_partyAddress) isPartyExists(_partyAddress) view returns (string memory, string memory, string memory, address, uint256, string memory) {\r\n        return (parties[_partyAddress].name, parties[_partyAddress].contactNumber, parties[_partyAddress].email, parties[_partyAddress].partyAddress, parties[_partyAddress].trustScore, parties[_partyAddress].password);\r\n    }\r\n\r\n\r\n}\r\n",
  "sourcePath": "C:\\Users\\sabba\\OneDrive\\Documents\\BlockchainProject\\blockchain-based-contracting-system\\contracts\\PartyContract.sol",
  "compiler": {
    "name": "solc",
    "version": "0.8.19+commit.7dd6d404.Emscripten.clang"
  },
  "schemaVersion": "3.4.13",
  "updatedAt": "2023-04-14T14:55:37.743Z",
  "networkType": "ethereum",
  "devdoc": {
    "kind": "dev",
    "methods": {},
    "version": 1
  },
  "userdoc": {
    "kind": "user",
    "methods": {},
    "version": 1
  }
}