{
  "contractName": "PartyContract",
  "abi": [
    {
      "inputs": [],
      "stateMutability": "nonpayable",
      "type": "constructor"
    },
    {
      "inputs": [],
      "name": "message",
      "outputs": [
        {
          "internalType": "string",
          "name": "",
          "type": "string"
        }
      ],
      "stateMutability": "view",
      "type": "function",
      "constant": true
    },
    {
      "inputs": [
        {
          "internalType": "address",
          "name": "",
          "type": "address"
        }
      ],
      "name": "parties",
      "outputs": [
        {
          "internalType": "string",
          "name": "name",
          "type": "string"
        },
        {
          "internalType": "string",
          "name": "contactNumber",
          "type": "string"
        },
        {
          "internalType": "string",
          "name": "email",
          "type": "string"
        },
        {
          "internalType": "string",
          "name": "password",
          "type": "string"
        },
        {
          "internalType": "uint256",
          "name": "trustScore",
          "type": "uint256"
        },
        {
          "internalType": "uint256",
          "name": "createdAt",
          "type": "uint256"
        },
        {
          "internalType": "address",
          "name": "partyAddress",
          "type": "address"
        }
      ],
      "stateMutability": "view",
      "type": "function",
      "constant": true
    },
    {
      "inputs": [
        {
          "internalType": "uint256",
          "name": "",
          "type": "uint256"
        }
      ],
      "name": "partyAddresses",
      "outputs": [
        {
          "internalType": "address",
          "name": "",
          "type": "address"
        }
      ],
      "stateMutability": "view",
      "type": "function",
      "constant": true
    },
    {
      "inputs": [
        {
          "internalType": "string",
          "name": "_name",
          "type": "string"
        },
        {
          "internalType": "string",
          "name": "_contactNumber",
          "type": "string"
        },
        {
          "internalType": "string",
          "name": "_email",
          "type": "string"
        },
        {
          "internalType": "string",
          "name": "_password",
          "type": "string"
        },
        {
          "internalType": "address",
          "name": "_partyAddress",
          "type": "address"
        }
      ],
      "name": "createParty",
      "outputs": [],
      "stateMutability": "nonpayable",
      "type": "function"
    },
    {
      "inputs": [
        {
          "internalType": "address",
          "name": "_partyAddress",
          "type": "address"
        }
      ],
      "name": "getPartyDetails",
      "outputs": [
        {
          "internalType": "string",
          "name": "",
          "type": "string"
        },
        {
          "internalType": "string",
          "name": "",
          "type": "string"
        },
        {
          "internalType": "string",
          "name": "",
          "type": "string"
        },
        {
          "internalType": "address",
          "name": "",
          "type": "address"
        },
        {
          "internalType": "uint256",
          "name": "",
          "type": "uint256"
        }
      ],
      "stateMutability": "view",
      "type": "function",
      "constant": true
    }
  ],
  "bytecode": "0x608060405234801561001057600080fd5b50611322806100206000396000f3fe608060405234801561001057600080fd5b50600436106100565760003560e01c8062da72281461005b578063171fd8481461008f5780634f235207146100ab578063c792d8fd146100e1578063e21f37ce14610111575b600080fd5b61007560048036038101906100709190610aa8565b61012f565b604051610086959493929190610b8d565b60405180910390f35b6100a960048036038101906100a49190610d2a565b6104ca565b005b6100c560048036038101906100c09190610aa8565b6106e7565b6040516100d89796959493929190610e15565b60405180910390f35b6100fb60048036038101906100f69190610ecc565b610969565b6040516101089190610ef9565b60405180910390f35b6101196109a8565b6040516101269190610f14565b60405180910390f35b6060806060600080858073ffffffffffffffffffffffffffffffffffffffff163373ffffffffffffffffffffffffffffffffffffffff16146101a6576040517f08c379a000000000000000000000000000000000000000000000000000000000815260040161019d90610f82565b60405180910390fd5b600260008873ffffffffffffffffffffffffffffffffffffffff1673ffffffffffffffffffffffffffffffffffffffff168152602001908152602001600020600001600260008973ffffffffffffffffffffffffffffffffffffffff1673ffffffffffffffffffffffffffffffffffffffff168152602001908152602001600020600101600260008a73ffffffffffffffffffffffffffffffffffffffff1673ffffffffffffffffffffffffffffffffffffffff168152602001908152602001600020600201600260008b73ffffffffffffffffffffffffffffffffffffffff1673ffffffffffffffffffffffffffffffffffffffff16815260200190815260200160002060060160009054906101000a900473ffffffffffffffffffffffffffffffffffffffff16600260008c73ffffffffffffffffffffffffffffffffffffffff1673ffffffffffffffffffffffffffffffffffffffff1681526020019081526020016000206004015484805461031e90610fd1565b80601f016020809104026020016040519081016040528092919081815260200182805461034a90610fd1565b80156103975780601f1061036c57610100808354040283529160200191610397565b820191906000526020600020905b81548152906001019060200180831161037a57829003601f168201915b505050505094508380546103aa90610fd1565b80601f01602080910402602001604051908101604052809291908181526020018280546103d690610fd1565b80156104235780601f106103f857610100808354040283529160200191610423565b820191906000526020600020905b81548152906001019060200180831161040657829003601f168201915b5050505050935082805461043690610fd1565b80601f016020809104026020016040519081016040528092919081815260200182805461046290610fd1565b80156104af5780601f10610484576101008083540402835291602001916104af565b820191906000526020600020905b81548152906001019060200180831161049257829003601f168201915b50505050509250955095509550955095505091939590929450565b600073ffffffffffffffffffffffffffffffffffffffff16600260008373ffffffffffffffffffffffffffffffffffffffff1673ffffffffffffffffffffffffffffffffffffffff16815260200190815260200160002060060160009054906101000a900473ffffffffffffffffffffffffffffffffffffffff1673ffffffffffffffffffffffffffffffffffffffff161461059b576040517f08c379a00000000000000000000000000000000000000000000000000000000081526004016105929061104e565b60405180910390fd5b6000600260008373ffffffffffffffffffffffffffffffffffffffff1673ffffffffffffffffffffffffffffffffffffffff1681526020019081526020016000209050858160000190816105ef919061121a565b5084816001019081610601919061121a565b5083816002019081610613919061121a565b5082816003019081610625919061121a565b5060008160040181905550428160050181905550818160060160006101000a81548173ffffffffffffffffffffffffffffffffffffffff021916908373ffffffffffffffffffffffffffffffffffffffff1602179055506001829080600181540180825580915050600190039060005260206000200160009091909190916101000a81548173ffffffffffffffffffffffffffffffffffffffff021916908373ffffffffffffffffffffffffffffffffffffffff160217905550505050505050565b600260205280600052604060002060009150905080600001805461070a90610fd1565b80601f016020809104026020016040519081016040528092919081815260200182805461073690610fd1565b80156107835780601f1061075857610100808354040283529160200191610783565b820191906000526020600020905b81548152906001019060200180831161076657829003601f168201915b50505050509080600101805461079890610fd1565b80601f01602080910402602001604051908101604052809291908181526020018280546107c490610fd1565b80156108115780601f106107e657610100808354040283529160200191610811565b820191906000526020600020905b8154815290600101906020018083116107f457829003601f168201915b50505050509080600201805461082690610fd1565b80601f016020809104026020016040519081016040528092919081815260200182805461085290610fd1565b801561089f5780601f106108745761010080835404028352916020019161089f565b820191906000526020600020905b81548152906001019060200180831161088257829003601f168201915b5050505050908060030180546108b490610fd1565b80601f01602080910402602001604051908101604052809291908181526020018280546108e090610fd1565b801561092d5780601f106109025761010080835404028352916020019161092d565b820191906000526020600020905b81548152906001019060200180831161091057829003601f168201915b5050505050908060040154908060050154908060060160009054906101000a900473ffffffffffffffffffffffffffffffffffffffff16905087565b6001818154811061097957600080fd5b906000526020600020016000915054906101000a900473ffffffffffffffffffffffffffffffffffffffff1681565b600080546109b590610fd1565b80601f01602080910402602001604051908101604052809291908181526020018280546109e190610fd1565b8015610a2e5780601f10610a0357610100808354040283529160200191610a2e565b820191906000526020600020905b815481529060010190602001808311610a1157829003601f168201915b505050505081565b6000604051905090565b600080fd5b600080fd5b600073ffffffffffffffffffffffffffffffffffffffff82169050919050565b6000610a7582610a4a565b9050919050565b610a8581610a6a565b8114610a9057600080fd5b50565b600081359050610aa281610a7c565b92915050565b600060208284031215610abe57610abd610a40565b5b6000610acc84828501610a93565b91505092915050565b600081519050919050565b600082825260208201905092915050565b60005b83811015610b0f578082015181840152602081019050610af4565b60008484015250505050565b6000601f19601f8301169050919050565b6000610b3782610ad5565b610b418185610ae0565b9350610b51818560208601610af1565b610b5a81610b1b565b840191505092915050565b610b6e81610a6a565b82525050565b6000819050919050565b610b8781610b74565b82525050565b600060a0820190508181036000830152610ba78188610b2c565b90508181036020830152610bbb8187610b2c565b90508181036040830152610bcf8186610b2c565b9050610bde6060830185610b65565b610beb6080830184610b7e565b9695505050505050565b600080fd5b600080fd5b7f4e487b7100000000000000000000000000000000000000000000000000000000600052604160045260246000fd5b610c3782610b1b565b810181811067ffffffffffffffff82111715610c5657610c55610bff565b5b80604052505050565b6000610c69610a36565b9050610c758282610c2e565b919050565b600067ffffffffffffffff821115610c9557610c94610bff565b5b610c9e82610b1b565b9050602081019050919050565b82818337600083830152505050565b6000610ccd610cc884610c7a565b610c5f565b905082815260208101848484011115610ce957610ce8610bfa565b5b610cf4848285610cab565b509392505050565b600082601f830112610d1157610d10610bf5565b5b8135610d21848260208601610cba565b91505092915050565b600080600080600060a08688031215610d4657610d45610a40565b5b600086013567ffffffffffffffff811115610d6457610d63610a45565b5b610d7088828901610cfc565b955050602086013567ffffffffffffffff811115610d9157610d90610a45565b5b610d9d88828901610cfc565b945050604086013567ffffffffffffffff811115610dbe57610dbd610a45565b5b610dca88828901610cfc565b935050606086013567ffffffffffffffff811115610deb57610dea610a45565b5b610df788828901610cfc565b9250506080610e0888828901610a93565b9150509295509295909350565b600060e0820190508181036000830152610e2f818a610b2c565b90508181036020830152610e438189610b2c565b90508181036040830152610e578188610b2c565b90508181036060830152610e6b8187610b2c565b9050610e7a6080830186610b7e565b610e8760a0830185610b7e565b610e9460c0830184610b65565b98975050505050505050565b610ea981610b74565b8114610eb457600080fd5b50565b600081359050610ec681610ea0565b92915050565b600060208284031215610ee257610ee1610a40565b5b6000610ef084828501610eb7565b91505092915050565b6000602082019050610f0e6000830184610b65565b92915050565b60006020820190508181036000830152610f2e8184610b2c565b905092915050565b7f43616c6c6572206973206e6f74206f776e657200000000000000000000000000600082015250565b6000610f6c601383610ae0565b9150610f7782610f36565b602082019050919050565b60006020820190508181036000830152610f9b81610f5f565b9050919050565b7f4e487b7100000000000000000000000000000000000000000000000000000000600052602260045260246000fd5b60006002820490506001821680610fe957607f821691505b602082108103610ffc57610ffb610fa2565b5b50919050565b7f506172747920616c726561647920657869737473000000000000000000000000600082015250565b6000611038601483610ae0565b915061104382611002565b602082019050919050565b600060208201905081810360008301526110678161102b565b9050919050565b60008190508160005260206000209050919050565b60006020601f8301049050919050565b600082821b905092915050565b6000600883026110d07fffffffffffffffffffffffffffffffffffffffffffffffffffffffffffffffff82611093565b6110da8683611093565b95508019841693508086168417925050509392505050565b6000819050919050565b600061111761111261110d84610b74565b6110f2565b610b74565b9050919050565b6000819050919050565b611131836110fc565b61114561113d8261111e565b8484546110a0565b825550505050565b600090565b61115a61114d565b611165818484611128565b505050565b5b818110156111895761117e600082611152565b60018101905061116b565b5050565b601f8211156111ce5761119f8161106e565b6111a884611083565b810160208510156111b7578190505b6111cb6111c385611083565b83018261116a565b50505b505050565b600082821c905092915050565b60006111f1600019846008026111d3565b1980831691505092915050565b600061120a83836111e0565b9150826002028217905092915050565b61122382610ad5565b67ffffffffffffffff81111561123c5761123b610bff565b5b6112468254610fd1565b61125182828561118d565b600060209050601f8311600181146112845760008415611272578287015190505b61127c85826111fe565b8655506112e4565b601f1984166112928661106e565b60005b828110156112ba57848901518255600182019150602085019450602081019050611295565b868310156112d757848901516112d3601f8916826111e0565b8355505b6001600288020188555050505b50505050505056fea26469706673582212202651b1e0f5fe2f6867cf9d6760fd71dd96a84d708b67a40bfbc0bc9edee30f0a64736f6c63430008130033",
  "immutableReferences": {},
  "source": "// SPDX-License-Identifier: UNLICENSED\r\n\r\n//the version of solidity that is compatible\r\n\r\npragma solidity ^0.8.0;\r\ncontract PartyContract {\r\n    \r\n    string public message;\r\n    address[] public partyAddresses;\r\n    struct Party {\r\n        string name;\r\n        string contactNumber;\r\n        string email;\r\n        string password;\r\n        uint256 trustScore;\r\n        uint256 createdAt;\r\n        address partyAddress;\r\n        uint256[] tenderIds;\r\n    }\r\n\r\n    modifier isOwner(address owner) {\r\n        require(msg.sender == owner, \"Caller is not owner\");\r\n        _;\r\n    }\r\n\r\n    mapping (address => Party) public parties;\r\n\r\n    function createParty(string memory _name, string memory _contactNumber, string memory _email, string memory _password, address _partyAddress) public{\r\n        require(parties[_partyAddress].partyAddress == address(0), \"Party already exists\"); //\r\n        Party storage newParty = parties[_partyAddress];\r\n        newParty.name = _name;\r\n        newParty.contactNumber = _contactNumber;\r\n        newParty.email = _email;\r\n        newParty.password = _password;\r\n        newParty.trustScore = 0;\r\n        newParty.createdAt = block.timestamp;\r\n        newParty.partyAddress = _partyAddress;\r\n        partyAddresses.push(_partyAddress);\r\n    }\r\n\r\n    function getPartyDetails(address _partyAddress) public view isOwner(_partyAddress)  returns (string memory, string memory, string memory, address, uint256) {\r\n        return (parties[_partyAddress].name, parties[_partyAddress].contactNumber, parties[_partyAddress].email, parties[_partyAddress].partyAddress, parties[_partyAddress].trustScore);\r\n    }\r\n\r\n    constructor() {\r\n    }\r\n}",
  "sourcePath": "C:\\Users\\sabba\\OneDrive\\Documents\\BlockchainProject\\blockchain-based-contracting-system\\contracts\\PartyContract.sol",
  "compiler": {
    "name": "solc",
    "version": "0.8.19+commit.7dd6d404.Emscripten.clang"
  },
  "schemaVersion": "3.4.13",
  "updatedAt": "2023-04-07T19:08:54.286Z",
  "networkType": "ethereum",
  "devdoc": {
    "kind": "dev",
    "methods": {},
    "version": 1
  },
  "userdoc": {
    "kind": "user",
    "methods": {},
    "version": 1
  }
}