{
  "contractName": "PartyContract",
  "abi": [
    {
      "inputs": [
        {
          "internalType": "contract Token",
          "name": "_tokenRef",
          "type": "address"
        }
      ],
      "stateMutability": "nonpayable",
      "type": "constructor"
    },
    {
      "inputs": [],
      "name": "admin",
      "outputs": [
        {
          "internalType": "address",
          "name": "",
          "type": "address"
        }
      ],
      "stateMutability": "view",
      "type": "function",
      "constant": true
    },
    {
      "inputs": [
        {
          "internalType": "address",
          "name": "",
          "type": "address"
        }
      ],
      "name": "parties",
      "outputs": [
        {
          "internalType": "string",
          "name": "name",
          "type": "string"
        },
        {
          "internalType": "string",
          "name": "contactNumber",
          "type": "string"
        },
        {
          "internalType": "string",
          "name": "email",
          "type": "string"
        },
        {
          "internalType": "string",
          "name": "password",
          "type": "string"
        },
        {
          "internalType": "uint256",
          "name": "trustScore",
          "type": "uint256"
        },
        {
          "internalType": "uint256",
          "name": "createdAt",
          "type": "uint256"
        },
        {
          "internalType": "address",
          "name": "partyAddress",
          "type": "address"
        },
        {
          "internalType": "uint256",
          "name": "balance",
          "type": "uint256"
        },
        {
          "internalType": "uint256",
          "name": "freezedBalance",
          "type": "uint256"
        }
      ],
      "stateMutability": "view",
      "type": "function",
      "constant": true
    },
    {
      "inputs": [
        {
          "internalType": "uint256",
          "name": "",
          "type": "uint256"
        }
      ],
      "name": "partyAddresses",
      "outputs": [
        {
          "internalType": "address",
          "name": "",
          "type": "address"
        }
      ],
      "stateMutability": "view",
      "type": "function",
      "constant": true
    },
    {
      "inputs": [],
      "name": "tokenRef",
      "outputs": [
        {
          "internalType": "contract Token",
          "name": "",
          "type": "address"
        }
      ],
      "stateMutability": "view",
      "type": "function",
      "constant": true
    },
    {
      "inputs": [
        {
          "internalType": "address",
          "name": "_partyAddress",
          "type": "address"
        }
      ],
      "name": "getTrustScore",
      "outputs": [
        {
          "internalType": "uint256",
          "name": "",
          "type": "uint256"
        }
      ],
      "stateMutability": "view",
      "type": "function",
      "constant": true
    },
    {
      "inputs": [
        {
          "internalType": "address",
          "name": "_partyAddress",
          "type": "address"
        },
        {
          "internalType": "uint256",
          "name": "_trustScore",
          "type": "uint256"
        }
      ],
      "name": "setTrustScore",
      "outputs": [],
      "stateMutability": "nonpayable",
      "type": "function"
    },
    {
      "inputs": [
        {
          "internalType": "string",
          "name": "_name",
          "type": "string"
        },
        {
          "internalType": "string",
          "name": "_contactNumber",
          "type": "string"
        },
        {
          "internalType": "string",
          "name": "_email",
          "type": "string"
        },
        {
          "internalType": "string",
          "name": "_password",
          "type": "string"
        },
        {
          "internalType": "address",
          "name": "_partyAddress",
          "type": "address"
        }
      ],
      "name": "createParty",
      "outputs": [],
      "stateMutability": "nonpayable",
      "type": "function"
    },
    {
      "inputs": [
        {
          "internalType": "string",
          "name": "_name",
          "type": "string"
        },
        {
          "internalType": "string",
          "name": "_password",
          "type": "string"
        },
        {
          "internalType": "address",
          "name": "_partyAddress",
          "type": "address"
        }
      ],
      "name": "updateParty",
      "outputs": [],
      "stateMutability": "nonpayable",
      "type": "function"
    },
    {
      "inputs": [
        {
          "internalType": "address",
          "name": "_partyAddress",
          "type": "address"
        }
      ],
      "name": "deleteParty",
      "outputs": [],
      "stateMutability": "nonpayable",
      "type": "function"
    },
    {
      "inputs": [
        {
          "internalType": "address",
          "name": "_partyAddress",
          "type": "address"
        }
      ],
      "name": "getPartyDetails",
      "outputs": [
        {
          "internalType": "string",
          "name": "",
          "type": "string"
        },
        {
          "internalType": "string",
          "name": "",
          "type": "string"
        },
        {
          "internalType": "string",
          "name": "",
          "type": "string"
        },
        {
          "internalType": "address",
          "name": "",
          "type": "address"
        },
        {
          "internalType": "uint256",
          "name": "",
          "type": "uint256"
        },
        {
          "internalType": "string",
          "name": "",
          "type": "string"
        }
      ],
      "stateMutability": "view",
      "type": "function",
      "constant": true
    }
  ],
  "bytecode": "0x608060405260326004553480156200001657600080fd5b50604051620021363803806200213683398181016040528101906200003c919062000102565b80600360006101000a81548173ffffffffffffffffffffffffffffffffffffffff021916908373ffffffffffffffffffffffffffffffffffffffff1602179055505062000134565b600080fd5b600073ffffffffffffffffffffffffffffffffffffffff82169050919050565b6000620000b68262000089565b9050919050565b6000620000ca82620000a9565b9050919050565b620000dc81620000bd565b8114620000e857600080fd5b50565b600081519050620000fc81620000d1565b92915050565b6000602082840312156200011b576200011a62000084565b5b60006200012b84828501620000eb565b91505092915050565b611ff280620001446000396000f3fe608060405234801561001057600080fd5b506004361061009d5760003560e01c80637a0c7d39116100665780637a0c7d3914610179578063c792d8fd14610195578063ef8c0391146101c5578063f851a440146101e1578063feec4758146101ff5761009d565b8062da7228146100a2578063171fd848146100d757806333bec837146100f35780634f235207146101115780635e09eea114610149575b600080fd5b6100bc60048036038101906100b7919061149c565b61021b565b6040516100ce96959493929190611581565b60405180910390f35b6100f160048036038101906100ec9190611733565b610754565b005b6100fb610a4b565b604051610108919061187d565b60405180910390f35b61012b6004803603810190610126919061149c565b610a71565b60405161014099989796959493929190611898565b60405180910390f35b610163600480360381019061015e919061149c565b610cff565b6040516101709190611941565b60405180910390f35b610193600480360381019061018e919061195c565b610d4a565b005b6101af60048036038101906101aa9190611a13565b610ef8565b6040516101bc9190611a40565b60405180910390f35b6101df60048036038101906101da919061149c565b610f37565b005b6101e96112ef565b6040516101f69190611a40565b60405180910390f35b61021960048036038101906102149190611a5b565b611315565b005b60608060606000806060868073ffffffffffffffffffffffffffffffffffffffff163373ffffffffffffffffffffffffffffffffffffffff1614610294576040517f08c379a000000000000000000000000000000000000000000000000000000000815260040161028b90611ae7565b60405180910390fd5b87600073ffffffffffffffffffffffffffffffffffffffff166000808373ffffffffffffffffffffffffffffffffffffffff1673ffffffffffffffffffffffffffffffffffffffff16815260200190815260200160002060060160009054906101000a900473ffffffffffffffffffffffffffffffffffffffff1673ffffffffffffffffffffffffffffffffffffffff1603610365576040517f08c379a000000000000000000000000000000000000000000000000000000000815260040161035c90611b53565b60405180910390fd5b6000808a73ffffffffffffffffffffffffffffffffffffffff1673ffffffffffffffffffffffffffffffffffffffff1681526020019081526020016000206000016000808b73ffffffffffffffffffffffffffffffffffffffff1673ffffffffffffffffffffffffffffffffffffffff1681526020019081526020016000206001016000808c73ffffffffffffffffffffffffffffffffffffffff1673ffffffffffffffffffffffffffffffffffffffff1681526020019081526020016000206002016000808d73ffffffffffffffffffffffffffffffffffffffff1673ffffffffffffffffffffffffffffffffffffffff16815260200190815260200160002060060160009054906101000a900473ffffffffffffffffffffffffffffffffffffffff166000808e73ffffffffffffffffffffffffffffffffffffffff1673ffffffffffffffffffffffffffffffffffffffff168152602001908152602001600020600401546000808f73ffffffffffffffffffffffffffffffffffffffff1673ffffffffffffffffffffffffffffffffffffffff16815260200190815260200160002060030185805461051990611ba2565b80601f016020809104026020016040519081016040528092919081815260200182805461054590611ba2565b80156105925780601f1061056757610100808354040283529160200191610592565b820191906000526020600020905b81548152906001019060200180831161057557829003601f168201915b505050505095508480546105a590611ba2565b80601f01602080910402602001604051908101604052809291908181526020018280546105d190611ba2565b801561061e5780601f106105f35761010080835404028352916020019161061e565b820191906000526020600020905b81548152906001019060200180831161060157829003601f168201915b5050505050945083805461063190611ba2565b80601f016020809104026020016040519081016040528092919081815260200182805461065d90611ba2565b80156106aa5780601f1061067f576101008083540402835291602001916106aa565b820191906000526020600020905b81548152906001019060200180831161068d57829003601f168201915b505050505093508080546106bd90611ba2565b80601f01602080910402602001604051908101604052809291908181526020018280546106e990611ba2565b80156107365780601f1061070b57610100808354040283529160200191610736565b820191906000526020600020905b81548152906001019060200180831161071957829003601f168201915b50505050509050975097509750975097509750505091939550919395565b808073ffffffffffffffffffffffffffffffffffffffff163373ffffffffffffffffffffffffffffffffffffffff16146107c3576040517f08c379a00000000000000000000000000000000000000000000000000000000081526004016107ba90611ae7565b60405180910390fd5b600073ffffffffffffffffffffffffffffffffffffffff166000808473ffffffffffffffffffffffffffffffffffffffff1673ffffffffffffffffffffffffffffffffffffffff16815260200190815260200160002060060160009054906101000a900473ffffffffffffffffffffffffffffffffffffffff1673ffffffffffffffffffffffffffffffffffffffff1614610893576040517f08c379a000000000000000000000000000000000000000000000000000000000815260040161088a90611c1f565b60405180910390fd5b60008060008473ffffffffffffffffffffffffffffffffffffffff1673ffffffffffffffffffffffffffffffffffffffff1681526020019081526020016000209050868160000190816108e69190611de1565b50858160010190816108f89190611de1565b508481600201908161090a9190611de1565b508381600301908161091c9190611de1565b5060008160040181905550428160050181905550828160060160006101000a81548173ffffffffffffffffffffffffffffffffffffffff021916908373ffffffffffffffffffffffffffffffffffffffff160217905550600067ffffffffffffffff81111561098e5761098d611608565b5b6040519080825280602002602001820160405280156109bc5781602001602082028036833780820191505090505b508160070190805190602001906109d492919061135f565b50600081600901819055506001839080600181540180825580915050600190039060005260206000200160009091909190916101000a81548173ffffffffffffffffffffffffffffffffffffffff021916908373ffffffffffffffffffffffffffffffffffffffff16021790555050505050505050565b600360009054906101000a900473ffffffffffffffffffffffffffffffffffffffff1681565b6000602052806000526040600020600091509050806000018054610a9490611ba2565b80601f0160208091040260200160405190810160405280929190818152602001828054610ac090611ba2565b8015610b0d5780601f10610ae257610100808354040283529160200191610b0d565b820191906000526020600020905b815481529060010190602001808311610af057829003601f168201915b505050505090806001018054610b2290611ba2565b80601f0160208091040260200160405190810160405280929190818152602001828054610b4e90611ba2565b8015610b9b5780601f10610b7057610100808354040283529160200191610b9b565b820191906000526020600020905b815481529060010190602001808311610b7e57829003601f168201915b505050505090806002018054610bb090611ba2565b80601f0160208091040260200160405190810160405280929190818152602001828054610bdc90611ba2565b8015610c295780601f10610bfe57610100808354040283529160200191610c29565b820191906000526020600020905b815481529060010190602001808311610c0c57829003601f168201915b505050505090806003018054610c3e90611ba2565b80601f0160208091040260200160405190810160405280929190818152602001828054610c6a90611ba2565b8015610cb75780601f10610c8c57610100808354040283529160200191610cb7565b820191906000526020600020905b815481529060010190602001808311610c9a57829003601f168201915b5050505050908060040154908060050154908060060160009054906101000a900473ffffffffffffffffffffffffffffffffffffffff16908060080154908060090154905089565b60008060008373ffffffffffffffffffffffffffffffffffffffff1673ffffffffffffffffffffffffffffffffffffffff168152602001908152602001600020600401549050919050565b808073ffffffffffffffffffffffffffffffffffffffff163373ffffffffffffffffffffffffffffffffffffffff1614610db9576040517f08c379a0000000000000000000000000000000000000000000000000000000008152600401610db090611ae7565b60405180910390fd5b81600073ffffffffffffffffffffffffffffffffffffffff166000808373ffffffffffffffffffffffffffffffffffffffff1673ffffffffffffffffffffffffffffffffffffffff16815260200190815260200160002060060160009054906101000a900473ffffffffffffffffffffffffffffffffffffffff1673ffffffffffffffffffffffffffffffffffffffff1603610e8a576040517f08c379a0000000000000000000000000000000000000000000000000000000008152600401610e8190611b53565b60405180910390fd5b60008060008573ffffffffffffffffffffffffffffffffffffffff1673ffffffffffffffffffffffffffffffffffffffff168152602001908152602001600020905085816000019081610edd9190611de1565b5084816003019081610eef9190611de1565b50505050505050565b60018181548110610f0857600080fd5b906000526020600020016000915054906101000a900473ffffffffffffffffffffffffffffffffffffffff1681565b808073ffffffffffffffffffffffffffffffffffffffff163373ffffffffffffffffffffffffffffffffffffffff1614610fa6576040517f08c379a0000000000000000000000000000000000000000000000000000000008152600401610f9d90611ae7565b60405180910390fd5b81600073ffffffffffffffffffffffffffffffffffffffff166000808373ffffffffffffffffffffffffffffffffffffffff1673ffffffffffffffffffffffffffffffffffffffff16815260200190815260200160002060060160009054906101000a900473ffffffffffffffffffffffffffffffffffffffff1673ffffffffffffffffffffffffffffffffffffffff1603611077576040517f08c379a000000000000000000000000000000000000000000000000000000000815260040161106e90611b53565b60405180910390fd5b6000808473ffffffffffffffffffffffffffffffffffffffff1673ffffffffffffffffffffffffffffffffffffffff168152602001908152602001600020600080820160006110c691906113ac565b6001820160006110d691906113ac565b6002820160006110e691906113ac565b6003820160006110f691906113ac565b600482016000905560058201600090556006820160006101000a81549073ffffffffffffffffffffffffffffffffffffffff021916905560078201600061113d91906113ec565b60088201600090556009820160009055600a8201600061115d91906113ec565b505060005b6001805490508110156112e9573373ffffffffffffffffffffffffffffffffffffffff166001828154811061119a57611199611eb3565b5b9060005260206000200160009054906101000a900473ffffffffffffffffffffffffffffffffffffffff1673ffffffffffffffffffffffffffffffffffffffff16036112d65760018080805490506111f29190611f11565b8154811061120357611202611eb3565b5b9060005260206000200160009054906101000a900473ffffffffffffffffffffffffffffffffffffffff166001828154811061124257611241611eb3565b5b9060005260206000200160006101000a81548173ffffffffffffffffffffffffffffffffffffffff021916908373ffffffffffffffffffffffffffffffffffffffff160217905550600180548061129c5761129b611f45565b5b6001900381819060005260206000200160006101000a81549073ffffffffffffffffffffffffffffffffffffffff021916905590556112e9565b80806112e190611f74565b915050611162565b50505050565b600260009054906101000a900473ffffffffffffffffffffffffffffffffffffffff1681565b806000808473ffffffffffffffffffffffffffffffffffffffff1673ffffffffffffffffffffffffffffffffffffffff168152602001908152602001600020600401819055505050565b82805482825590600052602060002090810192821561139b579160200282015b8281111561139a57825182559160200191906001019061137f565b5b5090506113a8919061140d565b5090565b5080546113b890611ba2565b6000825580601f106113ca57506113e9565b601f0160209004906000526020600020908101906113e8919061140d565b5b50565b508054600082559060005260206000209081019061140a919061140d565b50565b5b8082111561142657600081600090555060010161140e565b5090565b6000604051905090565b600080fd5b600080fd5b600073ffffffffffffffffffffffffffffffffffffffff82169050919050565b60006114698261143e565b9050919050565b6114798161145e565b811461148457600080fd5b50565b60008135905061149681611470565b92915050565b6000602082840312156114b2576114b1611434565b5b60006114c084828501611487565b91505092915050565b600081519050919050565b600082825260208201905092915050565b60005b838110156115035780820151818401526020810190506114e8565b60008484015250505050565b6000601f19601f8301169050919050565b600061152b826114c9565b61153581856114d4565b93506115458185602086016114e5565b61154e8161150f565b840191505092915050565b6115628161145e565b82525050565b6000819050919050565b61157b81611568565b82525050565b600060c082019050818103600083015261159b8189611520565b905081810360208301526115af8188611520565b905081810360408301526115c38187611520565b90506115d26060830186611559565b6115df6080830185611572565b81810360a08301526115f18184611520565b9050979650505050505050565b600080fd5b600080fd5b7f4e487b7100000000000000000000000000000000000000000000000000000000600052604160045260246000fd5b6116408261150f565b810181811067ffffffffffffffff8211171561165f5761165e611608565b5b80604052505050565b600061167261142a565b905061167e8282611637565b919050565b600067ffffffffffffffff82111561169e5761169d611608565b5b6116a78261150f565b9050602081019050919050565b82818337600083830152505050565b60006116d66116d184611683565b611668565b9050828152602081018484840111156116f2576116f1611603565b5b6116fd8482856116b4565b509392505050565b600082601f83011261171a576117196115fe565b5b813561172a8482602086016116c3565b91505092915050565b600080600080600060a0868803121561174f5761174e611434565b5b600086013567ffffffffffffffff81111561176d5761176c611439565b5b61177988828901611705565b955050602086013567ffffffffffffffff81111561179a57611799611439565b5b6117a688828901611705565b945050604086013567ffffffffffffffff8111156117c7576117c6611439565b5b6117d388828901611705565b935050606086013567ffffffffffffffff8111156117f4576117f3611439565b5b61180088828901611705565b925050608061181188828901611487565b9150509295509295909350565b6000819050919050565b600061184361183e6118398461143e565b61181e565b61143e565b9050919050565b600061185582611828565b9050919050565b60006118678261184a565b9050919050565b6118778161185c565b82525050565b6000602082019050611892600083018461186e565b92915050565b60006101208201905081810360008301526118b3818c611520565b905081810360208301526118c7818b611520565b905081810360408301526118db818a611520565b905081810360608301526118ef8189611520565b90506118fe6080830188611572565b61190b60a0830187611572565b61191860c0830186611559565b61192560e0830185611572565b611933610100830184611572565b9a9950505050505050505050565b60006020820190506119566000830184611572565b92915050565b60008060006060848603121561197557611974611434565b5b600084013567ffffffffffffffff81111561199357611992611439565b5b61199f86828701611705565b935050602084013567ffffffffffffffff8111156119c0576119bf611439565b5b6119cc86828701611705565b92505060406119dd86828701611487565b9150509250925092565b6119f081611568565b81146119fb57600080fd5b50565b600081359050611a0d816119e7565b92915050565b600060208284031215611a2957611a28611434565b5b6000611a37848285016119fe565b91505092915050565b6000602082019050611a556000830184611559565b92915050565b60008060408385031215611a7257611a71611434565b5b6000611a8085828601611487565b9250506020611a91858286016119fe565b9150509250929050565b7f43616c6c6572206973206e6f74206f776e657200000000000000000000000000600082015250565b6000611ad16013836114d4565b9150611adc82611a9b565b602082019050919050565b60006020820190508181036000830152611b0081611ac4565b9050919050565b7f506172747920646f6573206e6f74206578697374000000000000000000000000600082015250565b6000611b3d6014836114d4565b9150611b4882611b07565b602082019050919050565b60006020820190508181036000830152611b6c81611b30565b9050919050565b7f4e487b7100000000000000000000000000000000000000000000000000000000600052602260045260246000fd5b60006002820490506001821680611bba57607f821691505b602082108103611bcd57611bcc611b73565b5b50919050565b7f506172747920616c726561647920657869737473000000000000000000000000600082015250565b6000611c096014836114d4565b9150611c1482611bd3565b602082019050919050565b60006020820190508181036000830152611c3881611bfc565b9050919050565b60008190508160005260206000209050919050565b60006020601f8301049050919050565b600082821b905092915050565b600060088302611ca17fffffffffffffffffffffffffffffffffffffffffffffffffffffffffffffffff82611c64565b611cab8683611c64565b95508019841693508086168417925050509392505050565b6000611cde611cd9611cd484611568565b61181e565b611568565b9050919050565b6000819050919050565b611cf883611cc3565b611d0c611d0482611ce5565b848454611c71565b825550505050565b600090565b611d21611d14565b611d2c818484611cef565b505050565b5b81811015611d5057611d45600082611d19565b600181019050611d32565b5050565b601f821115611d9557611d6681611c3f565b611d6f84611c54565b81016020851015611d7e578190505b611d92611d8a85611c54565b830182611d31565b50505b505050565b600082821c905092915050565b6000611db860001984600802611d9a565b1980831691505092915050565b6000611dd18383611da7565b9150826002028217905092915050565b611dea826114c9565b67ffffffffffffffff811115611e0357611e02611608565b5b611e0d8254611ba2565b611e18828285611d54565b600060209050601f831160018114611e4b5760008415611e39578287015190505b611e438582611dc5565b865550611eab565b601f198416611e5986611c3f565b60005b82811015611e8157848901518255600182019150602085019450602081019050611e5c565b86831015611e9e5784890151611e9a601f891682611da7565b8355505b6001600288020188555050505b505050505050565b7f4e487b7100000000000000000000000000000000000000000000000000000000600052603260045260246000fd5b7f4e487b7100000000000000000000000000000000000000000000000000000000600052601160045260246000fd5b6000611f1c82611568565b9150611f2783611568565b9250828203905081811115611f3f57611f3e611ee2565b5b92915050565b7f4e487b7100000000000000000000000000000000000000000000000000000000600052603160045260246000fd5b6000611f7f82611568565b91507fffffffffffffffffffffffffffffffffffffffffffffffffffffffffffffffff8203611fb157611fb0611ee2565b5b60018201905091905056fea264697066735822122041ee3237217122fdccbb282f345d4c2bd2eb5b5df46f88e14cf82b3747a8a83664736f6c63430008130033",
  "immutableReferences": {},
  "source": "// SPDX-License-Identifier: UNLICENSED\r\n\r\npragma solidity >=0.7.0 <0.9.0;\r\n\r\nimport \"./Token.sol\";\r\n\r\ncontract PartyContract {\r\n\r\n    struct Party {\r\n        string name;\r\n        string contactNumber;\r\n        string email;\r\n        string password;\r\n        uint256 trustScore;\r\n        uint256 createdAt;\r\n        address partyAddress;\r\n        uint256[] tenderIds;\r\n        uint256 balance;\r\n        uint256 freezedBalance;\r\n        uint256[] tenderIdsToValidate;\r\n    }\r\n    \r\n    mapping (address => Party) public parties;\r\n    address[] public partyAddresses;\r\n    address public admin;\r\n    Token public tokenRef;\r\n    uint256 tokenAmount = 50; // Giving 50 token to created party ,Fixed amount of tokens to credit\r\n       \r\n    constructor(Token _tokenRef) {\r\n        tokenRef = _tokenRef; \r\n    //    _mint(payable(msg.sender), 5000000000000000000000000000000000000000 * (10 ** 18)); \r\n        // admin = msg.sender;\r\n    }\r\n\r\n    //setters and getters\r\n    function getTrustScore(address _partyAddress) public view returns(uint256) {\r\n        return parties[_partyAddress].trustScore;\r\n    }\r\n\r\n    function setTrustScore(address _partyAddress, uint256 _trustScore) public {\r\n        parties[_partyAddress].trustScore = _trustScore;\r\n    }\r\n\r\n    modifier isOwner(address owner) {\r\n        require(msg.sender == owner, \"Caller is not owner\");\r\n        _;\r\n    }\r\n\r\n    modifier isPartyExists(address _partyAddress) {\r\n        require(parties[_partyAddress].partyAddress != address(0), \"Party does not exist\");\r\n        _;\r\n    }\r\n\r\n    // Function for creating party\r\n    function createParty(string memory _name, string memory _contactNumber, string memory _email, string memory _password, address _partyAddress) public isOwner(_partyAddress){\r\n        require(parties[_partyAddress].partyAddress == address(0), \"Party already exists\"); //\r\n\r\n        Party storage newParty = parties[_partyAddress];\r\n        newParty.name = _name;\r\n        newParty.contactNumber = _contactNumber;\r\n        newParty.email = _email;\r\n        newParty.password = _password;\r\n        newParty.trustScore = 0;\r\n        newParty.createdAt = block.timestamp;\r\n        newParty.partyAddress = _partyAddress;\r\n        newParty.tenderIds = new uint256[](0); \r\n        newParty.freezedBalance = 0;\r\n        \r\n        // tokenRef.transfer(payable(_partyAddress), tokenAmount * (10 ** 18));\r\n        \r\n        partyAddresses.push(_partyAddress);\r\n    }\r\n\r\n    //Function for updating party\r\n    function updateParty(string memory _name, string memory _password, address _partyAddress) public isOwner(_partyAddress) isPartyExists(_partyAddress) {\r\n        // require(msg.sender == parties[_partyAddress].partyAddress, \"Only party owner can update/delete party details.\");\r\n        Party storage updatedParty = parties[_partyAddress];\r\n        updatedParty.name  = _name;\r\n        updatedParty.password = _password;\r\n    }\r\n    \r\n    //Function for deleting a party on platform\r\n    function deleteParty(address _partyAddress) public isOwner(_partyAddress) isPartyExists(_partyAddress) {\r\n        // require(msg.sender == parties[_partyAddress].partyAddress, \"Only party owner can update/delete party details.\");\r\n        delete parties[_partyAddress];\r\n        for (uint256 i = 0; i < partyAddresses.length; i++) {\r\n            if (partyAddresses[i] == msg.sender) {\r\n                partyAddresses[i] = partyAddresses[partyAddresses.length - 1];\r\n                partyAddresses.pop();\r\n                break;\r\n            }\r\n        }\r\n    }\r\n \r\n    // Function for getting details of a particular party\r\n    function getPartyDetails(address _partyAddress) public isOwner(_partyAddress) isPartyExists(_partyAddress) view returns (string memory, string memory, string memory, address, uint256, string memory) {\r\n        return (parties[_partyAddress].name, parties[_partyAddress].contactNumber, parties[_partyAddress].email, parties[_partyAddress].partyAddress, parties[_partyAddress].trustScore, parties[_partyAddress].password);\r\n    }\r\n}\r\n",
  "sourcePath": "C:\\Users\\sabba\\OneDrive\\Documents\\BlockchainProject\\blockchain-based-contracting-system\\contracts\\PartyContract.sol",
  "compiler": {
    "name": "solc",
    "version": "0.8.19+commit.7dd6d404.Emscripten.clang"
  },
  "schemaVersion": "3.4.13",
  "updatedAt": "2023-04-15T12:29:32.846Z",
  "networkType": "ethereum",
  "devdoc": {
    "kind": "dev",
    "methods": {},
    "version": 1
  },
  "userdoc": {
    "kind": "user",
    "methods": {},
    "version": 1
  }
}