{
  "contractName": "PartyContract",
  "abi": [
    {
      "inputs": [],
      "stateMutability": "nonpayable",
      "type": "constructor"
    },
    {
      "inputs": [],
      "name": "admin",
      "outputs": [
        {
          "internalType": "address",
          "name": "",
          "type": "address"
        }
      ],
      "stateMutability": "view",
      "type": "function",
      "constant": true
    },
    {
      "inputs": [
        {
          "internalType": "address",
          "name": "",
          "type": "address"
        }
      ],
      "name": "parties",
      "outputs": [
        {
          "internalType": "string",
          "name": "name",
          "type": "string"
        },
        {
          "internalType": "string",
          "name": "contactNumber",
          "type": "string"
        },
        {
          "internalType": "string",
          "name": "email",
          "type": "string"
        },
        {
          "internalType": "string",
          "name": "password",
          "type": "string"
        },
        {
          "internalType": "uint256",
          "name": "trustScore",
          "type": "uint256"
        },
        {
          "internalType": "uint256",
          "name": "createdAt",
          "type": "uint256"
        },
        {
          "internalType": "address",
          "name": "partyAddress",
          "type": "address"
        },
        {
          "internalType": "uint256",
          "name": "balance",
          "type": "uint256"
        }
      ],
      "stateMutability": "view",
      "type": "function",
      "constant": true
    },
    {
      "inputs": [
        {
          "internalType": "uint256",
          "name": "",
          "type": "uint256"
        }
      ],
      "name": "partyAddresses",
      "outputs": [
        {
          "internalType": "address",
          "name": "",
          "type": "address"
        }
      ],
      "stateMutability": "view",
      "type": "function",
      "constant": true
    },
    {
      "inputs": [
        {
          "internalType": "address",
          "name": "_partyAddress",
          "type": "address"
        }
      ],
      "name": "getTrustScore",
      "outputs": [
        {
          "internalType": "uint256",
          "name": "",
          "type": "uint256"
        }
      ],
      "stateMutability": "view",
      "type": "function",
      "constant": true
    },
    {
      "inputs": [
        {
          "internalType": "address",
          "name": "_partyAddress",
          "type": "address"
        },
        {
          "internalType": "uint256",
          "name": "_trustScore",
          "type": "uint256"
        }
      ],
      "name": "setTrustScore",
      "outputs": [],
      "stateMutability": "nonpayable",
      "type": "function"
    },
    {
      "inputs": [
        {
          "internalType": "string",
          "name": "_name",
          "type": "string"
        },
        {
          "internalType": "string",
          "name": "_contactNumber",
          "type": "string"
        },
        {
          "internalType": "string",
          "name": "_email",
          "type": "string"
        },
        {
          "internalType": "string",
          "name": "_password",
          "type": "string"
        },
        {
          "internalType": "address",
          "name": "_partyAddress",
          "type": "address"
        }
      ],
      "name": "createParty",
      "outputs": [],
      "stateMutability": "nonpayable",
      "type": "function"
    },
    {
      "inputs": [
        {
          "internalType": "string",
          "name": "_name",
          "type": "string"
        },
        {
          "internalType": "string",
          "name": "_password",
          "type": "string"
        },
        {
          "internalType": "address",
          "name": "_partyAddress",
          "type": "address"
        }
      ],
      "name": "updateParty",
      "outputs": [],
      "stateMutability": "nonpayable",
      "type": "function"
    },
    {
      "inputs": [
        {
          "internalType": "address",
          "name": "_partyAddress",
          "type": "address"
        }
      ],
      "name": "deleteParty",
      "outputs": [],
      "stateMutability": "nonpayable",
      "type": "function"
    },
    {
      "inputs": [
        {
          "internalType": "address",
          "name": "_partyAddress",
          "type": "address"
        }
      ],
      "name": "getPartyDetails",
      "outputs": [
        {
          "internalType": "string",
          "name": "",
          "type": "string"
        },
        {
          "internalType": "string",
          "name": "",
          "type": "string"
        },
        {
          "internalType": "string",
          "name": "",
          "type": "string"
        },
        {
          "internalType": "address",
          "name": "",
          "type": "address"
        },
        {
          "internalType": "uint256",
          "name": "",
          "type": "uint256"
        },
        {
          "internalType": "string",
          "name": "",
          "type": "string"
        }
      ],
      "stateMutability": "view",
      "type": "function",
      "constant": true
    }
  ],
  "bytecode": "0x608060405234801561001057600080fd5b50611f0b806100206000396000f3fe608060405234801561001057600080fd5b50600436106100925760003560e01c80637a0c7d39116100665780637a0c7d391461014f578063c792d8fd1461016b578063ef8c03911461019b578063f851a440146101b7578063feec4758146101d557610092565b8062da722814610097578063171fd848146100cc5780634f235207146100e85780635e09eea11461011f575b600080fd5b6100b160048036038101906100ac9190611434565b6101f1565b6040516100c396959493929190611519565b60405180910390f35b6100e660048036038101906100e191906116cb565b61072a565b005b61010260048036038101906100fd9190611434565b610a17565b6040516101169897969594939291906117b6565b60405180910390f35b61013960048036038101906101349190611434565b610c9f565b6040516101469190611850565b60405180910390f35b6101696004803603810190610164919061186b565b610cea565b005b61018560048036038101906101809190611922565b610e98565b604051610192919061194f565b60405180910390f35b6101b560048036038101906101b09190611434565b610ed7565b005b6101bf611287565b6040516101cc919061194f565b60405180910390f35b6101ef60048036038101906101ea919061196a565b6112ad565b005b60608060606000806060868073ffffffffffffffffffffffffffffffffffffffff163373ffffffffffffffffffffffffffffffffffffffff161461026a576040517f08c379a0000000000000000000000000000000000000000000000000000000008152600401610261906119f6565b60405180910390fd5b87600073ffffffffffffffffffffffffffffffffffffffff166000808373ffffffffffffffffffffffffffffffffffffffff1673ffffffffffffffffffffffffffffffffffffffff16815260200190815260200160002060060160009054906101000a900473ffffffffffffffffffffffffffffffffffffffff1673ffffffffffffffffffffffffffffffffffffffff160361033b576040517f08c379a000000000000000000000000000000000000000000000000000000000815260040161033290611a62565b60405180910390fd5b6000808a73ffffffffffffffffffffffffffffffffffffffff1673ffffffffffffffffffffffffffffffffffffffff1681526020019081526020016000206000016000808b73ffffffffffffffffffffffffffffffffffffffff1673ffffffffffffffffffffffffffffffffffffffff1681526020019081526020016000206001016000808c73ffffffffffffffffffffffffffffffffffffffff1673ffffffffffffffffffffffffffffffffffffffff1681526020019081526020016000206002016000808d73ffffffffffffffffffffffffffffffffffffffff1673ffffffffffffffffffffffffffffffffffffffff16815260200190815260200160002060060160009054906101000a900473ffffffffffffffffffffffffffffffffffffffff166000808e73ffffffffffffffffffffffffffffffffffffffff1673ffffffffffffffffffffffffffffffffffffffff168152602001908152602001600020600401546000808f73ffffffffffffffffffffffffffffffffffffffff1673ffffffffffffffffffffffffffffffffffffffff1681526020019081526020016000206003018580546104ef90611ab1565b80601f016020809104026020016040519081016040528092919081815260200182805461051b90611ab1565b80156105685780601f1061053d57610100808354040283529160200191610568565b820191906000526020600020905b81548152906001019060200180831161054b57829003601f168201915b5050505050955084805461057b90611ab1565b80601f01602080910402602001604051908101604052809291908181526020018280546105a790611ab1565b80156105f45780601f106105c9576101008083540402835291602001916105f4565b820191906000526020600020905b8154815290600101906020018083116105d757829003601f168201915b5050505050945083805461060790611ab1565b80601f016020809104026020016040519081016040528092919081815260200182805461063390611ab1565b80156106805780601f1061065557610100808354040283529160200191610680565b820191906000526020600020905b81548152906001019060200180831161066357829003601f168201915b5050505050935080805461069390611ab1565b80601f01602080910402602001604051908101604052809291908181526020018280546106bf90611ab1565b801561070c5780601f106106e15761010080835404028352916020019161070c565b820191906000526020600020905b8154815290600101906020018083116106ef57829003601f168201915b50505050509050975097509750975097509750505091939550919395565b808073ffffffffffffffffffffffffffffffffffffffff163373ffffffffffffffffffffffffffffffffffffffff1614610799576040517f08c379a0000000000000000000000000000000000000000000000000000000008152600401610790906119f6565b60405180910390fd5b600073ffffffffffffffffffffffffffffffffffffffff166000808473ffffffffffffffffffffffffffffffffffffffff1673ffffffffffffffffffffffffffffffffffffffff16815260200190815260200160002060060160009054906101000a900473ffffffffffffffffffffffffffffffffffffffff1673ffffffffffffffffffffffffffffffffffffffff1614610869576040517f08c379a000000000000000000000000000000000000000000000000000000000815260040161086090611b2e565b60405180910390fd5b60008060008473ffffffffffffffffffffffffffffffffffffffff1673ffffffffffffffffffffffffffffffffffffffff1681526020019081526020016000209050868160000190816108bc9190611cfa565b50858160010190816108ce9190611cfa565b50848160020190816108e09190611cfa565b50838160030190816108f29190611cfa565b5060008160040181905550428160050181905550828160060160006101000a81548173ffffffffffffffffffffffffffffffffffffffff021916908373ffffffffffffffffffffffffffffffffffffffff160217905550600067ffffffffffffffff811115610964576109636115a0565b5b6040519080825280602002602001820160405280156109925781602001602082028036833780820191505090505b508160070190805190602001906109aa9291906112f7565b506001839080600181540180825580915050600190039060005260206000200160009091909190916101000a81548173ffffffffffffffffffffffffffffffffffffffff021916908373ffffffffffffffffffffffffffffffffffffffff16021790555050505050505050565b6000602052806000526040600020600091509050806000018054610a3a90611ab1565b80601f0160208091040260200160405190810160405280929190818152602001828054610a6690611ab1565b8015610ab35780601f10610a8857610100808354040283529160200191610ab3565b820191906000526020600020905b815481529060010190602001808311610a9657829003601f168201915b505050505090806001018054610ac890611ab1565b80601f0160208091040260200160405190810160405280929190818152602001828054610af490611ab1565b8015610b415780601f10610b1657610100808354040283529160200191610b41565b820191906000526020600020905b815481529060010190602001808311610b2457829003601f168201915b505050505090806002018054610b5690611ab1565b80601f0160208091040260200160405190810160405280929190818152602001828054610b8290611ab1565b8015610bcf5780601f10610ba457610100808354040283529160200191610bcf565b820191906000526020600020905b815481529060010190602001808311610bb257829003601f168201915b505050505090806003018054610be490611ab1565b80601f0160208091040260200160405190810160405280929190818152602001828054610c1090611ab1565b8015610c5d5780601f10610c3257610100808354040283529160200191610c5d565b820191906000526020600020905b815481529060010190602001808311610c4057829003601f168201915b5050505050908060040154908060050154908060060160009054906101000a900473ffffffffffffffffffffffffffffffffffffffff16908060080154905088565b60008060008373ffffffffffffffffffffffffffffffffffffffff1673ffffffffffffffffffffffffffffffffffffffff168152602001908152602001600020600401549050919050565b808073ffffffffffffffffffffffffffffffffffffffff163373ffffffffffffffffffffffffffffffffffffffff1614610d59576040517f08c379a0000000000000000000000000000000000000000000000000000000008152600401610d50906119f6565b60405180910390fd5b81600073ffffffffffffffffffffffffffffffffffffffff166000808373ffffffffffffffffffffffffffffffffffffffff1673ffffffffffffffffffffffffffffffffffffffff16815260200190815260200160002060060160009054906101000a900473ffffffffffffffffffffffffffffffffffffffff1673ffffffffffffffffffffffffffffffffffffffff1603610e2a576040517f08c379a0000000000000000000000000000000000000000000000000000000008152600401610e2190611a62565b60405180910390fd5b60008060008573ffffffffffffffffffffffffffffffffffffffff1673ffffffffffffffffffffffffffffffffffffffff168152602001908152602001600020905085816000019081610e7d9190611cfa565b5084816003019081610e8f9190611cfa565b50505050505050565b60018181548110610ea857600080fd5b906000526020600020016000915054906101000a900473ffffffffffffffffffffffffffffffffffffffff1681565b808073ffffffffffffffffffffffffffffffffffffffff163373ffffffffffffffffffffffffffffffffffffffff1614610f46576040517f08c379a0000000000000000000000000000000000000000000000000000000008152600401610f3d906119f6565b60405180910390fd5b81600073ffffffffffffffffffffffffffffffffffffffff166000808373ffffffffffffffffffffffffffffffffffffffff1673ffffffffffffffffffffffffffffffffffffffff16815260200190815260200160002060060160009054906101000a900473ffffffffffffffffffffffffffffffffffffffff1673ffffffffffffffffffffffffffffffffffffffff1603611017576040517f08c379a000000000000000000000000000000000000000000000000000000000815260040161100e90611a62565b60405180910390fd5b6000808473ffffffffffffffffffffffffffffffffffffffff1673ffffffffffffffffffffffffffffffffffffffff168152602001908152602001600020600080820160006110669190611344565b6001820160006110769190611344565b6002820160006110869190611344565b6003820160006110969190611344565b600482016000905560058201600090556006820160006101000a81549073ffffffffffffffffffffffffffffffffffffffff02191690556007820160006110dd9190611384565b60088201600090556009820160006110f59190611384565b505060005b600180549050811015611281573373ffffffffffffffffffffffffffffffffffffffff166001828154811061113257611131611dcc565b5b9060005260206000200160009054906101000a900473ffffffffffffffffffffffffffffffffffffffff1673ffffffffffffffffffffffffffffffffffffffff160361126e57600180808054905061118a9190611e2a565b8154811061119b5761119a611dcc565b5b9060005260206000200160009054906101000a900473ffffffffffffffffffffffffffffffffffffffff16600182815481106111da576111d9611dcc565b5b9060005260206000200160006101000a81548173ffffffffffffffffffffffffffffffffffffffff021916908373ffffffffffffffffffffffffffffffffffffffff160217905550600180548061123457611233611e5e565b5b6001900381819060005260206000200160006101000a81549073ffffffffffffffffffffffffffffffffffffffff02191690559055611281565b808061127990611e8d565b9150506110fa565b50505050565b600260009054906101000a900473ffffffffffffffffffffffffffffffffffffffff1681565b806000808473ffffffffffffffffffffffffffffffffffffffff1673ffffffffffffffffffffffffffffffffffffffff168152602001908152602001600020600401819055505050565b828054828255906000526020600020908101928215611333579160200282015b82811115611332578251825591602001919060010190611317565b5b50905061134091906113a5565b5090565b50805461135090611ab1565b6000825580601f106113625750611381565b601f01602090049060005260206000209081019061138091906113a5565b5b50565b50805460008255906000526020600020908101906113a291906113a5565b50565b5b808211156113be5760008160009055506001016113a6565b5090565b6000604051905090565b600080fd5b600080fd5b600073ffffffffffffffffffffffffffffffffffffffff82169050919050565b6000611401826113d6565b9050919050565b611411816113f6565b811461141c57600080fd5b50565b60008135905061142e81611408565b92915050565b60006020828403121561144a576114496113cc565b5b60006114588482850161141f565b91505092915050565b600081519050919050565b600082825260208201905092915050565b60005b8381101561149b578082015181840152602081019050611480565b60008484015250505050565b6000601f19601f8301169050919050565b60006114c382611461565b6114cd818561146c565b93506114dd81856020860161147d565b6114e6816114a7565b840191505092915050565b6114fa816113f6565b82525050565b6000819050919050565b61151381611500565b82525050565b600060c082019050818103600083015261153381896114b8565b9050818103602083015261154781886114b8565b9050818103604083015261155b81876114b8565b905061156a60608301866114f1565b611577608083018561150a565b81810360a083015261158981846114b8565b9050979650505050505050565b600080fd5b600080fd5b7f4e487b7100000000000000000000000000000000000000000000000000000000600052604160045260246000fd5b6115d8826114a7565b810181811067ffffffffffffffff821117156115f7576115f66115a0565b5b80604052505050565b600061160a6113c2565b905061161682826115cf565b919050565b600067ffffffffffffffff821115611636576116356115a0565b5b61163f826114a7565b9050602081019050919050565b82818337600083830152505050565b600061166e6116698461161b565b611600565b90508281526020810184848401111561168a5761168961159b565b5b61169584828561164c565b509392505050565b600082601f8301126116b2576116b1611596565b5b81356116c284826020860161165b565b91505092915050565b600080600080600060a086880312156116e7576116e66113cc565b5b600086013567ffffffffffffffff811115611705576117046113d1565b5b6117118882890161169d565b955050602086013567ffffffffffffffff811115611732576117316113d1565b5b61173e8882890161169d565b945050604086013567ffffffffffffffff81111561175f5761175e6113d1565b5b61176b8882890161169d565b935050606086013567ffffffffffffffff81111561178c5761178b6113d1565b5b6117988882890161169d565b92505060806117a98882890161141f565b9150509295509295909350565b60006101008201905081810360008301526117d1818b6114b8565b905081810360208301526117e5818a6114b8565b905081810360408301526117f981896114b8565b9050818103606083015261180d81886114b8565b905061181c608083018761150a565b61182960a083018661150a565b61183660c08301856114f1565b61184360e083018461150a565b9998505050505050505050565b6000602082019050611865600083018461150a565b92915050565b600080600060608486031215611884576118836113cc565b5b600084013567ffffffffffffffff8111156118a2576118a16113d1565b5b6118ae8682870161169d565b935050602084013567ffffffffffffffff8111156118cf576118ce6113d1565b5b6118db8682870161169d565b92505060406118ec8682870161141f565b9150509250925092565b6118ff81611500565b811461190a57600080fd5b50565b60008135905061191c816118f6565b92915050565b600060208284031215611938576119376113cc565b5b60006119468482850161190d565b91505092915050565b600060208201905061196460008301846114f1565b92915050565b60008060408385031215611981576119806113cc565b5b600061198f8582860161141f565b92505060206119a08582860161190d565b9150509250929050565b7f43616c6c6572206973206e6f74206f776e657200000000000000000000000000600082015250565b60006119e060138361146c565b91506119eb826119aa565b602082019050919050565b60006020820190508181036000830152611a0f816119d3565b9050919050565b7f506172747920646f6573206e6f74206578697374000000000000000000000000600082015250565b6000611a4c60148361146c565b9150611a5782611a16565b602082019050919050565b60006020820190508181036000830152611a7b81611a3f565b9050919050565b7f4e487b7100000000000000000000000000000000000000000000000000000000600052602260045260246000fd5b60006002820490506001821680611ac957607f821691505b602082108103611adc57611adb611a82565b5b50919050565b7f506172747920616c726561647920657869737473000000000000000000000000600082015250565b6000611b1860148361146c565b9150611b2382611ae2565b602082019050919050565b60006020820190508181036000830152611b4781611b0b565b9050919050565b60008190508160005260206000209050919050565b60006020601f8301049050919050565b600082821b905092915050565b600060088302611bb07fffffffffffffffffffffffffffffffffffffffffffffffffffffffffffffffff82611b73565b611bba8683611b73565b95508019841693508086168417925050509392505050565b6000819050919050565b6000611bf7611bf2611bed84611500565b611bd2565b611500565b9050919050565b6000819050919050565b611c1183611bdc565b611c25611c1d82611bfe565b848454611b80565b825550505050565b600090565b611c3a611c2d565b611c45818484611c08565b505050565b5b81811015611c6957611c5e600082611c32565b600181019050611c4b565b5050565b601f821115611cae57611c7f81611b4e565b611c8884611b63565b81016020851015611c97578190505b611cab611ca385611b63565b830182611c4a565b50505b505050565b600082821c905092915050565b6000611cd160001984600802611cb3565b1980831691505092915050565b6000611cea8383611cc0565b9150826002028217905092915050565b611d0382611461565b67ffffffffffffffff811115611d1c57611d1b6115a0565b5b611d268254611ab1565b611d31828285611c6d565b600060209050601f831160018114611d645760008415611d52578287015190505b611d5c8582611cde565b865550611dc4565b601f198416611d7286611b4e565b60005b82811015611d9a57848901518255600182019150602085019450602081019050611d75565b86831015611db75784890151611db3601f891682611cc0565b8355505b6001600288020188555050505b505050505050565b7f4e487b7100000000000000000000000000000000000000000000000000000000600052603260045260246000fd5b7f4e487b7100000000000000000000000000000000000000000000000000000000600052601160045260246000fd5b6000611e3582611500565b9150611e4083611500565b9250828203905081811115611e5857611e57611dfb565b5b92915050565b7f4e487b7100000000000000000000000000000000000000000000000000000000600052603160045260246000fd5b6000611e9882611500565b91507fffffffffffffffffffffffffffffffffffffffffffffffffffffffffffffffff8203611eca57611ec9611dfb565b5b60018201905091905056fea264697066735822122070bd50c6fae0f9d2986c100229f3165de6e0b28e969ced0689597a8db017a36f64736f6c63430008130033",
  "immutableReferences": {},
  "source": "// SPDX-License-Identifier: UNLICENSED\r\n\r\npragma solidity >=0.7.0 <0.9.0;\r\n\r\n// import \"https://github.com/OpenZeppelin/openzeppelin-contracts/blob/master/contracts/token/ERC20/ERC20.sol\"; // Use this while running it in remix\r\n // Otherwise use this\r\nimport \"./Token.sol\";\r\n\r\ncontract PartyContract {\r\n\r\n    struct Party {\r\n        string name;\r\n        string contactNumber;\r\n        string email;\r\n        string password;\r\n        uint256 trustScore;\r\n        uint256 createdAt;\r\n        address partyAddress;\r\n        uint256[] tenderIds;\r\n        uint256 balance;\r\n        uint256[] tenderIdsToValidate;\r\n    }\r\n    \r\n    mapping (address => Party) public parties;\r\n    address[] public partyAddresses;\r\n    address public admin;\r\n    // Token public tokenRef;\r\n       \r\n    constructor() {\r\n        // tokenRef = _tokenRef;  \r\n        // admin = msg.sender;\r\n    }\r\n\r\n    //setters and getters\r\n    function getTrustScore(address _partyAddress) public view returns(uint256) {\r\n        return parties[_partyAddress].trustScore;\r\n    }\r\n\r\n    function setTrustScore(address _partyAddress, uint256 _trustScore) public {\r\n        parties[_partyAddress].trustScore = _trustScore;\r\n    }\r\n\r\n    modifier isOwner(address owner) {\r\n        require(msg.sender == owner, \"Caller is not owner\");\r\n        _;\r\n    }\r\n\r\n    modifier isPartyExists(address _partyAddress) {\r\n        require(parties[_partyAddress].partyAddress != address(0), \"Party does not exist\");\r\n        _;\r\n    }\r\n\r\n    // Function for creating party\r\n    function createParty(string memory _name, string memory _contactNumber, string memory _email, string memory _password, address _partyAddress) public isOwner(_partyAddress){\r\n        require(parties[_partyAddress].partyAddress == address(0), \"Party already exists\"); //\r\n\r\n        Party storage newParty = parties[_partyAddress];\r\n        newParty.name = _name;\r\n        newParty.contactNumber = _contactNumber;\r\n        newParty.email = _email;\r\n        newParty.password = _password;\r\n        newParty.trustScore = 0;\r\n        newParty.createdAt = block.timestamp;\r\n        newParty.partyAddress = _partyAddress;\r\n        newParty.tenderIds = new uint256[](0); \r\n        // Giving 50 token to created party\r\n        // uint256 tokenAmount = 50; // Fixed amount of tokens to credit\r\n        // tokenRef.transfer(payable(_partyAddress), tokenAmount * (10 ** 18));\r\n        \r\n        partyAddresses.push(_partyAddress);\r\n    }\r\n\r\n    //Function for updating party\r\n    function updateParty(string memory _name, string memory _password, address _partyAddress) public isOwner(_partyAddress) isPartyExists(_partyAddress) {\r\n        // require(msg.sender == parties[_partyAddress].partyAddress, \"Only party owner can update/delete party details.\");\r\n        Party storage updatedParty = parties[_partyAddress];\r\n        updatedParty.name  = _name;\r\n        updatedParty.password = _password;\r\n    }\r\n    \r\n    //Function for deleting a party on platform\r\n    function deleteParty(address _partyAddress) public isOwner(_partyAddress) isPartyExists(_partyAddress) {\r\n        // require(msg.sender == parties[_partyAddress].partyAddress, \"Only party owner can update/delete party details.\");\r\n        delete parties[_partyAddress];\r\n        for (uint256 i = 0; i < partyAddresses.length; i++) {\r\n            if (partyAddresses[i] == msg.sender) {\r\n                partyAddresses[i] = partyAddresses[partyAddresses.length - 1];\r\n                partyAddresses.pop();\r\n                break;\r\n            }\r\n        }\r\n    }\r\n \r\n    // Function for getting details of a particular party\r\n    function getPartyDetails(address _partyAddress) public isOwner(_partyAddress) isPartyExists(_partyAddress) view returns (string memory, string memory, string memory, address, uint256, string memory) {\r\n        return (parties[_partyAddress].name, parties[_partyAddress].contactNumber, parties[_partyAddress].email, parties[_partyAddress].partyAddress, parties[_partyAddress].trustScore, parties[_partyAddress].password);\r\n    }\r\n\r\n\r\n}\r\n",
  "sourcePath": "C:\\Users\\sabba\\OneDrive\\Documents\\BlockchainProject\\blockchain-based-contracting-system\\contracts\\PartyContract.sol",
  "compiler": {
    "name": "solc",
    "version": "0.8.19+commit.7dd6d404.Emscripten.clang"
  },
  "schemaVersion": "3.4.13",
  "updatedAt": "2023-04-14T21:53:50.131Z",
  "networkType": "ethereum",
  "devdoc": {
    "kind": "dev",
    "methods": {},
    "version": 1
  },
  "userdoc": {
    "kind": "user",
    "methods": {},
    "version": 1
  }
}