{
  "contractName": "PartyContract",
  "abi": [
    {
      "inputs": [],
      "stateMutability": "nonpayable",
      "type": "constructor"
    },
    {
      "inputs": [
        {
          "internalType": "address",
          "name": "",
          "type": "address"
        }
      ],
      "name": "parties",
      "outputs": [
        {
          "internalType": "string",
          "name": "name",
          "type": "string"
        },
        {
          "internalType": "string",
          "name": "contactNumber",
          "type": "string"
        },
        {
          "internalType": "string",
          "name": "email",
          "type": "string"
        },
        {
          "internalType": "string",
          "name": "password",
          "type": "string"
        },
        {
          "internalType": "uint256",
          "name": "trustScore",
          "type": "uint256"
        },
        {
          "internalType": "uint256",
          "name": "createdAt",
          "type": "uint256"
        },
        {
          "internalType": "address",
          "name": "partyAddress",
          "type": "address"
        }
      ],
      "stateMutability": "view",
      "type": "function",
      "constant": true
    },
    {
      "inputs": [
        {
          "internalType": "uint256",
          "name": "",
          "type": "uint256"
        }
      ],
      "name": "partyAddresses",
      "outputs": [
        {
          "internalType": "address",
          "name": "",
          "type": "address"
        }
      ],
      "stateMutability": "view",
      "type": "function",
      "constant": true
    },
    {
      "inputs": [
        {
          "internalType": "string",
          "name": "_name",
          "type": "string"
        },
        {
          "internalType": "string",
          "name": "_contactNumber",
          "type": "string"
        },
        {
          "internalType": "string",
          "name": "_email",
          "type": "string"
        },
        {
          "internalType": "string",
          "name": "_password",
          "type": "string"
        },
        {
          "internalType": "address",
          "name": "_partyAddress",
          "type": "address"
        }
      ],
      "name": "createParty",
      "outputs": [],
      "stateMutability": "nonpayable",
      "type": "function"
    },
    {
      "inputs": [
        {
          "internalType": "string",
          "name": "_name",
          "type": "string"
        },
        {
          "internalType": "string",
          "name": "_password",
          "type": "string"
        },
        {
          "internalType": "address",
          "name": "_partyAddress",
          "type": "address"
        }
      ],
      "name": "updateParty",
      "outputs": [],
      "stateMutability": "nonpayable",
      "type": "function"
    },
    {
      "inputs": [
        {
          "internalType": "address",
          "name": "_partyAddress",
          "type": "address"
        }
      ],
      "name": "deleteParty",
      "outputs": [],
      "stateMutability": "nonpayable",
      "type": "function"
    },
    {
      "inputs": [
        {
          "internalType": "address",
          "name": "_partyAddress",
          "type": "address"
        }
      ],
      "name": "getPartyDetails",
      "outputs": [
        {
          "internalType": "string",
          "name": "",
          "type": "string"
        },
        {
          "internalType": "string",
          "name": "",
          "type": "string"
        },
        {
          "internalType": "string",
          "name": "",
          "type": "string"
        },
        {
          "internalType": "address",
          "name": "",
          "type": "address"
        },
        {
          "internalType": "uint256",
          "name": "",
          "type": "uint256"
        },
        {
          "internalType": "string",
          "name": "",
          "type": "string"
        }
      ],
      "stateMutability": "view",
      "type": "function",
      "constant": true
    }
  ],
  "bytecode": "0x608060405234801561001057600080fd5b50611c7d806100206000396000f3fe608060405234801561001057600080fd5b50600436106100615760003560e01c8062da722814610066578063171fd8481461009b5780634f235207146100b75780637a0c7d39146100ed578063c792d8fd14610109578063ef8c039114610139575b600080fd5b610080600480360381019061007b9190611210565b610155565b604051610092969594939291906112f5565b60405180910390f35b6100b560048036038101906100b091906114a7565b61068e565b005b6100d160048036038101906100cc9190611210565b610919565b6040516100e49796959493929190611592565b60405180910390f35b6101076004803603810190610102919061161d565b610b9b565b005b610123600480360381019061011e91906116d4565b610d49565b6040516101309190611701565b60405180910390f35b610153600480360381019061014e9190611210565b610d88565b005b60608060606000806060868073ffffffffffffffffffffffffffffffffffffffff163373ffffffffffffffffffffffffffffffffffffffff16146101ce576040517f08c379a00000000000000000000000000000000000000000000000000000000081526004016101c590611768565b60405180910390fd5b87600073ffffffffffffffffffffffffffffffffffffffff166000808373ffffffffffffffffffffffffffffffffffffffff1673ffffffffffffffffffffffffffffffffffffffff16815260200190815260200160002060060160009054906101000a900473ffffffffffffffffffffffffffffffffffffffff1673ffffffffffffffffffffffffffffffffffffffff160361029f576040517f08c379a0000000000000000000000000000000000000000000000000000000008152600401610296906117d4565b60405180910390fd5b6000808a73ffffffffffffffffffffffffffffffffffffffff1673ffffffffffffffffffffffffffffffffffffffff1681526020019081526020016000206000016000808b73ffffffffffffffffffffffffffffffffffffffff1673ffffffffffffffffffffffffffffffffffffffff1681526020019081526020016000206001016000808c73ffffffffffffffffffffffffffffffffffffffff1673ffffffffffffffffffffffffffffffffffffffff1681526020019081526020016000206002016000808d73ffffffffffffffffffffffffffffffffffffffff1673ffffffffffffffffffffffffffffffffffffffff16815260200190815260200160002060060160009054906101000a900473ffffffffffffffffffffffffffffffffffffffff166000808e73ffffffffffffffffffffffffffffffffffffffff1673ffffffffffffffffffffffffffffffffffffffff168152602001908152602001600020600401546000808f73ffffffffffffffffffffffffffffffffffffffff1673ffffffffffffffffffffffffffffffffffffffff16815260200190815260200160002060030185805461045390611823565b80601f016020809104026020016040519081016040528092919081815260200182805461047f90611823565b80156104cc5780601f106104a1576101008083540402835291602001916104cc565b820191906000526020600020905b8154815290600101906020018083116104af57829003601f168201915b505050505095508480546104df90611823565b80601f016020809104026020016040519081016040528092919081815260200182805461050b90611823565b80156105585780601f1061052d57610100808354040283529160200191610558565b820191906000526020600020905b81548152906001019060200180831161053b57829003601f168201915b5050505050945083805461056b90611823565b80601f016020809104026020016040519081016040528092919081815260200182805461059790611823565b80156105e45780601f106105b9576101008083540402835291602001916105e4565b820191906000526020600020905b8154815290600101906020018083116105c757829003601f168201915b505050505093508080546105f790611823565b80601f016020809104026020016040519081016040528092919081815260200182805461062390611823565b80156106705780601f1061064557610100808354040283529160200191610670565b820191906000526020600020905b81548152906001019060200180831161065357829003601f168201915b50505050509050975097509750975097509750505091939550919395565b808073ffffffffffffffffffffffffffffffffffffffff163373ffffffffffffffffffffffffffffffffffffffff16146106fd576040517f08c379a00000000000000000000000000000000000000000000000000000000081526004016106f490611768565b60405180910390fd5b600073ffffffffffffffffffffffffffffffffffffffff166000808473ffffffffffffffffffffffffffffffffffffffff1673ffffffffffffffffffffffffffffffffffffffff16815260200190815260200160002060060160009054906101000a900473ffffffffffffffffffffffffffffffffffffffff1673ffffffffffffffffffffffffffffffffffffffff16146107cd576040517f08c379a00000000000000000000000000000000000000000000000000000000081526004016107c4906118a0565b60405180910390fd5b60008060008473ffffffffffffffffffffffffffffffffffffffff1673ffffffffffffffffffffffffffffffffffffffff1681526020019081526020016000209050868160000190816108209190611a6c565b50858160010190816108329190611a6c565b50848160020190816108449190611a6c565b50838160030190816108569190611a6c565b5060008160040181905550428160050181905550828160060160006101000a81548173ffffffffffffffffffffffffffffffffffffffff021916908373ffffffffffffffffffffffffffffffffffffffff1602179055506001839080600181540180825580915050600190039060005260206000200160009091909190916101000a81548173ffffffffffffffffffffffffffffffffffffffff021916908373ffffffffffffffffffffffffffffffffffffffff16021790555050505050505050565b600060205280600052604060002060009150905080600001805461093c90611823565b80601f016020809104026020016040519081016040528092919081815260200182805461096890611823565b80156109b55780601f1061098a576101008083540402835291602001916109b5565b820191906000526020600020905b81548152906001019060200180831161099857829003601f168201915b5050505050908060010180546109ca90611823565b80601f01602080910402602001604051908101604052809291908181526020018280546109f690611823565b8015610a435780601f10610a1857610100808354040283529160200191610a43565b820191906000526020600020905b815481529060010190602001808311610a2657829003601f168201915b505050505090806002018054610a5890611823565b80601f0160208091040260200160405190810160405280929190818152602001828054610a8490611823565b8015610ad15780601f10610aa657610100808354040283529160200191610ad1565b820191906000526020600020905b815481529060010190602001808311610ab457829003601f168201915b505050505090806003018054610ae690611823565b80601f0160208091040260200160405190810160405280929190818152602001828054610b1290611823565b8015610b5f5780601f10610b3457610100808354040283529160200191610b5f565b820191906000526020600020905b815481529060010190602001808311610b4257829003601f168201915b5050505050908060040154908060050154908060060160009054906101000a900473ffffffffffffffffffffffffffffffffffffffff16905087565b808073ffffffffffffffffffffffffffffffffffffffff163373ffffffffffffffffffffffffffffffffffffffff1614610c0a576040517f08c379a0000000000000000000000000000000000000000000000000000000008152600401610c0190611768565b60405180910390fd5b81600073ffffffffffffffffffffffffffffffffffffffff166000808373ffffffffffffffffffffffffffffffffffffffff1673ffffffffffffffffffffffffffffffffffffffff16815260200190815260200160002060060160009054906101000a900473ffffffffffffffffffffffffffffffffffffffff1673ffffffffffffffffffffffffffffffffffffffff1603610cdb576040517f08c379a0000000000000000000000000000000000000000000000000000000008152600401610cd2906117d4565b60405180910390fd5b60008060008573ffffffffffffffffffffffffffffffffffffffff1673ffffffffffffffffffffffffffffffffffffffff168152602001908152602001600020905085816000019081610d2e9190611a6c565b5084816003019081610d409190611a6c565b50505050505050565b60018181548110610d5957600080fd5b906000526020600020016000915054906101000a900473ffffffffffffffffffffffffffffffffffffffff1681565b808073ffffffffffffffffffffffffffffffffffffffff163373ffffffffffffffffffffffffffffffffffffffff1614610df7576040517f08c379a0000000000000000000000000000000000000000000000000000000008152600401610dee90611768565b60405180910390fd5b81600073ffffffffffffffffffffffffffffffffffffffff166000808373ffffffffffffffffffffffffffffffffffffffff1673ffffffffffffffffffffffffffffffffffffffff16815260200190815260200160002060060160009054906101000a900473ffffffffffffffffffffffffffffffffffffffff1673ffffffffffffffffffffffffffffffffffffffff1603610ec8576040517f08c379a0000000000000000000000000000000000000000000000000000000008152600401610ebf906117d4565b60405180910390fd5b6000808473ffffffffffffffffffffffffffffffffffffffff1673ffffffffffffffffffffffffffffffffffffffff16815260200190815260200160002060008082016000610f179190611120565b600182016000610f279190611120565b600282016000610f379190611120565b600382016000610f479190611120565b600482016000905560058201600090556006820160006101000a81549073ffffffffffffffffffffffffffffffffffffffff0219169055600782016000610f8e9190611160565b505060005b60018054905081101561111a573373ffffffffffffffffffffffffffffffffffffffff1660018281548110610fcb57610fca611b3e565b5b9060005260206000200160009054906101000a900473ffffffffffffffffffffffffffffffffffffffff1673ffffffffffffffffffffffffffffffffffffffff16036111075760018080805490506110239190611b9c565b8154811061103457611033611b3e565b5b9060005260206000200160009054906101000a900473ffffffffffffffffffffffffffffffffffffffff166001828154811061107357611072611b3e565b5b9060005260206000200160006101000a81548173ffffffffffffffffffffffffffffffffffffffff021916908373ffffffffffffffffffffffffffffffffffffffff16021790555060018054806110cd576110cc611bd0565b5b6001900381819060005260206000200160006101000a81549073ffffffffffffffffffffffffffffffffffffffff0219169055905561111a565b808061111290611bff565b915050610f93565b50505050565b50805461112c90611823565b6000825580601f1061113e575061115d565b601f01602090049060005260206000209081019061115c9190611181565b5b50565b508054600082559060005260206000209081019061117e9190611181565b50565b5b8082111561119a576000816000905550600101611182565b5090565b6000604051905090565b600080fd5b600080fd5b600073ffffffffffffffffffffffffffffffffffffffff82169050919050565b60006111dd826111b2565b9050919050565b6111ed816111d2565b81146111f857600080fd5b50565b60008135905061120a816111e4565b92915050565b600060208284031215611226576112256111a8565b5b6000611234848285016111fb565b91505092915050565b600081519050919050565b600082825260208201905092915050565b60005b8381101561127757808201518184015260208101905061125c565b60008484015250505050565b6000601f19601f8301169050919050565b600061129f8261123d565b6112a98185611248565b93506112b9818560208601611259565b6112c281611283565b840191505092915050565b6112d6816111d2565b82525050565b6000819050919050565b6112ef816112dc565b82525050565b600060c082019050818103600083015261130f8189611294565b905081810360208301526113238188611294565b905081810360408301526113378187611294565b905061134660608301866112cd565b61135360808301856112e6565b81810360a08301526113658184611294565b9050979650505050505050565b600080fd5b600080fd5b7f4e487b7100000000000000000000000000000000000000000000000000000000600052604160045260246000fd5b6113b482611283565b810181811067ffffffffffffffff821117156113d3576113d261137c565b5b80604052505050565b60006113e661119e565b90506113f282826113ab565b919050565b600067ffffffffffffffff8211156114125761141161137c565b5b61141b82611283565b9050602081019050919050565b82818337600083830152505050565b600061144a611445846113f7565b6113dc565b90508281526020810184848401111561146657611465611377565b5b611471848285611428565b509392505050565b600082601f83011261148e5761148d611372565b5b813561149e848260208601611437565b91505092915050565b600080600080600060a086880312156114c3576114c26111a8565b5b600086013567ffffffffffffffff8111156114e1576114e06111ad565b5b6114ed88828901611479565b955050602086013567ffffffffffffffff81111561150e5761150d6111ad565b5b61151a88828901611479565b945050604086013567ffffffffffffffff81111561153b5761153a6111ad565b5b61154788828901611479565b935050606086013567ffffffffffffffff811115611568576115676111ad565b5b61157488828901611479565b9250506080611585888289016111fb565b9150509295509295909350565b600060e08201905081810360008301526115ac818a611294565b905081810360208301526115c08189611294565b905081810360408301526115d48188611294565b905081810360608301526115e88187611294565b90506115f760808301866112e6565b61160460a08301856112e6565b61161160c08301846112cd565b98975050505050505050565b600080600060608486031215611636576116356111a8565b5b600084013567ffffffffffffffff811115611654576116536111ad565b5b61166086828701611479565b935050602084013567ffffffffffffffff811115611681576116806111ad565b5b61168d86828701611479565b925050604061169e868287016111fb565b9150509250925092565b6116b1816112dc565b81146116bc57600080fd5b50565b6000813590506116ce816116a8565b92915050565b6000602082840312156116ea576116e96111a8565b5b60006116f8848285016116bf565b91505092915050565b600060208201905061171660008301846112cd565b92915050565b7f43616c6c6572206973206e6f74206f776e657200000000000000000000000000600082015250565b6000611752601383611248565b915061175d8261171c565b602082019050919050565b6000602082019050818103600083015261178181611745565b9050919050565b7f506172747920646f6573206e6f74206578697374000000000000000000000000600082015250565b60006117be601483611248565b91506117c982611788565b602082019050919050565b600060208201905081810360008301526117ed816117b1565b9050919050565b7f4e487b7100000000000000000000000000000000000000000000000000000000600052602260045260246000fd5b6000600282049050600182168061183b57607f821691505b60208210810361184e5761184d6117f4565b5b50919050565b7f506172747920616c726561647920657869737473000000000000000000000000600082015250565b600061188a601483611248565b915061189582611854565b602082019050919050565b600060208201905081810360008301526118b98161187d565b9050919050565b60008190508160005260206000209050919050565b60006020601f8301049050919050565b600082821b905092915050565b6000600883026119227fffffffffffffffffffffffffffffffffffffffffffffffffffffffffffffffff826118e5565b61192c86836118e5565b95508019841693508086168417925050509392505050565b6000819050919050565b600061196961196461195f846112dc565b611944565b6112dc565b9050919050565b6000819050919050565b6119838361194e565b61199761198f82611970565b8484546118f2565b825550505050565b600090565b6119ac61199f565b6119b781848461197a565b505050565b5b818110156119db576119d06000826119a4565b6001810190506119bd565b5050565b601f821115611a20576119f1816118c0565b6119fa846118d5565b81016020851015611a09578190505b611a1d611a15856118d5565b8301826119bc565b50505b505050565b600082821c905092915050565b6000611a4360001984600802611a25565b1980831691505092915050565b6000611a5c8383611a32565b9150826002028217905092915050565b611a758261123d565b67ffffffffffffffff811115611a8e57611a8d61137c565b5b611a988254611823565b611aa38282856119df565b600060209050601f831160018114611ad65760008415611ac4578287015190505b611ace8582611a50565b865550611b36565b601f198416611ae4866118c0565b60005b82811015611b0c57848901518255600182019150602085019450602081019050611ae7565b86831015611b295784890151611b25601f891682611a32565b8355505b6001600288020188555050505b505050505050565b7f4e487b7100000000000000000000000000000000000000000000000000000000600052603260045260246000fd5b7f4e487b7100000000000000000000000000000000000000000000000000000000600052601160045260246000fd5b6000611ba7826112dc565b9150611bb2836112dc565b9250828203905081811115611bca57611bc9611b6d565b5b92915050565b7f4e487b7100000000000000000000000000000000000000000000000000000000600052603160045260246000fd5b6000611c0a826112dc565b91507fffffffffffffffffffffffffffffffffffffffffffffffffffffffffffffffff8203611c3c57611c3b611b6d565b5b60018201905091905056fea26469706673582212202b9d0e35601eb23af772ca846bf3c362b09fdcbf5c241d27d63059b35b70d1a264736f6c63430008130033",
  "immutableReferences": {},
  "source": "// SPDX-License-Identifier: UNLICENSED\r\n\r\n//the version of solidity that is compatible\r\n\r\npragma solidity ^0.8.0;\r\ncontract PartyContract {\r\n    struct Party {\r\n        string name;\r\n        string contactNumber;\r\n        string email;\r\n        string password;\r\n        uint256 trustScore;\r\n        uint256 createdAt;\r\n        address partyAddress;\r\n        uint256[] tenderIds;\r\n    }\r\n    \r\n    mapping (address => Party) public parties;\r\n    address[] public partyAddresses;\r\n\r\n    constructor() {\r\n    }\r\n\r\n    modifier isOwner(address owner) {\r\n        require(msg.sender == owner, \"Caller is not owner\");\r\n        _;\r\n    }\r\n\r\n    modifier isPartyExists(address _partyAddress) {\r\n        require(parties[_partyAddress].partyAddress != address(0), \"Party does not exist\");\r\n        _;\r\n    }\r\n\r\n    // Function for creating party\r\n    function createParty(string memory _name, string memory _contactNumber, string memory _email, string memory _password, address _partyAddress) public isOwner(_partyAddress){\r\n        require(parties[_partyAddress].partyAddress == address(0), \"Party already exists\"); //\r\n\r\n        Party storage newParty = parties[_partyAddress];\r\n        newParty.name = _name;\r\n        newParty.contactNumber = _contactNumber;\r\n        newParty.email = _email;\r\n        newParty.password = _password;\r\n        newParty.trustScore = 0;\r\n        newParty.createdAt = block.timestamp;\r\n        newParty.partyAddress = _partyAddress;\r\n        // newParty.tenderIds = new address[](0);\r\n        partyAddresses.push(_partyAddress);\r\n    }\r\n\r\n    //Function for updating party\r\n    function updateParty(string memory _name, string memory _password, address _partyAddress) public isOwner(_partyAddress) isPartyExists(_partyAddress) {\r\n        // require(msg.sender == parties[_partyAddress].partyAddress, \"Only party owner can update/delete party details.\");\r\n        Party storage updatedParty = parties[_partyAddress];\r\n        updatedParty.name  = _name;\r\n        updatedParty.password = _password;\r\n    }\r\n    \r\n    //Function for deleting a party on platform\r\n    function deleteParty(address _partyAddress) public isOwner(_partyAddress) isPartyExists(_partyAddress) {\r\n        // require(msg.sender == parties[_partyAddress].partyAddress, \"Only party owner can update/delete party details.\");\r\n        delete parties[_partyAddress];\r\n        for (uint256 i = 0; i < partyAddresses.length; i++) {\r\n            if (partyAddresses[i] == msg.sender) {\r\n                partyAddresses[i] = partyAddresses[partyAddresses.length - 1];\r\n                partyAddresses.pop();\r\n                break;\r\n            }\r\n        }\r\n    }\r\n \r\n    // Function for getting details of a particular party\r\n    function getPartyDetails(address _partyAddress) public isOwner(_partyAddress) isPartyExists(_partyAddress) view returns (string memory, string memory, string memory, address, uint256, string memory) {\r\n        return (parties[_partyAddress].name, parties[_partyAddress].contactNumber, parties[_partyAddress].email, parties[_partyAddress].partyAddress, parties[_partyAddress].trustScore, parties[_partyAddress].password);\r\n    }\r\n\r\n\r\n}",
  "sourcePath": "C:\\Users\\sabba\\OneDrive\\Documents\\BlockchainProject\\blockchain-based-contracting-system\\contracts\\PartyContract.sol",
  "compiler": {
    "name": "solc",
    "version": "0.8.19+commit.7dd6d404.Emscripten.clang"
  },
  "schemaVersion": "3.4.13",
  "updatedAt": "2023-04-11T12:12:29.400Z",
  "networkType": "ethereum",
  "devdoc": {
    "kind": "dev",
    "methods": {},
    "version": 1
  },
  "userdoc": {
    "kind": "user",
    "methods": {},
    "version": 1
  }
}