{
  "contractName": "PartyContract",
  "abi": [
    {
      "inputs": [],
      "stateMutability": "nonpayable",
      "type": "constructor"
    },
    {
      "inputs": [
        {
          "internalType": "address",
          "name": "",
          "type": "address"
        }
      ],
      "name": "parties",
      "outputs": [
        {
          "internalType": "string",
          "name": "name",
          "type": "string"
        },
        {
          "internalType": "string",
          "name": "contactNumber",
          "type": "string"
        },
        {
          "internalType": "string",
          "name": "email",
          "type": "string"
        },
        {
          "internalType": "string",
          "name": "password",
          "type": "string"
        },
        {
          "internalType": "uint256",
          "name": "trustScore",
          "type": "uint256"
        },
        {
          "internalType": "uint256",
          "name": "createdAt",
          "type": "uint256"
        },
        {
          "internalType": "address",
          "name": "partyAddress",
          "type": "address"
        }
      ],
      "stateMutability": "view",
      "type": "function",
      "constant": true
    },
    {
      "inputs": [
        {
          "internalType": "uint256",
          "name": "",
          "type": "uint256"
        }
      ],
      "name": "partyAddresses",
      "outputs": [
        {
          "internalType": "address",
          "name": "",
          "type": "address"
        }
      ],
      "stateMutability": "view",
      "type": "function",
      "constant": true
    },
    {
      "inputs": [
        {
          "internalType": "string",
          "name": "_name",
          "type": "string"
        },
        {
          "internalType": "string",
          "name": "_contactNumber",
          "type": "string"
        },
        {
          "internalType": "string",
          "name": "_email",
          "type": "string"
        },
        {
          "internalType": "string",
          "name": "_password",
          "type": "string"
        },
        {
          "internalType": "address",
          "name": "_partyAddress",
          "type": "address"
        }
      ],
      "name": "createParty",
      "outputs": [],
      "stateMutability": "nonpayable",
      "type": "function"
    },
    {
      "inputs": [
        {
          "internalType": "string",
          "name": "_name",
          "type": "string"
        },
        {
          "internalType": "string",
          "name": "_password",
          "type": "string"
        },
        {
          "internalType": "address",
          "name": "_partyAddress",
          "type": "address"
        }
      ],
      "name": "updateParty",
      "outputs": [],
      "stateMutability": "nonpayable",
      "type": "function"
    },
    {
      "inputs": [
        {
          "internalType": "address",
          "name": "_partyAddress",
          "type": "address"
        }
      ],
      "name": "deleteParty",
      "outputs": [],
      "stateMutability": "nonpayable",
      "type": "function"
    },
    {
      "inputs": [
        {
          "internalType": "address",
          "name": "_partyAddress",
          "type": "address"
        }
      ],
      "name": "getPartyDetails",
      "outputs": [
        {
          "internalType": "string",
          "name": "",
          "type": "string"
        },
        {
          "internalType": "string",
          "name": "",
          "type": "string"
        },
        {
          "internalType": "string",
          "name": "",
          "type": "string"
        },
        {
          "internalType": "address",
          "name": "",
          "type": "address"
        },
        {
          "internalType": "uint256",
          "name": "",
          "type": "uint256"
        }
      ],
      "stateMutability": "view",
      "type": "function",
      "constant": true
    },
    {
      "inputs": [
        {
          "internalType": "address",
          "name": "_partyAddress",
          "type": "address"
        }
      ],
      "name": "getPassword",
      "outputs": [
        {
          "internalType": "string",
          "name": "",
          "type": "string"
        }
      ],
      "stateMutability": "view",
      "type": "function",
      "constant": true
    }
  ],
  "bytecode": "0x608060405234801561001057600080fd5b50611e18806100206000396000f3fe608060405234801561001057600080fd5b506004361061007c5760003560e01c80634f2352071161005b5780634f235207146101015780637a0c7d3914610137578063c792d8fd14610153578063ef8c0391146101835761007c565b8062da72281461008157806308026668146100b5578063171fd848146100e5575b600080fd5b61009b6004803603810190610096919061139e565b61019f565b6040516100ac959493929190611483565b60405180910390f35b6100cf60048036038101906100ca919061139e565b610607565b6040516100dc91906114eb565b60405180910390f35b6100ff60048036038101906100fa9190611642565b61081c565b005b61011b6004803603810190610116919061139e565b610aa7565b60405161012e979695949392919061172d565b60405180910390f35b610151600480360381019061014c91906117b8565b610d29565b005b61016d6004803603810190610168919061186f565b610ed7565b60405161017a919061189c565b60405180910390f35b61019d6004803603810190610198919061139e565b610f16565b005b6060806060600080858073ffffffffffffffffffffffffffffffffffffffff163373ffffffffffffffffffffffffffffffffffffffff1614610216576040517f08c379a000000000000000000000000000000000000000000000000000000000815260040161020d90611903565b60405180910390fd5b86600073ffffffffffffffffffffffffffffffffffffffff166000808373ffffffffffffffffffffffffffffffffffffffff1673ffffffffffffffffffffffffffffffffffffffff16815260200190815260200160002060060160009054906101000a900473ffffffffffffffffffffffffffffffffffffffff1673ffffffffffffffffffffffffffffffffffffffff16036102e7576040517f08c379a00000000000000000000000000000000000000000000000000000000081526004016102de9061196f565b60405180910390fd5b6000808973ffffffffffffffffffffffffffffffffffffffff1673ffffffffffffffffffffffffffffffffffffffff1681526020019081526020016000206000016000808a73ffffffffffffffffffffffffffffffffffffffff1673ffffffffffffffffffffffffffffffffffffffff1681526020019081526020016000206001016000808b73ffffffffffffffffffffffffffffffffffffffff1673ffffffffffffffffffffffffffffffffffffffff1681526020019081526020016000206002016000808c73ffffffffffffffffffffffffffffffffffffffff1673ffffffffffffffffffffffffffffffffffffffff16815260200190815260200160002060060160009054906101000a900473ffffffffffffffffffffffffffffffffffffffff166000808d73ffffffffffffffffffffffffffffffffffffffff1673ffffffffffffffffffffffffffffffffffffffff1681526020019081526020016000206004015484805461045a906119be565b80601f0160208091040260200160405190810160405280929190818152602001828054610486906119be565b80156104d35780601f106104a8576101008083540402835291602001916104d3565b820191906000526020600020905b8154815290600101906020018083116104b657829003601f168201915b505050505094508380546104e6906119be565b80601f0160208091040260200160405190810160405280929190818152602001828054610512906119be565b801561055f5780601f106105345761010080835404028352916020019161055f565b820191906000526020600020905b81548152906001019060200180831161054257829003601f168201915b50505050509350828054610572906119be565b80601f016020809104026020016040519081016040528092919081815260200182805461059e906119be565b80156105eb5780601f106105c0576101008083540402835291602001916105eb565b820191906000526020600020905b8154815290600101906020018083116105ce57829003601f168201915b5050505050925096509650965096509650505091939590929450565b6060818073ffffffffffffffffffffffffffffffffffffffff163373ffffffffffffffffffffffffffffffffffffffff1614610678576040517f08c379a000000000000000000000000000000000000000000000000000000000815260040161066f90611903565b60405180910390fd5b82600073ffffffffffffffffffffffffffffffffffffffff166000808373ffffffffffffffffffffffffffffffffffffffff1673ffffffffffffffffffffffffffffffffffffffff16815260200190815260200160002060060160009054906101000a900473ffffffffffffffffffffffffffffffffffffffff1673ffffffffffffffffffffffffffffffffffffffff1603610749576040517f08c379a00000000000000000000000000000000000000000000000000000000081526004016107409061196f565b60405180910390fd5b6000808573ffffffffffffffffffffffffffffffffffffffff1673ffffffffffffffffffffffffffffffffffffffff1681526020019081526020016000206003018054610795906119be565b80601f01602080910402602001604051908101604052809291908181526020018280546107c1906119be565b801561080e5780601f106107e35761010080835404028352916020019161080e565b820191906000526020600020905b8154815290600101906020018083116107f157829003601f168201915b505050505092505050919050565b808073ffffffffffffffffffffffffffffffffffffffff163373ffffffffffffffffffffffffffffffffffffffff161461088b576040517f08c379a000000000000000000000000000000000000000000000000000000000815260040161088290611903565b60405180910390fd5b600073ffffffffffffffffffffffffffffffffffffffff166000808473ffffffffffffffffffffffffffffffffffffffff1673ffffffffffffffffffffffffffffffffffffffff16815260200190815260200160002060060160009054906101000a900473ffffffffffffffffffffffffffffffffffffffff1673ffffffffffffffffffffffffffffffffffffffff161461095b576040517f08c379a000000000000000000000000000000000000000000000000000000000815260040161095290611a3b565b60405180910390fd5b60008060008473ffffffffffffffffffffffffffffffffffffffff1673ffffffffffffffffffffffffffffffffffffffff1681526020019081526020016000209050868160000190816109ae9190611c07565b50858160010190816109c09190611c07565b50848160020190816109d29190611c07565b50838160030190816109e49190611c07565b5060008160040181905550428160050181905550828160060160006101000a81548173ffffffffffffffffffffffffffffffffffffffff021916908373ffffffffffffffffffffffffffffffffffffffff1602179055506001839080600181540180825580915050600190039060005260206000200160009091909190916101000a81548173ffffffffffffffffffffffffffffffffffffffff021916908373ffffffffffffffffffffffffffffffffffffffff16021790555050505050505050565b6000602052806000526040600020600091509050806000018054610aca906119be565b80601f0160208091040260200160405190810160405280929190818152602001828054610af6906119be565b8015610b435780601f10610b1857610100808354040283529160200191610b43565b820191906000526020600020905b815481529060010190602001808311610b2657829003601f168201915b505050505090806001018054610b58906119be565b80601f0160208091040260200160405190810160405280929190818152602001828054610b84906119be565b8015610bd15780601f10610ba657610100808354040283529160200191610bd1565b820191906000526020600020905b815481529060010190602001808311610bb457829003601f168201915b505050505090806002018054610be6906119be565b80601f0160208091040260200160405190810160405280929190818152602001828054610c12906119be565b8015610c5f5780601f10610c3457610100808354040283529160200191610c5f565b820191906000526020600020905b815481529060010190602001808311610c4257829003601f168201915b505050505090806003018054610c74906119be565b80601f0160208091040260200160405190810160405280929190818152602001828054610ca0906119be565b8015610ced5780601f10610cc257610100808354040283529160200191610ced565b820191906000526020600020905b815481529060010190602001808311610cd057829003601f168201915b5050505050908060040154908060050154908060060160009054906101000a900473ffffffffffffffffffffffffffffffffffffffff16905087565b808073ffffffffffffffffffffffffffffffffffffffff163373ffffffffffffffffffffffffffffffffffffffff1614610d98576040517f08c379a0000000000000000000000000000000000000000000000000000000008152600401610d8f90611903565b60405180910390fd5b81600073ffffffffffffffffffffffffffffffffffffffff166000808373ffffffffffffffffffffffffffffffffffffffff1673ffffffffffffffffffffffffffffffffffffffff16815260200190815260200160002060060160009054906101000a900473ffffffffffffffffffffffffffffffffffffffff1673ffffffffffffffffffffffffffffffffffffffff1603610e69576040517f08c379a0000000000000000000000000000000000000000000000000000000008152600401610e609061196f565b60405180910390fd5b60008060008573ffffffffffffffffffffffffffffffffffffffff1673ffffffffffffffffffffffffffffffffffffffff168152602001908152602001600020905085816000019081610ebc9190611c07565b5084816003019081610ece9190611c07565b50505050505050565b60018181548110610ee757600080fd5b906000526020600020016000915054906101000a900473ffffffffffffffffffffffffffffffffffffffff1681565b808073ffffffffffffffffffffffffffffffffffffffff163373ffffffffffffffffffffffffffffffffffffffff1614610f85576040517f08c379a0000000000000000000000000000000000000000000000000000000008152600401610f7c90611903565b60405180910390fd5b81600073ffffffffffffffffffffffffffffffffffffffff166000808373ffffffffffffffffffffffffffffffffffffffff1673ffffffffffffffffffffffffffffffffffffffff16815260200190815260200160002060060160009054906101000a900473ffffffffffffffffffffffffffffffffffffffff1673ffffffffffffffffffffffffffffffffffffffff1603611056576040517f08c379a000000000000000000000000000000000000000000000000000000000815260040161104d9061196f565b60405180910390fd5b6000808473ffffffffffffffffffffffffffffffffffffffff1673ffffffffffffffffffffffffffffffffffffffff168152602001908152602001600020600080820160006110a591906112ae565b6001820160006110b591906112ae565b6002820160006110c591906112ae565b6003820160006110d591906112ae565b600482016000905560058201600090556006820160006101000a81549073ffffffffffffffffffffffffffffffffffffffff021916905560078201600061111c91906112ee565b505060005b6001805490508110156112a8573373ffffffffffffffffffffffffffffffffffffffff166001828154811061115957611158611cd9565b5b9060005260206000200160009054906101000a900473ffffffffffffffffffffffffffffffffffffffff1673ffffffffffffffffffffffffffffffffffffffff16036112955760018080805490506111b19190611d37565b815481106111c2576111c1611cd9565b5b9060005260206000200160009054906101000a900473ffffffffffffffffffffffffffffffffffffffff166001828154811061120157611200611cd9565b5b9060005260206000200160006101000a81548173ffffffffffffffffffffffffffffffffffffffff021916908373ffffffffffffffffffffffffffffffffffffffff160217905550600180548061125b5761125a611d6b565b5b6001900381819060005260206000200160006101000a81549073ffffffffffffffffffffffffffffffffffffffff021916905590556112a8565b80806112a090611d9a565b915050611121565b50505050565b5080546112ba906119be565b6000825580601f106112cc57506112eb565b601f0160209004906000526020600020908101906112ea919061130f565b5b50565b508054600082559060005260206000209081019061130c919061130f565b50565b5b80821115611328576000816000905550600101611310565b5090565b6000604051905090565b600080fd5b600080fd5b600073ffffffffffffffffffffffffffffffffffffffff82169050919050565b600061136b82611340565b9050919050565b61137b81611360565b811461138657600080fd5b50565b60008135905061139881611372565b92915050565b6000602082840312156113b4576113b3611336565b5b60006113c284828501611389565b91505092915050565b600081519050919050565b600082825260208201905092915050565b60005b838110156114055780820151818401526020810190506113ea565b60008484015250505050565b6000601f19601f8301169050919050565b600061142d826113cb565b61143781856113d6565b93506114478185602086016113e7565b61145081611411565b840191505092915050565b61146481611360565b82525050565b6000819050919050565b61147d8161146a565b82525050565b600060a082019050818103600083015261149d8188611422565b905081810360208301526114b18187611422565b905081810360408301526114c58186611422565b90506114d4606083018561145b565b6114e16080830184611474565b9695505050505050565b600060208201905081810360008301526115058184611422565b905092915050565b600080fd5b600080fd5b7f4e487b7100000000000000000000000000000000000000000000000000000000600052604160045260246000fd5b61154f82611411565b810181811067ffffffffffffffff8211171561156e5761156d611517565b5b80604052505050565b600061158161132c565b905061158d8282611546565b919050565b600067ffffffffffffffff8211156115ad576115ac611517565b5b6115b682611411565b9050602081019050919050565b82818337600083830152505050565b60006115e56115e084611592565b611577565b90508281526020810184848401111561160157611600611512565b5b61160c8482856115c3565b509392505050565b600082601f8301126116295761162861150d565b5b81356116398482602086016115d2565b91505092915050565b600080600080600060a0868803121561165e5761165d611336565b5b600086013567ffffffffffffffff81111561167c5761167b61133b565b5b61168888828901611614565b955050602086013567ffffffffffffffff8111156116a9576116a861133b565b5b6116b588828901611614565b945050604086013567ffffffffffffffff8111156116d6576116d561133b565b5b6116e288828901611614565b935050606086013567ffffffffffffffff8111156117035761170261133b565b5b61170f88828901611614565b925050608061172088828901611389565b9150509295509295909350565b600060e0820190508181036000830152611747818a611422565b9050818103602083015261175b8189611422565b9050818103604083015261176f8188611422565b905081810360608301526117838187611422565b90506117926080830186611474565b61179f60a0830185611474565b6117ac60c083018461145b565b98975050505050505050565b6000806000606084860312156117d1576117d0611336565b5b600084013567ffffffffffffffff8111156117ef576117ee61133b565b5b6117fb86828701611614565b935050602084013567ffffffffffffffff81111561181c5761181b61133b565b5b61182886828701611614565b925050604061183986828701611389565b9150509250925092565b61184c8161146a565b811461185757600080fd5b50565b60008135905061186981611843565b92915050565b60006020828403121561188557611884611336565b5b60006118938482850161185a565b91505092915050565b60006020820190506118b1600083018461145b565b92915050565b7f43616c6c6572206973206e6f74206f776e657200000000000000000000000000600082015250565b60006118ed6013836113d6565b91506118f8826118b7565b602082019050919050565b6000602082019050818103600083015261191c816118e0565b9050919050565b7f506172747920646f6573206e6f74206578697374000000000000000000000000600082015250565b60006119596014836113d6565b915061196482611923565b602082019050919050565b600060208201905081810360008301526119888161194c565b9050919050565b7f4e487b7100000000000000000000000000000000000000000000000000000000600052602260045260246000fd5b600060028204905060018216806119d657607f821691505b6020821081036119e9576119e861198f565b5b50919050565b7f506172747920616c726561647920657869737473000000000000000000000000600082015250565b6000611a256014836113d6565b9150611a30826119ef565b602082019050919050565b60006020820190508181036000830152611a5481611a18565b9050919050565b60008190508160005260206000209050919050565b60006020601f8301049050919050565b600082821b905092915050565b600060088302611abd7fffffffffffffffffffffffffffffffffffffffffffffffffffffffffffffffff82611a80565b611ac78683611a80565b95508019841693508086168417925050509392505050565b6000819050919050565b6000611b04611aff611afa8461146a565b611adf565b61146a565b9050919050565b6000819050919050565b611b1e83611ae9565b611b32611b2a82611b0b565b848454611a8d565b825550505050565b600090565b611b47611b3a565b611b52818484611b15565b505050565b5b81811015611b7657611b6b600082611b3f565b600181019050611b58565b5050565b601f821115611bbb57611b8c81611a5b565b611b9584611a70565b81016020851015611ba4578190505b611bb8611bb085611a70565b830182611b57565b50505b505050565b600082821c905092915050565b6000611bde60001984600802611bc0565b1980831691505092915050565b6000611bf78383611bcd565b9150826002028217905092915050565b611c10826113cb565b67ffffffffffffffff811115611c2957611c28611517565b5b611c3382546119be565b611c3e828285611b7a565b600060209050601f831160018114611c715760008415611c5f578287015190505b611c698582611beb565b865550611cd1565b601f198416611c7f86611a5b565b60005b82811015611ca757848901518255600182019150602085019450602081019050611c82565b86831015611cc45784890151611cc0601f891682611bcd565b8355505b6001600288020188555050505b505050505050565b7f4e487b7100000000000000000000000000000000000000000000000000000000600052603260045260246000fd5b7f4e487b7100000000000000000000000000000000000000000000000000000000600052601160045260246000fd5b6000611d428261146a565b9150611d4d8361146a565b9250828203905081811115611d6557611d64611d08565b5b92915050565b7f4e487b7100000000000000000000000000000000000000000000000000000000600052603160045260246000fd5b6000611da58261146a565b91507fffffffffffffffffffffffffffffffffffffffffffffffffffffffffffffffff8203611dd757611dd6611d08565b5b60018201905091905056fea2646970667358221220899d7cfc84520279673ba574be3ec8cb11e05cfe84aae8ba5847143f8c6df7f864736f6c63430008130033",
  "immutableReferences": {},
  "source": "// SPDX-License-Identifier: UNLICENSED\r\n\r\n//the version of solidity that is compatible\r\n\r\npragma solidity ^0.8.0;\r\ncontract PartyContract {\r\n    struct Party {\r\n        string name;\r\n        string contactNumber;\r\n        string email;\r\n        string password;\r\n        uint256 trustScore;\r\n        uint256 createdAt;\r\n        address partyAddress;\r\n        uint256[] tenderIds;\r\n    }\r\n    \r\n    mapping (address => Party) public parties;\r\n    address[] public partyAddresses;\r\n\r\n    constructor() {\r\n    }\r\n\r\n    modifier isOwner(address owner) {\r\n        require(msg.sender == owner, \"Caller is not owner\");\r\n        _;\r\n    }\r\n\r\n    modifier isPartyExists(address _partyAddress) {\r\n        require(parties[_partyAddress].partyAddress != address(0), \"Party does not exist\");\r\n        _;\r\n    }\r\n\r\n    // Function for creating party\r\n    function createParty(string memory _name, string memory _contactNumber, string memory _email, string memory _password, address _partyAddress) public isOwner(_partyAddress){\r\n        require(parties[_partyAddress].partyAddress == address(0), \"Party already exists\"); //\r\n\r\n        Party storage newParty = parties[_partyAddress];\r\n        newParty.name = _name;\r\n        newParty.contactNumber = _contactNumber;\r\n        newParty.email = _email;\r\n        newParty.password = _password;\r\n        newParty.trustScore = 0;\r\n        newParty.createdAt = block.timestamp;\r\n        newParty.partyAddress = _partyAddress;\r\n        // newParty.tenderIds = new address[](0);\r\n        partyAddresses.push(_partyAddress);\r\n    }\r\n\r\n    //Function for updating party\r\n    function updateParty(string memory _name, string memory _password, address _partyAddress) public isOwner(_partyAddress) isPartyExists(_partyAddress) {\r\n        // require(msg.sender == parties[_partyAddress].partyAddress, \"Only party owner can update/delete party details.\");\r\n        Party storage updatedParty = parties[_partyAddress];\r\n        updatedParty.name  = _name;\r\n        updatedParty.password = _password;\r\n    }\r\n    \r\n    //Function for deleting a party on platform\r\n    function deleteParty(address _partyAddress) public isOwner(_partyAddress) isPartyExists(_partyAddress) {\r\n        // require(msg.sender == parties[_partyAddress].partyAddress, \"Only party owner can update/delete party details.\");\r\n        delete parties[_partyAddress];\r\n        for (uint256 i = 0; i < partyAddresses.length; i++) {\r\n            if (partyAddresses[i] == msg.sender) {\r\n                partyAddresses[i] = partyAddresses[partyAddresses.length - 1];\r\n                partyAddresses.pop();\r\n                break;\r\n            }\r\n        }\r\n    }\r\n \r\n    // Function for getting details of a particular party\r\n    function getPartyDetails(address _partyAddress) public isOwner(_partyAddress) isPartyExists(_partyAddress) view returns (string memory, string memory, string memory, address, uint256) {\r\n        return (parties[_partyAddress].name, parties[_partyAddress].contactNumber, parties[_partyAddress].email, parties[_partyAddress].partyAddress, parties[_partyAddress].trustScore);\r\n    }\r\n\r\n    function getPassword(address _partyAddress) public isOwner(_partyAddress) isPartyExists(_partyAddress) view returns (string memory) {\r\n        return (parties[_partyAddress].password);\r\n    }\r\n}",
  "sourcePath": "C:\\Users\\sabba\\OneDrive\\Documents\\BlockchainProject\\blockchain-based-contracting-system\\contracts\\PartyContract.sol",
  "compiler": {
    "name": "solc",
    "version": "0.8.19+commit.7dd6d404.Emscripten.clang"
  },
  "schemaVersion": "3.4.13",
  "updatedAt": "2023-04-10T20:48:41.611Z",
  "networkType": "ethereum",
  "devdoc": {
    "kind": "dev",
    "methods": {},
    "version": 1
  },
  "userdoc": {
    "kind": "user",
    "methods": {},
    "version": 1
  }
}