{
  "contractName": "PartyContract",
  "abi": [
    {
      "inputs": [],
      "stateMutability": "nonpayable",
      "type": "constructor"
    },
    {
      "inputs": [],
      "name": "admin",
      "outputs": [
        {
          "internalType": "address",
          "name": "",
          "type": "address"
        }
      ],
      "stateMutability": "view",
      "type": "function",
      "constant": true
    },
    {
      "inputs": [
        {
          "internalType": "address",
          "name": "",
          "type": "address"
        }
      ],
      "name": "parties",
      "outputs": [
        {
          "internalType": "string",
          "name": "name",
          "type": "string"
        },
        {
          "internalType": "string",
          "name": "contactNumber",
          "type": "string"
        },
        {
          "internalType": "string",
          "name": "email",
          "type": "string"
        },
        {
          "internalType": "string",
          "name": "password",
          "type": "string"
        },
        {
          "internalType": "uint256",
          "name": "trustScore",
          "type": "uint256"
        },
        {
          "internalType": "uint256",
          "name": "createdAt",
          "type": "uint256"
        },
        {
          "internalType": "address",
          "name": "partyAddress",
          "type": "address"
        },
        {
          "internalType": "uint256",
          "name": "freezedBalance",
          "type": "uint256"
        }
      ],
      "stateMutability": "view",
      "type": "function",
      "constant": true
    },
    {
      "inputs": [
        {
          "internalType": "uint256",
          "name": "",
          "type": "uint256"
        }
      ],
      "name": "partyAddresses",
      "outputs": [
        {
          "internalType": "address",
          "name": "",
          "type": "address"
        }
      ],
      "stateMutability": "view",
      "type": "function",
      "constant": true
    },
    {
      "inputs": [],
      "name": "tokenRef",
      "outputs": [
        {
          "internalType": "contract Token",
          "name": "",
          "type": "address"
        }
      ],
      "stateMutability": "view",
      "type": "function",
      "constant": true
    },
    {
      "inputs": [
        {
          "internalType": "address",
          "name": "_partyAddress",
          "type": "address"
        }
      ],
      "name": "getTrustScore",
      "outputs": [
        {
          "internalType": "uint256",
          "name": "",
          "type": "uint256"
        }
      ],
      "stateMutability": "view",
      "type": "function",
      "constant": true
    },
    {
      "inputs": [
        {
          "internalType": "address",
          "name": "_partyAddress",
          "type": "address"
        },
        {
          "internalType": "uint256",
          "name": "_trustScore",
          "type": "uint256"
        }
      ],
      "name": "setTrustScore",
      "outputs": [],
      "stateMutability": "nonpayable",
      "type": "function"
    },
    {
      "inputs": [
        {
          "internalType": "string",
          "name": "_name",
          "type": "string"
        },
        {
          "internalType": "string",
          "name": "_contactNumber",
          "type": "string"
        },
        {
          "internalType": "string",
          "name": "_email",
          "type": "string"
        },
        {
          "internalType": "string",
          "name": "_password",
          "type": "string"
        },
        {
          "internalType": "address",
          "name": "_partyAddress",
          "type": "address"
        }
      ],
      "name": "createParty",
      "outputs": [],
      "stateMutability": "nonpayable",
      "type": "function"
    },
    {
      "inputs": [
        {
          "internalType": "string",
          "name": "_name",
          "type": "string"
        },
        {
          "internalType": "string",
          "name": "_password",
          "type": "string"
        },
        {
          "internalType": "address",
          "name": "_partyAddress",
          "type": "address"
        }
      ],
      "name": "updateParty",
      "outputs": [],
      "stateMutability": "nonpayable",
      "type": "function"
    },
    {
      "inputs": [
        {
          "internalType": "address",
          "name": "_partyAddress",
          "type": "address"
        }
      ],
      "name": "deleteParty",
      "outputs": [],
      "stateMutability": "nonpayable",
      "type": "function"
    },
    {
      "inputs": [
        {
          "internalType": "address",
          "name": "_partyAddress",
          "type": "address"
        }
      ],
      "name": "getPartyDetails",
      "outputs": [
        {
          "internalType": "string",
          "name": "",
          "type": "string"
        },
        {
          "internalType": "string",
          "name": "",
          "type": "string"
        },
        {
          "internalType": "string",
          "name": "",
          "type": "string"
        },
        {
          "internalType": "address",
          "name": "",
          "type": "address"
        },
        {
          "internalType": "uint256",
          "name": "",
          "type": "uint256"
        },
        {
          "internalType": "string",
          "name": "",
          "type": "string"
        }
      ],
      "stateMutability": "view",
      "type": "function",
      "constant": true
    }
  ],
  "bytecode": "0x6080604052603260045534801561001557600080fd5b50611fca806100256000396000f3fe608060405234801561001057600080fd5b506004361061009d5760003560e01c80637a0c7d39116100665780637a0c7d3914610178578063c792d8fd14610194578063ef8c0391146101c4578063f851a440146101e0578063feec4758146101fe5761009d565b8062da7228146100a2578063171fd848146100d757806333bec837146100f35780634f235207146101115780635e09eea114610148575b600080fd5b6100bc60048036038101906100b79190611483565b61021a565b6040516100ce96959493929190611568565b60405180910390f35b6100f160048036038101906100ec919061171a565b610753565b005b6100fb610a40565b6040516101089190611864565b60405180910390f35b61012b60048036038101906101269190611483565b610a66565b60405161013f98979695949392919061187f565b60405180910390f35b610162600480360381019061015d9190611483565b610cee565b60405161016f9190611919565b60405180910390f35b610192600480360381019061018d9190611934565b610d39565b005b6101ae60048036038101906101a991906119eb565b610ee7565b6040516101bb9190611a18565b60405180910390f35b6101de60048036038101906101d99190611483565b610f26565b005b6101e86112d6565b6040516101f59190611a18565b60405180910390f35b61021860048036038101906102139190611a33565b6112fc565b005b60608060606000806060868073ffffffffffffffffffffffffffffffffffffffff163373ffffffffffffffffffffffffffffffffffffffff1614610293576040517f08c379a000000000000000000000000000000000000000000000000000000000815260040161028a90611abf565b60405180910390fd5b87600073ffffffffffffffffffffffffffffffffffffffff166000808373ffffffffffffffffffffffffffffffffffffffff1673ffffffffffffffffffffffffffffffffffffffff16815260200190815260200160002060060160009054906101000a900473ffffffffffffffffffffffffffffffffffffffff1673ffffffffffffffffffffffffffffffffffffffff1603610364576040517f08c379a000000000000000000000000000000000000000000000000000000000815260040161035b90611b2b565b60405180910390fd5b6000808a73ffffffffffffffffffffffffffffffffffffffff1673ffffffffffffffffffffffffffffffffffffffff1681526020019081526020016000206000016000808b73ffffffffffffffffffffffffffffffffffffffff1673ffffffffffffffffffffffffffffffffffffffff1681526020019081526020016000206001016000808c73ffffffffffffffffffffffffffffffffffffffff1673ffffffffffffffffffffffffffffffffffffffff1681526020019081526020016000206002016000808d73ffffffffffffffffffffffffffffffffffffffff1673ffffffffffffffffffffffffffffffffffffffff16815260200190815260200160002060060160009054906101000a900473ffffffffffffffffffffffffffffffffffffffff166000808e73ffffffffffffffffffffffffffffffffffffffff1673ffffffffffffffffffffffffffffffffffffffff168152602001908152602001600020600401546000808f73ffffffffffffffffffffffffffffffffffffffff1673ffffffffffffffffffffffffffffffffffffffff16815260200190815260200160002060030185805461051890611b7a565b80601f016020809104026020016040519081016040528092919081815260200182805461054490611b7a565b80156105915780601f1061056657610100808354040283529160200191610591565b820191906000526020600020905b81548152906001019060200180831161057457829003601f168201915b505050505095508480546105a490611b7a565b80601f01602080910402602001604051908101604052809291908181526020018280546105d090611b7a565b801561061d5780601f106105f25761010080835404028352916020019161061d565b820191906000526020600020905b81548152906001019060200180831161060057829003601f168201915b5050505050945083805461063090611b7a565b80601f016020809104026020016040519081016040528092919081815260200182805461065c90611b7a565b80156106a95780601f1061067e576101008083540402835291602001916106a9565b820191906000526020600020905b81548152906001019060200180831161068c57829003601f168201915b505050505093508080546106bc90611b7a565b80601f01602080910402602001604051908101604052809291908181526020018280546106e890611b7a565b80156107355780601f1061070a57610100808354040283529160200191610735565b820191906000526020600020905b81548152906001019060200180831161071857829003601f168201915b50505050509050975097509750975097509750505091939550919395565b808073ffffffffffffffffffffffffffffffffffffffff163373ffffffffffffffffffffffffffffffffffffffff16146107c2576040517f08c379a00000000000000000000000000000000000000000000000000000000081526004016107b990611abf565b60405180910390fd5b600073ffffffffffffffffffffffffffffffffffffffff166000808473ffffffffffffffffffffffffffffffffffffffff1673ffffffffffffffffffffffffffffffffffffffff16815260200190815260200160002060060160009054906101000a900473ffffffffffffffffffffffffffffffffffffffff1673ffffffffffffffffffffffffffffffffffffffff1614610892576040517f08c379a000000000000000000000000000000000000000000000000000000000815260040161088990611bf7565b60405180910390fd5b60008060008473ffffffffffffffffffffffffffffffffffffffff1673ffffffffffffffffffffffffffffffffffffffff1681526020019081526020016000209050868160000190816108e59190611db9565b50858160010190816108f79190611db9565b50848160020190816109099190611db9565b508381600301908161091b9190611db9565b5060008160040181905550428160050181905550828160060160006101000a81548173ffffffffffffffffffffffffffffffffffffffff021916908373ffffffffffffffffffffffffffffffffffffffff160217905550600067ffffffffffffffff81111561098d5761098c6115ef565b5b6040519080825280602002602001820160405280156109bb5781602001602082028036833780820191505090505b508160070190805190602001906109d3929190611346565b506001839080600181540180825580915050600190039060005260206000200160009091909190916101000a81548173ffffffffffffffffffffffffffffffffffffffff021916908373ffffffffffffffffffffffffffffffffffffffff16021790555050505050505050565b600360009054906101000a900473ffffffffffffffffffffffffffffffffffffffff1681565b6000602052806000526040600020600091509050806000018054610a8990611b7a565b80601f0160208091040260200160405190810160405280929190818152602001828054610ab590611b7a565b8015610b025780601f10610ad757610100808354040283529160200191610b02565b820191906000526020600020905b815481529060010190602001808311610ae557829003601f168201915b505050505090806001018054610b1790611b7a565b80601f0160208091040260200160405190810160405280929190818152602001828054610b4390611b7a565b8015610b905780601f10610b6557610100808354040283529160200191610b90565b820191906000526020600020905b815481529060010190602001808311610b7357829003601f168201915b505050505090806002018054610ba590611b7a565b80601f0160208091040260200160405190810160405280929190818152602001828054610bd190611b7a565b8015610c1e5780601f10610bf357610100808354040283529160200191610c1e565b820191906000526020600020905b815481529060010190602001808311610c0157829003601f168201915b505050505090806003018054610c3390611b7a565b80601f0160208091040260200160405190810160405280929190818152602001828054610c5f90611b7a565b8015610cac5780601f10610c8157610100808354040283529160200191610cac565b820191906000526020600020905b815481529060010190602001808311610c8f57829003601f168201915b5050505050908060040154908060050154908060060160009054906101000a900473ffffffffffffffffffffffffffffffffffffffff16908060080154905088565b60008060008373ffffffffffffffffffffffffffffffffffffffff1673ffffffffffffffffffffffffffffffffffffffff168152602001908152602001600020600401549050919050565b808073ffffffffffffffffffffffffffffffffffffffff163373ffffffffffffffffffffffffffffffffffffffff1614610da8576040517f08c379a0000000000000000000000000000000000000000000000000000000008152600401610d9f90611abf565b60405180910390fd5b81600073ffffffffffffffffffffffffffffffffffffffff166000808373ffffffffffffffffffffffffffffffffffffffff1673ffffffffffffffffffffffffffffffffffffffff16815260200190815260200160002060060160009054906101000a900473ffffffffffffffffffffffffffffffffffffffff1673ffffffffffffffffffffffffffffffffffffffff1603610e79576040517f08c379a0000000000000000000000000000000000000000000000000000000008152600401610e7090611b2b565b60405180910390fd5b60008060008573ffffffffffffffffffffffffffffffffffffffff1673ffffffffffffffffffffffffffffffffffffffff168152602001908152602001600020905085816000019081610ecc9190611db9565b5084816003019081610ede9190611db9565b50505050505050565b60018181548110610ef757600080fd5b906000526020600020016000915054906101000a900473ffffffffffffffffffffffffffffffffffffffff1681565b808073ffffffffffffffffffffffffffffffffffffffff163373ffffffffffffffffffffffffffffffffffffffff1614610f95576040517f08c379a0000000000000000000000000000000000000000000000000000000008152600401610f8c90611abf565b60405180910390fd5b81600073ffffffffffffffffffffffffffffffffffffffff166000808373ffffffffffffffffffffffffffffffffffffffff1673ffffffffffffffffffffffffffffffffffffffff16815260200190815260200160002060060160009054906101000a900473ffffffffffffffffffffffffffffffffffffffff1673ffffffffffffffffffffffffffffffffffffffff1603611066576040517f08c379a000000000000000000000000000000000000000000000000000000000815260040161105d90611b2b565b60405180910390fd5b6000808473ffffffffffffffffffffffffffffffffffffffff1673ffffffffffffffffffffffffffffffffffffffff168152602001908152602001600020600080820160006110b59190611393565b6001820160006110c59190611393565b6002820160006110d59190611393565b6003820160006110e59190611393565b600482016000905560058201600090556006820160006101000a81549073ffffffffffffffffffffffffffffffffffffffff021916905560078201600061112c91906113d3565b600882016000905560098201600061114491906113d3565b505060005b6001805490508110156112d0573373ffffffffffffffffffffffffffffffffffffffff166001828154811061118157611180611e8b565b5b9060005260206000200160009054906101000a900473ffffffffffffffffffffffffffffffffffffffff1673ffffffffffffffffffffffffffffffffffffffff16036112bd5760018080805490506111d99190611ee9565b815481106111ea576111e9611e8b565b5b9060005260206000200160009054906101000a900473ffffffffffffffffffffffffffffffffffffffff166001828154811061122957611228611e8b565b5b9060005260206000200160006101000a81548173ffffffffffffffffffffffffffffffffffffffff021916908373ffffffffffffffffffffffffffffffffffffffff160217905550600180548061128357611282611f1d565b5b6001900381819060005260206000200160006101000a81549073ffffffffffffffffffffffffffffffffffffffff021916905590556112d0565b80806112c890611f4c565b915050611149565b50505050565b600260009054906101000a900473ffffffffffffffffffffffffffffffffffffffff1681565b806000808473ffffffffffffffffffffffffffffffffffffffff1673ffffffffffffffffffffffffffffffffffffffff168152602001908152602001600020600401819055505050565b828054828255906000526020600020908101928215611382579160200282015b82811115611381578251825591602001919060010190611366565b5b50905061138f91906113f4565b5090565b50805461139f90611b7a565b6000825580601f106113b157506113d0565b601f0160209004906000526020600020908101906113cf91906113f4565b5b50565b50805460008255906000526020600020908101906113f191906113f4565b50565b5b8082111561140d5760008160009055506001016113f5565b5090565b6000604051905090565b600080fd5b600080fd5b600073ffffffffffffffffffffffffffffffffffffffff82169050919050565b600061145082611425565b9050919050565b61146081611445565b811461146b57600080fd5b50565b60008135905061147d81611457565b92915050565b6000602082840312156114995761149861141b565b5b60006114a78482850161146e565b91505092915050565b600081519050919050565b600082825260208201905092915050565b60005b838110156114ea5780820151818401526020810190506114cf565b60008484015250505050565b6000601f19601f8301169050919050565b6000611512826114b0565b61151c81856114bb565b935061152c8185602086016114cc565b611535816114f6565b840191505092915050565b61154981611445565b82525050565b6000819050919050565b6115628161154f565b82525050565b600060c08201905081810360008301526115828189611507565b905081810360208301526115968188611507565b905081810360408301526115aa8187611507565b90506115b96060830186611540565b6115c66080830185611559565b81810360a08301526115d88184611507565b9050979650505050505050565b600080fd5b600080fd5b7f4e487b7100000000000000000000000000000000000000000000000000000000600052604160045260246000fd5b611627826114f6565b810181811067ffffffffffffffff82111715611646576116456115ef565b5b80604052505050565b6000611659611411565b9050611665828261161e565b919050565b600067ffffffffffffffff821115611685576116846115ef565b5b61168e826114f6565b9050602081019050919050565b82818337600083830152505050565b60006116bd6116b88461166a565b61164f565b9050828152602081018484840111156116d9576116d86115ea565b5b6116e484828561169b565b509392505050565b600082601f830112611701576117006115e5565b5b81356117118482602086016116aa565b91505092915050565b600080600080600060a086880312156117365761173561141b565b5b600086013567ffffffffffffffff81111561175457611753611420565b5b611760888289016116ec565b955050602086013567ffffffffffffffff81111561178157611780611420565b5b61178d888289016116ec565b945050604086013567ffffffffffffffff8111156117ae576117ad611420565b5b6117ba888289016116ec565b935050606086013567ffffffffffffffff8111156117db576117da611420565b5b6117e7888289016116ec565b92505060806117f88882890161146e565b9150509295509295909350565b6000819050919050565b600061182a61182561182084611425565b611805565b611425565b9050919050565b600061183c8261180f565b9050919050565b600061184e82611831565b9050919050565b61185e81611843565b82525050565b60006020820190506118796000830184611855565b92915050565b600061010082019050818103600083015261189a818b611507565b905081810360208301526118ae818a611507565b905081810360408301526118c28189611507565b905081810360608301526118d68188611507565b90506118e56080830187611559565b6118f260a0830186611559565b6118ff60c0830185611540565b61190c60e0830184611559565b9998505050505050505050565b600060208201905061192e6000830184611559565b92915050565b60008060006060848603121561194d5761194c61141b565b5b600084013567ffffffffffffffff81111561196b5761196a611420565b5b611977868287016116ec565b935050602084013567ffffffffffffffff81111561199857611997611420565b5b6119a4868287016116ec565b92505060406119b58682870161146e565b9150509250925092565b6119c88161154f565b81146119d357600080fd5b50565b6000813590506119e5816119bf565b92915050565b600060208284031215611a0157611a0061141b565b5b6000611a0f848285016119d6565b91505092915050565b6000602082019050611a2d6000830184611540565b92915050565b60008060408385031215611a4a57611a4961141b565b5b6000611a588582860161146e565b9250506020611a69858286016119d6565b9150509250929050565b7f43616c6c6572206973206e6f74206f776e657200000000000000000000000000600082015250565b6000611aa96013836114bb565b9150611ab482611a73565b602082019050919050565b60006020820190508181036000830152611ad881611a9c565b9050919050565b7f506172747920646f6573206e6f74206578697374000000000000000000000000600082015250565b6000611b156014836114bb565b9150611b2082611adf565b602082019050919050565b60006020820190508181036000830152611b4481611b08565b9050919050565b7f4e487b7100000000000000000000000000000000000000000000000000000000600052602260045260246000fd5b60006002820490506001821680611b9257607f821691505b602082108103611ba557611ba4611b4b565b5b50919050565b7f506172747920616c726561647920657869737473000000000000000000000000600082015250565b6000611be16014836114bb565b9150611bec82611bab565b602082019050919050565b60006020820190508181036000830152611c1081611bd4565b9050919050565b60008190508160005260206000209050919050565b60006020601f8301049050919050565b600082821b905092915050565b600060088302611c797fffffffffffffffffffffffffffffffffffffffffffffffffffffffffffffffff82611c3c565b611c838683611c3c565b95508019841693508086168417925050509392505050565b6000611cb6611cb1611cac8461154f565b611805565b61154f565b9050919050565b6000819050919050565b611cd083611c9b565b611ce4611cdc82611cbd565b848454611c49565b825550505050565b600090565b611cf9611cec565b611d04818484611cc7565b505050565b5b81811015611d2857611d1d600082611cf1565b600181019050611d0a565b5050565b601f821115611d6d57611d3e81611c17565b611d4784611c2c565b81016020851015611d56578190505b611d6a611d6285611c2c565b830182611d09565b50505b505050565b600082821c905092915050565b6000611d9060001984600802611d72565b1980831691505092915050565b6000611da98383611d7f565b9150826002028217905092915050565b611dc2826114b0565b67ffffffffffffffff811115611ddb57611dda6115ef565b5b611de58254611b7a565b611df0828285611d2c565b600060209050601f831160018114611e235760008415611e11578287015190505b611e1b8582611d9d565b865550611e83565b601f198416611e3186611c17565b60005b82811015611e5957848901518255600182019150602085019450602081019050611e34565b86831015611e765784890151611e72601f891682611d7f565b8355505b6001600288020188555050505b505050505050565b7f4e487b7100000000000000000000000000000000000000000000000000000000600052603260045260246000fd5b7f4e487b7100000000000000000000000000000000000000000000000000000000600052601160045260246000fd5b6000611ef48261154f565b9150611eff8361154f565b9250828203905081811115611f1757611f16611eba565b5b92915050565b7f4e487b7100000000000000000000000000000000000000000000000000000000600052603160045260246000fd5b6000611f578261154f565b91507fffffffffffffffffffffffffffffffffffffffffffffffffffffffffffffffff8203611f8957611f88611eba565b5b60018201905091905056fea2646970667358221220de294213fb837fa0238e93d4acbba76ad2fd4c725e3068c33757b4b4249d940864736f6c63430008130033",
  "immutableReferences": {},
  "source": "// SPDX-License-Identifier: UNLICENSED\r\n\r\npragma solidity >=0.7.0 <0.9.0;\r\n\r\n// import \"https://github.com/OpenZeppelin/openzeppelin-contracts/blob/master/contracts/token/ERC20/ERC20.sol\"; // Use this while running it in remix\r\n\r\nimport \"./Token.sol\";\r\n\r\ncontract PartyContract {\r\n\r\n    struct Party {\r\n        string name;\r\n        string contactNumber;\r\n        string email;\r\n        string password;\r\n        uint256 trustScore;\r\n        uint256 createdAt;\r\n        address partyAddress;\r\n        uint256[] tenderIds;\r\n        uint256 freezedBalance;\r\n        uint256[] tenderIdsToValidate;\r\n    }\r\n    \r\n    mapping (address => Party) public parties;\r\n    address[] public partyAddresses;\r\n    address public admin;\r\n    Token public tokenRef;\r\n    uint256 tokenAmount = 50; // Giving 50 token to created party ,Fixed amount of tokens to credit\r\n       \r\n    constructor() {\r\n        // tokenRef = _tokenRef;  \r\n        // admin = msg.sender;\r\n    }\r\n\r\n    //setters and getters\r\n    function getTrustScore(address _partyAddress) public view returns(uint256) {\r\n        return parties[_partyAddress].trustScore;\r\n    }\r\n\r\n    function setTrustScore(address _partyAddress, uint256 _trustScore) public {\r\n        parties[_partyAddress].trustScore = _trustScore;\r\n    }\r\n\r\n    modifier isOwner(address owner) {\r\n        require(msg.sender == owner, \"Caller is not owner\");\r\n        _;\r\n    }\r\n\r\n    modifier isPartyExists(address _partyAddress) {\r\n        require(parties[_partyAddress].partyAddress != address(0), \"Party does not exist\");\r\n        _;\r\n    }\r\n\r\n    // Function for creating party\r\n    function createParty(string memory _name, string memory _contactNumber, string memory _email, string memory _password, address _partyAddress) public isOwner(_partyAddress){\r\n        require(parties[_partyAddress].partyAddress == address(0), \"Party already exists\"); //\r\n\r\n        Party storage newParty = parties[_partyAddress];\r\n        newParty.name = _name;\r\n        newParty.contactNumber = _contactNumber;\r\n        newParty.email = _email;\r\n        newParty.password = _password;\r\n        newParty.trustScore = 0;\r\n        newParty.createdAt = block.timestamp;\r\n        newParty.partyAddress = _partyAddress;\r\n        newParty.tenderIds = new uint256[](0); \r\n        // Giving 50 token to created party\r\n        // uint256 tokenAmount = 50; // Fixed amount of tokens to credit\r\n        // tokenRef.transfer(payable(_partyAddress), tokenAmount * (10 ** 18));\r\n        \r\n        partyAddresses.push(_partyAddress);\r\n    }\r\n\r\n    //Function for updating party\r\n    function updateParty(string memory _name, string memory _password, address _partyAddress) public isOwner(_partyAddress) isPartyExists(_partyAddress) {\r\n        // require(msg.sender == parties[_partyAddress].partyAddress, \"Only party owner can update/delete party details.\");\r\n        Party storage updatedParty = parties[_partyAddress];\r\n        updatedParty.name  = _name;\r\n        updatedParty.password = _password;\r\n    }\r\n    \r\n    //Function for deleting a party on platform\r\n    function deleteParty(address _partyAddress) public isOwner(_partyAddress) isPartyExists(_partyAddress) {\r\n        // require(msg.sender == parties[_partyAddress].partyAddress, \"Only party owner can update/delete party details.\");\r\n        delete parties[_partyAddress];\r\n        for (uint256 i = 0; i < partyAddresses.length; i++) {\r\n            if (partyAddresses[i] == msg.sender) {\r\n                partyAddresses[i] = partyAddresses[partyAddresses.length - 1];\r\n                partyAddresses.pop();\r\n                break;\r\n            }\r\n        }\r\n    }\r\n \r\n    // Function for getting details of a particular party\r\n    function getPartyDetails(address _partyAddress) public isOwner(_partyAddress) isPartyExists(_partyAddress) view returns (string memory, string memory, string memory, address, uint256, string memory) {\r\n        return (parties[_partyAddress].name, parties[_partyAddress].contactNumber, parties[_partyAddress].email, parties[_partyAddress].partyAddress, parties[_partyAddress].trustScore, parties[_partyAddress].password);\r\n    }\r\n}\r\n",
  "sourcePath": "C:\\Users\\sabba\\OneDrive\\Documents\\BlockchainProject\\blockchain-based-contracting-system\\contracts\\PartyContract.sol",
  "compiler": {
    "name": "solc",
    "version": "0.8.19+commit.7dd6d404.Emscripten.clang"
  },
  "schemaVersion": "3.4.13",
  "updatedAt": "2023-04-15T15:50:25.898Z",
  "networkType": "ethereum",
  "devdoc": {
    "kind": "dev",
    "methods": {},
    "version": 1
  },
  "userdoc": {
    "kind": "user",
    "methods": {},
    "version": 1
  }
}