{
  "contractName": "TenderContract",
  "abi": [
    {
      "inputs": [
        {
          "internalType": "contract PartyContract",
          "name": "_partyRef",
          "type": "address"
        }
      ],
      "stateMutability": "nonpayable",
      "type": "constructor"
    },
    {
      "inputs": [],
      "name": "admin",
      "outputs": [
        {
          "internalType": "address",
          "name": "",
          "type": "address"
        }
      ],
      "stateMutability": "view",
      "type": "function"
    },
    {
      "inputs": [
        {
          "internalType": "string",
          "name": "_name",
          "type": "string"
        },
        {
          "internalType": "string",
          "name": "_contactNumber",
          "type": "string"
        },
        {
          "internalType": "string",
          "name": "_email",
          "type": "string"
        },
        {
          "internalType": "string",
          "name": "_password",
          "type": "string"
        },
        {
          "internalType": "address",
          "name": "_partyAddress",
          "type": "address"
        }
      ],
      "name": "createParty",
      "outputs": [],
      "stateMutability": "nonpayable",
      "type": "function"
    },
    {
      "inputs": [
        {
          "internalType": "address",
          "name": "_partyAddress",
          "type": "address"
        }
      ],
      "name": "deleteParty",
      "outputs": [],
      "stateMutability": "nonpayable",
      "type": "function"
    },
    {
      "inputs": [
        {
          "internalType": "address",
          "name": "_partyAddress",
          "type": "address"
        }
      ],
      "name": "getPartyDetails",
      "outputs": [
        {
          "internalType": "string",
          "name": "",
          "type": "string"
        },
        {
          "internalType": "string",
          "name": "",
          "type": "string"
        },
        {
          "internalType": "string",
          "name": "",
          "type": "string"
        },
        {
          "internalType": "address",
          "name": "",
          "type": "address"
        },
        {
          "internalType": "uint256",
          "name": "",
          "type": "uint256"
        },
        {
          "internalType": "string",
          "name": "",
          "type": "string"
        }
      ],
      "stateMutability": "view",
      "type": "function"
    },
    {
      "inputs": [
        {
          "internalType": "address",
          "name": "_partyAddress",
          "type": "address"
        }
      ],
      "name": "getTrustScore",
      "outputs": [
        {
          "internalType": "uint256",
          "name": "",
          "type": "uint256"
        }
      ],
      "stateMutability": "view",
      "type": "function"
    },
    {
      "inputs": [
        {
          "internalType": "address",
          "name": "",
          "type": "address"
        }
      ],
      "name": "parties",
      "outputs": [
        {
          "internalType": "string",
          "name": "name",
          "type": "string"
        },
        {
          "internalType": "string",
          "name": "contactNumber",
          "type": "string"
        },
        {
          "internalType": "string",
          "name": "email",
          "type": "string"
        },
        {
          "internalType": "string",
          "name": "password",
          "type": "string"
        },
        {
          "internalType": "uint256",
          "name": "trustScore",
          "type": "uint256"
        },
        {
          "internalType": "uint256",
          "name": "createdAt",
          "type": "uint256"
        },
        {
          "internalType": "address",
          "name": "partyAddress",
          "type": "address"
        },
        {
          "internalType": "uint256",
          "name": "balance",
          "type": "uint256"
        }
      ],
      "stateMutability": "view",
      "type": "function"
    },
    {
      "inputs": [
        {
          "internalType": "uint256",
          "name": "",
          "type": "uint256"
        }
      ],
      "name": "partyAddresses",
      "outputs": [
        {
          "internalType": "address",
          "name": "",
          "type": "address"
        }
      ],
      "stateMutability": "view",
      "type": "function"
    },
    {
      "inputs": [],
      "name": "partyRef",
      "outputs": [
        {
          "internalType": "contract PartyContract",
          "name": "",
          "type": "address"
        }
      ],
      "stateMutability": "view",
      "type": "function"
    },
    {
      "inputs": [
        {
          "internalType": "address",
          "name": "_partyAddress",
          "type": "address"
        },
        {
          "internalType": "uint256",
          "name": "_trustScore",
          "type": "uint256"
        }
      ],
      "name": "setTrustScore",
      "outputs": [],
      "stateMutability": "nonpayable",
      "type": "function"
    },
    {
      "inputs": [
        {
          "internalType": "uint256",
          "name": "",
          "type": "uint256"
        }
      ],
      "name": "tenders",
      "outputs": [
        {
          "internalType": "string",
          "name": "title",
          "type": "string"
        },
        {
          "internalType": "string",
          "name": "description",
          "type": "string"
        },
        {
          "internalType": "uint256",
          "name": "budget",
          "type": "uint256"
        },
        {
          "internalType": "address",
          "name": "issuerAddress",
          "type": "address"
        },
        {
          "internalType": "enum TenderStatus",
          "name": "tenderStatus",
          "type": "uint8"
        },
        {
          "internalType": "uint256",
          "name": "createdAt",
          "type": "uint256"
        },
        {
          "internalType": "uint256",
          "name": "deadline",
          "type": "uint256"
        },
        {
          "internalType": "uint256",
          "name": "totalMilestones",
          "type": "uint256"
        },
        {
          "internalType": "uint256",
          "name": "tenderId",
          "type": "uint256"
        },
        {
          "internalType": "uint256",
          "name": "balance",
          "type": "uint256"
        }
      ],
      "stateMutability": "view",
      "type": "function"
    },
    {
      "inputs": [],
      "name": "tokenRef",
      "outputs": [
        {
          "internalType": "contract Token",
          "name": "",
          "type": "address"
        }
      ],
      "stateMutability": "view",
      "type": "function"
    },
    {
      "inputs": [
        {
          "internalType": "string",
          "name": "_name",
          "type": "string"
        },
        {
          "internalType": "string",
          "name": "_password",
          "type": "string"
        },
        {
          "internalType": "address",
          "name": "_partyAddress",
          "type": "address"
        }
      ],
      "name": "updateParty",
      "outputs": [],
      "stateMutability": "nonpayable",
      "type": "function"
    },
    {
      "inputs": [],
      "name": "getTenderCount",
      "outputs": [
        {
          "internalType": "uint256",
          "name": "",
          "type": "uint256"
        }
      ],
      "stateMutability": "view",
      "type": "function"
    },
    {
      "inputs": [
        {
          "internalType": "uint256",
          "name": "_tenderId",
          "type": "uint256"
        }
      ],
      "name": "getBudget",
      "outputs": [
        {
          "internalType": "uint256",
          "name": "",
          "type": "uint256"
        }
      ],
      "stateMutability": "view",
      "type": "function"
    },
    {
      "inputs": [
        {
          "internalType": "uint256",
          "name": "_tenderId",
          "type": "uint256"
        }
      ],
      "name": "getTenderStatus",
      "outputs": [
        {
          "internalType": "enum TenderStatus",
          "name": "",
          "type": "uint8"
        }
      ],
      "stateMutability": "view",
      "type": "function"
    },
    {
      "inputs": [
        {
          "internalType": "uint256",
          "name": "_tenderId",
          "type": "uint256"
        }
      ],
      "name": "getDeadline",
      "outputs": [
        {
          "internalType": "uint256",
          "name": "",
          "type": "uint256"
        }
      ],
      "stateMutability": "view",
      "type": "function"
    },
    {
      "inputs": [
        {
          "internalType": "uint256",
          "name": "_tenderId",
          "type": "uint256"
        }
      ],
      "name": "getBidIds",
      "outputs": [
        {
          "internalType": "uint256[]",
          "name": "",
          "type": "uint256[]"
        }
      ],
      "stateMutability": "view",
      "type": "function"
    },
    {
      "inputs": [
        {
          "internalType": "uint256",
          "name": "_tenderId",
          "type": "uint256"
        }
      ],
      "name": "getIssuerAddress",
      "outputs": [
        {
          "internalType": "address",
          "name": "",
          "type": "address"
        }
      ],
      "stateMutability": "view",
      "type": "function"
    },
    {
      "inputs": [
        {
          "internalType": "uint256",
          "name": "_tenderId",
          "type": "uint256"
        },
        {
          "internalType": "uint256",
          "name": "bidId",
          "type": "uint256"
        }
      ],
      "name": "addBidId",
      "outputs": [],
      "stateMutability": "nonpayable",
      "type": "function"
    },
    {
      "inputs": [
        {
          "internalType": "uint256",
          "name": "_tenderId",
          "type": "uint256"
        },
        {
          "internalType": "uint256",
          "name": "_bidId",
          "type": "uint256"
        }
      ],
      "name": "deleteBidId",
      "outputs": [],
      "stateMutability": "nonpayable",
      "type": "function"
    },
    {
      "inputs": [
        {
          "internalType": "address",
          "name": "_partyAddress",
          "type": "address"
        },
        {
          "internalType": "uint256",
          "name": "_budget",
          "type": "uint256"
        },
        {
          "internalType": "string",
          "name": "_title",
          "type": "string"
        },
        {
          "internalType": "string",
          "name": "_description",
          "type": "string"
        },
        {
          "internalType": "uint256",
          "name": "_deadline",
          "type": "uint256"
        },
        {
          "internalType": "uint256",
          "name": "_totalMilestones",
          "type": "uint256"
        }
      ],
      "name": "createTender",
      "outputs": [],
      "stateMutability": "nonpayable",
      "type": "function"
    },
    {
      "inputs": [],
      "name": "sortByTrustScore",
      "outputs": [
        {
          "internalType": "address[]",
          "name": "",
          "type": "address[]"
        }
      ],
      "stateMutability": "view",
      "type": "function"
    },
    {
      "inputs": [
        {
          "internalType": "uint256",
          "name": "_tenderId",
          "type": "uint256"
        },
        {
          "internalType": "bool",
          "name": "_vote",
          "type": "bool"
        }
      ],
      "name": "validate",
      "outputs": [],
      "stateMutability": "nonpayable",
      "type": "function"
    },
    {
      "inputs": [
        {
          "internalType": "uint256",
          "name": "_tenderId",
          "type": "uint256"
        }
      ],
      "name": "checkTenderValidation",
      "outputs": [],
      "stateMutability": "nonpayable",
      "type": "function"
    },
    {
      "inputs": [
        {
          "internalType": "bool[]",
          "name": "_validationVotes",
          "type": "bool[]"
        }
      ],
      "name": "isValid",
      "outputs": [
        {
          "internalType": "bool",
          "name": "",
          "type": "bool"
        }
      ],
      "stateMutability": "pure",
      "type": "function"
    },
    {
      "inputs": [],
      "name": "getAllActiveTenders",
      "outputs": [
        {
          "components": [
            {
              "internalType": "string",
              "name": "title",
              "type": "string"
            },
            {
              "internalType": "string",
              "name": "description",
              "type": "string"
            },
            {
              "internalType": "uint256",
              "name": "budget",
              "type": "uint256"
            },
            {
              "internalType": "address",
              "name": "issuerAddress",
              "type": "address"
            },
            {
              "internalType": "enum TenderStatus",
              "name": "tenderStatus",
              "type": "uint8"
            },
            {
              "internalType": "uint256",
              "name": "createdAt",
              "type": "uint256"
            },
            {
              "internalType": "uint256",
              "name": "deadline",
              "type": "uint256"
            },
            {
              "internalType": "uint256",
              "name": "totalMilestones",
              "type": "uint256"
            },
            {
              "internalType": "uint256",
              "name": "tenderId",
              "type": "uint256"
            },
            {
              "internalType": "address[]",
              "name": "validatorsAddresses",
              "type": "address[]"
            },
            {
              "internalType": "bool[]",
              "name": "validationVotes",
              "type": "bool[]"
            },
            {
              "internalType": "uint256[]",
              "name": "milestoneTimePeriods",
              "type": "uint256[]"
            },
            {
              "internalType": "uint256[]",
              "name": "bidIds",
              "type": "uint256[]"
            },
            {
              "internalType": "uint256",
              "name": "balance",
              "type": "uint256"
            }
          ],
          "internalType": "struct TenderContract.Tender[]",
          "name": "",
          "type": "tuple[]"
        },
        {
          "internalType": "uint256",
          "name": "",
          "type": "uint256"
        }
      ],
      "stateMutability": "view",
      "type": "function"
    },
    {
      "inputs": [
        {
          "internalType": "address",
          "name": "_partyAddress",
          "type": "address"
        }
      ],
      "name": "getMyTenders",
      "outputs": [
        {
          "components": [
            {
              "internalType": "string",
              "name": "title",
              "type": "string"
            },
            {
              "internalType": "string",
              "name": "description",
              "type": "string"
            },
            {
              "internalType": "uint256",
              "name": "budget",
              "type": "uint256"
            },
            {
              "internalType": "address",
              "name": "issuerAddress",
              "type": "address"
            },
            {
              "internalType": "enum TenderStatus",
              "name": "tenderStatus",
              "type": "uint8"
            },
            {
              "internalType": "uint256",
              "name": "createdAt",
              "type": "uint256"
            },
            {
              "internalType": "uint256",
              "name": "deadline",
              "type": "uint256"
            },
            {
              "internalType": "uint256",
              "name": "totalMilestones",
              "type": "uint256"
            },
            {
              "internalType": "uint256",
              "name": "tenderId",
              "type": "uint256"
            },
            {
              "internalType": "address[]",
              "name": "validatorsAddresses",
              "type": "address[]"
            },
            {
              "internalType": "bool[]",
              "name": "validationVotes",
              "type": "bool[]"
            },
            {
              "internalType": "uint256[]",
              "name": "milestoneTimePeriods",
              "type": "uint256[]"
            },
            {
              "internalType": "uint256[]",
              "name": "bidIds",
              "type": "uint256[]"
            },
            {
              "internalType": "uint256",
              "name": "balance",
              "type": "uint256"
            }
          ],
          "internalType": "struct TenderContract.Tender[]",
          "name": "",
          "type": "tuple[]"
        }
      ],
      "stateMutability": "view",
      "type": "function"
    },
    {
      "inputs": [
        {
          "internalType": "uint256",
          "name": "_tenderId",
          "type": "uint256"
        }
      ],
      "name": "getTenderDetails",
      "outputs": [
        {
          "components": [
            {
              "internalType": "string",
              "name": "title",
              "type": "string"
            },
            {
              "internalType": "string",
              "name": "description",
              "type": "string"
            },
            {
              "internalType": "uint256",
              "name": "budget",
              "type": "uint256"
            },
            {
              "internalType": "address",
              "name": "issuerAddress",
              "type": "address"
            },
            {
              "internalType": "enum TenderStatus",
              "name": "tenderStatus",
              "type": "uint8"
            },
            {
              "internalType": "uint256",
              "name": "createdAt",
              "type": "uint256"
            },
            {
              "internalType": "uint256",
              "name": "deadline",
              "type": "uint256"
            },
            {
              "internalType": "uint256",
              "name": "totalMilestones",
              "type": "uint256"
            },
            {
              "internalType": "uint256",
              "name": "tenderId",
              "type": "uint256"
            },
            {
              "internalType": "address[]",
              "name": "validatorsAddresses",
              "type": "address[]"
            },
            {
              "internalType": "bool[]",
              "name": "validationVotes",
              "type": "bool[]"
            },
            {
              "internalType": "uint256[]",
              "name": "milestoneTimePeriods",
              "type": "uint256[]"
            },
            {
              "internalType": "uint256[]",
              "name": "bidIds",
              "type": "uint256[]"
            },
            {
              "internalType": "uint256",
              "name": "balance",
              "type": "uint256"
            }
          ],
          "internalType": "struct TenderContract.Tender",
          "name": "",
          "type": "tuple"
        }
      ],
      "stateMutability": "view",
      "type": "function"
    },
    {
      "inputs": [
        {
          "internalType": "uint256",
          "name": "_tenderId",
          "type": "uint256"
        },
        {
          "internalType": "enum TenderStatus",
          "name": "_tenderStatus",
          "type": "uint8"
        }
      ],
      "name": "updateTenderStatus",
      "outputs": [],
      "stateMutability": "nonpayable",
      "type": "function"
    },
    {
      "inputs": [
        {
          "internalType": "address",
          "name": "_partyAddress",
          "type": "address"
        },
        {
          "internalType": "uint256",
          "name": "_tenderId",
          "type": "uint256"
        },
        {
          "internalType": "uint256",
          "name": "_budget",
          "type": "uint256"
        },
        {
          "internalType": "string",
          "name": "_title",
          "type": "string"
        },
        {
          "internalType": "string",
          "name": "_description",
          "type": "string"
        },
        {
          "internalType": "uint256",
          "name": "_deadline",
          "type": "uint256"
        },
        {
          "internalType": "uint256",
          "name": "_totalMilestones",
          "type": "uint256"
        }
      ],
      "name": "updateTender",
      "outputs": [],
      "stateMutability": "nonpayable",
      "type": "function"
    },
    {
      "inputs": [
        {
          "internalType": "address",
          "name": "_partyAddress",
          "type": "address"
        },
        {
          "internalType": "uint256",
          "name": "_tenderId",
          "type": "uint256"
        }
      ],
      "name": "deleteTender",
      "outputs": [],
      "stateMutability": "nonpayable",
      "type": "function"
    }
  ],
  "bytecode": "0x608060405260006006553480156200001657600080fd5b5060405162005cf538038062005cf583398181016040528101906200003c919062000145565b3080600360006101000a81548173ffffffffffffffffffffffffffffffffffffffff021916908373ffffffffffffffffffffffffffffffffffffffff1602179055505080600460006101000a81548173ffffffffffffffffffffffffffffffffffffffff021916908373ffffffffffffffffffffffffffffffffffffffff1602179055505062000177565b600080fd5b600073ffffffffffffffffffffffffffffffffffffffff82169050919050565b6000620000f982620000cc565b9050919050565b60006200010d82620000ec565b9050919050565b6200011f8162000100565b81146200012b57600080fd5b50565b6000815190506200013f8162000114565b92915050565b6000602082840312156200015e576200015d620000c7565b5b60006200016e848285016200012e565b91505092915050565b615b6e80620001876000396000f3fe608060405234801561001057600080fd5b50600436106101e45760003560e01c80635e09eea11161010f578063b2a88f6f116100a2578063ef8c039111610071578063ef8c039114610601578063f1d8ef4d1461061d578063f851a44014610639578063feec475814610657576101e4565b8063b2a88f6f14610569578063bac2e80d14610585578063c792d8fd146105a1578063ccfa858e146105d1576101e4565b806382862275116100de57806382862275146104e35780638d4553991461051357806397ef4e3e14610531578063aaaf41881461054d576101e4565b80635e09eea11461044b578063791778c11461047b5780637a0c7d39146104975780637e4d2d97146104b3576101e4565b80633d818b311161018757806353ee895d1161015657806353ee895d146103c357806355e8dea2146103f3578063564abc251461040f5780635850b3831461042d576101e4565b80633d818b311461030457806342222a4314610323578063465e1def146103535780634f2352071461038c576101e4565b806329c350f1116101c357806329c350f11461026a5780632e4ea4c41461028657806333bec837146102b6578063354133f7146102d4576101e4565b8062da7228146101e9578063171fd8481461021e578063228becb61461023a575b600080fd5b61020360048036038101906101fe9190613e71565b610673565b60405161021596959493929190613f56565b60405180910390f35b61023860048036038101906102339190614108565b610bac565b005b610254600480360381019061024f9190613e71565b610f54565b604051610261919061470d565b60405180910390f35b610284600480360381019061027f919061475b565b6114f7565b005b6102a0600480360381019061029b919061475b565b6115a3565b6040516102ad9190614788565b60405180910390f35b6102be6115c3565b6040516102cb9190614802565b60405180910390f35b6102ee60048036038101906102e9919061475b565b6115e9565b6040516102fb919061482c565b60405180910390f35b61030c611616565b60405161031a929190614847565b60405180910390f35b61033d6004803603810190610338919061475b565b611b2d565b60405161034a91906148e6565b60405180910390f35b61036d6004803603810190610368919061475b565b611b9b565b6040516103839a99989796959493929190614908565b60405180910390f35b6103a660048036038101906103a19190613e71565b611d2c565b6040516103ba9897969594939291906149b2565b60405180910390f35b6103dd60048036038101906103d8919061475b565b611fb4565b6040516103ea9190614b9d565b60405180910390f35b61040d60048036038101906104089190614bbf565b6123e7565b005b6104176127e6565b6040516104249190614c6e565b60405180910390f35b610435612a56565b6040516104429190614788565b60405180910390f35b61046560048036038101906104609190613e71565b612a60565b6040516104729190614788565b60405180910390f35b61049560048036038101906104909190614c90565b612aab565b005b6104b160048036038101906104ac9190614cd0565b612b96565b005b6104cd60048036038101906104c8919061475b565b612d44565b6040516104da9190614d5b565b60405180910390f35b6104fd60048036038101906104f8919061475b565b612d84565b60405161050a9190614788565b60405180910390f35b61051b612da4565b6040516105289190614d97565b60405180910390f35b61054b60048036038101906105469190614dde565b612dca565b005b61056760048036038101906105629190614e43565b612f1c565b005b610583600480360381019061057e9190614e83565b612f64565b005b61059f600480360381019061059a9190614f48565b6133f3565b005b6105bb60048036038101906105b6919061475b565b6136b7565b6040516105c89190614d5b565b60405180910390f35b6105eb60048036038101906105e691906150ea565b6136f6565b6040516105f89190615142565b60405180910390f35b61061b60048036038101906106169190613e71565b613769565b005b61063760048036038101906106329190614c90565b613b19565b005b610641613b5a565b60405161064e9190614d5b565b60405180910390f35b610671600480360381019061066c9190614bbf565b613b80565b005b60608060606000806060868073ffffffffffffffffffffffffffffffffffffffff163373ffffffffffffffffffffffffffffffffffffffff16146106ec576040517f08c379a00000000000000000000000000000000000000000000000000000000081526004016106e3906151a9565b60405180910390fd5b87600073ffffffffffffffffffffffffffffffffffffffff166000808373ffffffffffffffffffffffffffffffffffffffff1673ffffffffffffffffffffffffffffffffffffffff16815260200190815260200160002060060160009054906101000a900473ffffffffffffffffffffffffffffffffffffffff1673ffffffffffffffffffffffffffffffffffffffff16036107bd576040517f08c379a00000000000000000000000000000000000000000000000000000000081526004016107b490615215565b60405180910390fd5b6000808a73ffffffffffffffffffffffffffffffffffffffff1673ffffffffffffffffffffffffffffffffffffffff1681526020019081526020016000206000016000808b73ffffffffffffffffffffffffffffffffffffffff1673ffffffffffffffffffffffffffffffffffffffff1681526020019081526020016000206001016000808c73ffffffffffffffffffffffffffffffffffffffff1673ffffffffffffffffffffffffffffffffffffffff1681526020019081526020016000206002016000808d73ffffffffffffffffffffffffffffffffffffffff1673ffffffffffffffffffffffffffffffffffffffff16815260200190815260200160002060060160009054906101000a900473ffffffffffffffffffffffffffffffffffffffff166000808e73ffffffffffffffffffffffffffffffffffffffff1673ffffffffffffffffffffffffffffffffffffffff168152602001908152602001600020600401546000808f73ffffffffffffffffffffffffffffffffffffffff1673ffffffffffffffffffffffffffffffffffffffff16815260200190815260200160002060030185805461097190615264565b80601f016020809104026020016040519081016040528092919081815260200182805461099d90615264565b80156109ea5780601f106109bf576101008083540402835291602001916109ea565b820191906000526020600020905b8154815290600101906020018083116109cd57829003601f168201915b505050505095508480546109fd90615264565b80601f0160208091040260200160405190810160405280929190818152602001828054610a2990615264565b8015610a765780601f10610a4b57610100808354040283529160200191610a76565b820191906000526020600020905b815481529060010190602001808311610a5957829003601f168201915b50505050509450838054610a8990615264565b80601f0160208091040260200160405190810160405280929190818152602001828054610ab590615264565b8015610b025780601f10610ad757610100808354040283529160200191610b02565b820191906000526020600020905b815481529060010190602001808311610ae557829003601f168201915b50505050509350808054610b1590615264565b80601f0160208091040260200160405190810160405280929190818152602001828054610b4190615264565b8015610b8e5780601f10610b6357610100808354040283529160200191610b8e565b820191906000526020600020905b815481529060010190602001808311610b7157829003601f168201915b50505050509050975097509750975097509750505091939550919395565b808073ffffffffffffffffffffffffffffffffffffffff163373ffffffffffffffffffffffffffffffffffffffff1614610c1b576040517f08c379a0000000000000000000000000000000000000000000000000000000008152600401610c12906151a9565b60405180910390fd5b600073ffffffffffffffffffffffffffffffffffffffff166000808473ffffffffffffffffffffffffffffffffffffffff1673ffffffffffffffffffffffffffffffffffffffff16815260200190815260200160002060060160009054906101000a900473ffffffffffffffffffffffffffffffffffffffff1673ffffffffffffffffffffffffffffffffffffffff1614610ceb576040517f08c379a0000000000000000000000000000000000000000000000000000000008152600401610ce2906152e1565b60405180910390fd5b60008060008473ffffffffffffffffffffffffffffffffffffffff1673ffffffffffffffffffffffffffffffffffffffff168152602001908152602001600020905086816000019081610d3e91906154a3565b5085816001019081610d5091906154a3565b5084816002019081610d6291906154a3565b5083816003019081610d7491906154a3565b5060008160040181905550428160050181905550828160060160006101000a81548173ffffffffffffffffffffffffffffffffffffffff021916908373ffffffffffffffffffffffffffffffffffffffff160217905550600067ffffffffffffffff811115610de657610de5613fdd565b5b604051908082528060200260200182016040528015610e145781602001602082028036833780820191505090505b50816007019080519060200190610e2c929190613bca565b50600060329050600360009054906101000a900473ffffffffffffffffffffffffffffffffffffffff1673ffffffffffffffffffffffffffffffffffffffff1663a9059cbb85670de0b6b3a764000084610e8691906155a4565b6040518363ffffffff1660e01b8152600401610ea3929190615607565b6020604051808303816000875af1158015610ec2573d6000803e3d6000fd5b505050506040513d601f19601f82011682018060405250810190610ee69190615645565b506001849080600181540180825580915050600190039060005260206000200160009091909190916101000a81548173ffffffffffffffffffffffffffffffffffffffff021916908373ffffffffffffffffffffffffffffffffffffffff1602179055505050505050505050565b606060008060008473ffffffffffffffffffffffffffffffffffffffff1673ffffffffffffffffffffffffffffffffffffffff1681526020019081526020016000206007018054905011610fdd576040517f08c379a0000000000000000000000000000000000000000000000000000000008152600401610fd4906156be565b60405180910390fd5b60008060008473ffffffffffffffffffffffffffffffffffffffff1673ffffffffffffffffffffffffffffffffffffffff16815260200190815260200160002060070180548060200260200160405190810160405280929190818152602001828054801561106a57602002820191906000526020600020905b815481526020019060010190808311611056575b505050505090506000815167ffffffffffffffff81111561108e5761108d613fdd565b5b6040519080825280602002602001820160405280156110c757816020015b6110b4613c17565b8152602001906001900390816110ac5790505b50905060005b82518110156114ec57600560008483815181106110ed576110ec6156de565b5b60200260200101518152602001908152602001600020604051806101c001604052908160008201805461111f90615264565b80601f016020809104026020016040519081016040528092919081815260200182805461114b90615264565b80156111985780601f1061116d57610100808354040283529160200191611198565b820191906000526020600020905b81548152906001019060200180831161117b57829003601f168201915b505050505081526020016001820180546111b190615264565b80601f01602080910402602001604051908101604052809291908181526020018280546111dd90615264565b801561122a5780601f106111ff5761010080835404028352916020019161122a565b820191906000526020600020905b81548152906001019060200180831161120d57829003601f168201915b50505050508152602001600282015481526020016003820160009054906101000a900473ffffffffffffffffffffffffffffffffffffffff1673ffffffffffffffffffffffffffffffffffffffff1673ffffffffffffffffffffffffffffffffffffffff1681526020016003820160149054906101000a900460ff1660048111156112b8576112b7614287565b5b60048111156112ca576112c9614287565b5b8152602001600482015481526020016005820154815260200160068201548152602001600782015481526020016008820180548060200260200160405190810160405280929190818152602001828054801561137b57602002820191906000526020600020905b8160009054906101000a900473ffffffffffffffffffffffffffffffffffffffff1673ffffffffffffffffffffffffffffffffffffffff1681526020019060010190808311611331575b50505050508152602001600982018054806020026020016040519081016040528092919081815260200182805480156113f857602002820191906000526020600020906000905b82829054906101000a900460ff161515815260200190600101906020826000010492830192600103820291508084116113c25790505b50505050508152602001600a820180548060200260200160405190810160405280929190818152602001828054801561145057602002820191906000526020600020905b81548152602001906001019080831161143c575b50505050508152602001600b82018054806020026020016040519081016040528092919081815260200182805480156114a857602002820191906000526020600020905b815481526020019060010190808311611494575b50505050508152602001600c820154815250508282815181106114ce576114cd6156de565b5b602002602001018190525080806114e49061570d565b9150506110cd565b508092505050919050565b600060056000838152602001908152602001600020905061158e8160090180548060200260200160405190810160405280929190818152602001828054801561158457602002820191906000526020600020906000905b82829054906101000a900460ff1615158152602001906001019060208260000104928301926001038202915080841161154e5790505b50505050506136f6565b1561159f5761159e826001612f1c565b5b5050565b600060056000838152602001908152602001600020600201549050919050565b600360009054906101000a900473ffffffffffffffffffffffffffffffffffffffff1681565b60006005600083815260200190815260200160002060030160149054906101000a900460ff169050919050565b60606000806006541161165e576040517f08c379a0000000000000000000000000000000000000000000000000000000008152600401611655906156be565b60405180910390fd5b60008060065467ffffffffffffffff81111561167d5761167c613fdd565b5b6040519080825280602002602001820160405280156116b657816020015b6116a3613c17565b81526020019060019003908161169b5790505b50905060005b600654811015611b2057600160048111156116da576116d9614287565b5b6005600083815260200190815260200160002060030160149054906101000a900460ff1660048111156117105761170f614287565b5b03611b0d5760056000828152602001908152602001600020604051806101c001604052908160008201805461174490615264565b80601f016020809104026020016040519081016040528092919081815260200182805461177090615264565b80156117bd5780601f10611792576101008083540402835291602001916117bd565b820191906000526020600020905b8154815290600101906020018083116117a057829003601f168201915b505050505081526020016001820180546117d690615264565b80601f016020809104026020016040519081016040528092919081815260200182805461180290615264565b801561184f5780601f106118245761010080835404028352916020019161184f565b820191906000526020600020905b81548152906001019060200180831161183257829003601f168201915b50505050508152602001600282015481526020016003820160009054906101000a900473ffffffffffffffffffffffffffffffffffffffff1673ffffffffffffffffffffffffffffffffffffffff1673ffffffffffffffffffffffffffffffffffffffff1681526020016003820160149054906101000a900460ff1660048111156118dd576118dc614287565b5b60048111156118ef576118ee614287565b5b815260200160048201548152602001600582015481526020016006820154815260200160078201548152602001600882018054806020026020016040519081016040528092919081815260200182805480156119a057602002820191906000526020600020905b8160009054906101000a900473ffffffffffffffffffffffffffffffffffffffff1673ffffffffffffffffffffffffffffffffffffffff1681526020019060010190808311611956575b5050505050815260200160098201805480602002602001604051908101604052809291908181526020018280548015611a1d57602002820191906000526020600020906000905b82829054906101000a900460ff161515815260200190600101906020826000010492830192600103820291508084116119e75790505b50505050508152602001600a8201805480602002602001604051908101604052809291908181526020018280548015611a7557602002820191906000526020600020905b815481526020019060010190808311611a61575b50505050508152602001600b8201805480602002602001604051908101604052809291908181526020018280548015611acd57602002820191906000526020600020905b815481526020019060010190808311611ab9575b50505050508152602001600c82015481525050828281518110611af357611af26156de565b5b60200260200101819052508280611b099061570d565b9350505b8080611b189061570d565b9150506116bc565b5080829350935050509091565b606060056000838152602001908152602001600020600b01805480602002602001604051908101604052809291908181526020018280548015611b8f57602002820191906000526020600020905b815481526020019060010190808311611b7b575b50505050509050919050565b6005602052806000526040600020600091509050806000018054611bbe90615264565b80601f0160208091040260200160405190810160405280929190818152602001828054611bea90615264565b8015611c375780601f10611c0c57610100808354040283529160200191611c37565b820191906000526020600020905b815481529060010190602001808311611c1a57829003601f168201915b505050505090806001018054611c4c90615264565b80601f0160208091040260200160405190810160405280929190818152602001828054611c7890615264565b8015611cc55780601f10611c9a57610100808354040283529160200191611cc5565b820191906000526020600020905b815481529060010190602001808311611ca857829003601f168201915b5050505050908060020154908060030160009054906101000a900473ffffffffffffffffffffffffffffffffffffffff16908060030160149054906101000a900460ff169080600401549080600501549080600601549080600701549080600c015490508a565b6000602052806000526040600020600091509050806000018054611d4f90615264565b80601f0160208091040260200160405190810160405280929190818152602001828054611d7b90615264565b8015611dc85780601f10611d9d57610100808354040283529160200191611dc8565b820191906000526020600020905b815481529060010190602001808311611dab57829003601f168201915b505050505090806001018054611ddd90615264565b80601f0160208091040260200160405190810160405280929190818152602001828054611e0990615264565b8015611e565780601f10611e2b57610100808354040283529160200191611e56565b820191906000526020600020905b815481529060010190602001808311611e3957829003601f168201915b505050505090806002018054611e6b90615264565b80601f0160208091040260200160405190810160405280929190818152602001828054611e9790615264565b8015611ee45780601f10611eb957610100808354040283529160200191611ee4565b820191906000526020600020905b815481529060010190602001808311611ec757829003601f168201915b505050505090806003018054611ef990615264565b80601f0160208091040260200160405190810160405280929190818152602001828054611f2590615264565b8015611f725780601f10611f4757610100808354040283529160200191611f72565b820191906000526020600020905b815481529060010190602001808311611f5557829003601f168201915b5050505050908060040154908060050154908060060160009054906101000a900473ffffffffffffffffffffffffffffffffffffffff16908060080154905088565b611fbc613c17565b6000600560008481526020019081526020016000206002015411612015576040517f08c379a000000000000000000000000000000000000000000000000000000000815260040161200c906157c7565b60405180910390fd5b60056000838152602001908152602001600020604051806101c001604052908160008201805461204490615264565b80601f016020809104026020016040519081016040528092919081815260200182805461207090615264565b80156120bd5780601f10612092576101008083540402835291602001916120bd565b820191906000526020600020905b8154815290600101906020018083116120a057829003601f168201915b505050505081526020016001820180546120d690615264565b80601f016020809104026020016040519081016040528092919081815260200182805461210290615264565b801561214f5780601f106121245761010080835404028352916020019161214f565b820191906000526020600020905b81548152906001019060200180831161213257829003601f168201915b50505050508152602001600282015481526020016003820160009054906101000a900473ffffffffffffffffffffffffffffffffffffffff1673ffffffffffffffffffffffffffffffffffffffff1673ffffffffffffffffffffffffffffffffffffffff1681526020016003820160149054906101000a900460ff1660048111156121dd576121dc614287565b5b60048111156121ef576121ee614287565b5b815260200160048201548152602001600582015481526020016006820154815260200160078201548152602001600882018054806020026020016040519081016040528092919081815260200182805480156122a057602002820191906000526020600020905b8160009054906101000a900473ffffffffffffffffffffffffffffffffffffffff1673ffffffffffffffffffffffffffffffffffffffff1681526020019060010190808311612256575b505050505081526020016009820180548060200260200160405190810160405280929190818152602001828054801561231d57602002820191906000526020600020906000905b82829054906101000a900460ff161515815260200190600101906020826000010492830192600103820291508084116122e75790505b50505050508152602001600a820180548060200260200160405190810160405280929190818152602001828054801561237557602002820191906000526020600020905b815481526020019060010190808311612361575b50505050508152602001600b82018054806020026020016040519081016040528092919081815260200182805480156123cd57602002820191906000526020600020905b8154815260200190600101908083116123b9575b50505050508152602001600c820154815250509050919050565b81818173ffffffffffffffffffffffffffffffffffffffff166005600083815260200190815260200160002060030160009054906101000a900473ffffffffffffffffffffffffffffffffffffffff1673ffffffffffffffffffffffffffffffffffffffff161461248d576040517f08c379a000000000000000000000000000000000000000000000000000000000815260040161248490615859565b60405180910390fd5b60008060008673ffffffffffffffffffffffffffffffffffffffff1673ffffffffffffffffffffffffffffffffffffffff1681526020019081526020016000206007018054905011612514576040517f08c379a000000000000000000000000000000000000000000000000000000000815260040161250b906156be565b60405180910390fd5b600060056000858152602001908152602001600020600201541161256d576040517f08c379a0000000000000000000000000000000000000000000000000000000008152600401612564906157c7565b60405180910390fd5b6000600481111561258157612580614287565b5b6005600085815260200190815260200160002060030160149054906101000a900460ff1660048111156125b7576125b6614287565b5b036125f7576040517f08c379a00000000000000000000000000000000000000000000000000000000081526004016125ee906158c5565b60405180910390fd5b60008060008673ffffffffffffffffffffffffffffffffffffffff1673ffffffffffffffffffffffffffffffffffffffff168152602001908152602001600020600701905060005b81805490508110156127de578482828154811061265f5761265e6156de565b5b9060005260206000200154036127cb5760056000868152602001908152602001600020600080820160006126939190613cae565b6001820160006126a39190613cae565b60028201600090556003820160006101000a81549073ffffffffffffffffffffffffffffffffffffffff02191690556003820160146101000a81549060ff021916905560048201600090556005820160009055600682016000905560078201600090556008820160006127169190613cee565b6009820160006127269190613d0f565b600a820160006127369190613d37565b600b820160006127469190613d37565b600c8201600090555050816001838054905061276291906158e5565b81548110612773576127726156de565b5b9060005260206000200154828281548110612791576127906156de565b5b9060005260206000200181905550818054806127b0576127af615919565b5b600190038181906000526020600020016000905590556127de565b80806127d69061570d565b91505061263f565b505050505050565b60606000600180548060200260200160405190810160405280929190818152602001828054801561286c57602002820191906000526020600020905b8160009054906101000a900473ffffffffffffffffffffffffffffffffffffffff1673ffffffffffffffffffffffffffffffffffffffff1681526020019060010190808311612822575b505050505090506000600190505b600180549050811015612a4e5760005b81811015612a3a576000808483815181106128a8576128a76156de565b5b602002602001015173ffffffffffffffffffffffffffffffffffffffff1673ffffffffffffffffffffffffffffffffffffffff16815260200190815260200160002060040154600080858581518110612904576129036156de565b5b602002602001015173ffffffffffffffffffffffffffffffffffffffff1673ffffffffffffffffffffffffffffffffffffffff168152602001908152602001600020600401541015612a27576000838381518110612965576129646156de565b5b60200260200101519050838281518110612982576129816156de565b5b602002602001015184848151811061299d5761299c6156de565b5b602002602001019073ffffffffffffffffffffffffffffffffffffffff16908173ffffffffffffffffffffffffffffffffffffffff1681525050808483815181106129eb576129ea6156de565b5b602002602001019073ffffffffffffffffffffffffffffffffffffffff16908173ffffffffffffffffffffffffffffffffffffffff1681525050505b8080612a329061570d565b91505061288a565b508080612a469061570d565b91505061287a565b508091505090565b6000600654905090565b60008060008373ffffffffffffffffffffffffffffffffffffffff1673ffffffffffffffffffffffffffffffffffffffff168152602001908152602001600020600401549050919050565b600060056000848152602001908152602001600020600b01905060005b8180549050811015612b905782828281548110612ae857612ae76156de565b5b906000526020600020015403612b7d578160018380549050612b0a91906158e5565b81548110612b1b57612b1a6156de565b5b9060005260206000200154828281548110612b3957612b386156de565b5b90600052602060002001819055508160018380549050612b5991906158e5565b81548110612b6a57612b696156de565b5b9060005260206000200160009055612b90565b8080612b889061570d565b915050612ac8565b50505050565b808073ffffffffffffffffffffffffffffffffffffffff163373ffffffffffffffffffffffffffffffffffffffff1614612c05576040517f08c379a0000000000000000000000000000000000000000000000000000000008152600401612bfc906151a9565b60405180910390fd5b81600073ffffffffffffffffffffffffffffffffffffffff166000808373ffffffffffffffffffffffffffffffffffffffff1673ffffffffffffffffffffffffffffffffffffffff16815260200190815260200160002060060160009054906101000a900473ffffffffffffffffffffffffffffffffffffffff1673ffffffffffffffffffffffffffffffffffffffff1603612cd6576040517f08c379a0000000000000000000000000000000000000000000000000000000008152600401612ccd90615215565b60405180910390fd5b60008060008573ffffffffffffffffffffffffffffffffffffffff1673ffffffffffffffffffffffffffffffffffffffff168152602001908152602001600020905085816000019081612d2991906154a3565b5084816003019081612d3b91906154a3565b50505050505050565b60006005600083815260200190815260200160002060030160009054906101000a900473ffffffffffffffffffffffffffffffffffffffff169050919050565b600060056000838152602001908152602001600020600501549050919050565b600460009054906101000a900473ffffffffffffffffffffffffffffffffffffffff1681565b60008060056000858152602001908152602001600020905060008160080180549050905060005b81811015612e88573373ffffffffffffffffffffffffffffffffffffffff16836008018281548110612e2657612e256156de565b5b9060005260206000200160009054906101000a900473ffffffffffffffffffffffffffffffffffffffff1673ffffffffffffffffffffffffffffffffffffffff1603612e755760019350612e88565b8080612e809061570d565b915050612df1565b508215612eda57816009018490806001815401808255809150506001900390600052602060002090602091828204019190069091909190916101000a81548160ff021916908315150217905550612f15565b6040517f08c379a0000000000000000000000000000000000000000000000000000000008152600401612f0c906159ba565b60405180910390fd5b5050505050565b6000600560008481526020019081526020016000209050818160030160146101000a81548160ff02191690836004811115612f5a57612f59614287565b5b0217905550505050565b858073ffffffffffffffffffffffffffffffffffffffff163373ffffffffffffffffffffffffffffffffffffffff1614612fd3576040517f08c379a0000000000000000000000000000000000000000000000000000000008152600401612fca906151a9565b60405180910390fd5b600286612fe09190615a09565b8773ffffffffffffffffffffffffffffffffffffffff16311015613039576040517f08c379a000000000000000000000000000000000000000000000000000000000815260040161303090615aac565b60405180910390fd5b600060056000600654815260200190815260200160002090508581600001908161306391906154a3565b508481600101908161307591906154a3565b5086816002018190555060008160030160146101000a81548160ff021916908360048111156130a7576130a6614287565b5b0217905550428160040181905550838160050181905550878160030160006101000a81548173ffffffffffffffffffffffffffffffffffffffff021916908373ffffffffffffffffffffffffffffffffffffffff1602179055506006548160070181905550828160060181905550600061311f6127e6565b9050600081519050600a811161314d5781836008019080519060200190613147929190613d58565b50613365565b60005b600a811015613363576000803373ffffffffffffffffffffffffffffffffffffffff1673ffffffffffffffffffffffffffffffffffffffff16815260200190815260200160002060060160009054906101000a900473ffffffffffffffffffffffffffffffffffffffff1673ffffffffffffffffffffffffffffffffffffffff1683600183856131e091906158e5565b6131ea91906158e5565b815181106131fb576131fa6156de565b5b602002602001015173ffffffffffffffffffffffffffffffffffffffff16146133505783600801836001838561323191906158e5565b61323b91906158e5565b8151811061324c5761324b6156de565b5b60200260200101519080600181540180825580915050600190039060005260206000200160009091909190916101000a81548173ffffffffffffffffffffffffffffffffffffffff021916908373ffffffffffffffffffffffffffffffffffffffff16021790555060008084600184866132c691906158e5565b6132d091906158e5565b815181106132e1576132e06156de565b5b602002602001015173ffffffffffffffffffffffffffffffffffffffff1673ffffffffffffffffffffffffffffffffffffffff16815260200190815260200160002060090160065490806001815401808255809150506001900390600052602060002001600090919091909150555b808061335b9061570d565b915050613150565b505b6000808b73ffffffffffffffffffffffffffffffffffffffff1673ffffffffffffffffffffffffffffffffffffffff1681526020019081526020016000206007016006549080600181540180825580915050600190039060005260206000200160009091909190915055600660008154809291906133e29061570d565b919050555050505050505050505050565b86868173ffffffffffffffffffffffffffffffffffffffff166005600083815260200190815260200160002060030160009054906101000a900473ffffffffffffffffffffffffffffffffffffffff1673ffffffffffffffffffffffffffffffffffffffff1614613499576040517f08c379a000000000000000000000000000000000000000000000000000000000815260040161349090615859565b60405180910390fd5b60008060008b73ffffffffffffffffffffffffffffffffffffffff1673ffffffffffffffffffffffffffffffffffffffff1681526020019081526020016000206007018054905011613520576040517f08c379a0000000000000000000000000000000000000000000000000000000008152600401613517906156be565b60405180910390fd5b6000600560008a81526020019081526020016000206002015411613579576040517f08c379a0000000000000000000000000000000000000000000000000000000008152600401613570906157c7565b60405180910390fd5b6000600481111561358d5761358c614287565b5b600560008a815260200190815260200160002060030160149054906101000a900460ff1660048111156135c3576135c2614287565b5b14806136165750600360048111156135de576135dd614287565b5b600560008a815260200190815260200160002060030160149054906101000a900460ff16600481111561361457613613614287565b5b145b613655576040517f08c379a000000000000000000000000000000000000000000000000000000000815260040161364c90615b18565b60405180910390fd5b6000600560008a815260200190815260200160002090508781600201819055508681600001908161368691906154a3565b508581600101908161369891906154a3565b5084816005018190555083816006018190555050505050505050505050565b600181815481106136c757600080fd5b906000526020600020016000915054906101000a900473ffffffffffffffffffffffffffffffffffffffff1681565b6000806000905060005b835181101561374b5783818151811061371c5761371b6156de565b5b6020026020010151156137385781806137349061570d565b9250505b80806137439061570d565b915050613700565b506006811061375e576001915050613764565b60009150505b919050565b808073ffffffffffffffffffffffffffffffffffffffff163373ffffffffffffffffffffffffffffffffffffffff16146137d8576040517f08c379a00000000000000000000000000000000000000000000000000000000081526004016137cf906151a9565b60405180910390fd5b81600073ffffffffffffffffffffffffffffffffffffffff166000808373ffffffffffffffffffffffffffffffffffffffff1673ffffffffffffffffffffffffffffffffffffffff16815260200190815260200160002060060160009054906101000a900473ffffffffffffffffffffffffffffffffffffffff1673ffffffffffffffffffffffffffffffffffffffff16036138a9576040517f08c379a00000000000000000000000000000000000000000000000000000000081526004016138a090615215565b60405180910390fd5b6000808473ffffffffffffffffffffffffffffffffffffffff1673ffffffffffffffffffffffffffffffffffffffff168152602001908152602001600020600080820160006138f89190613cae565b6001820160006139089190613cae565b6002820160006139189190613cae565b6003820160006139289190613cae565b600482016000905560058201600090556006820160006101000a81549073ffffffffffffffffffffffffffffffffffffffff021916905560078201600061396f9190613d37565b60088201600090556009820160006139879190613d37565b505060005b600180549050811015613b13573373ffffffffffffffffffffffffffffffffffffffff16600182815481106139c4576139c36156de565b5b9060005260206000200160009054906101000a900473ffffffffffffffffffffffffffffffffffffffff1673ffffffffffffffffffffffffffffffffffffffff1603613b00576001808080549050613a1c91906158e5565b81548110613a2d57613a2c6156de565b5b9060005260206000200160009054906101000a900473ffffffffffffffffffffffffffffffffffffffff1660018281548110613a6c57613a6b6156de565b5b9060005260206000200160006101000a81548173ffffffffffffffffffffffffffffffffffffffff021916908373ffffffffffffffffffffffffffffffffffffffff1602179055506001805480613ac657613ac5615919565b5b6001900381819060005260206000200160006101000a81549073ffffffffffffffffffffffffffffffffffffffff02191690559055613b13565b8080613b0b9061570d565b91505061398c565b50505050565b60056000838152602001908152602001600020600b018190806001815401808255809150506001900390600052602060002001600090919091909150555050565b600260009054906101000a900473ffffffffffffffffffffffffffffffffffffffff1681565b806000808473ffffffffffffffffffffffffffffffffffffffff1673ffffffffffffffffffffffffffffffffffffffff168152602001908152602001600020600401819055505050565b828054828255906000526020600020908101928215613c06579160200282015b82811115613c05578251825591602001919060010190613bea565b5b509050613c139190613de2565b5090565b604051806101c00160405280606081526020016060815260200160008152602001600073ffffffffffffffffffffffffffffffffffffffff16815260200160006004811115613c6957613c68614287565b5b81526020016000815260200160008152602001600081526020016000815260200160608152602001606081526020016060815260200160608152602001600081525090565b508054613cba90615264565b6000825580601f10613ccc5750613ceb565b601f016020900490600052602060002090810190613cea9190613de2565b5b50565b5080546000825590600052602060002090810190613d0c9190613de2565b50565b50805460008255601f016020900490600052602060002090810190613d349190613de2565b50565b5080546000825590600052602060002090810190613d559190613de2565b50565b828054828255906000526020600020908101928215613dd1579160200282015b82811115613dd05782518260006101000a81548173ffffffffffffffffffffffffffffffffffffffff021916908373ffffffffffffffffffffffffffffffffffffffff16021790555091602001919060010190613d78565b5b509050613dde9190613de2565b5090565b5b80821115613dfb576000816000905550600101613de3565b5090565b6000604051905090565b600080fd5b600080fd5b600073ffffffffffffffffffffffffffffffffffffffff82169050919050565b6000613e3e82613e13565b9050919050565b613e4e81613e33565b8114613e5957600080fd5b50565b600081359050613e6b81613e45565b92915050565b600060208284031215613e8757613e86613e09565b5b6000613e9584828501613e5c565b91505092915050565b600081519050919050565b600082825260208201905092915050565b60005b83811015613ed8578082015181840152602081019050613ebd565b60008484015250505050565b6000601f19601f8301169050919050565b6000613f0082613e9e565b613f0a8185613ea9565b9350613f1a818560208601613eba565b613f2381613ee4565b840191505092915050565b613f3781613e33565b82525050565b6000819050919050565b613f5081613f3d565b82525050565b600060c0820190508181036000830152613f708189613ef5565b90508181036020830152613f848188613ef5565b90508181036040830152613f988187613ef5565b9050613fa76060830186613f2e565b613fb46080830185613f47565b81810360a0830152613fc68184613ef5565b9050979650505050505050565b600080fd5b600080fd5b7f4e487b7100000000000000000000000000000000000000000000000000000000600052604160045260246000fd5b61401582613ee4565b810181811067ffffffffffffffff8211171561403457614033613fdd565b5b80604052505050565b6000614047613dff565b9050614053828261400c565b919050565b600067ffffffffffffffff82111561407357614072613fdd565b5b61407c82613ee4565b9050602081019050919050565b82818337600083830152505050565b60006140ab6140a684614058565b61403d565b9050828152602081018484840111156140c7576140c6613fd8565b5b6140d2848285614089565b509392505050565b600082601f8301126140ef576140ee613fd3565b5b81356140ff848260208601614098565b91505092915050565b600080600080600060a0868803121561412457614123613e09565b5b600086013567ffffffffffffffff81111561414257614141613e0e565b5b61414e888289016140da565b955050602086013567ffffffffffffffff81111561416f5761416e613e0e565b5b61417b888289016140da565b945050604086013567ffffffffffffffff81111561419c5761419b613e0e565b5b6141a8888289016140da565b935050606086013567ffffffffffffffff8111156141c9576141c8613e0e565b5b6141d5888289016140da565b92505060806141e688828901613e5c565b9150509295509295909350565b600081519050919050565b600082825260208201905092915050565b6000819050602082019050919050565b600082825260208201905092915050565b600061423b82613e9e565b614245818561421f565b9350614255818560208601613eba565b61425e81613ee4565b840191505092915050565b61427281613f3d565b82525050565b61428181613e33565b82525050565b7f4e487b7100000000000000000000000000000000000000000000000000000000600052602160045260246000fd5b600581106142c7576142c6614287565b5b50565b60008190506142d8826142b6565b919050565b60006142e8826142ca565b9050919050565b6142f8816142dd565b82525050565b600081519050919050565b600082825260208201905092915050565b6000819050602082019050919050565b60006143368383614278565b60208301905092915050565b6000602082019050919050565b600061435a826142fe565b6143648185614309565b935061436f8361431a565b8060005b838110156143a0578151614387888261432a565b975061439283614342565b925050600181019050614373565b5085935050505092915050565b600081519050919050565b600082825260208201905092915050565b6000819050602082019050919050565b60008115159050919050565b6143ee816143d9565b82525050565b600061440083836143e5565b60208301905092915050565b6000602082019050919050565b6000614424826143ad565b61442e81856143b8565b9350614439836143c9565b8060005b8381101561446a57815161445188826143f4565b975061445c8361440c565b92505060018101905061443d565b5085935050505092915050565b600081519050919050565b600082825260208201905092915050565b6000819050602082019050919050565b60006144af8383614269565b60208301905092915050565b6000602082019050919050565b60006144d382614477565b6144dd8185614482565b93506144e883614493565b8060005b8381101561451957815161450088826144a3565b975061450b836144bb565b9250506001810190506144ec565b5085935050505092915050565b60006101c08301600083015184820360008601526145448282614230565b9150506020830151848203602086015261455e8282614230565b91505060408301516145736040860182614269565b5060608301516145866060860182614278565b50608083015161459960808601826142ef565b5060a08301516145ac60a0860182614269565b5060c08301516145bf60c0860182614269565b5060e08301516145d260e0860182614269565b506101008301516145e7610100860182614269565b50610120830151848203610120860152614601828261434f565b91505061014083015184820361014086015261461d8282614419565b91505061016083015184820361016086015261463982826144c8565b91505061018083015184820361018086015261465582826144c8565b9150506101a083015161466c6101a0860182614269565b508091505092915050565b60006146838383614526565b905092915050565b6000602082019050919050565b60006146a3826141f3565b6146ad81856141fe565b9350836020820285016146bf8561420f565b8060005b858110156146fb57848403895281516146dc8582614677565b94506146e78361468b565b925060208a019950506001810190506146c3565b50829750879550505050505092915050565b600060208201905081810360008301526147278184614698565b905092915050565b61473881613f3d565b811461474357600080fd5b50565b6000813590506147558161472f565b92915050565b60006020828403121561477157614770613e09565b5b600061477f84828501614746565b91505092915050565b600060208201905061479d6000830184613f47565b92915050565b6000819050919050565b60006147c86147c36147be84613e13565b6147a3565b613e13565b9050919050565b60006147da826147ad565b9050919050565b60006147ec826147cf565b9050919050565b6147fc816147e1565b82525050565b600060208201905061481760008301846147f3565b92915050565b614826816142dd565b82525050565b6000602082019050614841600083018461481d565b92915050565b600060408201905081810360008301526148618185614698565b90506148706020830184613f47565b9392505050565b600082825260208201905092915050565b600061489382614477565b61489d8185614877565b93506148a883614493565b8060005b838110156148d95781516148c088826144a3565b97506148cb836144bb565b9250506001810190506148ac565b5085935050505092915050565b600060208201905081810360008301526149008184614888565b905092915050565b6000610140820190508181036000830152614923818d613ef5565b90508181036020830152614937818c613ef5565b9050614946604083018b613f47565b614953606083018a613f2e565b614960608083018961481d565b61496d60a0830188613f47565b61497a60c0830187613f47565b61498760e0830186613f47565b614995610100830185613f47565b6149a3610120830184613f47565b9b9a5050505050505050505050565b60006101008201905081810360008301526149cd818b613ef5565b905081810360208301526149e1818a613ef5565b905081810360408301526149f58189613ef5565b90508181036060830152614a098188613ef5565b9050614a186080830187613f47565b614a2560a0830186613f47565b614a3260c0830185613f2e565b614a3f60e0830184613f47565b9998505050505050505050565b60006101c0830160008301518482036000860152614a6a8282614230565b91505060208301518482036020860152614a848282614230565b9150506040830151614a996040860182614269565b506060830151614aac6060860182614278565b506080830151614abf60808601826142ef565b5060a0830151614ad260a0860182614269565b5060c0830151614ae560c0860182614269565b5060e0830151614af860e0860182614269565b50610100830151614b0d610100860182614269565b50610120830151848203610120860152614b27828261434f565b915050610140830151848203610140860152614b438282614419565b915050610160830151848203610160860152614b5f82826144c8565b915050610180830151848203610180860152614b7b82826144c8565b9150506101a0830151614b926101a0860182614269565b508091505092915050565b60006020820190508181036000830152614bb78184614a4c565b905092915050565b60008060408385031215614bd657614bd5613e09565b5b6000614be485828601613e5c565b9250506020614bf585828601614746565b9150509250929050565b600082825260208201905092915050565b6000614c1b826142fe565b614c258185614bff565b9350614c308361431a565b8060005b83811015614c61578151614c48888261432a565b9750614c5383614342565b925050600181019050614c34565b5085935050505092915050565b60006020820190508181036000830152614c888184614c10565b905092915050565b60008060408385031215614ca757614ca6613e09565b5b6000614cb585828601614746565b9250506020614cc685828601614746565b9150509250929050565b600080600060608486031215614ce957614ce8613e09565b5b600084013567ffffffffffffffff811115614d0757614d06613e0e565b5b614d13868287016140da565b935050602084013567ffffffffffffffff811115614d3457614d33613e0e565b5b614d40868287016140da565b9250506040614d5186828701613e5c565b9150509250925092565b6000602082019050614d706000830184613f2e565b92915050565b6000614d81826147cf565b9050919050565b614d9181614d76565b82525050565b6000602082019050614dac6000830184614d88565b92915050565b614dbb816143d9565b8114614dc657600080fd5b50565b600081359050614dd881614db2565b92915050565b60008060408385031215614df557614df4613e09565b5b6000614e0385828601614746565b9250506020614e1485828601614dc9565b9150509250929050565b60058110614e2b57600080fd5b50565b600081359050614e3d81614e1e565b92915050565b60008060408385031215614e5a57614e59613e09565b5b6000614e6885828601614746565b9250506020614e7985828601614e2e565b9150509250929050565b60008060008060008060c08789031215614ea057614e9f613e09565b5b6000614eae89828a01613e5c565b9650506020614ebf89828a01614746565b955050604087013567ffffffffffffffff811115614ee057614edf613e0e565b5b614eec89828a016140da565b945050606087013567ffffffffffffffff811115614f0d57614f0c613e0e565b5b614f1989828a016140da565b9350506080614f2a89828a01614746565b92505060a0614f3b89828a01614746565b9150509295509295509295565b600080600080600080600060e0888a031215614f6757614f66613e09565b5b6000614f758a828b01613e5c565b9750506020614f868a828b01614746565b9650506040614f978a828b01614746565b955050606088013567ffffffffffffffff811115614fb857614fb7613e0e565b5b614fc48a828b016140da565b945050608088013567ffffffffffffffff811115614fe557614fe4613e0e565b5b614ff18a828b016140da565b93505060a06150028a828b01614746565b92505060c06150138a828b01614746565b91505092959891949750929550565b600067ffffffffffffffff82111561503d5761503c613fdd565b5b602082029050602081019050919050565b600080fd5b600061506661506184615022565b61403d565b905080838252602082019050602084028301858111156150895761508861504e565b5b835b818110156150b2578061509e8882614dc9565b84526020840193505060208101905061508b565b5050509392505050565b600082601f8301126150d1576150d0613fd3565b5b81356150e1848260208601615053565b91505092915050565b600060208284031215615100576150ff613e09565b5b600082013567ffffffffffffffff81111561511e5761511d613e0e565b5b61512a848285016150bc565b91505092915050565b61513c816143d9565b82525050565b60006020820190506151576000830184615133565b92915050565b7f43616c6c6572206973206e6f74206f776e657200000000000000000000000000600082015250565b6000615193601383613ea9565b915061519e8261515d565b602082019050919050565b600060208201905081810360008301526151c281615186565b9050919050565b7f506172747920646f6573206e6f74206578697374000000000000000000000000600082015250565b60006151ff601483613ea9565b915061520a826151c9565b602082019050919050565b6000602082019050818103600083015261522e816151f2565b9050919050565b7f4e487b7100000000000000000000000000000000000000000000000000000000600052602260045260246000fd5b6000600282049050600182168061527c57607f821691505b60208210810361528f5761528e615235565b5b50919050565b7f506172747920616c726561647920657869737473000000000000000000000000600082015250565b60006152cb601483613ea9565b91506152d682615295565b602082019050919050565b600060208201905081810360008301526152fa816152be565b9050919050565b60008190508160005260206000209050919050565b60006020601f8301049050919050565b600082821b905092915050565b6000600883026153637fffffffffffffffffffffffffffffffffffffffffffffffffffffffffffffffff82615326565b61536d8683615326565b95508019841693508086168417925050509392505050565b60006153a061539b61539684613f3d565b6147a3565b613f3d565b9050919050565b6000819050919050565b6153ba83615385565b6153ce6153c6826153a7565b848454615333565b825550505050565b600090565b6153e36153d6565b6153ee8184846153b1565b505050565b5b81811015615412576154076000826153db565b6001810190506153f4565b5050565b601f8211156154575761542881615301565b61543184615316565b81016020851015615440578190505b61545461544c85615316565b8301826153f3565b50505b505050565b600082821c905092915050565b600061547a6000198460080261545c565b1980831691505092915050565b60006154938383615469565b9150826002028217905092915050565b6154ac82613e9e565b67ffffffffffffffff8111156154c5576154c4613fdd565b5b6154cf8254615264565b6154da828285615416565b600060209050601f83116001811461550d57600084156154fb578287015190505b6155058582615487565b86555061556d565b601f19841661551b86615301565b60005b828110156155435784890151825560018201915060208501945060208101905061551e565b86831015615560578489015161555c601f891682615469565b8355505b6001600288020188555050505b505050505050565b7f4e487b7100000000000000000000000000000000000000000000000000000000600052601160045260246000fd5b60006155af82613f3d565b91506155ba83613f3d565b92508282026155c881613f3d565b915082820484148315176155df576155de615575565b5b5092915050565b60006155f1826147cf565b9050919050565b615601816155e6565b82525050565b600060408201905061561c60008301856155f8565b6156296020830184613f47565b9392505050565b60008151905061563f81614db2565b92915050565b60006020828403121561565b5761565a613e09565b5b600061566984828501615630565b91505092915050565b7f4e6f2074656e6465727320657869737473000000000000000000000000000000600082015250565b60006156a8601183613ea9565b91506156b382615672565b602082019050919050565b600060208201905081810360008301526156d78161569b565b9050919050565b7f4e487b7100000000000000000000000000000000000000000000000000000000600052603260045260246000fd5b600061571882613f3d565b91507fffffffffffffffffffffffffffffffffffffffffffffffffffffffffffffffff820361574a57615749615575565b5b600182019050919050565b7f74656e6465722077697468206164647265737320646f65736e2774206578697360008201527f7473000000000000000000000000000000000000000000000000000000000000602082015250565b60006157b1602283613ea9565b91506157bc82615755565b604082019050919050565b600060208201905081810360008301526157e0816157a4565b9050919050565b7f796f75277265206e6f7420617574686f72697a656420746f20706572666f726d60008201527f207468697320616374696f6e0000000000000000000000000000000000000000602082015250565b6000615843602c83613ea9565b915061584e826157e7565b604082019050919050565b6000602082019050818103600083015261587281615836565b9050919050565b7f74656e6465722063616e6e6f742062652064656c657465640000000000000000600082015250565b60006158af601883613ea9565b91506158ba82615879565b602082019050919050565b600060208201905081810360008301526158de816158a2565b9050919050565b60006158f082613f3d565b91506158fb83613f3d565b925082820390508181111561591357615912615575565b5b92915050565b7f4e487b7100000000000000000000000000000000000000000000000000000000600052603160045260246000fd5b7f596f75277265206e6f7420617574686f72697a656420746f2076616c6964617460008201527f6520746869732074656e6465722e000000000000000000000000000000000000602082015250565b60006159a4602e83613ea9565b91506159af82615948565b604082019050919050565b600060208201905081810360008301526159d381615997565b9050919050565b7f4e487b7100000000000000000000000000000000000000000000000000000000600052601260045260246000fd5b6000615a1482613f3d565b9150615a1f83613f3d565b925082615a2f57615a2e6159da565b5b828204905092915050565b7f696e73756666696369656e742066756e647320746f206372656174652061207460008201527f656e646572000000000000000000000000000000000000000000000000000000602082015250565b6000615a96602583613ea9565b9150615aa182615a3a565b604082019050919050565b60006020820190508181036000830152615ac581615a89565b9050919050565b7f74656e6465722063616e6e6f7420626520757064617465640000000000000000600082015250565b6000615b02601883613ea9565b9150615b0d82615acc565b602082019050919050565b60006020820190508181036000830152615b3181615af5565b905091905056fea2646970667358221220d02b8e577785d14a6b5fee9f4d980aecff1ac13eed5793ddeddf04cb7e217dd664736f6c63430008130033",
  "immutableReferences": {},
  "source": "// SPDX-License-Identifier: UNLICENSED\r\n\r\n//the version of solidity that is compatible\r\nimport \"./PartyContract.sol\";\r\nenum TenderStatus{ NEW, OPEN, CLOSED, SUSPENDED, ASSIGNED } //created---OPEN, deadline crosses---CLOSED, project is assigned ---- ASSIGNED\r\n\r\npragma solidity ^0.8.0;\r\ncontract TenderContract is PartyContract(Token(address(this))) {\r\n    // Tender Structure\r\n    struct Tender {\r\n        string title;\r\n        string description;\r\n        uint256 budget;\r\n        address issuerAddress;\r\n        TenderStatus tenderStatus; \r\n        uint256 createdAt;\r\n        uint256 deadline;\r\n        uint256 totalMilestones;\r\n        uint256 tenderId;\r\n        address[] validatorsAddresses;\r\n        bool[] validationVotes;\r\n        uint256[] milestoneTimePeriods;\r\n        uint256[] bidIds;\r\n        uint256 balance;\r\n    }\r\n\r\n    PartyContract public partyRef;\r\n\r\n    constructor(PartyContract _partyRef){\r\n        partyRef = _partyRef;\r\n    }\r\n\r\n    mapping (uint256 => Tender) public tenders;\r\n    uint256 tenderCount = 0;\r\n\r\n    //setters and getter functions\r\n    function getTenderCount() public view returns(uint256){\r\n        return tenderCount;\r\n    }\r\n\r\n    function getBudget(uint256 _tenderId) public view returns(uint256){\r\n        return tenders[_tenderId].budget;\r\n    }\r\n\r\n    function getTenderStatus(uint256 _tenderId) public view returns(TenderStatus){\r\n        return tenders[_tenderId].tenderStatus;\r\n    }\r\n\r\n    function getDeadline(uint256 _tenderId) public view returns(uint256){\r\n            return tenders[_tenderId].deadline;\r\n    }\r\n\r\n    function getBidIds(uint256 _tenderId) public view returns(uint256[] memory){\r\n        return tenders[_tenderId].bidIds;\r\n    }\r\n\r\n    function getIssuerAddress(uint256 _tenderId) public view returns(address){\r\n        return tenders[_tenderId].issuerAddress;\r\n    }\r\n\r\n    function addBidId(uint256 _tenderId, uint256 bidId) public {\r\n        tenders[_tenderId].bidIds.push(bidId);\r\n    }\r\n\r\n    function deleteBidId(uint256 _tenderId, uint256 _bidId) public {\r\n        uint256[] storage tenderBidIds = tenders[_tenderId].bidIds;\r\n        for (uint i = 0; i < tenderBidIds.length; i++){\r\n            if(tenderBidIds[i] == _bidId){\r\n                tenderBidIds[i] = tenderBidIds[tenderBidIds.length - 1];\r\n                delete tenderBidIds[tenderBidIds.length - 1];\r\n                break;\r\n            }\r\n        }\r\n    }\r\n\r\n    // modifier isOwner(address owner) {\r\n    //     require(msg.sender == owner, \"Caller is not owner\");\r\n    //     _;\r\n    // }\r\n\r\n    // Function for creating a tender\r\n    function createTender(address _partyAddress, uint256 _budget, string memory _title, string memory _description, uint256 _deadline, uint256 _totalMilestones) isOwner(_partyAddress) public {\r\n        require(_partyAddress.balance >= _budget/2, \"insufficient funds to create a tender\");\r\n        Tender storage newTender = tenders[tenderCount];\r\n        newTender.title = _title;\r\n        newTender.description = _description;\r\n        newTender.budget = _budget;\r\n        newTender.tenderStatus = TenderStatus.NEW;\r\n        newTender.createdAt = block.timestamp;\r\n        newTender.deadline = _deadline;\r\n        newTender.issuerAddress = _partyAddress;\r\n        newTender.tenderId = tenderCount;\r\n        newTender.totalMilestones = _totalMilestones;\r\n        address[] memory sortedlist = sortByTrustScore();\r\n        uint len = sortedlist.length;\r\n        if(len<=10)\r\n        {\r\n            newTender.validatorsAddresses = sortedlist;\r\n        }\r\n        else\r\n        {\r\n            for(uint i=0; i<10; i++)\r\n            {\r\n                if(sortedlist[len-i-1] != parties[msg.sender].partyAddress)\r\n                {\r\n                    newTender.validatorsAddresses.push(sortedlist[len-i-1]);\r\n                    parties[sortedlist[len-i-1]].tenderIdsToValidate.push(tenderCount);\r\n                }\r\n            }\r\n        }\r\n        parties[_partyAddress].tenderIds.push(tenderCount);\r\n        tenderCount++;\r\n    }\r\n\r\n    function sortByTrustScore() public view returns(address[] memory) {\r\n    address[] memory _party = partyAddresses;\r\n    for (uint i = 1; i < partyAddresses.length; i++)\r\n        for (uint j = 0; j < i; j++)\r\n            if (parties[_party[i]].trustScore < parties[_party[j]].trustScore) {\r\n                address x = _party[i];\r\n                _party[i] = _party[j];\r\n                _party[j] = x;\r\n            }\r\n\r\n    return _party;\r\n    }\r\n\r\n    function validate(uint256 _tenderId, bool _vote) public {\r\n        bool valid = false;\r\n        Tender storage newTender = tenders[_tenderId];\r\n        uint len = newTender.validatorsAddresses.length;\r\n        for(uint i=0; i<len; i++)\r\n        {\r\n            if(newTender.validatorsAddresses[i] == msg.sender)\r\n            {\r\n                valid = true;\r\n                break;\r\n            }\r\n        }\r\n        if(valid)\r\n        {\r\n            newTender.validationVotes.push(_vote);\r\n            if(_vote) {\r\n                //deduct token from party account and add it to tender account\r\n            }\r\n        }\r\n        else\r\n        {\r\n            revert(\"You're not authorized to validate this tender.\");\r\n        }\r\n    }\r\n\r\n    function checkTenderValidation(uint256 _tenderId) public {\r\n        Tender storage newTender = tenders[_tenderId];\r\n        if(isValid(newTender.validationVotes)) {\r\n            updateTenderStatus(_tenderId, TenderStatus.OPEN);\r\n        }\r\n    }\r\n    \r\n    function isValid(bool[] memory _validationVotes) public pure returns (bool) {\r\n        uint voteCount = 0;\r\n        for(uint i=0; i<_validationVotes.length; i++)\r\n        {\r\n            if(_validationVotes[i])\r\n            {\r\n                voteCount++;\r\n            }\r\n        }\r\n\r\n        if(voteCount>=6)\r\n        {\r\n            return true;\r\n        }\r\n        return false;\r\n    }\r\n\r\n    function getAllActiveTenders() public view returns (Tender[] memory, uint256){\r\n        require(tenderCount > 0, \"No tenders exists\");\r\n        uint256 count=0;\r\n        Tender[] memory tendersList = new Tender[](tenderCount);\r\n        for (uint256 i = 0; i < tenderCount; i++) {\r\n            if(tenders[i].tenderStatus == TenderStatus.OPEN){\r\n                 tendersList[i] = tenders[i];\r\n                 count++;\r\n            }\r\n        }\r\n        return(tendersList, count);\r\n    }\r\n\r\n    function getMyTenders(address _partyAddress) public view returns ( Tender[] memory){\r\n        require(parties[_partyAddress].tenderIds.length > 0, \"No tenders exists\");\r\n        uint256[] memory partyTenderIds = parties[_partyAddress].tenderIds;\r\n        Tender[] memory tendersList = new Tender[](partyTenderIds.length);\r\n        for (uint256 i = 0; i < partyTenderIds.length; i++) {\r\n            tendersList[i] = tenders[partyTenderIds[i]];\r\n        }\r\n        return(tendersList);\r\n    }\r\n\r\n    function getTenderDetails(uint256 _tenderId) public view returns ( Tender memory){\r\n        require(tenders[_tenderId].budget > 0 , \"tender with address doesn't exists\");\r\n        return(tenders[_tenderId]);\r\n    }\r\n\r\n    function updateTenderStatus(uint256 _tenderId, TenderStatus _tenderStatus) public {\r\n        Tender storage updatedTender = tenders[_tenderId];\r\n        updatedTender.tenderStatus = _tenderStatus;\r\n    }\r\n\r\n    function updateTender(address _partyAddress, uint256 _tenderId, uint256 _budget, string memory _title, string memory _description, uint256 _deadline, uint256 _totalMilestones) public isTenderOwner(_partyAddress, _tenderId){\r\n        require(parties[_partyAddress].tenderIds.length > 0, \"No tenders exists\");\r\n        require(tenders[_tenderId].budget > 0 , \"tender with address doesn't exists\");\r\n        require(tenders[_tenderId].tenderStatus == TenderStatus.NEW ||\r\n                tenders[_tenderId].tenderStatus == TenderStatus.SUSPENDED , \"tender cannot be updated\");\r\n        Tender storage updatedTender = tenders[_tenderId];\r\n        updatedTender.budget = _budget;\r\n        updatedTender.title = _title;\r\n        updatedTender.description = _description;\r\n        updatedTender.deadline = _deadline;\r\n        updatedTender.totalMilestones = _totalMilestones;\r\n    }\r\n\r\n    function deleteTender(address _partyAddress, uint256 _tenderId) public isTenderOwner(_partyAddress, _tenderId){ \r\n        require(parties[_partyAddress].tenderIds.length > 0, \"No tenders exists\");\r\n        require(tenders[_tenderId].budget > 0 , \"tender with address doesn't exists\");\r\n        require(tenders[_tenderId].tenderStatus != TenderStatus.NEW, \"tender cannot be deleted\");\r\n        uint256[] storage _tenderIds = parties[_partyAddress].tenderIds;\r\n        for (uint i = 0; i < _tenderIds.length; i++){\r\n            if(_tenderIds[i] == _tenderId){\r\n                delete tenders[_tenderId];\r\n                _tenderIds[i] = _tenderIds[_tenderIds.length - 1];\r\n                _tenderIds.pop();\r\n                break;\r\n            }\r\n        }\r\n    }\r\n\r\n    // @todo - add modifer for above functions\r\n\r\n    modifier isTenderOwner(address _partyAddress, uint256 _tenderId) {\r\n        require(tenders[_tenderId].issuerAddress == _partyAddress, \"you're not authorized to perform this action\");\r\n        _;\r\n    }\r\n\r\n    \r\n}\r\n",
  "sourcePath": "C:\\Users\\sabba\\OneDrive\\Documents\\BlockchainProject\\blockchain-based-contracting-system\\contracts\\TenderContract.sol",
  "compiler": {
    "name": "solc",
    "version": "0.8.19+commit.7dd6d404.Emscripten.clang"
  },
  "schemaVersion": "3.4.13",
  "updatedAt": "2023-04-14T19:43:32.305Z",
  "devdoc": {
    "kind": "dev",
    "methods": {},
    "version": 1
  },
  "userdoc": {
    "kind": "user",
    "methods": {},
    "version": 1
  }
}