{
  "contractName": "TenderContract",
  "abi": [
    {
      "inputs": [],
      "name": "admin",
      "outputs": [
        {
          "internalType": "address",
          "name": "",
          "type": "address"
        }
      ],
      "stateMutability": "view",
      "type": "function",
      "constant": true
    },
    {
      "inputs": [
        {
          "internalType": "string",
          "name": "_name",
          "type": "string"
        },
        {
          "internalType": "string",
          "name": "_contactNumber",
          "type": "string"
        },
        {
          "internalType": "string",
          "name": "_email",
          "type": "string"
        },
        {
          "internalType": "string",
          "name": "_password",
          "type": "string"
        },
        {
          "internalType": "address",
          "name": "_partyAddress",
          "type": "address"
        }
      ],
      "name": "createParty",
      "outputs": [],
      "stateMutability": "nonpayable",
      "type": "function"
    },
    {
      "inputs": [
        {
          "internalType": "address",
          "name": "_partyAddress",
          "type": "address"
        }
      ],
      "name": "deleteParty",
      "outputs": [],
      "stateMutability": "nonpayable",
      "type": "function"
    },
    {
      "inputs": [
        {
          "internalType": "address",
          "name": "_partyAddress",
          "type": "address"
        }
      ],
      "name": "getPartyDetails",
      "outputs": [
        {
          "internalType": "string",
          "name": "",
          "type": "string"
        },
        {
          "internalType": "string",
          "name": "",
          "type": "string"
        },
        {
          "internalType": "string",
          "name": "",
          "type": "string"
        },
        {
          "internalType": "address",
          "name": "",
          "type": "address"
        },
        {
          "internalType": "uint256",
          "name": "",
          "type": "uint256"
        },
        {
          "internalType": "string",
          "name": "",
          "type": "string"
        }
      ],
      "stateMutability": "view",
      "type": "function",
      "constant": true
    },
    {
      "inputs": [
        {
          "internalType": "address",
          "name": "",
          "type": "address"
        }
      ],
      "name": "parties",
      "outputs": [
        {
          "internalType": "string",
          "name": "name",
          "type": "string"
        },
        {
          "internalType": "string",
          "name": "contactNumber",
          "type": "string"
        },
        {
          "internalType": "string",
          "name": "email",
          "type": "string"
        },
        {
          "internalType": "string",
          "name": "password",
          "type": "string"
        },
        {
          "internalType": "uint256",
          "name": "trustScore",
          "type": "uint256"
        },
        {
          "internalType": "uint256",
          "name": "createdAt",
          "type": "uint256"
        },
        {
          "internalType": "address",
          "name": "partyAddress",
          "type": "address"
        }
      ],
      "stateMutability": "view",
      "type": "function",
      "constant": true
    },
    {
      "inputs": [
        {
          "internalType": "uint256",
          "name": "",
          "type": "uint256"
        }
      ],
      "name": "partyAddresses",
      "outputs": [
        {
          "internalType": "address",
          "name": "",
          "type": "address"
        }
      ],
      "stateMutability": "view",
      "type": "function",
      "constant": true
    },
    {
      "inputs": [
        {
          "internalType": "uint256",
          "name": "",
          "type": "uint256"
        }
      ],
      "name": "tenders",
      "outputs": [
        {
          "internalType": "string",
          "name": "title",
          "type": "string"
        },
        {
          "internalType": "string",
          "name": "description",
          "type": "string"
        },
        {
          "internalType": "uint256",
          "name": "budget",
          "type": "uint256"
        },
        {
          "internalType": "address",
          "name": "issuerAddress",
          "type": "address"
        },
        {
          "internalType": "enum TenderStatus",
          "name": "tenderStatus",
          "type": "uint8"
        },
        {
          "internalType": "uint256",
          "name": "createdAt",
          "type": "uint256"
        },
        {
          "internalType": "uint256",
          "name": "deadline",
          "type": "uint256"
        },
        {
          "internalType": "uint256",
          "name": "totalMilestones",
          "type": "uint256"
        },
        {
          "internalType": "uint256",
          "name": "tenderId",
          "type": "uint256"
        }
      ],
      "stateMutability": "view",
      "type": "function",
      "constant": true
    },
    {
      "inputs": [
        {
          "internalType": "string",
          "name": "_name",
          "type": "string"
        },
        {
          "internalType": "string",
          "name": "_password",
          "type": "string"
        },
        {
          "internalType": "address",
          "name": "_partyAddress",
          "type": "address"
        }
      ],
      "name": "updateParty",
      "outputs": [],
      "stateMutability": "nonpayable",
      "type": "function"
    },
    {
      "inputs": [],
      "name": "getTenderCount",
      "outputs": [
        {
          "internalType": "uint256",
          "name": "",
          "type": "uint256"
        }
      ],
      "stateMutability": "view",
      "type": "function",
      "constant": true
    },
    {
      "inputs": [
        {
          "internalType": "uint256",
          "name": "_tenderId",
          "type": "uint256"
        }
      ],
      "name": "getBudget",
      "outputs": [
        {
          "internalType": "uint256",
          "name": "",
          "type": "uint256"
        }
      ],
      "stateMutability": "view",
      "type": "function",
      "constant": true
    },
    {
      "inputs": [
        {
          "internalType": "uint256",
          "name": "_tenderId",
          "type": "uint256"
        }
      ],
      "name": "getTenderStatus",
      "outputs": [
        {
          "internalType": "enum TenderStatus",
          "name": "",
          "type": "uint8"
        }
      ],
      "stateMutability": "view",
      "type": "function",
      "constant": true
    },
    {
      "inputs": [
        {
          "internalType": "uint256",
          "name": "_tenderId",
          "type": "uint256"
        }
      ],
      "name": "getDeadline",
      "outputs": [
        {
          "internalType": "uint256",
          "name": "",
          "type": "uint256"
        }
      ],
      "stateMutability": "view",
      "type": "function",
      "constant": true
    },
    {
      "inputs": [
        {
          "internalType": "uint256",
          "name": "_tenderId",
          "type": "uint256"
        }
      ],
      "name": "getBidIds",
      "outputs": [
        {
          "internalType": "uint256[]",
          "name": "",
          "type": "uint256[]"
        }
      ],
      "stateMutability": "view",
      "type": "function",
      "constant": true
    },
    {
      "inputs": [
        {
          "internalType": "uint256",
          "name": "_tenderId",
          "type": "uint256"
        }
      ],
      "name": "getIssuerAddress",
      "outputs": [
        {
          "internalType": "address",
          "name": "",
          "type": "address"
        }
      ],
      "stateMutability": "view",
      "type": "function",
      "constant": true
    },
    {
      "inputs": [
        {
          "internalType": "uint256",
          "name": "_tenderId",
          "type": "uint256"
        },
        {
          "internalType": "uint256",
          "name": "bidId",
          "type": "uint256"
        }
      ],
      "name": "addBidId",
      "outputs": [],
      "stateMutability": "nonpayable",
      "type": "function"
    },
    {
      "inputs": [
        {
          "internalType": "uint256",
          "name": "_tenderId",
          "type": "uint256"
        },
        {
          "internalType": "uint256",
          "name": "_bidId",
          "type": "uint256"
        }
      ],
      "name": "deleteBidId",
      "outputs": [],
      "stateMutability": "nonpayable",
      "type": "function"
    },
    {
      "inputs": [
        {
          "internalType": "address",
          "name": "_partyAddress",
          "type": "address"
        },
        {
          "internalType": "uint256",
          "name": "_budget",
          "type": "uint256"
        },
        {
          "internalType": "string",
          "name": "_title",
          "type": "string"
        },
        {
          "internalType": "string",
          "name": "_description",
          "type": "string"
        },
        {
          "internalType": "uint256",
          "name": "_deadline",
          "type": "uint256"
        },
        {
          "internalType": "uint256",
          "name": "_totalMilestones",
          "type": "uint256"
        }
      ],
      "name": "createTender",
      "outputs": [],
      "stateMutability": "nonpayable",
      "type": "function"
    },
    {
      "inputs": [],
      "name": "sortByTrustScore",
      "outputs": [
        {
          "internalType": "address[]",
          "name": "",
          "type": "address[]"
        }
      ],
      "stateMutability": "view",
      "type": "function",
      "constant": true
    },
    {
      "inputs": [
        {
          "internalType": "uint256",
          "name": "_tenderId",
          "type": "uint256"
        },
        {
          "internalType": "bool",
          "name": "_vote",
          "type": "bool"
        }
      ],
      "name": "validate",
      "outputs": [],
      "stateMutability": "nonpayable",
      "type": "function"
    },
    {
      "inputs": [
        {
          "internalType": "uint256",
          "name": "_tenderId",
          "type": "uint256"
        }
      ],
      "name": "checkTenderValidation",
      "outputs": [],
      "stateMutability": "nonpayable",
      "type": "function"
    },
    {
      "inputs": [
        {
          "internalType": "bool[]",
          "name": "_validationVotes",
          "type": "bool[]"
        }
      ],
      "name": "isValid",
      "outputs": [
        {
          "internalType": "bool",
          "name": "",
          "type": "bool"
        }
      ],
      "stateMutability": "pure",
      "type": "function",
      "constant": true
    },
    {
      "inputs": [],
      "name": "getAllActiveTenders",
      "outputs": [
        {
          "components": [
            {
              "internalType": "string",
              "name": "title",
              "type": "string"
            },
            {
              "internalType": "string",
              "name": "description",
              "type": "string"
            },
            {
              "internalType": "uint256",
              "name": "budget",
              "type": "uint256"
            },
            {
              "internalType": "address",
              "name": "issuerAddress",
              "type": "address"
            },
            {
              "internalType": "enum TenderStatus",
              "name": "tenderStatus",
              "type": "uint8"
            },
            {
              "internalType": "uint256",
              "name": "createdAt",
              "type": "uint256"
            },
            {
              "internalType": "uint256",
              "name": "deadline",
              "type": "uint256"
            },
            {
              "internalType": "uint256",
              "name": "totalMilestones",
              "type": "uint256"
            },
            {
              "internalType": "uint256",
              "name": "tenderId",
              "type": "uint256"
            },
            {
              "internalType": "address[]",
              "name": "validatorsAddresses",
              "type": "address[]"
            },
            {
              "internalType": "bool[]",
              "name": "validationVotes",
              "type": "bool[]"
            },
            {
              "internalType": "uint256[]",
              "name": "milestoneTimePeriods",
              "type": "uint256[]"
            },
            {
              "internalType": "uint256[]",
              "name": "bidIds",
              "type": "uint256[]"
            }
          ],
          "internalType": "struct TenderContract.Tender[]",
          "name": "",
          "type": "tuple[]"
        }
      ],
      "stateMutability": "view",
      "type": "function",
      "constant": true
    },
    {
      "inputs": [
        {
          "internalType": "address",
          "name": "_partyAddress",
          "type": "address"
        }
      ],
      "name": "getMyTenders",
      "outputs": [
        {
          "components": [
            {
              "internalType": "string",
              "name": "title",
              "type": "string"
            },
            {
              "internalType": "string",
              "name": "description",
              "type": "string"
            },
            {
              "internalType": "uint256",
              "name": "budget",
              "type": "uint256"
            },
            {
              "internalType": "address",
              "name": "issuerAddress",
              "type": "address"
            },
            {
              "internalType": "enum TenderStatus",
              "name": "tenderStatus",
              "type": "uint8"
            },
            {
              "internalType": "uint256",
              "name": "createdAt",
              "type": "uint256"
            },
            {
              "internalType": "uint256",
              "name": "deadline",
              "type": "uint256"
            },
            {
              "internalType": "uint256",
              "name": "totalMilestones",
              "type": "uint256"
            },
            {
              "internalType": "uint256",
              "name": "tenderId",
              "type": "uint256"
            },
            {
              "internalType": "address[]",
              "name": "validatorsAddresses",
              "type": "address[]"
            },
            {
              "internalType": "bool[]",
              "name": "validationVotes",
              "type": "bool[]"
            },
            {
              "internalType": "uint256[]",
              "name": "milestoneTimePeriods",
              "type": "uint256[]"
            },
            {
              "internalType": "uint256[]",
              "name": "bidIds",
              "type": "uint256[]"
            }
          ],
          "internalType": "struct TenderContract.Tender[]",
          "name": "",
          "type": "tuple[]"
        }
      ],
      "stateMutability": "view",
      "type": "function",
      "constant": true
    },
    {
      "inputs": [
        {
          "internalType": "uint256",
          "name": "_tenderId",
          "type": "uint256"
        }
      ],
      "name": "getTenderDetails",
      "outputs": [
        {
          "components": [
            {
              "internalType": "string",
              "name": "title",
              "type": "string"
            },
            {
              "internalType": "string",
              "name": "description",
              "type": "string"
            },
            {
              "internalType": "uint256",
              "name": "budget",
              "type": "uint256"
            },
            {
              "internalType": "address",
              "name": "issuerAddress",
              "type": "address"
            },
            {
              "internalType": "enum TenderStatus",
              "name": "tenderStatus",
              "type": "uint8"
            },
            {
              "internalType": "uint256",
              "name": "createdAt",
              "type": "uint256"
            },
            {
              "internalType": "uint256",
              "name": "deadline",
              "type": "uint256"
            },
            {
              "internalType": "uint256",
              "name": "totalMilestones",
              "type": "uint256"
            },
            {
              "internalType": "uint256",
              "name": "tenderId",
              "type": "uint256"
            },
            {
              "internalType": "address[]",
              "name": "validatorsAddresses",
              "type": "address[]"
            },
            {
              "internalType": "bool[]",
              "name": "validationVotes",
              "type": "bool[]"
            },
            {
              "internalType": "uint256[]",
              "name": "milestoneTimePeriods",
              "type": "uint256[]"
            },
            {
              "internalType": "uint256[]",
              "name": "bidIds",
              "type": "uint256[]"
            }
          ],
          "internalType": "struct TenderContract.Tender",
          "name": "",
          "type": "tuple"
        }
      ],
      "stateMutability": "view",
      "type": "function",
      "constant": true
    },
    {
      "inputs": [
        {
          "internalType": "uint256",
          "name": "_tenderId",
          "type": "uint256"
        },
        {
          "internalType": "enum TenderStatus",
          "name": "_tenderStatus",
          "type": "uint8"
        }
      ],
      "name": "updateTenderStatus",
      "outputs": [],
      "stateMutability": "nonpayable",
      "type": "function"
    },
    {
      "inputs": [
        {
          "internalType": "address",
          "name": "_partyAddress",
          "type": "address"
        },
        {
          "internalType": "uint256",
          "name": "_tenderId",
          "type": "uint256"
        },
        {
          "internalType": "uint256",
          "name": "_budget",
          "type": "uint256"
        },
        {
          "internalType": "string",
          "name": "_title",
          "type": "string"
        },
        {
          "internalType": "string",
          "name": "_description",
          "type": "string"
        },
        {
          "internalType": "uint256",
          "name": "_deadline",
          "type": "uint256"
        },
        {
          "internalType": "uint256",
          "name": "_totalMilestones",
          "type": "uint256"
        }
      ],
      "name": "updateTender",
      "outputs": [],
      "stateMutability": "nonpayable",
      "type": "function"
    },
    {
      "inputs": [
        {
          "internalType": "address",
          "name": "_partyAddress",
          "type": "address"
        },
        {
          "internalType": "uint256",
          "name": "_tenderId",
          "type": "uint256"
        }
      ],
      "name": "deleteTender",
      "outputs": [],
      "stateMutability": "nonpayable",
      "type": "function"
    }
  ],
  "bytecode": "0x6080604052600060045534801561001557600080fd5b5061561880620000266000396000f3fe608060405234801561001057600080fd5b50600436106101a85760003560e01c80635850b383116100f9578063b2a88f6f11610097578063ccfa858e11610071578063ccfa858e14610526578063ef8c039114610556578063f1d8ef4d14610572578063f851a4401461058e576101a8565b8063b2a88f6f146104be578063bac2e80d146104da578063c792d8fd146104f6576101a8565b80637e4d2d97116100d35780637e4d2d9714610426578063828622751461045657806397ef4e3e14610486578063aaaf4188146104a2576101a8565b80635850b383146103d0578063791778c1146103ee5780637a0c7d391461040a576101a8565b80633d818b31116101665780634f235207116101405780634f2352071461033057806353ee895d1461036657806355e8dea214610396578063564abc25146103b2576101a8565b80633d818b31146102aa57806342222a43146102c8578063465e1def146102f8576101a8565b8062da7228146101ad578063171fd848146101e2578063228becb6146101fe57806329c350f11461022e5780632e4ea4c41461024a578063354133f71461027a575b600080fd5b6101c760048036038101906101c29190613b0d565b6105ac565b6040516101d996959493929190613bf2565b60405180910390f35b6101fc60048036038101906101f79190613da4565b610ae5565b005b61021860048036038101906102139190613b0d565b610dd2565b6040516102259190614394565b60405180910390f35b610248600480360381019061024391906143e2565b61136b565b005b610264600480360381019061025f91906143e2565b611417565b604051610271919061440f565b60405180910390f35b610294600480360381019061028f91906143e2565b611437565b6040516102a19190614439565b60405180910390f35b6102b2611464565b6040516102bf9190614394565b60405180910390f35b6102e260048036038101906102dd91906143e2565b61195c565b6040516102ef91906144c3565b60405180910390f35b610312600480360381019061030d91906143e2565b6119ca565b604051610327999897969594939291906144e5565b60405180910390f35b61034a60048036038101906103459190613b0d565b611b55565b60405161035d9796959493929190614580565b60405180910390f35b610380600480360381019061037b91906143e2565b611dd7565b60405161038d9190614747565b60405180910390f35b6103b060048036038101906103ab9190614769565b612200565b005b6103ba6125f7565b6040516103c79190614818565b60405180910390f35b6103d8612867565b6040516103e5919061440f565b60405180910390f35b6104086004803603810190610403919061483a565b612871565b005b610424600480360381019061041f919061487a565b61295c565b005b610440600480360381019061043b91906143e2565b612b0a565b60405161044d9190614905565b60405180910390f35b610470600480360381019061046b91906143e2565b612b4a565b60405161047d919061440f565b60405180910390f35b6104a0600480360381019061049b919061494c565b612b6a565b005b6104bc60048036038101906104b791906149b1565b612cbc565b005b6104d860048036038101906104d391906149f1565b612d04565b005b6104f460048036038101906104ef9190614ab6565b6130f8565b005b610510600480360381019061050b91906143e2565b6133bc565b60405161051d9190614905565b60405180910390f35b610540600480360381019061053b9190614c58565b6133fb565b60405161054d9190614cb0565b60405180910390f35b610570600480360381019061056b9190613b0d565b61346e565b005b61058c6004803603810190610587919061483a565b613806565b005b610596613847565b6040516105a39190614905565b60405180910390f35b60608060606000806060868073ffffffffffffffffffffffffffffffffffffffff163373ffffffffffffffffffffffffffffffffffffffff1614610625576040517f08c379a000000000000000000000000000000000000000000000000000000000815260040161061c90614d17565b60405180910390fd5b87600073ffffffffffffffffffffffffffffffffffffffff166000808373ffffffffffffffffffffffffffffffffffffffff1673ffffffffffffffffffffffffffffffffffffffff16815260200190815260200160002060060160009054906101000a900473ffffffffffffffffffffffffffffffffffffffff1673ffffffffffffffffffffffffffffffffffffffff16036106f6576040517f08c379a00000000000000000000000000000000000000000000000000000000081526004016106ed90614d83565b60405180910390fd5b6000808a73ffffffffffffffffffffffffffffffffffffffff1673ffffffffffffffffffffffffffffffffffffffff1681526020019081526020016000206000016000808b73ffffffffffffffffffffffffffffffffffffffff1673ffffffffffffffffffffffffffffffffffffffff1681526020019081526020016000206001016000808c73ffffffffffffffffffffffffffffffffffffffff1673ffffffffffffffffffffffffffffffffffffffff1681526020019081526020016000206002016000808d73ffffffffffffffffffffffffffffffffffffffff1673ffffffffffffffffffffffffffffffffffffffff16815260200190815260200160002060060160009054906101000a900473ffffffffffffffffffffffffffffffffffffffff166000808e73ffffffffffffffffffffffffffffffffffffffff1673ffffffffffffffffffffffffffffffffffffffff168152602001908152602001600020600401546000808f73ffffffffffffffffffffffffffffffffffffffff1673ffffffffffffffffffffffffffffffffffffffff1681526020019081526020016000206003018580546108aa90614dd2565b80601f01602080910402602001604051908101604052809291908181526020018280546108d690614dd2565b80156109235780601f106108f857610100808354040283529160200191610923565b820191906000526020600020905b81548152906001019060200180831161090657829003601f168201915b5050505050955084805461093690614dd2565b80601f016020809104026020016040519081016040528092919081815260200182805461096290614dd2565b80156109af5780601f10610984576101008083540402835291602001916109af565b820191906000526020600020905b81548152906001019060200180831161099257829003601f168201915b505050505094508380546109c290614dd2565b80601f01602080910402602001604051908101604052809291908181526020018280546109ee90614dd2565b8015610a3b5780601f10610a1057610100808354040283529160200191610a3b565b820191906000526020600020905b815481529060010190602001808311610a1e57829003601f168201915b50505050509350808054610a4e90614dd2565b80601f0160208091040260200160405190810160405280929190818152602001828054610a7a90614dd2565b8015610ac75780601f10610a9c57610100808354040283529160200191610ac7565b820191906000526020600020905b815481529060010190602001808311610aaa57829003601f168201915b50505050509050975097509750975097509750505091939550919395565b808073ffffffffffffffffffffffffffffffffffffffff163373ffffffffffffffffffffffffffffffffffffffff1614610b54576040517f08c379a0000000000000000000000000000000000000000000000000000000008152600401610b4b90614d17565b60405180910390fd5b600073ffffffffffffffffffffffffffffffffffffffff166000808473ffffffffffffffffffffffffffffffffffffffff1673ffffffffffffffffffffffffffffffffffffffff16815260200190815260200160002060060160009054906101000a900473ffffffffffffffffffffffffffffffffffffffff1673ffffffffffffffffffffffffffffffffffffffff1614610c24576040517f08c379a0000000000000000000000000000000000000000000000000000000008152600401610c1b90614e4f565b60405180910390fd5b60008060008473ffffffffffffffffffffffffffffffffffffffff1673ffffffffffffffffffffffffffffffffffffffff168152602001908152602001600020905086816000019081610c77919061501b565b5085816001019081610c89919061501b565b5084816002019081610c9b919061501b565b5083816003019081610cad919061501b565b5060008160040181905550428160050181905550828160060160006101000a81548173ffffffffffffffffffffffffffffffffffffffff021916908373ffffffffffffffffffffffffffffffffffffffff160217905550600067ffffffffffffffff811115610d1f57610d1e613c79565b5b604051908082528060200260200182016040528015610d4d5781602001602082028036833780820191505090505b50816007019080519060200190610d6592919061386d565b506001839080600181540180825580915050600190039060005260206000200160009091909190916101000a81548173ffffffffffffffffffffffffffffffffffffffff021916908373ffffffffffffffffffffffffffffffffffffffff16021790555050505050505050565b606060008060008473ffffffffffffffffffffffffffffffffffffffff1673ffffffffffffffffffffffffffffffffffffffff1681526020019081526020016000206007018054905011610e5b576040517f08c379a0000000000000000000000000000000000000000000000000000000008152600401610e5290615139565b60405180910390fd5b60008060008473ffffffffffffffffffffffffffffffffffffffff1673ffffffffffffffffffffffffffffffffffffffff168152602001908152602001600020600701805480602002602001604051908101604052809291908181526020018280548015610ee857602002820191906000526020600020905b815481526020019060010190808311610ed4575b505050505090506000815167ffffffffffffffff811115610f0c57610f0b613c79565b5b604051908082528060200260200182016040528015610f4557816020015b610f326138ba565b815260200190600190039081610f2a5790505b50905060005b82518110156113605760036000848381518110610f6b57610f6a615159565b5b60200260200101518152602001908152602001600020604051806101a0016040529081600082018054610f9d90614dd2565b80601f0160208091040260200160405190810160405280929190818152602001828054610fc990614dd2565b80156110165780601f10610feb57610100808354040283529160200191611016565b820191906000526020600020905b815481529060010190602001808311610ff957829003601f168201915b5050505050815260200160018201805461102f90614dd2565b80601f016020809104026020016040519081016040528092919081815260200182805461105b90614dd2565b80156110a85780601f1061107d576101008083540402835291602001916110a8565b820191906000526020600020905b81548152906001019060200180831161108b57829003601f168201915b50505050508152602001600282015481526020016003820160009054906101000a900473ffffffffffffffffffffffffffffffffffffffff1673ffffffffffffffffffffffffffffffffffffffff1673ffffffffffffffffffffffffffffffffffffffff1681526020016003820160149054906101000a900460ff16600481111561113657611135613f23565b5b600481111561114857611147613f23565b5b815260200160048201548152602001600582015481526020016006820154815260200160078201548152602001600882018054806020026020016040519081016040528092919081815260200182805480156111f957602002820191906000526020600020905b8160009054906101000a900473ffffffffffffffffffffffffffffffffffffffff1673ffffffffffffffffffffffffffffffffffffffff16815260200190600101908083116111af575b505050505081526020016009820180548060200260200160405190810160405280929190818152602001828054801561127657602002820191906000526020600020906000905b82829054906101000a900460ff161515815260200190600101906020826000010492830192600103820291508084116112405790505b50505050508152602001600a82018054806020026020016040519081016040528092919081815260200182805480156112ce57602002820191906000526020600020905b8154815260200190600101908083116112ba575b50505050508152602001600b820180548060200260200160405190810160405280929190818152602001828054801561132657602002820191906000526020600020905b815481526020019060010190808311611312575b50505050508152505082828151811061134257611341615159565b5b60200260200101819052508080611358906151b7565b915050610f4b565b508092505050919050565b6000600360008381526020019081526020016000209050611402816009018054806020026020016040519081016040528092919081815260200182805480156113f857602002820191906000526020600020906000905b82829054906101000a900460ff161515815260200190600101906020826000010492830192600103820291508084116113c25790505b50505050506133fb565b1561141357611412826001612cbc565b5b5050565b600060036000838152602001908152602001600020600201549050919050565b60006003600083815260200190815260200160002060030160149054906101000a900460ff169050919050565b60606000600454116114ab576040517f08c379a00000000000000000000000000000000000000000000000000000000081526004016114a290615139565b60405180910390fd5b600060045467ffffffffffffffff8111156114c9576114c8613c79565b5b60405190808252806020026020018201604052801561150257816020015b6114ef6138ba565b8152602001906001900390816114e75790505b50905060005b600454811015611954576001600481111561152657611525613f23565b5b6003600083815260200190815260200160002060030160149054906101000a900460ff16600481111561155c5761155b613f23565b5b036119415760036000828152602001908152602001600020604051806101a001604052908160008201805461159090614dd2565b80601f01602080910402602001604051908101604052809291908181526020018280546115bc90614dd2565b80156116095780601f106115de57610100808354040283529160200191611609565b820191906000526020600020905b8154815290600101906020018083116115ec57829003601f168201915b5050505050815260200160018201805461162290614dd2565b80601f016020809104026020016040519081016040528092919081815260200182805461164e90614dd2565b801561169b5780601f106116705761010080835404028352916020019161169b565b820191906000526020600020905b81548152906001019060200180831161167e57829003601f168201915b50505050508152602001600282015481526020016003820160009054906101000a900473ffffffffffffffffffffffffffffffffffffffff1673ffffffffffffffffffffffffffffffffffffffff1673ffffffffffffffffffffffffffffffffffffffff1681526020016003820160149054906101000a900460ff16600481111561172957611728613f23565b5b600481111561173b5761173a613f23565b5b815260200160048201548152602001600582015481526020016006820154815260200160078201548152602001600882018054806020026020016040519081016040528092919081815260200182805480156117ec57602002820191906000526020600020905b8160009054906101000a900473ffffffffffffffffffffffffffffffffffffffff1673ffffffffffffffffffffffffffffffffffffffff16815260200190600101908083116117a2575b505050505081526020016009820180548060200260200160405190810160405280929190818152602001828054801561186957602002820191906000526020600020906000905b82829054906101000a900460ff161515815260200190600101906020826000010492830192600103820291508084116118335790505b50505050508152602001600a82018054806020026020016040519081016040528092919081815260200182805480156118c157602002820191906000526020600020905b8154815260200190600101908083116118ad575b50505050508152602001600b820180548060200260200160405190810160405280929190818152602001828054801561191957602002820191906000526020600020905b815481526020019060010190808311611905575b50505050508152505082828151811061193557611934615159565b5b60200260200101819052505b808061194c906151b7565b915050611508565b508091505090565b606060036000838152602001908152602001600020600b018054806020026020016040519081016040528092919081815260200182805480156119be57602002820191906000526020600020905b8154815260200190600101908083116119aa575b50505050509050919050565b60036020528060005260406000206000915090508060000180546119ed90614dd2565b80601f0160208091040260200160405190810160405280929190818152602001828054611a1990614dd2565b8015611a665780601f10611a3b57610100808354040283529160200191611a66565b820191906000526020600020905b815481529060010190602001808311611a4957829003601f168201915b505050505090806001018054611a7b90614dd2565b80601f0160208091040260200160405190810160405280929190818152602001828054611aa790614dd2565b8015611af45780601f10611ac957610100808354040283529160200191611af4565b820191906000526020600020905b815481529060010190602001808311611ad757829003601f168201915b5050505050908060020154908060030160009054906101000a900473ffffffffffffffffffffffffffffffffffffffff16908060030160149054906101000a900460ff16908060040154908060050154908060060154908060070154905089565b6000602052806000526040600020600091509050806000018054611b7890614dd2565b80601f0160208091040260200160405190810160405280929190818152602001828054611ba490614dd2565b8015611bf15780601f10611bc657610100808354040283529160200191611bf1565b820191906000526020600020905b815481529060010190602001808311611bd457829003601f168201915b505050505090806001018054611c0690614dd2565b80601f0160208091040260200160405190810160405280929190818152602001828054611c3290614dd2565b8015611c7f5780601f10611c5457610100808354040283529160200191611c7f565b820191906000526020600020905b815481529060010190602001808311611c6257829003601f168201915b505050505090806002018054611c9490614dd2565b80601f0160208091040260200160405190810160405280929190818152602001828054611cc090614dd2565b8015611d0d5780601f10611ce257610100808354040283529160200191611d0d565b820191906000526020600020905b815481529060010190602001808311611cf057829003601f168201915b505050505090806003018054611d2290614dd2565b80601f0160208091040260200160405190810160405280929190818152602001828054611d4e90614dd2565b8015611d9b5780601f10611d7057610100808354040283529160200191611d9b565b820191906000526020600020905b815481529060010190602001808311611d7e57829003601f168201915b5050505050908060040154908060050154908060060160009054906101000a900473ffffffffffffffffffffffffffffffffffffffff16905087565b611ddf6138ba565b6000600360008481526020019081526020016000206002015411611e38576040517f08c379a0000000000000000000000000000000000000000000000000000000008152600401611e2f90615271565b60405180910390fd5b60036000838152602001908152602001600020604051806101a0016040529081600082018054611e6790614dd2565b80601f0160208091040260200160405190810160405280929190818152602001828054611e9390614dd2565b8015611ee05780601f10611eb557610100808354040283529160200191611ee0565b820191906000526020600020905b815481529060010190602001808311611ec357829003601f168201915b50505050508152602001600182018054611ef990614dd2565b80601f0160208091040260200160405190810160405280929190818152602001828054611f2590614dd2565b8015611f725780601f10611f4757610100808354040283529160200191611f72565b820191906000526020600020905b815481529060010190602001808311611f5557829003601f168201915b50505050508152602001600282015481526020016003820160009054906101000a900473ffffffffffffffffffffffffffffffffffffffff1673ffffffffffffffffffffffffffffffffffffffff1673ffffffffffffffffffffffffffffffffffffffff1681526020016003820160149054906101000a900460ff16600481111561200057611fff613f23565b5b600481111561201257612011613f23565b5b815260200160048201548152602001600582015481526020016006820154815260200160078201548152602001600882018054806020026020016040519081016040528092919081815260200182805480156120c357602002820191906000526020600020905b8160009054906101000a900473ffffffffffffffffffffffffffffffffffffffff1673ffffffffffffffffffffffffffffffffffffffff1681526020019060010190808311612079575b505050505081526020016009820180548060200260200160405190810160405280929190818152602001828054801561214057602002820191906000526020600020906000905b82829054906101000a900460ff1615158152602001906001019060208260000104928301926001038202915080841161210a5790505b50505050508152602001600a820180548060200260200160405190810160405280929190818152602001828054801561219857602002820191906000526020600020905b815481526020019060010190808311612184575b50505050508152602001600b82018054806020026020016040519081016040528092919081815260200182805480156121f057602002820191906000526020600020905b8154815260200190600101908083116121dc575b5050505050815250509050919050565b81818173ffffffffffffffffffffffffffffffffffffffff166003600083815260200190815260200160002060030160009054906101000a900473ffffffffffffffffffffffffffffffffffffffff1673ffffffffffffffffffffffffffffffffffffffff16146122a6576040517f08c379a000000000000000000000000000000000000000000000000000000000815260040161229d90615303565b60405180910390fd5b60008060008673ffffffffffffffffffffffffffffffffffffffff1673ffffffffffffffffffffffffffffffffffffffff168152602001908152602001600020600701805490501161232d576040517f08c379a000000000000000000000000000000000000000000000000000000000815260040161232490615139565b60405180910390fd5b6000600360008581526020019081526020016000206002015411612386576040517f08c379a000000000000000000000000000000000000000000000000000000000815260040161237d90615271565b60405180910390fd5b6000600481111561239a57612399613f23565b5b6003600085815260200190815260200160002060030160149054906101000a900460ff1660048111156123d0576123cf613f23565b5b14612410576040517f08c379a00000000000000000000000000000000000000000000000000000000081526004016124079061536f565b60405180910390fd5b60008060008673ffffffffffffffffffffffffffffffffffffffff1673ffffffffffffffffffffffffffffffffffffffff168152602001908152602001600020600701905060005b81805490508110156125ef578482828154811061247857612477615159565b5b9060005260206000200154036125dc5760036000868152602001908152602001600020600080820160006124ac919061394a565b6001820160006124bc919061394a565b60028201600090556003820160006101000a81549073ffffffffffffffffffffffffffffffffffffffff02191690556003820160146101000a81549060ff0219169055600482016000905560058201600090556006820160009055600782016000905560088201600061252f919061398a565b60098201600061253f91906139ab565b600a8201600061254f91906139d3565b600b8201600061255f91906139d3565b50508160018380549050612573919061538f565b8154811061258457612583615159565b5b90600052602060002001548282815481106125a2576125a1615159565b5b9060005260206000200181905550818054806125c1576125c06153c3565b5b600190038181906000526020600020016000905590556125ef565b80806125e7906151b7565b915050612458565b505050505050565b60606000600180548060200260200160405190810160405280929190818152602001828054801561267d57602002820191906000526020600020905b8160009054906101000a900473ffffffffffffffffffffffffffffffffffffffff1673ffffffffffffffffffffffffffffffffffffffff1681526020019060010190808311612633575b505050505090506000600190505b60018054905081101561285f5760005b8181101561284b576000808483815181106126b9576126b8615159565b5b602002602001015173ffffffffffffffffffffffffffffffffffffffff1673ffffffffffffffffffffffffffffffffffffffff1681526020019081526020016000206004015460008085858151811061271557612714615159565b5b602002602001015173ffffffffffffffffffffffffffffffffffffffff1673ffffffffffffffffffffffffffffffffffffffff16815260200190815260200160002060040154101561283857600083838151811061277657612775615159565b5b6020026020010151905083828151811061279357612792615159565b5b60200260200101518484815181106127ae576127ad615159565b5b602002602001019073ffffffffffffffffffffffffffffffffffffffff16908173ffffffffffffffffffffffffffffffffffffffff1681525050808483815181106127fc576127fb615159565b5b602002602001019073ffffffffffffffffffffffffffffffffffffffff16908173ffffffffffffffffffffffffffffffffffffffff1681525050505b8080612843906151b7565b91505061269b565b508080612857906151b7565b91505061268b565b508091505090565b6000600454905090565b600060036000848152602001908152602001600020600b01905060005b818054905081101561295657828282815481106128ae576128ad615159565b5b9060005260206000200154036129435781600183805490506128d0919061538f565b815481106128e1576128e0615159565b5b90600052602060002001548282815481106128ff576128fe615159565b5b9060005260206000200181905550816001838054905061291f919061538f565b815481106129305761292f615159565b5b9060005260206000200160009055612956565b808061294e906151b7565b91505061288e565b50505050565b808073ffffffffffffffffffffffffffffffffffffffff163373ffffffffffffffffffffffffffffffffffffffff16146129cb576040517f08c379a00000000000000000000000000000000000000000000000000000000081526004016129c290614d17565b60405180910390fd5b81600073ffffffffffffffffffffffffffffffffffffffff166000808373ffffffffffffffffffffffffffffffffffffffff1673ffffffffffffffffffffffffffffffffffffffff16815260200190815260200160002060060160009054906101000a900473ffffffffffffffffffffffffffffffffffffffff1673ffffffffffffffffffffffffffffffffffffffff1603612a9c576040517f08c379a0000000000000000000000000000000000000000000000000000000008152600401612a9390614d83565b60405180910390fd5b60008060008573ffffffffffffffffffffffffffffffffffffffff1673ffffffffffffffffffffffffffffffffffffffff168152602001908152602001600020905085816000019081612aef919061501b565b5084816003019081612b01919061501b565b50505050505050565b60006003600083815260200190815260200160002060030160009054906101000a900473ffffffffffffffffffffffffffffffffffffffff169050919050565b600060036000838152602001908152602001600020600501549050919050565b60008060036000858152602001908152602001600020905060008160080180549050905060005b81811015612c28573373ffffffffffffffffffffffffffffffffffffffff16836008018281548110612bc657612bc5615159565b5b9060005260206000200160009054906101000a900473ffffffffffffffffffffffffffffffffffffffff1673ffffffffffffffffffffffffffffffffffffffff1603612c155760019350612c28565b8080612c20906151b7565b915050612b91565b508215612c7a57816009018490806001815401808255809150506001900390600052602060002090602091828204019190069091909190916101000a81548160ff021916908315150217905550612cb5565b6040517f08c379a0000000000000000000000000000000000000000000000000000000008152600401612cac90615464565b60405180910390fd5b5050505050565b6000600360008481526020019081526020016000209050818160030160146101000a81548160ff02191690836004811115612cfa57612cf9613f23565b5b0217905550505050565b858073ffffffffffffffffffffffffffffffffffffffff163373ffffffffffffffffffffffffffffffffffffffff1614612d73576040517f08c379a0000000000000000000000000000000000000000000000000000000008152600401612d6a90614d17565b60405180910390fd5b600286612d8091906154b3565b8773ffffffffffffffffffffffffffffffffffffffff16311015612dd9576040517f08c379a0000000000000000000000000000000000000000000000000000000008152600401612dd090615556565b60405180910390fd5b6000600360006004548152602001908152602001600020905085816000019081612e03919061501b565b5084816001019081612e15919061501b565b5086816002018190555060008160030160146101000a81548160ff02191690836004811115612e4757612e46613f23565b5b0217905550428160040181905550838160050181905550878160030160006101000a81548173ffffffffffffffffffffffffffffffffffffffff021916908373ffffffffffffffffffffffffffffffffffffffff16021790555060045481600701819055508281600601819055506000612ebf6125f7565b9050600081519050600a8111612eed5781836008019080519060200190612ee79291906139f4565b5061306a565b60005b600a811015613068576000803373ffffffffffffffffffffffffffffffffffffffff1673ffffffffffffffffffffffffffffffffffffffff16815260200190815260200160002060060160009054906101000a900473ffffffffffffffffffffffffffffffffffffffff1673ffffffffffffffffffffffffffffffffffffffff168360018385612f80919061538f565b612f8a919061538f565b81518110612f9b57612f9a615159565b5b602002602001015173ffffffffffffffffffffffffffffffffffffffff161461305557836008018360018385612fd1919061538f565b612fdb919061538f565b81518110612fec57612feb615159565b5b60200260200101519080600181540180825580915050600190039060005260206000200160009091909190916101000a81548173ffffffffffffffffffffffffffffffffffffffff021916908373ffffffffffffffffffffffffffffffffffffffff1602179055505b8080613060906151b7565b915050612ef0565b505b6000808b73ffffffffffffffffffffffffffffffffffffffff1673ffffffffffffffffffffffffffffffffffffffff1681526020019081526020016000206007016004549080600181540180825580915050600190039060005260206000200160009091909190915055600460008154809291906130e7906151b7565b919050555050505050505050505050565b86868173ffffffffffffffffffffffffffffffffffffffff166003600083815260200190815260200160002060030160009054906101000a900473ffffffffffffffffffffffffffffffffffffffff1673ffffffffffffffffffffffffffffffffffffffff161461319e576040517f08c379a000000000000000000000000000000000000000000000000000000000815260040161319590615303565b60405180910390fd5b60008060008b73ffffffffffffffffffffffffffffffffffffffff1673ffffffffffffffffffffffffffffffffffffffff1681526020019081526020016000206007018054905011613225576040517f08c379a000000000000000000000000000000000000000000000000000000000815260040161321c90615139565b60405180910390fd5b6000600360008a8152602001908152602001600020600201541161327e576040517f08c379a000000000000000000000000000000000000000000000000000000000815260040161327590615271565b60405180910390fd5b6000600481111561329257613291613f23565b5b600360008a815260200190815260200160002060030160149054906101000a900460ff1660048111156132c8576132c7613f23565b5b148061331b5750600360048111156132e3576132e2613f23565b5b600360008a815260200190815260200160002060030160149054906101000a900460ff16600481111561331957613318613f23565b5b145b61335a576040517f08c379a0000000000000000000000000000000000000000000000000000000008152600401613351906155c2565b60405180910390fd5b6000600360008a815260200190815260200160002090508781600201819055508681600001908161338b919061501b565b508581600101908161339d919061501b565b5084816005018190555083816006018190555050505050505050505050565b600181815481106133cc57600080fd5b906000526020600020016000915054906101000a900473ffffffffffffffffffffffffffffffffffffffff1681565b6000806000905060005b83518110156134505783818151811061342157613420615159565b5b60200260200101511561343d578180613439906151b7565b9250505b8080613448906151b7565b915050613405565b5060068110613463576001915050613469565b60009150505b919050565b808073ffffffffffffffffffffffffffffffffffffffff163373ffffffffffffffffffffffffffffffffffffffff16146134dd576040517f08c379a00000000000000000000000000000000000000000000000000000000081526004016134d490614d17565b60405180910390fd5b81600073ffffffffffffffffffffffffffffffffffffffff166000808373ffffffffffffffffffffffffffffffffffffffff1673ffffffffffffffffffffffffffffffffffffffff16815260200190815260200160002060060160009054906101000a900473ffffffffffffffffffffffffffffffffffffffff1673ffffffffffffffffffffffffffffffffffffffff16036135ae576040517f08c379a00000000000000000000000000000000000000000000000000000000081526004016135a590614d83565b60405180910390fd5b6000808473ffffffffffffffffffffffffffffffffffffffff1673ffffffffffffffffffffffffffffffffffffffff168152602001908152602001600020600080820160006135fd919061394a565b60018201600061360d919061394a565b60028201600061361d919061394a565b60038201600061362d919061394a565b600482016000905560058201600090556006820160006101000a81549073ffffffffffffffffffffffffffffffffffffffff021916905560078201600061367491906139d3565b505060005b600180549050811015613800573373ffffffffffffffffffffffffffffffffffffffff16600182815481106136b1576136b0615159565b5b9060005260206000200160009054906101000a900473ffffffffffffffffffffffffffffffffffffffff1673ffffffffffffffffffffffffffffffffffffffff16036137ed576001808080549050613709919061538f565b8154811061371a57613719615159565b5b9060005260206000200160009054906101000a900473ffffffffffffffffffffffffffffffffffffffff166001828154811061375957613758615159565b5b9060005260206000200160006101000a81548173ffffffffffffffffffffffffffffffffffffffff021916908373ffffffffffffffffffffffffffffffffffffffff16021790555060018054806137b3576137b26153c3565b5b6001900381819060005260206000200160006101000a81549073ffffffffffffffffffffffffffffffffffffffff02191690559055613800565b80806137f8906151b7565b915050613679565b50505050565b60036000838152602001908152602001600020600b018190806001815401808255809150506001900390600052602060002001600090919091909150555050565b600260009054906101000a900473ffffffffffffffffffffffffffffffffffffffff1681565b8280548282559060005260206000209081019282156138a9579160200282015b828111156138a857825182559160200191906001019061388d565b5b5090506138b69190613a7e565b5090565b604051806101a00160405280606081526020016060815260200160008152602001600073ffffffffffffffffffffffffffffffffffffffff1681526020016000600481111561390c5761390b613f23565b5b815260200160008152602001600081526020016000815260200160008152602001606081526020016060815260200160608152602001606081525090565b50805461395690614dd2565b6000825580601f106139685750613987565b601f0160209004906000526020600020908101906139869190613a7e565b5b50565b50805460008255906000526020600020908101906139a89190613a7e565b50565b50805460008255601f0160209004906000526020600020908101906139d09190613a7e565b50565b50805460008255906000526020600020908101906139f19190613a7e565b50565b828054828255906000526020600020908101928215613a6d579160200282015b82811115613a6c5782518260006101000a81548173ffffffffffffffffffffffffffffffffffffffff021916908373ffffffffffffffffffffffffffffffffffffffff16021790555091602001919060010190613a14565b5b509050613a7a9190613a7e565b5090565b5b80821115613a97576000816000905550600101613a7f565b5090565b6000604051905090565b600080fd5b600080fd5b600073ffffffffffffffffffffffffffffffffffffffff82169050919050565b6000613ada82613aaf565b9050919050565b613aea81613acf565b8114613af557600080fd5b50565b600081359050613b0781613ae1565b92915050565b600060208284031215613b2357613b22613aa5565b5b6000613b3184828501613af8565b91505092915050565b600081519050919050565b600082825260208201905092915050565b60005b83811015613b74578082015181840152602081019050613b59565b60008484015250505050565b6000601f19601f8301169050919050565b6000613b9c82613b3a565b613ba68185613b45565b9350613bb6818560208601613b56565b613bbf81613b80565b840191505092915050565b613bd381613acf565b82525050565b6000819050919050565b613bec81613bd9565b82525050565b600060c0820190508181036000830152613c0c8189613b91565b90508181036020830152613c208188613b91565b90508181036040830152613c348187613b91565b9050613c436060830186613bca565b613c506080830185613be3565b81810360a0830152613c628184613b91565b9050979650505050505050565b600080fd5b600080fd5b7f4e487b7100000000000000000000000000000000000000000000000000000000600052604160045260246000fd5b613cb182613b80565b810181811067ffffffffffffffff82111715613cd057613ccf613c79565b5b80604052505050565b6000613ce3613a9b565b9050613cef8282613ca8565b919050565b600067ffffffffffffffff821115613d0f57613d0e613c79565b5b613d1882613b80565b9050602081019050919050565b82818337600083830152505050565b6000613d47613d4284613cf4565b613cd9565b905082815260208101848484011115613d6357613d62613c74565b5b613d6e848285613d25565b509392505050565b600082601f830112613d8b57613d8a613c6f565b5b8135613d9b848260208601613d34565b91505092915050565b600080600080600060a08688031215613dc057613dbf613aa5565b5b600086013567ffffffffffffffff811115613dde57613ddd613aaa565b5b613dea88828901613d76565b955050602086013567ffffffffffffffff811115613e0b57613e0a613aaa565b5b613e1788828901613d76565b945050604086013567ffffffffffffffff811115613e3857613e37613aaa565b5b613e4488828901613d76565b935050606086013567ffffffffffffffff811115613e6557613e64613aaa565b5b613e7188828901613d76565b9250506080613e8288828901613af8565b9150509295509295909350565b600081519050919050565b600082825260208201905092915050565b6000819050602082019050919050565b600082825260208201905092915050565b6000613ed782613b3a565b613ee18185613ebb565b9350613ef1818560208601613b56565b613efa81613b80565b840191505092915050565b613f0e81613bd9565b82525050565b613f1d81613acf565b82525050565b7f4e487b7100000000000000000000000000000000000000000000000000000000600052602160045260246000fd5b60058110613f6357613f62613f23565b5b50565b6000819050613f7482613f52565b919050565b6000613f8482613f66565b9050919050565b613f9481613f79565b82525050565b600081519050919050565b600082825260208201905092915050565b6000819050602082019050919050565b6000613fd28383613f14565b60208301905092915050565b6000602082019050919050565b6000613ff682613f9a565b6140008185613fa5565b935061400b83613fb6565b8060005b8381101561403c5781516140238882613fc6565b975061402e83613fde565b92505060018101905061400f565b5085935050505092915050565b600081519050919050565b600082825260208201905092915050565b6000819050602082019050919050565b60008115159050919050565b61408a81614075565b82525050565b600061409c8383614081565b60208301905092915050565b6000602082019050919050565b60006140c082614049565b6140ca8185614054565b93506140d583614065565b8060005b838110156141065781516140ed8882614090565b97506140f8836140a8565b9250506001810190506140d9565b5085935050505092915050565b600081519050919050565b600082825260208201905092915050565b6000819050602082019050919050565b600061414b8383613f05565b60208301905092915050565b6000602082019050919050565b600061416f82614113565b614179818561411e565b93506141848361412f565b8060005b838110156141b557815161419c888261413f565b97506141a783614157565b925050600181019050614188565b5085935050505092915050565b60006101a08301600083015184820360008601526141e08282613ecc565b915050602083015184820360208601526141fa8282613ecc565b915050604083015161420f6040860182613f05565b5060608301516142226060860182613f14565b5060808301516142356080860182613f8b565b5060a083015161424860a0860182613f05565b5060c083015161425b60c0860182613f05565b5060e083015161426e60e0860182613f05565b50610100830151614283610100860182613f05565b5061012083015184820361012086015261429d8282613feb565b9150506101408301518482036101408601526142b982826140b5565b9150506101608301518482036101608601526142d58282614164565b9150506101808301518482036101808601526142f18282614164565b9150508091505092915050565b600061430a83836141c2565b905092915050565b6000602082019050919050565b600061432a82613e8f565b6143348185613e9a565b93508360208202850161434685613eab565b8060005b85811015614382578484038952815161436385826142fe565b945061436e83614312565b925060208a0199505060018101905061434a565b50829750879550505050505092915050565b600060208201905081810360008301526143ae818461431f565b905092915050565b6143bf81613bd9565b81146143ca57600080fd5b50565b6000813590506143dc816143b6565b92915050565b6000602082840312156143f8576143f7613aa5565b5b6000614406848285016143cd565b91505092915050565b60006020820190506144246000830184613be3565b92915050565b61443381613f79565b82525050565b600060208201905061444e600083018461442a565b92915050565b600082825260208201905092915050565b600061447082614113565b61447a8185614454565b93506144858361412f565b8060005b838110156144b657815161449d888261413f565b97506144a883614157565b925050600181019050614489565b5085935050505092915050565b600060208201905081810360008301526144dd8184614465565b905092915050565b6000610120820190508181036000830152614500818c613b91565b90508181036020830152614514818b613b91565b9050614523604083018a613be3565b6145306060830189613bca565b61453d608083018861442a565b61454a60a0830187613be3565b61455760c0830186613be3565b61456460e0830185613be3565b614572610100830184613be3565b9a9950505050505050505050565b600060e082019050818103600083015261459a818a613b91565b905081810360208301526145ae8189613b91565b905081810360408301526145c28188613b91565b905081810360608301526145d68187613b91565b90506145e56080830186613be3565b6145f260a0830185613be3565b6145ff60c0830184613bca565b98975050505050505050565b60006101a08301600083015184820360008601526146298282613ecc565b915050602083015184820360208601526146438282613ecc565b91505060408301516146586040860182613f05565b50606083015161466b6060860182613f14565b50608083015161467e6080860182613f8b565b5060a083015161469160a0860182613f05565b5060c08301516146a460c0860182613f05565b5060e08301516146b760e0860182613f05565b506101008301516146cc610100860182613f05565b506101208301518482036101208601526146e68282613feb565b91505061014083015184820361014086015261470282826140b5565b91505061016083015184820361016086015261471e8282614164565b91505061018083015184820361018086015261473a8282614164565b9150508091505092915050565b60006020820190508181036000830152614761818461460b565b905092915050565b600080604083850312156147805761477f613aa5565b5b600061478e85828601613af8565b925050602061479f858286016143cd565b9150509250929050565b600082825260208201905092915050565b60006147c582613f9a565b6147cf81856147a9565b93506147da83613fb6565b8060005b8381101561480b5781516147f28882613fc6565b97506147fd83613fde565b9250506001810190506147de565b5085935050505092915050565b6000602082019050818103600083015261483281846147ba565b905092915050565b6000806040838503121561485157614850613aa5565b5b600061485f858286016143cd565b9250506020614870858286016143cd565b9150509250929050565b60008060006060848603121561489357614892613aa5565b5b600084013567ffffffffffffffff8111156148b1576148b0613aaa565b5b6148bd86828701613d76565b935050602084013567ffffffffffffffff8111156148de576148dd613aaa565b5b6148ea86828701613d76565b92505060406148fb86828701613af8565b9150509250925092565b600060208201905061491a6000830184613bca565b92915050565b61492981614075565b811461493457600080fd5b50565b60008135905061494681614920565b92915050565b6000806040838503121561496357614962613aa5565b5b6000614971858286016143cd565b925050602061498285828601614937565b9150509250929050565b6005811061499957600080fd5b50565b6000813590506149ab8161498c565b92915050565b600080604083850312156149c8576149c7613aa5565b5b60006149d6858286016143cd565b92505060206149e78582860161499c565b9150509250929050565b60008060008060008060c08789031215614a0e57614a0d613aa5565b5b6000614a1c89828a01613af8565b9650506020614a2d89828a016143cd565b955050604087013567ffffffffffffffff811115614a4e57614a4d613aaa565b5b614a5a89828a01613d76565b945050606087013567ffffffffffffffff811115614a7b57614a7a613aaa565b5b614a8789828a01613d76565b9350506080614a9889828a016143cd565b92505060a0614aa989828a016143cd565b9150509295509295509295565b600080600080600080600060e0888a031215614ad557614ad4613aa5565b5b6000614ae38a828b01613af8565b9750506020614af48a828b016143cd565b9650506040614b058a828b016143cd565b955050606088013567ffffffffffffffff811115614b2657614b25613aaa565b5b614b328a828b01613d76565b945050608088013567ffffffffffffffff811115614b5357614b52613aaa565b5b614b5f8a828b01613d76565b93505060a0614b708a828b016143cd565b92505060c0614b818a828b016143cd565b91505092959891949750929550565b600067ffffffffffffffff821115614bab57614baa613c79565b5b602082029050602081019050919050565b600080fd5b6000614bd4614bcf84614b90565b613cd9565b90508083825260208201905060208402830185811115614bf757614bf6614bbc565b5b835b81811015614c205780614c0c8882614937565b845260208401935050602081019050614bf9565b5050509392505050565b600082601f830112614c3f57614c3e613c6f565b5b8135614c4f848260208601614bc1565b91505092915050565b600060208284031215614c6e57614c6d613aa5565b5b600082013567ffffffffffffffff811115614c8c57614c8b613aaa565b5b614c9884828501614c2a565b91505092915050565b614caa81614075565b82525050565b6000602082019050614cc56000830184614ca1565b92915050565b7f43616c6c6572206973206e6f74206f776e657200000000000000000000000000600082015250565b6000614d01601383613b45565b9150614d0c82614ccb565b602082019050919050565b60006020820190508181036000830152614d3081614cf4565b9050919050565b7f506172747920646f6573206e6f74206578697374000000000000000000000000600082015250565b6000614d6d601483613b45565b9150614d7882614d37565b602082019050919050565b60006020820190508181036000830152614d9c81614d60565b9050919050565b7f4e487b7100000000000000000000000000000000000000000000000000000000600052602260045260246000fd5b60006002820490506001821680614dea57607f821691505b602082108103614dfd57614dfc614da3565b5b50919050565b7f506172747920616c726561647920657869737473000000000000000000000000600082015250565b6000614e39601483613b45565b9150614e4482614e03565b602082019050919050565b60006020820190508181036000830152614e6881614e2c565b9050919050565b60008190508160005260206000209050919050565b60006020601f8301049050919050565b600082821b905092915050565b600060088302614ed17fffffffffffffffffffffffffffffffffffffffffffffffffffffffffffffffff82614e94565b614edb8683614e94565b95508019841693508086168417925050509392505050565b6000819050919050565b6000614f18614f13614f0e84613bd9565b614ef3565b613bd9565b9050919050565b6000819050919050565b614f3283614efd565b614f46614f3e82614f1f565b848454614ea1565b825550505050565b600090565b614f5b614f4e565b614f66818484614f29565b505050565b5b81811015614f8a57614f7f600082614f53565b600181019050614f6c565b5050565b601f821115614fcf57614fa081614e6f565b614fa984614e84565b81016020851015614fb8578190505b614fcc614fc485614e84565b830182614f6b565b50505b505050565b600082821c905092915050565b6000614ff260001984600802614fd4565b1980831691505092915050565b600061500b8383614fe1565b9150826002028217905092915050565b61502482613b3a565b67ffffffffffffffff81111561503d5761503c613c79565b5b6150478254614dd2565b615052828285614f8e565b600060209050601f8311600181146150855760008415615073578287015190505b61507d8582614fff565b8655506150e5565b601f19841661509386614e6f565b60005b828110156150bb57848901518255600182019150602085019450602081019050615096565b868310156150d857848901516150d4601f891682614fe1565b8355505b6001600288020188555050505b505050505050565b7f4e6f2074656e6465727320657869737473000000000000000000000000000000600082015250565b6000615123601183613b45565b915061512e826150ed565b602082019050919050565b6000602082019050818103600083015261515281615116565b9050919050565b7f4e487b7100000000000000000000000000000000000000000000000000000000600052603260045260246000fd5b7f4e487b7100000000000000000000000000000000000000000000000000000000600052601160045260246000fd5b60006151c282613bd9565b91507fffffffffffffffffffffffffffffffffffffffffffffffffffffffffffffffff82036151f4576151f3615188565b5b600182019050919050565b7f74656e6465722077697468206164647265737320646f65736e2774206578697360008201527f7473000000000000000000000000000000000000000000000000000000000000602082015250565b600061525b602283613b45565b9150615266826151ff565b604082019050919050565b6000602082019050818103600083015261528a8161524e565b9050919050565b7f796f75277265206e6f7420617574686f72697a656420746f20706572666f726d60008201527f207468697320616374696f6e0000000000000000000000000000000000000000602082015250565b60006152ed602c83613b45565b91506152f882615291565b604082019050919050565b6000602082019050818103600083015261531c816152e0565b9050919050565b7f74656e6465722063616e6e6f742062652064656c657465640000000000000000600082015250565b6000615359601883613b45565b915061536482615323565b602082019050919050565b600060208201905081810360008301526153888161534c565b9050919050565b600061539a82613bd9565b91506153a583613bd9565b92508282039050818111156153bd576153bc615188565b5b92915050565b7f4e487b7100000000000000000000000000000000000000000000000000000000600052603160045260246000fd5b7f596f75277265206e6f7420617574686f72697a656420746f2076616c6964617460008201527f6520746869732074656e6465722e000000000000000000000000000000000000602082015250565b600061544e602e83613b45565b9150615459826153f2565b604082019050919050565b6000602082019050818103600083015261547d81615441565b9050919050565b7f4e487b7100000000000000000000000000000000000000000000000000000000600052601260045260246000fd5b60006154be82613bd9565b91506154c983613bd9565b9250826154d9576154d8615484565b5b828204905092915050565b7f696e73756666696369656e742066756e647320746f206372656174652061207460008201527f656e646572000000000000000000000000000000000000000000000000000000602082015250565b6000615540602583613b45565b915061554b826154e4565b604082019050919050565b6000602082019050818103600083015261556f81615533565b9050919050565b7f74656e6465722063616e6e6f7420626520757064617465640000000000000000600082015250565b60006155ac601883613b45565b91506155b782615576565b602082019050919050565b600060208201905081810360008301526155db8161559f565b905091905056fea264697066735822122001c690d4a916867e4ac0c61d107760b7176db5c92383cccf74ab15192fd6c08264736f6c63430008130033",
  "immutableReferences": {},
  "source": "// SPDX-License-Identifier: UNLICENSED\r\n\r\n//the version of solidity that is compatible\r\nimport \"./PartyContract.sol\";\r\nenum TenderStatus{ NEW, OPEN, CLOSED, SUSPENDED, ASSIGNED } //created---OPEN, deadline crosses---CLOSED, project is assigned ---- ASSIGNED\r\n\r\npragma solidity ^0.8.0;\r\ncontract TenderContract is PartyContract{\r\n    // Tender Structure\r\n    struct Tender {\r\n        string title;\r\n        string description;\r\n        uint256 budget;\r\n        address issuerAddress;\r\n        TenderStatus tenderStatus; \r\n        uint256 createdAt;\r\n        uint256 deadline;\r\n        uint256 totalMilestones;\r\n        uint256 tenderId;\r\n        address[] validatorsAddresses;\r\n        bool[] validationVotes;\r\n        uint256[] milestoneTimePeriods;\r\n        uint256[] bidIds;\r\n    }\r\n\r\n    mapping (uint256 => Tender) public tenders;\r\n    uint256 tenderCount = 0;\r\n\r\n    //setters and getter functions\r\n    function getTenderCount() public view returns(uint256){\r\n        return tenderCount;\r\n    }\r\n\r\n    function getBudget(uint256 _tenderId) public view returns(uint256){\r\n        return tenders[_tenderId].budget;\r\n    }\r\n\r\n    function getTenderStatus(uint256 _tenderId) public view returns(TenderStatus){\r\n        return tenders[_tenderId].tenderStatus;\r\n    }\r\n\r\n    function getDeadline(uint256 _tenderId) public view returns(uint256){\r\n            return tenders[_tenderId].deadline;\r\n    }\r\n\r\n    function getBidIds(uint256 _tenderId) public view returns(uint256[] memory){\r\n        return tenders[_tenderId].bidIds;\r\n    }\r\n\r\n    function getIssuerAddress(uint256 _tenderId) public view returns(address){\r\n        return tenders[_tenderId].issuerAddress;\r\n    }\r\n\r\n    function addBidId(uint256 _tenderId, uint256 bidId) public {\r\n        tenders[_tenderId].bidIds.push(bidId);\r\n    }\r\n\r\n    function deleteBidId(uint256 _tenderId, uint256 _bidId) public {\r\n        uint256[] storage tenderBidIds = tenders[_tenderId].bidIds;\r\n        for (uint i = 0; i < tenderBidIds.length; i++){\r\n            if(tenderBidIds[i] == _bidId){\r\n                tenderBidIds[i] = tenderBidIds[tenderBidIds.length - 1];\r\n                delete tenderBidIds[tenderBidIds.length - 1];\r\n                break;\r\n            }\r\n        }\r\n    }\r\n\r\n    // Function for creating a tender\r\n    function createTender(address _partyAddress, uint256 _budget, string memory _title, string memory _description, uint256 _deadline, uint256 _totalMilestones) isOwner(_partyAddress) public {\r\n        require(_partyAddress.balance >= _budget/2, \"insufficient funds to create a tender\");\r\n        Tender storage newTender = tenders[tenderCount];\r\n        newTender.title = _title;\r\n        newTender.description = _description;\r\n        newTender.budget = _budget;\r\n        newTender.tenderStatus = TenderStatus.NEW;\r\n        newTender.createdAt = block.timestamp;\r\n        newTender.deadline = _deadline;\r\n        newTender.issuerAddress = _partyAddress;\r\n        newTender.tenderId = tenderCount;\r\n        newTender.totalMilestones = _totalMilestones;\r\n        address[] memory sortedlist = sortByTrustScore();\r\n        uint len = sortedlist.length;\r\n        if(len<=10)\r\n        {\r\n            newTender.validatorsAddresses = sortedlist;\r\n        }\r\n        else\r\n        {\r\n            for(uint i=0; i<10; i++)\r\n            {\r\n                if(sortedlist[len-i-1] != parties[msg.sender].partyAddress)\r\n                {\r\n                    newTender.validatorsAddresses.push(sortedlist[len-i-1]);\r\n                }\r\n            }\r\n        }\r\n        parties[_partyAddress].tenderIds.push(tenderCount);\r\n        tenderCount++;\r\n    }\r\n\r\n    function sortByTrustScore() public view returns(address[] memory) {\r\n    address[] memory _party = partyAddresses;\r\n    for (uint i = 1; i < partyAddresses.length; i++)\r\n        for (uint j = 0; j < i; j++)\r\n            if (parties[_party[i]].trustScore < parties[_party[j]].trustScore) {\r\n                address x = _party[i];\r\n                _party[i] = _party[j];\r\n                _party[j] = x;\r\n            }\r\n\r\n    return _party;\r\n    }\r\n\r\n    function validate(uint256 _tenderId, bool _vote) public {\r\n        bool valid = false;\r\n        Tender storage newTender = tenders[_tenderId];\r\n        uint len = newTender.validatorsAddresses.length;\r\n        for(uint i=0; i<len; i++)\r\n        {\r\n            if(newTender.validatorsAddresses[i] == msg.sender)\r\n            {\r\n                valid = true;\r\n                break;\r\n            }\r\n        }\r\n        if(valid)\r\n        {\r\n            newTender.validationVotes.push(_vote);\r\n            if(_vote) {\r\n                //deduct token from party account and add it to tender account\r\n            }\r\n        }\r\n        else\r\n        {\r\n            revert(\"You're not authorized to validate this tender.\");\r\n        }\r\n    }\r\n\r\n    function checkTenderValidation(uint256 _tenderId) public {\r\n        Tender storage newTender = tenders[_tenderId];\r\n        if(isValid(newTender.validationVotes)) {\r\n            updateTenderStatus(_tenderId, TenderStatus.OPEN);\r\n        }\r\n    }\r\n    \r\n    function isValid(bool[] memory _validationVotes) public pure returns (bool) {\r\n        uint voteCount = 0;\r\n        for(uint i=0; i<_validationVotes.length; i++)\r\n        {\r\n            if(_validationVotes[i])\r\n            {\r\n                voteCount++;\r\n            }\r\n        }\r\n\r\n        if(voteCount>=6)\r\n        {\r\n            return true;\r\n        }\r\n        return false;\r\n    }\r\n\r\n    function getAllActiveTenders() public view returns (Tender[] memory){\r\n        require(tenderCount > 0, \"No tenders exists\");\r\n        Tender[] memory tendersList = new Tender[](tenderCount);\r\n        for (uint256 i = 0; i < tenderCount; i++) {\r\n            if(tenders[i].tenderStatus == TenderStatus.OPEN){\r\n                 tendersList[i] = tenders[i];\r\n            }\r\n        }\r\n        return(tendersList);\r\n    }\r\n\r\n    function getMyTenders(address _partyAddress) public view returns ( Tender[] memory){\r\n        require(parties[_partyAddress].tenderIds.length > 0, \"No tenders exists\");\r\n        uint256[] memory partyTenderIds = parties[_partyAddress].tenderIds;\r\n        Tender[] memory tendersList = new Tender[](partyTenderIds.length);\r\n        for (uint256 i = 0; i < partyTenderIds.length; i++) {\r\n            tendersList[i] = tenders[partyTenderIds[i]];\r\n        }\r\n        return(tendersList);\r\n    }\r\n\r\n    function getTenderDetails(uint256 _tenderId) public view returns ( Tender memory){\r\n        require(tenders[_tenderId].budget > 0 , \"tender with address doesn't exists\");\r\n        return(tenders[_tenderId]);\r\n    }\r\n\r\n    function updateTenderStatus(uint256 _tenderId, TenderStatus _tenderStatus) public {\r\n        Tender storage updatedTender = tenders[_tenderId];\r\n        updatedTender.tenderStatus = _tenderStatus;\r\n    }\r\n\r\n    function updateTender(address _partyAddress, uint256 _tenderId, uint256 _budget, string memory _title, string memory _description, uint256 _deadline, uint256 _totalMilestones) public isTenderOwner(_partyAddress, _tenderId){\r\n        require(parties[_partyAddress].tenderIds.length > 0, \"No tenders exists\");\r\n        require(tenders[_tenderId].budget > 0 , \"tender with address doesn't exists\");\r\n        require(tenders[_tenderId].tenderStatus == TenderStatus.NEW ||\r\n                tenders[_tenderId].tenderStatus == TenderStatus.SUSPENDED , \"tender cannot be updated\");\r\n        Tender storage updatedTender = tenders[_tenderId];\r\n        updatedTender.budget = _budget;\r\n        updatedTender.title = _title;\r\n        updatedTender.description = _description;\r\n        updatedTender.deadline = _deadline;\r\n        updatedTender.totalMilestones = _totalMilestones;\r\n    }\r\n\r\n    function deleteTender(address _partyAddress, uint256 _tenderId) public isTenderOwner(_partyAddress, _tenderId){ \r\n        require(parties[_partyAddress].tenderIds.length > 0, \"No tenders exists\");\r\n        require(tenders[_tenderId].budget > 0 , \"tender with address doesn't exists\");\r\n        require(tenders[_tenderId].tenderStatus == TenderStatus.NEW, \"tender cannot be deleted\");\r\n        uint256[] storage _tenderIds = parties[_partyAddress].tenderIds;\r\n        for (uint i = 0; i < _tenderIds.length; i++){\r\n            if(_tenderIds[i] == _tenderId){\r\n                delete tenders[_tenderId];\r\n                _tenderIds[i] = _tenderIds[_tenderIds.length - 1];\r\n                _tenderIds.pop();\r\n                break;\r\n            }\r\n        }\r\n    }\r\n\r\n    // @todo - add modifer for above functions\r\n\r\n    modifier isTenderOwner(address _partyAddress, uint256 _tenderId) {\r\n        require(tenders[_tenderId].issuerAddress == _partyAddress, \"you're not authorized to perform this action\");\r\n        _;\r\n    }\r\n\r\n    \r\n}\r\n",
  "sourcePath": "C:\\Users\\sabba\\OneDrive\\Documents\\BlockchainProject\\blockchain-based-contracting-system\\contracts\\TenderContract.sol",
  "compiler": {
    "name": "solc",
    "version": "0.8.19+commit.7dd6d404.Emscripten.clang"
  },
  "schemaVersion": "3.4.13",
  "updatedAt": "2023-04-14T14:55:37.758Z",
  "networkType": "ethereum",
  "devdoc": {
    "kind": "dev",
    "methods": {},
    "version": 1
  },
  "userdoc": {
    "kind": "user",
    "methods": {},
    "version": 1
  }
}