{
  "contractName": "TenderContract",
  "abi": [
    {
      "inputs": [
        {
          "internalType": "string",
          "name": "_name",
          "type": "string"
        },
        {
          "internalType": "string",
          "name": "_contactNumber",
          "type": "string"
        },
        {
          "internalType": "string",
          "name": "_email",
          "type": "string"
        },
        {
          "internalType": "string",
          "name": "_password",
          "type": "string"
        },
        {
          "internalType": "address",
          "name": "_partyAddress",
          "type": "address"
        }
      ],
      "name": "createParty",
      "outputs": [],
      "stateMutability": "nonpayable",
      "type": "function"
    },
    {
      "inputs": [
        {
          "internalType": "address",
          "name": "_partyAddress",
          "type": "address"
        }
      ],
      "name": "deleteParty",
      "outputs": [],
      "stateMutability": "nonpayable",
      "type": "function"
    },
    {
      "inputs": [
        {
          "internalType": "address",
          "name": "_partyAddress",
          "type": "address"
        }
      ],
      "name": "getPartyDetails",
      "outputs": [
        {
          "internalType": "string",
          "name": "",
          "type": "string"
        },
        {
          "internalType": "string",
          "name": "",
          "type": "string"
        },
        {
          "internalType": "string",
          "name": "",
          "type": "string"
        },
        {
          "internalType": "address",
          "name": "",
          "type": "address"
        },
        {
          "internalType": "uint256",
          "name": "",
          "type": "uint256"
        },
        {
          "internalType": "string",
          "name": "",
          "type": "string"
        }
      ],
      "stateMutability": "view",
      "type": "function",
      "constant": true
    },
    {
      "inputs": [
        {
          "internalType": "address",
          "name": "",
          "type": "address"
        }
      ],
      "name": "parties",
      "outputs": [
        {
          "internalType": "string",
          "name": "name",
          "type": "string"
        },
        {
          "internalType": "string",
          "name": "contactNumber",
          "type": "string"
        },
        {
          "internalType": "string",
          "name": "email",
          "type": "string"
        },
        {
          "internalType": "string",
          "name": "password",
          "type": "string"
        },
        {
          "internalType": "uint256",
          "name": "trustScore",
          "type": "uint256"
        },
        {
          "internalType": "uint256",
          "name": "createdAt",
          "type": "uint256"
        },
        {
          "internalType": "address",
          "name": "partyAddress",
          "type": "address"
        }
      ],
      "stateMutability": "view",
      "type": "function",
      "constant": true
    },
    {
      "inputs": [
        {
          "internalType": "uint256",
          "name": "",
          "type": "uint256"
        }
      ],
      "name": "partyAddresses",
      "outputs": [
        {
          "internalType": "address",
          "name": "",
          "type": "address"
        }
      ],
      "stateMutability": "view",
      "type": "function",
      "constant": true
    },
    {
      "inputs": [
        {
          "internalType": "uint256",
          "name": "",
          "type": "uint256"
        }
      ],
      "name": "tenders",
      "outputs": [
        {
          "internalType": "string",
          "name": "title",
          "type": "string"
        },
        {
          "internalType": "string",
          "name": "description",
          "type": "string"
        },
        {
          "internalType": "uint256",
          "name": "budget",
          "type": "uint256"
        },
        {
          "internalType": "address",
          "name": "issuerAddress",
          "type": "address"
        },
        {
          "internalType": "enum TenderStatus",
          "name": "tenderStatus",
          "type": "uint8"
        },
        {
          "internalType": "uint256",
          "name": "createdAt",
          "type": "uint256"
        },
        {
          "internalType": "uint256",
          "name": "deadline",
          "type": "uint256"
        },
        {
          "internalType": "uint256",
          "name": "totalMilestones",
          "type": "uint256"
        },
        {
          "internalType": "address",
          "name": "tenderAddress",
          "type": "address"
        }
      ],
      "stateMutability": "view",
      "type": "function",
      "constant": true
    },
    {
      "inputs": [
        {
          "internalType": "string",
          "name": "_name",
          "type": "string"
        },
        {
          "internalType": "string",
          "name": "_password",
          "type": "string"
        },
        {
          "internalType": "address",
          "name": "_partyAddress",
          "type": "address"
        }
      ],
      "name": "updateParty",
      "outputs": [],
      "stateMutability": "nonpayable",
      "type": "function"
    },
    {
      "inputs": [
        {
          "internalType": "uint256",
          "name": "_tenderId",
          "type": "uint256"
        }
      ],
      "name": "getBudget",
      "outputs": [
        {
          "internalType": "uint256",
          "name": "",
          "type": "uint256"
        }
      ],
      "stateMutability": "view",
      "type": "function",
      "constant": true
    },
    {
      "inputs": [
        {
          "internalType": "uint256",
          "name": "_tenderId",
          "type": "uint256"
        }
      ],
      "name": "getTenderStatus",
      "outputs": [
        {
          "internalType": "enum TenderStatus",
          "name": "",
          "type": "uint8"
        }
      ],
      "stateMutability": "view",
      "type": "function",
      "constant": true
    },
    {
      "inputs": [
        {
          "internalType": "uint256",
          "name": "_tenderId",
          "type": "uint256"
        }
      ],
      "name": "getDeadline",
      "outputs": [
        {
          "internalType": "uint256",
          "name": "",
          "type": "uint256"
        }
      ],
      "stateMutability": "view",
      "type": "function",
      "constant": true
    },
    {
      "inputs": [
        {
          "internalType": "uint256",
          "name": "_tenderId",
          "type": "uint256"
        }
      ],
      "name": "getBidIds",
      "outputs": [
        {
          "internalType": "uint256[]",
          "name": "",
          "type": "uint256[]"
        }
      ],
      "stateMutability": "view",
      "type": "function",
      "constant": true
    },
    {
      "inputs": [
        {
          "internalType": "uint256",
          "name": "_tenderId",
          "type": "uint256"
        }
      ],
      "name": "getIssuerAddress",
      "outputs": [
        {
          "internalType": "address",
          "name": "",
          "type": "address"
        }
      ],
      "stateMutability": "view",
      "type": "function",
      "constant": true
    },
    {
      "inputs": [
        {
          "internalType": "uint256",
          "name": "_tenderId",
          "type": "uint256"
        },
        {
          "internalType": "uint256",
          "name": "bidId",
          "type": "uint256"
        }
      ],
      "name": "addBidId",
      "outputs": [],
      "stateMutability": "nonpayable",
      "type": "function"
    },
    {
      "inputs": [
        {
          "internalType": "uint256",
          "name": "_tenderId",
          "type": "uint256"
        },
        {
          "internalType": "uint256",
          "name": "_bidId",
          "type": "uint256"
        }
      ],
      "name": "deleteBidId",
      "outputs": [],
      "stateMutability": "nonpayable",
      "type": "function"
    },
    {
      "inputs": [
        {
          "internalType": "address",
          "name": "_partyAddress",
          "type": "address"
        },
        {
          "internalType": "uint256",
          "name": "_budget",
          "type": "uint256"
        },
        {
          "internalType": "string",
          "name": "_title",
          "type": "string"
        },
        {
          "internalType": "string",
          "name": "_description",
          "type": "string"
        },
        {
          "internalType": "uint256",
          "name": "_deadline",
          "type": "uint256"
        },
        {
          "internalType": "uint256",
          "name": "_totalMilestones",
          "type": "uint256"
        }
      ],
      "name": "createTender",
      "outputs": [],
      "stateMutability": "nonpayable",
      "type": "function"
    },
    {
      "inputs": [],
      "name": "sortByTrustScore",
      "outputs": [
        {
          "internalType": "address[]",
          "name": "",
          "type": "address[]"
        }
      ],
      "stateMutability": "view",
      "type": "function",
      "constant": true
    },
    {
      "inputs": [
        {
          "internalType": "uint256",
          "name": "_tenderAddress",
          "type": "uint256"
        },
        {
          "internalType": "bool",
          "name": "_vote",
          "type": "bool"
        }
      ],
      "name": "validate",
      "outputs": [],
      "stateMutability": "nonpayable",
      "type": "function"
    },
    {
      "inputs": [
        {
          "internalType": "uint256",
          "name": "_tenderAddress",
          "type": "uint256"
        }
      ],
      "name": "checkTenderValidation",
      "outputs": [],
      "stateMutability": "nonpayable",
      "type": "function"
    },
    {
      "inputs": [
        {
          "internalType": "bool[]",
          "name": "_validationVotes",
          "type": "bool[]"
        }
      ],
      "name": "isValid",
      "outputs": [
        {
          "internalType": "bool",
          "name": "",
          "type": "bool"
        }
      ],
      "stateMutability": "pure",
      "type": "function",
      "constant": true
    },
    {
      "inputs": [],
      "name": "getAllTenders",
      "outputs": [
        {
          "components": [
            {
              "internalType": "string",
              "name": "title",
              "type": "string"
            },
            {
              "internalType": "string",
              "name": "description",
              "type": "string"
            },
            {
              "internalType": "uint256",
              "name": "budget",
              "type": "uint256"
            },
            {
              "internalType": "address",
              "name": "issuerAddress",
              "type": "address"
            },
            {
              "internalType": "enum TenderStatus",
              "name": "tenderStatus",
              "type": "uint8"
            },
            {
              "internalType": "uint256",
              "name": "createdAt",
              "type": "uint256"
            },
            {
              "internalType": "uint256",
              "name": "deadline",
              "type": "uint256"
            },
            {
              "internalType": "uint256",
              "name": "totalMilestones",
              "type": "uint256"
            },
            {
              "internalType": "address",
              "name": "tenderAddress",
              "type": "address"
            },
            {
              "internalType": "address[]",
              "name": "validatorsAddresses",
              "type": "address[]"
            },
            {
              "internalType": "bool[]",
              "name": "validationVotes",
              "type": "bool[]"
            },
            {
              "internalType": "uint256[]",
              "name": "milestoneTimePeriods",
              "type": "uint256[]"
            },
            {
              "internalType": "uint256[]",
              "name": "bidIds",
              "type": "uint256[]"
            }
          ],
          "internalType": "struct TenderContract.Tender[]",
          "name": "",
          "type": "tuple[]"
        }
      ],
      "stateMutability": "view",
      "type": "function",
      "constant": true
    },
    {
      "inputs": [
        {
          "internalType": "address",
          "name": "_partyAddress",
          "type": "address"
        }
      ],
      "name": "getMyTenders",
      "outputs": [
        {
          "components": [
            {
              "internalType": "string",
              "name": "title",
              "type": "string"
            },
            {
              "internalType": "string",
              "name": "description",
              "type": "string"
            },
            {
              "internalType": "uint256",
              "name": "budget",
              "type": "uint256"
            },
            {
              "internalType": "address",
              "name": "issuerAddress",
              "type": "address"
            },
            {
              "internalType": "enum TenderStatus",
              "name": "tenderStatus",
              "type": "uint8"
            },
            {
              "internalType": "uint256",
              "name": "createdAt",
              "type": "uint256"
            },
            {
              "internalType": "uint256",
              "name": "deadline",
              "type": "uint256"
            },
            {
              "internalType": "uint256",
              "name": "totalMilestones",
              "type": "uint256"
            },
            {
              "internalType": "address",
              "name": "tenderAddress",
              "type": "address"
            },
            {
              "internalType": "address[]",
              "name": "validatorsAddresses",
              "type": "address[]"
            },
            {
              "internalType": "bool[]",
              "name": "validationVotes",
              "type": "bool[]"
            },
            {
              "internalType": "uint256[]",
              "name": "milestoneTimePeriods",
              "type": "uint256[]"
            },
            {
              "internalType": "uint256[]",
              "name": "bidIds",
              "type": "uint256[]"
            }
          ],
          "internalType": "struct TenderContract.Tender[]",
          "name": "",
          "type": "tuple[]"
        }
      ],
      "stateMutability": "view",
      "type": "function",
      "constant": true
    },
    {
      "inputs": [
        {
          "internalType": "uint256",
          "name": "_tenderAddress",
          "type": "uint256"
        }
      ],
      "name": "getTenderDetails",
      "outputs": [
        {
          "components": [
            {
              "internalType": "string",
              "name": "title",
              "type": "string"
            },
            {
              "internalType": "string",
              "name": "description",
              "type": "string"
            },
            {
              "internalType": "uint256",
              "name": "budget",
              "type": "uint256"
            },
            {
              "internalType": "address",
              "name": "issuerAddress",
              "type": "address"
            },
            {
              "internalType": "enum TenderStatus",
              "name": "tenderStatus",
              "type": "uint8"
            },
            {
              "internalType": "uint256",
              "name": "createdAt",
              "type": "uint256"
            },
            {
              "internalType": "uint256",
              "name": "deadline",
              "type": "uint256"
            },
            {
              "internalType": "uint256",
              "name": "totalMilestones",
              "type": "uint256"
            },
            {
              "internalType": "address",
              "name": "tenderAddress",
              "type": "address"
            },
            {
              "internalType": "address[]",
              "name": "validatorsAddresses",
              "type": "address[]"
            },
            {
              "internalType": "bool[]",
              "name": "validationVotes",
              "type": "bool[]"
            },
            {
              "internalType": "uint256[]",
              "name": "milestoneTimePeriods",
              "type": "uint256[]"
            },
            {
              "internalType": "uint256[]",
              "name": "bidIds",
              "type": "uint256[]"
            }
          ],
          "internalType": "struct TenderContract.Tender",
          "name": "",
          "type": "tuple"
        }
      ],
      "stateMutability": "view",
      "type": "function",
      "constant": true
    },
    {
      "inputs": [
        {
          "internalType": "uint256",
          "name": "_tenderAddress",
          "type": "uint256"
        },
        {
          "internalType": "enum TenderStatus",
          "name": "_tenderStatus",
          "type": "uint8"
        }
      ],
      "name": "updateTenderStatus",
      "outputs": [],
      "stateMutability": "nonpayable",
      "type": "function"
    },
    {
      "inputs": [
        {
          "internalType": "address",
          "name": "_partyAddress",
          "type": "address"
        },
        {
          "internalType": "uint256",
          "name": "_tenderAddress",
          "type": "uint256"
        },
        {
          "internalType": "uint256",
          "name": "_budget",
          "type": "uint256"
        },
        {
          "internalType": "string",
          "name": "_title",
          "type": "string"
        },
        {
          "internalType": "string",
          "name": "_description",
          "type": "string"
        },
        {
          "internalType": "uint256",
          "name": "_deadline",
          "type": "uint256"
        },
        {
          "internalType": "uint256",
          "name": "_totalMilestones",
          "type": "uint256"
        }
      ],
      "name": "updateTender",
      "outputs": [],
      "stateMutability": "nonpayable",
      "type": "function"
    },
    {
      "inputs": [
        {
          "internalType": "address",
          "name": "_partyAddress",
          "type": "address"
        },
        {
          "internalType": "uint256",
          "name": "_tenderAddress",
          "type": "uint256"
        }
      ],
      "name": "deleteTender",
      "outputs": [],
      "stateMutability": "nonpayable",
      "type": "function"
    }
  ],
  "bytecode": "0x6080604052600060035534801561001557600080fd5b50615481806100256000396000f3fe608060405234801561001057600080fd5b50600436106101725760003560e01c8063564abc25116100de578063aaaf418811610097578063c792d8fd11610071578063c792d8fd146104a2578063ccfa858e146104d2578063ef8c039114610502578063f1d8ef4d1461051e57610172565b8063aaaf41881461044e578063b2a88f6f1461046a578063bac2e80d1461048657610172565b8063564abc251461037c578063791778c11461039a5780637a0c7d39146103b65780637e4d2d97146103d2578063828622751461040257806397ef4e3e1461043257610172565b8063354133f711610130578063354133f71461026257806342222a4314610292578063465e1def146102c25780634f235207146102fa57806353ee895d1461033057806355e8dea21461036057610172565b8062da722814610177578063171fd848146101ac578063228becb6146101c85780632358c046146101f857806329c350f1146102165780632e4ea4c414610232575b600080fd5b610191600480360381019061018c9190613976565b61053a565b6040516101a396959493929190613a5b565b60405180910390f35b6101c660048036038101906101c19190613c0d565b610a73565b005b6101e260048036038101906101dd9190613976565b610cfe565b6040516101ef91906141fd565b60405180910390f35b6102006112e3565b60405161020d91906141fd565b60405180910390f35b610230600480360381019061022b919061424b565b6117da565b005b61024c6004803603810190610247919061424b565b611886565b6040516102599190614278565b60405180910390f35b61027c6004803603810190610277919061424b565b6118a6565b60405161028991906142a2565b60405180910390f35b6102ac60048036038101906102a7919061424b565b6118d3565b6040516102b9919061432c565b60405180910390f35b6102dc60048036038101906102d7919061424b565b611941565b6040516102f19998979695949392919061434e565b60405180910390f35b610314600480360381019061030f9190613976565b611aec565b60405161032797969594939291906143e9565b60405180910390f35b61034a6004803603810190610345919061424b565b611d6e565b60405161035791906145b0565b60405180910390f35b61037a600480360381019061037591906145d2565b6121e3565b005b61038461264b565b6040516103919190614681565b60405180910390f35b6103b460048036038101906103af91906146a3565b6128bb565b005b6103d060048036038101906103cb91906146e3565b6129a6565b005b6103ec60048036038101906103e7919061424b565b612b54565b6040516103f9919061476e565b60405180910390f35b61041c6004803603810190610417919061424b565b612b94565b6040516104299190614278565b60405180910390f35b61044c600480360381019061044791906147b5565b612bb4565b005b6104686004803603810190610463919061481a565b612d06565b005b610484600480360381019061047f919061485a565b612d4e565b005b6104a0600480360381019061049b919061491f565b61317a565b005b6104bc60048036038101906104b7919061424b565b613282565b6040516104c9919061476e565b60405180910390f35b6104ec60048036038101906104e79190614ac1565b6132c1565b6040516104f99190614b19565b60405180910390f35b61051c60048036038101906105179190613976565b613334565b005b610538600480360381019061053391906146a3565b6136cc565b005b60608060606000806060868073ffffffffffffffffffffffffffffffffffffffff163373ffffffffffffffffffffffffffffffffffffffff16146105b3576040517f08c379a00000000000000000000000000000000000000000000000000000000081526004016105aa90614b80565b60405180910390fd5b87600073ffffffffffffffffffffffffffffffffffffffff166000808373ffffffffffffffffffffffffffffffffffffffff1673ffffffffffffffffffffffffffffffffffffffff16815260200190815260200160002060060160009054906101000a900473ffffffffffffffffffffffffffffffffffffffff1673ffffffffffffffffffffffffffffffffffffffff1603610684576040517f08c379a000000000000000000000000000000000000000000000000000000000815260040161067b90614bec565b60405180910390fd5b6000808a73ffffffffffffffffffffffffffffffffffffffff1673ffffffffffffffffffffffffffffffffffffffff1681526020019081526020016000206000016000808b73ffffffffffffffffffffffffffffffffffffffff1673ffffffffffffffffffffffffffffffffffffffff1681526020019081526020016000206001016000808c73ffffffffffffffffffffffffffffffffffffffff1673ffffffffffffffffffffffffffffffffffffffff1681526020019081526020016000206002016000808d73ffffffffffffffffffffffffffffffffffffffff1673ffffffffffffffffffffffffffffffffffffffff16815260200190815260200160002060060160009054906101000a900473ffffffffffffffffffffffffffffffffffffffff166000808e73ffffffffffffffffffffffffffffffffffffffff1673ffffffffffffffffffffffffffffffffffffffff168152602001908152602001600020600401546000808f73ffffffffffffffffffffffffffffffffffffffff1673ffffffffffffffffffffffffffffffffffffffff16815260200190815260200160002060030185805461083890614c3b565b80601f016020809104026020016040519081016040528092919081815260200182805461086490614c3b565b80156108b15780601f10610886576101008083540402835291602001916108b1565b820191906000526020600020905b81548152906001019060200180831161089457829003601f168201915b505050505095508480546108c490614c3b565b80601f01602080910402602001604051908101604052809291908181526020018280546108f090614c3b565b801561093d5780601f106109125761010080835404028352916020019161093d565b820191906000526020600020905b81548152906001019060200180831161092057829003601f168201915b5050505050945083805461095090614c3b565b80601f016020809104026020016040519081016040528092919081815260200182805461097c90614c3b565b80156109c95780601f1061099e576101008083540402835291602001916109c9565b820191906000526020600020905b8154815290600101906020018083116109ac57829003601f168201915b505050505093508080546109dc90614c3b565b80601f0160208091040260200160405190810160405280929190818152602001828054610a0890614c3b565b8015610a555780601f10610a2a57610100808354040283529160200191610a55565b820191906000526020600020905b815481529060010190602001808311610a3857829003601f168201915b50505050509050975097509750975097509750505091939550919395565b808073ffffffffffffffffffffffffffffffffffffffff163373ffffffffffffffffffffffffffffffffffffffff1614610ae2576040517f08c379a0000000000000000000000000000000000000000000000000000000008152600401610ad990614b80565b60405180910390fd5b600073ffffffffffffffffffffffffffffffffffffffff166000808473ffffffffffffffffffffffffffffffffffffffff1673ffffffffffffffffffffffffffffffffffffffff16815260200190815260200160002060060160009054906101000a900473ffffffffffffffffffffffffffffffffffffffff1673ffffffffffffffffffffffffffffffffffffffff1614610bb2576040517f08c379a0000000000000000000000000000000000000000000000000000000008152600401610ba990614cb8565b60405180910390fd5b60008060008473ffffffffffffffffffffffffffffffffffffffff1673ffffffffffffffffffffffffffffffffffffffff168152602001908152602001600020905086816000019081610c059190614e84565b5085816001019081610c179190614e84565b5084816002019081610c299190614e84565b5083816003019081610c3b9190614e84565b5060008160040181905550428160050181905550828160060160006101000a81548173ffffffffffffffffffffffffffffffffffffffff021916908373ffffffffffffffffffffffffffffffffffffffff1602179055506001839080600181540180825580915050600190039060005260206000200160009091909190916101000a81548173ffffffffffffffffffffffffffffffffffffffff021916908373ffffffffffffffffffffffffffffffffffffffff16021790555050505050505050565b606060008060008473ffffffffffffffffffffffffffffffffffffffff1673ffffffffffffffffffffffffffffffffffffffff1681526020019081526020016000206007018054905011610d87576040517f08c379a0000000000000000000000000000000000000000000000000000000008152600401610d7e90614fa2565b60405180910390fd5b60008060008473ffffffffffffffffffffffffffffffffffffffff1673ffffffffffffffffffffffffffffffffffffffff168152602001908152602001600020600701805480602002602001604051908101604052809291908181526020018280548015610e1457602002820191906000526020600020905b815481526020019060010190808311610e00575b505050505090506000815167ffffffffffffffff811115610e3857610e37613ae2565b5b604051908082528060200260200182016040528015610e7157816020015b610e5e61370d565b815260200190600190039081610e565790505b50905060005b82518110156112d85760026000848381518110610e9757610e96614fc2565b5b60200260200101518152602001908152602001600020604051806101a0016040529081600082018054610ec990614c3b565b80601f0160208091040260200160405190810160405280929190818152602001828054610ef590614c3b565b8015610f425780601f10610f1757610100808354040283529160200191610f42565b820191906000526020600020905b815481529060010190602001808311610f2557829003601f168201915b50505050508152602001600182018054610f5b90614c3b565b80601f0160208091040260200160405190810160405280929190818152602001828054610f8790614c3b565b8015610fd45780601f10610fa957610100808354040283529160200191610fd4565b820191906000526020600020905b815481529060010190602001808311610fb757829003601f168201915b50505050508152602001600282015481526020016003820160009054906101000a900473ffffffffffffffffffffffffffffffffffffffff1673ffffffffffffffffffffffffffffffffffffffff1673ffffffffffffffffffffffffffffffffffffffff1681526020016003820160149054906101000a900460ff16600481111561106257611061613d8c565b5b600481111561107457611073613d8c565b5b81526020016004820154815260200160058201548152602001600682015481526020016007820160009054906101000a900473ffffffffffffffffffffffffffffffffffffffff1673ffffffffffffffffffffffffffffffffffffffff1673ffffffffffffffffffffffffffffffffffffffff1681526020016008820180548060200260200160405190810160405280929190818152602001828054801561117157602002820191906000526020600020905b8160009054906101000a900473ffffffffffffffffffffffffffffffffffffffff1673ffffffffffffffffffffffffffffffffffffffff1681526020019060010190808311611127575b50505050508152602001600982018054806020026020016040519081016040528092919081815260200182805480156111ee57602002820191906000526020600020906000905b82829054906101000a900460ff161515815260200190600101906020826000010492830192600103820291508084116111b85790505b50505050508152602001600a820180548060200260200160405190810160405280929190818152602001828054801561124657602002820191906000526020600020905b815481526020019060010190808311611232575b50505050508152602001600b820180548060200260200160405190810160405280929190818152602001828054801561129e57602002820191906000526020600020905b81548152602001906001019080831161128a575b5050505050815250508282815181106112ba576112b9614fc2565b5b602002602001018190525080806112d090615020565b915050610e77565b508092505050919050565b606060006001805490501161132d576040517f08c379a0000000000000000000000000000000000000000000000000000000008152600401611324906150b4565b60405180910390fd5b600060035467ffffffffffffffff81111561134b5761134a613ae2565b5b60405190808252806020026020018201604052801561138457816020015b61137161370d565b8152602001906001900390816113695790505b50905060005b6003548110156117d25760026000828152602001908152602001600020604051806101a00160405290816000820180546113c390614c3b565b80601f01602080910402602001604051908101604052809291908181526020018280546113ef90614c3b565b801561143c5780601f106114115761010080835404028352916020019161143c565b820191906000526020600020905b81548152906001019060200180831161141f57829003601f168201915b5050505050815260200160018201805461145590614c3b565b80601f016020809104026020016040519081016040528092919081815260200182805461148190614c3b565b80156114ce5780601f106114a3576101008083540402835291602001916114ce565b820191906000526020600020905b8154815290600101906020018083116114b157829003601f168201915b50505050508152602001600282015481526020016003820160009054906101000a900473ffffffffffffffffffffffffffffffffffffffff1673ffffffffffffffffffffffffffffffffffffffff1673ffffffffffffffffffffffffffffffffffffffff1681526020016003820160149054906101000a900460ff16600481111561155c5761155b613d8c565b5b600481111561156e5761156d613d8c565b5b81526020016004820154815260200160058201548152602001600682015481526020016007820160009054906101000a900473ffffffffffffffffffffffffffffffffffffffff1673ffffffffffffffffffffffffffffffffffffffff1673ffffffffffffffffffffffffffffffffffffffff1681526020016008820180548060200260200160405190810160405280929190818152602001828054801561166b57602002820191906000526020600020905b8160009054906101000a900473ffffffffffffffffffffffffffffffffffffffff1673ffffffffffffffffffffffffffffffffffffffff1681526020019060010190808311611621575b50505050508152602001600982018054806020026020016040519081016040528092919081815260200182805480156116e857602002820191906000526020600020906000905b82829054906101000a900460ff161515815260200190600101906020826000010492830192600103820291508084116116b25790505b50505050508152602001600a820180548060200260200160405190810160405280929190818152602001828054801561174057602002820191906000526020600020905b81548152602001906001019080831161172c575b50505050508152602001600b820180548060200260200160405190810160405280929190818152602001828054801561179857602002820191906000526020600020905b815481526020019060010190808311611784575b5050505050815250508282815181106117b4576117b3614fc2565b5b602002602001018190525080806117ca90615020565b91505061138a565b508091505090565b60006002600083815260200190815260200160002090506118718160090180548060200260200160405190810160405280929190818152602001828054801561186757602002820191906000526020600020906000905b82829054906101000a900460ff161515815260200190600101906020826000010492830192600103820291508084116118315790505b50505050506132c1565b1561188257611881826001612d06565b5b5050565b600060026000838152602001908152602001600020600201549050919050565b60006002600083815260200190815260200160002060030160149054906101000a900460ff169050919050565b606060026000838152602001908152602001600020600b0180548060200260200160405190810160405280929190818152602001828054801561193557602002820191906000526020600020905b815481526020019060010190808311611921575b50505050509050919050565b600260205280600052604060002060009150905080600001805461196490614c3b565b80601f016020809104026020016040519081016040528092919081815260200182805461199090614c3b565b80156119dd5780601f106119b2576101008083540402835291602001916119dd565b820191906000526020600020905b8154815290600101906020018083116119c057829003601f168201915b5050505050908060010180546119f290614c3b565b80601f0160208091040260200160405190810160405280929190818152602001828054611a1e90614c3b565b8015611a6b5780601f10611a4057610100808354040283529160200191611a6b565b820191906000526020600020905b815481529060010190602001808311611a4e57829003601f168201915b5050505050908060020154908060030160009054906101000a900473ffffffffffffffffffffffffffffffffffffffff16908060030160149054906101000a900460ff16908060040154908060050154908060060154908060070160009054906101000a900473ffffffffffffffffffffffffffffffffffffffff16905089565b6000602052806000526040600020600091509050806000018054611b0f90614c3b565b80601f0160208091040260200160405190810160405280929190818152602001828054611b3b90614c3b565b8015611b885780601f10611b5d57610100808354040283529160200191611b88565b820191906000526020600020905b815481529060010190602001808311611b6b57829003601f168201915b505050505090806001018054611b9d90614c3b565b80601f0160208091040260200160405190810160405280929190818152602001828054611bc990614c3b565b8015611c165780601f10611beb57610100808354040283529160200191611c16565b820191906000526020600020905b815481529060010190602001808311611bf957829003601f168201915b505050505090806002018054611c2b90614c3b565b80601f0160208091040260200160405190810160405280929190818152602001828054611c5790614c3b565b8015611ca45780601f10611c7957610100808354040283529160200191611ca4565b820191906000526020600020905b815481529060010190602001808311611c8757829003601f168201915b505050505090806003018054611cb990614c3b565b80601f0160208091040260200160405190810160405280929190818152602001828054611ce590614c3b565b8015611d325780601f10611d0757610100808354040283529160200191611d32565b820191906000526020600020905b815481529060010190602001808311611d1557829003601f168201915b5050505050908060040154908060050154908060060160009054906101000a900473ffffffffffffffffffffffffffffffffffffffff16905087565b611d7661370d565b6000600260008481526020019081526020016000206002015411611dcf576040517f08c379a0000000000000000000000000000000000000000000000000000000008152600401611dc690615146565b60405180910390fd5b60026000838152602001908152602001600020604051806101a0016040529081600082018054611dfe90614c3b565b80601f0160208091040260200160405190810160405280929190818152602001828054611e2a90614c3b565b8015611e775780601f10611e4c57610100808354040283529160200191611e77565b820191906000526020600020905b815481529060010190602001808311611e5a57829003601f168201915b50505050508152602001600182018054611e9090614c3b565b80601f0160208091040260200160405190810160405280929190818152602001828054611ebc90614c3b565b8015611f095780601f10611ede57610100808354040283529160200191611f09565b820191906000526020600020905b815481529060010190602001808311611eec57829003601f168201915b50505050508152602001600282015481526020016003820160009054906101000a900473ffffffffffffffffffffffffffffffffffffffff1673ffffffffffffffffffffffffffffffffffffffff1673ffffffffffffffffffffffffffffffffffffffff1681526020016003820160149054906101000a900460ff166004811115611f9757611f96613d8c565b5b6004811115611fa957611fa8613d8c565b5b81526020016004820154815260200160058201548152602001600682015481526020016007820160009054906101000a900473ffffffffffffffffffffffffffffffffffffffff1673ffffffffffffffffffffffffffffffffffffffff1673ffffffffffffffffffffffffffffffffffffffff168152602001600882018054806020026020016040519081016040528092919081815260200182805480156120a657602002820191906000526020600020905b8160009054906101000a900473ffffffffffffffffffffffffffffffffffffffff1673ffffffffffffffffffffffffffffffffffffffff168152602001906001019080831161205c575b505050505081526020016009820180548060200260200160405190810160405280929190818152602001828054801561212357602002820191906000526020600020906000905b82829054906101000a900460ff161515815260200190600101906020826000010492830192600103820291508084116120ed5790505b50505050508152602001600a820180548060200260200160405190810160405280929190818152602001828054801561217b57602002820191906000526020600020905b815481526020019060010190808311612167575b50505050508152602001600b82018054806020026020016040519081016040528092919081815260200182805480156121d357602002820191906000526020600020905b8154815260200190600101908083116121bf575b5050505050815250509050919050565b81818173ffffffffffffffffffffffffffffffffffffffff166002600083815260200190815260200160002060030160009054906101000a900473ffffffffffffffffffffffffffffffffffffffff1673ffffffffffffffffffffffffffffffffffffffff1614612289576040517f08c379a0000000000000000000000000000000000000000000000000000000008152600401612280906151d8565b60405180910390fd5b60008060008673ffffffffffffffffffffffffffffffffffffffff1673ffffffffffffffffffffffffffffffffffffffff1681526020019081526020016000206007018054905011612310576040517f08c379a000000000000000000000000000000000000000000000000000000000815260040161230790614fa2565b60405180910390fd5b6000600260008581526020019081526020016000206002015411612369576040517f08c379a000000000000000000000000000000000000000000000000000000000815260040161236090615146565b60405180910390fd5b6000600481111561237d5761237c613d8c565b5b6002600085815260200190815260200160002060030160149054906101000a900460ff1660048111156123b3576123b2613d8c565b5b14806124065750600360048111156123ce576123cd613d8c565b5b6002600085815260200190815260200160002060030160149054906101000a900460ff16600481111561240457612403613d8c565b5b145b612445576040517f08c379a000000000000000000000000000000000000000000000000000000000815260040161243c90615244565b60405180910390fd5b60008060008673ffffffffffffffffffffffffffffffffffffffff1673ffffffffffffffffffffffffffffffffffffffff168152602001908152602001600020600701905060005b818054905081101561264357848282815481106124ad576124ac614fc2565b5b9060005260206000200154036126305760026000868152602001908152602001600020600080820160006124e191906137b3565b6001820160006124f191906137b3565b60028201600090556003820160006101000a81549073ffffffffffffffffffffffffffffffffffffffff02191690556003820160146101000a81549060ff02191690556004820160009055600582016000905560068201600090556007820160006101000a81549073ffffffffffffffffffffffffffffffffffffffff021916905560088201600061258391906137f3565b6009820160006125939190613814565b600a820160006125a3919061383c565b600b820160006125b3919061383c565b505081600183805490506125c79190615264565b815481106125d8576125d7614fc2565b5b90600052602060002001548282815481106125f6576125f5614fc2565b5b90600052602060002001819055508180548061261557612614615298565b5b60019003818190600052602060002001600090559055612643565b808061263b90615020565b91505061248d565b505050505050565b6060600060018054806020026020016040519081016040528092919081815260200182805480156126d157602002820191906000526020600020905b8160009054906101000a900473ffffffffffffffffffffffffffffffffffffffff1673ffffffffffffffffffffffffffffffffffffffff1681526020019060010190808311612687575b505050505090506000600190505b6001805490508110156128b35760005b8181101561289f5760008084838151811061270d5761270c614fc2565b5b602002602001015173ffffffffffffffffffffffffffffffffffffffff1673ffffffffffffffffffffffffffffffffffffffff1681526020019081526020016000206004015460008085858151811061276957612768614fc2565b5b602002602001015173ffffffffffffffffffffffffffffffffffffffff1673ffffffffffffffffffffffffffffffffffffffff16815260200190815260200160002060040154101561288c5760008383815181106127ca576127c9614fc2565b5b602002602001015190508382815181106127e7576127e6614fc2565b5b602002602001015184848151811061280257612801614fc2565b5b602002602001019073ffffffffffffffffffffffffffffffffffffffff16908173ffffffffffffffffffffffffffffffffffffffff1681525050808483815181106128505761284f614fc2565b5b602002602001019073ffffffffffffffffffffffffffffffffffffffff16908173ffffffffffffffffffffffffffffffffffffffff1681525050505b808061289790615020565b9150506126ef565b5080806128ab90615020565b9150506126df565b508091505090565b600060026000848152602001908152602001600020600b01905060005b81805490508110156129a057828282815481106128f8576128f7614fc2565b5b90600052602060002001540361298d57816001838054905061291a9190615264565b8154811061292b5761292a614fc2565b5b906000526020600020015482828154811061294957612948614fc2565b5b906000526020600020018190555081600183805490506129699190615264565b8154811061297a57612979614fc2565b5b90600052602060002001600090556129a0565b808061299890615020565b9150506128d8565b50505050565b808073ffffffffffffffffffffffffffffffffffffffff163373ffffffffffffffffffffffffffffffffffffffff1614612a15576040517f08c379a0000000000000000000000000000000000000000000000000000000008152600401612a0c90614b80565b60405180910390fd5b81600073ffffffffffffffffffffffffffffffffffffffff166000808373ffffffffffffffffffffffffffffffffffffffff1673ffffffffffffffffffffffffffffffffffffffff16815260200190815260200160002060060160009054906101000a900473ffffffffffffffffffffffffffffffffffffffff1673ffffffffffffffffffffffffffffffffffffffff1603612ae6576040517f08c379a0000000000000000000000000000000000000000000000000000000008152600401612add90614bec565b60405180910390fd5b60008060008573ffffffffffffffffffffffffffffffffffffffff1673ffffffffffffffffffffffffffffffffffffffff168152602001908152602001600020905085816000019081612b399190614e84565b5084816003019081612b4b9190614e84565b50505050505050565b60006002600083815260200190815260200160002060030160009054906101000a900473ffffffffffffffffffffffffffffffffffffffff169050919050565b600060026000838152602001908152602001600020600501549050919050565b60008060026000858152602001908152602001600020905060008160080180549050905060005b81811015612c72573373ffffffffffffffffffffffffffffffffffffffff16836008018281548110612c1057612c0f614fc2565b5b9060005260206000200160009054906101000a900473ffffffffffffffffffffffffffffffffffffffff1673ffffffffffffffffffffffffffffffffffffffff1603612c5f5760019350612c72565b8080612c6a90615020565b915050612bdb565b508215612cc457816009018490806001815401808255809150506001900390600052602060002090602091828204019190069091909190916101000a81548160ff021916908315150217905550612cff565b6040517f08c379a0000000000000000000000000000000000000000000000000000000008152600401612cf690615339565b60405180910390fd5b5050505050565b6000600260008481526020019081526020016000209050818160030160146101000a81548160ff02191690836004811115612d4457612d43613d8c565b5b0217905550505050565b858073ffffffffffffffffffffffffffffffffffffffff163373ffffffffffffffffffffffffffffffffffffffff1614612dbd576040517f08c379a0000000000000000000000000000000000000000000000000000000008152600401612db490614b80565b60405180910390fd5b600286612dca9190615388565b8773ffffffffffffffffffffffffffffffffffffffff16311015612e23576040517f08c379a0000000000000000000000000000000000000000000000000000000008152600401612e1a9061542b565b60405180910390fd5b6000600260006003548152602001908152602001600020905085816000019081612e4d9190614e84565b5084816001019081612e5f9190614e84565b5086816002018190555060008160030160146101000a81548160ff02191690836004811115612e9157612e90613d8c565b5b0217905550428160040181905550838160050181905550878160030160006101000a81548173ffffffffffffffffffffffffffffffffffffffff021916908373ffffffffffffffffffffffffffffffffffffffff160217905550308160070160006101000a81548173ffffffffffffffffffffffffffffffffffffffff021916908373ffffffffffffffffffffffffffffffffffffffff1602179055508281600601819055506000612f4161264b565b9050600081519050600a8111612f6f5781836008019080519060200190612f6992919061385d565b506130ec565b60005b600a8110156130ea576000803373ffffffffffffffffffffffffffffffffffffffff1673ffffffffffffffffffffffffffffffffffffffff16815260200190815260200160002060060160009054906101000a900473ffffffffffffffffffffffffffffffffffffffff1673ffffffffffffffffffffffffffffffffffffffff1683600183856130029190615264565b61300c9190615264565b8151811061301d5761301c614fc2565b5b602002602001015173ffffffffffffffffffffffffffffffffffffffff16146130d7578360080183600183856130539190615264565b61305d9190615264565b8151811061306e5761306d614fc2565b5b60200260200101519080600181540180825580915050600190039060005260206000200160009091909190916101000a81548173ffffffffffffffffffffffffffffffffffffffff021916908373ffffffffffffffffffffffffffffffffffffffff1602179055505b80806130e290615020565b915050612f72565b505b6000808b73ffffffffffffffffffffffffffffffffffffffff1673ffffffffffffffffffffffffffffffffffffffff16815260200190815260200160002060070160035490806001815401808255809150506001900390600052602060002001600090919091909150556003600081548092919061316990615020565b919050555050505050505050505050565b86868173ffffffffffffffffffffffffffffffffffffffff166002600083815260200190815260200160002060030160009054906101000a900473ffffffffffffffffffffffffffffffffffffffff1673ffffffffffffffffffffffffffffffffffffffff1614613220576040517f08c379a0000000000000000000000000000000000000000000000000000000008152600401613217906151d8565b60405180910390fd5b6000600260008a81526020019081526020016000209050878160020181905550868160000190816132519190614e84565b50858160010190816132639190614e84565b5084816005018190555083816006018190555050505050505050505050565b6001818154811061329257600080fd5b906000526020600020016000915054906101000a900473ffffffffffffffffffffffffffffffffffffffff1681565b6000806000905060005b8351811015613316578381815181106132e7576132e6614fc2565b5b6020026020010151156133035781806132ff90615020565b9250505b808061330e90615020565b9150506132cb565b506006811061332957600191505061332f565b60009150505b919050565b808073ffffffffffffffffffffffffffffffffffffffff163373ffffffffffffffffffffffffffffffffffffffff16146133a3576040517f08c379a000000000000000000000000000000000000000000000000000000000815260040161339a90614b80565b60405180910390fd5b81600073ffffffffffffffffffffffffffffffffffffffff166000808373ffffffffffffffffffffffffffffffffffffffff1673ffffffffffffffffffffffffffffffffffffffff16815260200190815260200160002060060160009054906101000a900473ffffffffffffffffffffffffffffffffffffffff1673ffffffffffffffffffffffffffffffffffffffff1603613474576040517f08c379a000000000000000000000000000000000000000000000000000000000815260040161346b90614bec565b60405180910390fd5b6000808473ffffffffffffffffffffffffffffffffffffffff1673ffffffffffffffffffffffffffffffffffffffff168152602001908152602001600020600080820160006134c391906137b3565b6001820160006134d391906137b3565b6002820160006134e391906137b3565b6003820160006134f391906137b3565b600482016000905560058201600090556006820160006101000a81549073ffffffffffffffffffffffffffffffffffffffff021916905560078201600061353a919061383c565b505060005b6001805490508110156136c6573373ffffffffffffffffffffffffffffffffffffffff166001828154811061357757613576614fc2565b5b9060005260206000200160009054906101000a900473ffffffffffffffffffffffffffffffffffffffff1673ffffffffffffffffffffffffffffffffffffffff16036136b35760018080805490506135cf9190615264565b815481106135e0576135df614fc2565b5b9060005260206000200160009054906101000a900473ffffffffffffffffffffffffffffffffffffffff166001828154811061361f5761361e614fc2565b5b9060005260206000200160006101000a81548173ffffffffffffffffffffffffffffffffffffffff021916908373ffffffffffffffffffffffffffffffffffffffff160217905550600180548061367957613678615298565b5b6001900381819060005260206000200160006101000a81549073ffffffffffffffffffffffffffffffffffffffff021916905590556136c6565b80806136be90615020565b91505061353f565b50505050565b60026000838152602001908152602001600020600b018190806001815401808255809150506001900390600052602060002001600090919091909150555050565b604051806101a00160405280606081526020016060815260200160008152602001600073ffffffffffffffffffffffffffffffffffffffff1681526020016000600481111561375f5761375e613d8c565b5b8152602001600081526020016000815260200160008152602001600073ffffffffffffffffffffffffffffffffffffffff168152602001606081526020016060815260200160608152602001606081525090565b5080546137bf90614c3b565b6000825580601f106137d157506137f0565b601f0160209004906000526020600020908101906137ef91906138e7565b5b50565b508054600082559060005260206000209081019061381191906138e7565b50565b50805460008255601f01602090049060005260206000209081019061383991906138e7565b50565b508054600082559060005260206000209081019061385a91906138e7565b50565b8280548282559060005260206000209081019282156138d6579160200282015b828111156138d55782518260006101000a81548173ffffffffffffffffffffffffffffffffffffffff021916908373ffffffffffffffffffffffffffffffffffffffff1602179055509160200191906001019061387d565b5b5090506138e391906138e7565b5090565b5b808211156139005760008160009055506001016138e8565b5090565b6000604051905090565b600080fd5b600080fd5b600073ffffffffffffffffffffffffffffffffffffffff82169050919050565b600061394382613918565b9050919050565b61395381613938565b811461395e57600080fd5b50565b6000813590506139708161394a565b92915050565b60006020828403121561398c5761398b61390e565b5b600061399a84828501613961565b91505092915050565b600081519050919050565b600082825260208201905092915050565b60005b838110156139dd5780820151818401526020810190506139c2565b60008484015250505050565b6000601f19601f8301169050919050565b6000613a05826139a3565b613a0f81856139ae565b9350613a1f8185602086016139bf565b613a28816139e9565b840191505092915050565b613a3c81613938565b82525050565b6000819050919050565b613a5581613a42565b82525050565b600060c0820190508181036000830152613a7581896139fa565b90508181036020830152613a8981886139fa565b90508181036040830152613a9d81876139fa565b9050613aac6060830186613a33565b613ab96080830185613a4c565b81810360a0830152613acb81846139fa565b9050979650505050505050565b600080fd5b600080fd5b7f4e487b7100000000000000000000000000000000000000000000000000000000600052604160045260246000fd5b613b1a826139e9565b810181811067ffffffffffffffff82111715613b3957613b38613ae2565b5b80604052505050565b6000613b4c613904565b9050613b588282613b11565b919050565b600067ffffffffffffffff821115613b7857613b77613ae2565b5b613b81826139e9565b9050602081019050919050565b82818337600083830152505050565b6000613bb0613bab84613b5d565b613b42565b905082815260208101848484011115613bcc57613bcb613add565b5b613bd7848285613b8e565b509392505050565b600082601f830112613bf457613bf3613ad8565b5b8135613c04848260208601613b9d565b91505092915050565b600080600080600060a08688031215613c2957613c2861390e565b5b600086013567ffffffffffffffff811115613c4757613c46613913565b5b613c5388828901613bdf565b955050602086013567ffffffffffffffff811115613c7457613c73613913565b5b613c8088828901613bdf565b945050604086013567ffffffffffffffff811115613ca157613ca0613913565b5b613cad88828901613bdf565b935050606086013567ffffffffffffffff811115613cce57613ccd613913565b5b613cda88828901613bdf565b9250506080613ceb88828901613961565b9150509295509295909350565b600081519050919050565b600082825260208201905092915050565b6000819050602082019050919050565b600082825260208201905092915050565b6000613d40826139a3565b613d4a8185613d24565b9350613d5a8185602086016139bf565b613d63816139e9565b840191505092915050565b613d7781613a42565b82525050565b613d8681613938565b82525050565b7f4e487b7100000000000000000000000000000000000000000000000000000000600052602160045260246000fd5b60058110613dcc57613dcb613d8c565b5b50565b6000819050613ddd82613dbb565b919050565b6000613ded82613dcf565b9050919050565b613dfd81613de2565b82525050565b600081519050919050565b600082825260208201905092915050565b6000819050602082019050919050565b6000613e3b8383613d7d565b60208301905092915050565b6000602082019050919050565b6000613e5f82613e03565b613e698185613e0e565b9350613e7483613e1f565b8060005b83811015613ea5578151613e8c8882613e2f565b9750613e9783613e47565b925050600181019050613e78565b5085935050505092915050565b600081519050919050565b600082825260208201905092915050565b6000819050602082019050919050565b60008115159050919050565b613ef381613ede565b82525050565b6000613f058383613eea565b60208301905092915050565b6000602082019050919050565b6000613f2982613eb2565b613f338185613ebd565b9350613f3e83613ece565b8060005b83811015613f6f578151613f568882613ef9565b9750613f6183613f11565b925050600181019050613f42565b5085935050505092915050565b600081519050919050565b600082825260208201905092915050565b6000819050602082019050919050565b6000613fb48383613d6e565b60208301905092915050565b6000602082019050919050565b6000613fd882613f7c565b613fe28185613f87565b9350613fed83613f98565b8060005b8381101561401e5781516140058882613fa8565b975061401083613fc0565b925050600181019050613ff1565b5085935050505092915050565b60006101a08301600083015184820360008601526140498282613d35565b915050602083015184820360208601526140638282613d35565b91505060408301516140786040860182613d6e565b50606083015161408b6060860182613d7d565b50608083015161409e6080860182613df4565b5060a08301516140b160a0860182613d6e565b5060c08301516140c460c0860182613d6e565b5060e08301516140d760e0860182613d6e565b506101008301516140ec610100860182613d7d565b506101208301518482036101208601526141068282613e54565b9150506101408301518482036101408601526141228282613f1e565b91505061016083015184820361016086015261413e8282613fcd565b91505061018083015184820361018086015261415a8282613fcd565b9150508091505092915050565b6000614173838361402b565b905092915050565b6000602082019050919050565b600061419382613cf8565b61419d8185613d03565b9350836020820285016141af85613d14565b8060005b858110156141eb57848403895281516141cc8582614167565b94506141d78361417b565b925060208a019950506001810190506141b3565b50829750879550505050505092915050565b600060208201905081810360008301526142178184614188565b905092915050565b61422881613a42565b811461423357600080fd5b50565b6000813590506142458161421f565b92915050565b6000602082840312156142615761426061390e565b5b600061426f84828501614236565b91505092915050565b600060208201905061428d6000830184613a4c565b92915050565b61429c81613de2565b82525050565b60006020820190506142b76000830184614293565b92915050565b600082825260208201905092915050565b60006142d982613f7c565b6142e381856142bd565b93506142ee83613f98565b8060005b8381101561431f5781516143068882613fa8565b975061431183613fc0565b9250506001810190506142f2565b5085935050505092915050565b6000602082019050818103600083015261434681846142ce565b905092915050565b6000610120820190508181036000830152614369818c6139fa565b9050818103602083015261437d818b6139fa565b905061438c604083018a613a4c565b6143996060830189613a33565b6143a66080830188614293565b6143b360a0830187613a4c565b6143c060c0830186613a4c565b6143cd60e0830185613a4c565b6143db610100830184613a33565b9a9950505050505050505050565b600060e0820190508181036000830152614403818a6139fa565b9050818103602083015261441781896139fa565b9050818103604083015261442b81886139fa565b9050818103606083015261443f81876139fa565b905061444e6080830186613a4c565b61445b60a0830185613a4c565b61446860c0830184613a33565b98975050505050505050565b60006101a08301600083015184820360008601526144928282613d35565b915050602083015184820360208601526144ac8282613d35565b91505060408301516144c16040860182613d6e565b5060608301516144d46060860182613d7d565b5060808301516144e76080860182613df4565b5060a08301516144fa60a0860182613d6e565b5060c083015161450d60c0860182613d6e565b5060e083015161452060e0860182613d6e565b50610100830151614535610100860182613d7d565b5061012083015184820361012086015261454f8282613e54565b91505061014083015184820361014086015261456b8282613f1e565b9150506101608301518482036101608601526145878282613fcd565b9150506101808301518482036101808601526145a38282613fcd565b9150508091505092915050565b600060208201905081810360008301526145ca8184614474565b905092915050565b600080604083850312156145e9576145e861390e565b5b60006145f785828601613961565b925050602061460885828601614236565b9150509250929050565b600082825260208201905092915050565b600061462e82613e03565b6146388185614612565b935061464383613e1f565b8060005b8381101561467457815161465b8882613e2f565b975061466683613e47565b925050600181019050614647565b5085935050505092915050565b6000602082019050818103600083015261469b8184614623565b905092915050565b600080604083850312156146ba576146b961390e565b5b60006146c885828601614236565b92505060206146d985828601614236565b9150509250929050565b6000806000606084860312156146fc576146fb61390e565b5b600084013567ffffffffffffffff81111561471a57614719613913565b5b61472686828701613bdf565b935050602084013567ffffffffffffffff81111561474757614746613913565b5b61475386828701613bdf565b925050604061476486828701613961565b9150509250925092565b60006020820190506147836000830184613a33565b92915050565b61479281613ede565b811461479d57600080fd5b50565b6000813590506147af81614789565b92915050565b600080604083850312156147cc576147cb61390e565b5b60006147da85828601614236565b92505060206147eb858286016147a0565b9150509250929050565b6005811061480257600080fd5b50565b600081359050614814816147f5565b92915050565b600080604083850312156148315761483061390e565b5b600061483f85828601614236565b925050602061485085828601614805565b9150509250929050565b60008060008060008060c087890312156148775761487661390e565b5b600061488589828a01613961565b965050602061489689828a01614236565b955050604087013567ffffffffffffffff8111156148b7576148b6613913565b5b6148c389828a01613bdf565b945050606087013567ffffffffffffffff8111156148e4576148e3613913565b5b6148f089828a01613bdf565b935050608061490189828a01614236565b92505060a061491289828a01614236565b9150509295509295509295565b600080600080600080600060e0888a03121561493e5761493d61390e565b5b600061494c8a828b01613961565b975050602061495d8a828b01614236565b965050604061496e8a828b01614236565b955050606088013567ffffffffffffffff81111561498f5761498e613913565b5b61499b8a828b01613bdf565b945050608088013567ffffffffffffffff8111156149bc576149bb613913565b5b6149c88a828b01613bdf565b93505060a06149d98a828b01614236565b92505060c06149ea8a828b01614236565b91505092959891949750929550565b600067ffffffffffffffff821115614a1457614a13613ae2565b5b602082029050602081019050919050565b600080fd5b6000614a3d614a38846149f9565b613b42565b90508083825260208201905060208402830185811115614a6057614a5f614a25565b5b835b81811015614a895780614a7588826147a0565b845260208401935050602081019050614a62565b5050509392505050565b600082601f830112614aa857614aa7613ad8565b5b8135614ab8848260208601614a2a565b91505092915050565b600060208284031215614ad757614ad661390e565b5b600082013567ffffffffffffffff811115614af557614af4613913565b5b614b0184828501614a93565b91505092915050565b614b1381613ede565b82525050565b6000602082019050614b2e6000830184614b0a565b92915050565b7f43616c6c6572206973206e6f74206f776e657200000000000000000000000000600082015250565b6000614b6a6013836139ae565b9150614b7582614b34565b602082019050919050565b60006020820190508181036000830152614b9981614b5d565b9050919050565b7f506172747920646f6573206e6f74206578697374000000000000000000000000600082015250565b6000614bd66014836139ae565b9150614be182614ba0565b602082019050919050565b60006020820190508181036000830152614c0581614bc9565b9050919050565b7f4e487b7100000000000000000000000000000000000000000000000000000000600052602260045260246000fd5b60006002820490506001821680614c5357607f821691505b602082108103614c6657614c65614c0c565b5b50919050565b7f506172747920616c726561647920657869737473000000000000000000000000600082015250565b6000614ca26014836139ae565b9150614cad82614c6c565b602082019050919050565b60006020820190508181036000830152614cd181614c95565b9050919050565b60008190508160005260206000209050919050565b60006020601f8301049050919050565b600082821b905092915050565b600060088302614d3a7fffffffffffffffffffffffffffffffffffffffffffffffffffffffffffffffff82614cfd565b614d448683614cfd565b95508019841693508086168417925050509392505050565b6000819050919050565b6000614d81614d7c614d7784613a42565b614d5c565b613a42565b9050919050565b6000819050919050565b614d9b83614d66565b614daf614da782614d88565b848454614d0a565b825550505050565b600090565b614dc4614db7565b614dcf818484614d92565b505050565b5b81811015614df357614de8600082614dbc565b600181019050614dd5565b5050565b601f821115614e3857614e0981614cd8565b614e1284614ced565b81016020851015614e21578190505b614e35614e2d85614ced565b830182614dd4565b50505b505050565b600082821c905092915050565b6000614e5b60001984600802614e3d565b1980831691505092915050565b6000614e748383614e4a565b9150826002028217905092915050565b614e8d826139a3565b67ffffffffffffffff811115614ea657614ea5613ae2565b5b614eb08254614c3b565b614ebb828285614df7565b600060209050601f831160018114614eee5760008415614edc578287015190505b614ee68582614e68565b865550614f4e565b601f198416614efc86614cd8565b60005b82811015614f2457848901518255600182019150602085019450602081019050614eff565b86831015614f415784890151614f3d601f891682614e4a565b8355505b6001600288020188555050505b505050505050565b7f4e6f2074656e6465727320657869737473000000000000000000000000000000600082015250565b6000614f8c6011836139ae565b9150614f9782614f56565b602082019050919050565b60006020820190508181036000830152614fbb81614f7f565b9050919050565b7f4e487b7100000000000000000000000000000000000000000000000000000000600052603260045260246000fd5b7f4e487b7100000000000000000000000000000000000000000000000000000000600052601160045260246000fd5b600061502b82613a42565b91507fffffffffffffffffffffffffffffffffffffffffffffffffffffffffffffffff820361505d5761505c614ff1565b5b600182019050919050565b7f4e6f207061727469657320657869737473000000000000000000000000000000600082015250565b600061509e6011836139ae565b91506150a982615068565b602082019050919050565b600060208201905081810360008301526150cd81615091565b9050919050565b7f74656e6465722077697468206164647265737320646f65736e2774206578697360008201527f7473000000000000000000000000000000000000000000000000000000000000602082015250565b60006151306022836139ae565b915061513b826150d4565b604082019050919050565b6000602082019050818103600083015261515f81615123565b9050919050565b7f796f75277265206e6f7420617574686f72697a656420746f20706572666f726d60008201527f207468697320616374696f6e0000000000000000000000000000000000000000602082015250565b60006151c2602c836139ae565b91506151cd82615166565b604082019050919050565b600060208201905081810360008301526151f1816151b5565b9050919050565b7f74656e6465722063616e6e6f742062652064656c657465640000000000000000600082015250565b600061522e6018836139ae565b9150615239826151f8565b602082019050919050565b6000602082019050818103600083015261525d81615221565b9050919050565b600061526f82613a42565b915061527a83613a42565b925082820390508181111561529257615291614ff1565b5b92915050565b7f4e487b7100000000000000000000000000000000000000000000000000000000600052603160045260246000fd5b7f596f75277265206e6f7420617574686f72697a656420746f2076616c6964617460008201527f6520746869732074656e6465722e000000000000000000000000000000000000602082015250565b6000615323602e836139ae565b915061532e826152c7565b604082019050919050565b6000602082019050818103600083015261535281615316565b9050919050565b7f4e487b7100000000000000000000000000000000000000000000000000000000600052601260045260246000fd5b600061539382613a42565b915061539e83613a42565b9250826153ae576153ad615359565b5b828204905092915050565b7f696e73756666696369656e742066756e647320746f206372656174652061207460008201527f656e646572000000000000000000000000000000000000000000000000000000602082015250565b60006154156025836139ae565b9150615420826153b9565b604082019050919050565b6000602082019050818103600083015261544481615408565b905091905056fea26469706673582212204af23a56108d57dd9f57a9f581f25c718e18eb73c5e40a75fdb9feef06356cdb64736f6c63430008130033",
  "immutableReferences": {},
  "source": "// SPDX-License-Identifier: UNLICENSED\r\n\r\n//the version of solidity that is compatible\r\nimport \"./PartyContract.sol\";\r\nenum TenderStatus{ NEW, OPEN, CLOSED, SUSPENDED, ASSIGNED } //created---OPEN, deadline crosses---CLOSED, project is assigned ---- ASSIGNED\r\n\r\npragma solidity ^0.8.0;\r\ncontract TenderContract is PartyContract{\r\n    // Tender Structure\r\n    struct Tender {\r\n        string title;\r\n        string description;\r\n        uint256 budget;\r\n        address issuerAddress;\r\n        TenderStatus tenderStatus; \r\n        uint256 createdAt;\r\n        uint256 deadline;\r\n        uint256 totalMilestones;\r\n        address tenderAddress;\r\n        address[] validatorsAddresses;\r\n        bool[] validationVotes;\r\n        uint256[] milestoneTimePeriods;\r\n        uint256[] bidIds;\r\n    }\r\n\r\n    mapping (uint256 => Tender) public tenders;\r\n    uint256 tenderCount = 0;\r\n\r\n    //setters and getter functions\r\n    function getBudget(uint256 _tenderId) public view returns(uint256){\r\n        return tenders[_tenderId].budget;\r\n    }\r\n\r\n    function getTenderStatus(uint256 _tenderId) public view returns(TenderStatus){\r\n        return tenders[_tenderId].tenderStatus;\r\n    }\r\n\r\n    function getDeadline(uint256 _tenderId) public view returns(uint256){\r\n            return tenders[_tenderId].deadline;\r\n    }\r\n\r\n    function getBidIds(uint256 _tenderId) public view returns(uint256[] memory){\r\n        return tenders[_tenderId].bidIds;\r\n    }\r\n\r\n    function getIssuerAddress(uint256 _tenderId) public view returns(address){\r\n        return tenders[_tenderId].issuerAddress;\r\n    }\r\n\r\n    function addBidId(uint256 _tenderId, uint256 bidId) public {\r\n        tenders[_tenderId].bidIds.push(bidId);\r\n    }\r\n\r\n    function deleteBidId(uint256 _tenderId, uint256 _bidId) public {\r\n        uint256[] storage tenderBidIds = tenders[_tenderId].bidIds;\r\n        for (uint i = 0; i < tenderBidIds.length; i++){\r\n            if(tenderBidIds[i] == _bidId){\r\n                tenderBidIds[i] = tenderBidIds[tenderBidIds.length - 1];\r\n                delete tenderBidIds[tenderBidIds.length - 1];\r\n                break;\r\n            }\r\n        }\r\n    }\r\n\r\n    // Function for creating a tender\r\n    function createTender(address _partyAddress, uint256 _budget, string memory _title, string memory _description, uint256 _deadline, uint256 _totalMilestones) isOwner(_partyAddress) public {\r\n        require(_partyAddress.balance >= _budget/2, \"insufficient funds to create a tender\");\r\n        Tender storage newTender = tenders[tenderCount];\r\n        newTender.title = _title;\r\n        newTender.description = _description;\r\n        newTender.budget = _budget;\r\n        newTender.tenderStatus = TenderStatus.NEW;\r\n        newTender.createdAt = block.timestamp;\r\n        newTender.deadline = _deadline;\r\n        newTender.issuerAddress = _partyAddress;\r\n        newTender.tenderAddress = address(this);\r\n        newTender.totalMilestones = _totalMilestones;\r\n        address[] memory sortedlist = sortByTrustScore();\r\n        uint len = sortedlist.length;\r\n        if(len<=10)\r\n        {\r\n            newTender.validatorsAddresses = sortedlist;\r\n        }\r\n        else\r\n        {\r\n            for(uint i=0; i<10; i++)\r\n            {\r\n                if(sortedlist[len-i-1] != parties[msg.sender].partyAddress)\r\n                {\r\n                    newTender.validatorsAddresses.push(sortedlist[len-i-1]);\r\n                }\r\n            }\r\n        }\r\n        parties[_partyAddress].tenderIds.push(tenderCount);\r\n        tenderCount++;\r\n    }\r\n\r\n    function sortByTrustScore() public view returns(address[] memory) {\r\n    address[] memory _party = partyAddresses;\r\n    for (uint i = 1; i < partyAddresses.length; i++)\r\n        for (uint j = 0; j < i; j++)\r\n            if (parties[_party[i]].trustScore < parties[_party[j]].trustScore) {\r\n                address x = _party[i];\r\n                _party[i] = _party[j];\r\n                _party[j] = x;\r\n            }\r\n\r\n    return _party;\r\n    }\r\n\r\n    function validate(uint256 _tenderAddress, bool _vote) public {\r\n        bool valid = false;\r\n        Tender storage newTender = tenders[_tenderAddress];\r\n        uint len = newTender.validatorsAddresses.length;\r\n        for(uint i=0; i<len; i++)\r\n        {\r\n            if(newTender.validatorsAddresses[i] == msg.sender)\r\n            {\r\n                valid = true;\r\n                break;\r\n            }\r\n        }\r\n        if(valid)\r\n        {\r\n            newTender.validationVotes.push(_vote);\r\n        }\r\n        else\r\n        {\r\n            revert(\"You're not authorized to validate this tender.\");\r\n        }\r\n    }\r\n\r\n    function checkTenderValidation(uint256 _tenderAddress) public {\r\n        Tender storage newTender = tenders[_tenderAddress];\r\n        if(isValid(newTender.validationVotes)) {\r\n            updateTenderStatus(_tenderAddress, TenderStatus.OPEN);\r\n        }\r\n    }\r\n    \r\n    function isValid(bool[] memory _validationVotes) public pure returns (bool) {\r\n        uint voteCount = 0;\r\n        for(uint i=0; i<_validationVotes.length; i++)\r\n        {\r\n            if(_validationVotes[i])\r\n            {\r\n                voteCount++;\r\n            }\r\n        }\r\n\r\n        if(voteCount>=6)\r\n        {\r\n            return true;\r\n        }\r\n        return false;\r\n    }\r\n\r\n    function getAllTenders() public view returns (Tender[] memory){\r\n        require(partyAddresses.length > 0, \"No parties exists\");\r\n        Tender[] memory tendersList = new Tender[](tenderCount);\r\n        for (uint256 i = 0; i < tenderCount; i++) {\r\n            tendersList[i] = tenders[i];\r\n        }\r\n        return(tendersList);\r\n    }\r\n\r\n    function getMyTenders(address _partyAddress) public view returns ( Tender[] memory){\r\n        require(parties[_partyAddress].tenderIds.length > 0, \"No tenders exists\");\r\n        uint256[] memory partyTenderIds = parties[_partyAddress].tenderIds;\r\n        Tender[] memory tendersList = new Tender[](partyTenderIds.length);\r\n        for (uint256 i = 0; i < partyTenderIds.length; i++) {\r\n            tendersList[i] = tenders[partyTenderIds[i]];\r\n        }\r\n        return(tendersList);\r\n    }\r\n\r\n    function getTenderDetails(uint256 _tenderAddress) public view returns ( Tender memory){\r\n        require(tenders[_tenderAddress].budget > 0 , \"tender with address doesn't exists\");\r\n        return(tenders[_tenderAddress]);\r\n    }\r\n\r\n    function updateTenderStatus(uint256 _tenderAddress, TenderStatus _tenderStatus) public {\r\n        Tender storage updatedTender = tenders[_tenderAddress];\r\n        updatedTender.tenderStatus = _tenderStatus;\r\n    }\r\n\r\n    function updateTender(address _partyAddress, uint256 _tenderAddress, uint256 _budget, string memory _title, string memory _description, uint256 _deadline, uint256 _totalMilestones) public isTenderOwner(_partyAddress, _tenderAddress){\r\n        Tender storage updatedTender = tenders[_tenderAddress];\r\n        updatedTender.budget = _budget;\r\n        updatedTender.title = _title;\r\n        updatedTender.description = _description;\r\n        updatedTender.deadline = _deadline;\r\n        updatedTender.totalMilestones = _totalMilestones;\r\n    }\r\n\r\n    function deleteTender(address _partyAddress, uint256 _tenderAddress) public isTenderOwner(_partyAddress, _tenderAddress){ \r\n        require(parties[_partyAddress].tenderIds.length > 0, \"No tenders exists\");\r\n        require(tenders[_tenderAddress].budget > 0 , \"tender with address doesn't exists\");\r\n        require(tenders[_tenderAddress].tenderStatus == TenderStatus.NEW ||\r\n                tenders[_tenderAddress].tenderStatus == TenderStatus.SUSPENDED , \"tender cannot be deleted\");\r\n        uint256[] storage _tenderIds = parties[_partyAddress].tenderIds;\r\n        for (uint i = 0; i < _tenderIds.length; i++){\r\n            if(_tenderIds[i] == _tenderAddress){\r\n                delete tenders[_tenderAddress];\r\n                _tenderIds[i] = _tenderIds[_tenderIds.length - 1];\r\n                _tenderIds.pop();\r\n                break;\r\n            }\r\n        }\r\n    }\r\n\r\n    // @todo - add modifer for above functions\r\n\r\n    modifier isTenderOwner(address _partyAddress, uint256 _tenderAddress) {\r\n        require(tenders[_tenderAddress].issuerAddress == _partyAddress, \"you're not authorized to perform this action\");\r\n        _;\r\n    }\r\n\r\n    \r\n}",
  "sourcePath": "C:\\Users\\sabba\\OneDrive\\Documents\\BlockchainProject\\blockchain-based-contracting-system\\contracts\\TenderContract.sol",
  "compiler": {
    "name": "solc",
    "version": "0.8.19+commit.7dd6d404.Emscripten.clang"
  },
  "schemaVersion": "3.4.13",
  "updatedAt": "2023-04-11T12:12:29.427Z",
  "networkType": "ethereum",
  "devdoc": {
    "kind": "dev",
    "methods": {},
    "version": 1
  },
  "userdoc": {
    "kind": "user",
    "methods": {},
    "version": 1
  }
}