{
  "contractName": "TenderContract",
  "abi": [
    {
      "inputs": [],
      "stateMutability": "nonpayable",
      "type": "constructor"
    },
    {
      "inputs": [],
      "name": "admin",
      "outputs": [
        {
          "internalType": "address",
          "name": "",
          "type": "address"
        }
      ],
      "stateMutability": "view",
      "type": "function",
      "constant": true
    },
    {
      "inputs": [
        {
          "internalType": "string",
          "name": "_name",
          "type": "string"
        },
        {
          "internalType": "string",
          "name": "_contactNumber",
          "type": "string"
        },
        {
          "internalType": "string",
          "name": "_email",
          "type": "string"
        },
        {
          "internalType": "string",
          "name": "_password",
          "type": "string"
        },
        {
          "internalType": "address",
          "name": "_partyAddress",
          "type": "address"
        }
      ],
      "name": "createParty",
      "outputs": [],
      "stateMutability": "nonpayable",
      "type": "function"
    },
    {
      "inputs": [
        {
          "internalType": "address",
          "name": "_partyAddress",
          "type": "address"
        }
      ],
      "name": "deleteParty",
      "outputs": [],
      "stateMutability": "nonpayable",
      "type": "function"
    },
    {
      "inputs": [
        {
          "internalType": "address",
          "name": "_partyAddress",
          "type": "address"
        }
      ],
      "name": "getPartyDetails",
      "outputs": [
        {
          "internalType": "string",
          "name": "",
          "type": "string"
        },
        {
          "internalType": "string",
          "name": "",
          "type": "string"
        },
        {
          "internalType": "string",
          "name": "",
          "type": "string"
        },
        {
          "internalType": "address",
          "name": "",
          "type": "address"
        },
        {
          "internalType": "uint256",
          "name": "",
          "type": "uint256"
        },
        {
          "internalType": "string",
          "name": "",
          "type": "string"
        }
      ],
      "stateMutability": "view",
      "type": "function",
      "constant": true
    },
    {
      "inputs": [
        {
          "internalType": "address",
          "name": "_partyAddress",
          "type": "address"
        }
      ],
      "name": "getTrustScore",
      "outputs": [
        {
          "internalType": "uint256",
          "name": "",
          "type": "uint256"
        }
      ],
      "stateMutability": "view",
      "type": "function",
      "constant": true
    },
    {
      "inputs": [
        {
          "internalType": "address",
          "name": "",
          "type": "address"
        }
      ],
      "name": "parties",
      "outputs": [
        {
          "internalType": "string",
          "name": "name",
          "type": "string"
        },
        {
          "internalType": "string",
          "name": "contactNumber",
          "type": "string"
        },
        {
          "internalType": "string",
          "name": "email",
          "type": "string"
        },
        {
          "internalType": "string",
          "name": "password",
          "type": "string"
        },
        {
          "internalType": "uint256",
          "name": "trustScore",
          "type": "uint256"
        },
        {
          "internalType": "uint256",
          "name": "createdAt",
          "type": "uint256"
        },
        {
          "internalType": "address",
          "name": "partyAddress",
          "type": "address"
        },
        {
          "internalType": "uint256",
          "name": "freezedBalance",
          "type": "uint256"
        }
      ],
      "stateMutability": "view",
      "type": "function",
      "constant": true
    },
    {
      "inputs": [
        {
          "internalType": "uint256",
          "name": "",
          "type": "uint256"
        }
      ],
      "name": "partyAddresses",
      "outputs": [
        {
          "internalType": "address",
          "name": "",
          "type": "address"
        }
      ],
      "stateMutability": "view",
      "type": "function",
      "constant": true
    },
    {
      "inputs": [
        {
          "internalType": "address",
          "name": "_partyAddress",
          "type": "address"
        },
        {
          "internalType": "uint256",
          "name": "_trustScore",
          "type": "uint256"
        }
      ],
      "name": "setTrustScore",
      "outputs": [],
      "stateMutability": "nonpayable",
      "type": "function"
    },
    {
      "inputs": [
        {
          "internalType": "uint256",
          "name": "",
          "type": "uint256"
        }
      ],
      "name": "tenders",
      "outputs": [
        {
          "internalType": "string",
          "name": "title",
          "type": "string"
        },
        {
          "internalType": "string",
          "name": "description",
          "type": "string"
        },
        {
          "internalType": "uint256",
          "name": "budget",
          "type": "uint256"
        },
        {
          "internalType": "address",
          "name": "issuerAddress",
          "type": "address"
        },
        {
          "internalType": "enum TenderStatus",
          "name": "tenderStatus",
          "type": "uint8"
        },
        {
          "internalType": "uint256",
          "name": "createdAt",
          "type": "uint256"
        },
        {
          "internalType": "uint256",
          "name": "deadline",
          "type": "uint256"
        },
        {
          "internalType": "uint256",
          "name": "totalMilestones",
          "type": "uint256"
        },
        {
          "internalType": "uint256",
          "name": "tenderId",
          "type": "uint256"
        },
        {
          "internalType": "uint256",
          "name": "balance",
          "type": "uint256"
        }
      ],
      "stateMutability": "view",
      "type": "function",
      "constant": true
    },
    {
      "inputs": [],
      "name": "tokenRef",
      "outputs": [
        {
          "internalType": "contract Token",
          "name": "",
          "type": "address"
        }
      ],
      "stateMutability": "view",
      "type": "function",
      "constant": true
    },
    {
      "inputs": [
        {
          "internalType": "string",
          "name": "_name",
          "type": "string"
        },
        {
          "internalType": "string",
          "name": "_password",
          "type": "string"
        },
        {
          "internalType": "address",
          "name": "_partyAddress",
          "type": "address"
        }
      ],
      "name": "updateParty",
      "outputs": [],
      "stateMutability": "nonpayable",
      "type": "function"
    },
    {
      "inputs": [],
      "name": "getTenderCount",
      "outputs": [
        {
          "internalType": "uint256",
          "name": "",
          "type": "uint256"
        }
      ],
      "stateMutability": "view",
      "type": "function",
      "constant": true
    },
    {
      "inputs": [
        {
          "internalType": "uint256",
          "name": "_tenderId",
          "type": "uint256"
        }
      ],
      "name": "getValidators",
      "outputs": [
        {
          "internalType": "address[]",
          "name": "",
          "type": "address[]"
        }
      ],
      "stateMutability": "view",
      "type": "function",
      "constant": true
    },
    {
      "inputs": [
        {
          "internalType": "uint256",
          "name": "_tenderId",
          "type": "uint256"
        }
      ],
      "name": "getTotalProjectDays",
      "outputs": [
        {
          "internalType": "uint256",
          "name": "",
          "type": "uint256"
        }
      ],
      "stateMutability": "view",
      "type": "function",
      "constant": true
    },
    {
      "inputs": [
        {
          "internalType": "uint256",
          "name": "_tenderId",
          "type": "uint256"
        }
      ],
      "name": "getBudget",
      "outputs": [
        {
          "internalType": "uint256",
          "name": "",
          "type": "uint256"
        }
      ],
      "stateMutability": "view",
      "type": "function",
      "constant": true
    },
    {
      "inputs": [
        {
          "internalType": "uint256",
          "name": "_tenderId",
          "type": "uint256"
        }
      ],
      "name": "getTenderStatus",
      "outputs": [
        {
          "internalType": "enum TenderStatus",
          "name": "",
          "type": "uint8"
        }
      ],
      "stateMutability": "view",
      "type": "function",
      "constant": true
    },
    {
      "inputs": [
        {
          "internalType": "uint256",
          "name": "_tenderId",
          "type": "uint256"
        }
      ],
      "name": "getDeadline",
      "outputs": [
        {
          "internalType": "uint256",
          "name": "",
          "type": "uint256"
        }
      ],
      "stateMutability": "view",
      "type": "function",
      "constant": true
    },
    {
      "inputs": [
        {
          "internalType": "uint256",
          "name": "_tenderId",
          "type": "uint256"
        }
      ],
      "name": "getBidIds",
      "outputs": [
        {
          "internalType": "uint256[]",
          "name": "",
          "type": "uint256[]"
        }
      ],
      "stateMutability": "view",
      "type": "function",
      "constant": true
    },
    {
      "inputs": [
        {
          "internalType": "uint256",
          "name": "_tenderId",
          "type": "uint256"
        }
      ],
      "name": "getIssuerAddress",
      "outputs": [
        {
          "internalType": "address",
          "name": "",
          "type": "address"
        }
      ],
      "stateMutability": "view",
      "type": "function",
      "constant": true
    },
    {
      "inputs": [
        {
          "internalType": "uint256",
          "name": "_tenderId",
          "type": "uint256"
        }
      ],
      "name": "getTotalMilestones",
      "outputs": [
        {
          "internalType": "uint256",
          "name": "",
          "type": "uint256"
        }
      ],
      "stateMutability": "view",
      "type": "function",
      "constant": true
    },
    {
      "inputs": [
        {
          "internalType": "uint256",
          "name": "_tenderId",
          "type": "uint256"
        }
      ],
      "name": "getBidsCount",
      "outputs": [
        {
          "internalType": "uint256",
          "name": "",
          "type": "uint256"
        }
      ],
      "stateMutability": "view",
      "type": "function",
      "constant": true
    },
    {
      "inputs": [
        {
          "internalType": "uint256",
          "name": "_tenderId",
          "type": "uint256"
        },
        {
          "internalType": "uint256",
          "name": "bidId",
          "type": "uint256"
        }
      ],
      "name": "addBidId",
      "outputs": [],
      "stateMutability": "nonpayable",
      "type": "function"
    },
    {
      "inputs": [
        {
          "internalType": "uint256[]",
          "name": "_tenderBidIds",
          "type": "uint256[]"
        },
        {
          "internalType": "uint256",
          "name": "_tenderId",
          "type": "uint256"
        }
      ],
      "name": "setBidIds",
      "outputs": [],
      "stateMutability": "nonpayable",
      "type": "function"
    },
    {
      "inputs": [
        {
          "internalType": "address",
          "name": "_partyAddress",
          "type": "address"
        },
        {
          "internalType": "uint256",
          "name": "_budget",
          "type": "uint256"
        },
        {
          "internalType": "string",
          "name": "_title",
          "type": "string"
        },
        {
          "internalType": "string",
          "name": "_description",
          "type": "string"
        },
        {
          "internalType": "uint256",
          "name": "_deadline",
          "type": "uint256"
        },
        {
          "internalType": "uint256",
          "name": "_totalMilestones",
          "type": "uint256"
        }
      ],
      "name": "createTender",
      "outputs": [],
      "stateMutability": "nonpayable",
      "type": "function"
    },
    {
      "inputs": [],
      "name": "sortByTrustScore",
      "outputs": [
        {
          "internalType": "address[]",
          "name": "",
          "type": "address[]"
        }
      ],
      "stateMutability": "view",
      "type": "function",
      "constant": true
    },
    {
      "inputs": [
        {
          "internalType": "uint256",
          "name": "_tenderId",
          "type": "uint256"
        },
        {
          "internalType": "bool",
          "name": "_vote",
          "type": "bool"
        }
      ],
      "name": "validate",
      "outputs": [],
      "stateMutability": "nonpayable",
      "type": "function"
    },
    {
      "inputs": [
        {
          "internalType": "uint256",
          "name": "_tenderId",
          "type": "uint256"
        }
      ],
      "name": "checkTenderValidation",
      "outputs": [],
      "stateMutability": "nonpayable",
      "type": "function"
    },
    {
      "inputs": [
        {
          "internalType": "bool[]",
          "name": "_validationVotes",
          "type": "bool[]"
        }
      ],
      "name": "isValid",
      "outputs": [
        {
          "internalType": "bool",
          "name": "",
          "type": "bool"
        }
      ],
      "stateMutability": "pure",
      "type": "function",
      "constant": true
    },
    {
      "inputs": [
        {
          "internalType": "address",
          "name": "_partyAddress",
          "type": "address"
        }
      ],
      "name": "getTendersToValidate",
      "outputs": [
        {
          "internalType": "uint256[]",
          "name": "",
          "type": "uint256[]"
        }
      ],
      "stateMutability": "view",
      "type": "function",
      "constant": true
    },
    {
      "inputs": [],
      "name": "getAllActiveTenders",
      "outputs": [
        {
          "components": [
            {
              "internalType": "string",
              "name": "title",
              "type": "string"
            },
            {
              "internalType": "string",
              "name": "description",
              "type": "string"
            },
            {
              "internalType": "uint256",
              "name": "budget",
              "type": "uint256"
            },
            {
              "internalType": "address",
              "name": "issuerAddress",
              "type": "address"
            },
            {
              "internalType": "enum TenderStatus",
              "name": "tenderStatus",
              "type": "uint8"
            },
            {
              "internalType": "uint256",
              "name": "createdAt",
              "type": "uint256"
            },
            {
              "internalType": "uint256",
              "name": "deadline",
              "type": "uint256"
            },
            {
              "internalType": "uint256",
              "name": "totalMilestones",
              "type": "uint256"
            },
            {
              "internalType": "uint256",
              "name": "tenderId",
              "type": "uint256"
            },
            {
              "internalType": "address[]",
              "name": "validatorsAddresses",
              "type": "address[]"
            },
            {
              "internalType": "bool[]",
              "name": "validationVotes",
              "type": "bool[]"
            },
            {
              "internalType": "uint256[]",
              "name": "milestoneTimePeriods",
              "type": "uint256[]"
            },
            {
              "internalType": "uint256[]",
              "name": "bidIds",
              "type": "uint256[]"
            },
            {
              "internalType": "uint256",
              "name": "balance",
              "type": "uint256"
            }
          ],
          "internalType": "struct TenderContract.Tender[]",
          "name": "",
          "type": "tuple[]"
        },
        {
          "internalType": "uint256",
          "name": "",
          "type": "uint256"
        }
      ],
      "stateMutability": "view",
      "type": "function",
      "constant": true
    },
    {
      "inputs": [
        {
          "internalType": "address",
          "name": "_partyAddress",
          "type": "address"
        }
      ],
      "name": "getMyTenders",
      "outputs": [
        {
          "components": [
            {
              "internalType": "string",
              "name": "title",
              "type": "string"
            },
            {
              "internalType": "string",
              "name": "description",
              "type": "string"
            },
            {
              "internalType": "uint256",
              "name": "budget",
              "type": "uint256"
            },
            {
              "internalType": "address",
              "name": "issuerAddress",
              "type": "address"
            },
            {
              "internalType": "enum TenderStatus",
              "name": "tenderStatus",
              "type": "uint8"
            },
            {
              "internalType": "uint256",
              "name": "createdAt",
              "type": "uint256"
            },
            {
              "internalType": "uint256",
              "name": "deadline",
              "type": "uint256"
            },
            {
              "internalType": "uint256",
              "name": "totalMilestones",
              "type": "uint256"
            },
            {
              "internalType": "uint256",
              "name": "tenderId",
              "type": "uint256"
            },
            {
              "internalType": "address[]",
              "name": "validatorsAddresses",
              "type": "address[]"
            },
            {
              "internalType": "bool[]",
              "name": "validationVotes",
              "type": "bool[]"
            },
            {
              "internalType": "uint256[]",
              "name": "milestoneTimePeriods",
              "type": "uint256[]"
            },
            {
              "internalType": "uint256[]",
              "name": "bidIds",
              "type": "uint256[]"
            },
            {
              "internalType": "uint256",
              "name": "balance",
              "type": "uint256"
            }
          ],
          "internalType": "struct TenderContract.Tender[]",
          "name": "",
          "type": "tuple[]"
        }
      ],
      "stateMutability": "view",
      "type": "function",
      "constant": true
    },
    {
      "inputs": [
        {
          "internalType": "uint256",
          "name": "_tenderId",
          "type": "uint256"
        }
      ],
      "name": "getTenderDetails",
      "outputs": [
        {
          "components": [
            {
              "internalType": "string",
              "name": "title",
              "type": "string"
            },
            {
              "internalType": "string",
              "name": "description",
              "type": "string"
            },
            {
              "internalType": "uint256",
              "name": "budget",
              "type": "uint256"
            },
            {
              "internalType": "address",
              "name": "issuerAddress",
              "type": "address"
            },
            {
              "internalType": "enum TenderStatus",
              "name": "tenderStatus",
              "type": "uint8"
            },
            {
              "internalType": "uint256",
              "name": "createdAt",
              "type": "uint256"
            },
            {
              "internalType": "uint256",
              "name": "deadline",
              "type": "uint256"
            },
            {
              "internalType": "uint256",
              "name": "totalMilestones",
              "type": "uint256"
            },
            {
              "internalType": "uint256",
              "name": "tenderId",
              "type": "uint256"
            },
            {
              "internalType": "address[]",
              "name": "validatorsAddresses",
              "type": "address[]"
            },
            {
              "internalType": "bool[]",
              "name": "validationVotes",
              "type": "bool[]"
            },
            {
              "internalType": "uint256[]",
              "name": "milestoneTimePeriods",
              "type": "uint256[]"
            },
            {
              "internalType": "uint256[]",
              "name": "bidIds",
              "type": "uint256[]"
            },
            {
              "internalType": "uint256",
              "name": "balance",
              "type": "uint256"
            }
          ],
          "internalType": "struct TenderContract.Tender",
          "name": "",
          "type": "tuple"
        }
      ],
      "stateMutability": "view",
      "type": "function",
      "constant": true
    },
    {
      "inputs": [
        {
          "internalType": "uint256",
          "name": "_tenderId",
          "type": "uint256"
        },
        {
          "internalType": "enum TenderStatus",
          "name": "_tenderStatus",
          "type": "uint8"
        }
      ],
      "name": "updateTenderStatus",
      "outputs": [],
      "stateMutability": "nonpayable",
      "type": "function"
    },
    {
      "inputs": [
        {
          "internalType": "address",
          "name": "_partyAddress",
          "type": "address"
        },
        {
          "internalType": "uint256",
          "name": "_tenderId",
          "type": "uint256"
        },
        {
          "internalType": "uint256",
          "name": "_budget",
          "type": "uint256"
        },
        {
          "internalType": "string",
          "name": "_title",
          "type": "string"
        },
        {
          "internalType": "string",
          "name": "_description",
          "type": "string"
        },
        {
          "internalType": "uint256",
          "name": "_deadline",
          "type": "uint256"
        },
        {
          "internalType": "uint256",
          "name": "_totalMilestones",
          "type": "uint256"
        }
      ],
      "name": "updateTender",
      "outputs": [],
      "stateMutability": "nonpayable",
      "type": "function"
    },
    {
      "inputs": [
        {
          "internalType": "address",
          "name": "_partyAddress",
          "type": "address"
        },
        {
          "internalType": "uint256",
          "name": "_tenderId",
          "type": "uint256"
        }
      ],
      "name": "deleteTender",
      "outputs": [],
      "stateMutability": "nonpayable",
      "type": "function"
    }
  ],
  "bytecode": "0x60806040526032600455600060065534801561001a57600080fd5b50615d87806200002b6000396000f3fe608060405234801561001057600080fd5b50600436106102105760003560e01c80635850b38311610125578063bac2e80d116100ad578063ef8c03911161007c578063ef8c0391146106cf578063f1d8ef4d146106eb578063f851a44014610707578063fd7b91b614610725578063feec47581461075557610210565b8063bac2e80d14610623578063c792d8fd1461063f578063ccfa858e1461066f578063e2e5384d1461069f57610210565b806382862275116100f45780638286227514610583578063897bb979146105b357806397ef4e3e146105cf578063aaaf4188146105eb578063b2a88f6f1461060757610210565b80635850b383146104e95780635e09eea1146105075780637a0c7d39146105375780637e4d2d971461055357610210565b80633d818b31116101a8578063471f40fb11610177578063471f40fb146104185780634f2352071461044857806353ee895d1461047f57806355e8dea2146104af578063564abc25146104cb57610210565b80633d818b31146103605780634008f9c01461037f57806342222a43146103af578063465e1def146103df57610210565b806329c350f1116101e457806329c350f1146102c65780632e4ea4c4146102e257806333bec83714610312578063354133f71461033057610210565b8062da72281461021557806314ac201b1461024a578063171fd8481461027a578063228becb614610296575b600080fd5b61022f600480360381019061022a9190614041565b610771565b60405161024196959493929190614126565b60405180910390f35b610264600480360381019061025f91906141cf565b610caa565b60405161027191906141fc565b60405180910390f35b610294600480360381019061028f919061434c565b610d72565b005b6102b060048036038101906102ab9190614041565b61105f565b6040516102bd9190614951565b60405180910390f35b6102e060048036038101906102db91906141cf565b611602565b005b6102fc60048036038101906102f791906141cf565b6116ae565b60405161030991906141fc565b60405180910390f35b61031a6116ce565b60405161032791906149d2565b60405180910390f35b61034a600480360381019061034591906141cf565b6116f4565b60405161035791906149fc565b60405180910390f35b610368611721565b604051610376929190614a17565b60405180910390f35b610399600480360381019061039491906141cf565b611c38565b6040516103a691906141fc565b60405180910390f35b6103c960048036038101906103c491906141cf565b611c5b565b6040516103d69190614ab6565b60405180910390f35b6103f960048036038101906103f491906141cf565b611cc9565b60405161040f9a99989796959493929190614ad8565b60405180910390f35b610432600480360381019061042d91906141cf565b611e5a565b60405161043f9190614bf1565b60405180910390f35b610462600480360381019061045d9190614041565b611efe565b604051610476989796959493929190614c13565b60405180910390f35b610499600480360381019061049491906141cf565b612186565b6040516104a69190614dfe565b60405180910390f35b6104c960048036038101906104c49190614e20565b6125b9565b005b6104d36129b8565b6040516104e09190614bf1565b60405180910390f35b6104f1612c28565b6040516104fe91906141fc565b60405180910390f35b610521600480360381019061051c9190614041565b612c32565b60405161052e91906141fc565b60405180910390f35b610551600480360381019061054c9190614e60565b612c7d565b005b61056d600480360381019061056891906141cf565b612e2b565b60405161057a9190614eeb565b60405180910390f35b61059d600480360381019061059891906141cf565b612e6b565b6040516105aa91906141fc565b60405180910390f35b6105cd60048036038101906105c89190614fce565b612e8b565b005b6105e960048036038101906105e49190615056565b612ef6565b005b610605600480360381019061060091906150bb565b61304f565b005b610621600480360381019061061c91906150fb565b613097565b005b61063d600480360381019061063891906151c0565b613511565b005b610659600480360381019061065491906141cf565b6137d5565b6040516106669190614eeb565b60405180910390f35b6106896004803603810190610684919061535d565b613814565b60405161069691906153b5565b60405180910390f35b6106b960048036038101906106b491906141cf565b61389a565b6040516106c691906141fc565b60405180910390f35b6106e960048036038101906106e49190614041565b6138ba565b005b610705600480360381019061070091906153d0565b613c6a565b005b61070f613cab565b60405161071c9190614eeb565b60405180910390f35b61073f600480360381019061073a9190614041565b613cd1565b60405161074c9190614ab6565b60405180910390f35b61076f600480360381019061076a9190614e20565b613dda565b005b60608060606000806060868073ffffffffffffffffffffffffffffffffffffffff163373ffffffffffffffffffffffffffffffffffffffff16146107ea576040517f08c379a00000000000000000000000000000000000000000000000000000000081526004016107e19061545c565b60405180910390fd5b87600073ffffffffffffffffffffffffffffffffffffffff166000808373ffffffffffffffffffffffffffffffffffffffff1673ffffffffffffffffffffffffffffffffffffffff16815260200190815260200160002060060160009054906101000a900473ffffffffffffffffffffffffffffffffffffffff1673ffffffffffffffffffffffffffffffffffffffff16036108bb576040517f08c379a00000000000000000000000000000000000000000000000000000000081526004016108b2906154c8565b60405180910390fd5b6000808a73ffffffffffffffffffffffffffffffffffffffff1673ffffffffffffffffffffffffffffffffffffffff1681526020019081526020016000206000016000808b73ffffffffffffffffffffffffffffffffffffffff1673ffffffffffffffffffffffffffffffffffffffff1681526020019081526020016000206001016000808c73ffffffffffffffffffffffffffffffffffffffff1673ffffffffffffffffffffffffffffffffffffffff1681526020019081526020016000206002016000808d73ffffffffffffffffffffffffffffffffffffffff1673ffffffffffffffffffffffffffffffffffffffff16815260200190815260200160002060060160009054906101000a900473ffffffffffffffffffffffffffffffffffffffff166000808e73ffffffffffffffffffffffffffffffffffffffff1673ffffffffffffffffffffffffffffffffffffffff168152602001908152602001600020600401546000808f73ffffffffffffffffffffffffffffffffffffffff1673ffffffffffffffffffffffffffffffffffffffff168152602001908152602001600020600301858054610a6f90615517565b80601f0160208091040260200160405190810160405280929190818152602001828054610a9b90615517565b8015610ae85780601f10610abd57610100808354040283529160200191610ae8565b820191906000526020600020905b815481529060010190602001808311610acb57829003601f168201915b50505050509550848054610afb90615517565b80601f0160208091040260200160405190810160405280929190818152602001828054610b2790615517565b8015610b745780601f10610b4957610100808354040283529160200191610b74565b820191906000526020600020905b815481529060010190602001808311610b5757829003601f168201915b50505050509450838054610b8790615517565b80601f0160208091040260200160405190810160405280929190818152602001828054610bb390615517565b8015610c005780601f10610bd557610100808354040283529160200191610c00565b820191906000526020600020905b815481529060010190602001808311610be357829003601f168201915b50505050509350808054610c1390615517565b80601f0160208091040260200160405190810160405280929190818152602001828054610c3f90615517565b8015610c8c5780601f10610c6157610100808354040283529160200191610c8c565b820191906000526020600020905b815481529060010190602001808311610c6f57829003601f168201915b50505050509050975097509750975097509750505091939550919395565b60008060009050600060056000858152602001908152602001600020600a01805480602002602001604051908101604052809291908181526020018280548015610d1357602002820191906000526020600020905b815481526020019060010190808311610cff575b5050505050905060008151905060005b81811015610d6657828181518110610d3e57610d3d615548565b5b602002602001015184610d5191906155a6565b93508080610d5e906155da565b915050610d23565b50829350505050919050565b808073ffffffffffffffffffffffffffffffffffffffff163373ffffffffffffffffffffffffffffffffffffffff1614610de1576040517f08c379a0000000000000000000000000000000000000000000000000000000008152600401610dd89061545c565b60405180910390fd5b600073ffffffffffffffffffffffffffffffffffffffff166000808473ffffffffffffffffffffffffffffffffffffffff1673ffffffffffffffffffffffffffffffffffffffff16815260200190815260200160002060060160009054906101000a900473ffffffffffffffffffffffffffffffffffffffff1673ffffffffffffffffffffffffffffffffffffffff1614610eb1576040517f08c379a0000000000000000000000000000000000000000000000000000000008152600401610ea89061566e565b60405180910390fd5b60008060008473ffffffffffffffffffffffffffffffffffffffff1673ffffffffffffffffffffffffffffffffffffffff168152602001908152602001600020905086816000019081610f049190615830565b5085816001019081610f169190615830565b5084816002019081610f289190615830565b5083816003019081610f3a9190615830565b5060008160040181905550428160050181905550828160060160006101000a81548173ffffffffffffffffffffffffffffffffffffffff021916908373ffffffffffffffffffffffffffffffffffffffff160217905550600067ffffffffffffffff811115610fac57610fab614221565b5b604051908082528060200260200182016040528015610fda5781602001602082028036833780820191505090505b50816007019080519060200190610ff2929190613e24565b506001839080600181540180825580915050600190039060005260206000200160009091909190916101000a81548173ffffffffffffffffffffffffffffffffffffffff021916908373ffffffffffffffffffffffffffffffffffffffff16021790555050505050505050565b606060008060008473ffffffffffffffffffffffffffffffffffffffff1673ffffffffffffffffffffffffffffffffffffffff16815260200190815260200160002060070180549050116110e8576040517f08c379a00000000000000000000000000000000000000000000000000000000081526004016110df9061594e565b60405180910390fd5b60008060008473ffffffffffffffffffffffffffffffffffffffff1673ffffffffffffffffffffffffffffffffffffffff16815260200190815260200160002060070180548060200260200160405190810160405280929190818152602001828054801561117557602002820191906000526020600020905b815481526020019060010190808311611161575b505050505090506000815167ffffffffffffffff81111561119957611198614221565b5b6040519080825280602002602001820160405280156111d257816020015b6111bf613e71565b8152602001906001900390816111b75790505b50905060005b82518110156115f757600560008483815181106111f8576111f7615548565b5b60200260200101518152602001908152602001600020604051806101c001604052908160008201805461122a90615517565b80601f016020809104026020016040519081016040528092919081815260200182805461125690615517565b80156112a35780601f10611278576101008083540402835291602001916112a3565b820191906000526020600020905b81548152906001019060200180831161128657829003601f168201915b505050505081526020016001820180546112bc90615517565b80601f01602080910402602001604051908101604052809291908181526020018280546112e890615517565b80156113355780601f1061130a57610100808354040283529160200191611335565b820191906000526020600020905b81548152906001019060200180831161131857829003601f168201915b50505050508152602001600282015481526020016003820160009054906101000a900473ffffffffffffffffffffffffffffffffffffffff1673ffffffffffffffffffffffffffffffffffffffff1673ffffffffffffffffffffffffffffffffffffffff1681526020016003820160149054906101000a900460ff1660048111156113c3576113c26144cb565b5b60048111156113d5576113d46144cb565b5b8152602001600482015481526020016005820154815260200160068201548152602001600782015481526020016008820180548060200260200160405190810160405280929190818152602001828054801561148657602002820191906000526020600020905b8160009054906101000a900473ffffffffffffffffffffffffffffffffffffffff1673ffffffffffffffffffffffffffffffffffffffff168152602001906001019080831161143c575b505050505081526020016009820180548060200260200160405190810160405280929190818152602001828054801561150357602002820191906000526020600020906000905b82829054906101000a900460ff161515815260200190600101906020826000010492830192600103820291508084116114cd5790505b50505050508152602001600a820180548060200260200160405190810160405280929190818152602001828054801561155b57602002820191906000526020600020905b815481526020019060010190808311611547575b50505050508152602001600b82018054806020026020016040519081016040528092919081815260200182805480156115b357602002820191906000526020600020905b81548152602001906001019080831161159f575b50505050508152602001600c820154815250508282815181106115d9576115d8615548565b5b602002602001018190525080806115ef906155da565b9150506111d8565b508092505050919050565b60006005600083815260200190815260200160002090506116998160090180548060200260200160405190810160405280929190818152602001828054801561168f57602002820191906000526020600020906000905b82829054906101000a900460ff161515815260200190600101906020826000010492830192600103820291508084116116595790505b5050505050613814565b156116aa576116a982600161304f565b5b5050565b600060056000838152602001908152602001600020600201549050919050565b600360009054906101000a900473ffffffffffffffffffffffffffffffffffffffff1681565b60006005600083815260200190815260200160002060030160149054906101000a900460ff169050919050565b606060008060065411611769576040517f08c379a00000000000000000000000000000000000000000000000000000000081526004016117609061594e565b60405180910390fd5b60008060065467ffffffffffffffff81111561178857611787614221565b5b6040519080825280602002602001820160405280156117c157816020015b6117ae613e71565b8152602001906001900390816117a65790505b50905060005b600654811015611c2b57600160048111156117e5576117e46144cb565b5b6005600083815260200190815260200160002060030160149054906101000a900460ff16600481111561181b5761181a6144cb565b5b03611c185760056000828152602001908152602001600020604051806101c001604052908160008201805461184f90615517565b80601f016020809104026020016040519081016040528092919081815260200182805461187b90615517565b80156118c85780601f1061189d576101008083540402835291602001916118c8565b820191906000526020600020905b8154815290600101906020018083116118ab57829003601f168201915b505050505081526020016001820180546118e190615517565b80601f016020809104026020016040519081016040528092919081815260200182805461190d90615517565b801561195a5780601f1061192f5761010080835404028352916020019161195a565b820191906000526020600020905b81548152906001019060200180831161193d57829003601f168201915b50505050508152602001600282015481526020016003820160009054906101000a900473ffffffffffffffffffffffffffffffffffffffff1673ffffffffffffffffffffffffffffffffffffffff1673ffffffffffffffffffffffffffffffffffffffff1681526020016003820160149054906101000a900460ff1660048111156119e8576119e76144cb565b5b60048111156119fa576119f96144cb565b5b81526020016004820154815260200160058201548152602001600682015481526020016007820154815260200160088201805480602002602001604051908101604052809291908181526020018280548015611aab57602002820191906000526020600020905b8160009054906101000a900473ffffffffffffffffffffffffffffffffffffffff1673ffffffffffffffffffffffffffffffffffffffff1681526020019060010190808311611a61575b5050505050815260200160098201805480602002602001604051908101604052809291908181526020018280548015611b2857602002820191906000526020600020906000905b82829054906101000a900460ff16151581526020019060010190602082600001049283019260010382029150808411611af25790505b50505050508152602001600a8201805480602002602001604051908101604052809291908181526020018280548015611b8057602002820191906000526020600020905b815481526020019060010190808311611b6c575b50505050508152602001600b8201805480602002602001604051908101604052809291908181526020018280548015611bd857602002820191906000526020600020905b815481526020019060010190808311611bc4575b50505050508152602001600c82015481525050828281518110611bfe57611bfd615548565b5b60200260200101819052508280611c14906155da565b9350505b8080611c23906155da565b9150506117c7565b5080829350935050509091565b600060056000838152602001908152602001600020600b01805490509050919050565b606060056000838152602001908152602001600020600b01805480602002602001604051908101604052809291908181526020018280548015611cbd57602002820191906000526020600020905b815481526020019060010190808311611ca9575b50505050509050919050565b6005602052806000526040600020600091509050806000018054611cec90615517565b80601f0160208091040260200160405190810160405280929190818152602001828054611d1890615517565b8015611d655780601f10611d3a57610100808354040283529160200191611d65565b820191906000526020600020905b815481529060010190602001808311611d4857829003601f168201915b505050505090806001018054611d7a90615517565b80601f0160208091040260200160405190810160405280929190818152602001828054611da690615517565b8015611df35780601f10611dc857610100808354040283529160200191611df3565b820191906000526020600020905b815481529060010190602001808311611dd657829003601f168201915b5050505050908060020154908060030160009054906101000a900473ffffffffffffffffffffffffffffffffffffffff16908060030160149054906101000a900460ff169080600401549080600501549080600601549080600701549080600c015490508a565b606060056000838152602001908152602001600020600801805480602002602001604051908101604052809291908181526020018280548015611ef257602002820191906000526020600020905b8160009054906101000a900473ffffffffffffffffffffffffffffffffffffffff1673ffffffffffffffffffffffffffffffffffffffff1681526020019060010190808311611ea8575b50505050509050919050565b6000602052806000526040600020600091509050806000018054611f2190615517565b80601f0160208091040260200160405190810160405280929190818152602001828054611f4d90615517565b8015611f9a5780601f10611f6f57610100808354040283529160200191611f9a565b820191906000526020600020905b815481529060010190602001808311611f7d57829003601f168201915b505050505090806001018054611faf90615517565b80601f0160208091040260200160405190810160405280929190818152602001828054611fdb90615517565b80156120285780601f10611ffd57610100808354040283529160200191612028565b820191906000526020600020905b81548152906001019060200180831161200b57829003601f168201915b50505050509080600201805461203d90615517565b80601f016020809104026020016040519081016040528092919081815260200182805461206990615517565b80156120b65780601f1061208b576101008083540402835291602001916120b6565b820191906000526020600020905b81548152906001019060200180831161209957829003601f168201915b5050505050908060030180546120cb90615517565b80601f01602080910402602001604051908101604052809291908181526020018280546120f790615517565b80156121445780601f1061211957610100808354040283529160200191612144565b820191906000526020600020905b81548152906001019060200180831161212757829003601f168201915b5050505050908060040154908060050154908060060160009054906101000a900473ffffffffffffffffffffffffffffffffffffffff16908060080154905088565b61218e613e71565b60006005600084815260200190815260200160002060020154116121e7576040517f08c379a00000000000000000000000000000000000000000000000000000000081526004016121de906159e0565b60405180910390fd5b60056000838152602001908152602001600020604051806101c001604052908160008201805461221690615517565b80601f016020809104026020016040519081016040528092919081815260200182805461224290615517565b801561228f5780601f106122645761010080835404028352916020019161228f565b820191906000526020600020905b81548152906001019060200180831161227257829003601f168201915b505050505081526020016001820180546122a890615517565b80601f01602080910402602001604051908101604052809291908181526020018280546122d490615517565b80156123215780601f106122f657610100808354040283529160200191612321565b820191906000526020600020905b81548152906001019060200180831161230457829003601f168201915b50505050508152602001600282015481526020016003820160009054906101000a900473ffffffffffffffffffffffffffffffffffffffff1673ffffffffffffffffffffffffffffffffffffffff1673ffffffffffffffffffffffffffffffffffffffff1681526020016003820160149054906101000a900460ff1660048111156123af576123ae6144cb565b5b60048111156123c1576123c06144cb565b5b8152602001600482015481526020016005820154815260200160068201548152602001600782015481526020016008820180548060200260200160405190810160405280929190818152602001828054801561247257602002820191906000526020600020905b8160009054906101000a900473ffffffffffffffffffffffffffffffffffffffff1673ffffffffffffffffffffffffffffffffffffffff1681526020019060010190808311612428575b50505050508152602001600982018054806020026020016040519081016040528092919081815260200182805480156124ef57602002820191906000526020600020906000905b82829054906101000a900460ff161515815260200190600101906020826000010492830192600103820291508084116124b95790505b50505050508152602001600a820180548060200260200160405190810160405280929190818152602001828054801561254757602002820191906000526020600020905b815481526020019060010190808311612533575b50505050508152602001600b820180548060200260200160405190810160405280929190818152602001828054801561259f57602002820191906000526020600020905b81548152602001906001019080831161258b575b50505050508152602001600c820154815250509050919050565b81818173ffffffffffffffffffffffffffffffffffffffff166005600083815260200190815260200160002060030160009054906101000a900473ffffffffffffffffffffffffffffffffffffffff1673ffffffffffffffffffffffffffffffffffffffff161461265f576040517f08c379a000000000000000000000000000000000000000000000000000000000815260040161265690615a72565b60405180910390fd5b60008060008673ffffffffffffffffffffffffffffffffffffffff1673ffffffffffffffffffffffffffffffffffffffff16815260200190815260200160002060070180549050116126e6576040517f08c379a00000000000000000000000000000000000000000000000000000000081526004016126dd9061594e565b60405180910390fd5b600060056000858152602001908152602001600020600201541161273f576040517f08c379a0000000000000000000000000000000000000000000000000000000008152600401612736906159e0565b60405180910390fd5b60006004811115612753576127526144cb565b5b6005600085815260200190815260200160002060030160149054906101000a900460ff166004811115612789576127886144cb565b5b146127c9576040517f08c379a00000000000000000000000000000000000000000000000000000000081526004016127c090615ade565b60405180910390fd5b60008060008673ffffffffffffffffffffffffffffffffffffffff1673ffffffffffffffffffffffffffffffffffffffff168152602001908152602001600020600701905060005b81805490508110156129b0578482828154811061283157612830615548565b5b90600052602060002001540361299d5760056000868152602001908152602001600020600080820160006128659190613f08565b6001820160006128759190613f08565b60028201600090556003820160006101000a81549073ffffffffffffffffffffffffffffffffffffffff02191690556003820160146101000a81549060ff021916905560048201600090556005820160009055600682016000905560078201600090556008820160006128e89190613f48565b6009820160006128f89190613f69565b600a820160006129089190613f91565b600b820160006129189190613f91565b600c820160009055505081600183805490506129349190615afe565b8154811061294557612944615548565b5b906000526020600020015482828154811061296357612962615548565b5b90600052602060002001819055508180548061298257612981615b32565b5b600190038181906000526020600020016000905590556129b0565b80806129a8906155da565b915050612811565b505050505050565b606060006001805480602002602001604051908101604052809291908181526020018280548015612a3e57602002820191906000526020600020905b8160009054906101000a900473ffffffffffffffffffffffffffffffffffffffff1673ffffffffffffffffffffffffffffffffffffffff16815260200190600101908083116129f4575b505050505090506000600190505b600180549050811015612c205760005b81811015612c0c57600080848381518110612a7a57612a79615548565b5b602002602001015173ffffffffffffffffffffffffffffffffffffffff1673ffffffffffffffffffffffffffffffffffffffff16815260200190815260200160002060040154600080858581518110612ad657612ad5615548565b5b602002602001015173ffffffffffffffffffffffffffffffffffffffff1673ffffffffffffffffffffffffffffffffffffffff168152602001908152602001600020600401541015612bf9576000838381518110612b3757612b36615548565b5b60200260200101519050838281518110612b5457612b53615548565b5b6020026020010151848481518110612b6f57612b6e615548565b5b602002602001019073ffffffffffffffffffffffffffffffffffffffff16908173ffffffffffffffffffffffffffffffffffffffff168152505080848381518110612bbd57612bbc615548565b5b602002602001019073ffffffffffffffffffffffffffffffffffffffff16908173ffffffffffffffffffffffffffffffffffffffff1681525050505b8080612c04906155da565b915050612a5c565b508080612c18906155da565b915050612a4c565b508091505090565b6000600654905090565b60008060008373ffffffffffffffffffffffffffffffffffffffff1673ffffffffffffffffffffffffffffffffffffffff168152602001908152602001600020600401549050919050565b808073ffffffffffffffffffffffffffffffffffffffff163373ffffffffffffffffffffffffffffffffffffffff1614612cec576040517f08c379a0000000000000000000000000000000000000000000000000000000008152600401612ce39061545c565b60405180910390fd5b81600073ffffffffffffffffffffffffffffffffffffffff166000808373ffffffffffffffffffffffffffffffffffffffff1673ffffffffffffffffffffffffffffffffffffffff16815260200190815260200160002060060160009054906101000a900473ffffffffffffffffffffffffffffffffffffffff1673ffffffffffffffffffffffffffffffffffffffff1603612dbd576040517f08c379a0000000000000000000000000000000000000000000000000000000008152600401612db4906154c8565b60405180910390fd5b60008060008573ffffffffffffffffffffffffffffffffffffffff1673ffffffffffffffffffffffffffffffffffffffff168152602001908152602001600020905085816000019081612e109190615830565b5084816003019081612e229190615830565b50505050505050565b60006005600083815260200190815260200160002060030160009054906101000a900473ffffffffffffffffffffffffffffffffffffffff169050919050565b600060056000838152602001908152602001600020600501549050919050565b8160056000838152602001908152602001600020600b019080519060200190612eb5929190613e24565b5060056000828152602001908152602001600020600b01805480612edc57612edb615b32565b5b600190038181906000526020600020016000905590555050565b60008060056000858152602001908152602001600020905060008160080180549050905060005b81811015612fb4573373ffffffffffffffffffffffffffffffffffffffff16836008018281548110612f5257612f51615548565b5b9060005260206000200160009054906101000a900473ffffffffffffffffffffffffffffffffffffffff1673ffffffffffffffffffffffffffffffffffffffff1603612fa15760019350612fb4565b8080612fac906155da565b915050612f1d565b50821561300d57831561300857816009018490806001815401808255809150506001900390600052602060002090602091828204019190069091909190916101000a81548160ff0219169083151502179055505b613048565b6040517f08c379a000000000000000000000000000000000000000000000000000000000815260040161303f90615bd3565b60405180910390fd5b5050505050565b6000600560008481526020019081526020016000209050818160030160146101000a81548160ff0219169083600481111561308d5761308c6144cb565b5b0217905550505050565b858073ffffffffffffffffffffffffffffffffffffffff163373ffffffffffffffffffffffffffffffffffffffff1614613106576040517f08c379a00000000000000000000000000000000000000000000000000000000081526004016130fd9061545c565b60405180910390fd5b6002866131139190615c22565b8773ffffffffffffffffffffffffffffffffffffffff1631101561316c576040517f08c379a000000000000000000000000000000000000000000000000000000000815260040161316390615cc5565b60405180910390fd5b60006005600060065481526020019081526020016000209050858160000190816131969190615830565b50848160010190816131a89190615830565b5086816002018190555060008160030160146101000a81548160ff021916908360048111156131da576131d96144cb565b5b0217905550428160040181905550838160050181905550878160030160006101000a81548173ffffffffffffffffffffffffffffffffffffffff021916908373ffffffffffffffffffffffffffffffffffffffff160217905550600654816007018190555082816006018190555060006132526129b8565b90506000815190506000600a821061326b57600a61326d565b815b91505b81811015613482576000803373ffffffffffffffffffffffffffffffffffffffff1673ffffffffffffffffffffffffffffffffffffffff16815260200190815260200160002060060160009054906101000a900473ffffffffffffffffffffffffffffffffffffffff1673ffffffffffffffffffffffffffffffffffffffff1683600183856132ff9190615afe565b6133099190615afe565b8151811061331a57613319615548565b5b602002602001015173ffffffffffffffffffffffffffffffffffffffff161461347d578360080183600183856133509190615afe565b61335a9190615afe565b8151811061336b5761336a615548565b5b60200260200101519080600181540180825580915050600190039060005260206000200160009091909190916101000a81548173ffffffffffffffffffffffffffffffffffffffff021916908373ffffffffffffffffffffffffffffffffffffffff16021790555060008084600184866133e59190615afe565b6133ef9190615afe565b81518110613400576133ff615548565b5b602002602001015173ffffffffffffffffffffffffffffffffffffffff1673ffffffffffffffffffffffffffffffffffffffff16815260200190815260200160002060090160065490806001815401808255809150506001900390600052602060002001600090919091909150558080613479906155da565b9150505b613270565b6000808c73ffffffffffffffffffffffffffffffffffffffff1673ffffffffffffffffffffffffffffffffffffffff1681526020019081526020016000206007016006549080600181540180825580915050600190039060005260206000200160009091909190915055600660008154809291906134ff906155da565b91905055505050505050505050505050565b86868173ffffffffffffffffffffffffffffffffffffffff166005600083815260200190815260200160002060030160009054906101000a900473ffffffffffffffffffffffffffffffffffffffff1673ffffffffffffffffffffffffffffffffffffffff16146135b7576040517f08c379a00000000000000000000000000000000000000000000000000000000081526004016135ae90615a72565b60405180910390fd5b60008060008b73ffffffffffffffffffffffffffffffffffffffff1673ffffffffffffffffffffffffffffffffffffffff168152602001908152602001600020600701805490501161363e576040517f08c379a00000000000000000000000000000000000000000000000000000000081526004016136359061594e565b60405180910390fd5b6000600560008a81526020019081526020016000206002015411613697576040517f08c379a000000000000000000000000000000000000000000000000000000000815260040161368e906159e0565b60405180910390fd5b600060048111156136ab576136aa6144cb565b5b600560008a815260200190815260200160002060030160149054906101000a900460ff1660048111156136e1576136e06144cb565b5b14806137345750600360048111156136fc576136fb6144cb565b5b600560008a815260200190815260200160002060030160149054906101000a900460ff166004811115613732576137316144cb565b5b145b613773576040517f08c379a000000000000000000000000000000000000000000000000000000000815260040161376a90615d31565b60405180910390fd5b6000600560008a81526020019081526020016000209050878160020181905550868160000190816137a49190615830565b50858160010190816137b69190615830565b5084816005018190555083816006018190555050505050505050505050565b600181815481106137e557600080fd5b906000526020600020016000915054906101000a900473ffffffffffffffffffffffffffffffffffffffff1681565b6000806000905060008351905060005b8181101561386e5784818151811061383f5761383e615548565b5b60200260200101511561385b578280613857906155da565b9350505b8080613866906155da565b915050613824565b5060028161387c9190615c22565b82111561388e57600192505050613895565b6000925050505b919050565b600060056000838152602001908152602001600020600601549050919050565b808073ffffffffffffffffffffffffffffffffffffffff163373ffffffffffffffffffffffffffffffffffffffff1614613929576040517f08c379a00000000000000000000000000000000000000000000000000000000081526004016139209061545c565b60405180910390fd5b81600073ffffffffffffffffffffffffffffffffffffffff166000808373ffffffffffffffffffffffffffffffffffffffff1673ffffffffffffffffffffffffffffffffffffffff16815260200190815260200160002060060160009054906101000a900473ffffffffffffffffffffffffffffffffffffffff1673ffffffffffffffffffffffffffffffffffffffff16036139fa576040517f08c379a00000000000000000000000000000000000000000000000000000000081526004016139f1906154c8565b60405180910390fd5b6000808473ffffffffffffffffffffffffffffffffffffffff1673ffffffffffffffffffffffffffffffffffffffff16815260200190815260200160002060008082016000613a499190613f08565b600182016000613a599190613f08565b600282016000613a699190613f08565b600382016000613a799190613f08565b600482016000905560058201600090556006820160006101000a81549073ffffffffffffffffffffffffffffffffffffffff0219169055600782016000613ac09190613f91565b6008820160009055600982016000613ad89190613f91565b505060005b600180549050811015613c64573373ffffffffffffffffffffffffffffffffffffffff1660018281548110613b1557613b14615548565b5b9060005260206000200160009054906101000a900473ffffffffffffffffffffffffffffffffffffffff1673ffffffffffffffffffffffffffffffffffffffff1603613c51576001808080549050613b6d9190615afe565b81548110613b7e57613b7d615548565b5b9060005260206000200160009054906101000a900473ffffffffffffffffffffffffffffffffffffffff1660018281548110613bbd57613bbc615548565b5b9060005260206000200160006101000a81548173ffffffffffffffffffffffffffffffffffffffff021916908373ffffffffffffffffffffffffffffffffffffffff1602179055506001805480613c1757613c16615b32565b5b6001900381819060005260206000200160006101000a81549073ffffffffffffffffffffffffffffffffffffffff02191690559055613c64565b8080613c5c906155da565b915050613add565b50505050565b60056000838152602001908152602001600020600b018190806001815401808255809150506001900390600052602060002001600090919091909150555050565b600260009054906101000a900473ffffffffffffffffffffffffffffffffffffffff1681565b6060818073ffffffffffffffffffffffffffffffffffffffff163373ffffffffffffffffffffffffffffffffffffffff1614613d42576040517f08c379a0000000000000000000000000000000000000000000000000000000008152600401613d399061545c565b60405180910390fd5b6000808473ffffffffffffffffffffffffffffffffffffffff1673ffffffffffffffffffffffffffffffffffffffff168152602001908152602001600020600901805480602002602001604051908101604052809291908181526020018280548015613dcd57602002820191906000526020600020905b815481526020019060010190808311613db9575b5050505050915050919050565b806000808473ffffffffffffffffffffffffffffffffffffffff1673ffffffffffffffffffffffffffffffffffffffff168152602001908152602001600020600401819055505050565b828054828255906000526020600020908101928215613e60579160200282015b82811115613e5f578251825591602001919060010190613e44565b5b509050613e6d9190613fb2565b5090565b604051806101c00160405280606081526020016060815260200160008152602001600073ffffffffffffffffffffffffffffffffffffffff16815260200160006004811115613ec357613ec26144cb565b5b81526020016000815260200160008152602001600081526020016000815260200160608152602001606081526020016060815260200160608152602001600081525090565b508054613f1490615517565b6000825580601f10613f265750613f45565b601f016020900490600052602060002090810190613f449190613fb2565b5b50565b5080546000825590600052602060002090810190613f669190613fb2565b50565b50805460008255601f016020900490600052602060002090810190613f8e9190613fb2565b50565b5080546000825590600052602060002090810190613faf9190613fb2565b50565b5b80821115613fcb576000816000905550600101613fb3565b5090565b6000604051905090565b600080fd5b600080fd5b600073ffffffffffffffffffffffffffffffffffffffff82169050919050565b600061400e82613fe3565b9050919050565b61401e81614003565b811461402957600080fd5b50565b60008135905061403b81614015565b92915050565b60006020828403121561405757614056613fd9565b5b60006140658482850161402c565b91505092915050565b600081519050919050565b600082825260208201905092915050565b60005b838110156140a857808201518184015260208101905061408d565b60008484015250505050565b6000601f19601f8301169050919050565b60006140d08261406e565b6140da8185614079565b93506140ea81856020860161408a565b6140f3816140b4565b840191505092915050565b61410781614003565b82525050565b6000819050919050565b6141208161410d565b82525050565b600060c082019050818103600083015261414081896140c5565b9050818103602083015261415481886140c5565b9050818103604083015261416881876140c5565b905061417760608301866140fe565b6141846080830185614117565b81810360a083015261419681846140c5565b9050979650505050505050565b6141ac8161410d565b81146141b757600080fd5b50565b6000813590506141c9816141a3565b92915050565b6000602082840312156141e5576141e4613fd9565b5b60006141f3848285016141ba565b91505092915050565b60006020820190506142116000830184614117565b92915050565b600080fd5b600080fd5b7f4e487b7100000000000000000000000000000000000000000000000000000000600052604160045260246000fd5b614259826140b4565b810181811067ffffffffffffffff8211171561427857614277614221565b5b80604052505050565b600061428b613fcf565b90506142978282614250565b919050565b600067ffffffffffffffff8211156142b7576142b6614221565b5b6142c0826140b4565b9050602081019050919050565b82818337600083830152505050565b60006142ef6142ea8461429c565b614281565b90508281526020810184848401111561430b5761430a61421c565b5b6143168482856142cd565b509392505050565b600082601f83011261433357614332614217565b5b81356143438482602086016142dc565b91505092915050565b600080600080600060a0868803121561436857614367613fd9565b5b600086013567ffffffffffffffff81111561438657614385613fde565b5b6143928882890161431e565b955050602086013567ffffffffffffffff8111156143b3576143b2613fde565b5b6143bf8882890161431e565b945050604086013567ffffffffffffffff8111156143e0576143df613fde565b5b6143ec8882890161431e565b935050606086013567ffffffffffffffff81111561440d5761440c613fde565b5b6144198882890161431e565b925050608061442a8882890161402c565b9150509295509295909350565b600081519050919050565b600082825260208201905092915050565b6000819050602082019050919050565b600082825260208201905092915050565b600061447f8261406e565b6144898185614463565b935061449981856020860161408a565b6144a2816140b4565b840191505092915050565b6144b68161410d565b82525050565b6144c581614003565b82525050565b7f4e487b7100000000000000000000000000000000000000000000000000000000600052602160045260246000fd5b6005811061450b5761450a6144cb565b5b50565b600081905061451c826144fa565b919050565b600061452c8261450e565b9050919050565b61453c81614521565b82525050565b600081519050919050565b600082825260208201905092915050565b6000819050602082019050919050565b600061457a83836144bc565b60208301905092915050565b6000602082019050919050565b600061459e82614542565b6145a8818561454d565b93506145b38361455e565b8060005b838110156145e45781516145cb888261456e565b97506145d683614586565b9250506001810190506145b7565b5085935050505092915050565b600081519050919050565b600082825260208201905092915050565b6000819050602082019050919050565b60008115159050919050565b6146328161461d565b82525050565b60006146448383614629565b60208301905092915050565b6000602082019050919050565b6000614668826145f1565b61467281856145fc565b935061467d8361460d565b8060005b838110156146ae5781516146958882614638565b97506146a083614650565b925050600181019050614681565b5085935050505092915050565b600081519050919050565b600082825260208201905092915050565b6000819050602082019050919050565b60006146f383836144ad565b60208301905092915050565b6000602082019050919050565b6000614717826146bb565b61472181856146c6565b935061472c836146d7565b8060005b8381101561475d57815161474488826146e7565b975061474f836146ff565b925050600181019050614730565b5085935050505092915050565b60006101c08301600083015184820360008601526147888282614474565b915050602083015184820360208601526147a28282614474565b91505060408301516147b760408601826144ad565b5060608301516147ca60608601826144bc565b5060808301516147dd6080860182614533565b5060a08301516147f060a08601826144ad565b5060c083015161480360c08601826144ad565b5060e083015161481660e08601826144ad565b5061010083015161482b6101008601826144ad565b506101208301518482036101208601526148458282614593565b915050610140830151848203610140860152614861828261465d565b91505061016083015184820361016086015261487d828261470c565b915050610180830151848203610180860152614899828261470c565b9150506101a08301516148b06101a08601826144ad565b508091505092915050565b60006148c7838361476a565b905092915050565b6000602082019050919050565b60006148e782614437565b6148f18185614442565b93508360208202850161490385614453565b8060005b8581101561493f578484038952815161492085826148bb565b945061492b836148cf565b925060208a01995050600181019050614907565b50829750879550505050505092915050565b6000602082019050818103600083015261496b81846148dc565b905092915050565b6000819050919050565b600061499861499361498e84613fe3565b614973565b613fe3565b9050919050565b60006149aa8261497d565b9050919050565b60006149bc8261499f565b9050919050565b6149cc816149b1565b82525050565b60006020820190506149e760008301846149c3565b92915050565b6149f681614521565b82525050565b6000602082019050614a1160008301846149ed565b92915050565b60006040820190508181036000830152614a3181856148dc565b9050614a406020830184614117565b9392505050565b600082825260208201905092915050565b6000614a63826146bb565b614a6d8185614a47565b9350614a78836146d7565b8060005b83811015614aa9578151614a9088826146e7565b9750614a9b836146ff565b925050600181019050614a7c565b5085935050505092915050565b60006020820190508181036000830152614ad08184614a58565b905092915050565b6000610140820190508181036000830152614af3818d6140c5565b90508181036020830152614b07818c6140c5565b9050614b16604083018b614117565b614b23606083018a6140fe565b614b3060808301896149ed565b614b3d60a0830188614117565b614b4a60c0830187614117565b614b5760e0830186614117565b614b65610100830185614117565b614b73610120830184614117565b9b9a5050505050505050505050565b600082825260208201905092915050565b6000614b9e82614542565b614ba88185614b82565b9350614bb38361455e565b8060005b83811015614be4578151614bcb888261456e565b9750614bd683614586565b925050600181019050614bb7565b5085935050505092915050565b60006020820190508181036000830152614c0b8184614b93565b905092915050565b6000610100820190508181036000830152614c2e818b6140c5565b90508181036020830152614c42818a6140c5565b90508181036040830152614c5681896140c5565b90508181036060830152614c6a81886140c5565b9050614c796080830187614117565b614c8660a0830186614117565b614c9360c08301856140fe565b614ca060e0830184614117565b9998505050505050505050565b60006101c0830160008301518482036000860152614ccb8282614474565b91505060208301518482036020860152614ce58282614474565b9150506040830151614cfa60408601826144ad565b506060830151614d0d60608601826144bc565b506080830151614d206080860182614533565b5060a0830151614d3360a08601826144ad565b5060c0830151614d4660c08601826144ad565b5060e0830151614d5960e08601826144ad565b50610100830151614d6e6101008601826144ad565b50610120830151848203610120860152614d888282614593565b915050610140830151848203610140860152614da4828261465d565b915050610160830151848203610160860152614dc0828261470c565b915050610180830151848203610180860152614ddc828261470c565b9150506101a0830151614df36101a08601826144ad565b508091505092915050565b60006020820190508181036000830152614e188184614cad565b905092915050565b60008060408385031215614e3757614e36613fd9565b5b6000614e458582860161402c565b9250506020614e56858286016141ba565b9150509250929050565b600080600060608486031215614e7957614e78613fd9565b5b600084013567ffffffffffffffff811115614e9757614e96613fde565b5b614ea38682870161431e565b935050602084013567ffffffffffffffff811115614ec457614ec3613fde565b5b614ed08682870161431e565b9250506040614ee18682870161402c565b9150509250925092565b6000602082019050614f0060008301846140fe565b92915050565b600067ffffffffffffffff821115614f2157614f20614221565b5b602082029050602081019050919050565b600080fd5b6000614f4a614f4584614f06565b614281565b90508083825260208201905060208402830185811115614f6d57614f6c614f32565b5b835b81811015614f965780614f8288826141ba565b845260208401935050602081019050614f6f565b5050509392505050565b600082601f830112614fb557614fb4614217565b5b8135614fc5848260208601614f37565b91505092915050565b60008060408385031215614fe557614fe4613fd9565b5b600083013567ffffffffffffffff81111561500357615002613fde565b5b61500f85828601614fa0565b9250506020615020858286016141ba565b9150509250929050565b6150338161461d565b811461503e57600080fd5b50565b6000813590506150508161502a565b92915050565b6000806040838503121561506d5761506c613fd9565b5b600061507b858286016141ba565b925050602061508c85828601615041565b9150509250929050565b600581106150a357600080fd5b50565b6000813590506150b581615096565b92915050565b600080604083850312156150d2576150d1613fd9565b5b60006150e0858286016141ba565b92505060206150f1858286016150a6565b9150509250929050565b60008060008060008060c0878903121561511857615117613fd9565b5b600061512689828a0161402c565b965050602061513789828a016141ba565b955050604087013567ffffffffffffffff81111561515857615157613fde565b5b61516489828a0161431e565b945050606087013567ffffffffffffffff81111561518557615184613fde565b5b61519189828a0161431e565b93505060806151a289828a016141ba565b92505060a06151b389828a016141ba565b9150509295509295509295565b600080600080600080600060e0888a0312156151df576151de613fd9565b5b60006151ed8a828b0161402c565b97505060206151fe8a828b016141ba565b965050604061520f8a828b016141ba565b955050606088013567ffffffffffffffff8111156152305761522f613fde565b5b61523c8a828b0161431e565b945050608088013567ffffffffffffffff81111561525d5761525c613fde565b5b6152698a828b0161431e565b93505060a061527a8a828b016141ba565b92505060c061528b8a828b016141ba565b91505092959891949750929550565b600067ffffffffffffffff8211156152b5576152b4614221565b5b602082029050602081019050919050565b60006152d96152d48461529a565b614281565b905080838252602082019050602084028301858111156152fc576152fb614f32565b5b835b8181101561532557806153118882615041565b8452602084019350506020810190506152fe565b5050509392505050565b600082601f83011261534457615343614217565b5b81356153548482602086016152c6565b91505092915050565b60006020828403121561537357615372613fd9565b5b600082013567ffffffffffffffff81111561539157615390613fde565b5b61539d8482850161532f565b91505092915050565b6153af8161461d565b82525050565b60006020820190506153ca60008301846153a6565b92915050565b600080604083850312156153e7576153e6613fd9565b5b60006153f5858286016141ba565b9250506020615406858286016141ba565b9150509250929050565b7f43616c6c6572206973206e6f74206f776e657200000000000000000000000000600082015250565b6000615446601383614079565b915061545182615410565b602082019050919050565b6000602082019050818103600083015261547581615439565b9050919050565b7f506172747920646f6573206e6f74206578697374000000000000000000000000600082015250565b60006154b2601483614079565b91506154bd8261547c565b602082019050919050565b600060208201905081810360008301526154e1816154a5565b9050919050565b7f4e487b7100000000000000000000000000000000000000000000000000000000600052602260045260246000fd5b6000600282049050600182168061552f57607f821691505b602082108103615542576155416154e8565b5b50919050565b7f4e487b7100000000000000000000000000000000000000000000000000000000600052603260045260246000fd5b7f4e487b7100000000000000000000000000000000000000000000000000000000600052601160045260246000fd5b60006155b18261410d565b91506155bc8361410d565b92508282019050808211156155d4576155d3615577565b5b92915050565b60006155e58261410d565b91507fffffffffffffffffffffffffffffffffffffffffffffffffffffffffffffffff820361561757615616615577565b5b600182019050919050565b7f506172747920616c726561647920657869737473000000000000000000000000600082015250565b6000615658601483614079565b915061566382615622565b602082019050919050565b600060208201905081810360008301526156878161564b565b9050919050565b60008190508160005260206000209050919050565b60006020601f8301049050919050565b600082821b905092915050565b6000600883026156f07fffffffffffffffffffffffffffffffffffffffffffffffffffffffffffffffff826156b3565b6156fa86836156b3565b95508019841693508086168417925050509392505050565b600061572d6157286157238461410d565b614973565b61410d565b9050919050565b6000819050919050565b61574783615712565b61575b61575382615734565b8484546156c0565b825550505050565b600090565b615770615763565b61577b81848461573e565b505050565b5b8181101561579f57615794600082615768565b600181019050615781565b5050565b601f8211156157e4576157b58161568e565b6157be846156a3565b810160208510156157cd578190505b6157e16157d9856156a3565b830182615780565b50505b505050565b600082821c905092915050565b6000615807600019846008026157e9565b1980831691505092915050565b600061582083836157f6565b9150826002028217905092915050565b6158398261406e565b67ffffffffffffffff81111561585257615851614221565b5b61585c8254615517565b6158678282856157a3565b600060209050601f83116001811461589a5760008415615888578287015190505b6158928582615814565b8655506158fa565b601f1984166158a88661568e565b60005b828110156158d0578489015182556001820191506020850194506020810190506158ab565b868310156158ed57848901516158e9601f8916826157f6565b8355505b6001600288020188555050505b505050505050565b7f4e6f2074656e6465727320657869737473000000000000000000000000000000600082015250565b6000615938601183614079565b915061594382615902565b602082019050919050565b600060208201905081810360008301526159678161592b565b9050919050565b7f74656e6465722077697468206164647265737320646f65736e2774206578697360008201527f7473000000000000000000000000000000000000000000000000000000000000602082015250565b60006159ca602283614079565b91506159d58261596e565b604082019050919050565b600060208201905081810360008301526159f9816159bd565b9050919050565b7f796f75277265206e6f7420617574686f72697a656420746f20706572666f726d60008201527f207468697320616374696f6e0000000000000000000000000000000000000000602082015250565b6000615a5c602c83614079565b9150615a6782615a00565b604082019050919050565b60006020820190508181036000830152615a8b81615a4f565b9050919050565b7f74656e6465722063616e6e6f742062652064656c657465640000000000000000600082015250565b6000615ac8601883614079565b9150615ad382615a92565b602082019050919050565b60006020820190508181036000830152615af781615abb565b9050919050565b6000615b098261410d565b9150615b148361410d565b9250828203905081811115615b2c57615b2b615577565b5b92915050565b7f4e487b7100000000000000000000000000000000000000000000000000000000600052603160045260246000fd5b7f596f75277265206e6f7420617574686f72697a656420746f2076616c6964617460008201527f6520746869732074656e6465722e000000000000000000000000000000000000602082015250565b6000615bbd602e83614079565b9150615bc882615b61565b604082019050919050565b60006020820190508181036000830152615bec81615bb0565b9050919050565b7f4e487b7100000000000000000000000000000000000000000000000000000000600052601260045260246000fd5b6000615c2d8261410d565b9150615c388361410d565b925082615c4857615c47615bf3565b5b828204905092915050565b7f696e73756666696369656e742066756e647320746f206372656174652061207460008201527f656e646572000000000000000000000000000000000000000000000000000000602082015250565b6000615caf602583614079565b9150615cba82615c53565b604082019050919050565b60006020820190508181036000830152615cde81615ca2565b9050919050565b7f74656e6465722063616e6e6f7420626520757064617465640000000000000000600082015250565b6000615d1b601883614079565b9150615d2682615ce5565b602082019050919050565b60006020820190508181036000830152615d4a81615d0e565b905091905056fea2646970667358221220bac448a9d26a82f14becfd1b0e5d6054dd7774d3e10ffec0eb4653202bb9efaf64736f6c63430008130033",
  "immutableReferences": {},
  "source": "// SPDX-License-Identifier: UNLICENSED\r\n\r\n//the version of solidity that is compatible\r\nimport \"./PartyContract.sol\";\r\nenum TenderStatus{ NEW, OPEN, CLOSED, SUSPENDED, ASSIGNED } //created---OPEN, deadline crosses---CLOSED, project is assigned ---- ASSIGNED\r\nimport \"./Token.sol\";\r\n\r\npragma solidity ^0.8.0;\r\ncontract TenderContract is PartyContract {\r\n    // Tender Structure\r\n    struct Tender {\r\n        string title;\r\n        string description;\r\n        uint256 budget;\r\n        address issuerAddress;\r\n        TenderStatus tenderStatus; \r\n        uint256 createdAt;\r\n        uint256 deadline;\r\n        uint256 totalMilestones;\r\n        uint256 tenderId;\r\n        address[] validatorsAddresses;\r\n        bool[] validationVotes;\r\n        uint256[] milestoneTimePeriods;\r\n        uint256[] bidIds;\r\n        uint256 balance;\r\n    }\r\n\r\n    // Token public tokenRef;\r\n\r\n    constructor() PartyContract(){\r\n        // tokenRef = _tokenRef;\r\n    }\r\n\r\n    mapping (uint256 => Tender) public tenders;\r\n    uint256 tenderCount = 0;\r\n\r\n    //setters and getter functions\r\n    function getTenderCount() public view returns(uint256){\r\n        return tenderCount;\r\n    }\r\n    \r\n    function getValidators(uint256 _tenderId) public view returns(address[] memory) {\r\n        return tenders[_tenderId].validatorsAddresses;\r\n    }\r\n    \r\n    function getTotalProjectDays(uint256 _tenderId) public view returns(uint256) {\r\n        uint256 sum = 0;\r\n        uint256[] memory milestoneTimePeriods = tenders[_tenderId].milestoneTimePeriods;\r\n        uint256 len = milestoneTimePeriods.length;\r\n        for(uint256 i=0; i < len; i++) {\r\n            sum += milestoneTimePeriods[i];\r\n        }\r\n        return sum;\r\n    }\r\n\r\n    function getBudget(uint256 _tenderId) public view returns(uint256){\r\n        return tenders[_tenderId].budget;\r\n    }\r\n\r\n    function getTenderStatus(uint256 _tenderId) public view returns(TenderStatus){\r\n        return tenders[_tenderId].tenderStatus;\r\n    }\r\n\r\n    function getDeadline(uint256 _tenderId) public view returns(uint256){\r\n            return tenders[_tenderId].deadline;\r\n    }\r\n\r\n    function getBidIds(uint256 _tenderId) public view returns(uint256[] memory){\r\n        return tenders[_tenderId].bidIds;\r\n    }\r\n\r\n    function getIssuerAddress(uint256 _tenderId) public view returns(address){\r\n        return tenders[_tenderId].issuerAddress;\r\n    }\r\n\r\n    function getTotalMilestones(uint256 _tenderId) public view returns(uint256){\r\n            return tenders[_tenderId].totalMilestones;\r\n    }\r\n\r\n    function getBidsCount(uint256 _tenderId) public view returns(uint256){\r\n            return tenders[_tenderId].bidIds.length;\r\n    }\r\n\r\n    function addBidId(uint256 _tenderId, uint256 bidId) public {\r\n        tenders[_tenderId].bidIds.push(bidId);\r\n    }\r\n\r\n    function setBidIds(uint256[] memory _tenderBidIds, uint256 _tenderId) public{\r\n        tenders[_tenderId].bidIds = _tenderBidIds;\r\n        tenders[_tenderId].bidIds.pop();\r\n    }\r\n\r\n    // Function for creating a tender\r\n    function createTender(address _partyAddress, uint256 _budget, string memory _title, string memory _description, uint256 _deadline, uint256 _totalMilestones) isOwner(_partyAddress) public {\r\n        require(_partyAddress.balance >= _budget/2, \"insufficient funds to create a tender\");\r\n        Tender storage newTender = tenders[tenderCount];\r\n        newTender.title = _title;\r\n        newTender.description = _description;\r\n        newTender.budget = _budget;\r\n        newTender.tenderStatus = TenderStatus.NEW;\r\n        newTender.createdAt = block.timestamp;\r\n        newTender.deadline = _deadline;\r\n        newTender.issuerAddress = _partyAddress;\r\n        newTender.tenderId = tenderCount;\r\n        newTender.totalMilestones = _totalMilestones;\r\n        //Sort all the parties by their trust scores\r\n        address[] memory sortedlist = sortByTrustScore();\r\n        uint len = sortedlist.length;\r\n        uint count = 0;\r\n        //If there are less than 10 parties then set number to parties to len\r\n        len = (len < 10)?len:10;\r\n        //Add the validator addresses to validatorsAddresses array, also add tenderId to tenderIdsToValidate array\r\n        while(count < len)\r\n        {\r\n            if(sortedlist[len-count-1] != parties[msg.sender].partyAddress)\r\n            {\r\n            newTender.validatorsAddresses.push(sortedlist[len-count-1]);\r\n            parties[sortedlist[len-count-1]].tenderIdsToValidate.push(tenderCount);\r\n            count ++;\r\n            }\r\n        }\r\n        parties[_partyAddress].tenderIds.push(tenderCount);\r\n        tenderCount++;\r\n    }\r\n\r\n    //Function to sort all the parties by their trust score\r\n    function sortByTrustScore() public view returns(address[] memory) {\r\n    address[] memory _party = partyAddresses;\r\n    for (uint i = 1; i < partyAddresses.length; i++)\r\n        for (uint j = 0; j < i; j++)\r\n            if (parties[_party[i]].trustScore < parties[_party[j]].trustScore) {\r\n                address x = _party[i];\r\n                _party[i] = _party[j];\r\n                _party[j] = x;\r\n            }\r\n\r\n    return _party;\r\n    }\r\n    \r\n    //Function using which validators can validate tenders\r\n    function validate(uint256 _tenderId, bool _vote) public {\r\n        bool valid = false;\r\n        Tender storage newTender = tenders[_tenderId];\r\n        uint len = newTender.validatorsAddresses.length;\r\n        for(uint i=0; i<len; i++)\r\n        {\r\n            if(newTender.validatorsAddresses[i] == msg.sender)\r\n            {\r\n                valid = true;\r\n                break;\r\n            }\r\n        }\r\n        if(valid)\r\n        {\r\n            if(_vote) {\r\n                newTender.validationVotes.push(_vote); // adds vote only if transaction is successful\r\n                \r\n            }\r\n        }\r\n        else\r\n        {\r\n            revert(\"You're not authorized to validate this tender.\");\r\n        }\r\n    }\r\n    \r\n    //Check if the tender is ongoing\r\n    function checkTenderValidation(uint256 _tenderId) public {\r\n        Tender storage newTender = tenders[_tenderId];\r\n        if(isValid(newTender.validationVotes)) {\r\n            updateTenderStatus(_tenderId, TenderStatus.OPEN);\r\n        }\r\n    }\r\n    \r\n    //Check if a tender is valid or not i.e., it got minimum 6 positive votes\r\n    function isValid(bool[] memory _validationVotes) public pure returns (bool) {\r\n        uint voteCount = 0;\r\n        uint256 totalValidators = _validationVotes.length;\r\n        for(uint i=0; i<totalValidators; i++)\r\n        {\r\n            if(_validationVotes[i])\r\n            {\r\n                voteCount++;\r\n            }\r\n        }\r\n\r\n        if(voteCount > (totalValidators/2))\r\n        {\r\n            return true;\r\n        }\r\n        return false;\r\n    }\r\n\r\n    function getTendersToValidate(address _partyAddress) public isOwner(_partyAddress) view returns(uint256[] memory){\r\n        return(parties[_partyAddress].tenderIdsToValidate);\r\n    }\r\n\r\n    function getAllActiveTenders() public view returns (Tender[] memory, uint256){\r\n        require(tenderCount > 0, \"No tenders exists\");\r\n        uint256 count=0;\r\n        Tender[] memory tendersList = new Tender[](tenderCount);\r\n        for (uint256 i = 0; i < tenderCount; i++) {\r\n            if(tenders[i].tenderStatus == TenderStatus.OPEN){\r\n                 tendersList[i] = tenders[i];\r\n                 count++;\r\n            }\r\n        }\r\n        return(tendersList, count);\r\n    }\r\n\r\n    function getMyTenders(address _partyAddress) public view returns ( Tender[] memory){\r\n        require(parties[_partyAddress].tenderIds.length > 0, \"No tenders exists\");\r\n        uint256[] memory partyTenderIds = parties[_partyAddress].tenderIds;\r\n        Tender[] memory tendersList = new Tender[](partyTenderIds.length);\r\n        for (uint256 i = 0; i < partyTenderIds.length; i++) {\r\n            tendersList[i] = tenders[partyTenderIds[i]];\r\n        }\r\n        return(tendersList);\r\n    }\r\n\r\n    function getTenderDetails(uint256 _tenderId) public view returns ( Tender memory){\r\n        require(tenders[_tenderId].budget > 0 , \"tender with address doesn't exists\");\r\n        return(tenders[_tenderId]);\r\n    }\r\n\r\n    function updateTenderStatus(uint256 _tenderId, TenderStatus _tenderStatus) public {\r\n        Tender storage updatedTender = tenders[_tenderId];\r\n        updatedTender.tenderStatus = _tenderStatus;\r\n    }\r\n\r\n    function updateTender(address _partyAddress, uint256 _tenderId, uint256 _budget, string memory _title, string memory _description, uint256 _deadline, uint256 _totalMilestones) public isTenderOwner(_partyAddress, _tenderId){\r\n        require(parties[_partyAddress].tenderIds.length > 0, \"No tenders exists\");\r\n        require(tenders[_tenderId].budget > 0 , \"tender with address doesn't exists\");\r\n        require(tenders[_tenderId].tenderStatus == TenderStatus.NEW ||\r\n                tenders[_tenderId].tenderStatus == TenderStatus.SUSPENDED , \"tender cannot be updated\");\r\n        Tender storage updatedTender = tenders[_tenderId];\r\n        updatedTender.budget = _budget;\r\n        updatedTender.title = _title;\r\n        updatedTender.description = _description;\r\n        updatedTender.deadline = _deadline;\r\n        updatedTender.totalMilestones = _totalMilestones;\r\n    }\r\n\r\n    function deleteTender(address _partyAddress, uint256 _tenderId) public isTenderOwner(_partyAddress, _tenderId){ \r\n        require(parties[_partyAddress].tenderIds.length > 0, \"No tenders exists\");\r\n        require(tenders[_tenderId].budget > 0 , \"tender with address doesn't exists\");\r\n        require(tenders[_tenderId].tenderStatus == TenderStatus.NEW , \"tender cannot be deleted\");\r\n        uint256[] storage _tenderIds = parties[_partyAddress].tenderIds;\r\n        for (uint i = 0; i < _tenderIds.length; i++){\r\n            if(_tenderIds[i] == _tenderId){\r\n                delete tenders[_tenderId];\r\n                _tenderIds[i] = _tenderIds[_tenderIds.length - 1];\r\n                _tenderIds.pop();\r\n                break;\r\n            }\r\n        }\r\n    }\r\n\r\n    // @todo - add modifer for above functions\r\n\r\n    modifier isTenderOwner(address _partyAddress, uint256 _tenderId) {\r\n        require(tenders[_tenderId].issuerAddress == _partyAddress, \"you're not authorized to perform this action\");\r\n        _;\r\n    }\r\n\r\n    \r\n}\r\n",
  "sourcePath": "C:\\Users\\sabba\\OneDrive\\Documents\\BlockchainProject\\blockchain-based-contracting-system\\contracts\\TenderContract.sol",
  "compiler": {
    "name": "solc",
    "version": "0.8.19+commit.7dd6d404.Emscripten.clang"
  },
  "schemaVersion": "3.4.13",
  "updatedAt": "2023-04-15T15:50:25.915Z",
  "networkType": "ethereum",
  "devdoc": {
    "kind": "dev",
    "methods": {},
    "version": 1
  },
  "userdoc": {
    "kind": "user",
    "methods": {},
    "version": 1
  }
}