{
  "contractName": "TenderContract",
  "abi": [
    {
      "inputs": [
        {
          "internalType": "string",
          "name": "_name",
          "type": "string"
        },
        {
          "internalType": "string",
          "name": "_contactNumber",
          "type": "string"
        },
        {
          "internalType": "string",
          "name": "_email",
          "type": "string"
        },
        {
          "internalType": "string",
          "name": "_password",
          "type": "string"
        },
        {
          "internalType": "address",
          "name": "_partyAddress",
          "type": "address"
        }
      ],
      "name": "createParty",
      "outputs": [],
      "stateMutability": "nonpayable",
      "type": "function"
    },
    {
      "inputs": [
        {
          "internalType": "address",
          "name": "_partyAddress",
          "type": "address"
        }
      ],
      "name": "deleteParty",
      "outputs": [],
      "stateMutability": "nonpayable",
      "type": "function"
    },
    {
      "inputs": [
        {
          "internalType": "address",
          "name": "_partyAddress",
          "type": "address"
        }
      ],
      "name": "getPartyDetails",
      "outputs": [
        {
          "internalType": "string",
          "name": "",
          "type": "string"
        },
        {
          "internalType": "string",
          "name": "",
          "type": "string"
        },
        {
          "internalType": "string",
          "name": "",
          "type": "string"
        },
        {
          "internalType": "address",
          "name": "",
          "type": "address"
        },
        {
          "internalType": "uint256",
          "name": "",
          "type": "uint256"
        },
        {
          "internalType": "string",
          "name": "",
          "type": "string"
        }
      ],
      "stateMutability": "view",
      "type": "function"
    },
    {
      "inputs": [
        {
          "internalType": "address",
          "name": "",
          "type": "address"
        }
      ],
      "name": "parties",
      "outputs": [
        {
          "internalType": "string",
          "name": "name",
          "type": "string"
        },
        {
          "internalType": "string",
          "name": "contactNumber",
          "type": "string"
        },
        {
          "internalType": "string",
          "name": "email",
          "type": "string"
        },
        {
          "internalType": "string",
          "name": "password",
          "type": "string"
        },
        {
          "internalType": "uint256",
          "name": "trustScore",
          "type": "uint256"
        },
        {
          "internalType": "uint256",
          "name": "createdAt",
          "type": "uint256"
        },
        {
          "internalType": "address",
          "name": "partyAddress",
          "type": "address"
        }
      ],
      "stateMutability": "view",
      "type": "function"
    },
    {
      "inputs": [
        {
          "internalType": "uint256",
          "name": "",
          "type": "uint256"
        }
      ],
      "name": "partyAddresses",
      "outputs": [
        {
          "internalType": "address",
          "name": "",
          "type": "address"
        }
      ],
      "stateMutability": "view",
      "type": "function"
    },
    {
      "inputs": [
        {
          "internalType": "uint256",
          "name": "",
          "type": "uint256"
        }
      ],
      "name": "tenders",
      "outputs": [
        {
          "internalType": "string",
          "name": "title",
          "type": "string"
        },
        {
          "internalType": "string",
          "name": "description",
          "type": "string"
        },
        {
          "internalType": "uint256",
          "name": "budget",
          "type": "uint256"
        },
        {
          "internalType": "address",
          "name": "issuerAddress",
          "type": "address"
        },
        {
          "internalType": "enum TenderStatus",
          "name": "tenderStatus",
          "type": "uint8"
        },
        {
          "internalType": "uint256",
          "name": "createdAt",
          "type": "uint256"
        },
        {
          "internalType": "uint256",
          "name": "deadline",
          "type": "uint256"
        },
        {
          "internalType": "uint256",
          "name": "totalMilestones",
          "type": "uint256"
        },
        {
          "internalType": "uint256",
          "name": "tenderId",
          "type": "uint256"
        }
      ],
      "stateMutability": "view",
      "type": "function"
    },
    {
      "inputs": [
        {
          "internalType": "string",
          "name": "_name",
          "type": "string"
        },
        {
          "internalType": "string",
          "name": "_password",
          "type": "string"
        },
        {
          "internalType": "address",
          "name": "_partyAddress",
          "type": "address"
        }
      ],
      "name": "updateParty",
      "outputs": [],
      "stateMutability": "nonpayable",
      "type": "function"
    },
    {
      "inputs": [
        {
          "internalType": "uint256",
          "name": "_tenderId",
          "type": "uint256"
        }
      ],
      "name": "getBudget",
      "outputs": [
        {
          "internalType": "uint256",
          "name": "",
          "type": "uint256"
        }
      ],
      "stateMutability": "view",
      "type": "function"
    },
    {
      "inputs": [
        {
          "internalType": "uint256",
          "name": "_tenderId",
          "type": "uint256"
        }
      ],
      "name": "getTenderStatus",
      "outputs": [
        {
          "internalType": "enum TenderStatus",
          "name": "",
          "type": "uint8"
        }
      ],
      "stateMutability": "view",
      "type": "function"
    },
    {
      "inputs": [
        {
          "internalType": "uint256",
          "name": "_tenderId",
          "type": "uint256"
        }
      ],
      "name": "getDeadline",
      "outputs": [
        {
          "internalType": "uint256",
          "name": "",
          "type": "uint256"
        }
      ],
      "stateMutability": "view",
      "type": "function"
    },
    {
      "inputs": [
        {
          "internalType": "uint256",
          "name": "_tenderId",
          "type": "uint256"
        }
      ],
      "name": "getBidIds",
      "outputs": [
        {
          "internalType": "uint256[]",
          "name": "",
          "type": "uint256[]"
        }
      ],
      "stateMutability": "view",
      "type": "function"
    },
    {
      "inputs": [
        {
          "internalType": "uint256",
          "name": "_tenderId",
          "type": "uint256"
        }
      ],
      "name": "getIssuerAddress",
      "outputs": [
        {
          "internalType": "address",
          "name": "",
          "type": "address"
        }
      ],
      "stateMutability": "view",
      "type": "function"
    },
    {
      "inputs": [
        {
          "internalType": "uint256",
          "name": "_tenderId",
          "type": "uint256"
        },
        {
          "internalType": "uint256",
          "name": "bidId",
          "type": "uint256"
        }
      ],
      "name": "addBidId",
      "outputs": [],
      "stateMutability": "nonpayable",
      "type": "function"
    },
    {
      "inputs": [
        {
          "internalType": "uint256",
          "name": "_tenderId",
          "type": "uint256"
        },
        {
          "internalType": "uint256",
          "name": "_bidId",
          "type": "uint256"
        }
      ],
      "name": "deleteBidId",
      "outputs": [],
      "stateMutability": "nonpayable",
      "type": "function"
    },
    {
      "inputs": [
        {
          "internalType": "address",
          "name": "_partyAddress",
          "type": "address"
        },
        {
          "internalType": "uint256",
          "name": "_budget",
          "type": "uint256"
        },
        {
          "internalType": "string",
          "name": "_title",
          "type": "string"
        },
        {
          "internalType": "string",
          "name": "_description",
          "type": "string"
        },
        {
          "internalType": "uint256",
          "name": "_deadline",
          "type": "uint256"
        },
        {
          "internalType": "uint256",
          "name": "_totalMilestones",
          "type": "uint256"
        }
      ],
      "name": "createTender",
      "outputs": [],
      "stateMutability": "nonpayable",
      "type": "function"
    },
    {
      "inputs": [],
      "name": "sortByTrustScore",
      "outputs": [
        {
          "internalType": "address[]",
          "name": "",
          "type": "address[]"
        }
      ],
      "stateMutability": "view",
      "type": "function"
    },
    {
      "inputs": [
        {
          "internalType": "uint256",
          "name": "_tenderId",
          "type": "uint256"
        },
        {
          "internalType": "bool",
          "name": "_vote",
          "type": "bool"
        }
      ],
      "name": "validate",
      "outputs": [],
      "stateMutability": "nonpayable",
      "type": "function"
    },
    {
      "inputs": [
        {
          "internalType": "uint256",
          "name": "_tenderId",
          "type": "uint256"
        }
      ],
      "name": "checkTenderValidation",
      "outputs": [],
      "stateMutability": "nonpayable",
      "type": "function"
    },
    {
      "inputs": [
        {
          "internalType": "bool[]",
          "name": "_validationVotes",
          "type": "bool[]"
        }
      ],
      "name": "isValid",
      "outputs": [
        {
          "internalType": "bool",
          "name": "",
          "type": "bool"
        }
      ],
      "stateMutability": "pure",
      "type": "function"
    },
    {
      "inputs": [],
      "name": "getAllActiveTenders",
      "outputs": [
        {
          "components": [
            {
              "internalType": "string",
              "name": "title",
              "type": "string"
            },
            {
              "internalType": "string",
              "name": "description",
              "type": "string"
            },
            {
              "internalType": "uint256",
              "name": "budget",
              "type": "uint256"
            },
            {
              "internalType": "address",
              "name": "issuerAddress",
              "type": "address"
            },
            {
              "internalType": "enum TenderStatus",
              "name": "tenderStatus",
              "type": "uint8"
            },
            {
              "internalType": "uint256",
              "name": "createdAt",
              "type": "uint256"
            },
            {
              "internalType": "uint256",
              "name": "deadline",
              "type": "uint256"
            },
            {
              "internalType": "uint256",
              "name": "totalMilestones",
              "type": "uint256"
            },
            {
              "internalType": "uint256",
              "name": "tenderId",
              "type": "uint256"
            },
            {
              "internalType": "address[]",
              "name": "validatorsAddresses",
              "type": "address[]"
            },
            {
              "internalType": "bool[]",
              "name": "validationVotes",
              "type": "bool[]"
            },
            {
              "internalType": "uint256[]",
              "name": "milestoneTimePeriods",
              "type": "uint256[]"
            },
            {
              "internalType": "uint256[]",
              "name": "bidIds",
              "type": "uint256[]"
            }
          ],
          "internalType": "struct TenderContract.Tender[]",
          "name": "",
          "type": "tuple[]"
        }
      ],
      "stateMutability": "view",
      "type": "function"
    },
    {
      "inputs": [
        {
          "internalType": "address",
          "name": "_partyAddress",
          "type": "address"
        }
      ],
      "name": "getMyTenders",
      "outputs": [
        {
          "components": [
            {
              "internalType": "string",
              "name": "title",
              "type": "string"
            },
            {
              "internalType": "string",
              "name": "description",
              "type": "string"
            },
            {
              "internalType": "uint256",
              "name": "budget",
              "type": "uint256"
            },
            {
              "internalType": "address",
              "name": "issuerAddress",
              "type": "address"
            },
            {
              "internalType": "enum TenderStatus",
              "name": "tenderStatus",
              "type": "uint8"
            },
            {
              "internalType": "uint256",
              "name": "createdAt",
              "type": "uint256"
            },
            {
              "internalType": "uint256",
              "name": "deadline",
              "type": "uint256"
            },
            {
              "internalType": "uint256",
              "name": "totalMilestones",
              "type": "uint256"
            },
            {
              "internalType": "uint256",
              "name": "tenderId",
              "type": "uint256"
            },
            {
              "internalType": "address[]",
              "name": "validatorsAddresses",
              "type": "address[]"
            },
            {
              "internalType": "bool[]",
              "name": "validationVotes",
              "type": "bool[]"
            },
            {
              "internalType": "uint256[]",
              "name": "milestoneTimePeriods",
              "type": "uint256[]"
            },
            {
              "internalType": "uint256[]",
              "name": "bidIds",
              "type": "uint256[]"
            }
          ],
          "internalType": "struct TenderContract.Tender[]",
          "name": "",
          "type": "tuple[]"
        }
      ],
      "stateMutability": "view",
      "type": "function"
    },
    {
      "inputs": [
        {
          "internalType": "uint256",
          "name": "_tenderId",
          "type": "uint256"
        }
      ],
      "name": "getTenderDetails",
      "outputs": [
        {
          "components": [
            {
              "internalType": "string",
              "name": "title",
              "type": "string"
            },
            {
              "internalType": "string",
              "name": "description",
              "type": "string"
            },
            {
              "internalType": "uint256",
              "name": "budget",
              "type": "uint256"
            },
            {
              "internalType": "address",
              "name": "issuerAddress",
              "type": "address"
            },
            {
              "internalType": "enum TenderStatus",
              "name": "tenderStatus",
              "type": "uint8"
            },
            {
              "internalType": "uint256",
              "name": "createdAt",
              "type": "uint256"
            },
            {
              "internalType": "uint256",
              "name": "deadline",
              "type": "uint256"
            },
            {
              "internalType": "uint256",
              "name": "totalMilestones",
              "type": "uint256"
            },
            {
              "internalType": "uint256",
              "name": "tenderId",
              "type": "uint256"
            },
            {
              "internalType": "address[]",
              "name": "validatorsAddresses",
              "type": "address[]"
            },
            {
              "internalType": "bool[]",
              "name": "validationVotes",
              "type": "bool[]"
            },
            {
              "internalType": "uint256[]",
              "name": "milestoneTimePeriods",
              "type": "uint256[]"
            },
            {
              "internalType": "uint256[]",
              "name": "bidIds",
              "type": "uint256[]"
            }
          ],
          "internalType": "struct TenderContract.Tender",
          "name": "",
          "type": "tuple"
        }
      ],
      "stateMutability": "view",
      "type": "function"
    },
    {
      "inputs": [
        {
          "internalType": "uint256",
          "name": "_tenderId",
          "type": "uint256"
        },
        {
          "internalType": "enum TenderStatus",
          "name": "_tenderStatus",
          "type": "uint8"
        }
      ],
      "name": "updateTenderStatus",
      "outputs": [],
      "stateMutability": "nonpayable",
      "type": "function"
    },
    {
      "inputs": [
        {
          "internalType": "address",
          "name": "_partyAddress",
          "type": "address"
        },
        {
          "internalType": "uint256",
          "name": "_tenderId",
          "type": "uint256"
        },
        {
          "internalType": "uint256",
          "name": "_budget",
          "type": "uint256"
        },
        {
          "internalType": "string",
          "name": "_title",
          "type": "string"
        },
        {
          "internalType": "string",
          "name": "_description",
          "type": "string"
        },
        {
          "internalType": "uint256",
          "name": "_deadline",
          "type": "uint256"
        },
        {
          "internalType": "uint256",
          "name": "_totalMilestones",
          "type": "uint256"
        }
      ],
      "name": "updateTender",
      "outputs": [],
      "stateMutability": "nonpayable",
      "type": "function"
    },
    {
      "inputs": [
        {
          "internalType": "address",
          "name": "_partyAddress",
          "type": "address"
        },
        {
          "internalType": "uint256",
          "name": "_tenderId",
          "type": "uint256"
        }
      ],
      "name": "deleteTender",
      "outputs": [],
      "stateMutability": "nonpayable",
      "type": "function"
    }
  ],
  "bytecode": "0x6080604052600060035534801561001557600080fd5b50615360806100256000396000f3fe608060405234801561001057600080fd5b50600436106101725760003560e01c8063564abc25116100de578063aaaf418811610097578063c792d8fd11610071578063c792d8fd146104a2578063ccfa858e146104d2578063ef8c039114610502578063f1d8ef4d1461051e57610172565b8063aaaf41881461044e578063b2a88f6f1461046a578063bac2e80d1461048657610172565b8063564abc251461037c578063791778c11461039a5780637a0c7d39146103b65780637e4d2d97146103d2578063828622751461040257806397ef4e3e1461043257610172565b80633d818b31116101305780633d818b311461027457806342222a4314610292578063465e1def146102c25780634f235207146102fa57806353ee895d1461033057806355e8dea21461036057610172565b8062da722814610177578063171fd848146101ac578063228becb6146101c857806329c350f1146101f85780632e4ea4c414610214578063354133f714610244575b600080fd5b610191600480360381019061018c9190613855565b61053a565b6040516101a39695949392919061393a565b60405180910390f35b6101c660048036038101906101c19190613aec565b610a73565b005b6101e260048036038101906101dd9190613855565b610cfe565b6040516101ef91906140dc565b60405180910390f35b610212600480360381019061020d919061412a565b611297565b005b61022e6004803603810190610229919061412a565b611343565b60405161023b9190614157565b60405180910390f35b61025e6004803603810190610259919061412a565b611363565b60405161026b9190614181565b60405180910390f35b61027c611390565b60405161028991906140dc565b60405180910390f35b6102ac60048036038101906102a7919061412a565b61188b565b6040516102b9919061420b565b60405180910390f35b6102dc60048036038101906102d7919061412a565b6118f9565b6040516102f19998979695949392919061422d565b60405180910390f35b610314600480360381019061030f9190613855565b611a84565b60405161032797969594939291906142c8565b60405180910390f35b61034a6004803603810190610345919061412a565b611d06565b604051610357919061448f565b60405180910390f35b61037a600480360381019061037591906144b1565b61212f565b005b610384612578565b6040516103919190614560565b60405180910390f35b6103b460048036038101906103af9190614582565b6127e8565b005b6103d060048036038101906103cb91906145c2565b6128d3565b005b6103ec60048036038101906103e7919061412a565b612a81565b6040516103f9919061464d565b60405180910390f35b61041c6004803603810190610417919061412a565b612ac1565b6040516104299190614157565b60405180910390f35b61044c60048036038101906104479190614694565b612ae1565b005b610468600480360381019061046391906146f9565b612c33565b005b610484600480360381019061047f9190614739565b612c7b565b005b6104a0600480360381019061049b91906147fe565b61306f565b005b6104bc60048036038101906104b7919061412a565b613177565b6040516104c9919061464d565b60405180910390f35b6104ec60048036038101906104e791906149a0565b6131b6565b6040516104f991906149f8565b60405180910390f35b61051c60048036038101906105179190613855565b613229565b005b61053860048036038101906105339190614582565b6135c1565b005b60608060606000806060868073ffffffffffffffffffffffffffffffffffffffff163373ffffffffffffffffffffffffffffffffffffffff16146105b3576040517f08c379a00000000000000000000000000000000000000000000000000000000081526004016105aa90614a5f565b60405180910390fd5b87600073ffffffffffffffffffffffffffffffffffffffff166000808373ffffffffffffffffffffffffffffffffffffffff1673ffffffffffffffffffffffffffffffffffffffff16815260200190815260200160002060060160009054906101000a900473ffffffffffffffffffffffffffffffffffffffff1673ffffffffffffffffffffffffffffffffffffffff1603610684576040517f08c379a000000000000000000000000000000000000000000000000000000000815260040161067b90614acb565b60405180910390fd5b6000808a73ffffffffffffffffffffffffffffffffffffffff1673ffffffffffffffffffffffffffffffffffffffff1681526020019081526020016000206000016000808b73ffffffffffffffffffffffffffffffffffffffff1673ffffffffffffffffffffffffffffffffffffffff1681526020019081526020016000206001016000808c73ffffffffffffffffffffffffffffffffffffffff1673ffffffffffffffffffffffffffffffffffffffff1681526020019081526020016000206002016000808d73ffffffffffffffffffffffffffffffffffffffff1673ffffffffffffffffffffffffffffffffffffffff16815260200190815260200160002060060160009054906101000a900473ffffffffffffffffffffffffffffffffffffffff166000808e73ffffffffffffffffffffffffffffffffffffffff1673ffffffffffffffffffffffffffffffffffffffff168152602001908152602001600020600401546000808f73ffffffffffffffffffffffffffffffffffffffff1673ffffffffffffffffffffffffffffffffffffffff16815260200190815260200160002060030185805461083890614b1a565b80601f016020809104026020016040519081016040528092919081815260200182805461086490614b1a565b80156108b15780601f10610886576101008083540402835291602001916108b1565b820191906000526020600020905b81548152906001019060200180831161089457829003601f168201915b505050505095508480546108c490614b1a565b80601f01602080910402602001604051908101604052809291908181526020018280546108f090614b1a565b801561093d5780601f106109125761010080835404028352916020019161093d565b820191906000526020600020905b81548152906001019060200180831161092057829003601f168201915b5050505050945083805461095090614b1a565b80601f016020809104026020016040519081016040528092919081815260200182805461097c90614b1a565b80156109c95780601f1061099e576101008083540402835291602001916109c9565b820191906000526020600020905b8154815290600101906020018083116109ac57829003601f168201915b505050505093508080546109dc90614b1a565b80601f0160208091040260200160405190810160405280929190818152602001828054610a0890614b1a565b8015610a555780601f10610a2a57610100808354040283529160200191610a55565b820191906000526020600020905b815481529060010190602001808311610a3857829003601f168201915b50505050509050975097509750975097509750505091939550919395565b808073ffffffffffffffffffffffffffffffffffffffff163373ffffffffffffffffffffffffffffffffffffffff1614610ae2576040517f08c379a0000000000000000000000000000000000000000000000000000000008152600401610ad990614a5f565b60405180910390fd5b600073ffffffffffffffffffffffffffffffffffffffff166000808473ffffffffffffffffffffffffffffffffffffffff1673ffffffffffffffffffffffffffffffffffffffff16815260200190815260200160002060060160009054906101000a900473ffffffffffffffffffffffffffffffffffffffff1673ffffffffffffffffffffffffffffffffffffffff1614610bb2576040517f08c379a0000000000000000000000000000000000000000000000000000000008152600401610ba990614b97565b60405180910390fd5b60008060008473ffffffffffffffffffffffffffffffffffffffff1673ffffffffffffffffffffffffffffffffffffffff168152602001908152602001600020905086816000019081610c059190614d63565b5085816001019081610c179190614d63565b5084816002019081610c299190614d63565b5083816003019081610c3b9190614d63565b5060008160040181905550428160050181905550828160060160006101000a81548173ffffffffffffffffffffffffffffffffffffffff021916908373ffffffffffffffffffffffffffffffffffffffff1602179055506001839080600181540180825580915050600190039060005260206000200160009091909190916101000a81548173ffffffffffffffffffffffffffffffffffffffff021916908373ffffffffffffffffffffffffffffffffffffffff16021790555050505050505050565b606060008060008473ffffffffffffffffffffffffffffffffffffffff1673ffffffffffffffffffffffffffffffffffffffff1681526020019081526020016000206007018054905011610d87576040517f08c379a0000000000000000000000000000000000000000000000000000000008152600401610d7e90614e81565b60405180910390fd5b60008060008473ffffffffffffffffffffffffffffffffffffffff1673ffffffffffffffffffffffffffffffffffffffff168152602001908152602001600020600701805480602002602001604051908101604052809291908181526020018280548015610e1457602002820191906000526020600020905b815481526020019060010190808311610e00575b505050505090506000815167ffffffffffffffff811115610e3857610e376139c1565b5b604051908082528060200260200182016040528015610e7157816020015b610e5e613602565b815260200190600190039081610e565790505b50905060005b825181101561128c5760026000848381518110610e9757610e96614ea1565b5b60200260200101518152602001908152602001600020604051806101a0016040529081600082018054610ec990614b1a565b80601f0160208091040260200160405190810160405280929190818152602001828054610ef590614b1a565b8015610f425780601f10610f1757610100808354040283529160200191610f42565b820191906000526020600020905b815481529060010190602001808311610f2557829003601f168201915b50505050508152602001600182018054610f5b90614b1a565b80601f0160208091040260200160405190810160405280929190818152602001828054610f8790614b1a565b8015610fd45780601f10610fa957610100808354040283529160200191610fd4565b820191906000526020600020905b815481529060010190602001808311610fb757829003601f168201915b50505050508152602001600282015481526020016003820160009054906101000a900473ffffffffffffffffffffffffffffffffffffffff1673ffffffffffffffffffffffffffffffffffffffff1673ffffffffffffffffffffffffffffffffffffffff1681526020016003820160149054906101000a900460ff16600481111561106257611061613c6b565b5b600481111561107457611073613c6b565b5b8152602001600482015481526020016005820154815260200160068201548152602001600782015481526020016008820180548060200260200160405190810160405280929190818152602001828054801561112557602002820191906000526020600020905b8160009054906101000a900473ffffffffffffffffffffffffffffffffffffffff1673ffffffffffffffffffffffffffffffffffffffff16815260200190600101908083116110db575b50505050508152602001600982018054806020026020016040519081016040528092919081815260200182805480156111a257602002820191906000526020600020906000905b82829054906101000a900460ff1615158152602001906001019060208260000104928301926001038202915080841161116c5790505b50505050508152602001600a82018054806020026020016040519081016040528092919081815260200182805480156111fa57602002820191906000526020600020905b8154815260200190600101908083116111e6575b50505050508152602001600b820180548060200260200160405190810160405280929190818152602001828054801561125257602002820191906000526020600020905b81548152602001906001019080831161123e575b50505050508152505082828151811061126e5761126d614ea1565b5b6020026020010181905250808061128490614eff565b915050610e77565b508092505050919050565b600060026000838152602001908152602001600020905061132e8160090180548060200260200160405190810160405280929190818152602001828054801561132457602002820191906000526020600020906000905b82829054906101000a900460ff161515815260200190600101906020826000010492830192600103820291508084116112ee5790505b50505050506131b6565b1561133f5761133e826001612c33565b5b5050565b600060026000838152602001908152602001600020600201549050919050565b60006002600083815260200190815260200160002060030160149054906101000a900460ff169050919050565b60606000600180549050116113da576040517f08c379a00000000000000000000000000000000000000000000000000000000081526004016113d190614f93565b60405180910390fd5b600060035467ffffffffffffffff8111156113f8576113f76139c1565b5b60405190808252806020026020018201604052801561143157816020015b61141e613602565b8152602001906001900390816114165790505b50905060005b600354811015611883576001600481111561145557611454613c6b565b5b6002600083815260200190815260200160002060030160149054906101000a900460ff16600481111561148b5761148a613c6b565b5b036118705760026000828152602001908152602001600020604051806101a00160405290816000820180546114bf90614b1a565b80601f01602080910402602001604051908101604052809291908181526020018280546114eb90614b1a565b80156115385780601f1061150d57610100808354040283529160200191611538565b820191906000526020600020905b81548152906001019060200180831161151b57829003601f168201915b5050505050815260200160018201805461155190614b1a565b80601f016020809104026020016040519081016040528092919081815260200182805461157d90614b1a565b80156115ca5780601f1061159f576101008083540402835291602001916115ca565b820191906000526020600020905b8154815290600101906020018083116115ad57829003601f168201915b50505050508152602001600282015481526020016003820160009054906101000a900473ffffffffffffffffffffffffffffffffffffffff1673ffffffffffffffffffffffffffffffffffffffff1673ffffffffffffffffffffffffffffffffffffffff1681526020016003820160149054906101000a900460ff16600481111561165857611657613c6b565b5b600481111561166a57611669613c6b565b5b8152602001600482015481526020016005820154815260200160068201548152602001600782015481526020016008820180548060200260200160405190810160405280929190818152602001828054801561171b57602002820191906000526020600020905b8160009054906101000a900473ffffffffffffffffffffffffffffffffffffffff1673ffffffffffffffffffffffffffffffffffffffff16815260200190600101908083116116d1575b505050505081526020016009820180548060200260200160405190810160405280929190818152602001828054801561179857602002820191906000526020600020906000905b82829054906101000a900460ff161515815260200190600101906020826000010492830192600103820291508084116117625790505b50505050508152602001600a82018054806020026020016040519081016040528092919081815260200182805480156117f057602002820191906000526020600020905b8154815260200190600101908083116117dc575b50505050508152602001600b820180548060200260200160405190810160405280929190818152602001828054801561184857602002820191906000526020600020905b815481526020019060010190808311611834575b50505050508152505082828151811061186457611863614ea1565b5b60200260200101819052505b808061187b90614eff565b915050611437565b508091505090565b606060026000838152602001908152602001600020600b018054806020026020016040519081016040528092919081815260200182805480156118ed57602002820191906000526020600020905b8154815260200190600101908083116118d9575b50505050509050919050565b600260205280600052604060002060009150905080600001805461191c90614b1a565b80601f016020809104026020016040519081016040528092919081815260200182805461194890614b1a565b80156119955780601f1061196a57610100808354040283529160200191611995565b820191906000526020600020905b81548152906001019060200180831161197857829003601f168201915b5050505050908060010180546119aa90614b1a565b80601f01602080910402602001604051908101604052809291908181526020018280546119d690614b1a565b8015611a235780601f106119f857610100808354040283529160200191611a23565b820191906000526020600020905b815481529060010190602001808311611a0657829003601f168201915b5050505050908060020154908060030160009054906101000a900473ffffffffffffffffffffffffffffffffffffffff16908060030160149054906101000a900460ff16908060040154908060050154908060060154908060070154905089565b6000602052806000526040600020600091509050806000018054611aa790614b1a565b80601f0160208091040260200160405190810160405280929190818152602001828054611ad390614b1a565b8015611b205780601f10611af557610100808354040283529160200191611b20565b820191906000526020600020905b815481529060010190602001808311611b0357829003601f168201915b505050505090806001018054611b3590614b1a565b80601f0160208091040260200160405190810160405280929190818152602001828054611b6190614b1a565b8015611bae5780601f10611b8357610100808354040283529160200191611bae565b820191906000526020600020905b815481529060010190602001808311611b9157829003601f168201915b505050505090806002018054611bc390614b1a565b80601f0160208091040260200160405190810160405280929190818152602001828054611bef90614b1a565b8015611c3c5780601f10611c1157610100808354040283529160200191611c3c565b820191906000526020600020905b815481529060010190602001808311611c1f57829003601f168201915b505050505090806003018054611c5190614b1a565b80601f0160208091040260200160405190810160405280929190818152602001828054611c7d90614b1a565b8015611cca5780601f10611c9f57610100808354040283529160200191611cca565b820191906000526020600020905b815481529060010190602001808311611cad57829003601f168201915b5050505050908060040154908060050154908060060160009054906101000a900473ffffffffffffffffffffffffffffffffffffffff16905087565b611d0e613602565b6000600260008481526020019081526020016000206002015411611d67576040517f08c379a0000000000000000000000000000000000000000000000000000000008152600401611d5e90615025565b60405180910390fd5b60026000838152602001908152602001600020604051806101a0016040529081600082018054611d9690614b1a565b80601f0160208091040260200160405190810160405280929190818152602001828054611dc290614b1a565b8015611e0f5780601f10611de457610100808354040283529160200191611e0f565b820191906000526020600020905b815481529060010190602001808311611df257829003601f168201915b50505050508152602001600182018054611e2890614b1a565b80601f0160208091040260200160405190810160405280929190818152602001828054611e5490614b1a565b8015611ea15780601f10611e7657610100808354040283529160200191611ea1565b820191906000526020600020905b815481529060010190602001808311611e8457829003601f168201915b50505050508152602001600282015481526020016003820160009054906101000a900473ffffffffffffffffffffffffffffffffffffffff1673ffffffffffffffffffffffffffffffffffffffff1673ffffffffffffffffffffffffffffffffffffffff1681526020016003820160149054906101000a900460ff166004811115611f2f57611f2e613c6b565b5b6004811115611f4157611f40613c6b565b5b81526020016004820154815260200160058201548152602001600682015481526020016007820154815260200160088201805480602002602001604051908101604052809291908181526020018280548015611ff257602002820191906000526020600020905b8160009054906101000a900473ffffffffffffffffffffffffffffffffffffffff1673ffffffffffffffffffffffffffffffffffffffff1681526020019060010190808311611fa8575b505050505081526020016009820180548060200260200160405190810160405280929190818152602001828054801561206f57602002820191906000526020600020906000905b82829054906101000a900460ff161515815260200190600101906020826000010492830192600103820291508084116120395790505b50505050508152602001600a82018054806020026020016040519081016040528092919081815260200182805480156120c757602002820191906000526020600020905b8154815260200190600101908083116120b3575b50505050508152602001600b820180548060200260200160405190810160405280929190818152602001828054801561211f57602002820191906000526020600020905b81548152602001906001019080831161210b575b5050505050815250509050919050565b81818173ffffffffffffffffffffffffffffffffffffffff166002600083815260200190815260200160002060030160009054906101000a900473ffffffffffffffffffffffffffffffffffffffff1673ffffffffffffffffffffffffffffffffffffffff16146121d5576040517f08c379a00000000000000000000000000000000000000000000000000000000081526004016121cc906150b7565b60405180910390fd5b60008060008673ffffffffffffffffffffffffffffffffffffffff1673ffffffffffffffffffffffffffffffffffffffff168152602001908152602001600020600701805490501161225c576040517f08c379a000000000000000000000000000000000000000000000000000000000815260040161225390614e81565b60405180910390fd5b60006002600085815260200190815260200160002060020154116122b5576040517f08c379a00000000000000000000000000000000000000000000000000000000081526004016122ac90615025565b60405180910390fd5b600060048111156122c9576122c8613c6b565b5b6002600085815260200190815260200160002060030160149054906101000a900460ff1660048111156122ff576122fe613c6b565b5b148061235257506003600481111561231a57612319613c6b565b5b6002600085815260200190815260200160002060030160149054906101000a900460ff1660048111156123505761234f613c6b565b5b145b612391576040517f08c379a000000000000000000000000000000000000000000000000000000000815260040161238890615123565b60405180910390fd5b60008060008673ffffffffffffffffffffffffffffffffffffffff1673ffffffffffffffffffffffffffffffffffffffff168152602001908152602001600020600701905060005b818054905081101561257057848282815481106123f9576123f8614ea1565b5b90600052602060002001540361255d57600260008681526020019081526020016000206000808201600061242d9190613692565b60018201600061243d9190613692565b60028201600090556003820160006101000a81549073ffffffffffffffffffffffffffffffffffffffff02191690556003820160146101000a81549060ff021916905560048201600090556005820160009055600682016000905560078201600090556008820160006124b091906136d2565b6009820160006124c091906136f3565b600a820160006124d0919061371b565b600b820160006124e0919061371b565b505081600183805490506124f49190615143565b8154811061250557612504614ea1565b5b906000526020600020015482828154811061252357612522614ea1565b5b90600052602060002001819055508180548061254257612541615177565b5b60019003818190600052602060002001600090559055612570565b808061256890614eff565b9150506123d9565b505050505050565b6060600060018054806020026020016040519081016040528092919081815260200182805480156125fe57602002820191906000526020600020905b8160009054906101000a900473ffffffffffffffffffffffffffffffffffffffff1673ffffffffffffffffffffffffffffffffffffffff16815260200190600101908083116125b4575b505050505090506000600190505b6001805490508110156127e05760005b818110156127cc5760008084838151811061263a57612639614ea1565b5b602002602001015173ffffffffffffffffffffffffffffffffffffffff1673ffffffffffffffffffffffffffffffffffffffff1681526020019081526020016000206004015460008085858151811061269657612695614ea1565b5b602002602001015173ffffffffffffffffffffffffffffffffffffffff1673ffffffffffffffffffffffffffffffffffffffff1681526020019081526020016000206004015410156127b95760008383815181106126f7576126f6614ea1565b5b6020026020010151905083828151811061271457612713614ea1565b5b602002602001015184848151811061272f5761272e614ea1565b5b602002602001019073ffffffffffffffffffffffffffffffffffffffff16908173ffffffffffffffffffffffffffffffffffffffff16815250508084838151811061277d5761277c614ea1565b5b602002602001019073ffffffffffffffffffffffffffffffffffffffff16908173ffffffffffffffffffffffffffffffffffffffff1681525050505b80806127c490614eff565b91505061261c565b5080806127d890614eff565b91505061260c565b508091505090565b600060026000848152602001908152602001600020600b01905060005b81805490508110156128cd578282828154811061282557612824614ea1565b5b9060005260206000200154036128ba5781600183805490506128479190615143565b8154811061285857612857614ea1565b5b906000526020600020015482828154811061287657612875614ea1565b5b906000526020600020018190555081600183805490506128969190615143565b815481106128a7576128a6614ea1565b5b90600052602060002001600090556128cd565b80806128c590614eff565b915050612805565b50505050565b808073ffffffffffffffffffffffffffffffffffffffff163373ffffffffffffffffffffffffffffffffffffffff1614612942576040517f08c379a000000000000000000000000000000000000000000000000000000000815260040161293990614a5f565b60405180910390fd5b81600073ffffffffffffffffffffffffffffffffffffffff166000808373ffffffffffffffffffffffffffffffffffffffff1673ffffffffffffffffffffffffffffffffffffffff16815260200190815260200160002060060160009054906101000a900473ffffffffffffffffffffffffffffffffffffffff1673ffffffffffffffffffffffffffffffffffffffff1603612a13576040517f08c379a0000000000000000000000000000000000000000000000000000000008152600401612a0a90614acb565b60405180910390fd5b60008060008573ffffffffffffffffffffffffffffffffffffffff1673ffffffffffffffffffffffffffffffffffffffff168152602001908152602001600020905085816000019081612a669190614d63565b5084816003019081612a789190614d63565b50505050505050565b60006002600083815260200190815260200160002060030160009054906101000a900473ffffffffffffffffffffffffffffffffffffffff169050919050565b600060026000838152602001908152602001600020600501549050919050565b60008060026000858152602001908152602001600020905060008160080180549050905060005b81811015612b9f573373ffffffffffffffffffffffffffffffffffffffff16836008018281548110612b3d57612b3c614ea1565b5b9060005260206000200160009054906101000a900473ffffffffffffffffffffffffffffffffffffffff1673ffffffffffffffffffffffffffffffffffffffff1603612b8c5760019350612b9f565b8080612b9790614eff565b915050612b08565b508215612bf157816009018490806001815401808255809150506001900390600052602060002090602091828204019190069091909190916101000a81548160ff021916908315150217905550612c2c565b6040517f08c379a0000000000000000000000000000000000000000000000000000000008152600401612c2390615218565b60405180910390fd5b5050505050565b6000600260008481526020019081526020016000209050818160030160146101000a81548160ff02191690836004811115612c7157612c70613c6b565b5b0217905550505050565b858073ffffffffffffffffffffffffffffffffffffffff163373ffffffffffffffffffffffffffffffffffffffff1614612cea576040517f08c379a0000000000000000000000000000000000000000000000000000000008152600401612ce190614a5f565b60405180910390fd5b600286612cf79190615267565b8773ffffffffffffffffffffffffffffffffffffffff16311015612d50576040517f08c379a0000000000000000000000000000000000000000000000000000000008152600401612d479061530a565b60405180910390fd5b6000600260006003548152602001908152602001600020905085816000019081612d7a9190614d63565b5084816001019081612d8c9190614d63565b5086816002018190555060008160030160146101000a81548160ff02191690836004811115612dbe57612dbd613c6b565b5b0217905550428160040181905550838160050181905550878160030160006101000a81548173ffffffffffffffffffffffffffffffffffffffff021916908373ffffffffffffffffffffffffffffffffffffffff16021790555060035481600701819055508281600601819055506000612e36612578565b9050600081519050600a8111612e645781836008019080519060200190612e5e92919061373c565b50612fe1565b60005b600a811015612fdf576000803373ffffffffffffffffffffffffffffffffffffffff1673ffffffffffffffffffffffffffffffffffffffff16815260200190815260200160002060060160009054906101000a900473ffffffffffffffffffffffffffffffffffffffff1673ffffffffffffffffffffffffffffffffffffffff168360018385612ef79190615143565b612f019190615143565b81518110612f1257612f11614ea1565b5b602002602001015173ffffffffffffffffffffffffffffffffffffffff1614612fcc57836008018360018385612f489190615143565b612f529190615143565b81518110612f6357612f62614ea1565b5b60200260200101519080600181540180825580915050600190039060005260206000200160009091909190916101000a81548173ffffffffffffffffffffffffffffffffffffffff021916908373ffffffffffffffffffffffffffffffffffffffff1602179055505b8080612fd790614eff565b915050612e67565b505b6000808b73ffffffffffffffffffffffffffffffffffffffff1673ffffffffffffffffffffffffffffffffffffffff16815260200190815260200160002060070160035490806001815401808255809150506001900390600052602060002001600090919091909150556003600081548092919061305e90614eff565b919050555050505050505050505050565b86868173ffffffffffffffffffffffffffffffffffffffff166002600083815260200190815260200160002060030160009054906101000a900473ffffffffffffffffffffffffffffffffffffffff1673ffffffffffffffffffffffffffffffffffffffff1614613115576040517f08c379a000000000000000000000000000000000000000000000000000000000815260040161310c906150b7565b60405180910390fd5b6000600260008a81526020019081526020016000209050878160020181905550868160000190816131469190614d63565b50858160010190816131589190614d63565b5084816005018190555083816006018190555050505050505050505050565b6001818154811061318757600080fd5b906000526020600020016000915054906101000a900473ffffffffffffffffffffffffffffffffffffffff1681565b6000806000905060005b835181101561320b578381815181106131dc576131db614ea1565b5b6020026020010151156131f85781806131f490614eff565b9250505b808061320390614eff565b9150506131c0565b506006811061321e576001915050613224565b60009150505b919050565b808073ffffffffffffffffffffffffffffffffffffffff163373ffffffffffffffffffffffffffffffffffffffff1614613298576040517f08c379a000000000000000000000000000000000000000000000000000000000815260040161328f90614a5f565b60405180910390fd5b81600073ffffffffffffffffffffffffffffffffffffffff166000808373ffffffffffffffffffffffffffffffffffffffff1673ffffffffffffffffffffffffffffffffffffffff16815260200190815260200160002060060160009054906101000a900473ffffffffffffffffffffffffffffffffffffffff1673ffffffffffffffffffffffffffffffffffffffff1603613369576040517f08c379a000000000000000000000000000000000000000000000000000000000815260040161336090614acb565b60405180910390fd5b6000808473ffffffffffffffffffffffffffffffffffffffff1673ffffffffffffffffffffffffffffffffffffffff168152602001908152602001600020600080820160006133b89190613692565b6001820160006133c89190613692565b6002820160006133d89190613692565b6003820160006133e89190613692565b600482016000905560058201600090556006820160006101000a81549073ffffffffffffffffffffffffffffffffffffffff021916905560078201600061342f919061371b565b505060005b6001805490508110156135bb573373ffffffffffffffffffffffffffffffffffffffff166001828154811061346c5761346b614ea1565b5b9060005260206000200160009054906101000a900473ffffffffffffffffffffffffffffffffffffffff1673ffffffffffffffffffffffffffffffffffffffff16036135a85760018080805490506134c49190615143565b815481106134d5576134d4614ea1565b5b9060005260206000200160009054906101000a900473ffffffffffffffffffffffffffffffffffffffff166001828154811061351457613513614ea1565b5b9060005260206000200160006101000a81548173ffffffffffffffffffffffffffffffffffffffff021916908373ffffffffffffffffffffffffffffffffffffffff160217905550600180548061356e5761356d615177565b5b6001900381819060005260206000200160006101000a81549073ffffffffffffffffffffffffffffffffffffffff021916905590556135bb565b80806135b390614eff565b915050613434565b50505050565b60026000838152602001908152602001600020600b018190806001815401808255809150506001900390600052602060002001600090919091909150555050565b604051806101a00160405280606081526020016060815260200160008152602001600073ffffffffffffffffffffffffffffffffffffffff1681526020016000600481111561365457613653613c6b565b5b815260200160008152602001600081526020016000815260200160008152602001606081526020016060815260200160608152602001606081525090565b50805461369e90614b1a565b6000825580601f106136b057506136cf565b601f0160209004906000526020600020908101906136ce91906137c6565b5b50565b50805460008255906000526020600020908101906136f091906137c6565b50565b50805460008255601f01602090049060005260206000209081019061371891906137c6565b50565b508054600082559060005260206000209081019061373991906137c6565b50565b8280548282559060005260206000209081019282156137b5579160200282015b828111156137b45782518260006101000a81548173ffffffffffffffffffffffffffffffffffffffff021916908373ffffffffffffffffffffffffffffffffffffffff1602179055509160200191906001019061375c565b5b5090506137c291906137c6565b5090565b5b808211156137df5760008160009055506001016137c7565b5090565b6000604051905090565b600080fd5b600080fd5b600073ffffffffffffffffffffffffffffffffffffffff82169050919050565b6000613822826137f7565b9050919050565b61383281613817565b811461383d57600080fd5b50565b60008135905061384f81613829565b92915050565b60006020828403121561386b5761386a6137ed565b5b600061387984828501613840565b91505092915050565b600081519050919050565b600082825260208201905092915050565b60005b838110156138bc5780820151818401526020810190506138a1565b60008484015250505050565b6000601f19601f8301169050919050565b60006138e482613882565b6138ee818561388d565b93506138fe81856020860161389e565b613907816138c8565b840191505092915050565b61391b81613817565b82525050565b6000819050919050565b61393481613921565b82525050565b600060c082019050818103600083015261395481896138d9565b9050818103602083015261396881886138d9565b9050818103604083015261397c81876138d9565b905061398b6060830186613912565b613998608083018561392b565b81810360a08301526139aa81846138d9565b9050979650505050505050565b600080fd5b600080fd5b7f4e487b7100000000000000000000000000000000000000000000000000000000600052604160045260246000fd5b6139f9826138c8565b810181811067ffffffffffffffff82111715613a1857613a176139c1565b5b80604052505050565b6000613a2b6137e3565b9050613a3782826139f0565b919050565b600067ffffffffffffffff821115613a5757613a566139c1565b5b613a60826138c8565b9050602081019050919050565b82818337600083830152505050565b6000613a8f613a8a84613a3c565b613a21565b905082815260208101848484011115613aab57613aaa6139bc565b5b613ab6848285613a6d565b509392505050565b600082601f830112613ad357613ad26139b7565b5b8135613ae3848260208601613a7c565b91505092915050565b600080600080600060a08688031215613b0857613b076137ed565b5b600086013567ffffffffffffffff811115613b2657613b256137f2565b5b613b3288828901613abe565b955050602086013567ffffffffffffffff811115613b5357613b526137f2565b5b613b5f88828901613abe565b945050604086013567ffffffffffffffff811115613b8057613b7f6137f2565b5b613b8c88828901613abe565b935050606086013567ffffffffffffffff811115613bad57613bac6137f2565b5b613bb988828901613abe565b9250506080613bca88828901613840565b9150509295509295909350565b600081519050919050565b600082825260208201905092915050565b6000819050602082019050919050565b600082825260208201905092915050565b6000613c1f82613882565b613c298185613c03565b9350613c3981856020860161389e565b613c42816138c8565b840191505092915050565b613c5681613921565b82525050565b613c6581613817565b82525050565b7f4e487b7100000000000000000000000000000000000000000000000000000000600052602160045260246000fd5b60058110613cab57613caa613c6b565b5b50565b6000819050613cbc82613c9a565b919050565b6000613ccc82613cae565b9050919050565b613cdc81613cc1565b82525050565b600081519050919050565b600082825260208201905092915050565b6000819050602082019050919050565b6000613d1a8383613c5c565b60208301905092915050565b6000602082019050919050565b6000613d3e82613ce2565b613d488185613ced565b9350613d5383613cfe565b8060005b83811015613d84578151613d6b8882613d0e565b9750613d7683613d26565b925050600181019050613d57565b5085935050505092915050565b600081519050919050565b600082825260208201905092915050565b6000819050602082019050919050565b60008115159050919050565b613dd281613dbd565b82525050565b6000613de48383613dc9565b60208301905092915050565b6000602082019050919050565b6000613e0882613d91565b613e128185613d9c565b9350613e1d83613dad565b8060005b83811015613e4e578151613e358882613dd8565b9750613e4083613df0565b925050600181019050613e21565b5085935050505092915050565b600081519050919050565b600082825260208201905092915050565b6000819050602082019050919050565b6000613e938383613c4d565b60208301905092915050565b6000602082019050919050565b6000613eb782613e5b565b613ec18185613e66565b9350613ecc83613e77565b8060005b83811015613efd578151613ee48882613e87565b9750613eef83613e9f565b925050600181019050613ed0565b5085935050505092915050565b60006101a0830160008301518482036000860152613f288282613c14565b91505060208301518482036020860152613f428282613c14565b9150506040830151613f576040860182613c4d565b506060830151613f6a6060860182613c5c565b506080830151613f7d6080860182613cd3565b5060a0830151613f9060a0860182613c4d565b5060c0830151613fa360c0860182613c4d565b5060e0830151613fb660e0860182613c4d565b50610100830151613fcb610100860182613c4d565b50610120830151848203610120860152613fe58282613d33565b9150506101408301518482036101408601526140018282613dfd565b91505061016083015184820361016086015261401d8282613eac565b9150506101808301518482036101808601526140398282613eac565b9150508091505092915050565b60006140528383613f0a565b905092915050565b6000602082019050919050565b600061407282613bd7565b61407c8185613be2565b93508360208202850161408e85613bf3565b8060005b858110156140ca57848403895281516140ab8582614046565b94506140b68361405a565b925060208a01995050600181019050614092565b50829750879550505050505092915050565b600060208201905081810360008301526140f68184614067565b905092915050565b61410781613921565b811461411257600080fd5b50565b600081359050614124816140fe565b92915050565b6000602082840312156141405761413f6137ed565b5b600061414e84828501614115565b91505092915050565b600060208201905061416c600083018461392b565b92915050565b61417b81613cc1565b82525050565b60006020820190506141966000830184614172565b92915050565b600082825260208201905092915050565b60006141b882613e5b565b6141c2818561419c565b93506141cd83613e77565b8060005b838110156141fe5781516141e58882613e87565b97506141f083613e9f565b9250506001810190506141d1565b5085935050505092915050565b6000602082019050818103600083015261422581846141ad565b905092915050565b6000610120820190508181036000830152614248818c6138d9565b9050818103602083015261425c818b6138d9565b905061426b604083018a61392b565b6142786060830189613912565b6142856080830188614172565b61429260a083018761392b565b61429f60c083018661392b565b6142ac60e083018561392b565b6142ba61010083018461392b565b9a9950505050505050505050565b600060e08201905081810360008301526142e2818a6138d9565b905081810360208301526142f681896138d9565b9050818103604083015261430a81886138d9565b9050818103606083015261431e81876138d9565b905061432d608083018661392b565b61433a60a083018561392b565b61434760c0830184613912565b98975050505050505050565b60006101a08301600083015184820360008601526143718282613c14565b9150506020830151848203602086015261438b8282613c14565b91505060408301516143a06040860182613c4d565b5060608301516143b36060860182613c5c565b5060808301516143c66080860182613cd3565b5060a08301516143d960a0860182613c4d565b5060c08301516143ec60c0860182613c4d565b5060e08301516143ff60e0860182613c4d565b50610100830151614414610100860182613c4d565b5061012083015184820361012086015261442e8282613d33565b91505061014083015184820361014086015261444a8282613dfd565b9150506101608301518482036101608601526144668282613eac565b9150506101808301518482036101808601526144828282613eac565b9150508091505092915050565b600060208201905081810360008301526144a98184614353565b905092915050565b600080604083850312156144c8576144c76137ed565b5b60006144d685828601613840565b92505060206144e785828601614115565b9150509250929050565b600082825260208201905092915050565b600061450d82613ce2565b61451781856144f1565b935061452283613cfe565b8060005b8381101561455357815161453a8882613d0e565b975061454583613d26565b925050600181019050614526565b5085935050505092915050565b6000602082019050818103600083015261457a8184614502565b905092915050565b60008060408385031215614599576145986137ed565b5b60006145a785828601614115565b92505060206145b885828601614115565b9150509250929050565b6000806000606084860312156145db576145da6137ed565b5b600084013567ffffffffffffffff8111156145f9576145f86137f2565b5b61460586828701613abe565b935050602084013567ffffffffffffffff811115614626576146256137f2565b5b61463286828701613abe565b925050604061464386828701613840565b9150509250925092565b60006020820190506146626000830184613912565b92915050565b61467181613dbd565b811461467c57600080fd5b50565b60008135905061468e81614668565b92915050565b600080604083850312156146ab576146aa6137ed565b5b60006146b985828601614115565b92505060206146ca8582860161467f565b9150509250929050565b600581106146e157600080fd5b50565b6000813590506146f3816146d4565b92915050565b600080604083850312156147105761470f6137ed565b5b600061471e85828601614115565b925050602061472f858286016146e4565b9150509250929050565b60008060008060008060c08789031215614756576147556137ed565b5b600061476489828a01613840565b965050602061477589828a01614115565b955050604087013567ffffffffffffffff811115614796576147956137f2565b5b6147a289828a01613abe565b945050606087013567ffffffffffffffff8111156147c3576147c26137f2565b5b6147cf89828a01613abe565b93505060806147e089828a01614115565b92505060a06147f189828a01614115565b9150509295509295509295565b600080600080600080600060e0888a03121561481d5761481c6137ed565b5b600061482b8a828b01613840565b975050602061483c8a828b01614115565b965050604061484d8a828b01614115565b955050606088013567ffffffffffffffff81111561486e5761486d6137f2565b5b61487a8a828b01613abe565b945050608088013567ffffffffffffffff81111561489b5761489a6137f2565b5b6148a78a828b01613abe565b93505060a06148b88a828b01614115565b92505060c06148c98a828b01614115565b91505092959891949750929550565b600067ffffffffffffffff8211156148f3576148f26139c1565b5b602082029050602081019050919050565b600080fd5b600061491c614917846148d8565b613a21565b9050808382526020820190506020840283018581111561493f5761493e614904565b5b835b818110156149685780614954888261467f565b845260208401935050602081019050614941565b5050509392505050565b600082601f830112614987576149866139b7565b5b8135614997848260208601614909565b91505092915050565b6000602082840312156149b6576149b56137ed565b5b600082013567ffffffffffffffff8111156149d4576149d36137f2565b5b6149e084828501614972565b91505092915050565b6149f281613dbd565b82525050565b6000602082019050614a0d60008301846149e9565b92915050565b7f43616c6c6572206973206e6f74206f776e657200000000000000000000000000600082015250565b6000614a4960138361388d565b9150614a5482614a13565b602082019050919050565b60006020820190508181036000830152614a7881614a3c565b9050919050565b7f506172747920646f6573206e6f74206578697374000000000000000000000000600082015250565b6000614ab560148361388d565b9150614ac082614a7f565b602082019050919050565b60006020820190508181036000830152614ae481614aa8565b9050919050565b7f4e487b7100000000000000000000000000000000000000000000000000000000600052602260045260246000fd5b60006002820490506001821680614b3257607f821691505b602082108103614b4557614b44614aeb565b5b50919050565b7f506172747920616c726561647920657869737473000000000000000000000000600082015250565b6000614b8160148361388d565b9150614b8c82614b4b565b602082019050919050565b60006020820190508181036000830152614bb081614b74565b9050919050565b60008190508160005260206000209050919050565b60006020601f8301049050919050565b600082821b905092915050565b600060088302614c197fffffffffffffffffffffffffffffffffffffffffffffffffffffffffffffffff82614bdc565b614c238683614bdc565b95508019841693508086168417925050509392505050565b6000819050919050565b6000614c60614c5b614c5684613921565b614c3b565b613921565b9050919050565b6000819050919050565b614c7a83614c45565b614c8e614c8682614c67565b848454614be9565b825550505050565b600090565b614ca3614c96565b614cae818484614c71565b505050565b5b81811015614cd257614cc7600082614c9b565b600181019050614cb4565b5050565b601f821115614d1757614ce881614bb7565b614cf184614bcc565b81016020851015614d00578190505b614d14614d0c85614bcc565b830182614cb3565b50505b505050565b600082821c905092915050565b6000614d3a60001984600802614d1c565b1980831691505092915050565b6000614d538383614d29565b9150826002028217905092915050565b614d6c82613882565b67ffffffffffffffff811115614d8557614d846139c1565b5b614d8f8254614b1a565b614d9a828285614cd6565b600060209050601f831160018114614dcd5760008415614dbb578287015190505b614dc58582614d47565b865550614e2d565b601f198416614ddb86614bb7565b60005b82811015614e0357848901518255600182019150602085019450602081019050614dde565b86831015614e205784890151614e1c601f891682614d29565b8355505b6001600288020188555050505b505050505050565b7f4e6f2074656e6465727320657869737473000000000000000000000000000000600082015250565b6000614e6b60118361388d565b9150614e7682614e35565b602082019050919050565b60006020820190508181036000830152614e9a81614e5e565b9050919050565b7f4e487b7100000000000000000000000000000000000000000000000000000000600052603260045260246000fd5b7f4e487b7100000000000000000000000000000000000000000000000000000000600052601160045260246000fd5b6000614f0a82613921565b91507fffffffffffffffffffffffffffffffffffffffffffffffffffffffffffffffff8203614f3c57614f3b614ed0565b5b600182019050919050565b7f4e6f207061727469657320657869737473000000000000000000000000000000600082015250565b6000614f7d60118361388d565b9150614f8882614f47565b602082019050919050565b60006020820190508181036000830152614fac81614f70565b9050919050565b7f74656e6465722077697468206164647265737320646f65736e2774206578697360008201527f7473000000000000000000000000000000000000000000000000000000000000602082015250565b600061500f60228361388d565b915061501a82614fb3565b604082019050919050565b6000602082019050818103600083015261503e81615002565b9050919050565b7f796f75277265206e6f7420617574686f72697a656420746f20706572666f726d60008201527f207468697320616374696f6e0000000000000000000000000000000000000000602082015250565b60006150a1602c8361388d565b91506150ac82615045565b604082019050919050565b600060208201905081810360008301526150d081615094565b9050919050565b7f74656e6465722063616e6e6f742062652064656c657465640000000000000000600082015250565b600061510d60188361388d565b9150615118826150d7565b602082019050919050565b6000602082019050818103600083015261513c81615100565b9050919050565b600061514e82613921565b915061515983613921565b925082820390508181111561517157615170614ed0565b5b92915050565b7f4e487b7100000000000000000000000000000000000000000000000000000000600052603160045260246000fd5b7f596f75277265206e6f7420617574686f72697a656420746f2076616c6964617460008201527f6520746869732074656e6465722e000000000000000000000000000000000000602082015250565b6000615202602e8361388d565b915061520d826151a6565b604082019050919050565b60006020820190508181036000830152615231816151f5565b9050919050565b7f4e487b7100000000000000000000000000000000000000000000000000000000600052601260045260246000fd5b600061527282613921565b915061527d83613921565b92508261528d5761528c615238565b5b828204905092915050565b7f696e73756666696369656e742066756e647320746f206372656174652061207460008201527f656e646572000000000000000000000000000000000000000000000000000000602082015250565b60006152f460258361388d565b91506152ff82615298565b604082019050919050565b60006020820190508181036000830152615323816152e7565b905091905056fea26469706673582212200d50e7cc68919f8e8d5cedc89c108f4cca1e2a5f4ae5743ed1cf2b18725aaa6264736f6c63430008130033",
  "immutableReferences": {},
  "source": "// SPDX-License-Identifier: UNLICENSED\r\n\r\n//the version of solidity that is compatible\r\nimport \"./PartyContract.sol\";\r\nenum TenderStatus{ NEW, OPEN, CLOSED, SUSPENDED, ASSIGNED } //created---OPEN, deadline crosses---CLOSED, project is assigned ---- ASSIGNED\r\n\r\npragma solidity ^0.8.0;\r\ncontract TenderContract is PartyContract{\r\n    // Tender Structure\r\n    struct Tender {\r\n        string title;\r\n        string description;\r\n        uint256 budget;\r\n        address issuerAddress;\r\n        TenderStatus tenderStatus; \r\n        uint256 createdAt;\r\n        uint256 deadline;\r\n        uint256 totalMilestones;\r\n        uint256 tenderId;\r\n        address[] validatorsAddresses;\r\n        bool[] validationVotes;\r\n        uint256[] milestoneTimePeriods;\r\n        uint256[] bidIds;\r\n    }\r\n\r\n    mapping (uint256 => Tender) public tenders;\r\n    uint256 tenderCount = 0;\r\n\r\n    //setters and getter functions\r\n    function getBudget(uint256 _tenderId) public view returns(uint256){\r\n        return tenders[_tenderId].budget;\r\n    }\r\n\r\n    function getTenderStatus(uint256 _tenderId) public view returns(TenderStatus){\r\n        return tenders[_tenderId].tenderStatus;\r\n    }\r\n\r\n    function getDeadline(uint256 _tenderId) public view returns(uint256){\r\n            return tenders[_tenderId].deadline;\r\n    }\r\n\r\n    function getBidIds(uint256 _tenderId) public view returns(uint256[] memory){\r\n        return tenders[_tenderId].bidIds;\r\n    }\r\n\r\n    function getIssuerAddress(uint256 _tenderId) public view returns(address){\r\n        return tenders[_tenderId].issuerAddress;\r\n    }\r\n\r\n    function addBidId(uint256 _tenderId, uint256 bidId) public {\r\n        tenders[_tenderId].bidIds.push(bidId);\r\n    }\r\n\r\n    function deleteBidId(uint256 _tenderId, uint256 _bidId) public {\r\n        uint256[] storage tenderBidIds = tenders[_tenderId].bidIds;\r\n        for (uint i = 0; i < tenderBidIds.length; i++){\r\n            if(tenderBidIds[i] == _bidId){\r\n                tenderBidIds[i] = tenderBidIds[tenderBidIds.length - 1];\r\n                delete tenderBidIds[tenderBidIds.length - 1];\r\n                break;\r\n            }\r\n        }\r\n    }\r\n\r\n    // Function for creating a tender\r\n    function createTender(address _partyAddress, uint256 _budget, string memory _title, string memory _description, uint256 _deadline, uint256 _totalMilestones) isOwner(_partyAddress) public {\r\n        require(_partyAddress.balance >= _budget/2, \"insufficient funds to create a tender\");\r\n        Tender storage newTender = tenders[tenderCount];\r\n        newTender.title = _title;\r\n        newTender.description = _description;\r\n        newTender.budget = _budget;\r\n        newTender.tenderStatus = TenderStatus.NEW;\r\n        newTender.createdAt = block.timestamp;\r\n        newTender.deadline = _deadline;\r\n        newTender.issuerAddress = _partyAddress;\r\n        newTender.tenderId = tenderCount;\r\n        newTender.totalMilestones = _totalMilestones;\r\n        address[] memory sortedlist = sortByTrustScore();\r\n        uint len = sortedlist.length;\r\n        if(len<=10)\r\n        {\r\n            newTender.validatorsAddresses = sortedlist;\r\n        }\r\n        else\r\n        {\r\n            for(uint i=0; i<10; i++)\r\n            {\r\n                if(sortedlist[len-i-1] != parties[msg.sender].partyAddress)\r\n                {\r\n                    newTender.validatorsAddresses.push(sortedlist[len-i-1]);\r\n                }\r\n            }\r\n        }\r\n        parties[_partyAddress].tenderIds.push(tenderCount);\r\n        tenderCount++;\r\n    }\r\n\r\n    function sortByTrustScore() public view returns(address[] memory) {\r\n    address[] memory _party = partyAddresses;\r\n    for (uint i = 1; i < partyAddresses.length; i++)\r\n        for (uint j = 0; j < i; j++)\r\n            if (parties[_party[i]].trustScore < parties[_party[j]].trustScore) {\r\n                address x = _party[i];\r\n                _party[i] = _party[j];\r\n                _party[j] = x;\r\n            }\r\n\r\n    return _party;\r\n    }\r\n\r\n    function validate(uint256 _tenderId, bool _vote) public {\r\n        bool valid = false;\r\n        Tender storage newTender = tenders[_tenderId];\r\n        uint len = newTender.validatorsAddresses.length;\r\n        for(uint i=0; i<len; i++)\r\n        {\r\n            if(newTender.validatorsAddresses[i] == msg.sender)\r\n            {\r\n                valid = true;\r\n                break;\r\n            }\r\n        }\r\n        if(valid)\r\n        {\r\n            newTender.validationVotes.push(_vote);\r\n            if(_vote) {\r\n                //deduct token from party account and add it to tender account\r\n            }\r\n        }\r\n        else\r\n        {\r\n            revert(\"You're not authorized to validate this tender.\");\r\n        }\r\n    }\r\n\r\n    function checkTenderValidation(uint256 _tenderId) public {\r\n        Tender storage newTender = tenders[_tenderId];\r\n        if(isValid(newTender.validationVotes)) {\r\n            updateTenderStatus(_tenderId, TenderStatus.OPEN);\r\n        }\r\n    }\r\n    \r\n    function isValid(bool[] memory _validationVotes) public pure returns (bool) {\r\n        uint voteCount = 0;\r\n        for(uint i=0; i<_validationVotes.length; i++)\r\n        {\r\n            if(_validationVotes[i])\r\n            {\r\n                voteCount++;\r\n            }\r\n        }\r\n\r\n        if(voteCount>=6)\r\n        {\r\n            return true;\r\n        }\r\n        return false;\r\n    }\r\n\r\n    function getAllActiveTenders() public view returns (Tender[] memory){\r\n        require(partyAddresses.length > 0, \"No parties exists\");\r\n        Tender[] memory tendersList = new Tender[](tenderCount);\r\n        for (uint256 i = 0; i < tenderCount; i++) {\r\n            if(tenders[i].tenderStatus == TenderStatus.OPEN)\r\n            tendersList[i] = tenders[i];\r\n        }\r\n        return(tendersList);\r\n    }\r\n\r\n    function getMyTenders(address _partyAddress) public view returns ( Tender[] memory){\r\n        require(parties[_partyAddress].tenderIds.length > 0, \"No tenders exists\");\r\n        uint256[] memory partyTenderIds = parties[_partyAddress].tenderIds;\r\n        Tender[] memory tendersList = new Tender[](partyTenderIds.length);\r\n        for (uint256 i = 0; i < partyTenderIds.length; i++) {\r\n            tendersList[i] = tenders[partyTenderIds[i]];\r\n        }\r\n        return(tendersList);\r\n    }\r\n\r\n    function getTenderDetails(uint256 _tenderId) public view returns ( Tender memory){\r\n        require(tenders[_tenderId].budget > 0 , \"tender with address doesn't exists\");\r\n        return(tenders[_tenderId]);\r\n    }\r\n\r\n    function updateTenderStatus(uint256 _tenderId, TenderStatus _tenderStatus) public {\r\n        Tender storage updatedTender = tenders[_tenderId];\r\n        updatedTender.tenderStatus = _tenderStatus;\r\n    }\r\n\r\n    function updateTender(address _partyAddress, uint256 _tenderId, uint256 _budget, string memory _title, string memory _description, uint256 _deadline, uint256 _totalMilestones) public isTenderOwner(_partyAddress, _tenderId){\r\n        Tender storage updatedTender = tenders[_tenderId];\r\n        updatedTender.budget = _budget;\r\n        updatedTender.title = _title;\r\n        updatedTender.description = _description;\r\n        updatedTender.deadline = _deadline;\r\n        updatedTender.totalMilestones = _totalMilestones;\r\n    }\r\n\r\n    function deleteTender(address _partyAddress, uint256 _tenderId) public isTenderOwner(_partyAddress, _tenderId){ \r\n        require(parties[_partyAddress].tenderIds.length > 0, \"No tenders exists\");\r\n        require(tenders[_tenderId].budget > 0 , \"tender with address doesn't exists\");\r\n        require(tenders[_tenderId].tenderStatus == TenderStatus.NEW ||\r\n                tenders[_tenderId].tenderStatus == TenderStatus.SUSPENDED , \"tender cannot be deleted\");\r\n        uint256[] storage _tenderIds = parties[_partyAddress].tenderIds;\r\n        for (uint i = 0; i < _tenderIds.length; i++){\r\n            if(_tenderIds[i] == _tenderId){\r\n                delete tenders[_tenderId];\r\n                _tenderIds[i] = _tenderIds[_tenderIds.length - 1];\r\n                _tenderIds.pop();\r\n                break;\r\n            }\r\n        }\r\n    }\r\n\r\n    // @todo - add modifer for above functions\r\n\r\n    modifier isTenderOwner(address _partyAddress, uint256 _tenderId) {\r\n        require(tenders[_tenderId].issuerAddress == _partyAddress, \"you're not authorized to perform this action\");\r\n        _;\r\n    }\r\n\r\n    \r\n}\r\n",
  "sourcePath": "C:\\Users\\sabba\\OneDrive\\Documents\\BlockchainProject\\blockchain-based-contracting-system\\contracts\\TenderContract.sol",
  "compiler": {
    "name": "solc",
    "version": "0.8.19+commit.7dd6d404.Emscripten.clang"
  },
  "schemaVersion": "3.4.13",
  "updatedAt": "2023-04-13T13:31:12.298Z",
  "devdoc": {
    "kind": "dev",
    "methods": {},
    "version": 1
  },
  "userdoc": {
    "kind": "user",
    "methods": {},
    "version": 1
  }
}