{
  "contractName": "TenderContract",
  "abi": [
    {
      "inputs": [
        {
          "internalType": "contract Token",
          "name": "_tokenRef",
          "type": "address"
        }
      ],
      "stateMutability": "nonpayable",
      "type": "constructor"
    },
    {
      "inputs": [],
      "name": "admin",
      "outputs": [
        {
          "internalType": "address",
          "name": "",
          "type": "address"
        }
      ],
      "stateMutability": "view",
      "type": "function",
      "constant": true
    },
    {
      "inputs": [
        {
          "internalType": "string",
          "name": "_name",
          "type": "string"
        },
        {
          "internalType": "string",
          "name": "_contactNumber",
          "type": "string"
        },
        {
          "internalType": "string",
          "name": "_email",
          "type": "string"
        },
        {
          "internalType": "string",
          "name": "_password",
          "type": "string"
        },
        {
          "internalType": "address",
          "name": "_partyAddress",
          "type": "address"
        }
      ],
      "name": "createParty",
      "outputs": [],
      "stateMutability": "nonpayable",
      "type": "function"
    },
    {
      "inputs": [
        {
          "internalType": "address",
          "name": "_partyAddress",
          "type": "address"
        }
      ],
      "name": "deleteParty",
      "outputs": [],
      "stateMutability": "nonpayable",
      "type": "function"
    },
    {
      "inputs": [
        {
          "internalType": "address",
          "name": "_partyAddress",
          "type": "address"
        }
      ],
      "name": "getPartyDetails",
      "outputs": [
        {
          "internalType": "string",
          "name": "",
          "type": "string"
        },
        {
          "internalType": "string",
          "name": "",
          "type": "string"
        },
        {
          "internalType": "string",
          "name": "",
          "type": "string"
        },
        {
          "internalType": "address",
          "name": "",
          "type": "address"
        },
        {
          "internalType": "uint256",
          "name": "",
          "type": "uint256"
        },
        {
          "internalType": "string",
          "name": "",
          "type": "string"
        }
      ],
      "stateMutability": "view",
      "type": "function",
      "constant": true
    },
    {
      "inputs": [
        {
          "internalType": "address",
          "name": "_partyAddress",
          "type": "address"
        }
      ],
      "name": "getTrustScore",
      "outputs": [
        {
          "internalType": "uint256",
          "name": "",
          "type": "uint256"
        }
      ],
      "stateMutability": "view",
      "type": "function",
      "constant": true
    },
    {
      "inputs": [
        {
          "internalType": "address",
          "name": "",
          "type": "address"
        }
      ],
      "name": "parties",
      "outputs": [
        {
          "internalType": "string",
          "name": "name",
          "type": "string"
        },
        {
          "internalType": "string",
          "name": "contactNumber",
          "type": "string"
        },
        {
          "internalType": "string",
          "name": "email",
          "type": "string"
        },
        {
          "internalType": "string",
          "name": "password",
          "type": "string"
        },
        {
          "internalType": "uint256",
          "name": "trustScore",
          "type": "uint256"
        },
        {
          "internalType": "uint256",
          "name": "createdAt",
          "type": "uint256"
        },
        {
          "internalType": "address",
          "name": "partyAddress",
          "type": "address"
        },
        {
          "internalType": "uint256",
          "name": "balance",
          "type": "uint256"
        },
        {
          "internalType": "uint256",
          "name": "freezedBalance",
          "type": "uint256"
        }
      ],
      "stateMutability": "view",
      "type": "function",
      "constant": true
    },
    {
      "inputs": [
        {
          "internalType": "uint256",
          "name": "",
          "type": "uint256"
        }
      ],
      "name": "partyAddresses",
      "outputs": [
        {
          "internalType": "address",
          "name": "",
          "type": "address"
        }
      ],
      "stateMutability": "view",
      "type": "function",
      "constant": true
    },
    {
      "inputs": [
        {
          "internalType": "address",
          "name": "_partyAddress",
          "type": "address"
        },
        {
          "internalType": "uint256",
          "name": "_trustScore",
          "type": "uint256"
        }
      ],
      "name": "setTrustScore",
      "outputs": [],
      "stateMutability": "nonpayable",
      "type": "function"
    },
    {
      "inputs": [
        {
          "internalType": "uint256",
          "name": "",
          "type": "uint256"
        }
      ],
      "name": "tenders",
      "outputs": [
        {
          "internalType": "string",
          "name": "title",
          "type": "string"
        },
        {
          "internalType": "string",
          "name": "description",
          "type": "string"
        },
        {
          "internalType": "uint256",
          "name": "budget",
          "type": "uint256"
        },
        {
          "internalType": "address",
          "name": "issuerAddress",
          "type": "address"
        },
        {
          "internalType": "enum TenderStatus",
          "name": "tenderStatus",
          "type": "uint8"
        },
        {
          "internalType": "uint256",
          "name": "createdAt",
          "type": "uint256"
        },
        {
          "internalType": "uint256",
          "name": "deadline",
          "type": "uint256"
        },
        {
          "internalType": "uint256",
          "name": "totalMilestones",
          "type": "uint256"
        },
        {
          "internalType": "uint256",
          "name": "tenderId",
          "type": "uint256"
        },
        {
          "internalType": "uint256",
          "name": "balance",
          "type": "uint256"
        }
      ],
      "stateMutability": "view",
      "type": "function",
      "constant": true
    },
    {
      "inputs": [],
      "name": "tokenRef",
      "outputs": [
        {
          "internalType": "contract Token",
          "name": "",
          "type": "address"
        }
      ],
      "stateMutability": "view",
      "type": "function",
      "constant": true
    },
    {
      "inputs": [
        {
          "internalType": "string",
          "name": "_name",
          "type": "string"
        },
        {
          "internalType": "string",
          "name": "_password",
          "type": "string"
        },
        {
          "internalType": "address",
          "name": "_partyAddress",
          "type": "address"
        }
      ],
      "name": "updateParty",
      "outputs": [],
      "stateMutability": "nonpayable",
      "type": "function"
    },
    {
      "inputs": [],
      "name": "getTenderCount",
      "outputs": [
        {
          "internalType": "uint256",
          "name": "",
          "type": "uint256"
        }
      ],
      "stateMutability": "view",
      "type": "function",
      "constant": true
    },
    {
      "inputs": [
        {
          "internalType": "uint256",
          "name": "_tenderId",
          "type": "uint256"
        }
      ],
      "name": "getBudget",
      "outputs": [
        {
          "internalType": "uint256",
          "name": "",
          "type": "uint256"
        }
      ],
      "stateMutability": "view",
      "type": "function",
      "constant": true
    },
    {
      "inputs": [
        {
          "internalType": "uint256",
          "name": "_tenderId",
          "type": "uint256"
        }
      ],
      "name": "getTenderStatus",
      "outputs": [
        {
          "internalType": "enum TenderStatus",
          "name": "",
          "type": "uint8"
        }
      ],
      "stateMutability": "view",
      "type": "function",
      "constant": true
    },
    {
      "inputs": [
        {
          "internalType": "uint256",
          "name": "_tenderId",
          "type": "uint256"
        }
      ],
      "name": "getDeadline",
      "outputs": [
        {
          "internalType": "uint256",
          "name": "",
          "type": "uint256"
        }
      ],
      "stateMutability": "view",
      "type": "function",
      "constant": true
    },
    {
      "inputs": [
        {
          "internalType": "uint256",
          "name": "_tenderId",
          "type": "uint256"
        }
      ],
      "name": "getBidIds",
      "outputs": [
        {
          "internalType": "uint256[]",
          "name": "",
          "type": "uint256[]"
        }
      ],
      "stateMutability": "view",
      "type": "function",
      "constant": true
    },
    {
      "inputs": [
        {
          "internalType": "uint256",
          "name": "_tenderId",
          "type": "uint256"
        }
      ],
      "name": "getIssuerAddress",
      "outputs": [
        {
          "internalType": "address",
          "name": "",
          "type": "address"
        }
      ],
      "stateMutability": "view",
      "type": "function",
      "constant": true
    },
    {
      "inputs": [
        {
          "internalType": "uint256",
          "name": "_tenderId",
          "type": "uint256"
        }
      ],
      "name": "getTotalMilestones",
      "outputs": [
        {
          "internalType": "uint256",
          "name": "",
          "type": "uint256"
        }
      ],
      "stateMutability": "view",
      "type": "function",
      "constant": true
    },
    {
      "inputs": [
        {
          "internalType": "uint256",
          "name": "_tenderId",
          "type": "uint256"
        }
      ],
      "name": "getBidsCount",
      "outputs": [
        {
          "internalType": "uint256",
          "name": "",
          "type": "uint256"
        }
      ],
      "stateMutability": "view",
      "type": "function",
      "constant": true
    },
    {
      "inputs": [
        {
          "internalType": "uint256",
          "name": "_tenderId",
          "type": "uint256"
        },
        {
          "internalType": "uint256",
          "name": "bidId",
          "type": "uint256"
        }
      ],
      "name": "addBidId",
      "outputs": [],
      "stateMutability": "nonpayable",
      "type": "function"
    },
    {
      "inputs": [
        {
          "internalType": "uint256[]",
          "name": "_tenderBidIds",
          "type": "uint256[]"
        },
        {
          "internalType": "uint256",
          "name": "_tenderId",
          "type": "uint256"
        }
      ],
      "name": "setBidIds",
      "outputs": [],
      "stateMutability": "nonpayable",
      "type": "function"
    },
    {
      "inputs": [
        {
          "internalType": "uint256",
          "name": "_tenderId",
          "type": "uint256"
        },
        {
          "internalType": "uint256",
          "name": "_bidId",
          "type": "uint256"
        }
      ],
      "name": "deleteBidId",
      "outputs": [],
      "stateMutability": "nonpayable",
      "type": "function"
    },
    {
      "inputs": [
        {
          "internalType": "address",
          "name": "_partyAddress",
          "type": "address"
        },
        {
          "internalType": "uint256",
          "name": "_budget",
          "type": "uint256"
        },
        {
          "internalType": "string",
          "name": "_title",
          "type": "string"
        },
        {
          "internalType": "string",
          "name": "_description",
          "type": "string"
        },
        {
          "internalType": "uint256",
          "name": "_deadline",
          "type": "uint256"
        },
        {
          "internalType": "uint256",
          "name": "_totalMilestones",
          "type": "uint256"
        }
      ],
      "name": "createTender",
      "outputs": [],
      "stateMutability": "nonpayable",
      "type": "function"
    },
    {
      "inputs": [],
      "name": "sortByTrustScore",
      "outputs": [
        {
          "internalType": "address[]",
          "name": "",
          "type": "address[]"
        }
      ],
      "stateMutability": "view",
      "type": "function",
      "constant": true
    },
    {
      "inputs": [
        {
          "internalType": "uint256",
          "name": "_tenderId",
          "type": "uint256"
        },
        {
          "internalType": "bool",
          "name": "_vote",
          "type": "bool"
        }
      ],
      "name": "validate",
      "outputs": [],
      "stateMutability": "nonpayable",
      "type": "function"
    },
    {
      "inputs": [
        {
          "internalType": "uint256",
          "name": "_tenderId",
          "type": "uint256"
        }
      ],
      "name": "checkTenderValidation",
      "outputs": [],
      "stateMutability": "nonpayable",
      "type": "function"
    },
    {
      "inputs": [
        {
          "internalType": "bool[]",
          "name": "_validationVotes",
          "type": "bool[]"
        }
      ],
      "name": "isValid",
      "outputs": [
        {
          "internalType": "bool",
          "name": "",
          "type": "bool"
        }
      ],
      "stateMutability": "pure",
      "type": "function",
      "constant": true
    },
    {
      "inputs": [],
      "name": "getAllActiveTenders",
      "outputs": [
        {
          "components": [
            {
              "internalType": "string",
              "name": "title",
              "type": "string"
            },
            {
              "internalType": "string",
              "name": "description",
              "type": "string"
            },
            {
              "internalType": "uint256",
              "name": "budget",
              "type": "uint256"
            },
            {
              "internalType": "address",
              "name": "issuerAddress",
              "type": "address"
            },
            {
              "internalType": "enum TenderStatus",
              "name": "tenderStatus",
              "type": "uint8"
            },
            {
              "internalType": "uint256",
              "name": "createdAt",
              "type": "uint256"
            },
            {
              "internalType": "uint256",
              "name": "deadline",
              "type": "uint256"
            },
            {
              "internalType": "uint256",
              "name": "totalMilestones",
              "type": "uint256"
            },
            {
              "internalType": "uint256",
              "name": "tenderId",
              "type": "uint256"
            },
            {
              "internalType": "address[]",
              "name": "validatorsAddresses",
              "type": "address[]"
            },
            {
              "internalType": "bool[]",
              "name": "validationVotes",
              "type": "bool[]"
            },
            {
              "internalType": "uint256[]",
              "name": "milestoneTimePeriods",
              "type": "uint256[]"
            },
            {
              "internalType": "uint256[]",
              "name": "bidIds",
              "type": "uint256[]"
            },
            {
              "internalType": "uint256",
              "name": "balance",
              "type": "uint256"
            }
          ],
          "internalType": "struct TenderContract.Tender[]",
          "name": "",
          "type": "tuple[]"
        },
        {
          "internalType": "uint256",
          "name": "",
          "type": "uint256"
        }
      ],
      "stateMutability": "view",
      "type": "function",
      "constant": true
    },
    {
      "inputs": [
        {
          "internalType": "address",
          "name": "_partyAddress",
          "type": "address"
        }
      ],
      "name": "getMyTenders",
      "outputs": [
        {
          "components": [
            {
              "internalType": "string",
              "name": "title",
              "type": "string"
            },
            {
              "internalType": "string",
              "name": "description",
              "type": "string"
            },
            {
              "internalType": "uint256",
              "name": "budget",
              "type": "uint256"
            },
            {
              "internalType": "address",
              "name": "issuerAddress",
              "type": "address"
            },
            {
              "internalType": "enum TenderStatus",
              "name": "tenderStatus",
              "type": "uint8"
            },
            {
              "internalType": "uint256",
              "name": "createdAt",
              "type": "uint256"
            },
            {
              "internalType": "uint256",
              "name": "deadline",
              "type": "uint256"
            },
            {
              "internalType": "uint256",
              "name": "totalMilestones",
              "type": "uint256"
            },
            {
              "internalType": "uint256",
              "name": "tenderId",
              "type": "uint256"
            },
            {
              "internalType": "address[]",
              "name": "validatorsAddresses",
              "type": "address[]"
            },
            {
              "internalType": "bool[]",
              "name": "validationVotes",
              "type": "bool[]"
            },
            {
              "internalType": "uint256[]",
              "name": "milestoneTimePeriods",
              "type": "uint256[]"
            },
            {
              "internalType": "uint256[]",
              "name": "bidIds",
              "type": "uint256[]"
            },
            {
              "internalType": "uint256",
              "name": "balance",
              "type": "uint256"
            }
          ],
          "internalType": "struct TenderContract.Tender[]",
          "name": "",
          "type": "tuple[]"
        }
      ],
      "stateMutability": "view",
      "type": "function",
      "constant": true
    },
    {
      "inputs": [
        {
          "internalType": "uint256",
          "name": "_tenderId",
          "type": "uint256"
        }
      ],
      "name": "getTenderDetails",
      "outputs": [
        {
          "components": [
            {
              "internalType": "string",
              "name": "title",
              "type": "string"
            },
            {
              "internalType": "string",
              "name": "description",
              "type": "string"
            },
            {
              "internalType": "uint256",
              "name": "budget",
              "type": "uint256"
            },
            {
              "internalType": "address",
              "name": "issuerAddress",
              "type": "address"
            },
            {
              "internalType": "enum TenderStatus",
              "name": "tenderStatus",
              "type": "uint8"
            },
            {
              "internalType": "uint256",
              "name": "createdAt",
              "type": "uint256"
            },
            {
              "internalType": "uint256",
              "name": "deadline",
              "type": "uint256"
            },
            {
              "internalType": "uint256",
              "name": "totalMilestones",
              "type": "uint256"
            },
            {
              "internalType": "uint256",
              "name": "tenderId",
              "type": "uint256"
            },
            {
              "internalType": "address[]",
              "name": "validatorsAddresses",
              "type": "address[]"
            },
            {
              "internalType": "bool[]",
              "name": "validationVotes",
              "type": "bool[]"
            },
            {
              "internalType": "uint256[]",
              "name": "milestoneTimePeriods",
              "type": "uint256[]"
            },
            {
              "internalType": "uint256[]",
              "name": "bidIds",
              "type": "uint256[]"
            },
            {
              "internalType": "uint256",
              "name": "balance",
              "type": "uint256"
            }
          ],
          "internalType": "struct TenderContract.Tender",
          "name": "",
          "type": "tuple"
        }
      ],
      "stateMutability": "view",
      "type": "function",
      "constant": true
    },
    {
      "inputs": [
        {
          "internalType": "uint256",
          "name": "_tenderId",
          "type": "uint256"
        },
        {
          "internalType": "enum TenderStatus",
          "name": "_tenderStatus",
          "type": "uint8"
        }
      ],
      "name": "updateTenderStatus",
      "outputs": [],
      "stateMutability": "nonpayable",
      "type": "function"
    },
    {
      "inputs": [
        {
          "internalType": "address",
          "name": "_partyAddress",
          "type": "address"
        },
        {
          "internalType": "uint256",
          "name": "_tenderId",
          "type": "uint256"
        },
        {
          "internalType": "uint256",
          "name": "_budget",
          "type": "uint256"
        },
        {
          "internalType": "string",
          "name": "_title",
          "type": "string"
        },
        {
          "internalType": "string",
          "name": "_description",
          "type": "string"
        },
        {
          "internalType": "uint256",
          "name": "_deadline",
          "type": "uint256"
        },
        {
          "internalType": "uint256",
          "name": "_totalMilestones",
          "type": "uint256"
        }
      ],
      "name": "updateTender",
      "outputs": [],
      "stateMutability": "nonpayable",
      "type": "function"
    },
    {
      "inputs": [
        {
          "internalType": "address",
          "name": "_partyAddress",
          "type": "address"
        },
        {
          "internalType": "uint256",
          "name": "_tenderId",
          "type": "uint256"
        }
      ],
      "name": "deleteTender",
      "outputs": [],
      "stateMutability": "nonpayable",
      "type": "function"
    }
  ],
  "bytecode": "0x6080604052603260045560006006553480156200001b57600080fd5b5060405162005d0238038062005d02833981810160405281019062000041919062000109565b8080600360006101000a81548173ffffffffffffffffffffffffffffffffffffffff021916908373ffffffffffffffffffffffffffffffffffffffff16021790555050506200013b565b600080fd5b600073ffffffffffffffffffffffffffffffffffffffff82169050919050565b6000620000bd8262000090565b9050919050565b6000620000d182620000b0565b9050919050565b620000e381620000c4565b8114620000ef57600080fd5b50565b6000815190506200010381620000d8565b92915050565b6000602082840312156200012257620001216200008b565b5b60006200013284828501620000f2565b91505092915050565b615bb7806200014b6000396000f3fe608060405234801561001057600080fd5b50600436106101fa5760003560e01c80635e09eea11161011a578063b2a88f6f116100ad578063e2e5384d1161007c578063e2e5384d14610646578063ef8c039114610676578063f1d8ef4d14610692578063f851a440146106ae578063feec4758146106cc576101fa565b8063b2a88f6f146105ae578063bac2e80d146105ca578063c792d8fd146105e6578063ccfa858e14610616576101fa565b806382862275116100e9578063828622751461052a578063897bb9791461055a57806397ef4e3e14610576578063aaaf418814610592576101fa565b80635e09eea114610492578063791778c1146104c25780637a0c7d39146104de5780637e4d2d97146104fa576101fa565b80634008f9c01161019257806353ee895d1161016157806353ee895d1461040a57806355e8dea21461043a578063564abc25146104565780635850b38314610474576101fa565b80634008f9c01461033957806342222a4314610369578063465e1def146103995780634f235207146103d2576101fa565b80632e4ea4c4116101ce5780632e4ea4c41461029c57806333bec837146102cc578063354133f7146102ea5780633d818b311461031a576101fa565b8062da7228146101ff578063171fd84814610234578063228becb61461025057806329c350f114610280575b600080fd5b61021960048036038101906102149190613e96565b6106e8565b60405161022b96959493929190613f7b565b60405180910390f35b61024e6004803603810190610249919061412d565b610c21565b005b61026a60048036038101906102659190613e96565b610f18565b6040516102779190614732565b60405180910390f35b61029a60048036038101906102959190614780565b6114bb565b005b6102b660048036038101906102b19190614780565b611567565b6040516102c391906147ad565b60405180910390f35b6102d4611587565b6040516102e19190614827565b60405180910390f35b61030460048036038101906102ff9190614780565b6115ad565b6040516103119190614851565b60405180910390f35b6103226115da565b60405161033092919061486c565b60405180910390f35b610353600480360381019061034e9190614780565b611af1565b60405161036091906147ad565b60405180910390f35b610383600480360381019061037e9190614780565b611b14565b604051610390919061490b565b60405180910390f35b6103b360048036038101906103ae9190614780565b611b82565b6040516103c99a9998979695949392919061492d565b60405180910390f35b6103ec60048036038101906103e79190613e96565b611d13565b604051610401999897969594939291906149d7565b60405180910390f35b610424600480360381019061041f9190614780565b611fa1565b6040516104319190614bd1565b60405180910390f35b610454600480360381019061044f9190614bf3565b6123d4565b005b61045e6127d3565b60405161046b9190614ca2565b60405180910390f35b61047c612a43565b60405161048991906147ad565b60405180910390f35b6104ac60048036038101906104a79190613e96565b612a4d565b6040516104b991906147ad565b60405180910390f35b6104dc60048036038101906104d79190614cc4565b612a98565b005b6104f860048036038101906104f39190614d04565b612b83565b005b610514600480360381019061050f9190614780565b612d31565b6040516105219190614d8f565b60405180910390f35b610544600480360381019061053f9190614780565b612d71565b60405161055191906147ad565b60405180910390f35b610574600480360381019061056f9190614e72565b612d91565b005b610590600480360381019061058b9190614efa565b612dc0565b005b6105ac60048036038101906105a79190614f5f565b612f19565b005b6105c860048036038101906105c39190614f9f565b612f61565b005b6105e460048036038101906105df9190615064565b6133f0565b005b61060060048036038101906105fb9190614780565b6136b4565b60405161060d9190614d8f565b60405180910390f35b610630600480360381019061062b9190615201565b6136f3565b60405161063d9190615259565b60405180910390f35b610660600480360381019061065b9190614780565b613766565b60405161066d91906147ad565b60405180910390f35b610690600480360381019061068b9190613e96565b613786565b005b6106ac60048036038101906106a79190614cc4565b613b3e565b005b6106b6613b7f565b6040516106c39190614d8f565b60405180910390f35b6106e660048036038101906106e19190614bf3565b613ba5565b005b60608060606000806060868073ffffffffffffffffffffffffffffffffffffffff163373ffffffffffffffffffffffffffffffffffffffff1614610761576040517f08c379a0000000000000000000000000000000000000000000000000000000008152600401610758906152c0565b60405180910390fd5b87600073ffffffffffffffffffffffffffffffffffffffff166000808373ffffffffffffffffffffffffffffffffffffffff1673ffffffffffffffffffffffffffffffffffffffff16815260200190815260200160002060060160009054906101000a900473ffffffffffffffffffffffffffffffffffffffff1673ffffffffffffffffffffffffffffffffffffffff1603610832576040517f08c379a00000000000000000000000000000000000000000000000000000000081526004016108299061532c565b60405180910390fd5b6000808a73ffffffffffffffffffffffffffffffffffffffff1673ffffffffffffffffffffffffffffffffffffffff1681526020019081526020016000206000016000808b73ffffffffffffffffffffffffffffffffffffffff1673ffffffffffffffffffffffffffffffffffffffff1681526020019081526020016000206001016000808c73ffffffffffffffffffffffffffffffffffffffff1673ffffffffffffffffffffffffffffffffffffffff1681526020019081526020016000206002016000808d73ffffffffffffffffffffffffffffffffffffffff1673ffffffffffffffffffffffffffffffffffffffff16815260200190815260200160002060060160009054906101000a900473ffffffffffffffffffffffffffffffffffffffff166000808e73ffffffffffffffffffffffffffffffffffffffff1673ffffffffffffffffffffffffffffffffffffffff168152602001908152602001600020600401546000808f73ffffffffffffffffffffffffffffffffffffffff1673ffffffffffffffffffffffffffffffffffffffff1681526020019081526020016000206003018580546109e69061537b565b80601f0160208091040260200160405190810160405280929190818152602001828054610a129061537b565b8015610a5f5780601f10610a3457610100808354040283529160200191610a5f565b820191906000526020600020905b815481529060010190602001808311610a4257829003601f168201915b50505050509550848054610a729061537b565b80601f0160208091040260200160405190810160405280929190818152602001828054610a9e9061537b565b8015610aeb5780601f10610ac057610100808354040283529160200191610aeb565b820191906000526020600020905b815481529060010190602001808311610ace57829003601f168201915b50505050509450838054610afe9061537b565b80601f0160208091040260200160405190810160405280929190818152602001828054610b2a9061537b565b8015610b775780601f10610b4c57610100808354040283529160200191610b77565b820191906000526020600020905b815481529060010190602001808311610b5a57829003601f168201915b50505050509350808054610b8a9061537b565b80601f0160208091040260200160405190810160405280929190818152602001828054610bb69061537b565b8015610c035780601f10610bd857610100808354040283529160200191610c03565b820191906000526020600020905b815481529060010190602001808311610be657829003601f168201915b50505050509050975097509750975097509750505091939550919395565b808073ffffffffffffffffffffffffffffffffffffffff163373ffffffffffffffffffffffffffffffffffffffff1614610c90576040517f08c379a0000000000000000000000000000000000000000000000000000000008152600401610c87906152c0565b60405180910390fd5b600073ffffffffffffffffffffffffffffffffffffffff166000808473ffffffffffffffffffffffffffffffffffffffff1673ffffffffffffffffffffffffffffffffffffffff16815260200190815260200160002060060160009054906101000a900473ffffffffffffffffffffffffffffffffffffffff1673ffffffffffffffffffffffffffffffffffffffff1614610d60576040517f08c379a0000000000000000000000000000000000000000000000000000000008152600401610d57906153f8565b60405180910390fd5b60008060008473ffffffffffffffffffffffffffffffffffffffff1673ffffffffffffffffffffffffffffffffffffffff168152602001908152602001600020905086816000019081610db391906155ba565b5085816001019081610dc591906155ba565b5084816002019081610dd791906155ba565b5083816003019081610de991906155ba565b5060008160040181905550428160050181905550828160060160006101000a81548173ffffffffffffffffffffffffffffffffffffffff021916908373ffffffffffffffffffffffffffffffffffffffff160217905550600067ffffffffffffffff811115610e5b57610e5a614002565b5b604051908082528060200260200182016040528015610e895781602001602082028036833780820191505090505b50816007019080519060200190610ea1929190613bef565b50600081600901819055506001839080600181540180825580915050600190039060005260206000200160009091909190916101000a81548173ffffffffffffffffffffffffffffffffffffffff021916908373ffffffffffffffffffffffffffffffffffffffff16021790555050505050505050565b606060008060008473ffffffffffffffffffffffffffffffffffffffff1673ffffffffffffffffffffffffffffffffffffffff1681526020019081526020016000206007018054905011610fa1576040517f08c379a0000000000000000000000000000000000000000000000000000000008152600401610f98906156d8565b60405180910390fd5b60008060008473ffffffffffffffffffffffffffffffffffffffff1673ffffffffffffffffffffffffffffffffffffffff16815260200190815260200160002060070180548060200260200160405190810160405280929190818152602001828054801561102e57602002820191906000526020600020905b81548152602001906001019080831161101a575b505050505090506000815167ffffffffffffffff81111561105257611051614002565b5b60405190808252806020026020018201604052801561108b57816020015b611078613c3c565b8152602001906001900390816110705790505b50905060005b82518110156114b057600560008483815181106110b1576110b06156f8565b5b60200260200101518152602001908152602001600020604051806101c00160405290816000820180546110e39061537b565b80601f016020809104026020016040519081016040528092919081815260200182805461110f9061537b565b801561115c5780601f106111315761010080835404028352916020019161115c565b820191906000526020600020905b81548152906001019060200180831161113f57829003601f168201915b505050505081526020016001820180546111759061537b565b80601f01602080910402602001604051908101604052809291908181526020018280546111a19061537b565b80156111ee5780601f106111c3576101008083540402835291602001916111ee565b820191906000526020600020905b8154815290600101906020018083116111d157829003601f168201915b50505050508152602001600282015481526020016003820160009054906101000a900473ffffffffffffffffffffffffffffffffffffffff1673ffffffffffffffffffffffffffffffffffffffff1673ffffffffffffffffffffffffffffffffffffffff1681526020016003820160149054906101000a900460ff16600481111561127c5761127b6142ac565b5b600481111561128e5761128d6142ac565b5b8152602001600482015481526020016005820154815260200160068201548152602001600782015481526020016008820180548060200260200160405190810160405280929190818152602001828054801561133f57602002820191906000526020600020905b8160009054906101000a900473ffffffffffffffffffffffffffffffffffffffff1673ffffffffffffffffffffffffffffffffffffffff16815260200190600101908083116112f5575b50505050508152602001600982018054806020026020016040519081016040528092919081815260200182805480156113bc57602002820191906000526020600020906000905b82829054906101000a900460ff161515815260200190600101906020826000010492830192600103820291508084116113865790505b50505050508152602001600a820180548060200260200160405190810160405280929190818152602001828054801561141457602002820191906000526020600020905b815481526020019060010190808311611400575b50505050508152602001600b820180548060200260200160405190810160405280929190818152602001828054801561146c57602002820191906000526020600020905b815481526020019060010190808311611458575b50505050508152602001600c82015481525050828281518110611492576114916156f8565b5b602002602001018190525080806114a890615756565b915050611091565b508092505050919050565b60006005600083815260200190815260200160002090506115528160090180548060200260200160405190810160405280929190818152602001828054801561154857602002820191906000526020600020906000905b82829054906101000a900460ff161515815260200190600101906020826000010492830192600103820291508084116115125790505b50505050506136f3565b1561156357611562826001612f19565b5b5050565b600060056000838152602001908152602001600020600201549050919050565b600360009054906101000a900473ffffffffffffffffffffffffffffffffffffffff1681565b60006005600083815260200190815260200160002060030160149054906101000a900460ff169050919050565b606060008060065411611622576040517f08c379a0000000000000000000000000000000000000000000000000000000008152600401611619906156d8565b60405180910390fd5b60008060065467ffffffffffffffff81111561164157611640614002565b5b60405190808252806020026020018201604052801561167a57816020015b611667613c3c565b81526020019060019003908161165f5790505b50905060005b600654811015611ae4576001600481111561169e5761169d6142ac565b5b6005600083815260200190815260200160002060030160149054906101000a900460ff1660048111156116d4576116d36142ac565b5b03611ad15760056000828152602001908152602001600020604051806101c00160405290816000820180546117089061537b565b80601f01602080910402602001604051908101604052809291908181526020018280546117349061537b565b80156117815780601f1061175657610100808354040283529160200191611781565b820191906000526020600020905b81548152906001019060200180831161176457829003601f168201915b5050505050815260200160018201805461179a9061537b565b80601f01602080910402602001604051908101604052809291908181526020018280546117c69061537b565b80156118135780601f106117e857610100808354040283529160200191611813565b820191906000526020600020905b8154815290600101906020018083116117f657829003601f168201915b50505050508152602001600282015481526020016003820160009054906101000a900473ffffffffffffffffffffffffffffffffffffffff1673ffffffffffffffffffffffffffffffffffffffff1673ffffffffffffffffffffffffffffffffffffffff1681526020016003820160149054906101000a900460ff1660048111156118a1576118a06142ac565b5b60048111156118b3576118b26142ac565b5b8152602001600482015481526020016005820154815260200160068201548152602001600782015481526020016008820180548060200260200160405190810160405280929190818152602001828054801561196457602002820191906000526020600020905b8160009054906101000a900473ffffffffffffffffffffffffffffffffffffffff1673ffffffffffffffffffffffffffffffffffffffff168152602001906001019080831161191a575b50505050508152602001600982018054806020026020016040519081016040528092919081815260200182805480156119e157602002820191906000526020600020906000905b82829054906101000a900460ff161515815260200190600101906020826000010492830192600103820291508084116119ab5790505b50505050508152602001600a8201805480602002602001604051908101604052809291908181526020018280548015611a3957602002820191906000526020600020905b815481526020019060010190808311611a25575b50505050508152602001600b8201805480602002602001604051908101604052809291908181526020018280548015611a9157602002820191906000526020600020905b815481526020019060010190808311611a7d575b50505050508152602001600c82015481525050828281518110611ab757611ab66156f8565b5b60200260200101819052508280611acd90615756565b9350505b8080611adc90615756565b915050611680565b5080829350935050509091565b600060056000838152602001908152602001600020600b01805490509050919050565b606060056000838152602001908152602001600020600b01805480602002602001604051908101604052809291908181526020018280548015611b7657602002820191906000526020600020905b815481526020019060010190808311611b62575b50505050509050919050565b6005602052806000526040600020600091509050806000018054611ba59061537b565b80601f0160208091040260200160405190810160405280929190818152602001828054611bd19061537b565b8015611c1e5780601f10611bf357610100808354040283529160200191611c1e565b820191906000526020600020905b815481529060010190602001808311611c0157829003601f168201915b505050505090806001018054611c339061537b565b80601f0160208091040260200160405190810160405280929190818152602001828054611c5f9061537b565b8015611cac5780601f10611c8157610100808354040283529160200191611cac565b820191906000526020600020905b815481529060010190602001808311611c8f57829003601f168201915b5050505050908060020154908060030160009054906101000a900473ffffffffffffffffffffffffffffffffffffffff16908060030160149054906101000a900460ff169080600401549080600501549080600601549080600701549080600c015490508a565b6000602052806000526040600020600091509050806000018054611d369061537b565b80601f0160208091040260200160405190810160405280929190818152602001828054611d629061537b565b8015611daf5780601f10611d8457610100808354040283529160200191611daf565b820191906000526020600020905b815481529060010190602001808311611d9257829003601f168201915b505050505090806001018054611dc49061537b565b80601f0160208091040260200160405190810160405280929190818152602001828054611df09061537b565b8015611e3d5780601f10611e1257610100808354040283529160200191611e3d565b820191906000526020600020905b815481529060010190602001808311611e2057829003601f168201915b505050505090806002018054611e529061537b565b80601f0160208091040260200160405190810160405280929190818152602001828054611e7e9061537b565b8015611ecb5780601f10611ea057610100808354040283529160200191611ecb565b820191906000526020600020905b815481529060010190602001808311611eae57829003601f168201915b505050505090806003018054611ee09061537b565b80601f0160208091040260200160405190810160405280929190818152602001828054611f0c9061537b565b8015611f595780601f10611f2e57610100808354040283529160200191611f59565b820191906000526020600020905b815481529060010190602001808311611f3c57829003601f168201915b5050505050908060040154908060050154908060060160009054906101000a900473ffffffffffffffffffffffffffffffffffffffff16908060080154908060090154905089565b611fa9613c3c565b6000600560008481526020019081526020016000206002015411612002576040517f08c379a0000000000000000000000000000000000000000000000000000000008152600401611ff990615810565b60405180910390fd5b60056000838152602001908152602001600020604051806101c00160405290816000820180546120319061537b565b80601f016020809104026020016040519081016040528092919081815260200182805461205d9061537b565b80156120aa5780601f1061207f576101008083540402835291602001916120aa565b820191906000526020600020905b81548152906001019060200180831161208d57829003601f168201915b505050505081526020016001820180546120c39061537b565b80601f01602080910402602001604051908101604052809291908181526020018280546120ef9061537b565b801561213c5780601f106121115761010080835404028352916020019161213c565b820191906000526020600020905b81548152906001019060200180831161211f57829003601f168201915b50505050508152602001600282015481526020016003820160009054906101000a900473ffffffffffffffffffffffffffffffffffffffff1673ffffffffffffffffffffffffffffffffffffffff1673ffffffffffffffffffffffffffffffffffffffff1681526020016003820160149054906101000a900460ff1660048111156121ca576121c96142ac565b5b60048111156121dc576121db6142ac565b5b8152602001600482015481526020016005820154815260200160068201548152602001600782015481526020016008820180548060200260200160405190810160405280929190818152602001828054801561228d57602002820191906000526020600020905b8160009054906101000a900473ffffffffffffffffffffffffffffffffffffffff1673ffffffffffffffffffffffffffffffffffffffff1681526020019060010190808311612243575b505050505081526020016009820180548060200260200160405190810160405280929190818152602001828054801561230a57602002820191906000526020600020906000905b82829054906101000a900460ff161515815260200190600101906020826000010492830192600103820291508084116122d45790505b50505050508152602001600a820180548060200260200160405190810160405280929190818152602001828054801561236257602002820191906000526020600020905b81548152602001906001019080831161234e575b50505050508152602001600b82018054806020026020016040519081016040528092919081815260200182805480156123ba57602002820191906000526020600020905b8154815260200190600101908083116123a6575b50505050508152602001600c820154815250509050919050565b81818173ffffffffffffffffffffffffffffffffffffffff166005600083815260200190815260200160002060030160009054906101000a900473ffffffffffffffffffffffffffffffffffffffff1673ffffffffffffffffffffffffffffffffffffffff161461247a576040517f08c379a0000000000000000000000000000000000000000000000000000000008152600401612471906158a2565b60405180910390fd5b60008060008673ffffffffffffffffffffffffffffffffffffffff1673ffffffffffffffffffffffffffffffffffffffff1681526020019081526020016000206007018054905011612501576040517f08c379a00000000000000000000000000000000000000000000000000000000081526004016124f8906156d8565b60405180910390fd5b600060056000858152602001908152602001600020600201541161255a576040517f08c379a000000000000000000000000000000000000000000000000000000000815260040161255190615810565b60405180910390fd5b6000600481111561256e5761256d6142ac565b5b6005600085815260200190815260200160002060030160149054906101000a900460ff1660048111156125a4576125a36142ac565b5b146125e4576040517f08c379a00000000000000000000000000000000000000000000000000000000081526004016125db9061590e565b60405180910390fd5b60008060008673ffffffffffffffffffffffffffffffffffffffff1673ffffffffffffffffffffffffffffffffffffffff168152602001908152602001600020600701905060005b81805490508110156127cb578482828154811061264c5761264b6156f8565b5b9060005260206000200154036127b85760056000868152602001908152602001600020600080820160006126809190613cd3565b6001820160006126909190613cd3565b60028201600090556003820160006101000a81549073ffffffffffffffffffffffffffffffffffffffff02191690556003820160146101000a81549060ff021916905560048201600090556005820160009055600682016000905560078201600090556008820160006127039190613d13565b6009820160006127139190613d34565b600a820160006127239190613d5c565b600b820160006127339190613d5c565b600c8201600090555050816001838054905061274f919061592e565b815481106127605761275f6156f8565b5b906000526020600020015482828154811061277e5761277d6156f8565b5b90600052602060002001819055508180548061279d5761279c615962565b5b600190038181906000526020600020016000905590556127cb565b80806127c390615756565b91505061262c565b505050505050565b60606000600180548060200260200160405190810160405280929190818152602001828054801561285957602002820191906000526020600020905b8160009054906101000a900473ffffffffffffffffffffffffffffffffffffffff1673ffffffffffffffffffffffffffffffffffffffff168152602001906001019080831161280f575b505050505090506000600190505b600180549050811015612a3b5760005b81811015612a2757600080848381518110612895576128946156f8565b5b602002602001015173ffffffffffffffffffffffffffffffffffffffff1673ffffffffffffffffffffffffffffffffffffffff168152602001908152602001600020600401546000808585815181106128f1576128f06156f8565b5b602002602001015173ffffffffffffffffffffffffffffffffffffffff1673ffffffffffffffffffffffffffffffffffffffff168152602001908152602001600020600401541015612a14576000838381518110612952576129516156f8565b5b6020026020010151905083828151811061296f5761296e6156f8565b5b602002602001015184848151811061298a576129896156f8565b5b602002602001019073ffffffffffffffffffffffffffffffffffffffff16908173ffffffffffffffffffffffffffffffffffffffff1681525050808483815181106129d8576129d76156f8565b5b602002602001019073ffffffffffffffffffffffffffffffffffffffff16908173ffffffffffffffffffffffffffffffffffffffff1681525050505b8080612a1f90615756565b915050612877565b508080612a3390615756565b915050612867565b508091505090565b6000600654905090565b60008060008373ffffffffffffffffffffffffffffffffffffffff1673ffffffffffffffffffffffffffffffffffffffff168152602001908152602001600020600401549050919050565b600060056000848152602001908152602001600020600b01905060005b8180549050811015612b7d5782828281548110612ad557612ad46156f8565b5b906000526020600020015403612b6a578160018380549050612af7919061592e565b81548110612b0857612b076156f8565b5b9060005260206000200154828281548110612b2657612b256156f8565b5b90600052602060002001819055508160018380549050612b46919061592e565b81548110612b5757612b566156f8565b5b9060005260206000200160009055612b7d565b8080612b7590615756565b915050612ab5565b50505050565b808073ffffffffffffffffffffffffffffffffffffffff163373ffffffffffffffffffffffffffffffffffffffff1614612bf2576040517f08c379a0000000000000000000000000000000000000000000000000000000008152600401612be9906152c0565b60405180910390fd5b81600073ffffffffffffffffffffffffffffffffffffffff166000808373ffffffffffffffffffffffffffffffffffffffff1673ffffffffffffffffffffffffffffffffffffffff16815260200190815260200160002060060160009054906101000a900473ffffffffffffffffffffffffffffffffffffffff1673ffffffffffffffffffffffffffffffffffffffff1603612cc3576040517f08c379a0000000000000000000000000000000000000000000000000000000008152600401612cba9061532c565b60405180910390fd5b60008060008573ffffffffffffffffffffffffffffffffffffffff1673ffffffffffffffffffffffffffffffffffffffff168152602001908152602001600020905085816000019081612d1691906155ba565b5084816003019081612d2891906155ba565b50505050505050565b60006005600083815260200190815260200160002060030160009054906101000a900473ffffffffffffffffffffffffffffffffffffffff169050919050565b600060056000838152602001908152602001600020600501549050919050565b8160056000838152602001908152602001600020600b019080519060200190612dbb929190613bef565b505050565b60008060056000858152602001908152602001600020905060008160080180549050905060005b81811015612e7e573373ffffffffffffffffffffffffffffffffffffffff16836008018281548110612e1c57612e1b6156f8565b5b9060005260206000200160009054906101000a900473ffffffffffffffffffffffffffffffffffffffff1673ffffffffffffffffffffffffffffffffffffffff1603612e6b5760019350612e7e565b8080612e7690615756565b915050612de7565b508215612ed7578315612ed257816009018490806001815401808255809150506001900390600052602060002090602091828204019190069091909190916101000a81548160ff0219169083151502179055505b612f12565b6040517f08c379a0000000000000000000000000000000000000000000000000000000008152600401612f0990615a03565b60405180910390fd5b5050505050565b6000600560008481526020019081526020016000209050818160030160146101000a81548160ff02191690836004811115612f5757612f566142ac565b5b0217905550505050565b858073ffffffffffffffffffffffffffffffffffffffff163373ffffffffffffffffffffffffffffffffffffffff1614612fd0576040517f08c379a0000000000000000000000000000000000000000000000000000000008152600401612fc7906152c0565b60405180910390fd5b600286612fdd9190615a52565b8773ffffffffffffffffffffffffffffffffffffffff16311015613036576040517f08c379a000000000000000000000000000000000000000000000000000000000815260040161302d90615af5565b60405180910390fd5b600060056000600654815260200190815260200160002090508581600001908161306091906155ba565b508481600101908161307291906155ba565b5086816002018190555060008160030160146101000a81548160ff021916908360048111156130a4576130a36142ac565b5b0217905550428160040181905550838160050181905550878160030160006101000a81548173ffffffffffffffffffffffffffffffffffffffff021916908373ffffffffffffffffffffffffffffffffffffffff1602179055506006548160070181905550828160060181905550600061311c6127d3565b9050600081519050600a811161314a5781836008019080519060200190613144929190613d7d565b50613362565b60005b600a811015613360576000803373ffffffffffffffffffffffffffffffffffffffff1673ffffffffffffffffffffffffffffffffffffffff16815260200190815260200160002060060160009054906101000a900473ffffffffffffffffffffffffffffffffffffffff1673ffffffffffffffffffffffffffffffffffffffff1683600183856131dd919061592e565b6131e7919061592e565b815181106131f8576131f76156f8565b5b602002602001015173ffffffffffffffffffffffffffffffffffffffff161461334d5783600801836001838561322e919061592e565b613238919061592e565b81518110613249576132486156f8565b5b60200260200101519080600181540180825580915050600190039060005260206000200160009091909190916101000a81548173ffffffffffffffffffffffffffffffffffffffff021916908373ffffffffffffffffffffffffffffffffffffffff16021790555060008084600184866132c3919061592e565b6132cd919061592e565b815181106132de576132dd6156f8565b5b602002602001015173ffffffffffffffffffffffffffffffffffffffff1673ffffffffffffffffffffffffffffffffffffffff168152602001908152602001600020600a0160065490806001815401808255809150506001900390600052602060002001600090919091909150555b808061335890615756565b91505061314d565b505b6000808b73ffffffffffffffffffffffffffffffffffffffff1673ffffffffffffffffffffffffffffffffffffffff1681526020019081526020016000206007016006549080600181540180825580915050600190039060005260206000200160009091909190915055600660008154809291906133df90615756565b919050555050505050505050505050565b86868173ffffffffffffffffffffffffffffffffffffffff166005600083815260200190815260200160002060030160009054906101000a900473ffffffffffffffffffffffffffffffffffffffff1673ffffffffffffffffffffffffffffffffffffffff1614613496576040517f08c379a000000000000000000000000000000000000000000000000000000000815260040161348d906158a2565b60405180910390fd5b60008060008b73ffffffffffffffffffffffffffffffffffffffff1673ffffffffffffffffffffffffffffffffffffffff168152602001908152602001600020600701805490501161351d576040517f08c379a0000000000000000000000000000000000000000000000000000000008152600401613514906156d8565b60405180910390fd5b6000600560008a81526020019081526020016000206002015411613576576040517f08c379a000000000000000000000000000000000000000000000000000000000815260040161356d90615810565b60405180910390fd5b6000600481111561358a576135896142ac565b5b600560008a815260200190815260200160002060030160149054906101000a900460ff1660048111156135c0576135bf6142ac565b5b14806136135750600360048111156135db576135da6142ac565b5b600560008a815260200190815260200160002060030160149054906101000a900460ff166004811115613611576136106142ac565b5b145b613652576040517f08c379a000000000000000000000000000000000000000000000000000000000815260040161364990615b61565b60405180910390fd5b6000600560008a815260200190815260200160002090508781600201819055508681600001908161368391906155ba565b508581600101908161369591906155ba565b5084816005018190555083816006018190555050505050505050505050565b600181815481106136c457600080fd5b906000526020600020016000915054906101000a900473ffffffffffffffffffffffffffffffffffffffff1681565b6000806000905060005b835181101561374857838181518110613719576137186156f8565b5b60200260200101511561373557818061373190615756565b9250505b808061374090615756565b9150506136fd565b506006811061375b576001915050613761565b60009150505b919050565b600060056000838152602001908152602001600020600601549050919050565b808073ffffffffffffffffffffffffffffffffffffffff163373ffffffffffffffffffffffffffffffffffffffff16146137f5576040517f08c379a00000000000000000000000000000000000000000000000000000000081526004016137ec906152c0565b60405180910390fd5b81600073ffffffffffffffffffffffffffffffffffffffff166000808373ffffffffffffffffffffffffffffffffffffffff1673ffffffffffffffffffffffffffffffffffffffff16815260200190815260200160002060060160009054906101000a900473ffffffffffffffffffffffffffffffffffffffff1673ffffffffffffffffffffffffffffffffffffffff16036138c6576040517f08c379a00000000000000000000000000000000000000000000000000000000081526004016138bd9061532c565b60405180910390fd5b6000808473ffffffffffffffffffffffffffffffffffffffff1673ffffffffffffffffffffffffffffffffffffffff168152602001908152602001600020600080820160006139159190613cd3565b6001820160006139259190613cd3565b6002820160006139359190613cd3565b6003820160006139459190613cd3565b600482016000905560058201600090556006820160006101000a81549073ffffffffffffffffffffffffffffffffffffffff021916905560078201600061398c9190613d5c565b60088201600090556009820160009055600a820160006139ac9190613d5c565b505060005b600180549050811015613b38573373ffffffffffffffffffffffffffffffffffffffff16600182815481106139e9576139e86156f8565b5b9060005260206000200160009054906101000a900473ffffffffffffffffffffffffffffffffffffffff1673ffffffffffffffffffffffffffffffffffffffff1603613b25576001808080549050613a41919061592e565b81548110613a5257613a516156f8565b5b9060005260206000200160009054906101000a900473ffffffffffffffffffffffffffffffffffffffff1660018281548110613a9157613a906156f8565b5b9060005260206000200160006101000a81548173ffffffffffffffffffffffffffffffffffffffff021916908373ffffffffffffffffffffffffffffffffffffffff1602179055506001805480613aeb57613aea615962565b5b6001900381819060005260206000200160006101000a81549073ffffffffffffffffffffffffffffffffffffffff02191690559055613b38565b8080613b3090615756565b9150506139b1565b50505050565b60056000838152602001908152602001600020600b018190806001815401808255809150506001900390600052602060002001600090919091909150555050565b600260009054906101000a900473ffffffffffffffffffffffffffffffffffffffff1681565b806000808473ffffffffffffffffffffffffffffffffffffffff1673ffffffffffffffffffffffffffffffffffffffff168152602001908152602001600020600401819055505050565b828054828255906000526020600020908101928215613c2b579160200282015b82811115613c2a578251825591602001919060010190613c0f565b5b509050613c389190613e07565b5090565b604051806101c00160405280606081526020016060815260200160008152602001600073ffffffffffffffffffffffffffffffffffffffff16815260200160006004811115613c8e57613c8d6142ac565b5b81526020016000815260200160008152602001600081526020016000815260200160608152602001606081526020016060815260200160608152602001600081525090565b508054613cdf9061537b565b6000825580601f10613cf15750613d10565b601f016020900490600052602060002090810190613d0f9190613e07565b5b50565b5080546000825590600052602060002090810190613d319190613e07565b50565b50805460008255601f016020900490600052602060002090810190613d599190613e07565b50565b5080546000825590600052602060002090810190613d7a9190613e07565b50565b828054828255906000526020600020908101928215613df6579160200282015b82811115613df55782518260006101000a81548173ffffffffffffffffffffffffffffffffffffffff021916908373ffffffffffffffffffffffffffffffffffffffff16021790555091602001919060010190613d9d565b5b509050613e039190613e07565b5090565b5b80821115613e20576000816000905550600101613e08565b5090565b6000604051905090565b600080fd5b600080fd5b600073ffffffffffffffffffffffffffffffffffffffff82169050919050565b6000613e6382613e38565b9050919050565b613e7381613e58565b8114613e7e57600080fd5b50565b600081359050613e9081613e6a565b92915050565b600060208284031215613eac57613eab613e2e565b5b6000613eba84828501613e81565b91505092915050565b600081519050919050565b600082825260208201905092915050565b60005b83811015613efd578082015181840152602081019050613ee2565b60008484015250505050565b6000601f19601f8301169050919050565b6000613f2582613ec3565b613f2f8185613ece565b9350613f3f818560208601613edf565b613f4881613f09565b840191505092915050565b613f5c81613e58565b82525050565b6000819050919050565b613f7581613f62565b82525050565b600060c0820190508181036000830152613f958189613f1a565b90508181036020830152613fa98188613f1a565b90508181036040830152613fbd8187613f1a565b9050613fcc6060830186613f53565b613fd96080830185613f6c565b81810360a0830152613feb8184613f1a565b9050979650505050505050565b600080fd5b600080fd5b7f4e487b7100000000000000000000000000000000000000000000000000000000600052604160045260246000fd5b61403a82613f09565b810181811067ffffffffffffffff8211171561405957614058614002565b5b80604052505050565b600061406c613e24565b90506140788282614031565b919050565b600067ffffffffffffffff82111561409857614097614002565b5b6140a182613f09565b9050602081019050919050565b82818337600083830152505050565b60006140d06140cb8461407d565b614062565b9050828152602081018484840111156140ec576140eb613ffd565b5b6140f78482856140ae565b509392505050565b600082601f83011261411457614113613ff8565b5b81356141248482602086016140bd565b91505092915050565b600080600080600060a0868803121561414957614148613e2e565b5b600086013567ffffffffffffffff81111561416757614166613e33565b5b614173888289016140ff565b955050602086013567ffffffffffffffff81111561419457614193613e33565b5b6141a0888289016140ff565b945050604086013567ffffffffffffffff8111156141c1576141c0613e33565b5b6141cd888289016140ff565b935050606086013567ffffffffffffffff8111156141ee576141ed613e33565b5b6141fa888289016140ff565b925050608061420b88828901613e81565b9150509295509295909350565b600081519050919050565b600082825260208201905092915050565b6000819050602082019050919050565b600082825260208201905092915050565b600061426082613ec3565b61426a8185614244565b935061427a818560208601613edf565b61428381613f09565b840191505092915050565b61429781613f62565b82525050565b6142a681613e58565b82525050565b7f4e487b7100000000000000000000000000000000000000000000000000000000600052602160045260246000fd5b600581106142ec576142eb6142ac565b5b50565b60008190506142fd826142db565b919050565b600061430d826142ef565b9050919050565b61431d81614302565b82525050565b600081519050919050565b600082825260208201905092915050565b6000819050602082019050919050565b600061435b838361429d565b60208301905092915050565b6000602082019050919050565b600061437f82614323565b614389818561432e565b93506143948361433f565b8060005b838110156143c55781516143ac888261434f565b97506143b783614367565b925050600181019050614398565b5085935050505092915050565b600081519050919050565b600082825260208201905092915050565b6000819050602082019050919050565b60008115159050919050565b614413816143fe565b82525050565b6000614425838361440a565b60208301905092915050565b6000602082019050919050565b6000614449826143d2565b61445381856143dd565b935061445e836143ee565b8060005b8381101561448f5781516144768882614419565b975061448183614431565b925050600181019050614462565b5085935050505092915050565b600081519050919050565b600082825260208201905092915050565b6000819050602082019050919050565b60006144d4838361428e565b60208301905092915050565b6000602082019050919050565b60006144f88261449c565b61450281856144a7565b935061450d836144b8565b8060005b8381101561453e57815161452588826144c8565b9750614530836144e0565b925050600181019050614511565b5085935050505092915050565b60006101c08301600083015184820360008601526145698282614255565b915050602083015184820360208601526145838282614255565b9150506040830151614598604086018261428e565b5060608301516145ab606086018261429d565b5060808301516145be6080860182614314565b5060a08301516145d160a086018261428e565b5060c08301516145e460c086018261428e565b5060e08301516145f760e086018261428e565b5061010083015161460c61010086018261428e565b506101208301518482036101208601526146268282614374565b915050610140830151848203610140860152614642828261443e565b91505061016083015184820361016086015261465e82826144ed565b91505061018083015184820361018086015261467a82826144ed565b9150506101a08301516146916101a086018261428e565b508091505092915050565b60006146a8838361454b565b905092915050565b6000602082019050919050565b60006146c882614218565b6146d28185614223565b9350836020820285016146e485614234565b8060005b858110156147205784840389528151614701858261469c565b945061470c836146b0565b925060208a019950506001810190506146e8565b50829750879550505050505092915050565b6000602082019050818103600083015261474c81846146bd565b905092915050565b61475d81613f62565b811461476857600080fd5b50565b60008135905061477a81614754565b92915050565b60006020828403121561479657614795613e2e565b5b60006147a48482850161476b565b91505092915050565b60006020820190506147c26000830184613f6c565b92915050565b6000819050919050565b60006147ed6147e86147e384613e38565b6147c8565b613e38565b9050919050565b60006147ff826147d2565b9050919050565b6000614811826147f4565b9050919050565b61482181614806565b82525050565b600060208201905061483c6000830184614818565b92915050565b61484b81614302565b82525050565b60006020820190506148666000830184614842565b92915050565b6000604082019050818103600083015261488681856146bd565b90506148956020830184613f6c565b9392505050565b600082825260208201905092915050565b60006148b88261449c565b6148c2818561489c565b93506148cd836144b8565b8060005b838110156148fe5781516148e588826144c8565b97506148f0836144e0565b9250506001810190506148d1565b5085935050505092915050565b6000602082019050818103600083015261492581846148ad565b905092915050565b6000610140820190508181036000830152614948818d613f1a565b9050818103602083015261495c818c613f1a565b905061496b604083018b613f6c565b614978606083018a613f53565b6149856080830189614842565b61499260a0830188613f6c565b61499f60c0830187613f6c565b6149ac60e0830186613f6c565b6149ba610100830185613f6c565b6149c8610120830184613f6c565b9b9a5050505050505050505050565b60006101208201905081810360008301526149f2818c613f1a565b90508181036020830152614a06818b613f1a565b90508181036040830152614a1a818a613f1a565b90508181036060830152614a2e8189613f1a565b9050614a3d6080830188613f6c565b614a4a60a0830187613f6c565b614a5760c0830186613f53565b614a6460e0830185613f6c565b614a72610100830184613f6c565b9a9950505050505050505050565b60006101c0830160008301518482036000860152614a9e8282614255565b91505060208301518482036020860152614ab88282614255565b9150506040830151614acd604086018261428e565b506060830151614ae0606086018261429d565b506080830151614af36080860182614314565b5060a0830151614b0660a086018261428e565b5060c0830151614b1960c086018261428e565b5060e0830151614b2c60e086018261428e565b50610100830151614b4161010086018261428e565b50610120830151848203610120860152614b5b8282614374565b915050610140830151848203610140860152614b77828261443e565b915050610160830151848203610160860152614b9382826144ed565b915050610180830151848203610180860152614baf82826144ed565b9150506101a0830151614bc66101a086018261428e565b508091505092915050565b60006020820190508181036000830152614beb8184614a80565b905092915050565b60008060408385031215614c0a57614c09613e2e565b5b6000614c1885828601613e81565b9250506020614c298582860161476b565b9150509250929050565b600082825260208201905092915050565b6000614c4f82614323565b614c598185614c33565b9350614c648361433f565b8060005b83811015614c95578151614c7c888261434f565b9750614c8783614367565b925050600181019050614c68565b5085935050505092915050565b60006020820190508181036000830152614cbc8184614c44565b905092915050565b60008060408385031215614cdb57614cda613e2e565b5b6000614ce98582860161476b565b9250506020614cfa8582860161476b565b9150509250929050565b600080600060608486031215614d1d57614d1c613e2e565b5b600084013567ffffffffffffffff811115614d3b57614d3a613e33565b5b614d47868287016140ff565b935050602084013567ffffffffffffffff811115614d6857614d67613e33565b5b614d74868287016140ff565b9250506040614d8586828701613e81565b9150509250925092565b6000602082019050614da46000830184613f53565b92915050565b600067ffffffffffffffff821115614dc557614dc4614002565b5b602082029050602081019050919050565b600080fd5b6000614dee614de984614daa565b614062565b90508083825260208201905060208402830185811115614e1157614e10614dd6565b5b835b81811015614e3a5780614e26888261476b565b845260208401935050602081019050614e13565b5050509392505050565b600082601f830112614e5957614e58613ff8565b5b8135614e69848260208601614ddb565b91505092915050565b60008060408385031215614e8957614e88613e2e565b5b600083013567ffffffffffffffff811115614ea757614ea6613e33565b5b614eb385828601614e44565b9250506020614ec48582860161476b565b9150509250929050565b614ed7816143fe565b8114614ee257600080fd5b50565b600081359050614ef481614ece565b92915050565b60008060408385031215614f1157614f10613e2e565b5b6000614f1f8582860161476b565b9250506020614f3085828601614ee5565b9150509250929050565b60058110614f4757600080fd5b50565b600081359050614f5981614f3a565b92915050565b60008060408385031215614f7657614f75613e2e565b5b6000614f848582860161476b565b9250506020614f9585828601614f4a565b9150509250929050565b60008060008060008060c08789031215614fbc57614fbb613e2e565b5b6000614fca89828a01613e81565b9650506020614fdb89828a0161476b565b955050604087013567ffffffffffffffff811115614ffc57614ffb613e33565b5b61500889828a016140ff565b945050606087013567ffffffffffffffff81111561502957615028613e33565b5b61503589828a016140ff565b935050608061504689828a0161476b565b92505060a061505789828a0161476b565b9150509295509295509295565b600080600080600080600060e0888a03121561508357615082613e2e565b5b60006150918a828b01613e81565b97505060206150a28a828b0161476b565b96505060406150b38a828b0161476b565b955050606088013567ffffffffffffffff8111156150d4576150d3613e33565b5b6150e08a828b016140ff565b945050608088013567ffffffffffffffff81111561510157615100613e33565b5b61510d8a828b016140ff565b93505060a061511e8a828b0161476b565b92505060c061512f8a828b0161476b565b91505092959891949750929550565b600067ffffffffffffffff82111561515957615158614002565b5b602082029050602081019050919050565b600061517d6151788461513e565b614062565b905080838252602082019050602084028301858111156151a05761519f614dd6565b5b835b818110156151c957806151b58882614ee5565b8452602084019350506020810190506151a2565b5050509392505050565b600082601f8301126151e8576151e7613ff8565b5b81356151f884826020860161516a565b91505092915050565b60006020828403121561521757615216613e2e565b5b600082013567ffffffffffffffff81111561523557615234613e33565b5b615241848285016151d3565b91505092915050565b615253816143fe565b82525050565b600060208201905061526e600083018461524a565b92915050565b7f43616c6c6572206973206e6f74206f776e657200000000000000000000000000600082015250565b60006152aa601383613ece565b91506152b582615274565b602082019050919050565b600060208201905081810360008301526152d98161529d565b9050919050565b7f506172747920646f6573206e6f74206578697374000000000000000000000000600082015250565b6000615316601483613ece565b9150615321826152e0565b602082019050919050565b6000602082019050818103600083015261534581615309565b9050919050565b7f4e487b7100000000000000000000000000000000000000000000000000000000600052602260045260246000fd5b6000600282049050600182168061539357607f821691505b6020821081036153a6576153a561534c565b5b50919050565b7f506172747920616c726561647920657869737473000000000000000000000000600082015250565b60006153e2601483613ece565b91506153ed826153ac565b602082019050919050565b60006020820190508181036000830152615411816153d5565b9050919050565b60008190508160005260206000209050919050565b60006020601f8301049050919050565b600082821b905092915050565b60006008830261547a7fffffffffffffffffffffffffffffffffffffffffffffffffffffffffffffffff8261543d565b615484868361543d565b95508019841693508086168417925050509392505050565b60006154b76154b26154ad84613f62565b6147c8565b613f62565b9050919050565b6000819050919050565b6154d18361549c565b6154e56154dd826154be565b84845461544a565b825550505050565b600090565b6154fa6154ed565b6155058184846154c8565b505050565b5b818110156155295761551e6000826154f2565b60018101905061550b565b5050565b601f82111561556e5761553f81615418565b6155488461542d565b81016020851015615557578190505b61556b6155638561542d565b83018261550a565b50505b505050565b600082821c905092915050565b600061559160001984600802615573565b1980831691505092915050565b60006155aa8383615580565b9150826002028217905092915050565b6155c382613ec3565b67ffffffffffffffff8111156155dc576155db614002565b5b6155e6825461537b565b6155f182828561552d565b600060209050601f8311600181146156245760008415615612578287015190505b61561c858261559e565b865550615684565b601f19841661563286615418565b60005b8281101561565a57848901518255600182019150602085019450602081019050615635565b868310156156775784890151615673601f891682615580565b8355505b6001600288020188555050505b505050505050565b7f4e6f2074656e6465727320657869737473000000000000000000000000000000600082015250565b60006156c2601183613ece565b91506156cd8261568c565b602082019050919050565b600060208201905081810360008301526156f1816156b5565b9050919050565b7f4e487b7100000000000000000000000000000000000000000000000000000000600052603260045260246000fd5b7f4e487b7100000000000000000000000000000000000000000000000000000000600052601160045260246000fd5b600061576182613f62565b91507fffffffffffffffffffffffffffffffffffffffffffffffffffffffffffffffff820361579357615792615727565b5b600182019050919050565b7f74656e6465722077697468206164647265737320646f65736e2774206578697360008201527f7473000000000000000000000000000000000000000000000000000000000000602082015250565b60006157fa602283613ece565b91506158058261579e565b604082019050919050565b60006020820190508181036000830152615829816157ed565b9050919050565b7f796f75277265206e6f7420617574686f72697a656420746f20706572666f726d60008201527f207468697320616374696f6e0000000000000000000000000000000000000000602082015250565b600061588c602c83613ece565b915061589782615830565b604082019050919050565b600060208201905081810360008301526158bb8161587f565b9050919050565b7f74656e6465722063616e6e6f742062652064656c657465640000000000000000600082015250565b60006158f8601883613ece565b9150615903826158c2565b602082019050919050565b60006020820190508181036000830152615927816158eb565b9050919050565b600061593982613f62565b915061594483613f62565b925082820390508181111561595c5761595b615727565b5b92915050565b7f4e487b7100000000000000000000000000000000000000000000000000000000600052603160045260246000fd5b7f596f75277265206e6f7420617574686f72697a656420746f2076616c6964617460008201527f6520746869732074656e6465722e000000000000000000000000000000000000602082015250565b60006159ed602e83613ece565b91506159f882615991565b604082019050919050565b60006020820190508181036000830152615a1c816159e0565b9050919050565b7f4e487b7100000000000000000000000000000000000000000000000000000000600052601260045260246000fd5b6000615a5d82613f62565b9150615a6883613f62565b925082615a7857615a77615a23565b5b828204905092915050565b7f696e73756666696369656e742066756e647320746f206372656174652061207460008201527f656e646572000000000000000000000000000000000000000000000000000000602082015250565b6000615adf602583613ece565b9150615aea82615a83565b604082019050919050565b60006020820190508181036000830152615b0e81615ad2565b9050919050565b7f74656e6465722063616e6e6f7420626520757064617465640000000000000000600082015250565b6000615b4b601883613ece565b9150615b5682615b15565b602082019050919050565b60006020820190508181036000830152615b7a81615b3e565b905091905056fea26469706673582212205183febd0b8c8ebde720b783498f0d95910c53c8005a3d07e8c0e8196b118e8664736f6c63430008130033",
  "immutableReferences": {},
  "source": "// SPDX-License-Identifier: UNLICENSED\r\n\r\n//the version of solidity that is compatible\r\nimport \"./PartyContract.sol\";\r\nenum TenderStatus{ NEW, OPEN, CLOSED, SUSPENDED, ASSIGNED } //created---OPEN, deadline crosses---CLOSED, project is assigned ---- ASSIGNED\r\nimport \"./Token.sol\";\r\n\r\npragma solidity ^0.8.0;\r\ncontract TenderContract is PartyContract {\r\n    // Tender Structure\r\n    struct Tender {\r\n        string title;\r\n        string description;\r\n        uint256 budget;\r\n        address issuerAddress;\r\n        TenderStatus tenderStatus; \r\n        uint256 createdAt;\r\n        uint256 deadline;\r\n        uint256 totalMilestones;\r\n        uint256 tenderId;\r\n        address[] validatorsAddresses;\r\n        bool[] validationVotes;\r\n        uint256[] milestoneTimePeriods;\r\n        uint256[] bidIds;\r\n        uint256 balance;\r\n    }\r\n\r\n    // Token public tokenRef;\r\n\r\n    constructor(Token _tokenRef) PartyContract(_tokenRef){\r\n        // tokenRef = _tokenRef;\r\n    }\r\n\r\n    mapping (uint256 => Tender) public tenders;\r\n    uint256 tenderCount = 0;\r\n\r\n    //setters and getter functions\r\n    function getTenderCount() public view returns(uint256){\r\n        return tenderCount;\r\n    }\r\n\r\n    function getBudget(uint256 _tenderId) public view returns(uint256){\r\n        return tenders[_tenderId].budget;\r\n    }\r\n\r\n    function getTenderStatus(uint256 _tenderId) public view returns(TenderStatus){\r\n        return tenders[_tenderId].tenderStatus;\r\n    }\r\n\r\n    function getDeadline(uint256 _tenderId) public view returns(uint256){\r\n            return tenders[_tenderId].deadline;\r\n    }\r\n\r\n    function getBidIds(uint256 _tenderId) public view returns(uint256[] memory){\r\n        return tenders[_tenderId].bidIds;\r\n    }\r\n\r\n    function getIssuerAddress(uint256 _tenderId) public view returns(address){\r\n        return tenders[_tenderId].issuerAddress;\r\n    }\r\n\r\n    function getTotalMilestones(uint256 _tenderId) public view returns(uint256){\r\n            return tenders[_tenderId].totalMilestones;\r\n    }\r\n\r\n    function getBidsCount(uint256 _tenderId) public view returns(uint256){\r\n            return tenders[_tenderId].bidIds.length;\r\n    }\r\n\r\n    function addBidId(uint256 _tenderId, uint256 bidId) public {\r\n        tenders[_tenderId].bidIds.push(bidId);\r\n    }\r\n\r\n    function setBidIds(uint256[] memory _tenderBidIds, uint256 _tenderId) public{\r\n        tenders[_tenderId].bidIds = _tenderBidIds;\r\n    }\r\n\r\n\r\n    function deleteBidId(uint256 _tenderId, uint256 _bidId) public {\r\n        uint256[] storage tenderBidIds = tenders[_tenderId].bidIds;\r\n        for (uint i = 0; i < tenderBidIds.length; i++){\r\n            if(tenderBidIds[i] == _bidId){\r\n                tenderBidIds[i] = tenderBidIds[tenderBidIds.length - 1];\r\n                delete tenderBidIds[tenderBidIds.length - 1];\r\n                break;\r\n            }\r\n        }\r\n    }\r\n\r\n    // Function for creating a tender\r\n    function createTender(address _partyAddress, uint256 _budget, string memory _title, string memory _description, uint256 _deadline, uint256 _totalMilestones) isOwner(_partyAddress) public {\r\n        require(_partyAddress.balance >= _budget/2, \"insufficient funds to create a tender\");\r\n        Tender storage newTender = tenders[tenderCount];\r\n        newTender.title = _title;\r\n        newTender.description = _description;\r\n        newTender.budget = _budget;\r\n        newTender.tenderStatus = TenderStatus.NEW;\r\n        newTender.createdAt = block.timestamp;\r\n        newTender.deadline = _deadline;\r\n        newTender.issuerAddress = _partyAddress;\r\n        newTender.tenderId = tenderCount;\r\n        newTender.totalMilestones = _totalMilestones;\r\n        address[] memory sortedlist = sortByTrustScore();\r\n        uint len = sortedlist.length;\r\n        if(len<=10)\r\n        {\r\n            newTender.validatorsAddresses = sortedlist;\r\n        }\r\n        else\r\n        {\r\n            for(uint i=0; i<10; i++)\r\n            {\r\n                if(sortedlist[len-i-1] != parties[msg.sender].partyAddress)\r\n                {\r\n                    newTender.validatorsAddresses.push(sortedlist[len-i-1]);\r\n                    parties[sortedlist[len-i-1]].tenderIdsToValidate.push(tenderCount);\r\n                }\r\n            }\r\n        }\r\n        parties[_partyAddress].tenderIds.push(tenderCount);\r\n        tenderCount++;\r\n    }\r\n\r\n    function sortByTrustScore() public view returns(address[] memory) {\r\n    address[] memory _party = partyAddresses;\r\n    for (uint i = 1; i < partyAddresses.length; i++)\r\n        for (uint j = 0; j < i; j++)\r\n            if (parties[_party[i]].trustScore < parties[_party[j]].trustScore) {\r\n                address x = _party[i];\r\n                _party[i] = _party[j];\r\n                _party[j] = x;\r\n            }\r\n\r\n    return _party;\r\n    }\r\n\r\n    function validate(uint256 _tenderId, bool _vote) public {\r\n        bool valid = false;\r\n        Tender storage newTender = tenders[_tenderId];\r\n        uint len = newTender.validatorsAddresses.length;\r\n        for(uint i=0; i<len; i++)\r\n        {\r\n            if(newTender.validatorsAddresses[i] == msg.sender)\r\n            {\r\n                valid = true;\r\n                break;\r\n            }\r\n        }\r\n        if(valid)\r\n        {\r\n            if(_vote) {\r\n                //deduct token from party account and add it to tender account\r\n                // tokenRef.transferFrom(msg.sender, newTender.issuerAddress, 1, parties[newTender.issuerAddress].freezedBalance);\r\n                newTender.validationVotes.push(_vote); // adds vote only if transaction is successful\r\n                // parties[newTender.issuerAddress].freezedBalance +=1; //freezes amount in tender owner\r\n                // newTender.balance +=1; //updates the same in tender balance\r\n            }\r\n        }\r\n        else\r\n        {\r\n            revert(\"You're not authorized to validate this tender.\");\r\n        }\r\n    }\r\n\r\n    function checkTenderValidation(uint256 _tenderId) public {\r\n        Tender storage newTender = tenders[_tenderId];\r\n        if(isValid(newTender.validationVotes)) {\r\n            updateTenderStatus(_tenderId, TenderStatus.OPEN);\r\n        }\r\n    }\r\n    \r\n    function isValid(bool[] memory _validationVotes) public pure returns (bool) {\r\n        uint voteCount = 0;\r\n        for(uint i=0; i<_validationVotes.length; i++)\r\n        {\r\n            if(_validationVotes[i])\r\n            {\r\n                voteCount++;\r\n            }\r\n        }\r\n\r\n        if(voteCount>=6)\r\n        {\r\n            return true;\r\n        }\r\n        return false;\r\n    }\r\n\r\n    function getAllActiveTenders() public view returns (Tender[] memory, uint256){\r\n        require(tenderCount > 0, \"No tenders exists\");\r\n        uint256 count=0;\r\n        Tender[] memory tendersList = new Tender[](tenderCount);\r\n        for (uint256 i = 0; i < tenderCount; i++) {\r\n            if(tenders[i].tenderStatus == TenderStatus.OPEN){\r\n                 tendersList[i] = tenders[i];\r\n                 count++;\r\n            }\r\n        }\r\n        return(tendersList, count);\r\n    }\r\n\r\n    function getMyTenders(address _partyAddress) public view returns ( Tender[] memory){\r\n        require(parties[_partyAddress].tenderIds.length > 0, \"No tenders exists\");\r\n        uint256[] memory partyTenderIds = parties[_partyAddress].tenderIds;\r\n        Tender[] memory tendersList = new Tender[](partyTenderIds.length);\r\n        for (uint256 i = 0; i < partyTenderIds.length; i++) {\r\n            tendersList[i] = tenders[partyTenderIds[i]];\r\n        }\r\n        return(tendersList);\r\n    }\r\n\r\n    function getTenderDetails(uint256 _tenderId) public view returns ( Tender memory){\r\n        require(tenders[_tenderId].budget > 0 , \"tender with address doesn't exists\");\r\n        return(tenders[_tenderId]);\r\n    }\r\n\r\n    function updateTenderStatus(uint256 _tenderId, TenderStatus _tenderStatus) public {\r\n        Tender storage updatedTender = tenders[_tenderId];\r\n        updatedTender.tenderStatus = _tenderStatus;\r\n    }\r\n\r\n    function updateTender(address _partyAddress, uint256 _tenderId, uint256 _budget, string memory _title, string memory _description, uint256 _deadline, uint256 _totalMilestones) public isTenderOwner(_partyAddress, _tenderId){\r\n        require(parties[_partyAddress].tenderIds.length > 0, \"No tenders exists\");\r\n        require(tenders[_tenderId].budget > 0 , \"tender with address doesn't exists\");\r\n        require(tenders[_tenderId].tenderStatus == TenderStatus.NEW ||\r\n                tenders[_tenderId].tenderStatus == TenderStatus.SUSPENDED , \"tender cannot be updated\");\r\n        Tender storage updatedTender = tenders[_tenderId];\r\n        updatedTender.budget = _budget;\r\n        updatedTender.title = _title;\r\n        updatedTender.description = _description;\r\n        updatedTender.deadline = _deadline;\r\n        updatedTender.totalMilestones = _totalMilestones;\r\n    }\r\n\r\n    function deleteTender(address _partyAddress, uint256 _tenderId) public isTenderOwner(_partyAddress, _tenderId){ \r\n        require(parties[_partyAddress].tenderIds.length > 0, \"No tenders exists\");\r\n        require(tenders[_tenderId].budget > 0 , \"tender with address doesn't exists\");\r\n        require(tenders[_tenderId].tenderStatus == TenderStatus.NEW , \"tender cannot be deleted\");\r\n        uint256[] storage _tenderIds = parties[_partyAddress].tenderIds;\r\n        for (uint i = 0; i < _tenderIds.length; i++){\r\n            if(_tenderIds[i] == _tenderId){\r\n                delete tenders[_tenderId];\r\n                _tenderIds[i] = _tenderIds[_tenderIds.length - 1];\r\n                _tenderIds.pop();\r\n                break;\r\n            }\r\n        }\r\n    }\r\n\r\n    // @todo - add modifer for above functions\r\n\r\n    modifier isTenderOwner(address _partyAddress, uint256 _tenderId) {\r\n        require(tenders[_tenderId].issuerAddress == _partyAddress, \"you're not authorized to perform this action\");\r\n        _;\r\n    }\r\n\r\n    \r\n}\r\n",
  "sourcePath": "C:\\Users\\sabba\\OneDrive\\Documents\\BlockchainProject\\blockchain-based-contracting-system\\contracts\\TenderContract.sol",
  "compiler": {
    "name": "solc",
    "version": "0.8.19+commit.7dd6d404.Emscripten.clang"
  },
  "schemaVersion": "3.4.13",
  "updatedAt": "2023-04-15T10:21:50.336Z",
  "networkType": "ethereum",
  "devdoc": {
    "kind": "dev",
    "methods": {},
    "version": 1
  },
  "userdoc": {
    "kind": "user",
    "methods": {},
    "version": 1
  }
}