{
  "contractName": "TenderContract",
  "abi": [
    {
      "inputs": [
        {
          "internalType": "string",
          "name": "_name",
          "type": "string"
        },
        {
          "internalType": "string",
          "name": "_contactNumber",
          "type": "string"
        },
        {
          "internalType": "string",
          "name": "_email",
          "type": "string"
        },
        {
          "internalType": "string",
          "name": "_password",
          "type": "string"
        },
        {
          "internalType": "address",
          "name": "_partyAddress",
          "type": "address"
        }
      ],
      "name": "createParty",
      "outputs": [],
      "stateMutability": "nonpayable",
      "type": "function"
    },
    {
      "inputs": [
        {
          "internalType": "address",
          "name": "_partyAddress",
          "type": "address"
        }
      ],
      "name": "deleteParty",
      "outputs": [],
      "stateMutability": "nonpayable",
      "type": "function"
    },
    {
      "inputs": [
        {
          "internalType": "address",
          "name": "_partyAddress",
          "type": "address"
        }
      ],
      "name": "getPartyDetails",
      "outputs": [
        {
          "internalType": "string",
          "name": "",
          "type": "string"
        },
        {
          "internalType": "string",
          "name": "",
          "type": "string"
        },
        {
          "internalType": "string",
          "name": "",
          "type": "string"
        },
        {
          "internalType": "address",
          "name": "",
          "type": "address"
        },
        {
          "internalType": "uint256",
          "name": "",
          "type": "uint256"
        }
      ],
      "stateMutability": "view",
      "type": "function",
      "constant": true
    },
    {
      "inputs": [
        {
          "internalType": "address",
          "name": "_partyAddress",
          "type": "address"
        }
      ],
      "name": "getPassword",
      "outputs": [
        {
          "internalType": "string",
          "name": "",
          "type": "string"
        }
      ],
      "stateMutability": "view",
      "type": "function",
      "constant": true
    },
    {
      "inputs": [
        {
          "internalType": "address",
          "name": "",
          "type": "address"
        }
      ],
      "name": "parties",
      "outputs": [
        {
          "internalType": "string",
          "name": "name",
          "type": "string"
        },
        {
          "internalType": "string",
          "name": "contactNumber",
          "type": "string"
        },
        {
          "internalType": "string",
          "name": "email",
          "type": "string"
        },
        {
          "internalType": "string",
          "name": "password",
          "type": "string"
        },
        {
          "internalType": "uint256",
          "name": "trustScore",
          "type": "uint256"
        },
        {
          "internalType": "uint256",
          "name": "createdAt",
          "type": "uint256"
        },
        {
          "internalType": "address",
          "name": "partyAddress",
          "type": "address"
        }
      ],
      "stateMutability": "view",
      "type": "function",
      "constant": true
    },
    {
      "inputs": [
        {
          "internalType": "uint256",
          "name": "",
          "type": "uint256"
        }
      ],
      "name": "partyAddresses",
      "outputs": [
        {
          "internalType": "address",
          "name": "",
          "type": "address"
        }
      ],
      "stateMutability": "view",
      "type": "function",
      "constant": true
    },
    {
      "inputs": [
        {
          "internalType": "uint256",
          "name": "",
          "type": "uint256"
        }
      ],
      "name": "tenders",
      "outputs": [
        {
          "internalType": "string",
          "name": "title",
          "type": "string"
        },
        {
          "internalType": "string",
          "name": "description",
          "type": "string"
        },
        {
          "internalType": "uint256",
          "name": "budget",
          "type": "uint256"
        },
        {
          "internalType": "address",
          "name": "issuerAddress",
          "type": "address"
        },
        {
          "internalType": "enum TenderStatus",
          "name": "tenderStatus",
          "type": "uint8"
        },
        {
          "internalType": "uint256",
          "name": "createdAt",
          "type": "uint256"
        },
        {
          "internalType": "uint256",
          "name": "deadline",
          "type": "uint256"
        },
        {
          "internalType": "uint256",
          "name": "totalMilestones",
          "type": "uint256"
        },
        {
          "internalType": "address",
          "name": "tenderAddress",
          "type": "address"
        }
      ],
      "stateMutability": "view",
      "type": "function",
      "constant": true
    },
    {
      "inputs": [
        {
          "internalType": "string",
          "name": "_name",
          "type": "string"
        },
        {
          "internalType": "string",
          "name": "_password",
          "type": "string"
        },
        {
          "internalType": "address",
          "name": "_partyAddress",
          "type": "address"
        }
      ],
      "name": "updateParty",
      "outputs": [],
      "stateMutability": "nonpayable",
      "type": "function"
    },
    {
      "inputs": [
        {
          "internalType": "uint256",
          "name": "_tenderId",
          "type": "uint256"
        }
      ],
      "name": "getBudget",
      "outputs": [
        {
          "internalType": "uint256",
          "name": "",
          "type": "uint256"
        }
      ],
      "stateMutability": "view",
      "type": "function",
      "constant": true
    },
    {
      "inputs": [
        {
          "internalType": "uint256",
          "name": "_tenderId",
          "type": "uint256"
        }
      ],
      "name": "getTenderStatus",
      "outputs": [
        {
          "internalType": "enum TenderStatus",
          "name": "",
          "type": "uint8"
        }
      ],
      "stateMutability": "view",
      "type": "function",
      "constant": true
    },
    {
      "inputs": [
        {
          "internalType": "uint256",
          "name": "_tenderId",
          "type": "uint256"
        }
      ],
      "name": "getDeadline",
      "outputs": [
        {
          "internalType": "uint256",
          "name": "",
          "type": "uint256"
        }
      ],
      "stateMutability": "view",
      "type": "function",
      "constant": true
    },
    {
      "inputs": [
        {
          "internalType": "uint256",
          "name": "_tenderId",
          "type": "uint256"
        }
      ],
      "name": "getBidIds",
      "outputs": [
        {
          "internalType": "uint256[]",
          "name": "",
          "type": "uint256[]"
        }
      ],
      "stateMutability": "view",
      "type": "function",
      "constant": true
    },
    {
      "inputs": [
        {
          "internalType": "uint256",
          "name": "_tenderId",
          "type": "uint256"
        }
      ],
      "name": "getIssuerAddress",
      "outputs": [
        {
          "internalType": "address",
          "name": "",
          "type": "address"
        }
      ],
      "stateMutability": "view",
      "type": "function",
      "constant": true
    },
    {
      "inputs": [
        {
          "internalType": "uint256",
          "name": "_tenderId",
          "type": "uint256"
        },
        {
          "internalType": "uint256",
          "name": "bidId",
          "type": "uint256"
        }
      ],
      "name": "addBidId",
      "outputs": [],
      "stateMutability": "nonpayable",
      "type": "function"
    },
    {
      "inputs": [
        {
          "internalType": "uint256",
          "name": "_tenderId",
          "type": "uint256"
        },
        {
          "internalType": "uint256",
          "name": "_bidId",
          "type": "uint256"
        }
      ],
      "name": "deleteBidId",
      "outputs": [],
      "stateMutability": "nonpayable",
      "type": "function"
    },
    {
      "inputs": [
        {
          "internalType": "address",
          "name": "_partyAddress",
          "type": "address"
        },
        {
          "internalType": "uint256",
          "name": "_budget",
          "type": "uint256"
        },
        {
          "internalType": "string",
          "name": "_title",
          "type": "string"
        },
        {
          "internalType": "string",
          "name": "_description",
          "type": "string"
        },
        {
          "internalType": "uint256",
          "name": "_deadline",
          "type": "uint256"
        },
        {
          "internalType": "uint256",
          "name": "_totalMilestones",
          "type": "uint256"
        }
      ],
      "name": "createTender",
      "outputs": [],
      "stateMutability": "nonpayable",
      "type": "function"
    },
    {
      "inputs": [],
      "name": "sortByTrustScore",
      "outputs": [
        {
          "internalType": "address[]",
          "name": "",
          "type": "address[]"
        }
      ],
      "stateMutability": "view",
      "type": "function",
      "constant": true
    },
    {
      "inputs": [
        {
          "internalType": "uint256",
          "name": "_tenderAddress",
          "type": "uint256"
        },
        {
          "internalType": "bool",
          "name": "_vote",
          "type": "bool"
        }
      ],
      "name": "validate",
      "outputs": [],
      "stateMutability": "nonpayable",
      "type": "function"
    },
    {
      "inputs": [
        {
          "internalType": "uint256",
          "name": "_tenderAddress",
          "type": "uint256"
        }
      ],
      "name": "checkTenderValidation",
      "outputs": [],
      "stateMutability": "nonpayable",
      "type": "function"
    },
    {
      "inputs": [
        {
          "internalType": "bool[]",
          "name": "_validationVotes",
          "type": "bool[]"
        }
      ],
      "name": "isValid",
      "outputs": [
        {
          "internalType": "bool",
          "name": "",
          "type": "bool"
        }
      ],
      "stateMutability": "pure",
      "type": "function",
      "constant": true
    },
    {
      "inputs": [],
      "name": "getAllTenders",
      "outputs": [
        {
          "components": [
            {
              "internalType": "string",
              "name": "title",
              "type": "string"
            },
            {
              "internalType": "string",
              "name": "description",
              "type": "string"
            },
            {
              "internalType": "uint256",
              "name": "budget",
              "type": "uint256"
            },
            {
              "internalType": "address",
              "name": "issuerAddress",
              "type": "address"
            },
            {
              "internalType": "enum TenderStatus",
              "name": "tenderStatus",
              "type": "uint8"
            },
            {
              "internalType": "uint256",
              "name": "createdAt",
              "type": "uint256"
            },
            {
              "internalType": "uint256",
              "name": "deadline",
              "type": "uint256"
            },
            {
              "internalType": "uint256",
              "name": "totalMilestones",
              "type": "uint256"
            },
            {
              "internalType": "address",
              "name": "tenderAddress",
              "type": "address"
            },
            {
              "internalType": "address[]",
              "name": "validatorsAddresses",
              "type": "address[]"
            },
            {
              "internalType": "bool[]",
              "name": "validationVotes",
              "type": "bool[]"
            },
            {
              "internalType": "uint256[]",
              "name": "milestoneTimePeriods",
              "type": "uint256[]"
            },
            {
              "internalType": "uint256[]",
              "name": "bidIds",
              "type": "uint256[]"
            }
          ],
          "internalType": "struct TenderContract.Tender[]",
          "name": "",
          "type": "tuple[]"
        }
      ],
      "stateMutability": "view",
      "type": "function",
      "constant": true
    },
    {
      "inputs": [
        {
          "internalType": "address",
          "name": "_partyAddress",
          "type": "address"
        }
      ],
      "name": "getMyTenders",
      "outputs": [
        {
          "components": [
            {
              "internalType": "string",
              "name": "title",
              "type": "string"
            },
            {
              "internalType": "string",
              "name": "description",
              "type": "string"
            },
            {
              "internalType": "uint256",
              "name": "budget",
              "type": "uint256"
            },
            {
              "internalType": "address",
              "name": "issuerAddress",
              "type": "address"
            },
            {
              "internalType": "enum TenderStatus",
              "name": "tenderStatus",
              "type": "uint8"
            },
            {
              "internalType": "uint256",
              "name": "createdAt",
              "type": "uint256"
            },
            {
              "internalType": "uint256",
              "name": "deadline",
              "type": "uint256"
            },
            {
              "internalType": "uint256",
              "name": "totalMilestones",
              "type": "uint256"
            },
            {
              "internalType": "address",
              "name": "tenderAddress",
              "type": "address"
            },
            {
              "internalType": "address[]",
              "name": "validatorsAddresses",
              "type": "address[]"
            },
            {
              "internalType": "bool[]",
              "name": "validationVotes",
              "type": "bool[]"
            },
            {
              "internalType": "uint256[]",
              "name": "milestoneTimePeriods",
              "type": "uint256[]"
            },
            {
              "internalType": "uint256[]",
              "name": "bidIds",
              "type": "uint256[]"
            }
          ],
          "internalType": "struct TenderContract.Tender[]",
          "name": "",
          "type": "tuple[]"
        }
      ],
      "stateMutability": "view",
      "type": "function",
      "constant": true
    },
    {
      "inputs": [
        {
          "internalType": "uint256",
          "name": "_tenderAddress",
          "type": "uint256"
        }
      ],
      "name": "getTenderDetails",
      "outputs": [
        {
          "components": [
            {
              "internalType": "string",
              "name": "title",
              "type": "string"
            },
            {
              "internalType": "string",
              "name": "description",
              "type": "string"
            },
            {
              "internalType": "uint256",
              "name": "budget",
              "type": "uint256"
            },
            {
              "internalType": "address",
              "name": "issuerAddress",
              "type": "address"
            },
            {
              "internalType": "enum TenderStatus",
              "name": "tenderStatus",
              "type": "uint8"
            },
            {
              "internalType": "uint256",
              "name": "createdAt",
              "type": "uint256"
            },
            {
              "internalType": "uint256",
              "name": "deadline",
              "type": "uint256"
            },
            {
              "internalType": "uint256",
              "name": "totalMilestones",
              "type": "uint256"
            },
            {
              "internalType": "address",
              "name": "tenderAddress",
              "type": "address"
            },
            {
              "internalType": "address[]",
              "name": "validatorsAddresses",
              "type": "address[]"
            },
            {
              "internalType": "bool[]",
              "name": "validationVotes",
              "type": "bool[]"
            },
            {
              "internalType": "uint256[]",
              "name": "milestoneTimePeriods",
              "type": "uint256[]"
            },
            {
              "internalType": "uint256[]",
              "name": "bidIds",
              "type": "uint256[]"
            }
          ],
          "internalType": "struct TenderContract.Tender",
          "name": "",
          "type": "tuple"
        }
      ],
      "stateMutability": "view",
      "type": "function",
      "constant": true
    },
    {
      "inputs": [
        {
          "internalType": "uint256",
          "name": "_tenderAddress",
          "type": "uint256"
        },
        {
          "internalType": "enum TenderStatus",
          "name": "_tenderStatus",
          "type": "uint8"
        }
      ],
      "name": "updateTenderStatus",
      "outputs": [],
      "stateMutability": "nonpayable",
      "type": "function"
    },
    {
      "inputs": [
        {
          "internalType": "address",
          "name": "_partyAddress",
          "type": "address"
        },
        {
          "internalType": "uint256",
          "name": "_tenderAddress",
          "type": "uint256"
        },
        {
          "internalType": "uint256",
          "name": "_budget",
          "type": "uint256"
        },
        {
          "internalType": "string",
          "name": "_title",
          "type": "string"
        },
        {
          "internalType": "string",
          "name": "_description",
          "type": "string"
        },
        {
          "internalType": "uint256",
          "name": "_deadline",
          "type": "uint256"
        },
        {
          "internalType": "uint256",
          "name": "_totalMilestones",
          "type": "uint256"
        }
      ],
      "name": "updateTender",
      "outputs": [],
      "stateMutability": "nonpayable",
      "type": "function"
    },
    {
      "inputs": [
        {
          "internalType": "address",
          "name": "_partyAddress",
          "type": "address"
        },
        {
          "internalType": "uint256",
          "name": "_tenderAddress",
          "type": "uint256"
        }
      ],
      "name": "deleteTender",
      "outputs": [],
      "stateMutability": "nonpayable",
      "type": "function"
    }
  ],
  "bytecode": "0x6080604052600060035534801561001557600080fd5b5061561c80620000266000396000f3fe608060405234801561001057600080fd5b506004361061018d5760003560e01c8063564abc25116100de578063aaaf418811610097578063c792d8fd11610071578063c792d8fd146104ec578063ccfa858e1461051c578063ef8c03911461054c578063f1d8ef4d146105685761018d565b8063aaaf418814610498578063b2a88f6f146104b4578063bac2e80d146104d05761018d565b8063564abc25146103c6578063791778c1146103e45780637a0c7d39146104005780637e4d2d971461041c578063828622751461044c57806397ef4e3e1461047c5761018d565b80632e4ea4c41161014b578063465e1def11610125578063465e1def1461030c5780634f2352071461034457806353ee895d1461037a57806355e8dea2146103aa5761018d565b80632e4ea4c41461027c578063354133f7146102ac57806342222a43146102dc5761018d565b8062da72281461019257806308026668146101c6578063171fd848146101f6578063228becb6146102125780632358c0461461024257806329c350f114610260575b600080fd5b6101ac60048036038101906101a79190613b04565b610584565b6040516101bd959493929190613be9565b60405180910390f35b6101e060048036038101906101db9190613b04565b6109ec565b6040516101ed9190613c51565b60405180910390f35b610210600480360381019061020b9190613da8565b610c01565b005b61022c60048036038101906102279190613b04565b610e8c565b6040516102399190614398565b60405180910390f35b61024a611471565b6040516102579190614398565b60405180910390f35b61027a600480360381019061027591906143e6565b611968565b005b610296600480360381019061029191906143e6565b611a14565b6040516102a39190614413565b60405180910390f35b6102c660048036038101906102c191906143e6565b611a34565b6040516102d3919061443d565b60405180910390f35b6102f660048036038101906102f191906143e6565b611a61565b60405161030391906144c7565b60405180910390f35b610326600480360381019061032191906143e6565b611acf565b60405161033b999897969594939291906144e9565b60405180910390f35b61035e60048036038101906103599190613b04565b611c7a565b6040516103719796959493929190614584565b60405180910390f35b610394600480360381019061038f91906143e6565b611efc565b6040516103a1919061474b565b60405180910390f35b6103c460048036038101906103bf919061476d565b612371565b005b6103ce6127d9565b6040516103db919061481c565b60405180910390f35b6103fe60048036038101906103f9919061483e565b612a49565b005b61041a6004803603810190610415919061487e565b612b34565b005b610436600480360381019061043191906143e6565b612ce2565b6040516104439190614909565b60405180910390f35b610466600480360381019061046191906143e6565b612d22565b6040516104739190614413565b60405180910390f35b61049660048036038101906104919190614950565b612d42565b005b6104b260048036038101906104ad91906149b5565b612e94565b005b6104ce60048036038101906104c991906149f5565b612edc565b005b6104ea60048036038101906104e59190614aba565b613308565b005b610506600480360381019061050191906143e6565b613410565b6040516105139190614909565b60405180910390f35b61053660048036038101906105319190614c5c565b61344f565b6040516105439190614cb4565b60405180910390f35b61056660048036038101906105619190613b04565b6134c2565b005b610582600480360381019061057d919061483e565b61385a565b005b6060806060600080858073ffffffffffffffffffffffffffffffffffffffff163373ffffffffffffffffffffffffffffffffffffffff16146105fb576040517f08c379a00000000000000000000000000000000000000000000000000000000081526004016105f290614d1b565b60405180910390fd5b86600073ffffffffffffffffffffffffffffffffffffffff166000808373ffffffffffffffffffffffffffffffffffffffff1673ffffffffffffffffffffffffffffffffffffffff16815260200190815260200160002060060160009054906101000a900473ffffffffffffffffffffffffffffffffffffffff1673ffffffffffffffffffffffffffffffffffffffff16036106cc576040517f08c379a00000000000000000000000000000000000000000000000000000000081526004016106c390614d87565b60405180910390fd5b6000808973ffffffffffffffffffffffffffffffffffffffff1673ffffffffffffffffffffffffffffffffffffffff1681526020019081526020016000206000016000808a73ffffffffffffffffffffffffffffffffffffffff1673ffffffffffffffffffffffffffffffffffffffff1681526020019081526020016000206001016000808b73ffffffffffffffffffffffffffffffffffffffff1673ffffffffffffffffffffffffffffffffffffffff1681526020019081526020016000206002016000808c73ffffffffffffffffffffffffffffffffffffffff1673ffffffffffffffffffffffffffffffffffffffff16815260200190815260200160002060060160009054906101000a900473ffffffffffffffffffffffffffffffffffffffff166000808d73ffffffffffffffffffffffffffffffffffffffff1673ffffffffffffffffffffffffffffffffffffffff1681526020019081526020016000206004015484805461083f90614dd6565b80601f016020809104026020016040519081016040528092919081815260200182805461086b90614dd6565b80156108b85780601f1061088d576101008083540402835291602001916108b8565b820191906000526020600020905b81548152906001019060200180831161089b57829003601f168201915b505050505094508380546108cb90614dd6565b80601f01602080910402602001604051908101604052809291908181526020018280546108f790614dd6565b80156109445780601f1061091957610100808354040283529160200191610944565b820191906000526020600020905b81548152906001019060200180831161092757829003601f168201915b5050505050935082805461095790614dd6565b80601f016020809104026020016040519081016040528092919081815260200182805461098390614dd6565b80156109d05780601f106109a5576101008083540402835291602001916109d0565b820191906000526020600020905b8154815290600101906020018083116109b357829003601f168201915b5050505050925096509650965096509650505091939590929450565b6060818073ffffffffffffffffffffffffffffffffffffffff163373ffffffffffffffffffffffffffffffffffffffff1614610a5d576040517f08c379a0000000000000000000000000000000000000000000000000000000008152600401610a5490614d1b565b60405180910390fd5b82600073ffffffffffffffffffffffffffffffffffffffff166000808373ffffffffffffffffffffffffffffffffffffffff1673ffffffffffffffffffffffffffffffffffffffff16815260200190815260200160002060060160009054906101000a900473ffffffffffffffffffffffffffffffffffffffff1673ffffffffffffffffffffffffffffffffffffffff1603610b2e576040517f08c379a0000000000000000000000000000000000000000000000000000000008152600401610b2590614d87565b60405180910390fd5b6000808573ffffffffffffffffffffffffffffffffffffffff1673ffffffffffffffffffffffffffffffffffffffff1681526020019081526020016000206003018054610b7a90614dd6565b80601f0160208091040260200160405190810160405280929190818152602001828054610ba690614dd6565b8015610bf35780601f10610bc857610100808354040283529160200191610bf3565b820191906000526020600020905b815481529060010190602001808311610bd657829003601f168201915b505050505092505050919050565b808073ffffffffffffffffffffffffffffffffffffffff163373ffffffffffffffffffffffffffffffffffffffff1614610c70576040517f08c379a0000000000000000000000000000000000000000000000000000000008152600401610c6790614d1b565b60405180910390fd5b600073ffffffffffffffffffffffffffffffffffffffff166000808473ffffffffffffffffffffffffffffffffffffffff1673ffffffffffffffffffffffffffffffffffffffff16815260200190815260200160002060060160009054906101000a900473ffffffffffffffffffffffffffffffffffffffff1673ffffffffffffffffffffffffffffffffffffffff1614610d40576040517f08c379a0000000000000000000000000000000000000000000000000000000008152600401610d3790614e53565b60405180910390fd5b60008060008473ffffffffffffffffffffffffffffffffffffffff1673ffffffffffffffffffffffffffffffffffffffff168152602001908152602001600020905086816000019081610d93919061501f565b5085816001019081610da5919061501f565b5084816002019081610db7919061501f565b5083816003019081610dc9919061501f565b5060008160040181905550428160050181905550828160060160006101000a81548173ffffffffffffffffffffffffffffffffffffffff021916908373ffffffffffffffffffffffffffffffffffffffff1602179055506001839080600181540180825580915050600190039060005260206000200160009091909190916101000a81548173ffffffffffffffffffffffffffffffffffffffff021916908373ffffffffffffffffffffffffffffffffffffffff16021790555050505050505050565b606060008060008473ffffffffffffffffffffffffffffffffffffffff1673ffffffffffffffffffffffffffffffffffffffff1681526020019081526020016000206007018054905011610f15576040517f08c379a0000000000000000000000000000000000000000000000000000000008152600401610f0c9061513d565b60405180910390fd5b60008060008473ffffffffffffffffffffffffffffffffffffffff1673ffffffffffffffffffffffffffffffffffffffff168152602001908152602001600020600701805480602002602001604051908101604052809291908181526020018280548015610fa257602002820191906000526020600020905b815481526020019060010190808311610f8e575b505050505090506000815167ffffffffffffffff811115610fc657610fc5613c7d565b5b604051908082528060200260200182016040528015610fff57816020015b610fec61389b565b815260200190600190039081610fe45790505b50905060005b825181101561146657600260008483815181106110255761102461515d565b5b60200260200101518152602001908152602001600020604051806101a001604052908160008201805461105790614dd6565b80601f016020809104026020016040519081016040528092919081815260200182805461108390614dd6565b80156110d05780601f106110a5576101008083540402835291602001916110d0565b820191906000526020600020905b8154815290600101906020018083116110b357829003601f168201915b505050505081526020016001820180546110e990614dd6565b80601f016020809104026020016040519081016040528092919081815260200182805461111590614dd6565b80156111625780601f1061113757610100808354040283529160200191611162565b820191906000526020600020905b81548152906001019060200180831161114557829003601f168201915b50505050508152602001600282015481526020016003820160009054906101000a900473ffffffffffffffffffffffffffffffffffffffff1673ffffffffffffffffffffffffffffffffffffffff1673ffffffffffffffffffffffffffffffffffffffff1681526020016003820160149054906101000a900460ff1660048111156111f0576111ef613f27565b5b600481111561120257611201613f27565b5b81526020016004820154815260200160058201548152602001600682015481526020016007820160009054906101000a900473ffffffffffffffffffffffffffffffffffffffff1673ffffffffffffffffffffffffffffffffffffffff1673ffffffffffffffffffffffffffffffffffffffff168152602001600882018054806020026020016040519081016040528092919081815260200182805480156112ff57602002820191906000526020600020905b8160009054906101000a900473ffffffffffffffffffffffffffffffffffffffff1673ffffffffffffffffffffffffffffffffffffffff16815260200190600101908083116112b5575b505050505081526020016009820180548060200260200160405190810160405280929190818152602001828054801561137c57602002820191906000526020600020906000905b82829054906101000a900460ff161515815260200190600101906020826000010492830192600103820291508084116113465790505b50505050508152602001600a82018054806020026020016040519081016040528092919081815260200182805480156113d457602002820191906000526020600020905b8154815260200190600101908083116113c0575b50505050508152602001600b820180548060200260200160405190810160405280929190818152602001828054801561142c57602002820191906000526020600020905b815481526020019060010190808311611418575b5050505050815250508282815181106114485761144761515d565b5b6020026020010181905250808061145e906151bb565b915050611005565b508092505050919050565b60606000600180549050116114bb576040517f08c379a00000000000000000000000000000000000000000000000000000000081526004016114b29061524f565b60405180910390fd5b600060035467ffffffffffffffff8111156114d9576114d8613c7d565b5b60405190808252806020026020018201604052801561151257816020015b6114ff61389b565b8152602001906001900390816114f75790505b50905060005b6003548110156119605760026000828152602001908152602001600020604051806101a001604052908160008201805461155190614dd6565b80601f016020809104026020016040519081016040528092919081815260200182805461157d90614dd6565b80156115ca5780601f1061159f576101008083540402835291602001916115ca565b820191906000526020600020905b8154815290600101906020018083116115ad57829003601f168201915b505050505081526020016001820180546115e390614dd6565b80601f016020809104026020016040519081016040528092919081815260200182805461160f90614dd6565b801561165c5780601f106116315761010080835404028352916020019161165c565b820191906000526020600020905b81548152906001019060200180831161163f57829003601f168201915b50505050508152602001600282015481526020016003820160009054906101000a900473ffffffffffffffffffffffffffffffffffffffff1673ffffffffffffffffffffffffffffffffffffffff1673ffffffffffffffffffffffffffffffffffffffff1681526020016003820160149054906101000a900460ff1660048111156116ea576116e9613f27565b5b60048111156116fc576116fb613f27565b5b81526020016004820154815260200160058201548152602001600682015481526020016007820160009054906101000a900473ffffffffffffffffffffffffffffffffffffffff1673ffffffffffffffffffffffffffffffffffffffff1673ffffffffffffffffffffffffffffffffffffffff168152602001600882018054806020026020016040519081016040528092919081815260200182805480156117f957602002820191906000526020600020905b8160009054906101000a900473ffffffffffffffffffffffffffffffffffffffff1673ffffffffffffffffffffffffffffffffffffffff16815260200190600101908083116117af575b505050505081526020016009820180548060200260200160405190810160405280929190818152602001828054801561187657602002820191906000526020600020906000905b82829054906101000a900460ff161515815260200190600101906020826000010492830192600103820291508084116118405790505b50505050508152602001600a82018054806020026020016040519081016040528092919081815260200182805480156118ce57602002820191906000526020600020905b8154815260200190600101908083116118ba575b50505050508152602001600b820180548060200260200160405190810160405280929190818152602001828054801561192657602002820191906000526020600020905b815481526020019060010190808311611912575b5050505050815250508282815181106119425761194161515d565b5b60200260200101819052508080611958906151bb565b915050611518565b508091505090565b60006002600083815260200190815260200160002090506119ff816009018054806020026020016040519081016040528092919081815260200182805480156119f557602002820191906000526020600020906000905b82829054906101000a900460ff161515815260200190600101906020826000010492830192600103820291508084116119bf5790505b505050505061344f565b15611a1057611a0f826001612e94565b5b5050565b600060026000838152602001908152602001600020600201549050919050565b60006002600083815260200190815260200160002060030160149054906101000a900460ff169050919050565b606060026000838152602001908152602001600020600b01805480602002602001604051908101604052809291908181526020018280548015611ac357602002820191906000526020600020905b815481526020019060010190808311611aaf575b50505050509050919050565b6002602052806000526040600020600091509050806000018054611af290614dd6565b80601f0160208091040260200160405190810160405280929190818152602001828054611b1e90614dd6565b8015611b6b5780601f10611b4057610100808354040283529160200191611b6b565b820191906000526020600020905b815481529060010190602001808311611b4e57829003601f168201915b505050505090806001018054611b8090614dd6565b80601f0160208091040260200160405190810160405280929190818152602001828054611bac90614dd6565b8015611bf95780601f10611bce57610100808354040283529160200191611bf9565b820191906000526020600020905b815481529060010190602001808311611bdc57829003601f168201915b5050505050908060020154908060030160009054906101000a900473ffffffffffffffffffffffffffffffffffffffff16908060030160149054906101000a900460ff16908060040154908060050154908060060154908060070160009054906101000a900473ffffffffffffffffffffffffffffffffffffffff16905089565b6000602052806000526040600020600091509050806000018054611c9d90614dd6565b80601f0160208091040260200160405190810160405280929190818152602001828054611cc990614dd6565b8015611d165780601f10611ceb57610100808354040283529160200191611d16565b820191906000526020600020905b815481529060010190602001808311611cf957829003601f168201915b505050505090806001018054611d2b90614dd6565b80601f0160208091040260200160405190810160405280929190818152602001828054611d5790614dd6565b8015611da45780601f10611d7957610100808354040283529160200191611da4565b820191906000526020600020905b815481529060010190602001808311611d8757829003601f168201915b505050505090806002018054611db990614dd6565b80601f0160208091040260200160405190810160405280929190818152602001828054611de590614dd6565b8015611e325780601f10611e0757610100808354040283529160200191611e32565b820191906000526020600020905b815481529060010190602001808311611e1557829003601f168201915b505050505090806003018054611e4790614dd6565b80601f0160208091040260200160405190810160405280929190818152602001828054611e7390614dd6565b8015611ec05780601f10611e9557610100808354040283529160200191611ec0565b820191906000526020600020905b815481529060010190602001808311611ea357829003601f168201915b5050505050908060040154908060050154908060060160009054906101000a900473ffffffffffffffffffffffffffffffffffffffff16905087565b611f0461389b565b6000600260008481526020019081526020016000206002015411611f5d576040517f08c379a0000000000000000000000000000000000000000000000000000000008152600401611f54906152e1565b60405180910390fd5b60026000838152602001908152602001600020604051806101a0016040529081600082018054611f8c90614dd6565b80601f0160208091040260200160405190810160405280929190818152602001828054611fb890614dd6565b80156120055780601f10611fda57610100808354040283529160200191612005565b820191906000526020600020905b815481529060010190602001808311611fe857829003601f168201915b5050505050815260200160018201805461201e90614dd6565b80601f016020809104026020016040519081016040528092919081815260200182805461204a90614dd6565b80156120975780601f1061206c57610100808354040283529160200191612097565b820191906000526020600020905b81548152906001019060200180831161207a57829003601f168201915b50505050508152602001600282015481526020016003820160009054906101000a900473ffffffffffffffffffffffffffffffffffffffff1673ffffffffffffffffffffffffffffffffffffffff1673ffffffffffffffffffffffffffffffffffffffff1681526020016003820160149054906101000a900460ff16600481111561212557612124613f27565b5b600481111561213757612136613f27565b5b81526020016004820154815260200160058201548152602001600682015481526020016007820160009054906101000a900473ffffffffffffffffffffffffffffffffffffffff1673ffffffffffffffffffffffffffffffffffffffff1673ffffffffffffffffffffffffffffffffffffffff1681526020016008820180548060200260200160405190810160405280929190818152602001828054801561223457602002820191906000526020600020905b8160009054906101000a900473ffffffffffffffffffffffffffffffffffffffff1673ffffffffffffffffffffffffffffffffffffffff16815260200190600101908083116121ea575b50505050508152602001600982018054806020026020016040519081016040528092919081815260200182805480156122b157602002820191906000526020600020906000905b82829054906101000a900460ff1615158152602001906001019060208260000104928301926001038202915080841161227b5790505b50505050508152602001600a820180548060200260200160405190810160405280929190818152602001828054801561230957602002820191906000526020600020905b8154815260200190600101908083116122f5575b50505050508152602001600b820180548060200260200160405190810160405280929190818152602001828054801561236157602002820191906000526020600020905b81548152602001906001019080831161234d575b5050505050815250509050919050565b81818173ffffffffffffffffffffffffffffffffffffffff166002600083815260200190815260200160002060030160009054906101000a900473ffffffffffffffffffffffffffffffffffffffff1673ffffffffffffffffffffffffffffffffffffffff1614612417576040517f08c379a000000000000000000000000000000000000000000000000000000000815260040161240e90615373565b60405180910390fd5b60008060008673ffffffffffffffffffffffffffffffffffffffff1673ffffffffffffffffffffffffffffffffffffffff168152602001908152602001600020600701805490501161249e576040517f08c379a00000000000000000000000000000000000000000000000000000000081526004016124959061513d565b60405180910390fd5b60006002600085815260200190815260200160002060020154116124f7576040517f08c379a00000000000000000000000000000000000000000000000000000000081526004016124ee906152e1565b60405180910390fd5b6000600481111561250b5761250a613f27565b5b6002600085815260200190815260200160002060030160149054906101000a900460ff16600481111561254157612540613f27565b5b148061259457506003600481111561255c5761255b613f27565b5b6002600085815260200190815260200160002060030160149054906101000a900460ff16600481111561259257612591613f27565b5b145b6125d3576040517f08c379a00000000000000000000000000000000000000000000000000000000081526004016125ca906153df565b60405180910390fd5b60008060008673ffffffffffffffffffffffffffffffffffffffff1673ffffffffffffffffffffffffffffffffffffffff168152602001908152602001600020600701905060005b81805490508110156127d1578482828154811061263b5761263a61515d565b5b9060005260206000200154036127be57600260008681526020019081526020016000206000808201600061266f9190613941565b60018201600061267f9190613941565b60028201600090556003820160006101000a81549073ffffffffffffffffffffffffffffffffffffffff02191690556003820160146101000a81549060ff02191690556004820160009055600582016000905560068201600090556007820160006101000a81549073ffffffffffffffffffffffffffffffffffffffff02191690556008820160006127119190613981565b60098201600061272191906139a2565b600a8201600061273191906139ca565b600b8201600061274191906139ca565b5050816001838054905061275591906153ff565b815481106127665761276561515d565b5b90600052602060002001548282815481106127845761278361515d565b5b9060005260206000200181905550818054806127a3576127a2615433565b5b600190038181906000526020600020016000905590556127d1565b80806127c9906151bb565b91505061261b565b505050505050565b60606000600180548060200260200160405190810160405280929190818152602001828054801561285f57602002820191906000526020600020905b8160009054906101000a900473ffffffffffffffffffffffffffffffffffffffff1673ffffffffffffffffffffffffffffffffffffffff1681526020019060010190808311612815575b505050505090506000600190505b600180549050811015612a415760005b81811015612a2d5760008084838151811061289b5761289a61515d565b5b602002602001015173ffffffffffffffffffffffffffffffffffffffff1673ffffffffffffffffffffffffffffffffffffffff168152602001908152602001600020600401546000808585815181106128f7576128f661515d565b5b602002602001015173ffffffffffffffffffffffffffffffffffffffff1673ffffffffffffffffffffffffffffffffffffffff168152602001908152602001600020600401541015612a1a5760008383815181106129585761295761515d565b5b602002602001015190508382815181106129755761297461515d565b5b60200260200101518484815181106129905761298f61515d565b5b602002602001019073ffffffffffffffffffffffffffffffffffffffff16908173ffffffffffffffffffffffffffffffffffffffff1681525050808483815181106129de576129dd61515d565b5b602002602001019073ffffffffffffffffffffffffffffffffffffffff16908173ffffffffffffffffffffffffffffffffffffffff1681525050505b8080612a25906151bb565b91505061287d565b508080612a39906151bb565b91505061286d565b508091505090565b600060026000848152602001908152602001600020600b01905060005b8180549050811015612b2e5782828281548110612a8657612a8561515d565b5b906000526020600020015403612b1b578160018380549050612aa891906153ff565b81548110612ab957612ab861515d565b5b9060005260206000200154828281548110612ad757612ad661515d565b5b90600052602060002001819055508160018380549050612af791906153ff565b81548110612b0857612b0761515d565b5b9060005260206000200160009055612b2e565b8080612b26906151bb565b915050612a66565b50505050565b808073ffffffffffffffffffffffffffffffffffffffff163373ffffffffffffffffffffffffffffffffffffffff1614612ba3576040517f08c379a0000000000000000000000000000000000000000000000000000000008152600401612b9a90614d1b565b60405180910390fd5b81600073ffffffffffffffffffffffffffffffffffffffff166000808373ffffffffffffffffffffffffffffffffffffffff1673ffffffffffffffffffffffffffffffffffffffff16815260200190815260200160002060060160009054906101000a900473ffffffffffffffffffffffffffffffffffffffff1673ffffffffffffffffffffffffffffffffffffffff1603612c74576040517f08c379a0000000000000000000000000000000000000000000000000000000008152600401612c6b90614d87565b60405180910390fd5b60008060008573ffffffffffffffffffffffffffffffffffffffff1673ffffffffffffffffffffffffffffffffffffffff168152602001908152602001600020905085816000019081612cc7919061501f565b5084816003019081612cd9919061501f565b50505050505050565b60006002600083815260200190815260200160002060030160009054906101000a900473ffffffffffffffffffffffffffffffffffffffff169050919050565b600060026000838152602001908152602001600020600501549050919050565b60008060026000858152602001908152602001600020905060008160080180549050905060005b81811015612e00573373ffffffffffffffffffffffffffffffffffffffff16836008018281548110612d9e57612d9d61515d565b5b9060005260206000200160009054906101000a900473ffffffffffffffffffffffffffffffffffffffff1673ffffffffffffffffffffffffffffffffffffffff1603612ded5760019350612e00565b8080612df8906151bb565b915050612d69565b508215612e5257816009018490806001815401808255809150506001900390600052602060002090602091828204019190069091909190916101000a81548160ff021916908315150217905550612e8d565b6040517f08c379a0000000000000000000000000000000000000000000000000000000008152600401612e84906154d4565b60405180910390fd5b5050505050565b6000600260008481526020019081526020016000209050818160030160146101000a81548160ff02191690836004811115612ed257612ed1613f27565b5b0217905550505050565b858073ffffffffffffffffffffffffffffffffffffffff163373ffffffffffffffffffffffffffffffffffffffff1614612f4b576040517f08c379a0000000000000000000000000000000000000000000000000000000008152600401612f4290614d1b565b60405180910390fd5b600286612f589190615523565b8773ffffffffffffffffffffffffffffffffffffffff16311015612fb1576040517f08c379a0000000000000000000000000000000000000000000000000000000008152600401612fa8906155c6565b60405180910390fd5b6000600260006003548152602001908152602001600020905085816000019081612fdb919061501f565b5084816001019081612fed919061501f565b5086816002018190555060008160030160146101000a81548160ff0219169083600481111561301f5761301e613f27565b5b0217905550428160040181905550838160050181905550878160030160006101000a81548173ffffffffffffffffffffffffffffffffffffffff021916908373ffffffffffffffffffffffffffffffffffffffff160217905550308160070160006101000a81548173ffffffffffffffffffffffffffffffffffffffff021916908373ffffffffffffffffffffffffffffffffffffffff16021790555082816006018190555060006130cf6127d9565b9050600081519050600a81116130fd57818360080190805190602001906130f79291906139eb565b5061327a565b60005b600a811015613278576000803373ffffffffffffffffffffffffffffffffffffffff1673ffffffffffffffffffffffffffffffffffffffff16815260200190815260200160002060060160009054906101000a900473ffffffffffffffffffffffffffffffffffffffff1673ffffffffffffffffffffffffffffffffffffffff16836001838561319091906153ff565b61319a91906153ff565b815181106131ab576131aa61515d565b5b602002602001015173ffffffffffffffffffffffffffffffffffffffff1614613265578360080183600183856131e191906153ff565b6131eb91906153ff565b815181106131fc576131fb61515d565b5b60200260200101519080600181540180825580915050600190039060005260206000200160009091909190916101000a81548173ffffffffffffffffffffffffffffffffffffffff021916908373ffffffffffffffffffffffffffffffffffffffff1602179055505b8080613270906151bb565b915050613100565b505b6000808b73ffffffffffffffffffffffffffffffffffffffff1673ffffffffffffffffffffffffffffffffffffffff1681526020019081526020016000206007016003549080600181540180825580915050600190039060005260206000200160009091909190915055600360008154809291906132f7906151bb565b919050555050505050505050505050565b86868173ffffffffffffffffffffffffffffffffffffffff166002600083815260200190815260200160002060030160009054906101000a900473ffffffffffffffffffffffffffffffffffffffff1673ffffffffffffffffffffffffffffffffffffffff16146133ae576040517f08c379a00000000000000000000000000000000000000000000000000000000081526004016133a590615373565b60405180910390fd5b6000600260008a81526020019081526020016000209050878160020181905550868160000190816133df919061501f565b50858160010190816133f1919061501f565b5084816005018190555083816006018190555050505050505050505050565b6001818154811061342057600080fd5b906000526020600020016000915054906101000a900473ffffffffffffffffffffffffffffffffffffffff1681565b6000806000905060005b83518110156134a4578381815181106134755761347461515d565b5b60200260200101511561349157818061348d906151bb565b9250505b808061349c906151bb565b915050613459565b50600681106134b75760019150506134bd565b60009150505b919050565b808073ffffffffffffffffffffffffffffffffffffffff163373ffffffffffffffffffffffffffffffffffffffff1614613531576040517f08c379a000000000000000000000000000000000000000000000000000000000815260040161352890614d1b565b60405180910390fd5b81600073ffffffffffffffffffffffffffffffffffffffff166000808373ffffffffffffffffffffffffffffffffffffffff1673ffffffffffffffffffffffffffffffffffffffff16815260200190815260200160002060060160009054906101000a900473ffffffffffffffffffffffffffffffffffffffff1673ffffffffffffffffffffffffffffffffffffffff1603613602576040517f08c379a00000000000000000000000000000000000000000000000000000000081526004016135f990614d87565b60405180910390fd5b6000808473ffffffffffffffffffffffffffffffffffffffff1673ffffffffffffffffffffffffffffffffffffffff168152602001908152602001600020600080820160006136519190613941565b6001820160006136619190613941565b6002820160006136719190613941565b6003820160006136819190613941565b600482016000905560058201600090556006820160006101000a81549073ffffffffffffffffffffffffffffffffffffffff02191690556007820160006136c891906139ca565b505060005b600180549050811015613854573373ffffffffffffffffffffffffffffffffffffffff16600182815481106137055761370461515d565b5b9060005260206000200160009054906101000a900473ffffffffffffffffffffffffffffffffffffffff1673ffffffffffffffffffffffffffffffffffffffff160361384157600180808054905061375d91906153ff565b8154811061376e5761376d61515d565b5b9060005260206000200160009054906101000a900473ffffffffffffffffffffffffffffffffffffffff16600182815481106137ad576137ac61515d565b5b9060005260206000200160006101000a81548173ffffffffffffffffffffffffffffffffffffffff021916908373ffffffffffffffffffffffffffffffffffffffff160217905550600180548061380757613806615433565b5b6001900381819060005260206000200160006101000a81549073ffffffffffffffffffffffffffffffffffffffff02191690559055613854565b808061384c906151bb565b9150506136cd565b50505050565b60026000838152602001908152602001600020600b018190806001815401808255809150506001900390600052602060002001600090919091909150555050565b604051806101a00160405280606081526020016060815260200160008152602001600073ffffffffffffffffffffffffffffffffffffffff168152602001600060048111156138ed576138ec613f27565b5b8152602001600081526020016000815260200160008152602001600073ffffffffffffffffffffffffffffffffffffffff168152602001606081526020016060815260200160608152602001606081525090565b50805461394d90614dd6565b6000825580601f1061395f575061397e565b601f01602090049060005260206000209081019061397d9190613a75565b5b50565b508054600082559060005260206000209081019061399f9190613a75565b50565b50805460008255601f0160209004906000526020600020908101906139c79190613a75565b50565b50805460008255906000526020600020908101906139e89190613a75565b50565b828054828255906000526020600020908101928215613a64579160200282015b82811115613a635782518260006101000a81548173ffffffffffffffffffffffffffffffffffffffff021916908373ffffffffffffffffffffffffffffffffffffffff16021790555091602001919060010190613a0b565b5b509050613a719190613a75565b5090565b5b80821115613a8e576000816000905550600101613a76565b5090565b6000604051905090565b600080fd5b600080fd5b600073ffffffffffffffffffffffffffffffffffffffff82169050919050565b6000613ad182613aa6565b9050919050565b613ae181613ac6565b8114613aec57600080fd5b50565b600081359050613afe81613ad8565b92915050565b600060208284031215613b1a57613b19613a9c565b5b6000613b2884828501613aef565b91505092915050565b600081519050919050565b600082825260208201905092915050565b60005b83811015613b6b578082015181840152602081019050613b50565b60008484015250505050565b6000601f19601f8301169050919050565b6000613b9382613b31565b613b9d8185613b3c565b9350613bad818560208601613b4d565b613bb681613b77565b840191505092915050565b613bca81613ac6565b82525050565b6000819050919050565b613be381613bd0565b82525050565b600060a0820190508181036000830152613c038188613b88565b90508181036020830152613c178187613b88565b90508181036040830152613c2b8186613b88565b9050613c3a6060830185613bc1565b613c476080830184613bda565b9695505050505050565b60006020820190508181036000830152613c6b8184613b88565b905092915050565b600080fd5b600080fd5b7f4e487b7100000000000000000000000000000000000000000000000000000000600052604160045260246000fd5b613cb582613b77565b810181811067ffffffffffffffff82111715613cd457613cd3613c7d565b5b80604052505050565b6000613ce7613a92565b9050613cf38282613cac565b919050565b600067ffffffffffffffff821115613d1357613d12613c7d565b5b613d1c82613b77565b9050602081019050919050565b82818337600083830152505050565b6000613d4b613d4684613cf8565b613cdd565b905082815260208101848484011115613d6757613d66613c78565b5b613d72848285613d29565b509392505050565b600082601f830112613d8f57613d8e613c73565b5b8135613d9f848260208601613d38565b91505092915050565b600080600080600060a08688031215613dc457613dc3613a9c565b5b600086013567ffffffffffffffff811115613de257613de1613aa1565b5b613dee88828901613d7a565b955050602086013567ffffffffffffffff811115613e0f57613e0e613aa1565b5b613e1b88828901613d7a565b945050604086013567ffffffffffffffff811115613e3c57613e3b613aa1565b5b613e4888828901613d7a565b935050606086013567ffffffffffffffff811115613e6957613e68613aa1565b5b613e7588828901613d7a565b9250506080613e8688828901613aef565b9150509295509295909350565b600081519050919050565b600082825260208201905092915050565b6000819050602082019050919050565b600082825260208201905092915050565b6000613edb82613b31565b613ee58185613ebf565b9350613ef5818560208601613b4d565b613efe81613b77565b840191505092915050565b613f1281613bd0565b82525050565b613f2181613ac6565b82525050565b7f4e487b7100000000000000000000000000000000000000000000000000000000600052602160045260246000fd5b60058110613f6757613f66613f27565b5b50565b6000819050613f7882613f56565b919050565b6000613f8882613f6a565b9050919050565b613f9881613f7d565b82525050565b600081519050919050565b600082825260208201905092915050565b6000819050602082019050919050565b6000613fd68383613f18565b60208301905092915050565b6000602082019050919050565b6000613ffa82613f9e565b6140048185613fa9565b935061400f83613fba565b8060005b838110156140405781516140278882613fca565b975061403283613fe2565b925050600181019050614013565b5085935050505092915050565b600081519050919050565b600082825260208201905092915050565b6000819050602082019050919050565b60008115159050919050565b61408e81614079565b82525050565b60006140a08383614085565b60208301905092915050565b6000602082019050919050565b60006140c48261404d565b6140ce8185614058565b93506140d983614069565b8060005b8381101561410a5781516140f18882614094565b97506140fc836140ac565b9250506001810190506140dd565b5085935050505092915050565b600081519050919050565b600082825260208201905092915050565b6000819050602082019050919050565b600061414f8383613f09565b60208301905092915050565b6000602082019050919050565b600061417382614117565b61417d8185614122565b935061418883614133565b8060005b838110156141b95781516141a08882614143565b97506141ab8361415b565b92505060018101905061418c565b5085935050505092915050565b60006101a08301600083015184820360008601526141e48282613ed0565b915050602083015184820360208601526141fe8282613ed0565b91505060408301516142136040860182613f09565b5060608301516142266060860182613f18565b5060808301516142396080860182613f8f565b5060a083015161424c60a0860182613f09565b5060c083015161425f60c0860182613f09565b5060e083015161427260e0860182613f09565b50610100830151614287610100860182613f18565b506101208301518482036101208601526142a18282613fef565b9150506101408301518482036101408601526142bd82826140b9565b9150506101608301518482036101608601526142d98282614168565b9150506101808301518482036101808601526142f58282614168565b9150508091505092915050565b600061430e83836141c6565b905092915050565b6000602082019050919050565b600061432e82613e93565b6143388185613e9e565b93508360208202850161434a85613eaf565b8060005b8581101561438657848403895281516143678582614302565b945061437283614316565b925060208a0199505060018101905061434e565b50829750879550505050505092915050565b600060208201905081810360008301526143b28184614323565b905092915050565b6143c381613bd0565b81146143ce57600080fd5b50565b6000813590506143e0816143ba565b92915050565b6000602082840312156143fc576143fb613a9c565b5b600061440a848285016143d1565b91505092915050565b60006020820190506144286000830184613bda565b92915050565b61443781613f7d565b82525050565b6000602082019050614452600083018461442e565b92915050565b600082825260208201905092915050565b600061447482614117565b61447e8185614458565b935061448983614133565b8060005b838110156144ba5781516144a18882614143565b97506144ac8361415b565b92505060018101905061448d565b5085935050505092915050565b600060208201905081810360008301526144e18184614469565b905092915050565b6000610120820190508181036000830152614504818c613b88565b90508181036020830152614518818b613b88565b9050614527604083018a613bda565b6145346060830189613bc1565b614541608083018861442e565b61454e60a0830187613bda565b61455b60c0830186613bda565b61456860e0830185613bda565b614576610100830184613bc1565b9a9950505050505050505050565b600060e082019050818103600083015261459e818a613b88565b905081810360208301526145b28189613b88565b905081810360408301526145c68188613b88565b905081810360608301526145da8187613b88565b90506145e96080830186613bda565b6145f660a0830185613bda565b61460360c0830184613bc1565b98975050505050505050565b60006101a083016000830151848203600086015261462d8282613ed0565b915050602083015184820360208601526146478282613ed0565b915050604083015161465c6040860182613f09565b50606083015161466f6060860182613f18565b5060808301516146826080860182613f8f565b5060a083015161469560a0860182613f09565b5060c08301516146a860c0860182613f09565b5060e08301516146bb60e0860182613f09565b506101008301516146d0610100860182613f18565b506101208301518482036101208601526146ea8282613fef565b91505061014083015184820361014086015261470682826140b9565b9150506101608301518482036101608601526147228282614168565b91505061018083015184820361018086015261473e8282614168565b9150508091505092915050565b60006020820190508181036000830152614765818461460f565b905092915050565b6000806040838503121561478457614783613a9c565b5b600061479285828601613aef565b92505060206147a3858286016143d1565b9150509250929050565b600082825260208201905092915050565b60006147c982613f9e565b6147d381856147ad565b93506147de83613fba565b8060005b8381101561480f5781516147f68882613fca565b975061480183613fe2565b9250506001810190506147e2565b5085935050505092915050565b6000602082019050818103600083015261483681846147be565b905092915050565b6000806040838503121561485557614854613a9c565b5b6000614863858286016143d1565b9250506020614874858286016143d1565b9150509250929050565b60008060006060848603121561489757614896613a9c565b5b600084013567ffffffffffffffff8111156148b5576148b4613aa1565b5b6148c186828701613d7a565b935050602084013567ffffffffffffffff8111156148e2576148e1613aa1565b5b6148ee86828701613d7a565b92505060406148ff86828701613aef565b9150509250925092565b600060208201905061491e6000830184613bc1565b92915050565b61492d81614079565b811461493857600080fd5b50565b60008135905061494a81614924565b92915050565b6000806040838503121561496757614966613a9c565b5b6000614975858286016143d1565b92505060206149868582860161493b565b9150509250929050565b6005811061499d57600080fd5b50565b6000813590506149af81614990565b92915050565b600080604083850312156149cc576149cb613a9c565b5b60006149da858286016143d1565b92505060206149eb858286016149a0565b9150509250929050565b60008060008060008060c08789031215614a1257614a11613a9c565b5b6000614a2089828a01613aef565b9650506020614a3189828a016143d1565b955050604087013567ffffffffffffffff811115614a5257614a51613aa1565b5b614a5e89828a01613d7a565b945050606087013567ffffffffffffffff811115614a7f57614a7e613aa1565b5b614a8b89828a01613d7a565b9350506080614a9c89828a016143d1565b92505060a0614aad89828a016143d1565b9150509295509295509295565b600080600080600080600060e0888a031215614ad957614ad8613a9c565b5b6000614ae78a828b01613aef565b9750506020614af88a828b016143d1565b9650506040614b098a828b016143d1565b955050606088013567ffffffffffffffff811115614b2a57614b29613aa1565b5b614b368a828b01613d7a565b945050608088013567ffffffffffffffff811115614b5757614b56613aa1565b5b614b638a828b01613d7a565b93505060a0614b748a828b016143d1565b92505060c0614b858a828b016143d1565b91505092959891949750929550565b600067ffffffffffffffff821115614baf57614bae613c7d565b5b602082029050602081019050919050565b600080fd5b6000614bd8614bd384614b94565b613cdd565b90508083825260208201905060208402830185811115614bfb57614bfa614bc0565b5b835b81811015614c245780614c10888261493b565b845260208401935050602081019050614bfd565b5050509392505050565b600082601f830112614c4357614c42613c73565b5b8135614c53848260208601614bc5565b91505092915050565b600060208284031215614c7257614c71613a9c565b5b600082013567ffffffffffffffff811115614c9057614c8f613aa1565b5b614c9c84828501614c2e565b91505092915050565b614cae81614079565b82525050565b6000602082019050614cc96000830184614ca5565b92915050565b7f43616c6c6572206973206e6f74206f776e657200000000000000000000000000600082015250565b6000614d05601383613b3c565b9150614d1082614ccf565b602082019050919050565b60006020820190508181036000830152614d3481614cf8565b9050919050565b7f506172747920646f6573206e6f74206578697374000000000000000000000000600082015250565b6000614d71601483613b3c565b9150614d7c82614d3b565b602082019050919050565b60006020820190508181036000830152614da081614d64565b9050919050565b7f4e487b7100000000000000000000000000000000000000000000000000000000600052602260045260246000fd5b60006002820490506001821680614dee57607f821691505b602082108103614e0157614e00614da7565b5b50919050565b7f506172747920616c726561647920657869737473000000000000000000000000600082015250565b6000614e3d601483613b3c565b9150614e4882614e07565b602082019050919050565b60006020820190508181036000830152614e6c81614e30565b9050919050565b60008190508160005260206000209050919050565b60006020601f8301049050919050565b600082821b905092915050565b600060088302614ed57fffffffffffffffffffffffffffffffffffffffffffffffffffffffffffffffff82614e98565b614edf8683614e98565b95508019841693508086168417925050509392505050565b6000819050919050565b6000614f1c614f17614f1284613bd0565b614ef7565b613bd0565b9050919050565b6000819050919050565b614f3683614f01565b614f4a614f4282614f23565b848454614ea5565b825550505050565b600090565b614f5f614f52565b614f6a818484614f2d565b505050565b5b81811015614f8e57614f83600082614f57565b600181019050614f70565b5050565b601f821115614fd357614fa481614e73565b614fad84614e88565b81016020851015614fbc578190505b614fd0614fc885614e88565b830182614f6f565b50505b505050565b600082821c905092915050565b6000614ff660001984600802614fd8565b1980831691505092915050565b600061500f8383614fe5565b9150826002028217905092915050565b61502882613b31565b67ffffffffffffffff81111561504157615040613c7d565b5b61504b8254614dd6565b615056828285614f92565b600060209050601f8311600181146150895760008415615077578287015190505b6150818582615003565b8655506150e9565b601f19841661509786614e73565b60005b828110156150bf5784890151825560018201915060208501945060208101905061509a565b868310156150dc57848901516150d8601f891682614fe5565b8355505b6001600288020188555050505b505050505050565b7f4e6f2074656e6465727320657869737473000000000000000000000000000000600082015250565b6000615127601183613b3c565b9150615132826150f1565b602082019050919050565b600060208201905081810360008301526151568161511a565b9050919050565b7f4e487b7100000000000000000000000000000000000000000000000000000000600052603260045260246000fd5b7f4e487b7100000000000000000000000000000000000000000000000000000000600052601160045260246000fd5b60006151c682613bd0565b91507fffffffffffffffffffffffffffffffffffffffffffffffffffffffffffffffff82036151f8576151f761518c565b5b600182019050919050565b7f4e6f207061727469657320657869737473000000000000000000000000000000600082015250565b6000615239601183613b3c565b915061524482615203565b602082019050919050565b600060208201905081810360008301526152688161522c565b9050919050565b7f74656e6465722077697468206164647265737320646f65736e2774206578697360008201527f7473000000000000000000000000000000000000000000000000000000000000602082015250565b60006152cb602283613b3c565b91506152d68261526f565b604082019050919050565b600060208201905081810360008301526152fa816152be565b9050919050565b7f796f75277265206e6f7420617574686f72697a656420746f20706572666f726d60008201527f207468697320616374696f6e0000000000000000000000000000000000000000602082015250565b600061535d602c83613b3c565b915061536882615301565b604082019050919050565b6000602082019050818103600083015261538c81615350565b9050919050565b7f74656e6465722063616e6e6f742062652064656c657465640000000000000000600082015250565b60006153c9601883613b3c565b91506153d482615393565b602082019050919050565b600060208201905081810360008301526153f8816153bc565b9050919050565b600061540a82613bd0565b915061541583613bd0565b925082820390508181111561542d5761542c61518c565b5b92915050565b7f4e487b7100000000000000000000000000000000000000000000000000000000600052603160045260246000fd5b7f596f75277265206e6f7420617574686f72697a656420746f2076616c6964617460008201527f6520746869732074656e6465722e000000000000000000000000000000000000602082015250565b60006154be602e83613b3c565b91506154c982615462565b604082019050919050565b600060208201905081810360008301526154ed816154b1565b9050919050565b7f4e487b7100000000000000000000000000000000000000000000000000000000600052601260045260246000fd5b600061552e82613bd0565b915061553983613bd0565b925082615549576155486154f4565b5b828204905092915050565b7f696e73756666696369656e742066756e647320746f206372656174652061207460008201527f656e646572000000000000000000000000000000000000000000000000000000602082015250565b60006155b0602583613b3c565b91506155bb82615554565b604082019050919050565b600060208201905081810360008301526155df816155a3565b905091905056fea2646970667358221220d2434d315eb5a6b674480c3e8aa2f60c566b74dc131377002f6d21b3642357bd64736f6c63430008130033",
  "immutableReferences": {},
  "source": "// SPDX-License-Identifier: UNLICENSED\r\n\r\n//the version of solidity that is compatible\r\nimport \"./PartyContract.sol\";\r\nenum TenderStatus{ NEW, OPEN, CLOSED, SUSPENDED, ASSIGNED } //created---OPEN, deadline crosses---CLOSED, project is assigned ---- ASSIGNED\r\n\r\npragma solidity ^0.8.0;\r\ncontract TenderContract is PartyContract{\r\n    // Tender Structure\r\n    struct Tender {\r\n        string title;\r\n        string description;\r\n        uint256 budget;\r\n        address issuerAddress;\r\n        TenderStatus tenderStatus; \r\n        uint256 createdAt;\r\n        uint256 deadline;\r\n        uint256 totalMilestones;\r\n        address tenderAddress;\r\n        address[] validatorsAddresses;\r\n        bool[] validationVotes;\r\n        uint256[] milestoneTimePeriods;\r\n        uint256[] bidIds;\r\n    }\r\n\r\n    mapping (uint256 => Tender) public tenders;\r\n    uint256 tenderCount = 0;\r\n\r\n    //setters and getter functions\r\n    function getBudget(uint256 _tenderId) public view returns(uint256){\r\n        return tenders[_tenderId].budget;\r\n    }\r\n\r\n    function getTenderStatus(uint256 _tenderId) public view returns(TenderStatus){\r\n        return tenders[_tenderId].tenderStatus;\r\n    }\r\n\r\n    function getDeadline(uint256 _tenderId) public view returns(uint256){\r\n            return tenders[_tenderId].deadline;\r\n    }\r\n\r\n    function getBidIds(uint256 _tenderId) public view returns(uint256[] memory){\r\n        return tenders[_tenderId].bidIds;\r\n    }\r\n\r\n    function getIssuerAddress(uint256 _tenderId) public view returns(address){\r\n        return tenders[_tenderId].issuerAddress;\r\n    }\r\n\r\n    function addBidId(uint256 _tenderId, uint256 bidId) public {\r\n        tenders[_tenderId].bidIds.push(bidId);\r\n    }\r\n\r\n    function deleteBidId(uint256 _tenderId, uint256 _bidId) public {\r\n        uint256[] storage tenderBidIds = tenders[_tenderId].bidIds;\r\n        for (uint i = 0; i < tenderBidIds.length; i++){\r\n            if(tenderBidIds[i] == _bidId){\r\n                tenderBidIds[i] = tenderBidIds[tenderBidIds.length - 1];\r\n                delete tenderBidIds[tenderBidIds.length - 1];\r\n                break;\r\n            }\r\n        }\r\n    }\r\n\r\n    // Function for creating a tender\r\n    function createTender(address _partyAddress, uint256 _budget, string memory _title, string memory _description, uint256 _deadline, uint256 _totalMilestones) isOwner(_partyAddress) public {\r\n        require(_partyAddress.balance >= _budget/2, \"insufficient funds to create a tender\");\r\n        Tender storage newTender = tenders[tenderCount];\r\n        newTender.title = _title;\r\n        newTender.description = _description;\r\n        newTender.budget = _budget;\r\n        newTender.tenderStatus = TenderStatus.NEW;\r\n        newTender.createdAt = block.timestamp;\r\n        newTender.deadline = _deadline;\r\n        newTender.issuerAddress = _partyAddress;\r\n        newTender.tenderAddress = address(this);\r\n        newTender.totalMilestones = _totalMilestones;\r\n        address[] memory sortedlist = sortByTrustScore();\r\n        uint len = sortedlist.length;\r\n        if(len<=10)\r\n        {\r\n            newTender.validatorsAddresses = sortedlist;\r\n        }\r\n        else\r\n        {\r\n            for(uint i=0; i<10; i++)\r\n            {\r\n                if(sortedlist[len-i-1] != parties[msg.sender].partyAddress)\r\n                {\r\n                    newTender.validatorsAddresses.push(sortedlist[len-i-1]);\r\n                }\r\n            }\r\n        }\r\n        parties[_partyAddress].tenderIds.push(tenderCount);\r\n        tenderCount++;\r\n    }\r\n\r\n    function sortByTrustScore() public view returns(address[] memory) {\r\n    address[] memory _party = partyAddresses;\r\n    for (uint i = 1; i < partyAddresses.length; i++)\r\n        for (uint j = 0; j < i; j++)\r\n            if (parties[_party[i]].trustScore < parties[_party[j]].trustScore) {\r\n                address x = _party[i];\r\n                _party[i] = _party[j];\r\n                _party[j] = x;\r\n            }\r\n\r\n    return _party;\r\n    }\r\n\r\n    function validate(uint256 _tenderAddress, bool _vote) public {\r\n        bool valid = false;\r\n        Tender storage newTender = tenders[_tenderAddress];\r\n        uint len = newTender.validatorsAddresses.length;\r\n        for(uint i=0; i<len; i++)\r\n        {\r\n            if(newTender.validatorsAddresses[i] == msg.sender)\r\n            {\r\n                valid = true;\r\n                break;\r\n            }\r\n        }\r\n        if(valid)\r\n        {\r\n            newTender.validationVotes.push(_vote);\r\n        }\r\n        else\r\n        {\r\n            revert(\"You're not authorized to validate this tender.\");\r\n        }\r\n    }\r\n\r\n    function checkTenderValidation(uint256 _tenderAddress) public {\r\n        Tender storage newTender = tenders[_tenderAddress];\r\n        if(isValid(newTender.validationVotes)) {\r\n            updateTenderStatus(_tenderAddress, TenderStatus.OPEN);\r\n        }\r\n    }\r\n    \r\n    function isValid(bool[] memory _validationVotes) public pure returns (bool) {\r\n        uint voteCount = 0;\r\n        for(uint i=0; i<_validationVotes.length; i++)\r\n        {\r\n            if(_validationVotes[i])\r\n            {\r\n                voteCount++;\r\n            }\r\n        }\r\n\r\n        if(voteCount>=6)\r\n        {\r\n            return true;\r\n        }\r\n        return false;\r\n    }\r\n\r\n    function getAllTenders() public view returns (Tender[] memory){\r\n        require(partyAddresses.length > 0, \"No parties exists\");\r\n        Tender[] memory tendersList = new Tender[](tenderCount);\r\n        for (uint256 i = 0; i < tenderCount; i++) {\r\n            tendersList[i] = tenders[i];\r\n        }\r\n        return(tendersList);\r\n    }\r\n\r\n    function getMyTenders(address _partyAddress) public view returns ( Tender[] memory){\r\n        require(parties[_partyAddress].tenderIds.length > 0, \"No tenders exists\");\r\n        uint256[] memory partyTenderIds = parties[_partyAddress].tenderIds;\r\n        Tender[] memory tendersList = new Tender[](partyTenderIds.length);\r\n        for (uint256 i = 0; i < partyTenderIds.length; i++) {\r\n            tendersList[i] = tenders[partyTenderIds[i]];\r\n        }\r\n        return(tendersList);\r\n    }\r\n\r\n    function getTenderDetails(uint256 _tenderAddress) public view returns ( Tender memory){\r\n        require(tenders[_tenderAddress].budget > 0 , \"tender with address doesn't exists\");\r\n        return(tenders[_tenderAddress]);\r\n    }\r\n\r\n    function updateTenderStatus(uint256 _tenderAddress, TenderStatus _tenderStatus) public {\r\n        Tender storage updatedTender = tenders[_tenderAddress];\r\n        updatedTender.tenderStatus = _tenderStatus;\r\n    }\r\n\r\n    function updateTender(address _partyAddress, uint256 _tenderAddress, uint256 _budget, string memory _title, string memory _description, uint256 _deadline, uint256 _totalMilestones) public isTenderOwner(_partyAddress, _tenderAddress){\r\n        Tender storage updatedTender = tenders[_tenderAddress];\r\n        updatedTender.budget = _budget;\r\n        updatedTender.title = _title;\r\n        updatedTender.description = _description;\r\n        updatedTender.deadline = _deadline;\r\n        updatedTender.totalMilestones = _totalMilestones;\r\n    }\r\n\r\n    function deleteTender(address _partyAddress, uint256 _tenderAddress) public isTenderOwner(_partyAddress, _tenderAddress){ \r\n        require(parties[_partyAddress].tenderIds.length > 0, \"No tenders exists\");\r\n        require(tenders[_tenderAddress].budget > 0 , \"tender with address doesn't exists\");\r\n        require(tenders[_tenderAddress].tenderStatus == TenderStatus.NEW ||\r\n                tenders[_tenderAddress].tenderStatus == TenderStatus.SUSPENDED , \"tender cannot be deleted\");\r\n        uint256[] storage _tenderIds = parties[_partyAddress].tenderIds;\r\n        for (uint i = 0; i < _tenderIds.length; i++){\r\n            if(_tenderIds[i] == _tenderAddress){\r\n                delete tenders[_tenderAddress];\r\n                _tenderIds[i] = _tenderIds[_tenderIds.length - 1];\r\n                _tenderIds.pop();\r\n                break;\r\n            }\r\n        }\r\n    }\r\n\r\n    // @todo - add modifer for above functions\r\n\r\n    modifier isTenderOwner(address _partyAddress, uint256 _tenderAddress) {\r\n        require(tenders[_tenderAddress].issuerAddress == _partyAddress, \"you're not authorized to perform this action\");\r\n        _;\r\n    }\r\n\r\n    \r\n}",
  "sourcePath": "C:\\Users\\sabba\\OneDrive\\Documents\\BlockchainProject\\blockchain-based-contracting-system\\contracts\\TenderContract.sol",
  "compiler": {
    "name": "solc",
    "version": "0.8.19+commit.7dd6d404.Emscripten.clang"
  },
  "schemaVersion": "3.4.13",
  "updatedAt": "2023-04-10T20:48:41.624Z",
  "networkType": "ethereum",
  "devdoc": {
    "kind": "dev",
    "methods": {},
    "version": 1
  },
  "userdoc": {
    "kind": "user",
    "methods": {},
    "version": 1
  }
}