{
  "contractName": "TenderContract",
  "abi": [
    {
      "inputs": [],
      "name": "admin",
      "outputs": [
        {
          "internalType": "address",
          "name": "",
          "type": "address"
        }
      ],
      "stateMutability": "view",
      "type": "function",
      "constant": true
    },
    {
      "inputs": [
        {
          "internalType": "string",
          "name": "_name",
          "type": "string"
        },
        {
          "internalType": "string",
          "name": "_contactNumber",
          "type": "string"
        },
        {
          "internalType": "string",
          "name": "_email",
          "type": "string"
        },
        {
          "internalType": "string",
          "name": "_password",
          "type": "string"
        },
        {
          "internalType": "address",
          "name": "_partyAddress",
          "type": "address"
        }
      ],
      "name": "createParty",
      "outputs": [],
      "stateMutability": "nonpayable",
      "type": "function"
    },
    {
      "inputs": [
        {
          "internalType": "address",
          "name": "_partyAddress",
          "type": "address"
        }
      ],
      "name": "deleteParty",
      "outputs": [],
      "stateMutability": "nonpayable",
      "type": "function"
    },
    {
      "inputs": [
        {
          "internalType": "address",
          "name": "_partyAddress",
          "type": "address"
        }
      ],
      "name": "getPartyDetails",
      "outputs": [
        {
          "internalType": "string",
          "name": "",
          "type": "string"
        },
        {
          "internalType": "string",
          "name": "",
          "type": "string"
        },
        {
          "internalType": "string",
          "name": "",
          "type": "string"
        },
        {
          "internalType": "address",
          "name": "",
          "type": "address"
        },
        {
          "internalType": "uint256",
          "name": "",
          "type": "uint256"
        },
        {
          "internalType": "string",
          "name": "",
          "type": "string"
        }
      ],
      "stateMutability": "view",
      "type": "function",
      "constant": true
    },
    {
      "inputs": [
        {
          "internalType": "address",
          "name": "_partyAddress",
          "type": "address"
        }
      ],
      "name": "getTrustScore",
      "outputs": [
        {
          "internalType": "uint256",
          "name": "",
          "type": "uint256"
        }
      ],
      "stateMutability": "view",
      "type": "function",
      "constant": true
    },
    {
      "inputs": [
        {
          "internalType": "address",
          "name": "",
          "type": "address"
        }
      ],
      "name": "parties",
      "outputs": [
        {
          "internalType": "string",
          "name": "name",
          "type": "string"
        },
        {
          "internalType": "string",
          "name": "contactNumber",
          "type": "string"
        },
        {
          "internalType": "string",
          "name": "email",
          "type": "string"
        },
        {
          "internalType": "string",
          "name": "password",
          "type": "string"
        },
        {
          "internalType": "uint256",
          "name": "trustScore",
          "type": "uint256"
        },
        {
          "internalType": "uint256",
          "name": "createdAt",
          "type": "uint256"
        },
        {
          "internalType": "address",
          "name": "partyAddress",
          "type": "address"
        },
        {
          "internalType": "uint256",
          "name": "balance",
          "type": "uint256"
        }
      ],
      "stateMutability": "view",
      "type": "function",
      "constant": true
    },
    {
      "inputs": [
        {
          "internalType": "uint256",
          "name": "",
          "type": "uint256"
        }
      ],
      "name": "partyAddresses",
      "outputs": [
        {
          "internalType": "address",
          "name": "",
          "type": "address"
        }
      ],
      "stateMutability": "view",
      "type": "function",
      "constant": true
    },
    {
      "inputs": [
        {
          "internalType": "address",
          "name": "_partyAddress",
          "type": "address"
        },
        {
          "internalType": "uint256",
          "name": "_trustScore",
          "type": "uint256"
        }
      ],
      "name": "setTrustScore",
      "outputs": [],
      "stateMutability": "nonpayable",
      "type": "function"
    },
    {
      "inputs": [
        {
          "internalType": "uint256",
          "name": "",
          "type": "uint256"
        }
      ],
      "name": "tenders",
      "outputs": [
        {
          "internalType": "string",
          "name": "title",
          "type": "string"
        },
        {
          "internalType": "string",
          "name": "description",
          "type": "string"
        },
        {
          "internalType": "uint256",
          "name": "budget",
          "type": "uint256"
        },
        {
          "internalType": "address",
          "name": "issuerAddress",
          "type": "address"
        },
        {
          "internalType": "enum TenderStatus",
          "name": "tenderStatus",
          "type": "uint8"
        },
        {
          "internalType": "uint256",
          "name": "createdAt",
          "type": "uint256"
        },
        {
          "internalType": "uint256",
          "name": "deadline",
          "type": "uint256"
        },
        {
          "internalType": "uint256",
          "name": "totalMilestones",
          "type": "uint256"
        },
        {
          "internalType": "uint256",
          "name": "tenderId",
          "type": "uint256"
        },
        {
          "internalType": "uint256",
          "name": "balance",
          "type": "uint256"
        }
      ],
      "stateMutability": "view",
      "type": "function",
      "constant": true
    },
    {
      "inputs": [
        {
          "internalType": "string",
          "name": "_name",
          "type": "string"
        },
        {
          "internalType": "string",
          "name": "_password",
          "type": "string"
        },
        {
          "internalType": "address",
          "name": "_partyAddress",
          "type": "address"
        }
      ],
      "name": "updateParty",
      "outputs": [],
      "stateMutability": "nonpayable",
      "type": "function"
    },
    {
      "inputs": [],
      "name": "getTenderCount",
      "outputs": [
        {
          "internalType": "uint256",
          "name": "",
          "type": "uint256"
        }
      ],
      "stateMutability": "view",
      "type": "function",
      "constant": true
    },
    {
      "inputs": [
        {
          "internalType": "uint256",
          "name": "_tenderId",
          "type": "uint256"
        }
      ],
      "name": "getBudget",
      "outputs": [
        {
          "internalType": "uint256",
          "name": "",
          "type": "uint256"
        }
      ],
      "stateMutability": "view",
      "type": "function",
      "constant": true
    },
    {
      "inputs": [
        {
          "internalType": "uint256",
          "name": "_tenderId",
          "type": "uint256"
        }
      ],
      "name": "getTenderStatus",
      "outputs": [
        {
          "internalType": "enum TenderStatus",
          "name": "",
          "type": "uint8"
        }
      ],
      "stateMutability": "view",
      "type": "function",
      "constant": true
    },
    {
      "inputs": [
        {
          "internalType": "uint256",
          "name": "_tenderId",
          "type": "uint256"
        }
      ],
      "name": "getDeadline",
      "outputs": [
        {
          "internalType": "uint256",
          "name": "",
          "type": "uint256"
        }
      ],
      "stateMutability": "view",
      "type": "function",
      "constant": true
    },
    {
      "inputs": [
        {
          "internalType": "uint256",
          "name": "_tenderId",
          "type": "uint256"
        }
      ],
      "name": "getBidIds",
      "outputs": [
        {
          "internalType": "uint256[]",
          "name": "",
          "type": "uint256[]"
        }
      ],
      "stateMutability": "view",
      "type": "function",
      "constant": true
    },
    {
      "inputs": [
        {
          "internalType": "uint256",
          "name": "_tenderId",
          "type": "uint256"
        }
      ],
      "name": "getIssuerAddress",
      "outputs": [
        {
          "internalType": "address",
          "name": "",
          "type": "address"
        }
      ],
      "stateMutability": "view",
      "type": "function",
      "constant": true
    },
    {
      "inputs": [
        {
          "internalType": "uint256",
          "name": "_tenderId",
          "type": "uint256"
        },
        {
          "internalType": "uint256",
          "name": "bidId",
          "type": "uint256"
        }
      ],
      "name": "addBidId",
      "outputs": [],
      "stateMutability": "nonpayable",
      "type": "function"
    },
    {
      "inputs": [
        {
          "internalType": "uint256",
          "name": "_tenderId",
          "type": "uint256"
        },
        {
          "internalType": "uint256",
          "name": "_bidId",
          "type": "uint256"
        }
      ],
      "name": "deleteBidId",
      "outputs": [],
      "stateMutability": "nonpayable",
      "type": "function"
    },
    {
      "inputs": [
        {
          "internalType": "address",
          "name": "_partyAddress",
          "type": "address"
        },
        {
          "internalType": "uint256",
          "name": "_budget",
          "type": "uint256"
        },
        {
          "internalType": "string",
          "name": "_title",
          "type": "string"
        },
        {
          "internalType": "string",
          "name": "_description",
          "type": "string"
        },
        {
          "internalType": "uint256",
          "name": "_deadline",
          "type": "uint256"
        },
        {
          "internalType": "uint256",
          "name": "_totalMilestones",
          "type": "uint256"
        }
      ],
      "name": "createTender",
      "outputs": [],
      "stateMutability": "nonpayable",
      "type": "function"
    },
    {
      "inputs": [],
      "name": "sortByTrustScore",
      "outputs": [
        {
          "internalType": "address[]",
          "name": "",
          "type": "address[]"
        }
      ],
      "stateMutability": "view",
      "type": "function",
      "constant": true
    },
    {
      "inputs": [
        {
          "internalType": "uint256",
          "name": "_tenderId",
          "type": "uint256"
        },
        {
          "internalType": "bool",
          "name": "_vote",
          "type": "bool"
        }
      ],
      "name": "validate",
      "outputs": [],
      "stateMutability": "nonpayable",
      "type": "function"
    },
    {
      "inputs": [
        {
          "internalType": "uint256",
          "name": "_tenderId",
          "type": "uint256"
        }
      ],
      "name": "checkTenderValidation",
      "outputs": [],
      "stateMutability": "nonpayable",
      "type": "function"
    },
    {
      "inputs": [
        {
          "internalType": "bool[]",
          "name": "_validationVotes",
          "type": "bool[]"
        }
      ],
      "name": "isValid",
      "outputs": [
        {
          "internalType": "bool",
          "name": "",
          "type": "bool"
        }
      ],
      "stateMutability": "pure",
      "type": "function",
      "constant": true
    },
    {
      "inputs": [],
      "name": "getAllActiveTenders",
      "outputs": [
        {
          "components": [
            {
              "internalType": "string",
              "name": "title",
              "type": "string"
            },
            {
              "internalType": "string",
              "name": "description",
              "type": "string"
            },
            {
              "internalType": "uint256",
              "name": "budget",
              "type": "uint256"
            },
            {
              "internalType": "address",
              "name": "issuerAddress",
              "type": "address"
            },
            {
              "internalType": "enum TenderStatus",
              "name": "tenderStatus",
              "type": "uint8"
            },
            {
              "internalType": "uint256",
              "name": "createdAt",
              "type": "uint256"
            },
            {
              "internalType": "uint256",
              "name": "deadline",
              "type": "uint256"
            },
            {
              "internalType": "uint256",
              "name": "totalMilestones",
              "type": "uint256"
            },
            {
              "internalType": "uint256",
              "name": "tenderId",
              "type": "uint256"
            },
            {
              "internalType": "address[]",
              "name": "validatorsAddresses",
              "type": "address[]"
            },
            {
              "internalType": "bool[]",
              "name": "validationVotes",
              "type": "bool[]"
            },
            {
              "internalType": "uint256[]",
              "name": "milestoneTimePeriods",
              "type": "uint256[]"
            },
            {
              "internalType": "uint256[]",
              "name": "bidIds",
              "type": "uint256[]"
            },
            {
              "internalType": "uint256",
              "name": "balance",
              "type": "uint256"
            }
          ],
          "internalType": "struct TenderContract.Tender[]",
          "name": "",
          "type": "tuple[]"
        },
        {
          "internalType": "uint256",
          "name": "",
          "type": "uint256"
        }
      ],
      "stateMutability": "view",
      "type": "function",
      "constant": true
    },
    {
      "inputs": [
        {
          "internalType": "address",
          "name": "_partyAddress",
          "type": "address"
        }
      ],
      "name": "getMyTenders",
      "outputs": [
        {
          "components": [
            {
              "internalType": "string",
              "name": "title",
              "type": "string"
            },
            {
              "internalType": "string",
              "name": "description",
              "type": "string"
            },
            {
              "internalType": "uint256",
              "name": "budget",
              "type": "uint256"
            },
            {
              "internalType": "address",
              "name": "issuerAddress",
              "type": "address"
            },
            {
              "internalType": "enum TenderStatus",
              "name": "tenderStatus",
              "type": "uint8"
            },
            {
              "internalType": "uint256",
              "name": "createdAt",
              "type": "uint256"
            },
            {
              "internalType": "uint256",
              "name": "deadline",
              "type": "uint256"
            },
            {
              "internalType": "uint256",
              "name": "totalMilestones",
              "type": "uint256"
            },
            {
              "internalType": "uint256",
              "name": "tenderId",
              "type": "uint256"
            },
            {
              "internalType": "address[]",
              "name": "validatorsAddresses",
              "type": "address[]"
            },
            {
              "internalType": "bool[]",
              "name": "validationVotes",
              "type": "bool[]"
            },
            {
              "internalType": "uint256[]",
              "name": "milestoneTimePeriods",
              "type": "uint256[]"
            },
            {
              "internalType": "uint256[]",
              "name": "bidIds",
              "type": "uint256[]"
            },
            {
              "internalType": "uint256",
              "name": "balance",
              "type": "uint256"
            }
          ],
          "internalType": "struct TenderContract.Tender[]",
          "name": "",
          "type": "tuple[]"
        }
      ],
      "stateMutability": "view",
      "type": "function",
      "constant": true
    },
    {
      "inputs": [
        {
          "internalType": "uint256",
          "name": "_tenderId",
          "type": "uint256"
        }
      ],
      "name": "getTenderDetails",
      "outputs": [
        {
          "components": [
            {
              "internalType": "string",
              "name": "title",
              "type": "string"
            },
            {
              "internalType": "string",
              "name": "description",
              "type": "string"
            },
            {
              "internalType": "uint256",
              "name": "budget",
              "type": "uint256"
            },
            {
              "internalType": "address",
              "name": "issuerAddress",
              "type": "address"
            },
            {
              "internalType": "enum TenderStatus",
              "name": "tenderStatus",
              "type": "uint8"
            },
            {
              "internalType": "uint256",
              "name": "createdAt",
              "type": "uint256"
            },
            {
              "internalType": "uint256",
              "name": "deadline",
              "type": "uint256"
            },
            {
              "internalType": "uint256",
              "name": "totalMilestones",
              "type": "uint256"
            },
            {
              "internalType": "uint256",
              "name": "tenderId",
              "type": "uint256"
            },
            {
              "internalType": "address[]",
              "name": "validatorsAddresses",
              "type": "address[]"
            },
            {
              "internalType": "bool[]",
              "name": "validationVotes",
              "type": "bool[]"
            },
            {
              "internalType": "uint256[]",
              "name": "milestoneTimePeriods",
              "type": "uint256[]"
            },
            {
              "internalType": "uint256[]",
              "name": "bidIds",
              "type": "uint256[]"
            },
            {
              "internalType": "uint256",
              "name": "balance",
              "type": "uint256"
            }
          ],
          "internalType": "struct TenderContract.Tender",
          "name": "",
          "type": "tuple"
        }
      ],
      "stateMutability": "view",
      "type": "function",
      "constant": true
    },
    {
      "inputs": [
        {
          "internalType": "uint256",
          "name": "_tenderId",
          "type": "uint256"
        },
        {
          "internalType": "enum TenderStatus",
          "name": "_tenderStatus",
          "type": "uint8"
        }
      ],
      "name": "updateTenderStatus",
      "outputs": [],
      "stateMutability": "nonpayable",
      "type": "function"
    },
    {
      "inputs": [
        {
          "internalType": "address",
          "name": "_partyAddress",
          "type": "address"
        },
        {
          "internalType": "uint256",
          "name": "_tenderId",
          "type": "uint256"
        },
        {
          "internalType": "uint256",
          "name": "_budget",
          "type": "uint256"
        },
        {
          "internalType": "string",
          "name": "_title",
          "type": "string"
        },
        {
          "internalType": "string",
          "name": "_description",
          "type": "string"
        },
        {
          "internalType": "uint256",
          "name": "_deadline",
          "type": "uint256"
        },
        {
          "internalType": "uint256",
          "name": "_totalMilestones",
          "type": "uint256"
        }
      ],
      "name": "updateTender",
      "outputs": [],
      "stateMutability": "nonpayable",
      "type": "function"
    },
    {
      "inputs": [
        {
          "internalType": "address",
          "name": "_partyAddress",
          "type": "address"
        },
        {
          "internalType": "uint256",
          "name": "_tenderId",
          "type": "uint256"
        }
      ],
      "name": "deleteTender",
      "outputs": [],
      "stateMutability": "nonpayable",
      "type": "function"
    }
  ],
  "bytecode": "0x6080604052600060045534801561001557600080fd5b5061589b80620000266000396000f3fe608060405234801561001057600080fd5b50600436106101ce5760003560e01c80635e09eea111610104578063b2a88f6f116100a2578063ef8c039111610071578063ef8c0391146105af578063f1d8ef4d146105cb578063f851a440146105e7578063feec475814610605576101ce565b8063b2a88f6f14610517578063bac2e80d14610533578063c792d8fd1461054f578063ccfa858e1461057f576101ce565b80637e4d2d97116100de5780637e4d2d971461047f57806382862275146104af57806397ef4e3e146104df578063aaaf4188146104fb576101ce565b80635e09eea114610417578063791778c1146104475780637a0c7d3914610463576101ce565b806342222a431161017157806353ee895d1161014b57806353ee895d1461038f57806355e8dea2146103bf578063564abc25146103db5780635850b383146103f9576101ce565b806342222a43146102ef578063465e1def1461031f5780634f23520714610358576101ce565b806329c350f1116101ad57806329c350f1146102545780632e4ea4c414610270578063354133f7146102a05780633d818b31146102d0576101ce565b8062da7228146101d3578063171fd84814610208578063228becb614610224575b600080fd5b6101ed60048036038101906101e89190613d18565b610621565b6040516101ff96959493929190613dfd565b60405180910390f35b610222600480360381019061021d9190613faf565b610b5a565b005b61023e60048036038101906102399190613d18565b610e47565b60405161024b91906145b4565b60405180910390f35b61026e60048036038101906102699190614602565b6113ea565b005b61028a60048036038101906102859190614602565b611496565b604051610297919061462f565b60405180910390f35b6102ba60048036038101906102b59190614602565b6114b6565b6040516102c79190614659565b60405180910390f35b6102d86114e3565b6040516102e6929190614674565b60405180910390f35b61030960048036038101906103049190614602565b6119fa565b6040516103169190614713565b60405180910390f35b61033960048036038101906103349190614602565b611a68565b60405161034f9a99989796959493929190614735565b60405180910390f35b610372600480360381019061036d9190613d18565b611bf9565b6040516103869897969594939291906147df565b60405180910390f35b6103a960048036038101906103a49190614602565b611e81565b6040516103b691906149ca565b60405180910390f35b6103d960048036038101906103d491906149ec565b6122b4565b005b6103e36126b3565b6040516103f09190614a9b565b60405180910390f35b610401612923565b60405161040e919061462f565b60405180910390f35b610431600480360381019061042c9190613d18565b61292d565b60405161043e919061462f565b60405180910390f35b610461600480360381019061045c9190614abd565b612978565b005b61047d60048036038101906104789190614afd565b612a63565b005b61049960048036038101906104949190614602565b612c11565b6040516104a69190614b88565b60405180910390f35b6104c960048036038101906104c49190614602565b612c51565b6040516104d6919061462f565b60405180910390f35b6104f960048036038101906104f49190614bcf565b612c71565b005b61051560048036038101906105109190614c34565b612dc3565b005b610531600480360381019061052c9190614c74565b612e0b565b005b61054d60048036038101906105489190614d39565b61329a565b005b61056960048036038101906105649190614602565b61355e565b6040516105769190614b88565b60405180910390f35b61059960048036038101906105949190614edb565b61359d565b6040516105a69190614f33565b60405180910390f35b6105c960048036038101906105c49190613d18565b613610565b005b6105e560048036038101906105e09190614abd565b6139c0565b005b6105ef613a01565b6040516105fc9190614b88565b60405180910390f35b61061f600480360381019061061a91906149ec565b613a27565b005b60608060606000806060868073ffffffffffffffffffffffffffffffffffffffff163373ffffffffffffffffffffffffffffffffffffffff161461069a576040517f08c379a000000000000000000000000000000000000000000000000000000000815260040161069190614f9a565b60405180910390fd5b87600073ffffffffffffffffffffffffffffffffffffffff166000808373ffffffffffffffffffffffffffffffffffffffff1673ffffffffffffffffffffffffffffffffffffffff16815260200190815260200160002060060160009054906101000a900473ffffffffffffffffffffffffffffffffffffffff1673ffffffffffffffffffffffffffffffffffffffff160361076b576040517f08c379a000000000000000000000000000000000000000000000000000000000815260040161076290615006565b60405180910390fd5b6000808a73ffffffffffffffffffffffffffffffffffffffff1673ffffffffffffffffffffffffffffffffffffffff1681526020019081526020016000206000016000808b73ffffffffffffffffffffffffffffffffffffffff1673ffffffffffffffffffffffffffffffffffffffff1681526020019081526020016000206001016000808c73ffffffffffffffffffffffffffffffffffffffff1673ffffffffffffffffffffffffffffffffffffffff1681526020019081526020016000206002016000808d73ffffffffffffffffffffffffffffffffffffffff1673ffffffffffffffffffffffffffffffffffffffff16815260200190815260200160002060060160009054906101000a900473ffffffffffffffffffffffffffffffffffffffff166000808e73ffffffffffffffffffffffffffffffffffffffff1673ffffffffffffffffffffffffffffffffffffffff168152602001908152602001600020600401546000808f73ffffffffffffffffffffffffffffffffffffffff1673ffffffffffffffffffffffffffffffffffffffff16815260200190815260200160002060030185805461091f90615055565b80601f016020809104026020016040519081016040528092919081815260200182805461094b90615055565b80156109985780601f1061096d57610100808354040283529160200191610998565b820191906000526020600020905b81548152906001019060200180831161097b57829003601f168201915b505050505095508480546109ab90615055565b80601f01602080910402602001604051908101604052809291908181526020018280546109d790615055565b8015610a245780601f106109f957610100808354040283529160200191610a24565b820191906000526020600020905b815481529060010190602001808311610a0757829003601f168201915b50505050509450838054610a3790615055565b80601f0160208091040260200160405190810160405280929190818152602001828054610a6390615055565b8015610ab05780601f10610a8557610100808354040283529160200191610ab0565b820191906000526020600020905b815481529060010190602001808311610a9357829003601f168201915b50505050509350808054610ac390615055565b80601f0160208091040260200160405190810160405280929190818152602001828054610aef90615055565b8015610b3c5780601f10610b1157610100808354040283529160200191610b3c565b820191906000526020600020905b815481529060010190602001808311610b1f57829003601f168201915b50505050509050975097509750975097509750505091939550919395565b808073ffffffffffffffffffffffffffffffffffffffff163373ffffffffffffffffffffffffffffffffffffffff1614610bc9576040517f08c379a0000000000000000000000000000000000000000000000000000000008152600401610bc090614f9a565b60405180910390fd5b600073ffffffffffffffffffffffffffffffffffffffff166000808473ffffffffffffffffffffffffffffffffffffffff1673ffffffffffffffffffffffffffffffffffffffff16815260200190815260200160002060060160009054906101000a900473ffffffffffffffffffffffffffffffffffffffff1673ffffffffffffffffffffffffffffffffffffffff1614610c99576040517f08c379a0000000000000000000000000000000000000000000000000000000008152600401610c90906150d2565b60405180910390fd5b60008060008473ffffffffffffffffffffffffffffffffffffffff1673ffffffffffffffffffffffffffffffffffffffff168152602001908152602001600020905086816000019081610cec919061529e565b5085816001019081610cfe919061529e565b5084816002019081610d10919061529e565b5083816003019081610d22919061529e565b5060008160040181905550428160050181905550828160060160006101000a81548173ffffffffffffffffffffffffffffffffffffffff021916908373ffffffffffffffffffffffffffffffffffffffff160217905550600067ffffffffffffffff811115610d9457610d93613e84565b5b604051908082528060200260200182016040528015610dc25781602001602082028036833780820191505090505b50816007019080519060200190610dda929190613a71565b506001839080600181540180825580915050600190039060005260206000200160009091909190916101000a81548173ffffffffffffffffffffffffffffffffffffffff021916908373ffffffffffffffffffffffffffffffffffffffff16021790555050505050505050565b606060008060008473ffffffffffffffffffffffffffffffffffffffff1673ffffffffffffffffffffffffffffffffffffffff1681526020019081526020016000206007018054905011610ed0576040517f08c379a0000000000000000000000000000000000000000000000000000000008152600401610ec7906153bc565b60405180910390fd5b60008060008473ffffffffffffffffffffffffffffffffffffffff1673ffffffffffffffffffffffffffffffffffffffff168152602001908152602001600020600701805480602002602001604051908101604052809291908181526020018280548015610f5d57602002820191906000526020600020905b815481526020019060010190808311610f49575b505050505090506000815167ffffffffffffffff811115610f8157610f80613e84565b5b604051908082528060200260200182016040528015610fba57816020015b610fa7613abe565b815260200190600190039081610f9f5790505b50905060005b82518110156113df5760036000848381518110610fe057610fdf6153dc565b5b60200260200101518152602001908152602001600020604051806101c001604052908160008201805461101290615055565b80601f016020809104026020016040519081016040528092919081815260200182805461103e90615055565b801561108b5780601f106110605761010080835404028352916020019161108b565b820191906000526020600020905b81548152906001019060200180831161106e57829003601f168201915b505050505081526020016001820180546110a490615055565b80601f01602080910402602001604051908101604052809291908181526020018280546110d090615055565b801561111d5780601f106110f25761010080835404028352916020019161111d565b820191906000526020600020905b81548152906001019060200180831161110057829003601f168201915b50505050508152602001600282015481526020016003820160009054906101000a900473ffffffffffffffffffffffffffffffffffffffff1673ffffffffffffffffffffffffffffffffffffffff1673ffffffffffffffffffffffffffffffffffffffff1681526020016003820160149054906101000a900460ff1660048111156111ab576111aa61412e565b5b60048111156111bd576111bc61412e565b5b8152602001600482015481526020016005820154815260200160068201548152602001600782015481526020016008820180548060200260200160405190810160405280929190818152602001828054801561126e57602002820191906000526020600020905b8160009054906101000a900473ffffffffffffffffffffffffffffffffffffffff1673ffffffffffffffffffffffffffffffffffffffff1681526020019060010190808311611224575b50505050508152602001600982018054806020026020016040519081016040528092919081815260200182805480156112eb57602002820191906000526020600020906000905b82829054906101000a900460ff161515815260200190600101906020826000010492830192600103820291508084116112b55790505b50505050508152602001600a820180548060200260200160405190810160405280929190818152602001828054801561134357602002820191906000526020600020905b81548152602001906001019080831161132f575b50505050508152602001600b820180548060200260200160405190810160405280929190818152602001828054801561139b57602002820191906000526020600020905b815481526020019060010190808311611387575b50505050508152602001600c820154815250508282815181106113c1576113c06153dc565b5b602002602001018190525080806113d79061543a565b915050610fc0565b508092505050919050565b60006003600083815260200190815260200160002090506114818160090180548060200260200160405190810160405280929190818152602001828054801561147757602002820191906000526020600020906000905b82829054906101000a900460ff161515815260200190600101906020826000010492830192600103820291508084116114415790505b505050505061359d565b1561149257611491826001612dc3565b5b5050565b600060036000838152602001908152602001600020600201549050919050565b60006003600083815260200190815260200160002060030160149054906101000a900460ff169050919050565b60606000806004541161152b576040517f08c379a0000000000000000000000000000000000000000000000000000000008152600401611522906153bc565b60405180910390fd5b60008060045467ffffffffffffffff81111561154a57611549613e84565b5b60405190808252806020026020018201604052801561158357816020015b611570613abe565b8152602001906001900390816115685790505b50905060005b6004548110156119ed57600160048111156115a7576115a661412e565b5b6003600083815260200190815260200160002060030160149054906101000a900460ff1660048111156115dd576115dc61412e565b5b036119da5760036000828152602001908152602001600020604051806101c001604052908160008201805461161190615055565b80601f016020809104026020016040519081016040528092919081815260200182805461163d90615055565b801561168a5780601f1061165f5761010080835404028352916020019161168a565b820191906000526020600020905b81548152906001019060200180831161166d57829003601f168201915b505050505081526020016001820180546116a390615055565b80601f01602080910402602001604051908101604052809291908181526020018280546116cf90615055565b801561171c5780601f106116f15761010080835404028352916020019161171c565b820191906000526020600020905b8154815290600101906020018083116116ff57829003601f168201915b50505050508152602001600282015481526020016003820160009054906101000a900473ffffffffffffffffffffffffffffffffffffffff1673ffffffffffffffffffffffffffffffffffffffff1673ffffffffffffffffffffffffffffffffffffffff1681526020016003820160149054906101000a900460ff1660048111156117aa576117a961412e565b5b60048111156117bc576117bb61412e565b5b8152602001600482015481526020016005820154815260200160068201548152602001600782015481526020016008820180548060200260200160405190810160405280929190818152602001828054801561186d57602002820191906000526020600020905b8160009054906101000a900473ffffffffffffffffffffffffffffffffffffffff1673ffffffffffffffffffffffffffffffffffffffff1681526020019060010190808311611823575b50505050508152602001600982018054806020026020016040519081016040528092919081815260200182805480156118ea57602002820191906000526020600020906000905b82829054906101000a900460ff161515815260200190600101906020826000010492830192600103820291508084116118b45790505b50505050508152602001600a820180548060200260200160405190810160405280929190818152602001828054801561194257602002820191906000526020600020905b81548152602001906001019080831161192e575b50505050508152602001600b820180548060200260200160405190810160405280929190818152602001828054801561199a57602002820191906000526020600020905b815481526020019060010190808311611986575b50505050508152602001600c820154815250508282815181106119c0576119bf6153dc565b5b602002602001018190525082806119d69061543a565b9350505b80806119e59061543a565b915050611589565b5080829350935050509091565b606060036000838152602001908152602001600020600b01805480602002602001604051908101604052809291908181526020018280548015611a5c57602002820191906000526020600020905b815481526020019060010190808311611a48575b50505050509050919050565b6003602052806000526040600020600091509050806000018054611a8b90615055565b80601f0160208091040260200160405190810160405280929190818152602001828054611ab790615055565b8015611b045780601f10611ad957610100808354040283529160200191611b04565b820191906000526020600020905b815481529060010190602001808311611ae757829003601f168201915b505050505090806001018054611b1990615055565b80601f0160208091040260200160405190810160405280929190818152602001828054611b4590615055565b8015611b925780601f10611b6757610100808354040283529160200191611b92565b820191906000526020600020905b815481529060010190602001808311611b7557829003601f168201915b5050505050908060020154908060030160009054906101000a900473ffffffffffffffffffffffffffffffffffffffff16908060030160149054906101000a900460ff169080600401549080600501549080600601549080600701549080600c015490508a565b6000602052806000526040600020600091509050806000018054611c1c90615055565b80601f0160208091040260200160405190810160405280929190818152602001828054611c4890615055565b8015611c955780601f10611c6a57610100808354040283529160200191611c95565b820191906000526020600020905b815481529060010190602001808311611c7857829003601f168201915b505050505090806001018054611caa90615055565b80601f0160208091040260200160405190810160405280929190818152602001828054611cd690615055565b8015611d235780601f10611cf857610100808354040283529160200191611d23565b820191906000526020600020905b815481529060010190602001808311611d0657829003601f168201915b505050505090806002018054611d3890615055565b80601f0160208091040260200160405190810160405280929190818152602001828054611d6490615055565b8015611db15780601f10611d8657610100808354040283529160200191611db1565b820191906000526020600020905b815481529060010190602001808311611d9457829003601f168201915b505050505090806003018054611dc690615055565b80601f0160208091040260200160405190810160405280929190818152602001828054611df290615055565b8015611e3f5780601f10611e1457610100808354040283529160200191611e3f565b820191906000526020600020905b815481529060010190602001808311611e2257829003601f168201915b5050505050908060040154908060050154908060060160009054906101000a900473ffffffffffffffffffffffffffffffffffffffff16908060080154905088565b611e89613abe565b6000600360008481526020019081526020016000206002015411611ee2576040517f08c379a0000000000000000000000000000000000000000000000000000000008152600401611ed9906154f4565b60405180910390fd5b60036000838152602001908152602001600020604051806101c0016040529081600082018054611f1190615055565b80601f0160208091040260200160405190810160405280929190818152602001828054611f3d90615055565b8015611f8a5780601f10611f5f57610100808354040283529160200191611f8a565b820191906000526020600020905b815481529060010190602001808311611f6d57829003601f168201915b50505050508152602001600182018054611fa390615055565b80601f0160208091040260200160405190810160405280929190818152602001828054611fcf90615055565b801561201c5780601f10611ff15761010080835404028352916020019161201c565b820191906000526020600020905b815481529060010190602001808311611fff57829003601f168201915b50505050508152602001600282015481526020016003820160009054906101000a900473ffffffffffffffffffffffffffffffffffffffff1673ffffffffffffffffffffffffffffffffffffffff1673ffffffffffffffffffffffffffffffffffffffff1681526020016003820160149054906101000a900460ff1660048111156120aa576120a961412e565b5b60048111156120bc576120bb61412e565b5b8152602001600482015481526020016005820154815260200160068201548152602001600782015481526020016008820180548060200260200160405190810160405280929190818152602001828054801561216d57602002820191906000526020600020905b8160009054906101000a900473ffffffffffffffffffffffffffffffffffffffff1673ffffffffffffffffffffffffffffffffffffffff1681526020019060010190808311612123575b50505050508152602001600982018054806020026020016040519081016040528092919081815260200182805480156121ea57602002820191906000526020600020906000905b82829054906101000a900460ff161515815260200190600101906020826000010492830192600103820291508084116121b45790505b50505050508152602001600a820180548060200260200160405190810160405280929190818152602001828054801561224257602002820191906000526020600020905b81548152602001906001019080831161222e575b50505050508152602001600b820180548060200260200160405190810160405280929190818152602001828054801561229a57602002820191906000526020600020905b815481526020019060010190808311612286575b50505050508152602001600c820154815250509050919050565b81818173ffffffffffffffffffffffffffffffffffffffff166003600083815260200190815260200160002060030160009054906101000a900473ffffffffffffffffffffffffffffffffffffffff1673ffffffffffffffffffffffffffffffffffffffff161461235a576040517f08c379a000000000000000000000000000000000000000000000000000000000815260040161235190615586565b60405180910390fd5b60008060008673ffffffffffffffffffffffffffffffffffffffff1673ffffffffffffffffffffffffffffffffffffffff16815260200190815260200160002060070180549050116123e1576040517f08c379a00000000000000000000000000000000000000000000000000000000081526004016123d8906153bc565b60405180910390fd5b600060036000858152602001908152602001600020600201541161243a576040517f08c379a0000000000000000000000000000000000000000000000000000000008152600401612431906154f4565b60405180910390fd5b6000600481111561244e5761244d61412e565b5b6003600085815260200190815260200160002060030160149054906101000a900460ff1660048111156124845761248361412e565b5b036124c4576040517f08c379a00000000000000000000000000000000000000000000000000000000081526004016124bb906155f2565b60405180910390fd5b60008060008673ffffffffffffffffffffffffffffffffffffffff1673ffffffffffffffffffffffffffffffffffffffff168152602001908152602001600020600701905060005b81805490508110156126ab578482828154811061252c5761252b6153dc565b5b9060005260206000200154036126985760036000868152602001908152602001600020600080820160006125609190613b55565b6001820160006125709190613b55565b60028201600090556003820160006101000a81549073ffffffffffffffffffffffffffffffffffffffff02191690556003820160146101000a81549060ff021916905560048201600090556005820160009055600682016000905560078201600090556008820160006125e39190613b95565b6009820160006125f39190613bb6565b600a820160006126039190613bde565b600b820160006126139190613bde565b600c8201600090555050816001838054905061262f9190615612565b815481106126405761263f6153dc565b5b906000526020600020015482828154811061265e5761265d6153dc565b5b90600052602060002001819055508180548061267d5761267c615646565b5b600190038181906000526020600020016000905590556126ab565b80806126a39061543a565b91505061250c565b505050505050565b60606000600180548060200260200160405190810160405280929190818152602001828054801561273957602002820191906000526020600020905b8160009054906101000a900473ffffffffffffffffffffffffffffffffffffffff1673ffffffffffffffffffffffffffffffffffffffff16815260200190600101908083116126ef575b505050505090506000600190505b60018054905081101561291b5760005b8181101561290757600080848381518110612775576127746153dc565b5b602002602001015173ffffffffffffffffffffffffffffffffffffffff1673ffffffffffffffffffffffffffffffffffffffff168152602001908152602001600020600401546000808585815181106127d1576127d06153dc565b5b602002602001015173ffffffffffffffffffffffffffffffffffffffff1673ffffffffffffffffffffffffffffffffffffffff1681526020019081526020016000206004015410156128f4576000838381518110612832576128316153dc565b5b6020026020010151905083828151811061284f5761284e6153dc565b5b602002602001015184848151811061286a576128696153dc565b5b602002602001019073ffffffffffffffffffffffffffffffffffffffff16908173ffffffffffffffffffffffffffffffffffffffff1681525050808483815181106128b8576128b76153dc565b5b602002602001019073ffffffffffffffffffffffffffffffffffffffff16908173ffffffffffffffffffffffffffffffffffffffff1681525050505b80806128ff9061543a565b915050612757565b5080806129139061543a565b915050612747565b508091505090565b6000600454905090565b60008060008373ffffffffffffffffffffffffffffffffffffffff1673ffffffffffffffffffffffffffffffffffffffff168152602001908152602001600020600401549050919050565b600060036000848152602001908152602001600020600b01905060005b8180549050811015612a5d57828282815481106129b5576129b46153dc565b5b906000526020600020015403612a4a5781600183805490506129d79190615612565b815481106129e8576129e76153dc565b5b9060005260206000200154828281548110612a0657612a056153dc565b5b90600052602060002001819055508160018380549050612a269190615612565b81548110612a3757612a366153dc565b5b9060005260206000200160009055612a5d565b8080612a559061543a565b915050612995565b50505050565b808073ffffffffffffffffffffffffffffffffffffffff163373ffffffffffffffffffffffffffffffffffffffff1614612ad2576040517f08c379a0000000000000000000000000000000000000000000000000000000008152600401612ac990614f9a565b60405180910390fd5b81600073ffffffffffffffffffffffffffffffffffffffff166000808373ffffffffffffffffffffffffffffffffffffffff1673ffffffffffffffffffffffffffffffffffffffff16815260200190815260200160002060060160009054906101000a900473ffffffffffffffffffffffffffffffffffffffff1673ffffffffffffffffffffffffffffffffffffffff1603612ba3576040517f08c379a0000000000000000000000000000000000000000000000000000000008152600401612b9a90615006565b60405180910390fd5b60008060008573ffffffffffffffffffffffffffffffffffffffff1673ffffffffffffffffffffffffffffffffffffffff168152602001908152602001600020905085816000019081612bf6919061529e565b5084816003019081612c08919061529e565b50505050505050565b60006003600083815260200190815260200160002060030160009054906101000a900473ffffffffffffffffffffffffffffffffffffffff169050919050565b600060036000838152602001908152602001600020600501549050919050565b60008060036000858152602001908152602001600020905060008160080180549050905060005b81811015612d2f573373ffffffffffffffffffffffffffffffffffffffff16836008018281548110612ccd57612ccc6153dc565b5b9060005260206000200160009054906101000a900473ffffffffffffffffffffffffffffffffffffffff1673ffffffffffffffffffffffffffffffffffffffff1603612d1c5760019350612d2f565b8080612d279061543a565b915050612c98565b508215612d8157816009018490806001815401808255809150506001900390600052602060002090602091828204019190069091909190916101000a81548160ff021916908315150217905550612dbc565b6040517f08c379a0000000000000000000000000000000000000000000000000000000008152600401612db3906156e7565b60405180910390fd5b5050505050565b6000600360008481526020019081526020016000209050818160030160146101000a81548160ff02191690836004811115612e0157612e0061412e565b5b0217905550505050565b858073ffffffffffffffffffffffffffffffffffffffff163373ffffffffffffffffffffffffffffffffffffffff1614612e7a576040517f08c379a0000000000000000000000000000000000000000000000000000000008152600401612e7190614f9a565b60405180910390fd5b600286612e879190615736565b8773ffffffffffffffffffffffffffffffffffffffff16311015612ee0576040517f08c379a0000000000000000000000000000000000000000000000000000000008152600401612ed7906157d9565b60405180910390fd5b6000600360006004548152602001908152602001600020905085816000019081612f0a919061529e565b5084816001019081612f1c919061529e565b5086816002018190555060008160030160146101000a81548160ff02191690836004811115612f4e57612f4d61412e565b5b0217905550428160040181905550838160050181905550878160030160006101000a81548173ffffffffffffffffffffffffffffffffffffffff021916908373ffffffffffffffffffffffffffffffffffffffff16021790555060045481600701819055508281600601819055506000612fc66126b3565b9050600081519050600a8111612ff45781836008019080519060200190612fee929190613bff565b5061320c565b60005b600a81101561320a576000803373ffffffffffffffffffffffffffffffffffffffff1673ffffffffffffffffffffffffffffffffffffffff16815260200190815260200160002060060160009054906101000a900473ffffffffffffffffffffffffffffffffffffffff1673ffffffffffffffffffffffffffffffffffffffff1683600183856130879190615612565b6130919190615612565b815181106130a2576130a16153dc565b5b602002602001015173ffffffffffffffffffffffffffffffffffffffff16146131f7578360080183600183856130d89190615612565b6130e29190615612565b815181106130f3576130f26153dc565b5b60200260200101519080600181540180825580915050600190039060005260206000200160009091909190916101000a81548173ffffffffffffffffffffffffffffffffffffffff021916908373ffffffffffffffffffffffffffffffffffffffff160217905550600080846001848661316d9190615612565b6131779190615612565b81518110613188576131876153dc565b5b602002602001015173ffffffffffffffffffffffffffffffffffffffff1673ffffffffffffffffffffffffffffffffffffffff16815260200190815260200160002060090160045490806001815401808255809150506001900390600052602060002001600090919091909150555b80806132029061543a565b915050612ff7565b505b6000808b73ffffffffffffffffffffffffffffffffffffffff1673ffffffffffffffffffffffffffffffffffffffff1681526020019081526020016000206007016004549080600181540180825580915050600190039060005260206000200160009091909190915055600460008154809291906132899061543a565b919050555050505050505050505050565b86868173ffffffffffffffffffffffffffffffffffffffff166003600083815260200190815260200160002060030160009054906101000a900473ffffffffffffffffffffffffffffffffffffffff1673ffffffffffffffffffffffffffffffffffffffff1614613340576040517f08c379a000000000000000000000000000000000000000000000000000000000815260040161333790615586565b60405180910390fd5b60008060008b73ffffffffffffffffffffffffffffffffffffffff1673ffffffffffffffffffffffffffffffffffffffff16815260200190815260200160002060070180549050116133c7576040517f08c379a00000000000000000000000000000000000000000000000000000000081526004016133be906153bc565b60405180910390fd5b6000600360008a81526020019081526020016000206002015411613420576040517f08c379a0000000000000000000000000000000000000000000000000000000008152600401613417906154f4565b60405180910390fd5b600060048111156134345761343361412e565b5b600360008a815260200190815260200160002060030160149054906101000a900460ff16600481111561346a5761346961412e565b5b14806134bd5750600360048111156134855761348461412e565b5b600360008a815260200190815260200160002060030160149054906101000a900460ff1660048111156134bb576134ba61412e565b5b145b6134fc576040517f08c379a00000000000000000000000000000000000000000000000000000000081526004016134f390615845565b60405180910390fd5b6000600360008a815260200190815260200160002090508781600201819055508681600001908161352d919061529e565b508581600101908161353f919061529e565b5084816005018190555083816006018190555050505050505050505050565b6001818154811061356e57600080fd5b906000526020600020016000915054906101000a900473ffffffffffffffffffffffffffffffffffffffff1681565b6000806000905060005b83518110156135f2578381815181106135c3576135c26153dc565b5b6020026020010151156135df5781806135db9061543a565b9250505b80806135ea9061543a565b9150506135a7565b506006811061360557600191505061360b565b60009150505b919050565b808073ffffffffffffffffffffffffffffffffffffffff163373ffffffffffffffffffffffffffffffffffffffff161461367f576040517f08c379a000000000000000000000000000000000000000000000000000000000815260040161367690614f9a565b60405180910390fd5b81600073ffffffffffffffffffffffffffffffffffffffff166000808373ffffffffffffffffffffffffffffffffffffffff1673ffffffffffffffffffffffffffffffffffffffff16815260200190815260200160002060060160009054906101000a900473ffffffffffffffffffffffffffffffffffffffff1673ffffffffffffffffffffffffffffffffffffffff1603613750576040517f08c379a000000000000000000000000000000000000000000000000000000000815260040161374790615006565b60405180910390fd5b6000808473ffffffffffffffffffffffffffffffffffffffff1673ffffffffffffffffffffffffffffffffffffffff1681526020019081526020016000206000808201600061379f9190613b55565b6001820160006137af9190613b55565b6002820160006137bf9190613b55565b6003820160006137cf9190613b55565b600482016000905560058201600090556006820160006101000a81549073ffffffffffffffffffffffffffffffffffffffff02191690556007820160006138169190613bde565b600882016000905560098201600061382e9190613bde565b505060005b6001805490508110156139ba573373ffffffffffffffffffffffffffffffffffffffff166001828154811061386b5761386a6153dc565b5b9060005260206000200160009054906101000a900473ffffffffffffffffffffffffffffffffffffffff1673ffffffffffffffffffffffffffffffffffffffff16036139a75760018080805490506138c39190615612565b815481106138d4576138d36153dc565b5b9060005260206000200160009054906101000a900473ffffffffffffffffffffffffffffffffffffffff1660018281548110613913576139126153dc565b5b9060005260206000200160006101000a81548173ffffffffffffffffffffffffffffffffffffffff021916908373ffffffffffffffffffffffffffffffffffffffff160217905550600180548061396d5761396c615646565b5b6001900381819060005260206000200160006101000a81549073ffffffffffffffffffffffffffffffffffffffff021916905590556139ba565b80806139b29061543a565b915050613833565b50505050565b60036000838152602001908152602001600020600b018190806001815401808255809150506001900390600052602060002001600090919091909150555050565b600260009054906101000a900473ffffffffffffffffffffffffffffffffffffffff1681565b806000808473ffffffffffffffffffffffffffffffffffffffff1673ffffffffffffffffffffffffffffffffffffffff168152602001908152602001600020600401819055505050565b828054828255906000526020600020908101928215613aad579160200282015b82811115613aac578251825591602001919060010190613a91565b5b509050613aba9190613c89565b5090565b604051806101c00160405280606081526020016060815260200160008152602001600073ffffffffffffffffffffffffffffffffffffffff16815260200160006004811115613b1057613b0f61412e565b5b81526020016000815260200160008152602001600081526020016000815260200160608152602001606081526020016060815260200160608152602001600081525090565b508054613b6190615055565b6000825580601f10613b735750613b92565b601f016020900490600052602060002090810190613b919190613c89565b5b50565b5080546000825590600052602060002090810190613bb39190613c89565b50565b50805460008255601f016020900490600052602060002090810190613bdb9190613c89565b50565b5080546000825590600052602060002090810190613bfc9190613c89565b50565b828054828255906000526020600020908101928215613c78579160200282015b82811115613c775782518260006101000a81548173ffffffffffffffffffffffffffffffffffffffff021916908373ffffffffffffffffffffffffffffffffffffffff16021790555091602001919060010190613c1f565b5b509050613c859190613c89565b5090565b5b80821115613ca2576000816000905550600101613c8a565b5090565b6000604051905090565b600080fd5b600080fd5b600073ffffffffffffffffffffffffffffffffffffffff82169050919050565b6000613ce582613cba565b9050919050565b613cf581613cda565b8114613d0057600080fd5b50565b600081359050613d1281613cec565b92915050565b600060208284031215613d2e57613d2d613cb0565b5b6000613d3c84828501613d03565b91505092915050565b600081519050919050565b600082825260208201905092915050565b60005b83811015613d7f578082015181840152602081019050613d64565b60008484015250505050565b6000601f19601f8301169050919050565b6000613da782613d45565b613db18185613d50565b9350613dc1818560208601613d61565b613dca81613d8b565b840191505092915050565b613dde81613cda565b82525050565b6000819050919050565b613df781613de4565b82525050565b600060c0820190508181036000830152613e178189613d9c565b90508181036020830152613e2b8188613d9c565b90508181036040830152613e3f8187613d9c565b9050613e4e6060830186613dd5565b613e5b6080830185613dee565b81810360a0830152613e6d8184613d9c565b9050979650505050505050565b600080fd5b600080fd5b7f4e487b7100000000000000000000000000000000000000000000000000000000600052604160045260246000fd5b613ebc82613d8b565b810181811067ffffffffffffffff82111715613edb57613eda613e84565b5b80604052505050565b6000613eee613ca6565b9050613efa8282613eb3565b919050565b600067ffffffffffffffff821115613f1a57613f19613e84565b5b613f2382613d8b565b9050602081019050919050565b82818337600083830152505050565b6000613f52613f4d84613eff565b613ee4565b905082815260208101848484011115613f6e57613f6d613e7f565b5b613f79848285613f30565b509392505050565b600082601f830112613f9657613f95613e7a565b5b8135613fa6848260208601613f3f565b91505092915050565b600080600080600060a08688031215613fcb57613fca613cb0565b5b600086013567ffffffffffffffff811115613fe957613fe8613cb5565b5b613ff588828901613f81565b955050602086013567ffffffffffffffff81111561401657614015613cb5565b5b61402288828901613f81565b945050604086013567ffffffffffffffff81111561404357614042613cb5565b5b61404f88828901613f81565b935050606086013567ffffffffffffffff8111156140705761406f613cb5565b5b61407c88828901613f81565b925050608061408d88828901613d03565b9150509295509295909350565b600081519050919050565b600082825260208201905092915050565b6000819050602082019050919050565b600082825260208201905092915050565b60006140e282613d45565b6140ec81856140c6565b93506140fc818560208601613d61565b61410581613d8b565b840191505092915050565b61411981613de4565b82525050565b61412881613cda565b82525050565b7f4e487b7100000000000000000000000000000000000000000000000000000000600052602160045260246000fd5b6005811061416e5761416d61412e565b5b50565b600081905061417f8261415d565b919050565b600061418f82614171565b9050919050565b61419f81614184565b82525050565b600081519050919050565b600082825260208201905092915050565b6000819050602082019050919050565b60006141dd838361411f565b60208301905092915050565b6000602082019050919050565b6000614201826141a5565b61420b81856141b0565b9350614216836141c1565b8060005b8381101561424757815161422e88826141d1565b9750614239836141e9565b92505060018101905061421a565b5085935050505092915050565b600081519050919050565b600082825260208201905092915050565b6000819050602082019050919050565b60008115159050919050565b61429581614280565b82525050565b60006142a7838361428c565b60208301905092915050565b6000602082019050919050565b60006142cb82614254565b6142d5818561425f565b93506142e083614270565b8060005b838110156143115781516142f8888261429b565b9750614303836142b3565b9250506001810190506142e4565b5085935050505092915050565b600081519050919050565b600082825260208201905092915050565b6000819050602082019050919050565b60006143568383614110565b60208301905092915050565b6000602082019050919050565b600061437a8261431e565b6143848185614329565b935061438f8361433a565b8060005b838110156143c05781516143a7888261434a565b97506143b283614362565b925050600181019050614393565b5085935050505092915050565b60006101c08301600083015184820360008601526143eb82826140d7565b9150506020830151848203602086015261440582826140d7565b915050604083015161441a6040860182614110565b50606083015161442d606086018261411f565b5060808301516144406080860182614196565b5060a083015161445360a0860182614110565b5060c083015161446660c0860182614110565b5060e083015161447960e0860182614110565b5061010083015161448e610100860182614110565b506101208301518482036101208601526144a882826141f6565b9150506101408301518482036101408601526144c482826142c0565b9150506101608301518482036101608601526144e0828261436f565b9150506101808301518482036101808601526144fc828261436f565b9150506101a08301516145136101a0860182614110565b508091505092915050565b600061452a83836143cd565b905092915050565b6000602082019050919050565b600061454a8261409a565b61455481856140a5565b935083602082028501614566856140b6565b8060005b858110156145a25784840389528151614583858261451e565b945061458e83614532565b925060208a0199505060018101905061456a565b50829750879550505050505092915050565b600060208201905081810360008301526145ce818461453f565b905092915050565b6145df81613de4565b81146145ea57600080fd5b50565b6000813590506145fc816145d6565b92915050565b60006020828403121561461857614617613cb0565b5b6000614626848285016145ed565b91505092915050565b60006020820190506146446000830184613dee565b92915050565b61465381614184565b82525050565b600060208201905061466e600083018461464a565b92915050565b6000604082019050818103600083015261468e818561453f565b905061469d6020830184613dee565b9392505050565b600082825260208201905092915050565b60006146c08261431e565b6146ca81856146a4565b93506146d58361433a565b8060005b838110156147065781516146ed888261434a565b97506146f883614362565b9250506001810190506146d9565b5085935050505092915050565b6000602082019050818103600083015261472d81846146b5565b905092915050565b6000610140820190508181036000830152614750818d613d9c565b90508181036020830152614764818c613d9c565b9050614773604083018b613dee565b614780606083018a613dd5565b61478d608083018961464a565b61479a60a0830188613dee565b6147a760c0830187613dee565b6147b460e0830186613dee565b6147c2610100830185613dee565b6147d0610120830184613dee565b9b9a5050505050505050505050565b60006101008201905081810360008301526147fa818b613d9c565b9050818103602083015261480e818a613d9c565b905081810360408301526148228189613d9c565b905081810360608301526148368188613d9c565b90506148456080830187613dee565b61485260a0830186613dee565b61485f60c0830185613dd5565b61486c60e0830184613dee565b9998505050505050505050565b60006101c083016000830151848203600086015261489782826140d7565b915050602083015184820360208601526148b182826140d7565b91505060408301516148c66040860182614110565b5060608301516148d9606086018261411f565b5060808301516148ec6080860182614196565b5060a08301516148ff60a0860182614110565b5060c083015161491260c0860182614110565b5060e083015161492560e0860182614110565b5061010083015161493a610100860182614110565b5061012083015184820361012086015261495482826141f6565b91505061014083015184820361014086015261497082826142c0565b91505061016083015184820361016086015261498c828261436f565b9150506101808301518482036101808601526149a8828261436f565b9150506101a08301516149bf6101a0860182614110565b508091505092915050565b600060208201905081810360008301526149e48184614879565b905092915050565b60008060408385031215614a0357614a02613cb0565b5b6000614a1185828601613d03565b9250506020614a22858286016145ed565b9150509250929050565b600082825260208201905092915050565b6000614a48826141a5565b614a528185614a2c565b9350614a5d836141c1565b8060005b83811015614a8e578151614a7588826141d1565b9750614a80836141e9565b925050600181019050614a61565b5085935050505092915050565b60006020820190508181036000830152614ab58184614a3d565b905092915050565b60008060408385031215614ad457614ad3613cb0565b5b6000614ae2858286016145ed565b9250506020614af3858286016145ed565b9150509250929050565b600080600060608486031215614b1657614b15613cb0565b5b600084013567ffffffffffffffff811115614b3457614b33613cb5565b5b614b4086828701613f81565b935050602084013567ffffffffffffffff811115614b6157614b60613cb5565b5b614b6d86828701613f81565b9250506040614b7e86828701613d03565b9150509250925092565b6000602082019050614b9d6000830184613dd5565b92915050565b614bac81614280565b8114614bb757600080fd5b50565b600081359050614bc981614ba3565b92915050565b60008060408385031215614be657614be5613cb0565b5b6000614bf4858286016145ed565b9250506020614c0585828601614bba565b9150509250929050565b60058110614c1c57600080fd5b50565b600081359050614c2e81614c0f565b92915050565b60008060408385031215614c4b57614c4a613cb0565b5b6000614c59858286016145ed565b9250506020614c6a85828601614c1f565b9150509250929050565b60008060008060008060c08789031215614c9157614c90613cb0565b5b6000614c9f89828a01613d03565b9650506020614cb089828a016145ed565b955050604087013567ffffffffffffffff811115614cd157614cd0613cb5565b5b614cdd89828a01613f81565b945050606087013567ffffffffffffffff811115614cfe57614cfd613cb5565b5b614d0a89828a01613f81565b9350506080614d1b89828a016145ed565b92505060a0614d2c89828a016145ed565b9150509295509295509295565b600080600080600080600060e0888a031215614d5857614d57613cb0565b5b6000614d668a828b01613d03565b9750506020614d778a828b016145ed565b9650506040614d888a828b016145ed565b955050606088013567ffffffffffffffff811115614da957614da8613cb5565b5b614db58a828b01613f81565b945050608088013567ffffffffffffffff811115614dd657614dd5613cb5565b5b614de28a828b01613f81565b93505060a0614df38a828b016145ed565b92505060c0614e048a828b016145ed565b91505092959891949750929550565b600067ffffffffffffffff821115614e2e57614e2d613e84565b5b602082029050602081019050919050565b600080fd5b6000614e57614e5284614e13565b613ee4565b90508083825260208201905060208402830185811115614e7a57614e79614e3f565b5b835b81811015614ea35780614e8f8882614bba565b845260208401935050602081019050614e7c565b5050509392505050565b600082601f830112614ec257614ec1613e7a565b5b8135614ed2848260208601614e44565b91505092915050565b600060208284031215614ef157614ef0613cb0565b5b600082013567ffffffffffffffff811115614f0f57614f0e613cb5565b5b614f1b84828501614ead565b91505092915050565b614f2d81614280565b82525050565b6000602082019050614f486000830184614f24565b92915050565b7f43616c6c6572206973206e6f74206f776e657200000000000000000000000000600082015250565b6000614f84601383613d50565b9150614f8f82614f4e565b602082019050919050565b60006020820190508181036000830152614fb381614f77565b9050919050565b7f506172747920646f6573206e6f74206578697374000000000000000000000000600082015250565b6000614ff0601483613d50565b9150614ffb82614fba565b602082019050919050565b6000602082019050818103600083015261501f81614fe3565b9050919050565b7f4e487b7100000000000000000000000000000000000000000000000000000000600052602260045260246000fd5b6000600282049050600182168061506d57607f821691505b6020821081036150805761507f615026565b5b50919050565b7f506172747920616c726561647920657869737473000000000000000000000000600082015250565b60006150bc601483613d50565b91506150c782615086565b602082019050919050565b600060208201905081810360008301526150eb816150af565b9050919050565b60008190508160005260206000209050919050565b60006020601f8301049050919050565b600082821b905092915050565b6000600883026151547fffffffffffffffffffffffffffffffffffffffffffffffffffffffffffffffff82615117565b61515e8683615117565b95508019841693508086168417925050509392505050565b6000819050919050565b600061519b61519661519184613de4565b615176565b613de4565b9050919050565b6000819050919050565b6151b583615180565b6151c96151c1826151a2565b848454615124565b825550505050565b600090565b6151de6151d1565b6151e98184846151ac565b505050565b5b8181101561520d576152026000826151d6565b6001810190506151ef565b5050565b601f82111561525257615223816150f2565b61522c84615107565b8101602085101561523b578190505b61524f61524785615107565b8301826151ee565b50505b505050565b600082821c905092915050565b600061527560001984600802615257565b1980831691505092915050565b600061528e8383615264565b9150826002028217905092915050565b6152a782613d45565b67ffffffffffffffff8111156152c0576152bf613e84565b5b6152ca8254615055565b6152d5828285615211565b600060209050601f83116001811461530857600084156152f6578287015190505b6153008582615282565b865550615368565b601f198416615316866150f2565b60005b8281101561533e57848901518255600182019150602085019450602081019050615319565b8683101561535b5784890151615357601f891682615264565b8355505b6001600288020188555050505b505050505050565b7f4e6f2074656e6465727320657869737473000000000000000000000000000000600082015250565b60006153a6601183613d50565b91506153b182615370565b602082019050919050565b600060208201905081810360008301526153d581615399565b9050919050565b7f4e487b7100000000000000000000000000000000000000000000000000000000600052603260045260246000fd5b7f4e487b7100000000000000000000000000000000000000000000000000000000600052601160045260246000fd5b600061544582613de4565b91507fffffffffffffffffffffffffffffffffffffffffffffffffffffffffffffffff82036154775761547661540b565b5b600182019050919050565b7f74656e6465722077697468206164647265737320646f65736e2774206578697360008201527f7473000000000000000000000000000000000000000000000000000000000000602082015250565b60006154de602283613d50565b91506154e982615482565b604082019050919050565b6000602082019050818103600083015261550d816154d1565b9050919050565b7f796f75277265206e6f7420617574686f72697a656420746f20706572666f726d60008201527f207468697320616374696f6e0000000000000000000000000000000000000000602082015250565b6000615570602c83613d50565b915061557b82615514565b604082019050919050565b6000602082019050818103600083015261559f81615563565b9050919050565b7f74656e6465722063616e6e6f742062652064656c657465640000000000000000600082015250565b60006155dc601883613d50565b91506155e7826155a6565b602082019050919050565b6000602082019050818103600083015261560b816155cf565b9050919050565b600061561d82613de4565b915061562883613de4565b92508282039050818111156156405761563f61540b565b5b92915050565b7f4e487b7100000000000000000000000000000000000000000000000000000000600052603160045260246000fd5b7f596f75277265206e6f7420617574686f72697a656420746f2076616c6964617460008201527f6520746869732074656e6465722e000000000000000000000000000000000000602082015250565b60006156d1602e83613d50565b91506156dc82615675565b604082019050919050565b60006020820190508181036000830152615700816156c4565b9050919050565b7f4e487b7100000000000000000000000000000000000000000000000000000000600052601260045260246000fd5b600061574182613de4565b915061574c83613de4565b92508261575c5761575b615707565b5b828204905092915050565b7f696e73756666696369656e742066756e647320746f206372656174652061207460008201527f656e646572000000000000000000000000000000000000000000000000000000602082015250565b60006157c3602583613d50565b91506157ce82615767565b604082019050919050565b600060208201905081810360008301526157f2816157b6565b9050919050565b7f74656e6465722063616e6e6f7420626520757064617465640000000000000000600082015250565b600061582f601883613d50565b915061583a826157f9565b602082019050919050565b6000602082019050818103600083015261585e81615822565b905091905056fea2646970667358221220e76e9a82ed0b37f379d9c0738113efbbd1a353bdce4252e8009034d801612e6d64736f6c63430008130033",
  "immutableReferences": {},
  "source": "// SPDX-License-Identifier: UNLICENSED\r\n\r\n//the version of solidity that is compatible\r\nimport \"./PartyContract.sol\";\r\nenum TenderStatus{ NEW, OPEN, CLOSED, SUSPENDED, ASSIGNED } //created---OPEN, deadline crosses---CLOSED, project is assigned ---- ASSIGNED\r\n\r\npragma solidity ^0.8.0;\r\ncontract TenderContract is PartyContract {\r\n    // Tender Structure\r\n    struct Tender {\r\n        string title;\r\n        string description;\r\n        uint256 budget;\r\n        address issuerAddress;\r\n        TenderStatus tenderStatus; \r\n        uint256 createdAt;\r\n        uint256 deadline;\r\n        uint256 totalMilestones;\r\n        uint256 tenderId;\r\n        address[] validatorsAddresses;\r\n        bool[] validationVotes;\r\n        uint256[] milestoneTimePeriods;\r\n        uint256[] bidIds;\r\n        uint256 balance;\r\n    }\r\n\r\n    // PartyContract public partyRef;\r\n\r\n    // constructor(PartyContract _partyRef){\r\n    //     partyRef = _partyRef;\r\n    // }\r\n\r\n    mapping (uint256 => Tender) public tenders;\r\n    uint256 tenderCount = 0;\r\n\r\n    //setters and getter functions\r\n    function getTenderCount() public view returns(uint256){\r\n        return tenderCount;\r\n    }\r\n\r\n    function getBudget(uint256 _tenderId) public view returns(uint256){\r\n        return tenders[_tenderId].budget;\r\n    }\r\n\r\n    function getTenderStatus(uint256 _tenderId) public view returns(TenderStatus){\r\n        return tenders[_tenderId].tenderStatus;\r\n    }\r\n\r\n    function getDeadline(uint256 _tenderId) public view returns(uint256){\r\n            return tenders[_tenderId].deadline;\r\n    }\r\n\r\n    function getBidIds(uint256 _tenderId) public view returns(uint256[] memory){\r\n        return tenders[_tenderId].bidIds;\r\n    }\r\n\r\n    function getIssuerAddress(uint256 _tenderId) public view returns(address){\r\n        return tenders[_tenderId].issuerAddress;\r\n    }\r\n\r\n    function addBidId(uint256 _tenderId, uint256 bidId) public {\r\n        tenders[_tenderId].bidIds.push(bidId);\r\n    }\r\n\r\n    function deleteBidId(uint256 _tenderId, uint256 _bidId) public {\r\n        uint256[] storage tenderBidIds = tenders[_tenderId].bidIds;\r\n        for (uint i = 0; i < tenderBidIds.length; i++){\r\n            if(tenderBidIds[i] == _bidId){\r\n                tenderBidIds[i] = tenderBidIds[tenderBidIds.length - 1];\r\n                delete tenderBidIds[tenderBidIds.length - 1];\r\n                break;\r\n            }\r\n        }\r\n    }\r\n\r\n    // modifier isOwner(address owner) {\r\n    //     require(msg.sender == owner, \"Caller is not owner\");\r\n    //     _;\r\n    // }\r\n\r\n    // Function for creating a tender\r\n    function createTender(address _partyAddress, uint256 _budget, string memory _title, string memory _description, uint256 _deadline, uint256 _totalMilestones) isOwner(_partyAddress) public {\r\n        require(_partyAddress.balance >= _budget/2, \"insufficient funds to create a tender\");\r\n        Tender storage newTender = tenders[tenderCount];\r\n        newTender.title = _title;\r\n        newTender.description = _description;\r\n        newTender.budget = _budget;\r\n        newTender.tenderStatus = TenderStatus.NEW;\r\n        newTender.createdAt = block.timestamp;\r\n        newTender.deadline = _deadline;\r\n        newTender.issuerAddress = _partyAddress;\r\n        newTender.tenderId = tenderCount;\r\n        newTender.totalMilestones = _totalMilestones;\r\n        address[] memory sortedlist = sortByTrustScore();\r\n        uint len = sortedlist.length;\r\n        if(len<=10)\r\n        {\r\n            newTender.validatorsAddresses = sortedlist;\r\n        }\r\n        else\r\n        {\r\n            for(uint i=0; i<10; i++)\r\n            {\r\n                if(sortedlist[len-i-1] != parties[msg.sender].partyAddress)\r\n                {\r\n                    newTender.validatorsAddresses.push(sortedlist[len-i-1]);\r\n                    parties[sortedlist[len-i-1]].tenderIdsToValidate.push(tenderCount);\r\n                }\r\n            }\r\n        }\r\n        parties[_partyAddress].tenderIds.push(tenderCount);\r\n        tenderCount++;\r\n    }\r\n\r\n    function sortByTrustScore() public view returns(address[] memory) {\r\n    address[] memory _party = partyAddresses;\r\n    for (uint i = 1; i < partyAddresses.length; i++)\r\n        for (uint j = 0; j < i; j++)\r\n            if (parties[_party[i]].trustScore < parties[_party[j]].trustScore) {\r\n                address x = _party[i];\r\n                _party[i] = _party[j];\r\n                _party[j] = x;\r\n            }\r\n\r\n    return _party;\r\n    }\r\n\r\n    function validate(uint256 _tenderId, bool _vote) public {\r\n        bool valid = false;\r\n        Tender storage newTender = tenders[_tenderId];\r\n        uint len = newTender.validatorsAddresses.length;\r\n        for(uint i=0; i<len; i++)\r\n        {\r\n            if(newTender.validatorsAddresses[i] == msg.sender)\r\n            {\r\n                valid = true;\r\n                break;\r\n            }\r\n        }\r\n        if(valid)\r\n        {\r\n            newTender.validationVotes.push(_vote);\r\n            if(_vote) {\r\n                //deduct token from party account and add it to tender account\r\n            }\r\n        }\r\n        else\r\n        {\r\n            revert(\"You're not authorized to validate this tender.\");\r\n        }\r\n    }\r\n\r\n    function checkTenderValidation(uint256 _tenderId) public {\r\n        Tender storage newTender = tenders[_tenderId];\r\n        if(isValid(newTender.validationVotes)) {\r\n            updateTenderStatus(_tenderId, TenderStatus.OPEN);\r\n        }\r\n    }\r\n    \r\n    function isValid(bool[] memory _validationVotes) public pure returns (bool) {\r\n        uint voteCount = 0;\r\n        for(uint i=0; i<_validationVotes.length; i++)\r\n        {\r\n            if(_validationVotes[i])\r\n            {\r\n                voteCount++;\r\n            }\r\n        }\r\n\r\n        if(voteCount>=6)\r\n        {\r\n            return true;\r\n        }\r\n        return false;\r\n    }\r\n\r\n    function getAllActiveTenders() public view returns (Tender[] memory, uint256){\r\n        require(tenderCount > 0, \"No tenders exists\");\r\n        uint256 count=0;\r\n        Tender[] memory tendersList = new Tender[](tenderCount);\r\n        for (uint256 i = 0; i < tenderCount; i++) {\r\n            if(tenders[i].tenderStatus == TenderStatus.OPEN){\r\n                 tendersList[i] = tenders[i];\r\n                 count++;\r\n            }\r\n        }\r\n        return(tendersList, count);\r\n    }\r\n\r\n    function getMyTenders(address _partyAddress) public view returns ( Tender[] memory){\r\n        require(parties[_partyAddress].tenderIds.length > 0, \"No tenders exists\");\r\n        uint256[] memory partyTenderIds = parties[_partyAddress].tenderIds;\r\n        Tender[] memory tendersList = new Tender[](partyTenderIds.length);\r\n        for (uint256 i = 0; i < partyTenderIds.length; i++) {\r\n            tendersList[i] = tenders[partyTenderIds[i]];\r\n        }\r\n        return(tendersList);\r\n    }\r\n\r\n    function getTenderDetails(uint256 _tenderId) public view returns ( Tender memory){\r\n        require(tenders[_tenderId].budget > 0 , \"tender with address doesn't exists\");\r\n        return(tenders[_tenderId]);\r\n    }\r\n\r\n    function updateTenderStatus(uint256 _tenderId, TenderStatus _tenderStatus) public {\r\n        Tender storage updatedTender = tenders[_tenderId];\r\n        updatedTender.tenderStatus = _tenderStatus;\r\n    }\r\n\r\n    function updateTender(address _partyAddress, uint256 _tenderId, uint256 _budget, string memory _title, string memory _description, uint256 _deadline, uint256 _totalMilestones) public isTenderOwner(_partyAddress, _tenderId){\r\n        require(parties[_partyAddress].tenderIds.length > 0, \"No tenders exists\");\r\n        require(tenders[_tenderId].budget > 0 , \"tender with address doesn't exists\");\r\n        require(tenders[_tenderId].tenderStatus == TenderStatus.NEW ||\r\n                tenders[_tenderId].tenderStatus == TenderStatus.SUSPENDED , \"tender cannot be updated\");\r\n        Tender storage updatedTender = tenders[_tenderId];\r\n        updatedTender.budget = _budget;\r\n        updatedTender.title = _title;\r\n        updatedTender.description = _description;\r\n        updatedTender.deadline = _deadline;\r\n        updatedTender.totalMilestones = _totalMilestones;\r\n    }\r\n\r\n    function deleteTender(address _partyAddress, uint256 _tenderId) public isTenderOwner(_partyAddress, _tenderId){ \r\n        require(parties[_partyAddress].tenderIds.length > 0, \"No tenders exists\");\r\n        require(tenders[_tenderId].budget > 0 , \"tender with address doesn't exists\");\r\n        require(tenders[_tenderId].tenderStatus != TenderStatus.NEW, \"tender cannot be deleted\");\r\n        uint256[] storage _tenderIds = parties[_partyAddress].tenderIds;\r\n        for (uint i = 0; i < _tenderIds.length; i++){\r\n            if(_tenderIds[i] == _tenderId){\r\n                delete tenders[_tenderId];\r\n                _tenderIds[i] = _tenderIds[_tenderIds.length - 1];\r\n                _tenderIds.pop();\r\n                break;\r\n            }\r\n        }\r\n    }\r\n\r\n    // @todo - add modifer for above functions\r\n\r\n    modifier isTenderOwner(address _partyAddress, uint256 _tenderId) {\r\n        require(tenders[_tenderId].issuerAddress == _partyAddress, \"you're not authorized to perform this action\");\r\n        _;\r\n    }\r\n\r\n    \r\n}\r\n",
  "sourcePath": "C:\\Users\\sabba\\OneDrive\\Documents\\BlockchainProject\\blockchain-based-contracting-system\\contracts\\TenderContract.sol",
  "compiler": {
    "name": "solc",
    "version": "0.8.19+commit.7dd6d404.Emscripten.clang"
  },
  "schemaVersion": "3.4.13",
  "updatedAt": "2023-04-14T21:53:50.143Z",
  "networkType": "ethereum",
  "devdoc": {
    "kind": "dev",
    "methods": {},
    "version": 1
  },
  "userdoc": {
    "kind": "user",
    "methods": {},
    "version": 1
  }
}