{
  "contractName": "TenderContract",
  "abi": [
    {
      "inputs": [
        {
          "internalType": "contract Token",
          "name": "_tokenRef",
          "type": "address"
        }
      ],
      "stateMutability": "nonpayable",
      "type": "constructor"
    },
    {
      "inputs": [],
      "name": "admin",
      "outputs": [
        {
          "internalType": "address",
          "name": "",
          "type": "address"
        }
      ],
      "stateMutability": "view",
      "type": "function",
      "constant": true
    },
    {
      "inputs": [
        {
          "internalType": "string",
          "name": "_name",
          "type": "string"
        },
        {
          "internalType": "string",
          "name": "_contactNumber",
          "type": "string"
        },
        {
          "internalType": "string",
          "name": "_email",
          "type": "string"
        },
        {
          "internalType": "string",
          "name": "_password",
          "type": "string"
        },
        {
          "internalType": "address",
          "name": "_partyAddress",
          "type": "address"
        }
      ],
      "name": "createParty",
      "outputs": [],
      "stateMutability": "nonpayable",
      "type": "function"
    },
    {
      "inputs": [
        {
          "internalType": "address",
          "name": "_partyAddress",
          "type": "address"
        }
      ],
      "name": "deleteParty",
      "outputs": [],
      "stateMutability": "nonpayable",
      "type": "function"
    },
    {
      "inputs": [
        {
          "internalType": "address",
          "name": "_partyAddress",
          "type": "address"
        }
      ],
      "name": "getPartyDetails",
      "outputs": [
        {
          "internalType": "string",
          "name": "",
          "type": "string"
        },
        {
          "internalType": "string",
          "name": "",
          "type": "string"
        },
        {
          "internalType": "string",
          "name": "",
          "type": "string"
        },
        {
          "internalType": "address",
          "name": "",
          "type": "address"
        },
        {
          "internalType": "uint256",
          "name": "",
          "type": "uint256"
        },
        {
          "internalType": "string",
          "name": "",
          "type": "string"
        }
      ],
      "stateMutability": "view",
      "type": "function",
      "constant": true
    },
    {
      "inputs": [
        {
          "internalType": "address",
          "name": "_partyAddress",
          "type": "address"
        }
      ],
      "name": "getTrustScore",
      "outputs": [
        {
          "internalType": "uint256",
          "name": "",
          "type": "uint256"
        }
      ],
      "stateMutability": "view",
      "type": "function",
      "constant": true
    },
    {
      "inputs": [
        {
          "internalType": "address",
          "name": "",
          "type": "address"
        }
      ],
      "name": "parties",
      "outputs": [
        {
          "internalType": "string",
          "name": "name",
          "type": "string"
        },
        {
          "internalType": "string",
          "name": "contactNumber",
          "type": "string"
        },
        {
          "internalType": "string",
          "name": "email",
          "type": "string"
        },
        {
          "internalType": "string",
          "name": "password",
          "type": "string"
        },
        {
          "internalType": "uint256",
          "name": "trustScore",
          "type": "uint256"
        },
        {
          "internalType": "uint256",
          "name": "createdAt",
          "type": "uint256"
        },
        {
          "internalType": "address",
          "name": "partyAddress",
          "type": "address"
        },
        {
          "internalType": "uint256",
          "name": "balance",
          "type": "uint256"
        },
        {
          "internalType": "uint256",
          "name": "freezedBalance",
          "type": "uint256"
        }
      ],
      "stateMutability": "view",
      "type": "function",
      "constant": true
    },
    {
      "inputs": [
        {
          "internalType": "uint256",
          "name": "",
          "type": "uint256"
        }
      ],
      "name": "partyAddresses",
      "outputs": [
        {
          "internalType": "address",
          "name": "",
          "type": "address"
        }
      ],
      "stateMutability": "view",
      "type": "function",
      "constant": true
    },
    {
      "inputs": [
        {
          "internalType": "address",
          "name": "_partyAddress",
          "type": "address"
        },
        {
          "internalType": "uint256",
          "name": "_trustScore",
          "type": "uint256"
        }
      ],
      "name": "setTrustScore",
      "outputs": [],
      "stateMutability": "nonpayable",
      "type": "function"
    },
    {
      "inputs": [
        {
          "internalType": "uint256",
          "name": "",
          "type": "uint256"
        }
      ],
      "name": "tenders",
      "outputs": [
        {
          "internalType": "string",
          "name": "title",
          "type": "string"
        },
        {
          "internalType": "string",
          "name": "description",
          "type": "string"
        },
        {
          "internalType": "uint256",
          "name": "budget",
          "type": "uint256"
        },
        {
          "internalType": "address",
          "name": "issuerAddress",
          "type": "address"
        },
        {
          "internalType": "enum TenderStatus",
          "name": "tenderStatus",
          "type": "uint8"
        },
        {
          "internalType": "uint256",
          "name": "createdAt",
          "type": "uint256"
        },
        {
          "internalType": "uint256",
          "name": "deadline",
          "type": "uint256"
        },
        {
          "internalType": "uint256",
          "name": "totalMilestones",
          "type": "uint256"
        },
        {
          "internalType": "uint256",
          "name": "tenderId",
          "type": "uint256"
        },
        {
          "internalType": "uint256",
          "name": "balance",
          "type": "uint256"
        }
      ],
      "stateMutability": "view",
      "type": "function",
      "constant": true
    },
    {
      "inputs": [],
      "name": "tokenRef",
      "outputs": [
        {
          "internalType": "contract Token",
          "name": "",
          "type": "address"
        }
      ],
      "stateMutability": "view",
      "type": "function",
      "constant": true
    },
    {
      "inputs": [
        {
          "internalType": "string",
          "name": "_name",
          "type": "string"
        },
        {
          "internalType": "string",
          "name": "_password",
          "type": "string"
        },
        {
          "internalType": "address",
          "name": "_partyAddress",
          "type": "address"
        }
      ],
      "name": "updateParty",
      "outputs": [],
      "stateMutability": "nonpayable",
      "type": "function"
    },
    {
      "inputs": [],
      "name": "getTenderCount",
      "outputs": [
        {
          "internalType": "uint256",
          "name": "",
          "type": "uint256"
        }
      ],
      "stateMutability": "view",
      "type": "function",
      "constant": true
    },
    {
      "inputs": [
        {
          "internalType": "uint256",
          "name": "_tenderId",
          "type": "uint256"
        }
      ],
      "name": "getValidators",
      "outputs": [
        {
          "internalType": "address[]",
          "name": "",
          "type": "address[]"
        }
      ],
      "stateMutability": "view",
      "type": "function",
      "constant": true
    },
    {
      "inputs": [
        {
          "internalType": "uint256",
          "name": "_tenderId",
          "type": "uint256"
        }
      ],
      "name": "getTotalProjectDays",
      "outputs": [
        {
          "internalType": "uint256",
          "name": "",
          "type": "uint256"
        }
      ],
      "stateMutability": "view",
      "type": "function",
      "constant": true
    },
    {
      "inputs": [
        {
          "internalType": "uint256",
          "name": "_tenderId",
          "type": "uint256"
        }
      ],
      "name": "getBudget",
      "outputs": [
        {
          "internalType": "uint256",
          "name": "",
          "type": "uint256"
        }
      ],
      "stateMutability": "view",
      "type": "function",
      "constant": true
    },
    {
      "inputs": [
        {
          "internalType": "uint256",
          "name": "_tenderId",
          "type": "uint256"
        }
      ],
      "name": "getTenderStatus",
      "outputs": [
        {
          "internalType": "enum TenderStatus",
          "name": "",
          "type": "uint8"
        }
      ],
      "stateMutability": "view",
      "type": "function",
      "constant": true
    },
    {
      "inputs": [
        {
          "internalType": "uint256",
          "name": "_tenderId",
          "type": "uint256"
        }
      ],
      "name": "getDeadline",
      "outputs": [
        {
          "internalType": "uint256",
          "name": "",
          "type": "uint256"
        }
      ],
      "stateMutability": "view",
      "type": "function",
      "constant": true
    },
    {
      "inputs": [
        {
          "internalType": "uint256",
          "name": "_tenderId",
          "type": "uint256"
        }
      ],
      "name": "getBidIds",
      "outputs": [
        {
          "internalType": "uint256[]",
          "name": "",
          "type": "uint256[]"
        }
      ],
      "stateMutability": "view",
      "type": "function",
      "constant": true
    },
    {
      "inputs": [
        {
          "internalType": "uint256",
          "name": "_tenderId",
          "type": "uint256"
        }
      ],
      "name": "getIssuerAddress",
      "outputs": [
        {
          "internalType": "address",
          "name": "",
          "type": "address"
        }
      ],
      "stateMutability": "view",
      "type": "function",
      "constant": true
    },
    {
      "inputs": [
        {
          "internalType": "uint256",
          "name": "_tenderId",
          "type": "uint256"
        }
      ],
      "name": "getTotalMilestones",
      "outputs": [
        {
          "internalType": "uint256",
          "name": "",
          "type": "uint256"
        }
      ],
      "stateMutability": "view",
      "type": "function",
      "constant": true
    },
    {
      "inputs": [
        {
          "internalType": "uint256",
          "name": "_tenderId",
          "type": "uint256"
        }
      ],
      "name": "getBidsCount",
      "outputs": [
        {
          "internalType": "uint256",
          "name": "",
          "type": "uint256"
        }
      ],
      "stateMutability": "view",
      "type": "function",
      "constant": true
    },
    {
      "inputs": [
        {
          "internalType": "uint256",
          "name": "_tenderId",
          "type": "uint256"
        },
        {
          "internalType": "uint256",
          "name": "bidId",
          "type": "uint256"
        }
      ],
      "name": "addBidId",
      "outputs": [],
      "stateMutability": "nonpayable",
      "type": "function"
    },
    {
      "inputs": [
        {
          "internalType": "uint256[]",
          "name": "_tenderBidIds",
          "type": "uint256[]"
        },
        {
          "internalType": "uint256",
          "name": "_tenderId",
          "type": "uint256"
        }
      ],
      "name": "setBidIds",
      "outputs": [],
      "stateMutability": "nonpayable",
      "type": "function"
    },
    {
      "inputs": [
        {
          "internalType": "address",
          "name": "_partyAddress",
          "type": "address"
        },
        {
          "internalType": "uint256",
          "name": "_budget",
          "type": "uint256"
        },
        {
          "internalType": "string",
          "name": "_title",
          "type": "string"
        },
        {
          "internalType": "string",
          "name": "_description",
          "type": "string"
        },
        {
          "internalType": "uint256",
          "name": "_deadline",
          "type": "uint256"
        },
        {
          "internalType": "uint256",
          "name": "_totalMilestones",
          "type": "uint256"
        }
      ],
      "name": "createTender",
      "outputs": [],
      "stateMutability": "nonpayable",
      "type": "function"
    },
    {
      "inputs": [],
      "name": "sortByTrustScore",
      "outputs": [
        {
          "internalType": "address[]",
          "name": "",
          "type": "address[]"
        }
      ],
      "stateMutability": "view",
      "type": "function",
      "constant": true
    },
    {
      "inputs": [
        {
          "internalType": "uint256",
          "name": "_tenderId",
          "type": "uint256"
        },
        {
          "internalType": "bool",
          "name": "_vote",
          "type": "bool"
        }
      ],
      "name": "validate",
      "outputs": [],
      "stateMutability": "nonpayable",
      "type": "function"
    },
    {
      "inputs": [
        {
          "internalType": "uint256",
          "name": "_tenderId",
          "type": "uint256"
        }
      ],
      "name": "checkTenderValidation",
      "outputs": [],
      "stateMutability": "nonpayable",
      "type": "function"
    },
    {
      "inputs": [
        {
          "internalType": "bool[]",
          "name": "_validationVotes",
          "type": "bool[]"
        }
      ],
      "name": "isValid",
      "outputs": [
        {
          "internalType": "bool",
          "name": "",
          "type": "bool"
        }
      ],
      "stateMutability": "pure",
      "type": "function",
      "constant": true
    },
    {
      "inputs": [
        {
          "internalType": "address",
          "name": "_partyAddress",
          "type": "address"
        }
      ],
      "name": "getTendersToValidate",
      "outputs": [
        {
          "components": [
            {
              "internalType": "string",
              "name": "title",
              "type": "string"
            },
            {
              "internalType": "string",
              "name": "description",
              "type": "string"
            },
            {
              "internalType": "uint256",
              "name": "budget",
              "type": "uint256"
            },
            {
              "internalType": "address",
              "name": "issuerAddress",
              "type": "address"
            },
            {
              "internalType": "enum TenderStatus",
              "name": "tenderStatus",
              "type": "uint8"
            },
            {
              "internalType": "uint256",
              "name": "createdAt",
              "type": "uint256"
            },
            {
              "internalType": "uint256",
              "name": "deadline",
              "type": "uint256"
            },
            {
              "internalType": "uint256",
              "name": "totalMilestones",
              "type": "uint256"
            },
            {
              "internalType": "uint256",
              "name": "tenderId",
              "type": "uint256"
            },
            {
              "internalType": "address[]",
              "name": "validatorsAddresses",
              "type": "address[]"
            },
            {
              "internalType": "bool[]",
              "name": "validationVotes",
              "type": "bool[]"
            },
            {
              "internalType": "uint256[]",
              "name": "milestoneTimePeriods",
              "type": "uint256[]"
            },
            {
              "internalType": "uint256[]",
              "name": "bidIds",
              "type": "uint256[]"
            },
            {
              "internalType": "uint256",
              "name": "balance",
              "type": "uint256"
            }
          ],
          "internalType": "struct TenderContract.Tender[]",
          "name": "",
          "type": "tuple[]"
        }
      ],
      "stateMutability": "view",
      "type": "function",
      "constant": true
    },
    {
      "inputs": [],
      "name": "getAllActiveTenders",
      "outputs": [
        {
          "components": [
            {
              "internalType": "string",
              "name": "title",
              "type": "string"
            },
            {
              "internalType": "string",
              "name": "description",
              "type": "string"
            },
            {
              "internalType": "uint256",
              "name": "budget",
              "type": "uint256"
            },
            {
              "internalType": "address",
              "name": "issuerAddress",
              "type": "address"
            },
            {
              "internalType": "enum TenderStatus",
              "name": "tenderStatus",
              "type": "uint8"
            },
            {
              "internalType": "uint256",
              "name": "createdAt",
              "type": "uint256"
            },
            {
              "internalType": "uint256",
              "name": "deadline",
              "type": "uint256"
            },
            {
              "internalType": "uint256",
              "name": "totalMilestones",
              "type": "uint256"
            },
            {
              "internalType": "uint256",
              "name": "tenderId",
              "type": "uint256"
            },
            {
              "internalType": "address[]",
              "name": "validatorsAddresses",
              "type": "address[]"
            },
            {
              "internalType": "bool[]",
              "name": "validationVotes",
              "type": "bool[]"
            },
            {
              "internalType": "uint256[]",
              "name": "milestoneTimePeriods",
              "type": "uint256[]"
            },
            {
              "internalType": "uint256[]",
              "name": "bidIds",
              "type": "uint256[]"
            },
            {
              "internalType": "uint256",
              "name": "balance",
              "type": "uint256"
            }
          ],
          "internalType": "struct TenderContract.Tender[]",
          "name": "",
          "type": "tuple[]"
        },
        {
          "internalType": "uint256",
          "name": "",
          "type": "uint256"
        }
      ],
      "stateMutability": "view",
      "type": "function",
      "constant": true
    },
    {
      "inputs": [
        {
          "internalType": "address",
          "name": "_partyAddress",
          "type": "address"
        }
      ],
      "name": "getMyTenders",
      "outputs": [
        {
          "components": [
            {
              "internalType": "string",
              "name": "title",
              "type": "string"
            },
            {
              "internalType": "string",
              "name": "description",
              "type": "string"
            },
            {
              "internalType": "uint256",
              "name": "budget",
              "type": "uint256"
            },
            {
              "internalType": "address",
              "name": "issuerAddress",
              "type": "address"
            },
            {
              "internalType": "enum TenderStatus",
              "name": "tenderStatus",
              "type": "uint8"
            },
            {
              "internalType": "uint256",
              "name": "createdAt",
              "type": "uint256"
            },
            {
              "internalType": "uint256",
              "name": "deadline",
              "type": "uint256"
            },
            {
              "internalType": "uint256",
              "name": "totalMilestones",
              "type": "uint256"
            },
            {
              "internalType": "uint256",
              "name": "tenderId",
              "type": "uint256"
            },
            {
              "internalType": "address[]",
              "name": "validatorsAddresses",
              "type": "address[]"
            },
            {
              "internalType": "bool[]",
              "name": "validationVotes",
              "type": "bool[]"
            },
            {
              "internalType": "uint256[]",
              "name": "milestoneTimePeriods",
              "type": "uint256[]"
            },
            {
              "internalType": "uint256[]",
              "name": "bidIds",
              "type": "uint256[]"
            },
            {
              "internalType": "uint256",
              "name": "balance",
              "type": "uint256"
            }
          ],
          "internalType": "struct TenderContract.Tender[]",
          "name": "",
          "type": "tuple[]"
        }
      ],
      "stateMutability": "view",
      "type": "function",
      "constant": true
    },
    {
      "inputs": [
        {
          "internalType": "uint256",
          "name": "_tenderId",
          "type": "uint256"
        }
      ],
      "name": "getTenderDetails",
      "outputs": [
        {
          "components": [
            {
              "internalType": "string",
              "name": "title",
              "type": "string"
            },
            {
              "internalType": "string",
              "name": "description",
              "type": "string"
            },
            {
              "internalType": "uint256",
              "name": "budget",
              "type": "uint256"
            },
            {
              "internalType": "address",
              "name": "issuerAddress",
              "type": "address"
            },
            {
              "internalType": "enum TenderStatus",
              "name": "tenderStatus",
              "type": "uint8"
            },
            {
              "internalType": "uint256",
              "name": "createdAt",
              "type": "uint256"
            },
            {
              "internalType": "uint256",
              "name": "deadline",
              "type": "uint256"
            },
            {
              "internalType": "uint256",
              "name": "totalMilestones",
              "type": "uint256"
            },
            {
              "internalType": "uint256",
              "name": "tenderId",
              "type": "uint256"
            },
            {
              "internalType": "address[]",
              "name": "validatorsAddresses",
              "type": "address[]"
            },
            {
              "internalType": "bool[]",
              "name": "validationVotes",
              "type": "bool[]"
            },
            {
              "internalType": "uint256[]",
              "name": "milestoneTimePeriods",
              "type": "uint256[]"
            },
            {
              "internalType": "uint256[]",
              "name": "bidIds",
              "type": "uint256[]"
            },
            {
              "internalType": "uint256",
              "name": "balance",
              "type": "uint256"
            }
          ],
          "internalType": "struct TenderContract.Tender",
          "name": "",
          "type": "tuple"
        }
      ],
      "stateMutability": "view",
      "type": "function",
      "constant": true
    },
    {
      "inputs": [
        {
          "internalType": "uint256",
          "name": "_tenderId",
          "type": "uint256"
        },
        {
          "internalType": "enum TenderStatus",
          "name": "_tenderStatus",
          "type": "uint8"
        }
      ],
      "name": "updateTenderStatus",
      "outputs": [],
      "stateMutability": "nonpayable",
      "type": "function"
    },
    {
      "inputs": [
        {
          "internalType": "address",
          "name": "_partyAddress",
          "type": "address"
        },
        {
          "internalType": "uint256",
          "name": "_tenderId",
          "type": "uint256"
        },
        {
          "internalType": "uint256",
          "name": "_budget",
          "type": "uint256"
        },
        {
          "internalType": "string",
          "name": "_title",
          "type": "string"
        },
        {
          "internalType": "string",
          "name": "_description",
          "type": "string"
        },
        {
          "internalType": "uint256",
          "name": "_deadline",
          "type": "uint256"
        },
        {
          "internalType": "uint256",
          "name": "_totalMilestones",
          "type": "uint256"
        }
      ],
      "name": "updateTender",
      "outputs": [],
      "stateMutability": "nonpayable",
      "type": "function"
    }
  ],
  "bytecode": "0x6080604052603260045560006006553480156200001b57600080fd5b5060405162005eae38038062005eae833981810160405281019062000041919062000109565b8080600360006101000a81548173ffffffffffffffffffffffffffffffffffffffff021916908373ffffffffffffffffffffffffffffffffffffffff16021790555050506200013b565b600080fd5b600073ffffffffffffffffffffffffffffffffffffffff82169050919050565b6000620000bd8262000090565b9050919050565b6000620000d182620000b0565b9050919050565b620000e381620000c4565b8114620000ef57600080fd5b50565b6000815190506200010381620000d8565b92915050565b6000602082840312156200012257620001216200008b565b5b60006200013284828501620000f2565b91505092915050565b615d63806200014b6000396000f3fe608060405234801561001057600080fd5b50600436106102055760003560e01c80635e09eea11161011a578063bac2e80d116100ad578063ef8c03911161007c578063ef8c0391146106a9578063f1d8ef4d146106c5578063f851a440146106e1578063fd7b91b6146106ff578063feec47581461072f57610205565b8063bac2e80d146105fd578063c792d8fd14610619578063ccfa858e14610649578063e2e5384d1461067957610205565b8063897bb979116100e9578063897bb9791461058d57806397ef4e3e146105a9578063aaaf4188146105c5578063b2a88f6f146105e157610205565b80635e09eea1146104e15780637a0c7d39146105115780637e4d2d971461052d578063828622751461055d57610205565b80633d818b311161019d578063471f40fb1161016c578063471f40fb1461040d5780634f2352071461043d57806353ee895d14610475578063564abc25146104a55780635850b383146104c357610205565b80633d818b31146103555780634008f9c01461037457806342222a43146103a4578063465e1def146103d457610205565b806329c350f1116101d957806329c350f1146102bb5780632e4ea4c4146102d757806333bec83714610307578063354133f71461032557610205565b8062da72281461020a57806314ac201b1461023f578063171fd8481461026f578063228becb61461028b575b600080fd5b610224600480360381019061021f919061407a565b61074b565b6040516102369695949392919061415f565b60405180910390f35b61025960048036038101906102549190614208565b610c84565b6040516102669190614235565b60405180910390f35b61028960048036038101906102849190614385565b610d4c565b005b6102a560048036038101906102a0919061407a565b611043565b6040516102b2919061498a565b60405180910390f35b6102d560048036038101906102d09190614208565b6115e6565b005b6102f160048036038101906102ec9190614208565b611692565b6040516102fe9190614235565b60405180910390f35b61030f6116b2565b60405161031c9190614a0b565b60405180910390f35b61033f600480360381019061033a9190614208565b6116d8565b60405161034c9190614a35565b60405180910390f35b61035d611705565b60405161036b929190614a50565b60405180910390f35b61038e60048036038101906103899190614208565b611c1c565b60405161039b9190614235565b60405180910390f35b6103be60048036038101906103b99190614208565b611c3f565b6040516103cb9190614aef565b60405180910390f35b6103ee60048036038101906103e99190614208565b611cad565b6040516104049a99989796959493929190614b11565b60405180910390f35b61042760048036038101906104229190614208565b611e3e565b6040516104349190614c2a565b60405180910390f35b6104576004803603810190610452919061407a565b611ee2565b60405161046c99989796959493929190614c4c565b60405180910390f35b61048f600480360381019061048a9190614208565b612170565b60405161049c9190614e46565b60405180910390f35b6104ad6125a3565b6040516104ba9190614c2a565b60405180910390f35b6104cb612813565b6040516104d89190614235565b60405180910390f35b6104fb60048036038101906104f6919061407a565b61281d565b6040516105089190614235565b60405180910390f35b61052b60048036038101906105269190614e68565b612868565b005b61054760048036038101906105429190614208565b612a16565b6040516105549190614ef3565b60405180910390f35b61057760048036038101906105729190614208565b612a56565b6040516105849190614235565b60405180910390f35b6105a760048036038101906105a29190614fd6565b612a76565b005b6105c360048036038101906105be919061505e565b612ae1565b005b6105df60048036038101906105da91906150c3565b612c3a565b005b6105fb60048036038101906105f69190615103565b612c82565b005b610617600480360381019061061291906151c8565b613108565b005b610633600480360381019061062e9190614208565b6133cc565b6040516106409190614ef3565b60405180910390f35b610663600480360381019061065e9190615365565b61340b565b60405161067091906153bd565b60405180910390f35b610693600480360381019061068e9190614208565b613491565b6040516106a09190614235565b60405180910390f35b6106c360048036038101906106be919061407a565b6134b1565b005b6106df60048036038101906106da91906153d8565b613869565b005b6106e96138aa565b6040516106f69190614ef3565b60405180910390f35b6107196004803603810190610714919061407a565b6138d0565b604051610726919061498a565b60405180910390f35b61074960048036038101906107449190615418565b613e5c565b005b60608060606000806060868073ffffffffffffffffffffffffffffffffffffffff163373ffffffffffffffffffffffffffffffffffffffff16146107c4576040517f08c379a00000000000000000000000000000000000000000000000000000000081526004016107bb906154a4565b60405180910390fd5b87600073ffffffffffffffffffffffffffffffffffffffff166000808373ffffffffffffffffffffffffffffffffffffffff1673ffffffffffffffffffffffffffffffffffffffff16815260200190815260200160002060060160009054906101000a900473ffffffffffffffffffffffffffffffffffffffff1673ffffffffffffffffffffffffffffffffffffffff1603610895576040517f08c379a000000000000000000000000000000000000000000000000000000000815260040161088c90615510565b60405180910390fd5b6000808a73ffffffffffffffffffffffffffffffffffffffff1673ffffffffffffffffffffffffffffffffffffffff1681526020019081526020016000206000016000808b73ffffffffffffffffffffffffffffffffffffffff1673ffffffffffffffffffffffffffffffffffffffff1681526020019081526020016000206001016000808c73ffffffffffffffffffffffffffffffffffffffff1673ffffffffffffffffffffffffffffffffffffffff1681526020019081526020016000206002016000808d73ffffffffffffffffffffffffffffffffffffffff1673ffffffffffffffffffffffffffffffffffffffff16815260200190815260200160002060060160009054906101000a900473ffffffffffffffffffffffffffffffffffffffff166000808e73ffffffffffffffffffffffffffffffffffffffff1673ffffffffffffffffffffffffffffffffffffffff168152602001908152602001600020600401546000808f73ffffffffffffffffffffffffffffffffffffffff1673ffffffffffffffffffffffffffffffffffffffff168152602001908152602001600020600301858054610a499061555f565b80601f0160208091040260200160405190810160405280929190818152602001828054610a759061555f565b8015610ac25780601f10610a9757610100808354040283529160200191610ac2565b820191906000526020600020905b815481529060010190602001808311610aa557829003601f168201915b50505050509550848054610ad59061555f565b80601f0160208091040260200160405190810160405280929190818152602001828054610b019061555f565b8015610b4e5780601f10610b2357610100808354040283529160200191610b4e565b820191906000526020600020905b815481529060010190602001808311610b3157829003601f168201915b50505050509450838054610b619061555f565b80601f0160208091040260200160405190810160405280929190818152602001828054610b8d9061555f565b8015610bda5780601f10610baf57610100808354040283529160200191610bda565b820191906000526020600020905b815481529060010190602001808311610bbd57829003601f168201915b50505050509350808054610bed9061555f565b80601f0160208091040260200160405190810160405280929190818152602001828054610c199061555f565b8015610c665780601f10610c3b57610100808354040283529160200191610c66565b820191906000526020600020905b815481529060010190602001808311610c4957829003601f168201915b50505050509050975097509750975097509750505091939550919395565b60008060009050600060056000858152602001908152602001600020600a01805480602002602001604051908101604052809291908181526020018280548015610ced57602002820191906000526020600020905b815481526020019060010190808311610cd9575b5050505050905060008151905060005b81811015610d4057828181518110610d1857610d17615590565b5b602002602001015184610d2b91906155ee565b93508080610d3890615622565b915050610cfd565b50829350505050919050565b808073ffffffffffffffffffffffffffffffffffffffff163373ffffffffffffffffffffffffffffffffffffffff1614610dbb576040517f08c379a0000000000000000000000000000000000000000000000000000000008152600401610db2906154a4565b60405180910390fd5b600073ffffffffffffffffffffffffffffffffffffffff166000808473ffffffffffffffffffffffffffffffffffffffff1673ffffffffffffffffffffffffffffffffffffffff16815260200190815260200160002060060160009054906101000a900473ffffffffffffffffffffffffffffffffffffffff1673ffffffffffffffffffffffffffffffffffffffff1614610e8b576040517f08c379a0000000000000000000000000000000000000000000000000000000008152600401610e82906156b6565b60405180910390fd5b60008060008473ffffffffffffffffffffffffffffffffffffffff1673ffffffffffffffffffffffffffffffffffffffff168152602001908152602001600020905086816000019081610ede9190615878565b5085816001019081610ef09190615878565b5084816002019081610f029190615878565b5083816003019081610f149190615878565b5060008160040181905550428160050181905550828160060160006101000a81548173ffffffffffffffffffffffffffffffffffffffff021916908373ffffffffffffffffffffffffffffffffffffffff160217905550600067ffffffffffffffff811115610f8657610f8561425a565b5b604051908082528060200260200182016040528015610fb45781602001602082028036833780820191505090505b50816007019080519060200190610fcc929190613ea6565b50600081600901819055506001839080600181540180825580915050600190039060005260206000200160009091909190916101000a81548173ffffffffffffffffffffffffffffffffffffffff021916908373ffffffffffffffffffffffffffffffffffffffff16021790555050505050505050565b606060008060008473ffffffffffffffffffffffffffffffffffffffff1673ffffffffffffffffffffffffffffffffffffffff16815260200190815260200160002060070180549050116110cc576040517f08c379a00000000000000000000000000000000000000000000000000000000081526004016110c390615996565b60405180910390fd5b60008060008473ffffffffffffffffffffffffffffffffffffffff1673ffffffffffffffffffffffffffffffffffffffff16815260200190815260200160002060070180548060200260200160405190810160405280929190818152602001828054801561115957602002820191906000526020600020905b815481526020019060010190808311611145575b505050505090506000815167ffffffffffffffff81111561117d5761117c61425a565b5b6040519080825280602002602001820160405280156111b657816020015b6111a3613ef3565b81526020019060019003908161119b5790505b50905060005b82518110156115db57600560008483815181106111dc576111db615590565b5b60200260200101518152602001908152602001600020604051806101c001604052908160008201805461120e9061555f565b80601f016020809104026020016040519081016040528092919081815260200182805461123a9061555f565b80156112875780601f1061125c57610100808354040283529160200191611287565b820191906000526020600020905b81548152906001019060200180831161126a57829003601f168201915b505050505081526020016001820180546112a09061555f565b80601f01602080910402602001604051908101604052809291908181526020018280546112cc9061555f565b80156113195780601f106112ee57610100808354040283529160200191611319565b820191906000526020600020905b8154815290600101906020018083116112fc57829003601f168201915b50505050508152602001600282015481526020016003820160009054906101000a900473ffffffffffffffffffffffffffffffffffffffff1673ffffffffffffffffffffffffffffffffffffffff1673ffffffffffffffffffffffffffffffffffffffff1681526020016003820160149054906101000a900460ff1660048111156113a7576113a6614504565b5b60048111156113b9576113b8614504565b5b8152602001600482015481526020016005820154815260200160068201548152602001600782015481526020016008820180548060200260200160405190810160405280929190818152602001828054801561146a57602002820191906000526020600020905b8160009054906101000a900473ffffffffffffffffffffffffffffffffffffffff1673ffffffffffffffffffffffffffffffffffffffff1681526020019060010190808311611420575b50505050508152602001600982018054806020026020016040519081016040528092919081815260200182805480156114e757602002820191906000526020600020906000905b82829054906101000a900460ff161515815260200190600101906020826000010492830192600103820291508084116114b15790505b50505050508152602001600a820180548060200260200160405190810160405280929190818152602001828054801561153f57602002820191906000526020600020905b81548152602001906001019080831161152b575b50505050508152602001600b820180548060200260200160405190810160405280929190818152602001828054801561159757602002820191906000526020600020905b815481526020019060010190808311611583575b50505050508152602001600c820154815250508282815181106115bd576115bc615590565b5b602002602001018190525080806115d390615622565b9150506111bc565b508092505050919050565b600060056000838152602001908152602001600020905061167d8160090180548060200260200160405190810160405280929190818152602001828054801561167357602002820191906000526020600020906000905b82829054906101000a900460ff1615158152602001906001019060208260000104928301926001038202915080841161163d5790505b505050505061340b565b1561168e5761168d826001612c3a565b5b5050565b600060056000838152602001908152602001600020600201549050919050565b600360009054906101000a900473ffffffffffffffffffffffffffffffffffffffff1681565b60006005600083815260200190815260200160002060030160149054906101000a900460ff169050919050565b60606000806006541161174d576040517f08c379a000000000000000000000000000000000000000000000000000000000815260040161174490615996565b60405180910390fd5b60008060065467ffffffffffffffff81111561176c5761176b61425a565b5b6040519080825280602002602001820160405280156117a557816020015b611792613ef3565b81526020019060019003908161178a5790505b50905060005b600654811015611c0f57600160048111156117c9576117c8614504565b5b6005600083815260200190815260200160002060030160149054906101000a900460ff1660048111156117ff576117fe614504565b5b03611bfc5760056000828152602001908152602001600020604051806101c00160405290816000820180546118339061555f565b80601f016020809104026020016040519081016040528092919081815260200182805461185f9061555f565b80156118ac5780601f10611881576101008083540402835291602001916118ac565b820191906000526020600020905b81548152906001019060200180831161188f57829003601f168201915b505050505081526020016001820180546118c59061555f565b80601f01602080910402602001604051908101604052809291908181526020018280546118f19061555f565b801561193e5780601f106119135761010080835404028352916020019161193e565b820191906000526020600020905b81548152906001019060200180831161192157829003601f168201915b50505050508152602001600282015481526020016003820160009054906101000a900473ffffffffffffffffffffffffffffffffffffffff1673ffffffffffffffffffffffffffffffffffffffff1673ffffffffffffffffffffffffffffffffffffffff1681526020016003820160149054906101000a900460ff1660048111156119cc576119cb614504565b5b60048111156119de576119dd614504565b5b81526020016004820154815260200160058201548152602001600682015481526020016007820154815260200160088201805480602002602001604051908101604052809291908181526020018280548015611a8f57602002820191906000526020600020905b8160009054906101000a900473ffffffffffffffffffffffffffffffffffffffff1673ffffffffffffffffffffffffffffffffffffffff1681526020019060010190808311611a45575b5050505050815260200160098201805480602002602001604051908101604052809291908181526020018280548015611b0c57602002820191906000526020600020906000905b82829054906101000a900460ff16151581526020019060010190602082600001049283019260010382029150808411611ad65790505b50505050508152602001600a8201805480602002602001604051908101604052809291908181526020018280548015611b6457602002820191906000526020600020905b815481526020019060010190808311611b50575b50505050508152602001600b8201805480602002602001604051908101604052809291908181526020018280548015611bbc57602002820191906000526020600020905b815481526020019060010190808311611ba8575b50505050508152602001600c82015481525050828281518110611be257611be1615590565b5b60200260200101819052508280611bf890615622565b9350505b8080611c0790615622565b9150506117ab565b5080829350935050509091565b600060056000838152602001908152602001600020600b01805490509050919050565b606060056000838152602001908152602001600020600b01805480602002602001604051908101604052809291908181526020018280548015611ca157602002820191906000526020600020905b815481526020019060010190808311611c8d575b50505050509050919050565b6005602052806000526040600020600091509050806000018054611cd09061555f565b80601f0160208091040260200160405190810160405280929190818152602001828054611cfc9061555f565b8015611d495780601f10611d1e57610100808354040283529160200191611d49565b820191906000526020600020905b815481529060010190602001808311611d2c57829003601f168201915b505050505090806001018054611d5e9061555f565b80601f0160208091040260200160405190810160405280929190818152602001828054611d8a9061555f565b8015611dd75780601f10611dac57610100808354040283529160200191611dd7565b820191906000526020600020905b815481529060010190602001808311611dba57829003601f168201915b5050505050908060020154908060030160009054906101000a900473ffffffffffffffffffffffffffffffffffffffff16908060030160149054906101000a900460ff169080600401549080600501549080600601549080600701549080600c015490508a565b606060056000838152602001908152602001600020600801805480602002602001604051908101604052809291908181526020018280548015611ed657602002820191906000526020600020905b8160009054906101000a900473ffffffffffffffffffffffffffffffffffffffff1673ffffffffffffffffffffffffffffffffffffffff1681526020019060010190808311611e8c575b50505050509050919050565b6000602052806000526040600020600091509050806000018054611f059061555f565b80601f0160208091040260200160405190810160405280929190818152602001828054611f319061555f565b8015611f7e5780601f10611f5357610100808354040283529160200191611f7e565b820191906000526020600020905b815481529060010190602001808311611f6157829003601f168201915b505050505090806001018054611f939061555f565b80601f0160208091040260200160405190810160405280929190818152602001828054611fbf9061555f565b801561200c5780601f10611fe15761010080835404028352916020019161200c565b820191906000526020600020905b815481529060010190602001808311611fef57829003601f168201915b5050505050908060020180546120219061555f565b80601f016020809104026020016040519081016040528092919081815260200182805461204d9061555f565b801561209a5780601f1061206f5761010080835404028352916020019161209a565b820191906000526020600020905b81548152906001019060200180831161207d57829003601f168201915b5050505050908060030180546120af9061555f565b80601f01602080910402602001604051908101604052809291908181526020018280546120db9061555f565b80156121285780601f106120fd57610100808354040283529160200191612128565b820191906000526020600020905b81548152906001019060200180831161210b57829003601f168201915b5050505050908060040154908060050154908060060160009054906101000a900473ffffffffffffffffffffffffffffffffffffffff16908060080154908060090154905089565b612178613ef3565b60006005600084815260200190815260200160002060020154116121d1576040517f08c379a00000000000000000000000000000000000000000000000000000000081526004016121c890615a28565b60405180910390fd5b60056000838152602001908152602001600020604051806101c00160405290816000820180546122009061555f565b80601f016020809104026020016040519081016040528092919081815260200182805461222c9061555f565b80156122795780601f1061224e57610100808354040283529160200191612279565b820191906000526020600020905b81548152906001019060200180831161225c57829003601f168201915b505050505081526020016001820180546122929061555f565b80601f01602080910402602001604051908101604052809291908181526020018280546122be9061555f565b801561230b5780601f106122e05761010080835404028352916020019161230b565b820191906000526020600020905b8154815290600101906020018083116122ee57829003601f168201915b50505050508152602001600282015481526020016003820160009054906101000a900473ffffffffffffffffffffffffffffffffffffffff1673ffffffffffffffffffffffffffffffffffffffff1673ffffffffffffffffffffffffffffffffffffffff1681526020016003820160149054906101000a900460ff16600481111561239957612398614504565b5b60048111156123ab576123aa614504565b5b8152602001600482015481526020016005820154815260200160068201548152602001600782015481526020016008820180548060200260200160405190810160405280929190818152602001828054801561245c57602002820191906000526020600020905b8160009054906101000a900473ffffffffffffffffffffffffffffffffffffffff1673ffffffffffffffffffffffffffffffffffffffff1681526020019060010190808311612412575b50505050508152602001600982018054806020026020016040519081016040528092919081815260200182805480156124d957602002820191906000526020600020906000905b82829054906101000a900460ff161515815260200190600101906020826000010492830192600103820291508084116124a35790505b50505050508152602001600a820180548060200260200160405190810160405280929190818152602001828054801561253157602002820191906000526020600020905b81548152602001906001019080831161251d575b50505050508152602001600b820180548060200260200160405190810160405280929190818152602001828054801561258957602002820191906000526020600020905b815481526020019060010190808311612575575b50505050508152602001600c820154815250509050919050565b60606000600180548060200260200160405190810160405280929190818152602001828054801561262957602002820191906000526020600020905b8160009054906101000a900473ffffffffffffffffffffffffffffffffffffffff1673ffffffffffffffffffffffffffffffffffffffff16815260200190600101908083116125df575b505050505090506000600190505b60018054905081101561280b5760005b818110156127f75760008084838151811061266557612664615590565b5b602002602001015173ffffffffffffffffffffffffffffffffffffffff1673ffffffffffffffffffffffffffffffffffffffff168152602001908152602001600020600401546000808585815181106126c1576126c0615590565b5b602002602001015173ffffffffffffffffffffffffffffffffffffffff1673ffffffffffffffffffffffffffffffffffffffff1681526020019081526020016000206004015410156127e457600083838151811061272257612721615590565b5b6020026020010151905083828151811061273f5761273e615590565b5b602002602001015184848151811061275a57612759615590565b5b602002602001019073ffffffffffffffffffffffffffffffffffffffff16908173ffffffffffffffffffffffffffffffffffffffff1681525050808483815181106127a8576127a7615590565b5b602002602001019073ffffffffffffffffffffffffffffffffffffffff16908173ffffffffffffffffffffffffffffffffffffffff1681525050505b80806127ef90615622565b915050612647565b50808061280390615622565b915050612637565b508091505090565b6000600654905090565b60008060008373ffffffffffffffffffffffffffffffffffffffff1673ffffffffffffffffffffffffffffffffffffffff168152602001908152602001600020600401549050919050565b808073ffffffffffffffffffffffffffffffffffffffff163373ffffffffffffffffffffffffffffffffffffffff16146128d7576040517f08c379a00000000000000000000000000000000000000000000000000000000081526004016128ce906154a4565b60405180910390fd5b81600073ffffffffffffffffffffffffffffffffffffffff166000808373ffffffffffffffffffffffffffffffffffffffff1673ffffffffffffffffffffffffffffffffffffffff16815260200190815260200160002060060160009054906101000a900473ffffffffffffffffffffffffffffffffffffffff1673ffffffffffffffffffffffffffffffffffffffff16036129a8576040517f08c379a000000000000000000000000000000000000000000000000000000000815260040161299f90615510565b60405180910390fd5b60008060008573ffffffffffffffffffffffffffffffffffffffff1673ffffffffffffffffffffffffffffffffffffffff1681526020019081526020016000209050858160000190816129fb9190615878565b5084816003019081612a0d9190615878565b50505050505050565b60006005600083815260200190815260200160002060030160009054906101000a900473ffffffffffffffffffffffffffffffffffffffff169050919050565b600060056000838152602001908152602001600020600501549050919050565b8160056000838152602001908152602001600020600b019080519060200190612aa0929190613ea6565b5060056000828152602001908152602001600020600b01805480612ac757612ac6615a48565b5b600190038181906000526020600020016000905590555050565b60008060056000858152602001908152602001600020905060008160080180549050905060005b81811015612b9f573373ffffffffffffffffffffffffffffffffffffffff16836008018281548110612b3d57612b3c615590565b5b9060005260206000200160009054906101000a900473ffffffffffffffffffffffffffffffffffffffff1673ffffffffffffffffffffffffffffffffffffffff1603612b8c5760019350612b9f565b8080612b9790615622565b915050612b08565b508215612bf8578315612bf357816009018490806001815401808255809150506001900390600052602060002090602091828204019190069091909190916101000a81548160ff0219169083151502179055505b612c33565b6040517f08c379a0000000000000000000000000000000000000000000000000000000008152600401612c2a90615ae9565b60405180910390fd5b5050505050565b6000600560008481526020019081526020016000209050818160030160146101000a81548160ff02191690836004811115612c7857612c77614504565b5b0217905550505050565b858073ffffffffffffffffffffffffffffffffffffffff163373ffffffffffffffffffffffffffffffffffffffff1614612cf1576040517f08c379a0000000000000000000000000000000000000000000000000000000008152600401612ce8906154a4565b60405180910390fd5b600286612cfe9190615b38565b8773ffffffffffffffffffffffffffffffffffffffff16311015612d57576040517f08c379a0000000000000000000000000000000000000000000000000000000008152600401612d4e90615bdb565b60405180910390fd5b6000600560006006548152602001908152602001600020905085816000019081612d819190615878565b5084816001019081612d939190615878565b5086816002018190555060008160030160146101000a81548160ff02191690836004811115612dc557612dc4614504565b5b0217905550428160040181905550838160050181905550878160030160006101000a81548173ffffffffffffffffffffffffffffffffffffffff021916908373ffffffffffffffffffffffffffffffffffffffff16021790555060065481600701819055508281600601819055506000612e3d6125a3565b90506000815190506000600a8210612e5657600a612e58565b815b91505b8181108015612e6a5750600a81105b15613079576000803373ffffffffffffffffffffffffffffffffffffffff1673ffffffffffffffffffffffffffffffffffffffff16815260200190815260200160002060060160009054906101000a900473ffffffffffffffffffffffffffffffffffffffff1673ffffffffffffffffffffffffffffffffffffffff168360018385612ef69190615bfb565b612f009190615bfb565b81518110612f1157612f10615590565b5b602002602001015173ffffffffffffffffffffffffffffffffffffffff161461307457836008018360018385612f479190615bfb565b612f519190615bfb565b81518110612f6257612f61615590565b5b60200260200101519080600181540180825580915050600190039060005260206000200160009091909190916101000a81548173ffffffffffffffffffffffffffffffffffffffff021916908373ffffffffffffffffffffffffffffffffffffffff1602179055506000808460018486612fdc9190615bfb565b612fe69190615bfb565b81518110612ff757612ff6615590565b5b602002602001015173ffffffffffffffffffffffffffffffffffffffff1673ffffffffffffffffffffffffffffffffffffffff168152602001908152602001600020600a016006549080600181540180825580915050600190039060005260206000200160009091909190915055808061307090615622565b9150505b612e5b565b6000808c73ffffffffffffffffffffffffffffffffffffffff1673ffffffffffffffffffffffffffffffffffffffff1681526020019081526020016000206007016006549080600181540180825580915050600190039060005260206000200160009091909190915055600660008154809291906130f690615622565b91905055505050505050505050505050565b86868173ffffffffffffffffffffffffffffffffffffffff166005600083815260200190815260200160002060030160009054906101000a900473ffffffffffffffffffffffffffffffffffffffff1673ffffffffffffffffffffffffffffffffffffffff16146131ae576040517f08c379a00000000000000000000000000000000000000000000000000000000081526004016131a590615ca1565b60405180910390fd5b60008060008b73ffffffffffffffffffffffffffffffffffffffff1673ffffffffffffffffffffffffffffffffffffffff1681526020019081526020016000206007018054905011613235576040517f08c379a000000000000000000000000000000000000000000000000000000000815260040161322c90615996565b60405180910390fd5b6000600560008a8152602001908152602001600020600201541161328e576040517f08c379a000000000000000000000000000000000000000000000000000000000815260040161328590615a28565b60405180910390fd5b600060048111156132a2576132a1614504565b5b600560008a815260200190815260200160002060030160149054906101000a900460ff1660048111156132d8576132d7614504565b5b148061332b5750600360048111156132f3576132f2614504565b5b600560008a815260200190815260200160002060030160149054906101000a900460ff16600481111561332957613328614504565b5b145b61336a576040517f08c379a000000000000000000000000000000000000000000000000000000000815260040161336190615d0d565b60405180910390fd5b6000600560008a815260200190815260200160002090508781600201819055508681600001908161339b9190615878565b50858160010190816133ad9190615878565b5084816005018190555083816006018190555050505050505050505050565b600181815481106133dc57600080fd5b906000526020600020016000915054906101000a900473ffffffffffffffffffffffffffffffffffffffff1681565b6000806000905060008351905060005b818110156134655784818151811061343657613435615590565b5b60200260200101511561345257828061344e90615622565b9350505b808061345d90615622565b91505061341b565b506002816134739190615b38565b8211156134855760019250505061348c565b6000925050505b919050565b600060056000838152602001908152602001600020600601549050919050565b808073ffffffffffffffffffffffffffffffffffffffff163373ffffffffffffffffffffffffffffffffffffffff1614613520576040517f08c379a0000000000000000000000000000000000000000000000000000000008152600401613517906154a4565b60405180910390fd5b81600073ffffffffffffffffffffffffffffffffffffffff166000808373ffffffffffffffffffffffffffffffffffffffff1673ffffffffffffffffffffffffffffffffffffffff16815260200190815260200160002060060160009054906101000a900473ffffffffffffffffffffffffffffffffffffffff1673ffffffffffffffffffffffffffffffffffffffff16036135f1576040517f08c379a00000000000000000000000000000000000000000000000000000000081526004016135e890615510565b60405180910390fd5b6000808473ffffffffffffffffffffffffffffffffffffffff1673ffffffffffffffffffffffffffffffffffffffff168152602001908152602001600020600080820160006136409190613f8a565b6001820160006136509190613f8a565b6002820160006136609190613f8a565b6003820160006136709190613f8a565b600482016000905560058201600090556006820160006101000a81549073ffffffffffffffffffffffffffffffffffffffff02191690556007820160006136b79190613fca565b60088201600090556009820160009055600a820160006136d79190613fca565b505060005b600180549050811015613863573373ffffffffffffffffffffffffffffffffffffffff166001828154811061371457613713615590565b5b9060005260206000200160009054906101000a900473ffffffffffffffffffffffffffffffffffffffff1673ffffffffffffffffffffffffffffffffffffffff160361385057600180808054905061376c9190615bfb565b8154811061377d5761377c615590565b5b9060005260206000200160009054906101000a900473ffffffffffffffffffffffffffffffffffffffff16600182815481106137bc576137bb615590565b5b9060005260206000200160006101000a81548173ffffffffffffffffffffffffffffffffffffffff021916908373ffffffffffffffffffffffffffffffffffffffff160217905550600180548061381657613815615a48565b5b6001900381819060005260206000200160006101000a81549073ffffffffffffffffffffffffffffffffffffffff02191690559055613863565b808061385b90615622565b9150506136dc565b50505050565b60056000838152602001908152602001600020600b018190806001815401808255809150506001900390600052602060002001600090919091909150555050565b600260009054906101000a900473ffffffffffffffffffffffffffffffffffffffff1681565b6060818073ffffffffffffffffffffffffffffffffffffffff163373ffffffffffffffffffffffffffffffffffffffff1614613941576040517f08c379a0000000000000000000000000000000000000000000000000000000008152600401613938906154a4565b60405180910390fd5b60008060008573ffffffffffffffffffffffffffffffffffffffff1673ffffffffffffffffffffffffffffffffffffffff168152602001908152602001600020600a018054806020026020016040519081016040528092919081815260200182805480156139ce57602002820191906000526020600020905b8154815260200190600101908083116139ba575b505050505090506000815167ffffffffffffffff8111156139f2576139f161425a565b5b604051908082528060200260200182016040528015613a2b57816020015b613a18613ef3565b815260200190600190039081613a105790505b50905060005b8251811015613e505760056000848381518110613a5157613a50615590565b5b60200260200101518152602001908152602001600020604051806101c0016040529081600082018054613a839061555f565b80601f0160208091040260200160405190810160405280929190818152602001828054613aaf9061555f565b8015613afc5780601f10613ad157610100808354040283529160200191613afc565b820191906000526020600020905b815481529060010190602001808311613adf57829003601f168201915b50505050508152602001600182018054613b159061555f565b80601f0160208091040260200160405190810160405280929190818152602001828054613b419061555f565b8015613b8e5780601f10613b6357610100808354040283529160200191613b8e565b820191906000526020600020905b815481529060010190602001808311613b7157829003601f168201915b50505050508152602001600282015481526020016003820160009054906101000a900473ffffffffffffffffffffffffffffffffffffffff1673ffffffffffffffffffffffffffffffffffffffff1673ffffffffffffffffffffffffffffffffffffffff1681526020016003820160149054906101000a900460ff166004811115613c1c57613c1b614504565b5b6004811115613c2e57613c2d614504565b5b81526020016004820154815260200160058201548152602001600682015481526020016007820154815260200160088201805480602002602001604051908101604052809291908181526020018280548015613cdf57602002820191906000526020600020905b8160009054906101000a900473ffffffffffffffffffffffffffffffffffffffff1673ffffffffffffffffffffffffffffffffffffffff1681526020019060010190808311613c95575b5050505050815260200160098201805480602002602001604051908101604052809291908181526020018280548015613d5c57602002820191906000526020600020906000905b82829054906101000a900460ff16151581526020019060010190602082600001049283019260010382029150808411613d265790505b50505050508152602001600a8201805480602002602001604051908101604052809291908181526020018280548015613db457602002820191906000526020600020905b815481526020019060010190808311613da0575b50505050508152602001600b8201805480602002602001604051908101604052809291908181526020018280548015613e0c57602002820191906000526020600020905b815481526020019060010190808311613df8575b50505050508152602001600c82015481525050828281518110613e3257613e31615590565b5b60200260200101819052508080613e4890615622565b915050613a31565b50809350505050919050565b806000808473ffffffffffffffffffffffffffffffffffffffff1673ffffffffffffffffffffffffffffffffffffffff168152602001908152602001600020600401819055505050565b828054828255906000526020600020908101928215613ee2579160200282015b82811115613ee1578251825591602001919060010190613ec6565b5b509050613eef9190613feb565b5090565b604051806101c00160405280606081526020016060815260200160008152602001600073ffffffffffffffffffffffffffffffffffffffff16815260200160006004811115613f4557613f44614504565b5b81526020016000815260200160008152602001600081526020016000815260200160608152602001606081526020016060815260200160608152602001600081525090565b508054613f969061555f565b6000825580601f10613fa85750613fc7565b601f016020900490600052602060002090810190613fc69190613feb565b5b50565b5080546000825590600052602060002090810190613fe89190613feb565b50565b5b80821115614004576000816000905550600101613fec565b5090565b6000604051905090565b600080fd5b600080fd5b600073ffffffffffffffffffffffffffffffffffffffff82169050919050565b60006140478261401c565b9050919050565b6140578161403c565b811461406257600080fd5b50565b6000813590506140748161404e565b92915050565b6000602082840312156140905761408f614012565b5b600061409e84828501614065565b91505092915050565b600081519050919050565b600082825260208201905092915050565b60005b838110156140e15780820151818401526020810190506140c6565b60008484015250505050565b6000601f19601f8301169050919050565b6000614109826140a7565b61411381856140b2565b93506141238185602086016140c3565b61412c816140ed565b840191505092915050565b6141408161403c565b82525050565b6000819050919050565b61415981614146565b82525050565b600060c082019050818103600083015261417981896140fe565b9050818103602083015261418d81886140fe565b905081810360408301526141a181876140fe565b90506141b06060830186614137565b6141bd6080830185614150565b81810360a08301526141cf81846140fe565b9050979650505050505050565b6141e581614146565b81146141f057600080fd5b50565b600081359050614202816141dc565b92915050565b60006020828403121561421e5761421d614012565b5b600061422c848285016141f3565b91505092915050565b600060208201905061424a6000830184614150565b92915050565b600080fd5b600080fd5b7f4e487b7100000000000000000000000000000000000000000000000000000000600052604160045260246000fd5b614292826140ed565b810181811067ffffffffffffffff821117156142b1576142b061425a565b5b80604052505050565b60006142c4614008565b90506142d08282614289565b919050565b600067ffffffffffffffff8211156142f0576142ef61425a565b5b6142f9826140ed565b9050602081019050919050565b82818337600083830152505050565b6000614328614323846142d5565b6142ba565b90508281526020810184848401111561434457614343614255565b5b61434f848285614306565b509392505050565b600082601f83011261436c5761436b614250565b5b813561437c848260208601614315565b91505092915050565b600080600080600060a086880312156143a1576143a0614012565b5b600086013567ffffffffffffffff8111156143bf576143be614017565b5b6143cb88828901614357565b955050602086013567ffffffffffffffff8111156143ec576143eb614017565b5b6143f888828901614357565b945050604086013567ffffffffffffffff81111561441957614418614017565b5b61442588828901614357565b935050606086013567ffffffffffffffff81111561444657614445614017565b5b61445288828901614357565b925050608061446388828901614065565b9150509295509295909350565b600081519050919050565b600082825260208201905092915050565b6000819050602082019050919050565b600082825260208201905092915050565b60006144b8826140a7565b6144c2818561449c565b93506144d28185602086016140c3565b6144db816140ed565b840191505092915050565b6144ef81614146565b82525050565b6144fe8161403c565b82525050565b7f4e487b7100000000000000000000000000000000000000000000000000000000600052602160045260246000fd5b6005811061454457614543614504565b5b50565b600081905061455582614533565b919050565b600061456582614547565b9050919050565b6145758161455a565b82525050565b600081519050919050565b600082825260208201905092915050565b6000819050602082019050919050565b60006145b383836144f5565b60208301905092915050565b6000602082019050919050565b60006145d78261457b565b6145e18185614586565b93506145ec83614597565b8060005b8381101561461d57815161460488826145a7565b975061460f836145bf565b9250506001810190506145f0565b5085935050505092915050565b600081519050919050565b600082825260208201905092915050565b6000819050602082019050919050565b60008115159050919050565b61466b81614656565b82525050565b600061467d8383614662565b60208301905092915050565b6000602082019050919050565b60006146a18261462a565b6146ab8185614635565b93506146b683614646565b8060005b838110156146e75781516146ce8882614671565b97506146d983614689565b9250506001810190506146ba565b5085935050505092915050565b600081519050919050565b600082825260208201905092915050565b6000819050602082019050919050565b600061472c83836144e6565b60208301905092915050565b6000602082019050919050565b6000614750826146f4565b61475a81856146ff565b935061476583614710565b8060005b8381101561479657815161477d8882614720565b975061478883614738565b925050600181019050614769565b5085935050505092915050565b60006101c08301600083015184820360008601526147c182826144ad565b915050602083015184820360208601526147db82826144ad565b91505060408301516147f060408601826144e6565b50606083015161480360608601826144f5565b506080830151614816608086018261456c565b5060a083015161482960a08601826144e6565b5060c083015161483c60c08601826144e6565b5060e083015161484f60e08601826144e6565b506101008301516148646101008601826144e6565b5061012083015184820361012086015261487e82826145cc565b91505061014083015184820361014086015261489a8282614696565b9150506101608301518482036101608601526148b68282614745565b9150506101808301518482036101808601526148d28282614745565b9150506101a08301516148e96101a08601826144e6565b508091505092915050565b600061490083836147a3565b905092915050565b6000602082019050919050565b600061492082614470565b61492a818561447b565b93508360208202850161493c8561448c565b8060005b85811015614978578484038952815161495985826148f4565b945061496483614908565b925060208a01995050600181019050614940565b50829750879550505050505092915050565b600060208201905081810360008301526149a48184614915565b905092915050565b6000819050919050565b60006149d16149cc6149c78461401c565b6149ac565b61401c565b9050919050565b60006149e3826149b6565b9050919050565b60006149f5826149d8565b9050919050565b614a05816149ea565b82525050565b6000602082019050614a2060008301846149fc565b92915050565b614a2f8161455a565b82525050565b6000602082019050614a4a6000830184614a26565b92915050565b60006040820190508181036000830152614a6a8185614915565b9050614a796020830184614150565b9392505050565b600082825260208201905092915050565b6000614a9c826146f4565b614aa68185614a80565b9350614ab183614710565b8060005b83811015614ae2578151614ac98882614720565b9750614ad483614738565b925050600181019050614ab5565b5085935050505092915050565b60006020820190508181036000830152614b098184614a91565b905092915050565b6000610140820190508181036000830152614b2c818d6140fe565b90508181036020830152614b40818c6140fe565b9050614b4f604083018b614150565b614b5c606083018a614137565b614b696080830189614a26565b614b7660a0830188614150565b614b8360c0830187614150565b614b9060e0830186614150565b614b9e610100830185614150565b614bac610120830184614150565b9b9a5050505050505050505050565b600082825260208201905092915050565b6000614bd78261457b565b614be18185614bbb565b9350614bec83614597565b8060005b83811015614c1d578151614c0488826145a7565b9750614c0f836145bf565b925050600181019050614bf0565b5085935050505092915050565b60006020820190508181036000830152614c448184614bcc565b905092915050565b6000610120820190508181036000830152614c67818c6140fe565b90508181036020830152614c7b818b6140fe565b90508181036040830152614c8f818a6140fe565b90508181036060830152614ca381896140fe565b9050614cb26080830188614150565b614cbf60a0830187614150565b614ccc60c0830186614137565b614cd960e0830185614150565b614ce7610100830184614150565b9a9950505050505050505050565b60006101c0830160008301518482036000860152614d1382826144ad565b91505060208301518482036020860152614d2d82826144ad565b9150506040830151614d4260408601826144e6565b506060830151614d5560608601826144f5565b506080830151614d68608086018261456c565b5060a0830151614d7b60a08601826144e6565b5060c0830151614d8e60c08601826144e6565b5060e0830151614da160e08601826144e6565b50610100830151614db66101008601826144e6565b50610120830151848203610120860152614dd082826145cc565b915050610140830151848203610140860152614dec8282614696565b915050610160830151848203610160860152614e088282614745565b915050610180830151848203610180860152614e248282614745565b9150506101a0830151614e3b6101a08601826144e6565b508091505092915050565b60006020820190508181036000830152614e608184614cf5565b905092915050565b600080600060608486031215614e8157614e80614012565b5b600084013567ffffffffffffffff811115614e9f57614e9e614017565b5b614eab86828701614357565b935050602084013567ffffffffffffffff811115614ecc57614ecb614017565b5b614ed886828701614357565b9250506040614ee986828701614065565b9150509250925092565b6000602082019050614f086000830184614137565b92915050565b600067ffffffffffffffff821115614f2957614f2861425a565b5b602082029050602081019050919050565b600080fd5b6000614f52614f4d84614f0e565b6142ba565b90508083825260208201905060208402830185811115614f7557614f74614f3a565b5b835b81811015614f9e5780614f8a88826141f3565b845260208401935050602081019050614f77565b5050509392505050565b600082601f830112614fbd57614fbc614250565b5b8135614fcd848260208601614f3f565b91505092915050565b60008060408385031215614fed57614fec614012565b5b600083013567ffffffffffffffff81111561500b5761500a614017565b5b61501785828601614fa8565b9250506020615028858286016141f3565b9150509250929050565b61503b81614656565b811461504657600080fd5b50565b60008135905061505881615032565b92915050565b6000806040838503121561507557615074614012565b5b6000615083858286016141f3565b925050602061509485828601615049565b9150509250929050565b600581106150ab57600080fd5b50565b6000813590506150bd8161509e565b92915050565b600080604083850312156150da576150d9614012565b5b60006150e8858286016141f3565b92505060206150f9858286016150ae565b9150509250929050565b60008060008060008060c087890312156151205761511f614012565b5b600061512e89828a01614065565b965050602061513f89828a016141f3565b955050604087013567ffffffffffffffff8111156151605761515f614017565b5b61516c89828a01614357565b945050606087013567ffffffffffffffff81111561518d5761518c614017565b5b61519989828a01614357565b93505060806151aa89828a016141f3565b92505060a06151bb89828a016141f3565b9150509295509295509295565b600080600080600080600060e0888a0312156151e7576151e6614012565b5b60006151f58a828b01614065565b97505060206152068a828b016141f3565b96505060406152178a828b016141f3565b955050606088013567ffffffffffffffff81111561523857615237614017565b5b6152448a828b01614357565b945050608088013567ffffffffffffffff81111561526557615264614017565b5b6152718a828b01614357565b93505060a06152828a828b016141f3565b92505060c06152938a828b016141f3565b91505092959891949750929550565b600067ffffffffffffffff8211156152bd576152bc61425a565b5b602082029050602081019050919050565b60006152e16152dc846152a2565b6142ba565b9050808382526020820190506020840283018581111561530457615303614f3a565b5b835b8181101561532d57806153198882615049565b845260208401935050602081019050615306565b5050509392505050565b600082601f83011261534c5761534b614250565b5b813561535c8482602086016152ce565b91505092915050565b60006020828403121561537b5761537a614012565b5b600082013567ffffffffffffffff81111561539957615398614017565b5b6153a584828501615337565b91505092915050565b6153b781614656565b82525050565b60006020820190506153d260008301846153ae565b92915050565b600080604083850312156153ef576153ee614012565b5b60006153fd858286016141f3565b925050602061540e858286016141f3565b9150509250929050565b6000806040838503121561542f5761542e614012565b5b600061543d85828601614065565b925050602061544e858286016141f3565b9150509250929050565b7f43616c6c6572206973206e6f74206f776e657200000000000000000000000000600082015250565b600061548e6013836140b2565b915061549982615458565b602082019050919050565b600060208201905081810360008301526154bd81615481565b9050919050565b7f506172747920646f6573206e6f74206578697374000000000000000000000000600082015250565b60006154fa6014836140b2565b9150615505826154c4565b602082019050919050565b60006020820190508181036000830152615529816154ed565b9050919050565b7f4e487b7100000000000000000000000000000000000000000000000000000000600052602260045260246000fd5b6000600282049050600182168061557757607f821691505b60208210810361558a57615589615530565b5b50919050565b7f4e487b7100000000000000000000000000000000000000000000000000000000600052603260045260246000fd5b7f4e487b7100000000000000000000000000000000000000000000000000000000600052601160045260246000fd5b60006155f982614146565b915061560483614146565b925082820190508082111561561c5761561b6155bf565b5b92915050565b600061562d82614146565b91507fffffffffffffffffffffffffffffffffffffffffffffffffffffffffffffffff820361565f5761565e6155bf565b5b600182019050919050565b7f506172747920616c726561647920657869737473000000000000000000000000600082015250565b60006156a06014836140b2565b91506156ab8261566a565b602082019050919050565b600060208201905081810360008301526156cf81615693565b9050919050565b60008190508160005260206000209050919050565b60006020601f8301049050919050565b600082821b905092915050565b6000600883026157387fffffffffffffffffffffffffffffffffffffffffffffffffffffffffffffffff826156fb565b61574286836156fb565b95508019841693508086168417925050509392505050565b600061577561577061576b84614146565b6149ac565b614146565b9050919050565b6000819050919050565b61578f8361575a565b6157a361579b8261577c565b848454615708565b825550505050565b600090565b6157b86157ab565b6157c3818484615786565b505050565b5b818110156157e7576157dc6000826157b0565b6001810190506157c9565b5050565b601f82111561582c576157fd816156d6565b615806846156eb565b81016020851015615815578190505b615829615821856156eb565b8301826157c8565b50505b505050565b600082821c905092915050565b600061584f60001984600802615831565b1980831691505092915050565b6000615868838361583e565b9150826002028217905092915050565b615881826140a7565b67ffffffffffffffff81111561589a5761589961425a565b5b6158a4825461555f565b6158af8282856157eb565b600060209050601f8311600181146158e257600084156158d0578287015190505b6158da858261585c565b865550615942565b601f1984166158f0866156d6565b60005b82811015615918578489015182556001820191506020850194506020810190506158f3565b868310156159355784890151615931601f89168261583e565b8355505b6001600288020188555050505b505050505050565b7f4e6f2074656e6465727320657869737473000000000000000000000000000000600082015250565b60006159806011836140b2565b915061598b8261594a565b602082019050919050565b600060208201905081810360008301526159af81615973565b9050919050565b7f74656e6465722077697468206164647265737320646f65736e2774206578697360008201527f7473000000000000000000000000000000000000000000000000000000000000602082015250565b6000615a126022836140b2565b9150615a1d826159b6565b604082019050919050565b60006020820190508181036000830152615a4181615a05565b9050919050565b7f4e487b7100000000000000000000000000000000000000000000000000000000600052603160045260246000fd5b7f596f75277265206e6f7420617574686f72697a656420746f2076616c6964617460008201527f6520746869732074656e6465722e000000000000000000000000000000000000602082015250565b6000615ad3602e836140b2565b9150615ade82615a77565b604082019050919050565b60006020820190508181036000830152615b0281615ac6565b9050919050565b7f4e487b7100000000000000000000000000000000000000000000000000000000600052601260045260246000fd5b6000615b4382614146565b9150615b4e83614146565b925082615b5e57615b5d615b09565b5b828204905092915050565b7f696e73756666696369656e742066756e647320746f206372656174652061207460008201527f656e646572000000000000000000000000000000000000000000000000000000602082015250565b6000615bc56025836140b2565b9150615bd082615b69565b604082019050919050565b60006020820190508181036000830152615bf481615bb8565b9050919050565b6000615c0682614146565b9150615c1183614146565b9250828203905081811115615c2957615c286155bf565b5b92915050565b7f796f75277265206e6f7420617574686f72697a656420746f20706572666f726d60008201527f207468697320616374696f6e0000000000000000000000000000000000000000602082015250565b6000615c8b602c836140b2565b9150615c9682615c2f565b604082019050919050565b60006020820190508181036000830152615cba81615c7e565b9050919050565b7f74656e6465722063616e6e6f7420626520757064617465640000000000000000600082015250565b6000615cf76018836140b2565b9150615d0282615cc1565b602082019050919050565b60006020820190508181036000830152615d2681615cea565b905091905056fea26469706673582212201b13fb479beed3e38140fb5ee5d92ae32fcbb10479e706903d1cb0fc0cbb923c64736f6c63430008130033",
  "immutableReferences": {},
  "source": "// SPDX-License-Identifier: UNLICENSED\r\n\r\n//the version of solidity that is compatible\r\nimport \"./PartyContract.sol\";\r\nenum TenderStatus{ NEW, OPEN, CLOSED, SUSPENDED, ASSIGNED } //created---OPEN, deadline crosses---CLOSED, project is assigned ---- ASSIGNED\r\nimport \"./Token.sol\";\r\n\r\npragma solidity ^0.8.0;\r\ncontract TenderContract is PartyContract {\r\n    // Tender Structure\r\n    struct Tender {\r\n        string title;\r\n        string description;\r\n        uint256 budget;\r\n        address issuerAddress;\r\n        TenderStatus tenderStatus; \r\n        uint256 createdAt;\r\n        uint256 deadline;\r\n        uint256 totalMilestones;\r\n        uint256 tenderId;\r\n        address[] validatorsAddresses;\r\n        bool[] validationVotes;\r\n        uint256[] milestoneTimePeriods;\r\n        uint256[] bidIds;\r\n        uint256 balance;\r\n    }\r\n\r\n    // Token public tokenRef;\r\n\r\n    constructor(Token _tokenRef) PartyContract(_tokenRef){\r\n        // tokenRef = _tokenRef;\r\n    }\r\n\r\n    mapping (uint256 => Tender) public tenders;\r\n    uint256 tenderCount = 0;\r\n\r\n    //setters and getter functions\r\n    function getTenderCount() public view returns(uint256){\r\n        return tenderCount;\r\n    }\r\n    \r\n    function getValidators(uint256 _tenderId) public view returns(address[] memory) {\r\n        return tenders[_tenderId].validatorsAddresses;\r\n    }\r\n    \r\n    function getTotalProjectDays(uint256 _tenderId) public view returns(uint256) {\r\n        uint256 sum = 0;\r\n        uint256[] memory milestoneTimePeriods = tenders[_tenderId].milestoneTimePeriods;\r\n        uint256 len = milestoneTimePeriods.length;\r\n        for(uint256 i=0; i < len; i++) {\r\n            sum += milestoneTimePeriods[i];\r\n        }\r\n        return sum;\r\n    }\r\n\r\n    function getBudget(uint256 _tenderId) public view returns(uint256){\r\n        return tenders[_tenderId].budget;\r\n    }\r\n\r\n    function getTenderStatus(uint256 _tenderId) public view returns(TenderStatus){\r\n        return tenders[_tenderId].tenderStatus;\r\n    }\r\n\r\n    function getDeadline(uint256 _tenderId) public view returns(uint256){\r\n            return tenders[_tenderId].deadline;\r\n    }\r\n\r\n    function getBidIds(uint256 _tenderId) public view returns(uint256[] memory){\r\n        return tenders[_tenderId].bidIds;\r\n    }\r\n\r\n    function getIssuerAddress(uint256 _tenderId) public view returns(address){\r\n        return tenders[_tenderId].issuerAddress;\r\n    }\r\n\r\n    function getTotalMilestones(uint256 _tenderId) public view returns(uint256){\r\n            return tenders[_tenderId].totalMilestones;\r\n    }\r\n\r\n    function getBidsCount(uint256 _tenderId) public view returns(uint256){\r\n            return tenders[_tenderId].bidIds.length;\r\n    }\r\n\r\n    function addBidId(uint256 _tenderId, uint256 bidId) public {\r\n        tenders[_tenderId].bidIds.push(bidId);\r\n    }\r\n\r\n    function setBidIds(uint256[] memory _tenderBidIds, uint256 _tenderId) public{\r\n        tenders[_tenderId].bidIds = _tenderBidIds;\r\n        tenders[_tenderId].bidIds.pop();\r\n    }\r\n\r\n\r\n    // function deleteBidId(uint256 _tenderId, uint256 _bidId) public {\r\n    //     uint256[] storage tenderBidIds = tenders[_tenderId].bidIds;\r\n    //     for (uint i = 0; i < tenderBidIds.length; i++){\r\n    //         if(tenderBidIds[i] == _bidId){\r\n    //             tenderBidIds[i] = tenderBidIds[tenderBidIds.length - 1];\r\n    //             delete tenderBidIds[tenderBidIds.length - 1];\r\n    //             break;\r\n    //         }\r\n    //     }\r\n    // }\r\n\r\n    // Function for creating a tender\r\n    function createTender(address _partyAddress, uint256 _budget, string memory _title, string memory _description, uint256 _deadline, uint256 _totalMilestones) isOwner(_partyAddress) public {\r\n        require(_partyAddress.balance >= _budget/2, \"insufficient funds to create a tender\");\r\n        Tender storage newTender = tenders[tenderCount];\r\n        newTender.title = _title;\r\n        newTender.description = _description;\r\n        newTender.budget = _budget;\r\n        newTender.tenderStatus = TenderStatus.NEW;\r\n        newTender.createdAt = block.timestamp;\r\n        newTender.deadline = _deadline;\r\n        newTender.issuerAddress = _partyAddress;\r\n        newTender.tenderId = tenderCount;\r\n        newTender.totalMilestones = _totalMilestones;\r\n        //Sort all the parties by their trust scores\r\n        address[] memory sortedlist = sortByTrustScore();\r\n        uint len = sortedlist.length;\r\n        uint count = 0;\r\n        //If there are less than 10 parties then set number to parties to len\r\n        len = (len < 10)?len:10;\r\n        //Add the validator addresses to validatorsAddresses array, also add tenderId to tenderIdsToValidate array\r\n        while(count < len && count < 10)\r\n        {\r\n            if(sortedlist[len-count-1] != parties[msg.sender].partyAddress)\r\n            {\r\n            newTender.validatorsAddresses.push(sortedlist[len-count-1]);\r\n            parties[sortedlist[len-count-1]].tenderIdsToValidate.push(tenderCount);\r\n            count ++;\r\n            }\r\n        }\r\n        parties[_partyAddress].tenderIds.push(tenderCount);\r\n        tenderCount++;\r\n    }\r\n\r\n    //Function to sort all the parties by their trust score\r\n    function sortByTrustScore() public view returns(address[] memory) {\r\n    address[] memory _party = partyAddresses;\r\n    for (uint i = 1; i < partyAddresses.length; i++)\r\n        for (uint j = 0; j < i; j++)\r\n            if (parties[_party[i]].trustScore < parties[_party[j]].trustScore) {\r\n                address x = _party[i];\r\n                _party[i] = _party[j];\r\n                _party[j] = x;\r\n            }\r\n\r\n    return _party;\r\n    }\r\n    \r\n    //Function using which validators can validate tenders\r\n    function validate(uint256 _tenderId, bool _vote) public {\r\n        bool valid = false;\r\n        Tender storage newTender = tenders[_tenderId];\r\n        uint len = newTender.validatorsAddresses.length;\r\n        for(uint i=0; i<len; i++)\r\n        {\r\n            if(newTender.validatorsAddresses[i] == msg.sender)\r\n            {\r\n                valid = true;\r\n                break;\r\n            }\r\n        }\r\n        if(valid)\r\n        {\r\n            if(_vote) {\r\n                newTender.validationVotes.push(_vote); // adds vote only if transaction is successful\r\n                \r\n            }\r\n        }\r\n        else\r\n        {\r\n            revert(\"You're not authorized to validate this tender.\");\r\n        }\r\n    }\r\n    \r\n    //Check if the tender is ongoing\r\n    function checkTenderValidation(uint256 _tenderId) public {\r\n        Tender storage newTender = tenders[_tenderId];\r\n        if(isValid(newTender.validationVotes)) {\r\n            updateTenderStatus(_tenderId, TenderStatus.OPEN);\r\n        }\r\n    }\r\n    \r\n    //Check if a tender is valid or not i.e., it got minimum 6 positive votes\r\n    function isValid(bool[] memory _validationVotes) public pure returns (bool) {\r\n        uint voteCount = 0;\r\n        uint256 totalValidators = _validationVotes.length;\r\n        for(uint i=0; i<totalValidators; i++)\r\n        {\r\n            if(_validationVotes[i])\r\n            {\r\n                voteCount++;\r\n            }\r\n        }\r\n\r\n        if(voteCount > (totalValidators/2))\r\n        {\r\n            return true;\r\n        }\r\n        return false;\r\n    }\r\n\r\n    function getTendersToValidate(address _partyAddress) public isOwner(_partyAddress) view returns(Tender[] memory){\r\n        uint256[] memory tendersIdsToValidate = parties[_partyAddress].tenderIdsToValidate;\r\n         Tender[] memory tendersList = new Tender[](tendersIdsToValidate.length);\r\n        for (uint256 i = 0; i < tendersIdsToValidate.length; i++) {\r\n            tendersList[i] = tenders[tendersIdsToValidate[i]];\r\n        }\r\n        return(tendersList);\r\n    }\r\n\r\n    function getAllActiveTenders() public view returns (Tender[] memory, uint256){\r\n        require(tenderCount > 0, \"No tenders exists\");\r\n        uint256 count=0;\r\n        Tender[] memory tendersList = new Tender[](tenderCount);\r\n        for (uint256 i = 0; i < tenderCount; i++) {\r\n            if(tenders[i].tenderStatus == TenderStatus.OPEN){\r\n                 tendersList[i] = tenders[i];\r\n                 count++;\r\n            }\r\n        }\r\n        return(tendersList, count);\r\n    }\r\n\r\n    function getMyTenders(address _partyAddress) public view returns ( Tender[] memory){\r\n        require(parties[_partyAddress].tenderIds.length > 0, \"No tenders exists\");\r\n        uint256[] memory partyTenderIds = parties[_partyAddress].tenderIds;\r\n        Tender[] memory tendersList = new Tender[](partyTenderIds.length);\r\n        for (uint256 i = 0; i < partyTenderIds.length; i++) {\r\n            tendersList[i] = tenders[partyTenderIds[i]];\r\n        }\r\n        return(tendersList);\r\n    }\r\n\r\n    function getTenderDetails(uint256 _tenderId) public view returns ( Tender memory){\r\n        require(tenders[_tenderId].budget > 0 , \"tender with address doesn't exists\");\r\n        return(tenders[_tenderId]);\r\n    }\r\n\r\n    function updateTenderStatus(uint256 _tenderId, TenderStatus _tenderStatus) public {\r\n        Tender storage updatedTender = tenders[_tenderId];\r\n        updatedTender.tenderStatus = _tenderStatus;\r\n    }\r\n\r\n    function updateTender(address _partyAddress, uint256 _tenderId, uint256 _budget, string memory _title, string memory _description, uint256 _deadline, uint256 _totalMilestones) public isTenderOwner(_partyAddress, _tenderId){\r\n        require(parties[_partyAddress].tenderIds.length > 0, \"No tenders exists\");\r\n        require(tenders[_tenderId].budget > 0 , \"tender with address doesn't exists\");\r\n        require(tenders[_tenderId].tenderStatus == TenderStatus.NEW ||\r\n                tenders[_tenderId].tenderStatus == TenderStatus.SUSPENDED , \"tender cannot be updated\");\r\n        Tender storage updatedTender = tenders[_tenderId];\r\n        updatedTender.budget = _budget;\r\n        updatedTender.title = _title;\r\n        updatedTender.description = _description;\r\n        updatedTender.deadline = _deadline;\r\n        updatedTender.totalMilestones = _totalMilestones;\r\n    }\r\n\r\n    // function deleteTender(address _partyAddress, uint256 _tenderId) public isTenderOwner(_partyAddress, _tenderId){ \r\n    //     require(parties[_partyAddress].tenderIds.length > 0, \"No tenders exists\");\r\n    //     require(tenders[_tenderId].budget > 0 , \"tender with address doesn't exists\");\r\n    //     require(tenders[_tenderId].tenderStatus == TenderStatus.NEW , \"tender cannot be deleted\");\r\n    //     uint256[] storage _tenderIds = parties[_partyAddress].tenderIds;\r\n    //     for (uint i = 0; i < _tenderIds.length; i++){\r\n    //         if(_tenderIds[i] == _tenderId){\r\n    //             delete tenders[_tenderId];\r\n    //             _tenderIds[i] = _tenderIds[_tenderIds.length - 1];\r\n    //             _tenderIds.pop();\r\n    //             break;\r\n    //         }\r\n    //     }\r\n    // }\r\n\r\n    // @todo - add modifer for above functions\r\n\r\n    modifier isTenderOwner(address _partyAddress, uint256 _tenderId) {\r\n        require(tenders[_tenderId].issuerAddress == _partyAddress, \"you're not authorized to perform this action\");\r\n        _;\r\n    }\r\n\r\n    \r\n}\r\n",
  "sourcePath": "C:\\Users\\sabba\\OneDrive\\Documents\\BlockchainProject\\blockchain-based-contracting-system\\contracts\\TenderContract.sol",
  "compiler": {
    "name": "solc",
    "version": "0.8.19+commit.7dd6d404.Emscripten.clang"
  },
  "schemaVersion": "3.4.13",
  "updatedAt": "2023-04-15T12:29:32.860Z",
  "networkType": "ethereum",
  "devdoc": {
    "kind": "dev",
    "methods": {},
    "version": 1
  },
  "userdoc": {
    "kind": "user",
    "methods": {},
    "version": 1
  }
}