{
  "contractName": "Token",
  "abi": [
    {
      "inputs": [
        {
          "internalType": "uint256",
          "name": "initialSupply",
          "type": "uint256"
        }
      ],
      "stateMutability": "nonpayable",
      "type": "constructor"
    },
    {
      "anonymous": false,
      "inputs": [
        {
          "indexed": true,
          "internalType": "address",
          "name": "owner",
          "type": "address"
        },
        {
          "indexed": true,
          "internalType": "address",
          "name": "spender",
          "type": "address"
        },
        {
          "indexed": false,
          "internalType": "uint256",
          "name": "value",
          "type": "uint256"
        }
      ],
      "name": "Approval",
      "type": "event"
    },
    {
      "anonymous": false,
      "inputs": [
        {
          "indexed": true,
          "internalType": "address",
          "name": "from",
          "type": "address"
        },
        {
          "indexed": true,
          "internalType": "address",
          "name": "to",
          "type": "address"
        },
        {
          "indexed": false,
          "internalType": "uint256",
          "name": "value",
          "type": "uint256"
        }
      ],
      "name": "Transfer",
      "type": "event"
    },
    {
      "inputs": [
        {
          "internalType": "address",
          "name": "owner",
          "type": "address"
        },
        {
          "internalType": "address",
          "name": "spender",
          "type": "address"
        }
      ],
      "name": "allowance",
      "outputs": [
        {
          "internalType": "uint256",
          "name": "",
          "type": "uint256"
        }
      ],
      "stateMutability": "view",
      "type": "function",
      "constant": true
    },
    {
      "inputs": [
        {
          "internalType": "address",
          "name": "spender",
          "type": "address"
        },
        {
          "internalType": "uint256",
          "name": "amount",
          "type": "uint256"
        }
      ],
      "name": "approve",
      "outputs": [
        {
          "internalType": "bool",
          "name": "",
          "type": "bool"
        }
      ],
      "stateMutability": "nonpayable",
      "type": "function"
    },
    {
      "inputs": [],
      "name": "decimals",
      "outputs": [
        {
          "internalType": "uint8",
          "name": "",
          "type": "uint8"
        }
      ],
      "stateMutability": "view",
      "type": "function",
      "constant": true
    },
    {
      "inputs": [
        {
          "internalType": "address",
          "name": "spender",
          "type": "address"
        },
        {
          "internalType": "uint256",
          "name": "subtractedValue",
          "type": "uint256"
        }
      ],
      "name": "decreaseAllowance",
      "outputs": [
        {
          "internalType": "bool",
          "name": "",
          "type": "bool"
        }
      ],
      "stateMutability": "nonpayable",
      "type": "function"
    },
    {
      "inputs": [
        {
          "internalType": "address",
          "name": "spender",
          "type": "address"
        },
        {
          "internalType": "uint256",
          "name": "addedValue",
          "type": "uint256"
        }
      ],
      "name": "increaseAllowance",
      "outputs": [
        {
          "internalType": "bool",
          "name": "",
          "type": "bool"
        }
      ],
      "stateMutability": "nonpayable",
      "type": "function"
    },
    {
      "inputs": [],
      "name": "name",
      "outputs": [
        {
          "internalType": "string",
          "name": "",
          "type": "string"
        }
      ],
      "stateMutability": "view",
      "type": "function",
      "constant": true
    },
    {
      "inputs": [],
      "name": "symbol",
      "outputs": [
        {
          "internalType": "string",
          "name": "",
          "type": "string"
        }
      ],
      "stateMutability": "view",
      "type": "function",
      "constant": true
    },
    {
      "inputs": [],
      "name": "totalSupply",
      "outputs": [
        {
          "internalType": "uint256",
          "name": "",
          "type": "uint256"
        }
      ],
      "stateMutability": "view",
      "type": "function",
      "constant": true
    },
    {
      "inputs": [
        {
          "internalType": "address",
          "name": "account",
          "type": "address"
        }
      ],
      "name": "balanceOf",
      "outputs": [
        {
          "internalType": "uint256",
          "name": "",
          "type": "uint256"
        }
      ],
      "stateMutability": "view",
      "type": "function",
      "constant": true
    },
    {
      "inputs": [
        {
          "internalType": "address",
          "name": "recipient",
          "type": "address"
        },
        {
          "internalType": "uint256",
          "name": "amount",
          "type": "uint256"
        }
      ],
      "name": "transfer",
      "outputs": [
        {
          "internalType": "bool",
          "name": "",
          "type": "bool"
        }
      ],
      "stateMutability": "nonpayable",
      "type": "function"
    },
    {
      "inputs": [
        {
          "internalType": "address",
          "name": "from",
          "type": "address"
        },
        {
          "internalType": "address",
          "name": "to",
          "type": "address"
        },
        {
          "internalType": "uint256",
          "name": "amount",
          "type": "uint256"
        }
      ],
      "name": "transferFrom",
      "outputs": [
        {
          "internalType": "bool",
          "name": "",
          "type": "bool"
        }
      ],
      "stateMutability": "nonpayable",
      "type": "function"
    },
    {
      "inputs": [
        {
          "internalType": "address",
          "name": "sender",
          "type": "address"
        },
        {
          "internalType": "address",
          "name": "recipient",
          "type": "address"
        },
        {
          "internalType": "uint256",
          "name": "amount",
          "type": "uint256"
        },
        {
          "internalType": "uint256",
          "name": "senderFreezedBalanace",
          "type": "uint256"
        }
      ],
      "name": "transferFrom",
      "outputs": [
        {
          "internalType": "bool",
          "name": "",
          "type": "bool"
        }
      ],
      "stateMutability": "nonpayable",
      "type": "function"
    }
  ],
  "bytecode": "0x60806040523480156200001157600080fd5b5060405162001bb138038062001bb18339818101604052810190620000379190620002ae565b6040518060400160405280600a81526020017f41534b5320546f6b656e000000000000000000000000000000000000000000008152506040518060400160405280600481526020017f41534b53000000000000000000000000000000000000000000000000000000008152508160039081620000b4919062000550565b508060049081620000c6919062000550565b505050620000f033670de0b6b3a764000083620000e4919062000666565b620000f760201b60201c565b506200079d565b600073ffffffffffffffffffffffffffffffffffffffff168273ffffffffffffffffffffffffffffffffffffffff160362000169576040517f08c379a0000000000000000000000000000000000000000000000000000000008152600401620001609062000712565b60405180910390fd5b6200017d600083836200026460201b60201c565b806002600082825462000191919062000734565b92505081905550806000808473ffffffffffffffffffffffffffffffffffffffff1673ffffffffffffffffffffffffffffffffffffffff168152602001908152602001600020600082825401925050819055508173ffffffffffffffffffffffffffffffffffffffff16600073ffffffffffffffffffffffffffffffffffffffff167fddf252ad1be2c89b69c2b068fc378daa952ba7f163c4a11628f55a4df523b3ef8360405162000244919062000780565b60405180910390a362000260600083836200026960201b60201c565b5050565b505050565b505050565b600080fd5b6000819050919050565b620002888162000273565b81146200029457600080fd5b50565b600081519050620002a8816200027d565b92915050565b600060208284031215620002c757620002c66200026e565b5b6000620002d78482850162000297565b91505092915050565b600081519050919050565b7f4e487b7100000000000000000000000000000000000000000000000000000000600052604160045260246000fd5b7f4e487b7100000000000000000000000000000000000000000000000000000000600052602260045260246000fd5b600060028204905060018216806200036257607f821691505b6020821081036200037857620003776200031a565b5b50919050565b60008190508160005260206000209050919050565b60006020601f8301049050919050565b600082821b905092915050565b600060088302620003e27fffffffffffffffffffffffffffffffffffffffffffffffffffffffffffffffff82620003a3565b620003ee8683620003a3565b95508019841693508086168417925050509392505050565b6000819050919050565b6000620004316200042b620004258462000273565b62000406565b62000273565b9050919050565b6000819050919050565b6200044d8362000410565b620004656200045c8262000438565b848454620003b0565b825550505050565b600090565b6200047c6200046d565b6200048981848462000442565b505050565b5b81811015620004b157620004a560008262000472565b6001810190506200048f565b5050565b601f8211156200050057620004ca816200037e565b620004d58462000393565b81016020851015620004e5578190505b620004fd620004f48562000393565b8301826200048e565b50505b505050565b600082821c905092915050565b6000620005256000198460080262000505565b1980831691505092915050565b600062000540838362000512565b9150826002028217905092915050565b6200055b82620002e0565b67ffffffffffffffff811115620005775762000576620002eb565b5b62000583825462000349565b62000590828285620004b5565b600060209050601f831160018114620005c85760008415620005b3578287015190505b620005bf858262000532565b8655506200062f565b601f198416620005d8866200037e565b60005b828110156200060257848901518255600182019150602085019450602081019050620005db565b868310156200062257848901516200061e601f89168262000512565b8355505b6001600288020188555050505b505050505050565b7f4e487b7100000000000000000000000000000000000000000000000000000000600052601160045260246000fd5b6000620006738262000273565b9150620006808362000273565b9250828202620006908162000273565b91508282048414831517620006aa57620006a962000637565b5b5092915050565b600082825260208201905092915050565b7f45524332303a206d696e7420746f20746865207a65726f206164647265737300600082015250565b6000620006fa601f83620006b1565b91506200070782620006c2565b602082019050919050565b600060208201905081810360008301526200072d81620006eb565b9050919050565b6000620007418262000273565b91506200074e8362000273565b925082820190508082111562000769576200076862000637565b5b92915050565b6200077a8162000273565b82525050565b60006020820190506200079760008301846200076f565b92915050565b61140480620007ad6000396000f3fe608060405234801561001057600080fd5b50600436106100b45760003560e01c806370a082311161007157806370a08231146101a357806395d89b41146101d3578063a457c2d7146101f1578063a9059cbb14610221578063dd62ed3e14610251578063fe99049a14610281576100b4565b806306fdde03146100b9578063095ea7b3146100d757806318160ddd1461010757806323b872dd14610125578063313ce567146101555780633950935114610173575b600080fd5b6100c16102b1565b6040516100ce9190610bda565b60405180910390f35b6100f160048036038101906100ec9190610c95565b610343565b6040516100fe9190610cf0565b60405180910390f35b61010f610366565b60405161011c9190610d1a565b60405180910390f35b61013f600480360381019061013a9190610d35565b610370565b60405161014c9190610cf0565b60405180910390f35b61015d61039f565b60405161016a9190610da4565b60405180910390f35b61018d60048036038101906101889190610c95565b6103a8565b60405161019a9190610cf0565b60405180910390f35b6101bd60048036038101906101b89190610dbf565b6103df565b6040516101ca9190610d1a565b60405180910390f35b6101db6103f1565b6040516101e89190610bda565b60405180910390f35b61020b60048036038101906102069190610c95565b610483565b6040516102189190610cf0565b60405180910390f35b61023b60048036038101906102369190610c95565b6104fa565b6040516102489190610cf0565b60405180910390f35b61026b60048036038101906102669190610dec565b61050e565b6040516102789190610d1a565b60405180910390f35b61029b60048036038101906102969190610e2c565b610595565b6040516102a89190610cf0565b60405180910390f35b6060600380546102c090610ec2565b80601f01602080910402602001604051908101604052809291908181526020018280546102ec90610ec2565b80156103395780601f1061030e57610100808354040283529160200191610339565b820191906000526020600020905b81548152906001019060200180831161031c57829003601f168201915b5050505050905090565b60008061034e610602565b905061035b81858561060a565b600191505092915050565b6000600254905090565b60008061037b610602565b90506103888582856107d3565b61039385858561085f565b60019150509392505050565b60006012905090565b6000806103b3610602565b90506103d48185856103c5858961050e565b6103cf9190610f22565b61060a565b600191505092915050565b60006103ea82610ad5565b9050919050565b60606004805461040090610ec2565b80601f016020809104026020016040519081016040528092919081815260200182805461042c90610ec2565b80156104795780601f1061044e57610100808354040283529160200191610479565b820191906000526020600020905b81548152906001019060200180831161045c57829003601f168201915b5050505050905090565b60008061048e610602565b9050600061049c828661050e565b9050838110156104e1576040517f08c379a00000000000000000000000000000000000000000000000000000000081526004016104d890610fc8565b60405180910390fd5b6104ee828686840361060a565b60019250505092915050565b60006105068383610b1d565b905092915050565b6000600160008473ffffffffffffffffffffffffffffffffffffffff1673ffffffffffffffffffffffffffffffffffffffff16815260200190815260200160002060008373ffffffffffffffffffffffffffffffffffffffff1673ffffffffffffffffffffffffffffffffffffffff16815260200190815260200160002054905092915050565b600082826105a2876103df565b6105ac9190610fe8565b10156105ed576040517f08c379a00000000000000000000000000000000000000000000000000000000081526004016105e490611068565b60405180910390fd5b6105f8858585610370565b9050949350505050565b600033905090565b600073ffffffffffffffffffffffffffffffffffffffff168373ffffffffffffffffffffffffffffffffffffffff1603610679576040517f08c379a0000000000000000000000000000000000000000000000000000000008152600401610670906110fa565b60405180910390fd5b600073ffffffffffffffffffffffffffffffffffffffff168273ffffffffffffffffffffffffffffffffffffffff16036106e8576040517f08c379a00000000000000000000000000000000000000000000000000000000081526004016106df9061118c565b60405180910390fd5b80600160008573ffffffffffffffffffffffffffffffffffffffff1673ffffffffffffffffffffffffffffffffffffffff16815260200190815260200160002060008473ffffffffffffffffffffffffffffffffffffffff1673ffffffffffffffffffffffffffffffffffffffff168152602001908152602001600020819055508173ffffffffffffffffffffffffffffffffffffffff168373ffffffffffffffffffffffffffffffffffffffff167f8c5be1e5ebec7d5bd14f71427d1e84f3dd0314c0f7b2291e5b200ac8c7c3b925836040516107c69190610d1a565b60405180910390a3505050565b60006107df848461050e565b90507fffffffffffffffffffffffffffffffffffffffffffffffffffffffffffffffff8114610859578181101561084b576040517f08c379a0000000000000000000000000000000000000000000000000000000008152600401610842906111f8565b60405180910390fd5b610858848484840361060a565b5b50505050565b600073ffffffffffffffffffffffffffffffffffffffff168373ffffffffffffffffffffffffffffffffffffffff16036108ce576040517f08c379a00000000000000000000000000000000000000000000000000000000081526004016108c59061128a565b60405180910390fd5b600073ffffffffffffffffffffffffffffffffffffffff168273ffffffffffffffffffffffffffffffffffffffff160361093d576040517f08c379a00000000000000000000000000000000000000000000000000000000081526004016109349061131c565b60405180910390fd5b610948838383610b40565b60008060008573ffffffffffffffffffffffffffffffffffffffff1673ffffffffffffffffffffffffffffffffffffffff168152602001908152602001600020549050818110156109ce576040517f08c379a00000000000000000000000000000000000000000000000000000000081526004016109c5906113ae565b60405180910390fd5b8181036000808673ffffffffffffffffffffffffffffffffffffffff1673ffffffffffffffffffffffffffffffffffffffff16815260200190815260200160002081905550816000808573ffffffffffffffffffffffffffffffffffffffff1673ffffffffffffffffffffffffffffffffffffffff168152602001908152602001600020600082825401925050819055508273ffffffffffffffffffffffffffffffffffffffff168473ffffffffffffffffffffffffffffffffffffffff167fddf252ad1be2c89b69c2b068fc378daa952ba7f163c4a11628f55a4df523b3ef84604051610abc9190610d1a565b60405180910390a3610acf848484610b45565b50505050565b60008060008373ffffffffffffffffffffffffffffffffffffffff1673ffffffffffffffffffffffffffffffffffffffff168152602001908152602001600020549050919050565b600080610b28610602565b9050610b3581858561085f565b600191505092915050565b505050565b505050565b600081519050919050565b600082825260208201905092915050565b60005b83811015610b84578082015181840152602081019050610b69565b60008484015250505050565b6000601f19601f8301169050919050565b6000610bac82610b4a565b610bb68185610b55565b9350610bc6818560208601610b66565b610bcf81610b90565b840191505092915050565b60006020820190508181036000830152610bf48184610ba1565b905092915050565b600080fd5b600073ffffffffffffffffffffffffffffffffffffffff82169050919050565b6000610c2c82610c01565b9050919050565b610c3c81610c21565b8114610c4757600080fd5b50565b600081359050610c5981610c33565b92915050565b6000819050919050565b610c7281610c5f565b8114610c7d57600080fd5b50565b600081359050610c8f81610c69565b92915050565b60008060408385031215610cac57610cab610bfc565b5b6000610cba85828601610c4a565b9250506020610ccb85828601610c80565b9150509250929050565b60008115159050919050565b610cea81610cd5565b82525050565b6000602082019050610d056000830184610ce1565b92915050565b610d1481610c5f565b82525050565b6000602082019050610d2f6000830184610d0b565b92915050565b600080600060608486031215610d4e57610d4d610bfc565b5b6000610d5c86828701610c4a565b9350506020610d6d86828701610c4a565b9250506040610d7e86828701610c80565b9150509250925092565b600060ff82169050919050565b610d9e81610d88565b82525050565b6000602082019050610db96000830184610d95565b92915050565b600060208284031215610dd557610dd4610bfc565b5b6000610de384828501610c4a565b91505092915050565b60008060408385031215610e0357610e02610bfc565b5b6000610e1185828601610c4a565b9250506020610e2285828601610c4a565b9150509250929050565b60008060008060808587031215610e4657610e45610bfc565b5b6000610e5487828801610c4a565b9450506020610e6587828801610c4a565b9350506040610e7687828801610c80565b9250506060610e8787828801610c80565b91505092959194509250565b7f4e487b7100000000000000000000000000000000000000000000000000000000600052602260045260246000fd5b60006002820490506001821680610eda57607f821691505b602082108103610eed57610eec610e93565b5b50919050565b7f4e487b7100000000000000000000000000000000000000000000000000000000600052601160045260246000fd5b6000610f2d82610c5f565b9150610f3883610c5f565b9250828201905080821115610f5057610f4f610ef3565b5b92915050565b7f45524332303a2064656372656173656420616c6c6f77616e63652062656c6f7760008201527f207a65726f000000000000000000000000000000000000000000000000000000602082015250565b6000610fb2602583610b55565b9150610fbd82610f56565b604082019050919050565b60006020820190508181036000830152610fe181610fa5565b9050919050565b6000610ff382610c5f565b9150610ffe83610c5f565b925082820390508181111561101657611015610ef3565b5b92915050565b7f496e73756666696369656e742066756e64730000000000000000000000000000600082015250565b6000611052601283610b55565b915061105d8261101c565b602082019050919050565b6000602082019050818103600083015261108181611045565b9050919050565b7f45524332303a20617070726f76652066726f6d20746865207a65726f2061646460008201527f7265737300000000000000000000000000000000000000000000000000000000602082015250565b60006110e4602483610b55565b91506110ef82611088565b604082019050919050565b60006020820190508181036000830152611113816110d7565b9050919050565b7f45524332303a20617070726f766520746f20746865207a65726f20616464726560008201527f7373000000000000000000000000000000000000000000000000000000000000602082015250565b6000611176602283610b55565b91506111818261111a565b604082019050919050565b600060208201905081810360008301526111a581611169565b9050919050565b7f45524332303a20696e73756666696369656e7420616c6c6f77616e6365000000600082015250565b60006111e2601d83610b55565b91506111ed826111ac565b602082019050919050565b60006020820190508181036000830152611211816111d5565b9050919050565b7f45524332303a207472616e736665722066726f6d20746865207a65726f20616460008201527f6472657373000000000000000000000000000000000000000000000000000000602082015250565b6000611274602583610b55565b915061127f82611218565b604082019050919050565b600060208201905081810360008301526112a381611267565b9050919050565b7f45524332303a207472616e7366657220746f20746865207a65726f206164647260008201527f6573730000000000000000000000000000000000000000000000000000000000602082015250565b6000611306602383610b55565b9150611311826112aa565b604082019050919050565b60006020820190508181036000830152611335816112f9565b9050919050565b7f45524332303a207472616e7366657220616d6f756e742065786365656473206260008201527f616c616e63650000000000000000000000000000000000000000000000000000602082015250565b6000611398602683610b55565b91506113a38261133c565b604082019050919050565b600060208201905081810360008301526113c78161138b565b905091905056fea26469706673582212207b3f727eba06538fade7893e8230d5e58898402e424f1f88687263c045bb4a4f64736f6c63430008130033",
  "immutableReferences": {},
  "source": "// SPDX-License-Identifier: UNLICENSED\r\n\r\npragma solidity >=0.7.0 <0.9.0;\r\nimport \"@openzeppelin/contracts/token/ERC20/ERC20.sol\" ;\r\n\r\ncontract Token is ERC20 (\"ASKS Token\", \"ASKS\" ){\r\n\r\n    constructor(uint256 initialSupply) {\r\n        _mint(msg.sender, initialSupply*(10**18));\r\n    }\r\n\r\n    function balanceOf(address account) public override view returns (uint256) {\r\n        return super.balanceOf(account);\r\n    }\r\n\r\n    function transfer(address recipient, uint256 amount) public override returns(bool) {\r\n        return super.transfer(recipient,amount);\r\n    }\r\n\r\n    function transferFrom(address sender, address recipient, uint256 amount, uint256 senderFreezedBalanace) public returns(bool) {\r\n        require((balanceOf(sender) - senderFreezedBalanace) >= amount, \"Insufficient funds\");\r\n        return super.transferFrom(sender, recipient, amount);\r\n    }\r\n}",
  "sourcePath": "C:\\Users\\sabba\\OneDrive\\Documents\\BlockchainProject\\blockchain-based-contracting-system\\contracts\\Token.sol",
  "compiler": {
    "name": "solc",
    "version": "0.8.19+commit.7dd6d404.Emscripten.clang"
  },
  "schemaVersion": "3.4.13",
  "updatedAt": "2023-04-15T10:21:50.420Z",
  "networkType": "ethereum",
  "devdoc": {
    "events": {
      "Approval(address,address,uint256)": {
        "details": "Emitted when the allowance of a `spender` for an `owner` is set by a call to {approve}. `value` is the new allowance."
      },
      "Transfer(address,address,uint256)": {
        "details": "Emitted when `value` tokens are moved from one account (`from`) to another (`to`). Note that `value` may be zero."
      }
    },
    "kind": "dev",
    "methods": {
      "allowance(address,address)": {
        "details": "See {IERC20-allowance}."
      },
      "approve(address,uint256)": {
        "details": "See {IERC20-approve}. NOTE: If `amount` is the maximum `uint256`, the allowance is not updated on `transferFrom`. This is semantically equivalent to an infinite approval. Requirements: - `spender` cannot be the zero address."
      },
      "balanceOf(address)": {
        "details": "See {IERC20-balanceOf}."
      },
      "decimals()": {
        "details": "Returns the number of decimals used to get its user representation. For example, if `decimals` equals `2`, a balance of `505` tokens should be displayed to a user as `5.05` (`505 / 10 ** 2`). Tokens usually opt for a value of 18, imitating the relationship between Ether and Wei. This is the value {ERC20} uses, unless this function is overridden; NOTE: This information is only used for _display_ purposes: it in no way affects any of the arithmetic of the contract, including {IERC20-balanceOf} and {IERC20-transfer}."
      },
      "decreaseAllowance(address,uint256)": {
        "details": "Atomically decreases the allowance granted to `spender` by the caller. This is an alternative to {approve} that can be used as a mitigation for problems described in {IERC20-approve}. Emits an {Approval} event indicating the updated allowance. Requirements: - `spender` cannot be the zero address. - `spender` must have allowance for the caller of at least `subtractedValue`."
      },
      "increaseAllowance(address,uint256)": {
        "details": "Atomically increases the allowance granted to `spender` by the caller. This is an alternative to {approve} that can be used as a mitigation for problems described in {IERC20-approve}. Emits an {Approval} event indicating the updated allowance. Requirements: - `spender` cannot be the zero address."
      },
      "name()": {
        "details": "Returns the name of the token."
      },
      "symbol()": {
        "details": "Returns the symbol of the token, usually a shorter version of the name."
      },
      "totalSupply()": {
        "details": "See {IERC20-totalSupply}."
      },
      "transferFrom(address,address,uint256)": {
        "details": "See {IERC20-transferFrom}. Emits an {Approval} event indicating the updated allowance. This is not required by the EIP. See the note at the beginning of {ERC20}. NOTE: Does not update the allowance if the current allowance is the maximum `uint256`. Requirements: - `from` and `to` cannot be the zero address. - `from` must have a balance of at least `amount`. - the caller must have allowance for ``from``'s tokens of at least `amount`."
      }
    },
    "version": 1
  },
  "userdoc": {
    "kind": "user",
    "methods": {},
    "version": 1
  }
}