{
  "contractName": "bid",
  "abi": [
    {
      "inputs": [
        {
          "internalType": "contract ContractingPlatform",
          "name": "_addrMain",
          "type": "address"
        }
      ],
      "stateMutability": "nonpayable",
      "type": "constructor"
    },
    {
      "inputs": [],
      "name": "main",
      "outputs": [
        {
          "internalType": "contract ContractingPlatform",
          "name": "",
          "type": "address"
        }
      ],
      "stateMutability": "view",
      "type": "function",
      "constant": true
    },
    {
      "inputs": [
        {
          "internalType": "string",
          "name": "_name",
          "type": "string"
        },
        {
          "internalType": "address",
          "name": "_partyAddress",
          "type": "address"
        }
      ],
      "name": "test",
      "outputs": [],
      "stateMutability": "nonpayable",
      "type": "function"
    }
  ],
  "bytecode": "0x608060405234801561001057600080fd5b506040516105d53803806105d5833981810160405281019061003291906100ed565b806000806101000a81548173ffffffffffffffffffffffffffffffffffffffff021916908373ffffffffffffffffffffffffffffffffffffffff1602179055505061011a565b600080fd5b600073ffffffffffffffffffffffffffffffffffffffff82169050919050565b60006100a88261007d565b9050919050565b60006100ba8261009d565b9050919050565b6100ca816100af565b81146100d557600080fd5b50565b6000815190506100e7816100c1565b92915050565b60006020828403121561010357610102610078565b5b6000610111848285016100d8565b91505092915050565b6104ac806101296000396000f3fe608060405234801561001057600080fd5b50600436106100365760003560e01c80639f3251641461003b578063dffeadd014610057575b600080fd5b610055600480360381019061005091906102e2565b610075565b005b61005f610106565b60405161006c919061039d565b60405180910390f35b60008054906101000a900473ffffffffffffffffffffffffffffffffffffffff1673ffffffffffffffffffffffffffffffffffffffff16631abe0d6083836040518363ffffffff1660e01b81526004016100d0929190610446565b600060405180830381600087803b1580156100ea57600080fd5b505af11580156100fe573d6000803e3d6000fd5b505050505050565b60008054906101000a900473ffffffffffffffffffffffffffffffffffffffff1681565b6000604051905090565b600080fd5b600080fd5b600080fd5b600080fd5b6000601f19601f8301169050919050565b7f4e487b7100000000000000000000000000000000000000000000000000000000600052604160045260246000fd5b61019182610148565b810181811067ffffffffffffffff821117156101b0576101af610159565b5b80604052505050565b60006101c361012a565b90506101cf8282610188565b919050565b600067ffffffffffffffff8211156101ef576101ee610159565b5b6101f882610148565b9050602081019050919050565b82818337600083830152505050565b6000610227610222846101d4565b6101b9565b90508281526020810184848401111561024357610242610143565b5b61024e848285610205565b509392505050565b600082601f83011261026b5761026a61013e565b5b813561027b848260208601610214565b91505092915050565b600073ffffffffffffffffffffffffffffffffffffffff82169050919050565b60006102af82610284565b9050919050565b6102bf816102a4565b81146102ca57600080fd5b50565b6000813590506102dc816102b6565b92915050565b600080604083850312156102f9576102f8610134565b5b600083013567ffffffffffffffff81111561031757610316610139565b5b61032385828601610256565b9250506020610334858286016102cd565b9150509250929050565b6000819050919050565b600061036361035e61035984610284565b61033e565b610284565b9050919050565b600061037582610348565b9050919050565b60006103878261036a565b9050919050565b6103978161037c565b82525050565b60006020820190506103b2600083018461038e565b92915050565b600081519050919050565b600082825260208201905092915050565b60005b838110156103f25780820151818401526020810190506103d7565b60008484015250505050565b6000610409826103b8565b61041381856103c3565b93506104238185602086016103d4565b61042c81610148565b840191505092915050565b610440816102a4565b82525050565b6000604082019050818103600083015261046081856103fe565b905061046f6020830184610437565b939250505056fea264697066735822122037146ccea9dd320afe381df114e345b42c30b5db2985083c12bcb8669818219d64736f6c63430008110033",
  "immutableReferences": {},
  "source": "// SPDX-License-Identifier: UNLICENSED\r\n\r\n//the version of solidity that is compatible\r\npragma solidity >=0.7.0 <0.9.0; \r\nimport './main.sol';\r\ncontract bid{\r\n\r\n    ContractingPlatform public main;\r\n\r\n    constructor(ContractingPlatform _addrMain) {\r\n        main = _addrMain;\r\n    }\r\n\r\n    function test(string memory _name, address _partyAddress) public{\r\n        main.createParty(_name, _partyAddress);\r\n\r\n    }  \r\n\r\n}",
  "sourcePath": "C:\\Users\\sabba\\OneDrive\\Documents\\BlockchainProject\\blockchain-based-contracting-system\\contracts\\bid.sol",
  "compiler": {
    "name": "solc",
    "version": "0.8.17+commit.8df45f5f.Emscripten.clang"
  },
  "schemaVersion": "3.4.13",
  "updatedAt": "2023-03-29T18:17:52.870Z",
  "networkType": "ethereum",
  "devdoc": {
    "kind": "dev",
    "methods": {},
    "version": 1
  },
  "userdoc": {
    "kind": "user",
    "methods": {},
    "version": 1
  }
}