{
  "contractName": "ContractingPlatform",
  "abi": [
    {
      "inputs": [],
      "stateMutability": "nonpayable",
      "type": "constructor"
    },
    {
      "inputs": [],
      "name": "admin",
      "outputs": [
        {
          "internalType": "address",
          "name": "",
          "type": "address"
        }
      ],
      "stateMutability": "view",
      "type": "function",
      "constant": true
    },
    {
      "inputs": [
        {
          "internalType": "address",
          "name": "",
          "type": "address"
        }
      ],
      "name": "parties",
      "outputs": [
        {
          "internalType": "string",
          "name": "name",
          "type": "string"
        },
        {
          "internalType": "address",
          "name": "partyAddress",
          "type": "address"
        }
      ],
      "stateMutability": "view",
      "type": "function",
      "constant": true
    },
    {
      "inputs": [
        {
          "internalType": "uint256",
          "name": "",
          "type": "uint256"
        }
      ],
      "name": "partyAddresses",
      "outputs": [
        {
          "internalType": "address",
          "name": "",
          "type": "address"
        }
      ],
      "stateMutability": "view",
      "type": "function",
      "constant": true
    },
    {
      "inputs": [],
      "name": "projectCount",
      "outputs": [
        {
          "internalType": "uint256",
          "name": "",
          "type": "uint256"
        }
      ],
      "stateMutability": "view",
      "type": "function",
      "constant": true
    },
    {
      "inputs": [
        {
          "internalType": "string",
          "name": "_name",
          "type": "string"
        },
        {
          "internalType": "address",
          "name": "_partyAddress",
          "type": "address"
        }
      ],
      "name": "createParty",
      "outputs": [],
      "stateMutability": "nonpayable",
      "type": "function"
    },
    {
      "inputs": [
        {
          "internalType": "string",
          "name": "_name",
          "type": "string"
        },
        {
          "internalType": "address",
          "name": "_partyAddress",
          "type": "address"
        }
      ],
      "name": "updateParty",
      "outputs": [],
      "stateMutability": "nonpayable",
      "type": "function"
    },
    {
      "inputs": [
        {
          "internalType": "address",
          "name": "_partyAddress",
          "type": "address"
        }
      ],
      "name": "deleteParty",
      "outputs": [],
      "stateMutability": "nonpayable",
      "type": "function"
    },
    {
      "inputs": [
        {
          "internalType": "uint256",
          "name": "_budget",
          "type": "uint256"
        },
        {
          "internalType": "string",
          "name": "_title",
          "type": "string"
        },
        {
          "internalType": "string",
          "name": "_description",
          "type": "string"
        },
        {
          "internalType": "uint256",
          "name": "_deadline",
          "type": "uint256"
        }
      ],
      "name": "createProject",
      "outputs": [
        {
          "internalType": "uint256",
          "name": "",
          "type": "uint256"
        }
      ],
      "stateMutability": "nonpayable",
      "type": "function"
    },
    {
      "inputs": [
        {
          "internalType": "uint256",
          "name": "_projectId",
          "type": "uint256"
        },
        {
          "internalType": "uint256",
          "name": "_newBudget",
          "type": "uint256"
        },
        {
          "internalType": "string",
          "name": "_newTitle",
          "type": "string"
        },
        {
          "internalType": "string",
          "name": "_newDescription",
          "type": "string"
        },
        {
          "internalType": "uint256",
          "name": "_newDeadline",
          "type": "uint256"
        }
      ],
      "name": "updateProject",
      "outputs": [],
      "stateMutability": "nonpayable",
      "type": "function"
    },
    {
      "inputs": [
        {
          "internalType": "uint256",
          "name": "_projectId",
          "type": "uint256"
        }
      ],
      "name": "closeProject",
      "outputs": [],
      "stateMutability": "nonpayable",
      "type": "function"
    },
    {
      "inputs": [
        {
          "internalType": "address",
          "name": "_partyAddress",
          "type": "address"
        },
        {
          "internalType": "uint256",
          "name": "_projectId",
          "type": "uint256"
        },
        {
          "internalType": "string",
          "name": "_message",
          "type": "string"
        },
        {
          "internalType": "uint256",
          "name": "_amount",
          "type": "uint256"
        },
        {
          "internalType": "string",
          "name": "status",
          "type": "string"
        }
      ],
      "name": "createBid",
      "outputs": [],
      "stateMutability": "nonpayable",
      "type": "function"
    },
    {
      "inputs": [
        {
          "internalType": "address",
          "name": "_partyAddress",
          "type": "address"
        },
        {
          "internalType": "uint256",
          "name": "_projectId",
          "type": "uint256"
        }
      ],
      "name": "getBidCount",
      "outputs": [
        {
          "internalType": "uint256",
          "name": "",
          "type": "uint256"
        }
      ],
      "stateMutability": "view",
      "type": "function",
      "constant": true
    },
    {
      "inputs": [
        {
          "internalType": "address",
          "name": "_partyAddress",
          "type": "address"
        },
        {
          "internalType": "uint256",
          "name": "_projectId",
          "type": "uint256"
        },
        {
          "internalType": "uint256",
          "name": "_bidId",
          "type": "uint256"
        }
      ],
      "name": "getBidDetails",
      "outputs": [
        {
          "internalType": "string",
          "name": "",
          "type": "string"
        },
        {
          "internalType": "uint256",
          "name": "",
          "type": "uint256"
        },
        {
          "internalType": "address",
          "name": "",
          "type": "address"
        }
      ],
      "stateMutability": "view",
      "type": "function",
      "constant": true
    },
    {
      "inputs": [
        {
          "internalType": "address",
          "name": "_partyAddress",
          "type": "address"
        }
      ],
      "name": "getPartyDetails",
      "outputs": [
        {
          "internalType": "string",
          "name": "",
          "type": "string"
        },
        {
          "internalType": "address",
          "name": "",
          "type": "address"
        }
      ],
      "stateMutability": "view",
      "type": "function",
      "constant": true
    },
    {
      "inputs": [
        {
          "internalType": "address",
          "name": "_partyAddress",
          "type": "address"
        }
      ],
      "name": "getProjectCount",
      "outputs": [
        {
          "internalType": "uint256",
          "name": "",
          "type": "uint256"
        }
      ],
      "stateMutability": "view",
      "type": "function",
      "constant": true
    },
    {
      "inputs": [
        {
          "internalType": "address",
          "name": "_partyAddress",
          "type": "address"
        }
      ],
      "name": "getProjectIds",
      "outputs": [
        {
          "internalType": "uint256[]",
          "name": "",
          "type": "uint256[]"
        }
      ],
      "stateMutability": "view",
      "type": "function",
      "constant": true
    },
    {
      "inputs": [
        {
          "internalType": "address",
          "name": "_partyAddress",
          "type": "address"
        },
        {
          "internalType": "uint256",
          "name": "_projectId",
          "type": "uint256"
        }
      ],
      "name": "getProjectDetails",
      "outputs": [
        {
          "internalType": "string",
          "name": "",
          "type": "string"
        },
        {
          "internalType": "string",
          "name": "",
          "type": "string"
        },
        {
          "internalType": "uint256",
          "name": "",
          "type": "uint256"
        },
        {
          "internalType": "bool",
          "name": "",
          "type": "bool"
        },
        {
          "internalType": "uint256",
          "name": "",
          "type": "uint256"
        }
      ],
      "stateMutability": "view",
      "type": "function",
      "constant": true
    },
    {
      "inputs": [],
      "name": "getPartyCount",
      "outputs": [
        {
          "internalType": "uint256",
          "name": "",
          "type": "uint256"
        }
      ],
      "stateMutability": "view",
      "type": "function",
      "constant": true
    },
    {
      "inputs": [
        {
          "internalType": "uint256",
          "name": "index",
          "type": "uint256"
        }
      ],
      "name": "getPartyAddress",
      "outputs": [
        {
          "internalType": "address",
          "name": "",
          "type": "address"
        }
      ],
      "stateMutability": "view",
      "type": "function",
      "constant": true
    }
  ],
  "bytecode": "0x608060405234801561001057600080fd5b5033600360006101000a81548173ffffffffffffffffffffffffffffffffffffffff021916908373ffffffffffffffffffffffffffffffffffffffff160217905550613786806100616000396000f3fe608060405234801561001057600080fd5b50600436106101205760003560e01c806372d589dd116100ad578063c792d8fd11610071578063c792d8fd14610357578063cc8e2f0914610387578063eac24737146103a3578063ef8c0391146103d5578063f851a440146103f157610120565b806372d589dd1461028b5780637ed5c8de146102bb57806389898ef5146102d757806393dc12e614610307578063c5ce86361461032357610120565b806336fbad26116100f457806336fbad26146101be578063392b5f02146101dc5780634f2352071461020c57806360b960e51461023d578063671178111461025b57610120565b8062da7228146101255780631a0a4d4c146101565780631abe0d60146101865780631c507cf2146101a2575b600080fd5b61013f600480360381019061013a91906124f0565b61040f565b60405161014d9291906125bc565b60405180910390f35b610170600480360381019061016b91906124f0565b61061a565b60405161017d9190612605565b60405180910390f35b6101a0600480360381019061019b9190612755565b610737565b005b6101bc60048036038101906101b791906127dd565b610a88565b005b6101c6610e30565b6040516101d39190612605565b60405180910390f35b6101f660048036038101906101f19190612890565b610e36565b60405161020391906128bd565b60405180910390f35b610226600480360381019061022191906124f0565b610e7e565b6040516102349291906125bc565b60405180910390f35b610245610f4a565b6040516102529190612605565b60405180910390f35b610275600480360381019061027091906128d8565b610f57565b6040516102829190612605565b60405180910390f35b6102a560048036038101906102a091906124f0565b611051565b6040516102b291906129d6565b60405180910390f35b6102d560048036038101906102d09190612755565b6111ba565b005b6102f160048036038101906102ec91906129f8565b6113b2565b6040516102fe9190612605565b60405180910390f35b610321600480360381019061031c9190612890565b6116b3565b005b61033d600480360381019061033891906128d8565b61189b565b60405161034e959493929190612ab2565b60405180910390f35b610371600480360381019061036c9190612890565b611c1f565b60405161037e91906128bd565b60405180910390f35b6103a1600480360381019061039c9190612b13565b611c5e565b005b6103bd60048036038101906103b89190612bc6565b611e1c565b6040516103cc93929190612c19565b60405180910390f35b6103ef60048036038101906103ea91906124f0565b611fd8565b005b6103f961238d565b60405161040691906128bd565b60405180910390f35b606060008073ffffffffffffffffffffffffffffffffffffffff166000808573ffffffffffffffffffffffffffffffffffffffff1673ffffffffffffffffffffffffffffffffffffffff16815260200190815260200160002060010160009054906101000a900473ffffffffffffffffffffffffffffffffffffffff1673ffffffffffffffffffffffffffffffffffffffff16036104e2576040517f08c379a00000000000000000000000000000000000000000000000000000000081526004016104d990612ca3565b60405180910390fd5b6000808473ffffffffffffffffffffffffffffffffffffffff1673ffffffffffffffffffffffffffffffffffffffff1681526020019081526020016000206000016000808573ffffffffffffffffffffffffffffffffffffffff1673ffffffffffffffffffffffffffffffffffffffff16815260200190815260200160002060010160009054906101000a900473ffffffffffffffffffffffffffffffffffffffff1681805461059190612cf2565b80601f01602080910402602001604051908101604052809291908181526020018280546105bd90612cf2565b801561060a5780601f106105df5761010080835404028352916020019161060a565b820191906000526020600020905b8154815290600101906020018083116105ed57829003601f168201915b5050505050915091509150915091565b60008073ffffffffffffffffffffffffffffffffffffffff166000808473ffffffffffffffffffffffffffffffffffffffff1673ffffffffffffffffffffffffffffffffffffffff16815260200190815260200160002060010160009054906101000a900473ffffffffffffffffffffffffffffffffffffffff1673ffffffffffffffffffffffffffffffffffffffff16036106eb576040517f08c379a00000000000000000000000000000000000000000000000000000000081526004016106e290612ca3565b60405180910390fd5b6000808373ffffffffffffffffffffffffffffffffffffffff1673ffffffffffffffffffffffffffffffffffffffff168152602001908152602001600020600201805490509050919050565b600360009054906101000a900473ffffffffffffffffffffffffffffffffffffffff1673ffffffffffffffffffffffffffffffffffffffff168173ffffffffffffffffffffffffffffffffffffffff16036107c7576040517f08c379a00000000000000000000000000000000000000000000000000000000081526004016107be90612d6f565b60405180910390fd5b600360009054906101000a900473ffffffffffffffffffffffffffffffffffffffff1673ffffffffffffffffffffffffffffffffffffffff163373ffffffffffffffffffffffffffffffffffffffff1614610857576040517f08c379a000000000000000000000000000000000000000000000000000000000815260040161084e90612ddb565b60405180910390fd5b600073ffffffffffffffffffffffffffffffffffffffff166000808373ffffffffffffffffffffffffffffffffffffffff1673ffffffffffffffffffffffffffffffffffffffff16815260200190815260200160002060010160009054906101000a900473ffffffffffffffffffffffffffffffffffffffff1673ffffffffffffffffffffffffffffffffffffffff1614610927576040517f08c379a000000000000000000000000000000000000000000000000000000000815260040161091e90612e47565b60405180910390fd5b60008060008373ffffffffffffffffffffffffffffffffffffffff1673ffffffffffffffffffffffffffffffffffffffff16815260200190815260200160002090508281600001908161097a9190613013565b50818160010160006101000a81548173ffffffffffffffffffffffffffffffffffffffff021916908373ffffffffffffffffffffffffffffffffffffffff160217905550600067ffffffffffffffff8111156109d9576109d861262a565b5b604051908082528060200260200182016040528015610a075781602001602082028036833780820191505090505b50816002019080519060200190610a1f9291906123b3565b506001829080600181540180825580915050600190039060005260206000200160009091909190916101000a81548173ffffffffffffffffffffffffffffffffffffffff021916908373ffffffffffffffffffffffffffffffffffffffff160217905550505050565b60008060008773ffffffffffffffffffffffffffffffffffffffff1673ffffffffffffffffffffffffffffffffffffffff16815260200190815260200160002060030160008681526020019081526020016000209050600073ffffffffffffffffffffffffffffffffffffffff166000803373ffffffffffffffffffffffffffffffffffffffff1673ffffffffffffffffffffffffffffffffffffffff16815260200190815260200160002060010160009054906101000a900473ffffffffffffffffffffffffffffffffffffffff1673ffffffffffffffffffffffffffffffffffffffff1603610bae576040517f08c379a0000000000000000000000000000000000000000000000000000000008152600401610ba590612ca3565b60405180910390fd5b6000816002015411610bf5576040517f08c379a0000000000000000000000000000000000000000000000000000000008152600401610bec90613131565b60405180910390fd5b8060030160009054906101000a900460ff16610c46576040517f08c379a0000000000000000000000000000000000000000000000000000000008152600401610c3d9061319d565b60405180910390fd5b80600701544210610c8c576040517f08c379a0000000000000000000000000000000000000000000000000000000008152600401610c8390613209565b60405180910390fd5b8060060160009054906101000a900473ffffffffffffffffffffffffffffffffffffffff1673ffffffffffffffffffffffffffffffffffffffff163373ffffffffffffffffffffffffffffffffffffffff1603610d1e576040517f08c379a0000000000000000000000000000000000000000000000000000000008152600401610d159061329b565b60405180910390fd5b600060405180608001604052808681526020018581526020013373ffffffffffffffffffffffffffffffffffffffff16815260200184815250905060008260040180549050905082600401819080600181540180825580915050600190039060005260206000200160009091909190915055818360050160008381526020019081526020016000206000820151816000019081610dbb9190613013565b506020820151816001015560408201518160020160006101000a81548173ffffffffffffffffffffffffffffffffffffffff021916908373ffffffffffffffffffffffffffffffffffffffff1602179055506060820151816003019081610e229190613013565b509050505050505050505050565b60025481565b600060018281548110610e4c57610e4b6132bb565b5b9060005260206000200160009054906101000a900473ffffffffffffffffffffffffffffffffffffffff169050919050565b6000602052806000526040600020600091509050806000018054610ea190612cf2565b80601f0160208091040260200160405190810160405280929190818152602001828054610ecd90612cf2565b8015610f1a5780601f10610eef57610100808354040283529160200191610f1a565b820191906000526020600020905b815481529060010190602001808311610efd57829003601f168201915b5050505050908060010160009054906101000a900473ffffffffffffffffffffffffffffffffffffffff16905082565b6000600180549050905090565b6000806000808573ffffffffffffffffffffffffffffffffffffffff1673ffffffffffffffffffffffffffffffffffffffff16815260200190815260200160002060030160008481526020019081526020016000206002015411610ff0576040517f08c379a0000000000000000000000000000000000000000000000000000000008152600401610fe790613131565b60405180910390fd5b6000808473ffffffffffffffffffffffffffffffffffffffff1673ffffffffffffffffffffffffffffffffffffffff168152602001908152602001600020600301600083815260200190815260200160002060040180549050905092915050565b6060600073ffffffffffffffffffffffffffffffffffffffff166000808473ffffffffffffffffffffffffffffffffffffffff1673ffffffffffffffffffffffffffffffffffffffff16815260200190815260200160002060010160009054906101000a900473ffffffffffffffffffffffffffffffffffffffff1673ffffffffffffffffffffffffffffffffffffffff1603611123576040517f08c379a000000000000000000000000000000000000000000000000000000000815260040161111a90612ca3565b60405180910390fd5b6000808373ffffffffffffffffffffffffffffffffffffffff1673ffffffffffffffffffffffffffffffffffffffff1681526020019081526020016000206002018054806020026020016040519081016040528092919081815260200182805480156111ae57602002820191906000526020600020905b81548152602001906001019080831161119a575b50505050509050919050565b600073ffffffffffffffffffffffffffffffffffffffff166000808373ffffffffffffffffffffffffffffffffffffffff1673ffffffffffffffffffffffffffffffffffffffff16815260200190815260200160002060010160009054906101000a900473ffffffffffffffffffffffffffffffffffffffff1673ffffffffffffffffffffffffffffffffffffffff160361128a576040517f08c379a000000000000000000000000000000000000000000000000000000000815260040161128190612ca3565b60405180910390fd5b6000808273ffffffffffffffffffffffffffffffffffffffff1673ffffffffffffffffffffffffffffffffffffffff16815260200190815260200160002060010160009054906101000a900473ffffffffffffffffffffffffffffffffffffffff1673ffffffffffffffffffffffffffffffffffffffff163373ffffffffffffffffffffffffffffffffffffffff1614611359576040517f08c379a00000000000000000000000000000000000000000000000000000000081526004016113509061335c565b60405180910390fd5b60008060008373ffffffffffffffffffffffffffffffffffffffff1673ffffffffffffffffffffffffffffffffffffffff1681526020019081526020016000209050828160000190816113ac9190613013565b50505050565b60008073ffffffffffffffffffffffffffffffffffffffff166000803373ffffffffffffffffffffffffffffffffffffffff1673ffffffffffffffffffffffffffffffffffffffff16815260200190815260200160002060010160009054906101000a900473ffffffffffffffffffffffffffffffffffffffff1673ffffffffffffffffffffffffffffffffffffffff1603611483576040517f08c379a000000000000000000000000000000000000000000000000000000000815260040161147a90612ca3565b60405180910390fd5b6000600254905060008060003373ffffffffffffffffffffffffffffffffffffffff1673ffffffffffffffffffffffffffffffffffffffff16815260200190815260200160002060030160008381526020019081526020016000209050858160000190816114f19190613013565b50848160010190816115039190613013565b5086816002018190555060018160030160006101000a81548160ff021916908315150217905550600067ffffffffffffffff8111156115455761154461262a565b5b6040519080825280602002602001820160405280156115735781602001602082028036833780820191505090505b5081600401908051906020019061158b9291906123b3565b50338160060160006101000a81548173ffffffffffffffffffffffffffffffffffffffff021916908373ffffffffffffffffffffffffffffffffffffffff16021790555083816007018190555060008160080160006101000a81548173ffffffffffffffffffffffffffffffffffffffff021916908373ffffffffffffffffffffffffffffffffffffffff160217905550600081600901819055506000803373ffffffffffffffffffffffffffffffffffffffff1673ffffffffffffffffffffffffffffffffffffffff168152602001908152602001600020600201829080600181540180825580915050600190039060005260206000200160009091909190915055600260008154809291906116a1906133ab565b91905055508192505050949350505050565b60008060003373ffffffffffffffffffffffffffffffffffffffff1673ffffffffffffffffffffffffffffffffffffffff168152602001908152602001600020600301600083815260200190815260200160002090506000816002015411611750576040517f08c379a000000000000000000000000000000000000000000000000000000000815260040161174790613131565b60405180910390fd5b8060060160009054906101000a900473ffffffffffffffffffffffffffffffffffffffff1673ffffffffffffffffffffffffffffffffffffffff163373ffffffffffffffffffffffffffffffffffffffff16146117e2576040517f08c379a00000000000000000000000000000000000000000000000000000000081526004016117d990613465565b60405180910390fd5b8060070154421015611829576040517f08c379a0000000000000000000000000000000000000000000000000000000008152600401611820906134d1565b60405180910390fd5b8060030160009054906101000a900460ff1661187a576040517f08c379a00000000000000000000000000000000000000000000000000000000081526004016118719061353d565b60405180910390fd5b60008160030160006101000a81548160ff0219169083151502179055505050565b6060806000806000806000808973ffffffffffffffffffffffffffffffffffffffff1673ffffffffffffffffffffffffffffffffffffffff1681526020019081526020016000206003016000888152602001908152602001600020600201541161193a576040517f08c379a000000000000000000000000000000000000000000000000000000000815260040161193190613131565b60405180910390fd5b6000808873ffffffffffffffffffffffffffffffffffffffff1673ffffffffffffffffffffffffffffffffffffffff16815260200190815260200160002060030160008781526020019081526020016000206000016000808973ffffffffffffffffffffffffffffffffffffffff1673ffffffffffffffffffffffffffffffffffffffff16815260200190815260200160002060030160008881526020019081526020016000206001016000808a73ffffffffffffffffffffffffffffffffffffffff1673ffffffffffffffffffffffffffffffffffffffff1681526020019081526020016000206003016000898152602001908152602001600020600201546000808b73ffffffffffffffffffffffffffffffffffffffff1673ffffffffffffffffffffffffffffffffffffffff16815260200190815260200160002060030160008a815260200190815260200160002060030160009054906101000a900460ff166000808c73ffffffffffffffffffffffffffffffffffffffff1673ffffffffffffffffffffffffffffffffffffffff16815260200190815260200160002060030160008b815260200190815260200160002060070154848054611aff90612cf2565b80601f0160208091040260200160405190810160405280929190818152602001828054611b2b90612cf2565b8015611b785780601f10611b4d57610100808354040283529160200191611b78565b820191906000526020600020905b815481529060010190602001808311611b5b57829003601f168201915b50505050509450838054611b8b90612cf2565b80601f0160208091040260200160405190810160405280929190818152602001828054611bb790612cf2565b8015611c045780601f10611bd957610100808354040283529160200191611c04565b820191906000526020600020905b815481529060010190602001808311611be757829003601f168201915b50505050509350945094509450945094509295509295909350565b60018181548110611c2f57600080fd5b906000526020600020016000915054906101000a900473ffffffffffffffffffffffffffffffffffffffff1681565b60008060003373ffffffffffffffffffffffffffffffffffffffff1673ffffffffffffffffffffffffffffffffffffffff168152602001908152602001600020600301600087815260200190815260200160002090506000816002015411611cfb576040517f08c379a0000000000000000000000000000000000000000000000000000000008152600401611cf290613131565b60405180910390fd5b3373ffffffffffffffffffffffffffffffffffffffff168160060160009054906101000a900473ffffffffffffffffffffffffffffffffffffffff1673ffffffffffffffffffffffffffffffffffffffff1614611d8d576040517f08c379a0000000000000000000000000000000000000000000000000000000008152600401611d84906135cf565b60405180910390fd5b8060030160009054906101000a900460ff16611dde576040517f08c379a0000000000000000000000000000000000000000000000000000000008152600401611dd590613661565b60405180910390fd5b84816002018190555083816000019081611df89190613013565b5082816001019081611e0a9190613013565b50818160070181905550505050505050565b606060008060008060008873ffffffffffffffffffffffffffffffffffffffff1673ffffffffffffffffffffffffffffffffffffffff1681526020019081526020016000206003016000878152602001908152602001600020905060008160050160008781526020019081526020016000206001015411611ed2576040517f08c379a0000000000000000000000000000000000000000000000000000000008152600401611ec9906136cd565b60405180910390fd5b8060050160008681526020019081526020016000206000018160050160008781526020019081526020016000206001015482600501600088815260200190815260200160002060020160009054906101000a900473ffffffffffffffffffffffffffffffffffffffff16828054611f4890612cf2565b80601f0160208091040260200160405190810160405280929190818152602001828054611f7490612cf2565b8015611fc15780601f10611f9657610100808354040283529160200191611fc1565b820191906000526020600020905b815481529060010190602001808311611fa457829003601f168201915b505050505092509350935093505093509350939050565b600073ffffffffffffffffffffffffffffffffffffffff166000808373ffffffffffffffffffffffffffffffffffffffff1673ffffffffffffffffffffffffffffffffffffffff16815260200190815260200160002060010160009054906101000a900473ffffffffffffffffffffffffffffffffffffffff1673ffffffffffffffffffffffffffffffffffffffff16036120a8576040517f08c379a000000000000000000000000000000000000000000000000000000000815260040161209f90612ca3565b60405180910390fd5b6000808273ffffffffffffffffffffffffffffffffffffffff1673ffffffffffffffffffffffffffffffffffffffff16815260200190815260200160002060010160009054906101000a900473ffffffffffffffffffffffffffffffffffffffff1673ffffffffffffffffffffffffffffffffffffffff163373ffffffffffffffffffffffffffffffffffffffff1614612177576040517f08c379a000000000000000000000000000000000000000000000000000000000815260040161216e9061335c565b60405180910390fd5b6000808273ffffffffffffffffffffffffffffffffffffffff1673ffffffffffffffffffffffffffffffffffffffff168152602001908152602001600020600080820160006121c69190612400565b6001820160006101000a81549073ffffffffffffffffffffffffffffffffffffffff02191690556002820160006121fd9190612440565b505060005b600180549050811015612389573373ffffffffffffffffffffffffffffffffffffffff166001828154811061223a576122396132bb565b5b9060005260206000200160009054906101000a900473ffffffffffffffffffffffffffffffffffffffff1673ffffffffffffffffffffffffffffffffffffffff160361237657600180808054905061229291906136ed565b815481106122a3576122a26132bb565b5b9060005260206000200160009054906101000a900473ffffffffffffffffffffffffffffffffffffffff16600182815481106122e2576122e16132bb565b5b9060005260206000200160006101000a81548173ffffffffffffffffffffffffffffffffffffffff021916908373ffffffffffffffffffffffffffffffffffffffff160217905550600180548061233c5761233b613721565b5b6001900381819060005260206000200160006101000a81549073ffffffffffffffffffffffffffffffffffffffff02191690559055612389565b8080612381906133ab565b915050612202565b5050565b600360009054906101000a900473ffffffffffffffffffffffffffffffffffffffff1681565b8280548282559060005260206000209081019282156123ef579160200282015b828111156123ee5782518255916020019190600101906123d3565b5b5090506123fc9190612461565b5090565b50805461240c90612cf2565b6000825580601f1061241e575061243d565b601f01602090049060005260206000209081019061243c9190612461565b5b50565b508054600082559060005260206000209081019061245e9190612461565b50565b5b8082111561247a576000816000905550600101612462565b5090565b6000604051905090565b600080fd5b600080fd5b600073ffffffffffffffffffffffffffffffffffffffff82169050919050565b60006124bd82612492565b9050919050565b6124cd816124b2565b81146124d857600080fd5b50565b6000813590506124ea816124c4565b92915050565b60006020828403121561250657612505612488565b5b6000612514848285016124db565b91505092915050565b600081519050919050565b600082825260208201905092915050565b60005b8381101561255757808201518184015260208101905061253c565b60008484015250505050565b6000601f19601f8301169050919050565b600061257f8261251d565b6125898185612528565b9350612599818560208601612539565b6125a281612563565b840191505092915050565b6125b6816124b2565b82525050565b600060408201905081810360008301526125d68185612574565b90506125e560208301846125ad565b9392505050565b6000819050919050565b6125ff816125ec565b82525050565b600060208201905061261a60008301846125f6565b92915050565b600080fd5b600080fd5b7f4e487b7100000000000000000000000000000000000000000000000000000000600052604160045260246000fd5b61266282612563565b810181811067ffffffffffffffff821117156126815761268061262a565b5b80604052505050565b600061269461247e565b90506126a08282612659565b919050565b600067ffffffffffffffff8211156126c0576126bf61262a565b5b6126c982612563565b9050602081019050919050565b82818337600083830152505050565b60006126f86126f3846126a5565b61268a565b90508281526020810184848401111561271457612713612625565b5b61271f8482856126d6565b509392505050565b600082601f83011261273c5761273b612620565b5b813561274c8482602086016126e5565b91505092915050565b6000806040838503121561276c5761276b612488565b5b600083013567ffffffffffffffff81111561278a5761278961248d565b5b61279685828601612727565b92505060206127a7858286016124db565b9150509250929050565b6127ba816125ec565b81146127c557600080fd5b50565b6000813590506127d7816127b1565b92915050565b600080600080600060a086880312156127f9576127f8612488565b5b6000612807888289016124db565b9550506020612818888289016127c8565b945050604086013567ffffffffffffffff8111156128395761283861248d565b5b61284588828901612727565b9350506060612856888289016127c8565b925050608086013567ffffffffffffffff8111156128775761287661248d565b5b61288388828901612727565b9150509295509295909350565b6000602082840312156128a6576128a5612488565b5b60006128b4848285016127c8565b91505092915050565b60006020820190506128d260008301846125ad565b92915050565b600080604083850312156128ef576128ee612488565b5b60006128fd858286016124db565b925050602061290e858286016127c8565b9150509250929050565b600081519050919050565b600082825260208201905092915050565b6000819050602082019050919050565b61294d816125ec565b82525050565b600061295f8383612944565b60208301905092915050565b6000602082019050919050565b600061298382612918565b61298d8185612923565b935061299883612934565b8060005b838110156129c95781516129b08882612953565b97506129bb8361296b565b92505060018101905061299c565b5085935050505092915050565b600060208201905081810360008301526129f08184612978565b905092915050565b60008060008060808587031215612a1257612a11612488565b5b6000612a20878288016127c8565b945050602085013567ffffffffffffffff811115612a4157612a4061248d565b5b612a4d87828801612727565b935050604085013567ffffffffffffffff811115612a6e57612a6d61248d565b5b612a7a87828801612727565b9250506060612a8b878288016127c8565b91505092959194509250565b60008115159050919050565b612aac81612a97565b82525050565b600060a0820190508181036000830152612acc8188612574565b90508181036020830152612ae08187612574565b9050612aef60408301866125f6565b612afc6060830185612aa3565b612b0960808301846125f6565b9695505050505050565b600080600080600060a08688031215612b2f57612b2e612488565b5b6000612b3d888289016127c8565b9550506020612b4e888289016127c8565b945050604086013567ffffffffffffffff811115612b6f57612b6e61248d565b5b612b7b88828901612727565b935050606086013567ffffffffffffffff811115612b9c57612b9b61248d565b5b612ba888828901612727565b9250506080612bb9888289016127c8565b9150509295509295909350565b600080600060608486031215612bdf57612bde612488565b5b6000612bed868287016124db565b9350506020612bfe868287016127c8565b9250506040612c0f868287016127c8565b9150509250925092565b60006060820190508181036000830152612c338186612574565b9050612c4260208301856125f6565b612c4f60408301846125ad565b949350505050565b7f506172747920646f6573206e6f74206578697374000000000000000000000000600082015250565b6000612c8d601483612528565b9150612c9882612c57565b602082019050919050565b60006020820190508181036000830152612cbc81612c80565b9050919050565b7f4e487b7100000000000000000000000000000000000000000000000000000000600052602260045260246000fd5b60006002820490506001821680612d0a57607f821691505b602082108103612d1d57612d1c612cc3565b5b50919050565b7f41646d696e2063616e2774206265206120706172747900000000000000000000600082015250565b6000612d59601683612528565b9150612d6482612d23565b602082019050919050565b60006020820190508181036000830152612d8881612d4c565b9050919050565b7f4f6e6c792061646d696e2063616e206372656174652061207061727479000000600082015250565b6000612dc5601d83612528565b9150612dd082612d8f565b602082019050919050565b60006020820190508181036000830152612df481612db8565b9050919050565b7f506172747920616c726561647920657869737473000000000000000000000000600082015250565b6000612e31601483612528565b9150612e3c82612dfb565b602082019050919050565b60006020820190508181036000830152612e6081612e24565b9050919050565b60008190508160005260206000209050919050565b60006020601f8301049050919050565b600082821b905092915050565b600060088302612ec97fffffffffffffffffffffffffffffffffffffffffffffffffffffffffffffffff82612e8c565b612ed38683612e8c565b95508019841693508086168417925050509392505050565b6000819050919050565b6000612f10612f0b612f06846125ec565b612eeb565b6125ec565b9050919050565b6000819050919050565b612f2a83612ef5565b612f3e612f3682612f17565b848454612e99565b825550505050565b600090565b612f53612f46565b612f5e818484612f21565b505050565b5b81811015612f8257612f77600082612f4b565b600181019050612f64565b5050565b601f821115612fc757612f9881612e67565b612fa184612e7c565b81016020851015612fb0578190505b612fc4612fbc85612e7c565b830182612f63565b50505b505050565b600082821c905092915050565b6000612fea60001984600802612fcc565b1980831691505092915050565b60006130038383612fd9565b9150826002028217905092915050565b61301c8261251d565b67ffffffffffffffff8111156130355761303461262a565b5b61303f8254612cf2565b61304a828285612f86565b600060209050601f83116001811461307d576000841561306b578287015190505b6130758582612ff7565b8655506130dd565b601f19841661308b86612e67565b60005b828110156130b35784890151825560018201915060208501945060208101905061308e565b868310156130d057848901516130cc601f891682612fd9565b8355505b6001600288020188555050505b505050505050565b7f50726f6a65637420646f6573206e6f7420657869737400000000000000000000600082015250565b600061311b601683612528565b9150613126826130e5565b602082019050919050565b6000602082019050818103600083015261314a8161310e565b9050919050565b7f50726f6a656374206973206e6f74206f70656e20666f72206269647300000000600082015250565b6000613187601c83612528565b915061319282613151565b602082019050919050565b600060208201905081810360008301526131b68161317a565b9050919050565b7f42696464696e672068617320656e646564000000000000000000000000000000600082015250565b60006131f3601183612528565b91506131fe826131bd565b602082019050919050565b60006020820190508181036000830152613222816131e6565b9050919050565b7f4f776e65722063616e6e6f7420626964206f6e207468656972206f776e20707260008201527f6f6a656374000000000000000000000000000000000000000000000000000000602082015250565b6000613285602583612528565b915061329082613229565b604082019050919050565b600060208201905081810360008301526132b481613278565b9050919050565b7f4e487b7100000000000000000000000000000000000000000000000000000000600052603260045260246000fd5b7f4f6e6c79207061727479206f776e65722063616e207570646174652f64656c6560008201527f74652070617274792064657461696c732e000000000000000000000000000000602082015250565b6000613346603183612528565b9150613351826132ea565b604082019050919050565b6000602082019050818103600083015261337581613339565b9050919050565b7f4e487b7100000000000000000000000000000000000000000000000000000000600052601160045260246000fd5b60006133b6826125ec565b91507fffffffffffffffffffffffffffffffffffffffffffffffffffffffffffffffff82036133e8576133e761337c565b5b600182019050919050565b7f4f6e6c7920746865206f776e65722063616e20656e64207468652070726f6a6560008201527f6374000000000000000000000000000000000000000000000000000000000000602082015250565b600061344f602283612528565b915061345a826133f3565b604082019050919050565b6000602082019050818103600083015261347e81613442565b9050919050565b7f42696464696e6720686173206e6f742079657420656e64656400000000000000600082015250565b60006134bb601983612528565b91506134c682613485565b602082019050919050565b600060208201905081810360008301526134ea816134ae565b9050919050565b7f50726f6a65637420697320616c726561647920636c6f73656400000000000000600082015250565b6000613527601983612528565b9150613532826134f1565b602082019050919050565b600060208201905081810360008301526135568161351a565b9050919050565b7f4f6e6c79207468652063726561746f72206f66207468652070726f6a6563742060008201527f63616e2075706461746520697400000000000000000000000000000000000000602082015250565b60006135b9602d83612528565b91506135c48261355d565b604082019050919050565b600060208201905081810360008301526135e8816135ac565b9050919050565b7f50726f6a65637420697320636c6f73656420616e642063616e6e6f742062652060008201527f7570646174656400000000000000000000000000000000000000000000000000602082015250565b600061364b602783612528565b9150613656826135ef565b604082019050919050565b6000602082019050818103600083015261367a8161363e565b9050919050565b7f42696420646f6573206e6f742065786973740000000000000000000000000000600082015250565b60006136b7601283612528565b91506136c282613681565b602082019050919050565b600060208201905081810360008301526136e6816136aa565b9050919050565b60006136f8826125ec565b9150613703836125ec565b925082820390508181111561371b5761371a61337c565b5b92915050565b7f4e487b7100000000000000000000000000000000000000000000000000000000600052603160045260246000fdfea2646970667358221220a561a131c2e621cdb67e23f863eb4497b8dd15d5f540560b20d2171f6f5ed7cd64736f6c63430008110033",
  "immutableReferences": {},
  "source": "// SPDX-License-Identifier: GPL-3.0\r\n\r\npragma solidity >=0.7.0 <0.9.0;\r\n\r\ncontract ContractingPlatform {\r\n\r\n    // Bidding Struct\r\n    struct Bid {\r\n        string message;\r\n        uint256 amount;\r\n        address bidder;\r\n        string bidStatus;\r\n    }\r\n    \r\n    // Project/Tender Structure\r\n    struct Project {\r\n        string title;\r\n        string description;\r\n        uint256 budget;\r\n        bool isOpen;\r\n        uint256[] bidIds;\r\n        mapping(uint256 => Bid) bids;\r\n        address payable creator; \r\n        uint256 deadline;\r\n        address payable lowestBidder;\r\n        uint256 lowestBid;\r\n    }\r\n\r\n    // Party Structure\r\n    struct Party {\r\n        string name;\r\n        address partyAddress;\r\n        uint256[] projectIds;\r\n        mapping(uint256 => Project) projects;\r\n    }\r\n    \r\n    mapping (address => Party) public parties;\r\n    address[] public partyAddresses;\r\n    \r\n    uint256 public projectCount;\r\n    \r\n    address public admin;\r\n    \r\n    constructor() {\r\n        admin = msg.sender;\r\n    }\r\n\r\n    // Function for creating party\r\n    function createParty(string memory _name, address _partyAddress) public {\r\n        require(_partyAddress != admin, \"Admin can't be a party\");\r\n        require(msg.sender == admin, \"Only admin can create a party\");\r\n        require(parties[_partyAddress].partyAddress == address(0), \"Party already exists\");\r\n\r\n        Party storage newParty = parties[_partyAddress];\r\n        newParty.name = _name;\r\n        newParty.partyAddress = _partyAddress;\r\n        newParty.projectIds = new uint256[](0);\r\n        partyAddresses.push(_partyAddress);\r\n    }\r\n\r\n    //Function for updating party\r\n    function updateParty(string memory _name, address _partyAddress) public {\r\n        require(parties[_partyAddress].partyAddress != address(0), \"Party does not exist\");\r\n        // require(msg.sender == admin, \"Only admin can update/delete party details.\");\r\n        require(msg.sender == parties[_partyAddress].partyAddress, \"Only party owner can update/delete party details.\");\r\n        Party storage updatedParty = parties[_partyAddress];\r\n        updatedParty.name  = _name;\r\n    }\r\n    \r\n    //Function for deleting a party on platform\r\n    function deleteParty(address _partyAddress) public {\r\n        require(parties[_partyAddress].partyAddress != address(0), \"Party does not exist\");\r\n        require(msg.sender == parties[_partyAddress].partyAddress, \"Only party owner can update/delete party details.\");\r\n        delete parties[_partyAddress];\r\n        for (uint256 i = 0; i < partyAddresses.length; i++) {\r\n            if (partyAddresses[i] == msg.sender) {\r\n                partyAddresses[i] = partyAddresses[partyAddresses.length - 1];\r\n                partyAddresses.pop();\r\n                break;\r\n            }\r\n        }\r\n    }\r\n\r\n    // Function for creating a project\r\n    function createProject(uint256 _budget, string memory _title, string memory _description, uint256 _deadline) public returns (uint256) {\r\n        require(parties[msg.sender].partyAddress != address(0), \"Party does not exist\");\r\n        uint256 projectId = projectCount;\r\n        Project storage newProject = parties[msg.sender].projects[projectId];\r\n        newProject.title = _title;\r\n        newProject.description = _description;\r\n        newProject.budget = _budget;\r\n        newProject.isOpen = true;\r\n        newProject.bidIds = new uint256[](0);\r\n        newProject.creator = payable(msg.sender);\r\n        newProject.deadline = _deadline;\r\n        newProject.lowestBidder = payable(address(0));\r\n        newProject.lowestBid = 0;\r\n        parties[msg.sender].projectIds.push(projectId);\r\n        projectCount++;\r\n        return projectId;\r\n    }\r\n\r\n    // Function for updating projects\r\n    function updateProject(uint256 _projectId, uint256 _newBudget, string memory _newTitle, string memory _newDescription, uint256 _newDeadline) public {\r\n        Project storage project = parties[msg.sender].projects[_projectId];\r\n        require(project.budget > 0, \"Project does not exist\");\r\n        require(project.creator == msg.sender, \"Only the creator of the project can update it\");\r\n        require(project.isOpen, \"Project is closed and cannot be updated\");\r\n        project.budget = _newBudget;\r\n        project.title = _newTitle;\r\n        project.description = _newDescription;\r\n        // project.isOpen = _isOpen;\r\n        project.deadline = _newDeadline;\r\n    }\r\n    \r\n    // Function for closing projects\r\n    function closeProject(uint256 _projectId) public {\r\n        Project storage project = parties[msg.sender].projects[_projectId];\r\n        require(project.budget > 0, \"Project does not exist\");\r\n        require(msg.sender == project.creator, \"Only the owner can end the project\");\r\n        require(block.timestamp >= project.deadline, \"Bidding has not yet ended\");\r\n        require(project.isOpen, \"Project is already closed\");\r\n        project.isOpen = false;\r\n    }\r\n\r\n    // Function for creating bids on projects\r\n    function createBid(address _partyAddress, uint256 _projectId, string memory _message, uint256 _amount, string memory status) public{\r\n        Project storage project = parties[_partyAddress].projects[_projectId];\r\n        require(parties[msg.sender].partyAddress != address(0), \"Party does not exist\");\r\n        require(project.budget > 0, \"Project does not exist\");\r\n        require(project.isOpen, \"Project is not open for bids\");\r\n        require(block.timestamp < project.deadline, \"Bidding has ended\");\r\n        require(msg.sender != project.creator, \"Owner cannot bid on their own project\");\r\n\r\n        Bid memory newBid = Bid({\r\n            message: _message,\r\n            amount: _amount,\r\n            bidder: msg.sender,\r\n            bidStatus: status\r\n        });\r\n        uint256 bidId = project.bidIds.length;\r\n        project.bidIds.push(bidId);\r\n        project.bids[bidId] = newBid;\r\n    }\r\n\r\n   // For getting bid count on a particular project\r\n   function getBidCount(address _partyAddress, uint256 _projectId) public view returns (uint256) {\r\n    \trequire(parties[_partyAddress].projects[_projectId].budget > 0, \"Project does not exist\");\r\n    \treturn parties[_partyAddress].projects[_projectId].bidIds.length;\r\n    }\r\n\r\n    // For getting bid details like message, amount, address of bidders \r\n    function getBidDetails(address _partyAddress, uint256 _projectId, uint256 _bidId) public view returns (string memory, uint256, address) {\r\n    \tProject storage project = parties[_partyAddress].projects[_projectId];\r\n\trequire(project.bids[_bidId].amount > 0, \"Bid does not exist\");\r\n    \treturn (\r\n\t\tproject.bids[_bidId].message,\r\n\t\tproject.bids[_bidId].amount,\r\n\t\tproject.bids[_bidId].bidder\r\n    \t);\r\n    }\r\n\r\n    // Function for getting details of a particular party\r\n    function getPartyDetails(address _partyAddress) public view returns (string memory, address) {\r\n        require(parties[_partyAddress].partyAddress != address(0), \"Party does not exist\");\r\n        return (parties[_partyAddress].name, parties[_partyAddress].partyAddress);\r\n    }\r\n\r\n    // Function for getting project counts\r\n    function getProjectCount(address _partyAddress) public view returns (uint256) {\r\n\t require(parties[_partyAddress].partyAddress != address(0), \"Party does not exist\");\r\n\t return parties[_partyAddress].projectIds.length;\r\n    }\r\n\r\n    // Function for getting all the projects ids associated with a particular party\r\n    function getProjectIds(address _partyAddress) public view returns (uint256[] memory) {\r\n\trequire(parties[_partyAddress].partyAddress != address(0), \"Party does not exist\");\r\n\treturn parties[_partyAddress].projectIds;\r\n    }\r\n\r\n    // Function for getting details of a project\r\n    function getProjectDetails(address _partyAddress, uint256 _projectId) public view returns (string memory, string memory, uint256, bool, uint256) {\r\n\trequire(parties[_partyAddress].projects[_projectId].budget > 0, \"Project does not exist\");\r\n\treturn (\r\n\t\tparties[_partyAddress].projects[_projectId].title,\r\n\t\tparties[_partyAddress].projects[_projectId].description,\r\n\t\tparties[_partyAddress].projects[_projectId].budget,\r\n\t\tparties[_partyAddress].projects[_projectId].isOpen,\r\n\t\tparties[_partyAddress].projects[_projectId].deadline\r\n\t);\r\n    }\r\n\r\n    // Function for getting total no of parties\r\n    function getPartyCount() public view returns (uint256) {\r\n        return partyAddresses.length;\r\n    }\r\n    \r\n    // Function for getting the address of a particular party.\r\n    function getPartyAddress(uint256 index) public view returns (address) {\r\n        return partyAddresses[index];\r\n    }\r\n}\r\n",
  "sourcePath": "C:\\Users\\sabba\\OneDrive\\Documents\\BlockchainProject\\blockchain-based-contracting-system\\contracts\\main.sol",
  "compiler": {
    "name": "solc",
    "version": "0.8.17+commit.8df45f5f.Emscripten.clang"
  },
  "schemaVersion": "3.4.13",
  "updatedAt": "2023-03-29T18:17:52.881Z",
  "networkType": "ethereum",
  "devdoc": {
    "kind": "dev",
    "methods": {},
    "version": 1
  },
  "userdoc": {
    "kind": "user",
    "methods": {},
    "version": 1
  }
}