{
  "contractName": "Party",
  "abi": [
    {
      "inputs": [
        {
          "internalType": "string",
          "name": "_name",
          "type": "string"
        },
        {
          "internalType": "string",
          "name": "_email",
          "type": "string"
        },
        {
          "internalType": "string",
          "name": "_phoneNumber",
          "type": "string"
        },
        {
          "internalType": "string",
          "name": "_panNumber",
          "type": "string"
        },
        {
          "internalType": "string",
          "name": "_gstNumber",
          "type": "string"
        },
        {
          "internalType": "uint256",
          "name": "_age",
          "type": "uint256"
        }
      ],
      "name": "createParty",
      "outputs": [],
      "stateMutability": "nonpayable",
      "type": "function"
    },
    {
      "inputs": [
        {
          "internalType": "uint256",
          "name": "_index",
          "type": "uint256"
        }
      ],
      "name": "getParty",
      "outputs": [
        {
          "internalType": "string",
          "name": "",
          "type": "string"
        },
        {
          "internalType": "string",
          "name": "",
          "type": "string"
        },
        {
          "internalType": "string",
          "name": "",
          "type": "string"
        },
        {
          "internalType": "string",
          "name": "",
          "type": "string"
        },
        {
          "internalType": "string",
          "name": "",
          "type": "string"
        },
        {
          "internalType": "uint256",
          "name": "",
          "type": "uint256"
        }
      ],
      "stateMutability": "view",
      "type": "function",
      "constant": true
    },
    {
      "inputs": [
        {
          "internalType": "uint256",
          "name": "_index",
          "type": "uint256"
        },
        {
          "internalType": "string",
          "name": "_name",
          "type": "string"
        },
        {
          "internalType": "string",
          "name": "_email",
          "type": "string"
        },
        {
          "internalType": "string",
          "name": "_phoneNumber",
          "type": "string"
        },
        {
          "internalType": "string",
          "name": "_panNumber",
          "type": "string"
        },
        {
          "internalType": "string",
          "name": "_gstNumber",
          "type": "string"
        },
        {
          "internalType": "uint256",
          "name": "_age",
          "type": "uint256"
        }
      ],
      "name": "updateParty",
      "outputs": [
        {
          "internalType": "string",
          "name": "",
          "type": "string"
        },
        {
          "internalType": "string",
          "name": "",
          "type": "string"
        },
        {
          "internalType": "string",
          "name": "",
          "type": "string"
        },
        {
          "internalType": "string",
          "name": "",
          "type": "string"
        },
        {
          "internalType": "string",
          "name": "",
          "type": "string"
        },
        {
          "internalType": "uint256",
          "name": "",
          "type": "uint256"
        }
      ],
      "stateMutability": "nonpayable",
      "type": "function"
    },
    {
      "inputs": [
        {
          "internalType": "uint256",
          "name": "_index",
          "type": "uint256"
        }
      ],
      "name": "destory",
      "outputs": [],
      "stateMutability": "nonpayable",
      "type": "function"
    }
  ],
  "bytecode": "0x608060405234801561001057600080fd5b50611289806100206000396000f3fe608060405234801561001057600080fd5b506004361061004c5760003560e01c8063206cb35414610051578063908e049b1461008657806394758218146100a25780639f043121146100d7575b600080fd5b61006b60048036038101906100669190610bc0565b6100f3565b60405161007d96959493929190610d7c565b60405180910390f35b6100a0600480360381019061009b9190610e00565b610521565b005b6100bc60048036038101906100b79190610e00565b6105a1565b6040516100ce96959493929190610d7c565b60405180910390f35b6100f160048036038101906100ec9190610e2d565b6108f3565b005b606080606080606060008060008e8154811061011257610111610f46565b5b90600052602060002090600602016040518060c001604052908160008201805461013b90610fa4565b80601f016020809104026020016040519081016040528092919081815260200182805461016790610fa4565b80156101b45780601f10610189576101008083540402835291602001916101b4565b820191906000526020600020905b81548152906001019060200180831161019757829003601f168201915b505050505081526020016001820180546101cd90610fa4565b80601f01602080910402602001604051908101604052809291908181526020018280546101f990610fa4565b80156102465780601f1061021b57610100808354040283529160200191610246565b820191906000526020600020905b81548152906001019060200180831161022957829003601f168201915b5050505050815260200160028201805461025f90610fa4565b80601f016020809104026020016040519081016040528092919081815260200182805461028b90610fa4565b80156102d85780601f106102ad576101008083540402835291602001916102d8565b820191906000526020600020905b8154815290600101906020018083116102bb57829003601f168201915b505050505081526020016003820180546102f190610fa4565b80601f016020809104026020016040519081016040528092919081815260200182805461031d90610fa4565b801561036a5780601f1061033f5761010080835404028352916020019161036a565b820191906000526020600020905b81548152906001019060200180831161034d57829003601f168201915b5050505050815260200160048201805461038390610fa4565b80601f01602080910402602001604051908101604052809291908181526020018280546103af90610fa4565b80156103fc5780601f106103d1576101008083540402835291602001916103fc565b820191906000526020600020905b8154815290600101906020018083116103df57829003601f168201915b5050505050815260200160058201548152505090508c81600001819052508b81602001819052508a8160400181905250898160600181905250888160800181905250878160a00181815250508060008f8154811061045d5761045c610f46565b5b906000526020600020906006020160008201518160000190816104809190611181565b5060208201518160010190816104969190611181565b5060408201518160020190816104ac9190611181565b5060608201518160030190816104c29190611181565b5060808201518160040190816104d89190611181565b5060a08201518160050155905050806000015181602001518260400151836060015184608001518560a00151965096509650965096509650509750975097509750975097915050565b6000818154811061053557610534610f46565b5b90600052602060002090600602016000808201600061055491906109d3565b60018201600061056491906109d3565b60028201600061057491906109d3565b60038201600061058491906109d3565b60048201600061059491906109d3565b6005820160009055505050565b6060806060806060600080600088815481106105c0576105bf610f46565b5b90600052602060002090600602016040518060c00160405290816000820180546105e990610fa4565b80601f016020809104026020016040519081016040528092919081815260200182805461061590610fa4565b80156106625780601f1061063757610100808354040283529160200191610662565b820191906000526020600020905b81548152906001019060200180831161064557829003601f168201915b5050505050815260200160018201805461067b90610fa4565b80601f01602080910402602001604051908101604052809291908181526020018280546106a790610fa4565b80156106f45780601f106106c9576101008083540402835291602001916106f4565b820191906000526020600020905b8154815290600101906020018083116106d757829003601f168201915b5050505050815260200160028201805461070d90610fa4565b80601f016020809104026020016040519081016040528092919081815260200182805461073990610fa4565b80156107865780601f1061075b57610100808354040283529160200191610786565b820191906000526020600020905b81548152906001019060200180831161076957829003601f168201915b5050505050815260200160038201805461079f90610fa4565b80601f01602080910402602001604051908101604052809291908181526020018280546107cb90610fa4565b80156108185780601f106107ed57610100808354040283529160200191610818565b820191906000526020600020905b8154815290600101906020018083116107fb57829003601f168201915b5050505050815260200160048201805461083190610fa4565b80601f016020809104026020016040519081016040528092919081815260200182805461085d90610fa4565b80156108aa5780601f1061087f576101008083540402835291602001916108aa565b820191906000526020600020905b81548152906001019060200180831161088d57829003601f168201915b505050505081526020016005820154815250509050806000015181602001518260400151836060015184608001518560a001519650965096509650965096505091939550919395565b60006040518060c00160405280888152602001878152602001868152602001858152602001848152602001838152509050600081908060018154018082558091505060019003906000526020600020906006020160009091909190915060008201518160000190816109659190611181565b50602082015181600101908161097b9190611181565b5060408201518160020190816109919190611181565b5060608201518160030190816109a79190611181565b5060808201518160040190816109bd9190611181565b5060a08201518160050155505050505050505050565b5080546109df90610fa4565b6000825580601f106109f15750610a10565b601f016020900490600052602060002090810190610a0f9190610a13565b5b50565b5b80821115610a2c576000816000905550600101610a14565b5090565b6000604051905090565b600080fd5b600080fd5b6000819050919050565b610a5781610a44565b8114610a6257600080fd5b50565b600081359050610a7481610a4e565b92915050565b600080fd5b600080fd5b6000601f19601f8301169050919050565b7f4e487b7100000000000000000000000000000000000000000000000000000000600052604160045260246000fd5b610acd82610a84565b810181811067ffffffffffffffff82111715610aec57610aeb610a95565b5b80604052505050565b6000610aff610a30565b9050610b0b8282610ac4565b919050565b600067ffffffffffffffff821115610b2b57610b2a610a95565b5b610b3482610a84565b9050602081019050919050565b82818337600083830152505050565b6000610b63610b5e84610b10565b610af5565b905082815260208101848484011115610b7f57610b7e610a7f565b5b610b8a848285610b41565b509392505050565b600082601f830112610ba757610ba6610a7a565b5b8135610bb7848260208601610b50565b91505092915050565b600080600080600080600060e0888a031215610bdf57610bde610a3a565b5b6000610bed8a828b01610a65565b975050602088013567ffffffffffffffff811115610c0e57610c0d610a3f565b5b610c1a8a828b01610b92565b965050604088013567ffffffffffffffff811115610c3b57610c3a610a3f565b5b610c478a828b01610b92565b955050606088013567ffffffffffffffff811115610c6857610c67610a3f565b5b610c748a828b01610b92565b945050608088013567ffffffffffffffff811115610c9557610c94610a3f565b5b610ca18a828b01610b92565b93505060a088013567ffffffffffffffff811115610cc257610cc1610a3f565b5b610cce8a828b01610b92565b92505060c0610cdf8a828b01610a65565b91505092959891949750929550565b600081519050919050565b600082825260208201905092915050565b60005b83811015610d28578082015181840152602081019050610d0d565b60008484015250505050565b6000610d3f82610cee565b610d498185610cf9565b9350610d59818560208601610d0a565b610d6281610a84565b840191505092915050565b610d7681610a44565b82525050565b600060c0820190508181036000830152610d968189610d34565b90508181036020830152610daa8188610d34565b90508181036040830152610dbe8187610d34565b90508181036060830152610dd28186610d34565b90508181036080830152610de68185610d34565b9050610df560a0830184610d6d565b979650505050505050565b600060208284031215610e1657610e15610a3a565b5b6000610e2484828501610a65565b91505092915050565b60008060008060008060c08789031215610e4a57610e49610a3a565b5b600087013567ffffffffffffffff811115610e6857610e67610a3f565b5b610e7489828a01610b92565b965050602087013567ffffffffffffffff811115610e9557610e94610a3f565b5b610ea189828a01610b92565b955050604087013567ffffffffffffffff811115610ec257610ec1610a3f565b5b610ece89828a01610b92565b945050606087013567ffffffffffffffff811115610eef57610eee610a3f565b5b610efb89828a01610b92565b935050608087013567ffffffffffffffff811115610f1c57610f1b610a3f565b5b610f2889828a01610b92565b92505060a0610f3989828a01610a65565b9150509295509295509295565b7f4e487b7100000000000000000000000000000000000000000000000000000000600052603260045260246000fd5b7f4e487b7100000000000000000000000000000000000000000000000000000000600052602260045260246000fd5b60006002820490506001821680610fbc57607f821691505b602082108103610fcf57610fce610f75565b5b50919050565b60008190508160005260206000209050919050565b60006020601f8301049050919050565b600082821b905092915050565b6000600883026110377fffffffffffffffffffffffffffffffffffffffffffffffffffffffffffffffff82610ffa565b6110418683610ffa565b95508019841693508086168417925050509392505050565b6000819050919050565b600061107e61107961107484610a44565b611059565b610a44565b9050919050565b6000819050919050565b61109883611063565b6110ac6110a482611085565b848454611007565b825550505050565b600090565b6110c16110b4565b6110cc81848461108f565b505050565b5b818110156110f0576110e56000826110b9565b6001810190506110d2565b5050565b601f8211156111355761110681610fd5565b61110f84610fea565b8101602085101561111e578190505b61113261112a85610fea565b8301826110d1565b50505b505050565b600082821c905092915050565b60006111586000198460080261113a565b1980831691505092915050565b60006111718383611147565b9150826002028217905092915050565b61118a82610cee565b67ffffffffffffffff8111156111a3576111a2610a95565b5b6111ad8254610fa4565b6111b88282856110f4565b600060209050601f8311600181146111eb57600084156111d9578287015190505b6111e38582611165565b86555061124b565b601f1984166111f986610fd5565b60005b82811015611221578489015182556001820191506020850194506020810190506111fc565b8683101561123e578489015161123a601f891682611147565b8355505b6001600288020188555050505b50505050505056fea2646970667358221220311e53029ec7ceb4bd7f569af23f2b7a5f82b515e88031837e62f524798a62a764736f6c63430008110033",
  "immutableReferences": {},
  "source": "// SPDX-License-Identifier: GPL-3.0\r\n\r\npragma solidity >=0.7.0 <0.9.0;\r\n\r\ncontract Party {\r\n\r\n    struct Party1{\r\n        string name;\r\n        string email;\r\n        string phoneNumber;\r\n        string panNumber;\r\n        string gstNumber;\r\n        uint age;\r\n    }\r\n\r\n    Party1[] party;\r\n\r\n    //create a party\r\n    function createParty(string memory _name, string memory _email, string memory _phoneNumber, string memory _panNumber, string memory _gstNumber, uint _age)public {\r\n        Party1 memory newParty = Party1(_name, _email, _phoneNumber, _panNumber, _gstNumber, _age);\r\n        party.push(newParty);\r\n    }\r\n\r\n    //Get a party\r\n    function getParty(uint _index) public view returns(string memory, string memory, string memory, string memory, string memory, uint){\r\n        Party1 memory partyToReturn = party[_index];\r\n        return (partyToReturn.name, partyToReturn.email, partyToReturn.phoneNumber, partyToReturn.panNumber, partyToReturn.gstNumber, partyToReturn.age);\r\n    }\r\n\r\n    // updating a party\r\n    function updateParty(uint _index, string memory _name, string memory _email, string memory _phoneNumber, string memory _panNumber, string memory _gstNumber, uint _age) public returns(string memory, string memory, string memory, string memory, string memory, uint) {\r\n        Party1 memory partyToUpdate = party[_index];\r\n        partyToUpdate.name = _name;\r\n        partyToUpdate.email = _email;\r\n        partyToUpdate.phoneNumber = _phoneNumber;\r\n        partyToUpdate.panNumber = _panNumber;\r\n        partyToUpdate.gstNumber = _gstNumber;\r\n        partyToUpdate.age = _age;\r\n        party[_index] = partyToUpdate;\r\n        return(partyToUpdate.name, partyToUpdate.email, partyToUpdate.phoneNumber, partyToUpdate.panNumber, partyToUpdate.gstNumber, partyToUpdate.age);\r\n    }\r\n    \r\n    // delete party\r\n    function destory(uint _index) public {\r\n        delete party[_index];\r\n    }\r\n}",
  "sourcePath": "C:\\Users\\kumar\\Documents\\Visual Studio code\\2_Blockchain\\1.contracting_system\\contracts\\party.sol",
  "compiler": {
    "name": "solc",
    "version": "0.8.17+commit.8df45f5f.Emscripten.clang"
  },
  "schemaVersion": "3.4.11",
  "updatedAt": "2023-02-11T13:59:05.252Z",
  "networkType": "ethereum",
  "devdoc": {
    "kind": "dev",
    "methods": {},
    "version": 1
  },
  "userdoc": {
    "kind": "user",
    "methods": {},
    "version": 1
  }
}