{
  "contractName": "PartyContract",
  "abi": [
    {
      "inputs": [],
      "stateMutability": "nonpayable",
      "type": "constructor"
    },
    {
      "inputs": [
        {
          "internalType": "uint256",
          "name": "",
          "type": "uint256"
        }
      ],
      "name": "bids",
      "outputs": [
        {
          "internalType": "string",
          "name": "bidClause",
          "type": "string"
        },
        {
          "internalType": "uint256",
          "name": "quotedAmount",
          "type": "uint256"
        },
        {
          "internalType": "address",
          "name": "bidderAddress",
          "type": "address"
        },
        {
          "internalType": "uint256",
          "name": "tenderAddress",
          "type": "uint256"
        },
        {
          "internalType": "enum BidStatus",
          "name": "bidStatus",
          "type": "uint8"
        },
        {
          "internalType": "uint256",
          "name": "createdAt",
          "type": "uint256"
        }
      ],
      "stateMutability": "view",
      "type": "function"
    },
    {
      "inputs": [
        {
          "internalType": "address",
          "name": "",
          "type": "address"
        }
      ],
      "name": "parties",
      "outputs": [
        {
          "internalType": "string",
          "name": "name",
          "type": "string"
        },
        {
          "internalType": "string",
          "name": "contactNumber",
          "type": "string"
        },
        {
          "internalType": "string",
          "name": "email",
          "type": "string"
        },
        {
          "internalType": "string",
          "name": "password",
          "type": "string"
        },
        {
          "internalType": "uint256",
          "name": "trustScore",
          "type": "uint256"
        },
        {
          "internalType": "uint256",
          "name": "createdAt",
          "type": "uint256"
        },
        {
          "internalType": "address",
          "name": "partyAddress",
          "type": "address"
        }
      ],
      "stateMutability": "view",
      "type": "function"
    },
    {
      "inputs": [
        {
          "internalType": "uint256",
          "name": "",
          "type": "uint256"
        }
      ],
      "name": "partyAddresses",
      "outputs": [
        {
          "internalType": "address",
          "name": "",
          "type": "address"
        }
      ],
      "stateMutability": "view",
      "type": "function"
    },
    {
      "inputs": [
        {
          "internalType": "uint256",
          "name": "",
          "type": "uint256"
        }
      ],
      "name": "tenders",
      "outputs": [
        {
          "internalType": "string",
          "name": "title",
          "type": "string"
        },
        {
          "internalType": "string",
          "name": "description",
          "type": "string"
        },
        {
          "internalType": "uint256",
          "name": "budget",
          "type": "uint256"
        },
        {
          "internalType": "address",
          "name": "issuerAddress",
          "type": "address"
        },
        {
          "internalType": "enum TenderStatus",
          "name": "tenderStatus",
          "type": "uint8"
        },
        {
          "internalType": "uint256",
          "name": "createdAt",
          "type": "uint256"
        },
        {
          "internalType": "uint256",
          "name": "deadline",
          "type": "uint256"
        },
        {
          "internalType": "uint256",
          "name": "totalMilestones",
          "type": "uint256"
        },
        {
          "internalType": "address",
          "name": "tenderAddress",
          "type": "address"
        }
      ],
      "stateMutability": "view",
      "type": "function"
    },
    {
      "inputs": [
        {
          "internalType": "string",
          "name": "_name",
          "type": "string"
        },
        {
          "internalType": "string",
          "name": "_contactNumber",
          "type": "string"
        },
        {
          "internalType": "string",
          "name": "_email",
          "type": "string"
        },
        {
          "internalType": "string",
          "name": "_password",
          "type": "string"
        },
        {
          "internalType": "address",
          "name": "_partyAddress",
          "type": "address"
        }
      ],
      "name": "createParty",
      "outputs": [],
      "stateMutability": "nonpayable",
      "type": "function"
    },
    {
      "inputs": [
        {
          "internalType": "string",
          "name": "_name",
          "type": "string"
        },
        {
          "internalType": "string",
          "name": "_password",
          "type": "string"
        },
        {
          "internalType": "address",
          "name": "_partyAddress",
          "type": "address"
        }
      ],
      "name": "updateParty",
      "outputs": [],
      "stateMutability": "nonpayable",
      "type": "function"
    },
    {
      "inputs": [
        {
          "internalType": "address",
          "name": "_partyAddress",
          "type": "address"
        }
      ],
      "name": "deleteParty",
      "outputs": [],
      "stateMutability": "nonpayable",
      "type": "function"
    },
    {
      "inputs": [
        {
          "internalType": "address",
          "name": "_partyAddress",
          "type": "address"
        }
      ],
      "name": "getPartyDetails",
      "outputs": [
        {
          "internalType": "string",
          "name": "",
          "type": "string"
        },
        {
          "internalType": "string",
          "name": "",
          "type": "string"
        },
        {
          "internalType": "string",
          "name": "",
          "type": "string"
        },
        {
          "internalType": "address",
          "name": "",
          "type": "address"
        },
        {
          "internalType": "uint256",
          "name": "",
          "type": "uint256"
        }
      ],
      "stateMutability": "view",
      "type": "function"
    },
    {
      "inputs": [
        {
          "internalType": "address",
          "name": "_partyAddress",
          "type": "address"
        },
        {
          "internalType": "uint256",
          "name": "_trustScore",
          "type": "uint256"
        }
      ],
      "name": "updateTrustScore",
      "outputs": [],
      "stateMutability": "nonpayable",
      "type": "function"
    },
    {
      "inputs": [
        {
          "internalType": "address",
          "name": "_partyAddress",
          "type": "address"
        },
        {
          "internalType": "uint256",
          "name": "_budget",
          "type": "uint256"
        },
        {
          "internalType": "string",
          "name": "_title",
          "type": "string"
        },
        {
          "internalType": "string",
          "name": "_description",
          "type": "string"
        },
        {
          "internalType": "uint256",
          "name": "_deadline",
          "type": "uint256"
        },
        {
          "internalType": "uint256",
          "name": "_totalMilestones",
          "type": "uint256"
        }
      ],
      "name": "createTender",
      "outputs": [],
      "stateMutability": "nonpayable",
      "type": "function"
    },
    {
      "inputs": [],
      "name": "getAllTenders",
      "outputs": [
        {
          "components": [
            {
              "internalType": "string",
              "name": "title",
              "type": "string"
            },
            {
              "internalType": "string",
              "name": "description",
              "type": "string"
            },
            {
              "internalType": "uint256",
              "name": "budget",
              "type": "uint256"
            },
            {
              "internalType": "address",
              "name": "issuerAddress",
              "type": "address"
            },
            {
              "internalType": "enum TenderStatus",
              "name": "tenderStatus",
              "type": "uint8"
            },
            {
              "internalType": "uint256",
              "name": "createdAt",
              "type": "uint256"
            },
            {
              "internalType": "uint256",
              "name": "deadline",
              "type": "uint256"
            },
            {
              "internalType": "uint256",
              "name": "totalMilestones",
              "type": "uint256"
            },
            {
              "internalType": "address",
              "name": "tenderAddress",
              "type": "address"
            },
            {
              "internalType": "address[]",
              "name": "validatorsAddresses",
              "type": "address[]"
            },
            {
              "internalType": "uint256[]",
              "name": "milestoneTimePeriods",
              "type": "uint256[]"
            },
            {
              "internalType": "uint256[]",
              "name": "bidIds",
              "type": "uint256[]"
            }
          ],
          "internalType": "struct Tender[]",
          "name": "",
          "type": "tuple[]"
        }
      ],
      "stateMutability": "view",
      "type": "function"
    },
    {
      "inputs": [
        {
          "internalType": "address",
          "name": "_partyAddress",
          "type": "address"
        }
      ],
      "name": "getMyTenders",
      "outputs": [
        {
          "components": [
            {
              "internalType": "string",
              "name": "title",
              "type": "string"
            },
            {
              "internalType": "string",
              "name": "description",
              "type": "string"
            },
            {
              "internalType": "uint256",
              "name": "budget",
              "type": "uint256"
            },
            {
              "internalType": "address",
              "name": "issuerAddress",
              "type": "address"
            },
            {
              "internalType": "enum TenderStatus",
              "name": "tenderStatus",
              "type": "uint8"
            },
            {
              "internalType": "uint256",
              "name": "createdAt",
              "type": "uint256"
            },
            {
              "internalType": "uint256",
              "name": "deadline",
              "type": "uint256"
            },
            {
              "internalType": "uint256",
              "name": "totalMilestones",
              "type": "uint256"
            },
            {
              "internalType": "address",
              "name": "tenderAddress",
              "type": "address"
            },
            {
              "internalType": "address[]",
              "name": "validatorsAddresses",
              "type": "address[]"
            },
            {
              "internalType": "uint256[]",
              "name": "milestoneTimePeriods",
              "type": "uint256[]"
            },
            {
              "internalType": "uint256[]",
              "name": "bidIds",
              "type": "uint256[]"
            }
          ],
          "internalType": "struct Tender[]",
          "name": "",
          "type": "tuple[]"
        }
      ],
      "stateMutability": "view",
      "type": "function"
    },
    {
      "inputs": [
        {
          "internalType": "uint256",
          "name": "_tenderAddress",
          "type": "uint256"
        }
      ],
      "name": "getTenderDetails",
      "outputs": [
        {
          "components": [
            {
              "internalType": "string",
              "name": "title",
              "type": "string"
            },
            {
              "internalType": "string",
              "name": "description",
              "type": "string"
            },
            {
              "internalType": "uint256",
              "name": "budget",
              "type": "uint256"
            },
            {
              "internalType": "address",
              "name": "issuerAddress",
              "type": "address"
            },
            {
              "internalType": "enum TenderStatus",
              "name": "tenderStatus",
              "type": "uint8"
            },
            {
              "internalType": "uint256",
              "name": "createdAt",
              "type": "uint256"
            },
            {
              "internalType": "uint256",
              "name": "deadline",
              "type": "uint256"
            },
            {
              "internalType": "uint256",
              "name": "totalMilestones",
              "type": "uint256"
            },
            {
              "internalType": "address",
              "name": "tenderAddress",
              "type": "address"
            },
            {
              "internalType": "address[]",
              "name": "validatorsAddresses",
              "type": "address[]"
            },
            {
              "internalType": "uint256[]",
              "name": "milestoneTimePeriods",
              "type": "uint256[]"
            },
            {
              "internalType": "uint256[]",
              "name": "bidIds",
              "type": "uint256[]"
            }
          ],
          "internalType": "struct Tender",
          "name": "",
          "type": "tuple"
        }
      ],
      "stateMutability": "view",
      "type": "function"
    },
    {
      "inputs": [
        {
          "internalType": "uint256",
          "name": "_tenderAddress",
          "type": "uint256"
        },
        {
          "internalType": "enum TenderStatus",
          "name": "_tenderStatus",
          "type": "uint8"
        }
      ],
      "name": "updateTenderStatus",
      "outputs": [],
      "stateMutability": "nonpayable",
      "type": "function"
    },
    {
      "inputs": [
        {
          "internalType": "address",
          "name": "_partyAddress",
          "type": "address"
        },
        {
          "internalType": "uint256",
          "name": "_tenderAddress",
          "type": "uint256"
        },
        {
          "internalType": "uint256",
          "name": "_budget",
          "type": "uint256"
        },
        {
          "internalType": "string",
          "name": "_title",
          "type": "string"
        },
        {
          "internalType": "string",
          "name": "_description",
          "type": "string"
        },
        {
          "internalType": "uint256",
          "name": "_deadline",
          "type": "uint256"
        },
        {
          "internalType": "uint256",
          "name": "_totalMilestones",
          "type": "uint256"
        }
      ],
      "name": "updateTender",
      "outputs": [],
      "stateMutability": "nonpayable",
      "type": "function"
    },
    {
      "inputs": [
        {
          "internalType": "address",
          "name": "_partyAddress",
          "type": "address"
        },
        {
          "internalType": "uint256",
          "name": "_tenderAddress",
          "type": "uint256"
        }
      ],
      "name": "deleteTender",
      "outputs": [],
      "stateMutability": "nonpayable",
      "type": "function"
    },
    {
      "inputs": [
        {
          "internalType": "address",
          "name": "_bidderAddress",
          "type": "address"
        },
        {
          "internalType": "uint256",
          "name": "_tenderAddress",
          "type": "uint256"
        },
        {
          "internalType": "string",
          "name": "_bidClause",
          "type": "string"
        },
        {
          "internalType": "uint256",
          "name": "_quotedAmount",
          "type": "uint256"
        }
      ],
      "name": "createBid",
      "outputs": [],
      "stateMutability": "nonpayable",
      "type": "function"
    },
    {
      "inputs": [
        {
          "internalType": "address",
          "name": "_bidderAddress",
          "type": "address"
        },
        {
          "internalType": "address",
          "name": "_issuerAddress",
          "type": "address"
        },
        {
          "internalType": "uint256",
          "name": "_tenderId",
          "type": "uint256"
        },
        {
          "internalType": "uint256",
          "name": "_bidId",
          "type": "uint256"
        }
      ],
      "name": "getBidDetails",
      "outputs": [
        {
          "components": [
            {
              "internalType": "string",
              "name": "bidClause",
              "type": "string"
            },
            {
              "internalType": "uint256",
              "name": "quotedAmount",
              "type": "uint256"
            },
            {
              "internalType": "address",
              "name": "bidderAddress",
              "type": "address"
            },
            {
              "internalType": "uint256",
              "name": "tenderAddress",
              "type": "uint256"
            },
            {
              "internalType": "enum BidStatus",
              "name": "bidStatus",
              "type": "uint8"
            },
            {
              "internalType": "uint256",
              "name": "createdAt",
              "type": "uint256"
            }
          ],
          "internalType": "struct Bid",
          "name": "",
          "type": "tuple"
        }
      ],
      "stateMutability": "view",
      "type": "function"
    },
    {
      "inputs": [
        {
          "internalType": "address",
          "name": "_partyAddress",
          "type": "address"
        },
        {
          "internalType": "uint256",
          "name": "_tenderId",
          "type": "uint256"
        }
      ],
      "name": "getAllBids",
      "outputs": [
        {
          "components": [
            {
              "internalType": "string",
              "name": "bidClause",
              "type": "string"
            },
            {
              "internalType": "uint256",
              "name": "quotedAmount",
              "type": "uint256"
            },
            {
              "internalType": "address",
              "name": "bidderAddress",
              "type": "address"
            },
            {
              "internalType": "uint256",
              "name": "tenderAddress",
              "type": "uint256"
            },
            {
              "internalType": "enum BidStatus",
              "name": "bidStatus",
              "type": "uint8"
            },
            {
              "internalType": "uint256",
              "name": "createdAt",
              "type": "uint256"
            }
          ],
          "internalType": "struct Bid[]",
          "name": "",
          "type": "tuple[]"
        }
      ],
      "stateMutability": "view",
      "type": "function"
    },
    {
      "inputs": [
        {
          "internalType": "address",
          "name": "_partyAddress",
          "type": "address"
        },
        {
          "internalType": "uint256",
          "name": "_tenderAddress",
          "type": "uint256"
        },
        {
          "internalType": "uint256",
          "name": "_bidAddress",
          "type": "uint256"
        },
        {
          "internalType": "enum BidStatus",
          "name": "_bidStatus",
          "type": "uint8"
        }
      ],
      "name": "updateBidStatus",
      "outputs": [],
      "stateMutability": "nonpayable",
      "type": "function"
    },
    {
      "inputs": [
        {
          "internalType": "address",
          "name": "_bidderAddress",
          "type": "address"
        },
        {
          "internalType": "uint256",
          "name": "_bidId",
          "type": "uint256"
        },
        {
          "internalType": "string",
          "name": "_bidClause",
          "type": "string"
        },
        {
          "internalType": "uint256",
          "name": "_quotedAmount",
          "type": "uint256"
        }
      ],
      "name": "updateBid",
      "outputs": [],
      "stateMutability": "nonpayable",
      "type": "function"
    },
    {
      "inputs": [
        {
          "internalType": "address",
          "name": "_bidderAddress",
          "type": "address"
        },
        {
          "internalType": "uint256",
          "name": "_tenderId",
          "type": "uint256"
        },
        {
          "internalType": "uint256",
          "name": "_bidId",
          "type": "uint256"
        }
      ],
      "name": "deleteBid",
      "outputs": [],
      "stateMutability": "nonpayable",
      "type": "function"
    },
    {
      "inputs": [
        {
          "internalType": "address",
          "name": "_partyAddress",
          "type": "address"
        },
        {
          "internalType": "uint256",
          "name": "_tenderId",
          "type": "uint256"
        }
      ],
      "name": "selectTopBids",
      "outputs": [
        {
          "components": [
            {
              "internalType": "string",
              "name": "bidClause",
              "type": "string"
            },
            {
              "internalType": "uint256",
              "name": "quotedAmount",
              "type": "uint256"
            },
            {
              "internalType": "address",
              "name": "bidderAddress",
              "type": "address"
            },
            {
              "internalType": "uint256",
              "name": "tenderAddress",
              "type": "uint256"
            },
            {
              "internalType": "enum BidStatus",
              "name": "bidStatus",
              "type": "uint8"
            },
            {
              "internalType": "uint256",
              "name": "createdAt",
              "type": "uint256"
            }
          ],
          "internalType": "struct Bid[]",
          "name": "",
          "type": "tuple[]"
        }
      ],
      "stateMutability": "view",
      "type": "function"
    },
    {
      "inputs": [
        {
          "internalType": "address",
          "name": "_partyAddress",
          "type": "address"
        },
        {
          "internalType": "uint256",
          "name": "_tenderId",
          "type": "uint256"
        },
        {
          "internalType": "uint256",
          "name": "_bidId",
          "type": "uint256"
        }
      ],
      "name": "finaliseWinnerBid",
      "outputs": [],
      "stateMutability": "nonpayable",
      "type": "function"
    }
  ],
  "bytecode": "0x60806040526000600355600060045534801561001a57600080fd5b506162c1806200002b6000396000f3fe608060405234801561001057600080fd5b50600436106101575760003560e01c80636dc4d10c116100c3578063bb693c4d1161007c578063bb693c4d1461040d578063c792d8fd14610429578063ed10bec214610459578063ef8c039114610475578063f91b6ae514610491578063fd140a95146104ad57610157565b80636dc4d10c146103515780637a0c7d391461036d578063aaaf418814610389578063b2a88f6f146103a5578063b344556c146103c1578063bac2e80d146103f157610157565b80634423c5f1116101155780634423c5f114610232578063465e1def146102675780634f2352071461029f57806353ee895d146102d557806355e8dea214610305578063612815161461032157610157565b8062da72281461015c578063167548c514610190578063171fd848146101ac578063228becb6146101c85780632358c046146101f857806326b26e5614610216575b600080fd5b610176600480360381019061017191906143e6565b6104dd565b6040516101879594939291906144cb565b60405180910390f35b6101aa60048036038101906101a59190614694565b610945565b005b6101c660048036038101906101c19190614717565b610a26565b005b6101e260048036038101906101dd91906143e6565b610cb1565b6040516101ef9190614c21565b60405180910390f35b610200611219565b60405161020d9190614c21565b60405180910390f35b610230600480360381019061022b9190614c43565b611693565b005b61024c60048036038101906102479190614c96565b611874565b60405161025e96959493929190614d0b565b60405180910390f35b610281600480360381019061027c9190614c96565b611965565b60405161029699989796959493929190614d82565b60405180910390f35b6102b960048036038101906102b491906143e6565b611b10565b6040516102cc9796959493929190614e1d565b60405180910390f35b6102ef60048036038101906102ea9190614c96565b611d92565b6040516102fc9190614fc8565b60405180910390f35b61031f600480360381019061031a9190614fea565b61218a565b005b61033b60048036038101906103369190614fea565b6125e2565b6040516103489190615184565b60405180910390f35b61036b600480360381019061036691906151cb565b61296c565b005b61038760048036038101906103829190615232565b612a5e565b005b6103a3600480360381019061039e91906152e2565b612c0c565b005b6103bf60048036038101906103ba9190615322565b612c54565b005b6103db60048036038101906103d691906153e7565b612ec9565b6040516103e891906154d7565b60405180910390f35b61040b600480360381019061040691906154f9565b613219565b005b61042760048036038101906104229190614c43565b613321565b005b610443600480360381019061043e9190614c96565b613663565b60405161045091906155d3565b60405180910390f35b610473600480360381019061046e9190614fea565b6136a2565b005b61048f600480360381019061048a91906143e6565b613834565b005b6104ab60048036038101906104a69190614694565b613bce565b005b6104c760048036038101906104c29190614fea565b613e91565b6040516104d49190615184565b60405180910390f35b6060806060600080858073ffffffffffffffffffffffffffffffffffffffff163373ffffffffffffffffffffffffffffffffffffffff1614610554576040517f08c379a000000000000000000000000000000000000000000000000000000000815260040161054b9061563a565b60405180910390fd5b86600073ffffffffffffffffffffffffffffffffffffffff166000808373ffffffffffffffffffffffffffffffffffffffff1673ffffffffffffffffffffffffffffffffffffffff16815260200190815260200160002060060160009054906101000a900473ffffffffffffffffffffffffffffffffffffffff1673ffffffffffffffffffffffffffffffffffffffff1603610625576040517f08c379a000000000000000000000000000000000000000000000000000000000815260040161061c906156a6565b60405180910390fd5b6000808973ffffffffffffffffffffffffffffffffffffffff1673ffffffffffffffffffffffffffffffffffffffff1681526020019081526020016000206000016000808a73ffffffffffffffffffffffffffffffffffffffff1673ffffffffffffffffffffffffffffffffffffffff1681526020019081526020016000206001016000808b73ffffffffffffffffffffffffffffffffffffffff1673ffffffffffffffffffffffffffffffffffffffff1681526020019081526020016000206002016000808c73ffffffffffffffffffffffffffffffffffffffff1673ffffffffffffffffffffffffffffffffffffffff16815260200190815260200160002060060160009054906101000a900473ffffffffffffffffffffffffffffffffffffffff166000808d73ffffffffffffffffffffffffffffffffffffffff1673ffffffffffffffffffffffffffffffffffffffff16815260200190815260200160002060040154848054610798906156f5565b80601f01602080910402602001604051908101604052809291908181526020018280546107c4906156f5565b80156108115780601f106107e657610100808354040283529160200191610811565b820191906000526020600020905b8154815290600101906020018083116107f457829003601f168201915b50505050509450838054610824906156f5565b80601f0160208091040260200160405190810160405280929190818152602001828054610850906156f5565b801561089d5780601f106108725761010080835404028352916020019161089d565b820191906000526020600020905b81548152906001019060200180831161088057829003601f168201915b505050505093508280546108b0906156f5565b80601f01602080910402602001604051908101604052809291908181526020018280546108dc906156f5565b80156109295780601f106108fe57610100808354040283529160200191610929565b820191906000526020600020905b81548152906001019060200180831161090c57829003601f168201915b5050505050925096509650965096509650505091939590929450565b83838173ffffffffffffffffffffffffffffffffffffffff166002600083815260200190815260200160002060020160009054906101000a900473ffffffffffffffffffffffffffffffffffffffff1673ffffffffffffffffffffffffffffffffffffffff16146109eb576040517f08c379a00000000000000000000000000000000000000000000000000000000081526004016109e290615798565b60405180910390fd5b600060026000878152602001908152602001600020905084816000019081610a139190615964565b5083816001018190555050505050505050565b808073ffffffffffffffffffffffffffffffffffffffff163373ffffffffffffffffffffffffffffffffffffffff1614610a95576040517f08c379a0000000000000000000000000000000000000000000000000000000008152600401610a8c9061563a565b60405180910390fd5b600073ffffffffffffffffffffffffffffffffffffffff166000808473ffffffffffffffffffffffffffffffffffffffff1673ffffffffffffffffffffffffffffffffffffffff16815260200190815260200160002060060160009054906101000a900473ffffffffffffffffffffffffffffffffffffffff1673ffffffffffffffffffffffffffffffffffffffff1614610b65576040517f08c379a0000000000000000000000000000000000000000000000000000000008152600401610b5c90615a82565b60405180910390fd5b60008060008473ffffffffffffffffffffffffffffffffffffffff1673ffffffffffffffffffffffffffffffffffffffff168152602001908152602001600020905086816000019081610bb89190615964565b5085816001019081610bca9190615964565b5084816002019081610bdc9190615964565b5083816003019081610bee9190615964565b5060008160040181905550428160050181905550828160060160006101000a81548173ffffffffffffffffffffffffffffffffffffffff021916908373ffffffffffffffffffffffffffffffffffffffff1602179055506005839080600181540180825580915050600190039060005260206000200160009091909190916101000a81548173ffffffffffffffffffffffffffffffffffffffff021916908373ffffffffffffffffffffffffffffffffffffffff16021790555050505050505050565b606060008060008473ffffffffffffffffffffffffffffffffffffffff1673ffffffffffffffffffffffffffffffffffffffff1681526020019081526020016000206007018054905011610d3a576040517f08c379a0000000000000000000000000000000000000000000000000000000008152600401610d3190615aee565b60405180910390fd5b60008060008473ffffffffffffffffffffffffffffffffffffffff1673ffffffffffffffffffffffffffffffffffffffff168152602001908152602001600020600701805480602002602001604051908101604052809291908181526020018280548015610dc757602002820191906000526020600020905b815481526020019060010190808311610db3575b505050505090506000815167ffffffffffffffff811115610deb57610dea614569565b5b604051908082528060200260200182016040528015610e2457816020015b610e116141d8565b815260200190600190039081610e095790505b50905060005b825181101561120e5760016000848381518110610e4a57610e49615b0e565b5b6020026020010151815260200190815260200160002060405180610180016040529081600082018054610e7c906156f5565b80601f0160208091040260200160405190810160405280929190818152602001828054610ea8906156f5565b8015610ef55780601f10610eca57610100808354040283529160200191610ef5565b820191906000526020600020905b815481529060010190602001808311610ed857829003601f168201915b50505050508152602001600182018054610f0e906156f5565b80601f0160208091040260200160405190810160405280929190818152602001828054610f3a906156f5565b8015610f875780601f10610f5c57610100808354040283529160200191610f87565b820191906000526020600020905b815481529060010190602001808311610f6a57829003601f168201915b50505050508152602001600282015481526020016003820160009054906101000a900473ffffffffffffffffffffffffffffffffffffffff1673ffffffffffffffffffffffffffffffffffffffff1673ffffffffffffffffffffffffffffffffffffffff1681526020016003820160149054906101000a900460ff16600481111561101557611014614896565b5b600481111561102757611026614896565b5b81526020016004820154815260200160058201548152602001600682015481526020016007820160009054906101000a900473ffffffffffffffffffffffffffffffffffffffff1673ffffffffffffffffffffffffffffffffffffffff1673ffffffffffffffffffffffffffffffffffffffff1681526020016008820180548060200260200160405190810160405280929190818152602001828054801561112457602002820191906000526020600020905b8160009054906101000a900473ffffffffffffffffffffffffffffffffffffffff1673ffffffffffffffffffffffffffffffffffffffff16815260200190600101908083116110da575b505050505081526020016009820180548060200260200160405190810160405280929190818152602001828054801561117c57602002820191906000526020600020905b815481526020019060010190808311611168575b50505050508152602001600a82018054806020026020016040519081016040528092919081815260200182805480156111d457602002820191906000526020600020905b8154815260200190600101908083116111c0575b5050505050815250508282815181106111f0576111ef615b0e565b5b6020026020010181905250808061120690615b6c565b915050610e2a565b508092505050919050565b6060600060058054905011611263576040517f08c379a000000000000000000000000000000000000000000000000000000000815260040161125a90615c00565b60405180910390fd5b600060035467ffffffffffffffff81111561128157611280614569565b5b6040519080825280602002602001820160405280156112ba57816020015b6112a76141d8565b81526020019060019003908161129f5790505b50905060005b60035481101561168b5760016000828152602001908152602001600020604051806101800160405290816000820180546112f9906156f5565b80601f0160208091040260200160405190810160405280929190818152602001828054611325906156f5565b80156113725780601f1061134757610100808354040283529160200191611372565b820191906000526020600020905b81548152906001019060200180831161135557829003601f168201915b5050505050815260200160018201805461138b906156f5565b80601f01602080910402602001604051908101604052809291908181526020018280546113b7906156f5565b80156114045780601f106113d957610100808354040283529160200191611404565b820191906000526020600020905b8154815290600101906020018083116113e757829003601f168201915b50505050508152602001600282015481526020016003820160009054906101000a900473ffffffffffffffffffffffffffffffffffffffff1673ffffffffffffffffffffffffffffffffffffffff1673ffffffffffffffffffffffffffffffffffffffff1681526020016003820160149054906101000a900460ff16600481111561149257611491614896565b5b60048111156114a4576114a3614896565b5b81526020016004820154815260200160058201548152602001600682015481526020016007820160009054906101000a900473ffffffffffffffffffffffffffffffffffffffff1673ffffffffffffffffffffffffffffffffffffffff1673ffffffffffffffffffffffffffffffffffffffff168152602001600882018054806020026020016040519081016040528092919081815260200182805480156115a157602002820191906000526020600020905b8160009054906101000a900473ffffffffffffffffffffffffffffffffffffffff1673ffffffffffffffffffffffffffffffffffffffff1681526020019060010190808311611557575b50505050508152602001600982018054806020026020016040519081016040528092919081815260200182805480156115f957602002820191906000526020600020905b8154815260200190600101908083116115e5575b50505050508152602001600a820180548060200260200160405190810160405280929190818152602001828054801561165157602002820191906000526020600020905b81548152602001906001019080831161163d575b50505050508152505082828151811061166d5761166c615b0e565b5b6020026020010181905250808061168390615b6c565b9150506112c0565b508091505090565b82828173ffffffffffffffffffffffffffffffffffffffff166001600083815260200190815260200160002060030160009054906101000a900473ffffffffffffffffffffffffffffffffffffffff1673ffffffffffffffffffffffffffffffffffffffff1614611739576040517f08c379a000000000000000000000000000000000000000000000000000000000815260040161173090615798565b60405180910390fd5b60005b60016000868152602001908152602001600020600a018054905081101561182d578360016000878152602001908152602001600020600a01828154811061178657611785615b0e565b5b9060005260206000200154036117da576117d5868660016000898152602001908152602001600020600a0184815481106117c3576117c2615b0e565b5b9060005260206000200154600261296c565b61181a565b611819868660016000898152602001908152602001600020600a01848154811061180757611806615b0e565b5b9060005260206000200154600161296c565b5b808061182590615b6c565b91505061173c565b5060046001600086815260200190815260200160002060030160146101000a81548160ff0219169083600481111561186857611867614896565b5b02179055505050505050565b6002602052806000526040600020600091509050806000018054611897906156f5565b80601f01602080910402602001604051908101604052809291908181526020018280546118c3906156f5565b80156119105780601f106118e557610100808354040283529160200191611910565b820191906000526020600020905b8154815290600101906020018083116118f357829003601f168201915b5050505050908060010154908060020160009054906101000a900473ffffffffffffffffffffffffffffffffffffffff16908060030154908060040160009054906101000a900460ff16908060050154905086565b6001602052806000526040600020600091509050806000018054611988906156f5565b80601f01602080910402602001604051908101604052809291908181526020018280546119b4906156f5565b8015611a015780601f106119d657610100808354040283529160200191611a01565b820191906000526020600020905b8154815290600101906020018083116119e457829003601f168201915b505050505090806001018054611a16906156f5565b80601f0160208091040260200160405190810160405280929190818152602001828054611a42906156f5565b8015611a8f5780601f10611a6457610100808354040283529160200191611a8f565b820191906000526020600020905b815481529060010190602001808311611a7257829003601f168201915b5050505050908060020154908060030160009054906101000a900473ffffffffffffffffffffffffffffffffffffffff16908060030160149054906101000a900460ff16908060040154908060050154908060060154908060070160009054906101000a900473ffffffffffffffffffffffffffffffffffffffff16905089565b6000602052806000526040600020600091509050806000018054611b33906156f5565b80601f0160208091040260200160405190810160405280929190818152602001828054611b5f906156f5565b8015611bac5780601f10611b8157610100808354040283529160200191611bac565b820191906000526020600020905b815481529060010190602001808311611b8f57829003601f168201915b505050505090806001018054611bc1906156f5565b80601f0160208091040260200160405190810160405280929190818152602001828054611bed906156f5565b8015611c3a5780601f10611c0f57610100808354040283529160200191611c3a565b820191906000526020600020905b815481529060010190602001808311611c1d57829003601f168201915b505050505090806002018054611c4f906156f5565b80601f0160208091040260200160405190810160405280929190818152602001828054611c7b906156f5565b8015611cc85780601f10611c9d57610100808354040283529160200191611cc8565b820191906000526020600020905b815481529060010190602001808311611cab57829003601f168201915b505050505090806003018054611cdd906156f5565b80601f0160208091040260200160405190810160405280929190818152602001828054611d09906156f5565b8015611d565780601f10611d2b57610100808354040283529160200191611d56565b820191906000526020600020905b815481529060010190602001808311611d3957829003601f168201915b5050505050908060040154908060050154908060060160009054906101000a900473ffffffffffffffffffffffffffffffffffffffff16905087565b611d9a6141d8565b6000600160008481526020019081526020016000206002015411611df3576040517f08c379a0000000000000000000000000000000000000000000000000000000008152600401611dea90615c92565b60405180910390fd5b6001600083815260200190815260200160002060405180610180016040529081600082018054611e22906156f5565b80601f0160208091040260200160405190810160405280929190818152602001828054611e4e906156f5565b8015611e9b5780601f10611e7057610100808354040283529160200191611e9b565b820191906000526020600020905b815481529060010190602001808311611e7e57829003601f168201915b50505050508152602001600182018054611eb4906156f5565b80601f0160208091040260200160405190810160405280929190818152602001828054611ee0906156f5565b8015611f2d5780601f10611f0257610100808354040283529160200191611f2d565b820191906000526020600020905b815481529060010190602001808311611f1057829003601f168201915b50505050508152602001600282015481526020016003820160009054906101000a900473ffffffffffffffffffffffffffffffffffffffff1673ffffffffffffffffffffffffffffffffffffffff1673ffffffffffffffffffffffffffffffffffffffff1681526020016003820160149054906101000a900460ff166004811115611fbb57611fba614896565b5b6004811115611fcd57611fcc614896565b5b81526020016004820154815260200160058201548152602001600682015481526020016007820160009054906101000a900473ffffffffffffffffffffffffffffffffffffffff1673ffffffffffffffffffffffffffffffffffffffff1673ffffffffffffffffffffffffffffffffffffffff168152602001600882018054806020026020016040519081016040528092919081815260200182805480156120ca57602002820191906000526020600020905b8160009054906101000a900473ffffffffffffffffffffffffffffffffffffffff1673ffffffffffffffffffffffffffffffffffffffff1681526020019060010190808311612080575b505050505081526020016009820180548060200260200160405190810160405280929190818152602001828054801561212257602002820191906000526020600020905b81548152602001906001019080831161210e575b50505050508152602001600a820180548060200260200160405190810160405280929190818152602001828054801561217a57602002820191906000526020600020905b815481526020019060010190808311612166575b5050505050815250509050919050565b81818173ffffffffffffffffffffffffffffffffffffffff166001600083815260200190815260200160002060030160009054906101000a900473ffffffffffffffffffffffffffffffffffffffff1673ffffffffffffffffffffffffffffffffffffffff1614612230576040517f08c379a000000000000000000000000000000000000000000000000000000000815260040161222790615798565b60405180910390fd5b60008060008673ffffffffffffffffffffffffffffffffffffffff1673ffffffffffffffffffffffffffffffffffffffff16815260200190815260200160002060070180549050116122b7576040517f08c379a00000000000000000000000000000000000000000000000000000000081526004016122ae90615aee565b60405180910390fd5b6000600160008581526020019081526020016000206002015411612310576040517f08c379a000000000000000000000000000000000000000000000000000000000815260040161230790615c92565b60405180910390fd5b6000600481111561232457612323614896565b5b6001600085815260200190815260200160002060030160149054906101000a900460ff16600481111561235a57612359614896565b5b14806123ad57506003600481111561237557612374614896565b5b6001600085815260200190815260200160002060030160149054906101000a900460ff1660048111156123ab576123aa614896565b5b145b6123ec576040517f08c379a00000000000000000000000000000000000000000000000000000000081526004016123e390615cfe565b60405180910390fd5b60008060008673ffffffffffffffffffffffffffffffffffffffff1673ffffffffffffffffffffffffffffffffffffffff168152602001908152602001600020600701905060005b81805490508110156125da578482828154811061245457612453615b0e565b5b9060005260206000200154036125c75760016000868152602001908152602001600020600080820160006124889190614277565b6001820160006124989190614277565b60028201600090556003820160006101000a81549073ffffffffffffffffffffffffffffffffffffffff02191690556003820160146101000a81549060ff02191690556004820160009055600582016000905560068201600090556007820160006101000a81549073ffffffffffffffffffffffffffffffffffffffff021916905560088201600061252a91906142b7565b60098201600061253a91906142d8565b600a8201600061254a91906142d8565b5050816001838054905061255e9190615d1e565b8154811061256f5761256e615b0e565b5b906000526020600020015482828154811061258d5761258c615b0e565b5b9060005260206000200181905550818054806125ac576125ab615d52565b5b600190038181906000526020600020016000905590556125da565b80806125d290615b6c565b915050612434565b505050505050565b606082828173ffffffffffffffffffffffffffffffffffffffff166001600083815260200190815260200160002060030160009054906101000a900473ffffffffffffffffffffffffffffffffffffffff1673ffffffffffffffffffffffffffffffffffffffff161461268a576040517f08c379a000000000000000000000000000000000000000000000000000000000815260040161268190615798565b60405180910390fd5b600060016000868152602001908152602001600020600a0180549050116126e6576040517f08c379a00000000000000000000000000000000000000000000000000000000081526004016126dd90615dcd565b60405180910390fd5b600060016000868152602001908152602001600020600a0180548060200260200160405190810160405280929190818152602001828054801561274857602002820191906000526020600020905b815481526020019060010190808311612734575b505050505090506000815167ffffffffffffffff81111561276c5761276b614569565b5b6040519080825280602002602001820160405280156127a557816020015b6127926142f9565b81526020019060019003908161278a5790505b50905060005b825181101561295e57600260008483815181106127cb576127ca615b0e565b5b602002602001015181526020019081526020016000206040518060c00160405290816000820180546127fc906156f5565b80601f0160208091040260200160405190810160405280929190818152602001828054612828906156f5565b80156128755780601f1061284a57610100808354040283529160200191612875565b820191906000526020600020905b81548152906001019060200180831161285857829003601f168201915b50505050508152602001600182015481526020016002820160009054906101000a900473ffffffffffffffffffffffffffffffffffffffff1673ffffffffffffffffffffffffffffffffffffffff1673ffffffffffffffffffffffffffffffffffffffff168152602001600382015481526020016004820160009054906101000a900460ff16600281111561290d5761290c614896565b5b600281111561291f5761291e614896565b5b81526020016005820154815250508282815181106129405761293f615b0e565b5b6020026020010181905250808061295690615b6c565b9150506127ab565b508094505050505092915050565b83838173ffffffffffffffffffffffffffffffffffffffff166001600083815260200190815260200160002060030160009054906101000a900473ffffffffffffffffffffffffffffffffffffffff1673ffffffffffffffffffffffffffffffffffffffff1614612a12576040517f08c379a0000000000000000000000000000000000000000000000000000000008152600401612a0990615798565b60405180910390fd5b6000600260008681526020019081526020016000209050838160040160006101000a81548160ff02191690836002811115612a5057612a4f614896565b5b021790555050505050505050565b808073ffffffffffffffffffffffffffffffffffffffff163373ffffffffffffffffffffffffffffffffffffffff1614612acd576040517f08c379a0000000000000000000000000000000000000000000000000000000008152600401612ac49061563a565b60405180910390fd5b81600073ffffffffffffffffffffffffffffffffffffffff166000808373ffffffffffffffffffffffffffffffffffffffff1673ffffffffffffffffffffffffffffffffffffffff16815260200190815260200160002060060160009054906101000a900473ffffffffffffffffffffffffffffffffffffffff1673ffffffffffffffffffffffffffffffffffffffff1603612b9e576040517f08c379a0000000000000000000000000000000000000000000000000000000008152600401612b95906156a6565b60405180910390fd5b60008060008573ffffffffffffffffffffffffffffffffffffffff1673ffffffffffffffffffffffffffffffffffffffff168152602001908152602001600020905085816000019081612bf19190615964565b5084816003019081612c039190615964565b50505050505050565b6000600160008481526020019081526020016000209050818160030160146101000a81548160ff02191690836004811115612c4a57612c49614896565b5b0217905550505050565b858073ffffffffffffffffffffffffffffffffffffffff163373ffffffffffffffffffffffffffffffffffffffff1614612cc3576040517f08c379a0000000000000000000000000000000000000000000000000000000008152600401612cba9061563a565b60405180910390fd5b600286612cd09190615e1c565b8773ffffffffffffffffffffffffffffffffffffffff16311015612d29576040517f08c379a0000000000000000000000000000000000000000000000000000000008152600401612d2090615ebf565b60405180910390fd5b6000600160006003548152602001908152602001600020905085816000019081612d539190615964565b5084816001019081612d659190615964565b5086816002018190555060008160030160146101000a81548160ff02191690836004811115612d9757612d96614896565b5b0217905550428160040181905550838160050181905550878160030160006101000a81548173ffffffffffffffffffffffffffffffffffffffff021916908373ffffffffffffffffffffffffffffffffffffffff160217905550308160070160006101000a81548173ffffffffffffffffffffffffffffffffffffffff021916908373ffffffffffffffffffffffffffffffffffffffff1602179055508281600601819055506000808973ffffffffffffffffffffffffffffffffffffffff1673ffffffffffffffffffffffffffffffffffffffff168152602001908152602001600020600701600354908060018154018082558091505060019003906000526020600020016000909190919091505560036000815480929190612eba90615b6c565b91905055505050505050505050565b612ed16142f9565b848484848373ffffffffffffffffffffffffffffffffffffffff166002600083815260200190815260200160002060020160009054906101000a900473ffffffffffffffffffffffffffffffffffffffff1673ffffffffffffffffffffffffffffffffffffffff16148015612fa757508273ffffffffffffffffffffffffffffffffffffffff166001600084815260200190815260200160002060030160009054906101000a900473ffffffffffffffffffffffffffffffffffffffff1673ffffffffffffffffffffffffffffffffffffffff16145b801561301457508273ffffffffffffffffffffffffffffffffffffffff163373ffffffffffffffffffffffffffffffffffffffff16148061301357508373ffffffffffffffffffffffffffffffffffffffff163373ffffffffffffffffffffffffffffffffffffffff16145b5b613053576040517f08c379a000000000000000000000000000000000000000000000000000000000815260040161304a90615f51565b60405180910390fd5b60006002600088815260200190815260200160002060010154116130ac576040517f08c379a00000000000000000000000000000000000000000000000000000000081526004016130a390615fbd565b60405180910390fd5b600260008781526020019081526020016000206040518060c00160405290816000820180546130da906156f5565b80601f0160208091040260200160405190810160405280929190818152602001828054613106906156f5565b80156131535780601f1061312857610100808354040283529160200191613153565b820191906000526020600020905b81548152906001019060200180831161313657829003601f168201915b50505050508152602001600182015481526020016002820160009054906101000a900473ffffffffffffffffffffffffffffffffffffffff1673ffffffffffffffffffffffffffffffffffffffff1673ffffffffffffffffffffffffffffffffffffffff168152602001600382015481526020016004820160009054906101000a900460ff1660028111156131eb576131ea614896565b5b60028111156131fd576131fc614896565b5b8152602001600582015481525050945050505050949350505050565b86868173ffffffffffffffffffffffffffffffffffffffff166001600083815260200190815260200160002060030160009054906101000a900473ffffffffffffffffffffffffffffffffffffffff1673ffffffffffffffffffffffffffffffffffffffff16146132bf576040517f08c379a00000000000000000000000000000000000000000000000000000000081526004016132b690615798565b60405180910390fd5b6000600160008a81526020019081526020016000209050878160020181905550868160000190816132f09190615964565b50858160010190816133029190615964565b5084816005018190555083816006018190555050505050505050505050565b82818173ffffffffffffffffffffffffffffffffffffffff166002600083815260200190815260200160002060020160009054906101000a900473ffffffffffffffffffffffffffffffffffffffff1673ffffffffffffffffffffffffffffffffffffffff16146133c7576040517f08c379a00000000000000000000000000000000000000000000000000000000081526004016133be90615798565b60405180910390fd5b600060016000868152602001908152602001600020600a018054905011613423576040517f08c379a000000000000000000000000000000000000000000000000000000000815260040161341a90615dcd565b60405180910390fd5b600060026000858152602001908152602001600020600101541161347c576040517f08c379a000000000000000000000000000000000000000000000000000000000815260040161347390616029565b60405180910390fd5b600060028111156134905761348f614896565b5b6002600085815260200190815260200160002060040160009054906101000a900460ff1660028111156134c6576134c5614896565b5b03613506576040517f08c379a00000000000000000000000000000000000000000000000000000000081526004016134fd90616095565b60405180910390fd5b600060016000868152602001908152602001600020600a01905060005b818054905081101561365a578482828154811061354357613542615b0e565b5b9060005260206000200154036136475760026000868152602001908152602001600020600080820160006135779190614277565b60018201600090556002820160006101000a81549073ffffffffffffffffffffffffffffffffffffffff021916905560038201600090556004820160006101000a81549060ff02191690556005820160009055505081600183805490506135de9190615d1e565b815481106135ef576135ee615b0e565b5b906000526020600020015482828154811061360d5761360c615b0e565b5b90600052602060002001819055508180548061362c5761362b615d52565b5b6001900381819060005260206000200160009055905561365a565b808061365290615b6c565b915050613523565b50505050505050565b6005818154811061367357600080fd5b906000526020600020016000915054906101000a900473ffffffffffffffffffffffffffffffffffffffff1681565b818073ffffffffffffffffffffffffffffffffffffffff163373ffffffffffffffffffffffffffffffffffffffff1614613711576040517f08c379a00000000000000000000000000000000000000000000000000000000081526004016137089061563a565b60405180910390fd5b82600073ffffffffffffffffffffffffffffffffffffffff166000808373ffffffffffffffffffffffffffffffffffffffff1673ffffffffffffffffffffffffffffffffffffffff16815260200190815260200160002060060160009054906101000a900473ffffffffffffffffffffffffffffffffffffffff1673ffffffffffffffffffffffffffffffffffffffff16036137e2576040517f08c379a00000000000000000000000000000000000000000000000000000000081526004016137d9906156a6565b60405180910390fd5b60008060008673ffffffffffffffffffffffffffffffffffffffff1673ffffffffffffffffffffffffffffffffffffffff16815260200190815260200160002090508381600401819055505050505050565b808073ffffffffffffffffffffffffffffffffffffffff163373ffffffffffffffffffffffffffffffffffffffff16146138a3576040517f08c379a000000000000000000000000000000000000000000000000000000000815260040161389a9061563a565b60405180910390fd5b81600073ffffffffffffffffffffffffffffffffffffffff166000808373ffffffffffffffffffffffffffffffffffffffff1673ffffffffffffffffffffffffffffffffffffffff16815260200190815260200160002060060160009054906101000a900473ffffffffffffffffffffffffffffffffffffffff1673ffffffffffffffffffffffffffffffffffffffff1603613974576040517f08c379a000000000000000000000000000000000000000000000000000000000815260040161396b906156a6565b60405180910390fd5b6000808473ffffffffffffffffffffffffffffffffffffffff1673ffffffffffffffffffffffffffffffffffffffff168152602001908152602001600020600080820160006139c39190614277565b6001820160006139d39190614277565b6002820160006139e39190614277565b6003820160006139f39190614277565b600482016000905560058201600090556006820160006101000a81549073ffffffffffffffffffffffffffffffffffffffff0219169055600782016000613a3a91906142d8565b505060005b600580549050811015613bc8573373ffffffffffffffffffffffffffffffffffffffff1660058281548110613a7757613a76615b0e565b5b9060005260206000200160009054906101000a900473ffffffffffffffffffffffffffffffffffffffff1673ffffffffffffffffffffffffffffffffffffffff1603613bb55760056001600580549050613ad19190615d1e565b81548110613ae257613ae1615b0e565b5b9060005260206000200160009054906101000a900473ffffffffffffffffffffffffffffffffffffffff1660058281548110613b2157613b20615b0e565b5b9060005260206000200160006101000a81548173ffffffffffffffffffffffffffffffffffffffff021916908373ffffffffffffffffffffffffffffffffffffffff1602179055506005805480613b7b57613b7a615d52565b5b6001900381819060005260206000200160006101000a81549073ffffffffffffffffffffffffffffffffffffffff02191690559055613bc8565b8080613bc090615b6c565b915050613a3f565b50505050565b60006001600085815260200190815260200160002090506000816002015411613c2c576040517f08c379a0000000000000000000000000000000000000000000000000000000008152600401613c2390616101565b60405180910390fd5b60016004811115613c4057613c3f614896565b5b8160030160149054906101000a900460ff166004811115613c6457613c63614896565b5b14613ca4576040517f08c379a0000000000000000000000000000000000000000000000000000000008152600401613c9b9061616d565b60405180910390fd5b80600501544211613cea576040517f08c379a0000000000000000000000000000000000000000000000000000000008152600401613ce1906161d9565b60405180910390fd5b8060030160009054906101000a900473ffffffffffffffffffffffffffffffffffffffff1673ffffffffffffffffffffffffffffffffffffffff168573ffffffffffffffffffffffffffffffffffffffff1603613d7c576040517f08c379a0000000000000000000000000000000000000000000000000000000008152600401613d739061626b565b60405180910390fd5b6000600260006004548152602001908152602001600020905083816000019081613da69190615964565b50828160010181905550858160020160006101000a81548173ffffffffffffffffffffffffffffffffffffffff021916908373ffffffffffffffffffffffffffffffffffffffff16021790555084816003018190555060008160040160006101000a81548160ff02191690836002811115613e2457613e23614896565b5b021790555042816005018190555060016000868152602001908152602001600020600a01600454908060018154018082558091505060019003906000526020600020016000909190919091505560046000815480929190613e8490615b6c565b9190505550505050505050565b606082828173ffffffffffffffffffffffffffffffffffffffff166001600083815260200190815260200160002060030160009054906101000a900473ffffffffffffffffffffffffffffffffffffffff1673ffffffffffffffffffffffffffffffffffffffff1614613f39576040517f08c379a0000000000000000000000000000000000000000000000000000000008152600401613f3090615798565b60405180910390fd5b8360016000828152602001908152602001600020600501544210158015613fa7575060026004811115613f6f57613f6e614896565b5b6001600083815260200190815260200160002060030160149054906101000a900460ff166004811115613fa557613fa4614896565b5b145b613fb057600080fd5b6000613fbc87876125e2565b90506000815111614002576040517f08c379a0000000000000000000000000000000000000000000000000000000008152600401613ff990615dcd565b60405180910390fd5b6000600190505b81518110156141015760005b818110156140ed578281815181106140305761402f615b0e565b5b60200260200101516020015183838151811061404f5761404e615b0e565b5b60200260200101516020015110156140da57600083838151811061407657614075615b0e565b5b6020026020010151905083828151811061409357614092615b0e565b5b60200260200101518484815181106140ae576140ad615b0e565b5b6020026020010181905250808483815181106140cd576140cc615b0e565b5b6020026020010181905250505b80806140e590615b6c565b915050614015565b5080806140f990615b6c565b915050614009565b5060006005825110614114576005614117565b81515b905060008167ffffffffffffffff81111561413557614134614569565b5b60405190808252806020026020018201604052801561416e57816020015b61415b6142f9565b8152602001906001900390816141535790505b50905060005b828110156141c85783818151811061418f5761418e615b0e565b5b60200260200101518282815181106141aa576141a9615b0e565b5b602002602001018190525080806141c090615b6c565b915050614174565b5080965050505050505092915050565b604051806101800160405280606081526020016060815260200160008152602001600073ffffffffffffffffffffffffffffffffffffffff1681526020016000600481111561422a57614229614896565b5b8152602001600081526020016000815260200160008152602001600073ffffffffffffffffffffffffffffffffffffffff1681526020016060815260200160608152602001606081525090565b508054614283906156f5565b6000825580601f1061429557506142b4565b601f0160209004906000526020600020908101906142b39190614357565b5b50565b50805460008255906000526020600020908101906142d59190614357565b50565b50805460008255906000526020600020908101906142f69190614357565b50565b6040518060c001604052806060815260200160008152602001600073ffffffffffffffffffffffffffffffffffffffff168152602001600081526020016000600281111561434a57614349614896565b5b8152602001600081525090565b5b80821115614370576000816000905550600101614358565b5090565b6000604051905090565b600080fd5b600080fd5b600073ffffffffffffffffffffffffffffffffffffffff82169050919050565b60006143b382614388565b9050919050565b6143c3816143a8565b81146143ce57600080fd5b50565b6000813590506143e0816143ba565b92915050565b6000602082840312156143fc576143fb61437e565b5b600061440a848285016143d1565b91505092915050565b600081519050919050565b600082825260208201905092915050565b60005b8381101561444d578082015181840152602081019050614432565b60008484015250505050565b6000601f19601f8301169050919050565b600061447582614413565b61447f818561441e565b935061448f81856020860161442f565b61449881614459565b840191505092915050565b6144ac816143a8565b82525050565b6000819050919050565b6144c5816144b2565b82525050565b600060a08201905081810360008301526144e5818861446a565b905081810360208301526144f9818761446a565b9050818103604083015261450d818661446a565b905061451c60608301856144a3565b61452960808301846144bc565b9695505050505050565b61453c816144b2565b811461454757600080fd5b50565b60008135905061455981614533565b92915050565b600080fd5b600080fd5b7f4e487b7100000000000000000000000000000000000000000000000000000000600052604160045260246000fd5b6145a182614459565b810181811067ffffffffffffffff821117156145c0576145bf614569565b5b80604052505050565b60006145d3614374565b90506145df8282614598565b919050565b600067ffffffffffffffff8211156145ff576145fe614569565b5b61460882614459565b9050602081019050919050565b82818337600083830152505050565b6000614637614632846145e4565b6145c9565b90508281526020810184848401111561465357614652614564565b5b61465e848285614615565b509392505050565b600082601f83011261467b5761467a61455f565b5b813561468b848260208601614624565b91505092915050565b600080600080608085870312156146ae576146ad61437e565b5b60006146bc878288016143d1565b94505060206146cd8782880161454a565b935050604085013567ffffffffffffffff8111156146ee576146ed614383565b5b6146fa87828801614666565b925050606061470b8782880161454a565b91505092959194509250565b600080600080600060a086880312156147335761473261437e565b5b600086013567ffffffffffffffff81111561475157614750614383565b5b61475d88828901614666565b955050602086013567ffffffffffffffff81111561477e5761477d614383565b5b61478a88828901614666565b945050604086013567ffffffffffffffff8111156147ab576147aa614383565b5b6147b788828901614666565b935050606086013567ffffffffffffffff8111156147d8576147d7614383565b5b6147e488828901614666565b92505060806147f5888289016143d1565b9150509295509295909350565b600081519050919050565b600082825260208201905092915050565b6000819050602082019050919050565b600082825260208201905092915050565b600061484a82614413565b614854818561482e565b935061486481856020860161442f565b61486d81614459565b840191505092915050565b614881816144b2565b82525050565b614890816143a8565b82525050565b7f4e487b7100000000000000000000000000000000000000000000000000000000600052602160045260246000fd5b600581106148d6576148d5614896565b5b50565b60008190506148e7826148c5565b919050565b60006148f7826148d9565b9050919050565b614907816148ec565b82525050565b600081519050919050565b600082825260208201905092915050565b6000819050602082019050919050565b60006149458383614887565b60208301905092915050565b6000602082019050919050565b60006149698261490d565b6149738185614918565b935061497e83614929565b8060005b838110156149af5781516149968882614939565b97506149a183614951565b925050600181019050614982565b5085935050505092915050565b600081519050919050565b600082825260208201905092915050565b6000819050602082019050919050565b60006149f48383614878565b60208301905092915050565b6000602082019050919050565b6000614a18826149bc565b614a2281856149c7565b9350614a2d836149d8565b8060005b83811015614a5e578151614a4588826149e8565b9750614a5083614a00565b925050600181019050614a31565b5085935050505092915050565b6000610180830160008301518482036000860152614a89828261483f565b91505060208301518482036020860152614aa3828261483f565b9150506040830151614ab86040860182614878565b506060830151614acb6060860182614887565b506080830151614ade60808601826148fe565b5060a0830151614af160a0860182614878565b5060c0830151614b0460c0860182614878565b5060e0830151614b1760e0860182614878565b50610100830151614b2c610100860182614887565b50610120830151848203610120860152614b46828261495e565b915050610140830151848203610140860152614b628282614a0d565b915050610160830151848203610160860152614b7e8282614a0d565b9150508091505092915050565b6000614b978383614a6b565b905092915050565b6000602082019050919050565b6000614bb782614802565b614bc1818561480d565b935083602082028501614bd38561481e565b8060005b85811015614c0f5784840389528151614bf08582614b8b565b9450614bfb83614b9f565b925060208a01995050600181019050614bd7565b50829750879550505050505092915050565b60006020820190508181036000830152614c3b8184614bac565b905092915050565b600080600060608486031215614c5c57614c5b61437e565b5b6000614c6a868287016143d1565b9350506020614c7b8682870161454a565b9250506040614c8c8682870161454a565b9150509250925092565b600060208284031215614cac57614cab61437e565b5b6000614cba8482850161454a565b91505092915050565b60038110614cd457614cd3614896565b5b50565b6000819050614ce582614cc3565b919050565b6000614cf582614cd7565b9050919050565b614d0581614cea565b82525050565b600060c0820190508181036000830152614d25818961446a565b9050614d3460208301886144bc565b614d4160408301876144a3565b614d4e60608301866144bc565b614d5b6080830185614cfc565b614d6860a08301846144bc565b979650505050505050565b614d7c816148ec565b82525050565b6000610120820190508181036000830152614d9d818c61446a565b90508181036020830152614db1818b61446a565b9050614dc0604083018a6144bc565b614dcd60608301896144a3565b614dda6080830188614d73565b614de760a08301876144bc565b614df460c08301866144bc565b614e0160e08301856144bc565b614e0f6101008301846144a3565b9a9950505050505050505050565b600060e0820190508181036000830152614e37818a61446a565b90508181036020830152614e4b818961446a565b90508181036040830152614e5f818861446a565b90508181036060830152614e73818761446a565b9050614e8260808301866144bc565b614e8f60a08301856144bc565b614e9c60c08301846144a3565b98975050505050505050565b6000610180830160008301518482036000860152614ec6828261483f565b91505060208301518482036020860152614ee0828261483f565b9150506040830151614ef56040860182614878565b506060830151614f086060860182614887565b506080830151614f1b60808601826148fe565b5060a0830151614f2e60a0860182614878565b5060c0830151614f4160c0860182614878565b5060e0830151614f5460e0860182614878565b50610100830151614f69610100860182614887565b50610120830151848203610120860152614f83828261495e565b915050610140830151848203610140860152614f9f8282614a0d565b915050610160830151848203610160860152614fbb8282614a0d565b9150508091505092915050565b60006020820190508181036000830152614fe28184614ea8565b905092915050565b600080604083850312156150015761500061437e565b5b600061500f858286016143d1565b92505060206150208582860161454a565b9150509250929050565b600081519050919050565b600082825260208201905092915050565b6000819050602082019050919050565b61505f81614cea565b82525050565b600060c0830160008301518482036000860152615082828261483f565b91505060208301516150976020860182614878565b5060408301516150aa6040860182614887565b5060608301516150bd6060860182614878565b5060808301516150d06080860182615056565b5060a08301516150e360a0860182614878565b508091505092915050565b60006150fa8383615065565b905092915050565b6000602082019050919050565b600061511a8261502a565b6151248185615035565b93508360208202850161513685615046565b8060005b85811015615172578484038952815161515385826150ee565b945061515e83615102565b925060208a0199505060018101905061513a565b50829750879550505050505092915050565b6000602082019050818103600083015261519e818461510f565b905092915050565b600381106151b357600080fd5b50565b6000813590506151c5816151a6565b92915050565b600080600080608085870312156151e5576151e461437e565b5b60006151f3878288016143d1565b94505060206152048782880161454a565b93505060406152158782880161454a565b9250506060615226878288016151b6565b91505092959194509250565b60008060006060848603121561524b5761524a61437e565b5b600084013567ffffffffffffffff81111561526957615268614383565b5b61527586828701614666565b935050602084013567ffffffffffffffff81111561529657615295614383565b5b6152a286828701614666565b92505060406152b3868287016143d1565b9150509250925092565b600581106152ca57600080fd5b50565b6000813590506152dc816152bd565b92915050565b600080604083850312156152f9576152f861437e565b5b60006153078582860161454a565b9250506020615318858286016152cd565b9150509250929050565b60008060008060008060c0878903121561533f5761533e61437e565b5b600061534d89828a016143d1565b965050602061535e89828a0161454a565b955050604087013567ffffffffffffffff81111561537f5761537e614383565b5b61538b89828a01614666565b945050606087013567ffffffffffffffff8111156153ac576153ab614383565b5b6153b889828a01614666565b93505060806153c989828a0161454a565b92505060a06153da89828a0161454a565b9150509295509295509295565b600080600080608085870312156154015761540061437e565b5b600061540f878288016143d1565b9450506020615420878288016143d1565b93505060406154318782880161454a565b92505060606154428782880161454a565b91505092959194509250565b600060c083016000830151848203600086015261546b828261483f565b91505060208301516154806020860182614878565b5060408301516154936040860182614887565b5060608301516154a66060860182614878565b5060808301516154b96080860182615056565b5060a08301516154cc60a0860182614878565b508091505092915050565b600060208201905081810360008301526154f1818461544e565b905092915050565b600080600080600080600060e0888a0312156155185761551761437e565b5b60006155268a828b016143d1565b97505060206155378a828b0161454a565b96505060406155488a828b0161454a565b955050606088013567ffffffffffffffff81111561556957615568614383565b5b6155758a828b01614666565b945050608088013567ffffffffffffffff81111561559657615595614383565b5b6155a28a828b01614666565b93505060a06155b38a828b0161454a565b92505060c06155c48a828b0161454a565b91505092959891949750929550565b60006020820190506155e860008301846144a3565b92915050565b7f43616c6c6572206973206e6f74206f776e657200000000000000000000000000600082015250565b600061562460138361441e565b915061562f826155ee565b602082019050919050565b6000602082019050818103600083015261565381615617565b9050919050565b7f506172747920646f6573206e6f74206578697374000000000000000000000000600082015250565b600061569060148361441e565b915061569b8261565a565b602082019050919050565b600060208201905081810360008301526156bf81615683565b9050919050565b7f4e487b7100000000000000000000000000000000000000000000000000000000600052602260045260246000fd5b6000600282049050600182168061570d57607f821691505b6020821081036157205761571f6156c6565b5b50919050565b7f796f75277265206e6f7420617574686f72697a656420746f20706572666f726d60008201527f207468697320616374696f6e0000000000000000000000000000000000000000602082015250565b6000615782602c8361441e565b915061578d82615726565b604082019050919050565b600060208201905081810360008301526157b181615775565b9050919050565b60008190508160005260206000209050919050565b60006020601f8301049050919050565b600082821b905092915050565b60006008830261581a7fffffffffffffffffffffffffffffffffffffffffffffffffffffffffffffffff826157dd565b61582486836157dd565b95508019841693508086168417925050509392505050565b6000819050919050565b600061586161585c615857846144b2565b61583c565b6144b2565b9050919050565b6000819050919050565b61587b83615846565b61588f61588782615868565b8484546157ea565b825550505050565b600090565b6158a4615897565b6158af818484615872565b505050565b5b818110156158d3576158c860008261589c565b6001810190506158b5565b5050565b601f821115615918576158e9816157b8565b6158f2846157cd565b81016020851015615901578190505b61591561590d856157cd565b8301826158b4565b50505b505050565b600082821c905092915050565b600061593b6000198460080261591d565b1980831691505092915050565b6000615954838361592a565b9150826002028217905092915050565b61596d82614413565b67ffffffffffffffff81111561598657615985614569565b5b61599082546156f5565b61599b8282856158d7565b600060209050601f8311600181146159ce57600084156159bc578287015190505b6159c68582615948565b865550615a2e565b601f1984166159dc866157b8565b60005b82811015615a04578489015182556001820191506020850194506020810190506159df565b86831015615a215784890151615a1d601f89168261592a565b8355505b6001600288020188555050505b505050505050565b7f506172747920616c726561647920657869737473000000000000000000000000600082015250565b6000615a6c60148361441e565b9150615a7782615a36565b602082019050919050565b60006020820190508181036000830152615a9b81615a5f565b9050919050565b7f4e6f2074656e6465727320657869737473000000000000000000000000000000600082015250565b6000615ad860118361441e565b9150615ae382615aa2565b602082019050919050565b60006020820190508181036000830152615b0781615acb565b9050919050565b7f4e487b7100000000000000000000000000000000000000000000000000000000600052603260045260246000fd5b7f4e487b7100000000000000000000000000000000000000000000000000000000600052601160045260246000fd5b6000615b77826144b2565b91507fffffffffffffffffffffffffffffffffffffffffffffffffffffffffffffffff8203615ba957615ba8615b3d565b5b600182019050919050565b7f4e6f207061727469657320657869737473000000000000000000000000000000600082015250565b6000615bea60118361441e565b9150615bf582615bb4565b602082019050919050565b60006020820190508181036000830152615c1981615bdd565b9050919050565b7f74656e6465722077697468206164647265737320646f65736e2774206578697360008201527f7473000000000000000000000000000000000000000000000000000000000000602082015250565b6000615c7c60228361441e565b9150615c8782615c20565b604082019050919050565b60006020820190508181036000830152615cab81615c6f565b9050919050565b7f74656e6465722063616e6e6f742062652064656c657465640000000000000000600082015250565b6000615ce860188361441e565b9150615cf382615cb2565b602082019050919050565b60006020820190508181036000830152615d1781615cdb565b9050919050565b6000615d29826144b2565b9150615d34836144b2565b9250828203905081811115615d4c57615d4b615b3d565b5b92915050565b7f4e487b7100000000000000000000000000000000000000000000000000000000600052603160045260246000fd5b7f4e6f206269647320657869737473000000000000000000000000000000000000600082015250565b6000615db7600e8361441e565b9150615dc282615d81565b602082019050919050565b60006020820190508181036000830152615de681615daa565b9050919050565b7f4e487b7100000000000000000000000000000000000000000000000000000000600052601260045260246000fd5b6000615e27826144b2565b9150615e32836144b2565b925082615e4257615e41615ded565b5b828204905092915050565b7f696e73756666696369656e742066756e647320746f206372656174652061207460008201527f656e646572000000000000000000000000000000000000000000000000000000602082015250565b6000615ea960258361441e565b9150615eb482615e4d565b604082019050919050565b60006020820190508181036000830152615ed881615e9c565b9050919050565b7f4e6f7420617574686f72697a656420746f20766965772062696420646574616960008201527f6c73000000000000000000000000000000000000000000000000000000000000602082015250565b6000615f3b60228361441e565b9150615f4682615edf565b604082019050919050565b60006020820190508181036000830152615f6a81615f2e565b9050919050565b7f42696420646f6573206e6f742065786973740000000000000000000000000000600082015250565b6000615fa760128361441e565b9150615fb282615f71565b602082019050919050565b60006020820190508181036000830152615fd681615f9a565b9050919050565b7f6269642077697468206164647265737320646f65736e27742065786973747300600082015250565b6000616013601f8361441e565b915061601e82615fdd565b602082019050919050565b6000602082019050818103600083015261604281616006565b9050919050565b7f6269642063616e6e6f742062652064656c657465640000000000000000000000600082015250565b600061607f60158361441e565b915061608a82616049565b602082019050919050565b600060208201905081810360008301526160ae81616072565b9050919050565b7f54656e64657220646f6573206e6f742065786973740000000000000000000000600082015250565b60006160eb60158361441e565b91506160f6826160b5565b602082019050919050565b6000602082019050818103600083015261611a816160de565b9050919050565b7f54656e646572206973206e6f74206f70656e20666f7220626964730000000000600082015250565b6000616157601b8361441e565b915061616282616121565b602082019050919050565b600060208201905081810360008301526161868161614a565b9050919050565b7f42696464696e672068617320656e646564000000000000000000000000000000600082015250565b60006161c360118361441e565b91506161ce8261618d565b602082019050919050565b600060208201905081810360008301526161f2816161b6565b9050919050565b7f4f776e65722063616e6e6f7420626964206f6e207468656972206f776e20746560008201527f6e64657200000000000000000000000000000000000000000000000000000000602082015250565b600061625560248361441e565b9150616260826161f9565b604082019050919050565b6000602082019050818103600083015261628481616248565b905091905056fea264697066735822122042eea154ed40fc11f203f576d32170862afa2ff79b6975fdf8154ae0ebee92df64736f6c63430008110033",
  "immutableReferences": {},
  "source": "// SPDX-License-Identifier: UNLICENSED\r\n\r\n//the version of solidity that is compatible\r\npragma solidity >=0.7.0 <0.9.0; \r\n\r\nimport {Party, Tender, TenderStatus, Bid, BidStatus} from './entities.sol';\r\n\r\ncontract PartyContract{\r\n\r\n    mapping (address => Party) public parties;\r\n    mapping (uint256 => Tender) public tenders;\r\n    mapping (uint256 => Bid) public bids;\r\n    uint256 tenderCount = 0;\r\n    uint256 bidCount = 0;\r\n    address[] public partyAddresses;\r\n\r\n    constructor() {\r\n    }\r\n\r\n    modifier isOwner(address owner) {\r\n        require(msg.sender == owner, \"Caller is not owner\");\r\n        _;\r\n    }\r\n\r\n    modifier isPartyExists(address _partyAddress) {\r\n        require(parties[_partyAddress].partyAddress != address(0), \"Party does not exist\");\r\n        _;\r\n    }\r\n\r\n    // Function for creating party\r\n    function createParty(string memory _name, string memory _contactNumber, string memory _email, string memory _password, address _partyAddress) public isOwner(_partyAddress){\r\n        require(parties[_partyAddress].partyAddress == address(0), \"Party already exists\"); //\r\n\r\n        Party storage newParty = parties[_partyAddress];\r\n        newParty.name = _name;\r\n        newParty.contactNumber = _contactNumber;\r\n        newParty.email = _email;\r\n        newParty.password = _password;\r\n        newParty.trustScore = 0;\r\n        newParty.createdAt = block.timestamp;\r\n        newParty.partyAddress = _partyAddress;\r\n        // newParty.tenderIds = new address[](0);\r\n        partyAddresses.push(_partyAddress);\r\n    }\r\n\r\n    //Function for updating party\r\n    function updateParty(string memory _name, string memory _password, address _partyAddress) public isOwner(_partyAddress) isPartyExists(_partyAddress) {\r\n        // require(msg.sender == parties[_partyAddress].partyAddress, \"Only party owner can update/delete party details.\");\r\n        Party storage updatedParty = parties[_partyAddress];\r\n        updatedParty.name  = _name;\r\n        updatedParty.password = _password;\r\n    }\r\n    \r\n    //Function for deleting a party on platform\r\n    function deleteParty(address _partyAddress) public isOwner(_partyAddress) isPartyExists(_partyAddress) {\r\n        // require(msg.sender == parties[_partyAddress].partyAddress, \"Only party owner can update/delete party details.\");\r\n        delete parties[_partyAddress];\r\n        for (uint256 i = 0; i < partyAddresses.length; i++) {\r\n            if (partyAddresses[i] == msg.sender) {\r\n                partyAddresses[i] = partyAddresses[partyAddresses.length - 1];\r\n                partyAddresses.pop();\r\n                break;\r\n            }\r\n        }\r\n    }\r\n \r\n    // Function for getting details of a particular party\r\n    function getPartyDetails(address _partyAddress) public isOwner(_partyAddress) isPartyExists(_partyAddress) view returns (string memory, string memory, string memory, address, uint256) {\r\n        return (parties[_partyAddress].name, parties[_partyAddress].contactNumber, parties[_partyAddress].email, parties[_partyAddress].partyAddress, parties[_partyAddress].trustScore);\r\n    }\r\n\r\n    //function to update party's trust score\r\n    function updateTrustScore(address _partyAddress, uint256 _trustScore) public isOwner(_partyAddress) isPartyExists(_partyAddress) {\r\n        Party storage updatedParty = parties[_partyAddress];\r\n        updatedParty.trustScore = _trustScore;\r\n    }\r\n\r\n    \r\n    // Function for getting total no of parties\r\n    // function getPartyCount() public view returns (uint256) {\r\n    //     return partyAddresses.length;\r\n    // }\r\n    \r\n    // Function for getting the address of a particular party.\r\n    // function getPartyAddress(uint256 index) public view returns (address) {\r\n    //     return partyAddresses[index];\r\n    // }\r\n\r\n    // Function for creating a tender\r\n    function createTender(address _partyAddress, uint256 _budget, string memory _title, string memory _description, uint256 _deadline, uint256 _totalMilestones) isOwner(_partyAddress) public {\r\n        require(_partyAddress.balance >= _budget/2, \"insufficient funds to create a tender\");\r\n        Tender storage newTender = tenders[tenderCount];\r\n        newTender.title = _title;\r\n        newTender.description = _description;\r\n        newTender.budget = _budget;\r\n        newTender.tenderStatus = TenderStatus.NEW;\r\n        newTender.createdAt = block.timestamp;\r\n        newTender.deadline = _deadline;\r\n        newTender.issuerAddress = _partyAddress;\r\n        newTender.tenderAddress = address(this);\r\n        newTender.totalMilestones = _totalMilestones;\r\n        parties[_partyAddress].tenderIds.push(tenderCount);\r\n        tenderCount++;\r\n    }\r\n\r\n    function getAllTenders() public view returns (Tender[] memory){\r\n        require(partyAddresses.length > 0, \"No parties exists\");\r\n        Tender[] memory tendersList = new Tender[](tenderCount);\r\n        for (uint256 i = 0; i < tenderCount; i++) {\r\n            tendersList[i] = tenders[i];\r\n        }\r\n        return(tendersList);\r\n    }\r\n\r\n    function getMyTenders(address _partyAddress) public view returns ( Tender[] memory){\r\n        require(parties[_partyAddress].tenderIds.length > 0, \"No tenders exists\");\r\n        uint256[] memory partyTenderIds = parties[_partyAddress].tenderIds;\r\n        Tender[] memory tendersList = new Tender[](partyTenderIds.length);\r\n        for (uint256 i = 0; i < partyTenderIds.length; i++) {\r\n            tendersList[i] = tenders[partyTenderIds[i]];\r\n        }\r\n        return(tendersList);\r\n    }\r\n\r\n    function getTenderDetails(uint256 _tenderAddress) public view returns ( Tender memory){\r\n        require(tenders[_tenderAddress].budget > 0 , \"tender with address doesn't exists\");\r\n        return(tenders[_tenderAddress]);\r\n    }\r\n\r\n    function updateTenderStatus(uint256 _tenderAddress, TenderStatus _tenderStatus) public {\r\n        Tender storage updatedTender = tenders[_tenderAddress];\r\n        updatedTender.tenderStatus = _tenderStatus;\r\n    }\r\n\r\n    function updateTender(address _partyAddress, uint256 _tenderAddress, uint256 _budget, string memory _title, string memory _description, uint256 _deadline, uint256 _totalMilestones) public isTenderOwner(_partyAddress, _tenderAddress){\r\n        Tender storage updatedTender = tenders[_tenderAddress];\r\n        updatedTender.budget = _budget;\r\n        updatedTender.title = _title;\r\n        updatedTender.description = _description;\r\n        updatedTender.deadline = _deadline;\r\n        updatedTender.totalMilestones = _totalMilestones;\r\n    }\r\n\r\n    function deleteTender(address _partyAddress, uint256 _tenderAddress) public isTenderOwner(_partyAddress, _tenderAddress){ \r\n        require(parties[_partyAddress].tenderIds.length > 0, \"No tenders exists\");\r\n        require(tenders[_tenderAddress].budget > 0 , \"tender with address doesn't exists\");\r\n        require(tenders[_tenderAddress].tenderStatus == TenderStatus.NEW ||\r\n                tenders[_tenderAddress].tenderStatus == TenderStatus.SUSPENDED , \"tender cannot be deleted\");\r\n        uint256[] storage _tenderIds = parties[_partyAddress].tenderIds;\r\n        for (uint i = 0; i < _tenderIds.length; i++){\r\n            if(_tenderIds[i] == _tenderAddress){\r\n                delete tenders[_tenderAddress];\r\n                _tenderIds[i] = _tenderIds[_tenderIds.length - 1];\r\n                _tenderIds.pop();\r\n                break;\r\n            }\r\n        }\r\n    }\r\n\r\n    // @todo - add modifer for above functions\r\n\r\n    modifier isTenderOwner(address _partyAddress, uint256 _tenderAddress) {\r\n        require(tenders[_tenderAddress].issuerAddress == _partyAddress, \"you're not authorized to perform this action\");\r\n        _;\r\n    }\r\n\r\n    modifier isBidOwner(address _bidderAddress, uint256 _bidId) {\r\n        require(bids[_bidId].bidderAddress == _bidderAddress, \"you're not authorized to perform this action\");\r\n        _;\r\n    }\r\n\r\n    function createBid(address _bidderAddress, uint256 _tenderAddress, string memory _bidClause, uint256 _quotedAmount) public{\r\n        Tender storage tender = tenders[_tenderAddress];\r\n        require(tender.budget > 0, \"Tender does not exist\");\r\n        require(tender.tenderStatus == TenderStatus.OPEN, \"Tender is not open for bids\");\r\n        require(block.timestamp > tender.deadline, \"Bidding has ended\");\r\n        require(_bidderAddress != tender.issuerAddress, \"Owner cannot bid on their own tender\");\r\n\r\n        Bid storage newBid = bids[bidCount];\r\n        newBid.bidClause = _bidClause;\r\n        newBid.quotedAmount = _quotedAmount;\r\n        newBid.bidderAddress = _bidderAddress;\r\n        newBid.tenderAddress = _tenderAddress;\r\n        newBid.bidStatus = BidStatus.PENDING;\r\n        newBid.createdAt = block.timestamp;\r\n        tenders[_tenderAddress].bidIds.push(bidCount);\r\n        bidCount++;\r\n    }\r\n\r\n    modifier canViewBid(address _bidderAddress, address _issuerAddress ,uint256 _tenderId, uint256 _bidId){\r\n        require(bids[_bidId].bidderAddress == _bidderAddress  && tenders[_tenderId].issuerAddress == _issuerAddress && (msg.sender == _issuerAddress || msg.sender == _bidderAddress), \"Not authorized to view bid details\");\r\n        _;\r\n    }\r\n\r\n    // For getting bid details like message, amount, address of bidders \r\n    function getBidDetails(address _bidderAddress, address _issuerAddress ,uint256 _tenderId, uint256 _bidId) public view canViewBid(_bidderAddress, _issuerAddress, _tenderId, _bidId) returns (Bid memory) {\r\n\t    require(bids[_bidId].quotedAmount > 0, \"Bid does not exist\");\r\n    \treturn (bids[_bidId]);\r\n    }\r\n\r\n    // For getting all bids of a tender\r\n    function getAllBids(address _partyAddress, uint256 _tenderId) public view isTenderOwner(_partyAddress, _tenderId) returns(Bid[] memory){\r\n        require(tenders[_tenderId].bidIds.length > 0, \"No bids exists\");\r\n        uint256[] memory tenderBidIds = tenders[_tenderId].bidIds;\r\n        Bid[] memory bidsList = new Bid[](tenderBidIds.length);\r\n        for (uint256 i = 0; i < tenderBidIds.length; i++) {\r\n            bidsList[i] = bids[tenderBidIds[i]];\r\n        }\r\n        return(bidsList);\r\n    }\r\n\r\n    function updateBidStatus(address _partyAddress, uint256 _tenderAddress, uint256 _bidAddress ,BidStatus _bidStatus) public isTenderOwner(_partyAddress, _tenderAddress) {\r\n        Bid storage updatedBid = bids[_bidAddress];\r\n        updatedBid.bidStatus = _bidStatus;\r\n    }\r\n\r\n    function updateBid(address _bidderAddress, uint256 _bidId, string memory _bidClause, uint256 _quotedAmount) public isBidOwner(_bidderAddress, _bidId) {\r\n        Bid storage updatedBid = bids[_bidId];\r\n        updatedBid.bidClause = _bidClause;\r\n        updatedBid.quotedAmount = _quotedAmount;\r\n    }\r\n\r\n    function deleteBid(address _bidderAddress, uint256 _tenderId ,uint256 _bidId) public isBidOwner(_bidderAddress, _bidId){ \r\n        require(tenders[_tenderId].bidIds.length > 0, \"No bids exists\");\r\n        require(bids[_bidId].quotedAmount > 0 , \"bid with address doesn't exists\");\r\n        require(bids[_bidId].bidStatus != BidStatus.PENDING , \"bid cannot be deleted\");\r\n        uint256[] storage _bidIds = tenders[_tenderId].bidIds;\r\n        for (uint i = 0; i < _bidIds.length; i++){\r\n            if(_bidIds[i] == _bidId){\r\n                delete bids[_bidId];\r\n                _bidIds[i] = _bidIds[_bidIds.length - 1];\r\n                _bidIds.pop();\r\n                break;\r\n            }\r\n        }\r\n    }\r\n\r\n    modifier isValidTender(uint256 tenderId) {\r\n        require(block.timestamp >= tenders[tenderId].deadline && tenders[tenderId].tenderStatus == TenderStatus.CLOSED);\r\n        _;\r\n    }\r\n\r\n    function selectTopBids(address _partyAddress, uint256 _tenderId ) public view isTenderOwner(_partyAddress, _tenderId) isValidTender(_tenderId) returns (Bid[] memory) {\r\n        //invoke this function once deadline is crossed and can be invoked by project issue party, make sure this project is not assigned to anyone------modifier\r\n        // get all the bids for pt\r\n        Bid[] memory bidList = getAllBids(_partyAddress, _tenderId);\r\n        require(bidList.length > 0, \"No bids exists\");\r\n        // sort bids by price\r\n        for (uint i = 1; i < bidList.length; i++){\r\n            for (uint j = 0; j < i; j++){\r\n                if (bidList[i].quotedAmount < bidList[j].quotedAmount) {\r\n                    Bid memory tempBid = bidList[i];\r\n                    bidList[i] = bidList[j];\r\n                    bidList[j] = tempBid;\r\n                }\r\n            }\r\n        }\r\n        uint256 shortListedBidsCount = (bidList.length < 5) ? bidList.length : 5; \r\n        Bid[] memory shortListedBids = new Bid[](shortListedBidsCount);\r\n        for (uint i = 0; i < shortListedBidsCount; i++){\r\n            shortListedBids[i] = bidList[i];\r\n        }\r\n\r\n        return shortListedBids;\r\n        //returns a list of top 5 bidders and history of bidders\r\n\r\n        // - in case of a tie, the bidder with the largest \"trust\" is given the project. ( Trust in this context is measured in terms of the number of previous projects done and the token assets a party has.)\r\n        // update the status of each bid to APPROVED / REJECTED from PENDING.\r\n    }\r\n\r\n    function finaliseWinnerBid(address _partyAddress, uint256 _tenderId, uint256 _bidId) public isTenderOwner(_partyAddress, _tenderId){\r\n        for(uint256 i=0;i<tenders[_tenderId].bidIds.length ;i++){\r\n            if(tenders[_tenderId].bidIds[i] == _bidId)\r\n                updateBidStatus(_partyAddress, _tenderId, tenders[_tenderId].bidIds[i], BidStatus.APPROVED);\r\n            else \r\n                updateBidStatus(_partyAddress, _tenderId, tenders[_tenderId].bidIds[i], BidStatus.REJECTED);\r\n        }\r\n        tenders[_tenderId].tenderStatus = TenderStatus.ASSIGNED;\r\n    }\r\n\r\n}\r\n",
  "sourcePath": "C:\\Users\\sabba\\OneDrive\\Documents\\BlockchainProject\\blockchain-based-contracting-system\\contracts\\party.sol",
  "compiler": {
    "name": "solc",
    "version": "0.8.17+commit.8df45f5f.Emscripten.clang"
  },
  "schemaVersion": "3.4.13",
  "updatedAt": "2023-04-06T18:36:48.238Z",
  "devdoc": {
    "kind": "dev",
    "methods": {},
    "version": 1
  },
  "userdoc": {
    "kind": "user",
    "methods": {},
    "version": 1
  }
}