{
  "contractName": "PartyContract",
  "abi": [
    {
      "inputs": [],
      "stateMutability": "nonpayable",
      "type": "constructor"
    },
    {
      "inputs": [
        {
          "internalType": "address",
          "name": "",
          "type": "address"
        }
      ],
      "name": "parties",
      "outputs": [
        {
          "internalType": "string",
          "name": "name",
          "type": "string"
        },
        {
          "internalType": "string",
          "name": "contactNumber",
          "type": "string"
        },
        {
          "internalType": "string",
          "name": "email",
          "type": "string"
        },
        {
          "internalType": "string",
          "name": "password",
          "type": "string"
        },
        {
          "internalType": "uint256",
          "name": "trustScore",
          "type": "uint256"
        },
        {
          "internalType": "uint256",
          "name": "createdAt",
          "type": "uint256"
        },
        {
          "internalType": "address",
          "name": "partyAddress",
          "type": "address"
        }
      ],
      "stateMutability": "view",
      "type": "function"
    },
    {
      "inputs": [
        {
          "internalType": "uint256",
          "name": "",
          "type": "uint256"
        }
      ],
      "name": "partyAddresses",
      "outputs": [
        {
          "internalType": "address",
          "name": "",
          "type": "address"
        }
      ],
      "stateMutability": "view",
      "type": "function"
    },
    {
      "inputs": [
        {
          "internalType": "string",
          "name": "_name",
          "type": "string"
        },
        {
          "internalType": "string",
          "name": "_contactNumber",
          "type": "string"
        },
        {
          "internalType": "string",
          "name": "_email",
          "type": "string"
        },
        {
          "internalType": "string",
          "name": "_password",
          "type": "string"
        },
        {
          "internalType": "address",
          "name": "_partyAddress",
          "type": "address"
        }
      ],
      "name": "createParty",
      "outputs": [],
      "stateMutability": "nonpayable",
      "type": "function"
    },
    {
      "inputs": [
        {
          "internalType": "string",
          "name": "_name",
          "type": "string"
        },
        {
          "internalType": "string",
          "name": "_password",
          "type": "string"
        },
        {
          "internalType": "address",
          "name": "_partyAddress",
          "type": "address"
        }
      ],
      "name": "updateParty",
      "outputs": [],
      "stateMutability": "nonpayable",
      "type": "function"
    },
    {
      "inputs": [
        {
          "internalType": "address",
          "name": "_partyAddress",
          "type": "address"
        }
      ],
      "name": "deleteParty",
      "outputs": [],
      "stateMutability": "nonpayable",
      "type": "function"
    },
    {
      "inputs": [
        {
          "internalType": "address",
          "name": "_partyAddress",
          "type": "address"
        }
      ],
      "name": "getPartyDetails",
      "outputs": [
        {
          "internalType": "string",
          "name": "",
          "type": "string"
        },
        {
          "internalType": "string",
          "name": "",
          "type": "string"
        },
        {
          "internalType": "string",
          "name": "",
          "type": "string"
        },
        {
          "internalType": "address",
          "name": "",
          "type": "address"
        },
        {
          "internalType": "uint256",
          "name": "",
          "type": "uint256"
        }
      ],
      "stateMutability": "view",
      "type": "function"
    },
    {
      "inputs": [
        {
          "internalType": "address",
          "name": "_partyAddress",
          "type": "address"
        },
        {
          "internalType": "uint256",
          "name": "_trustScore",
          "type": "uint256"
        }
      ],
      "name": "updateTrustScore",
      "outputs": [],
      "stateMutability": "nonpayable",
      "type": "function"
    },
    {
      "inputs": [
        {
          "internalType": "address",
          "name": "_partyAddress",
          "type": "address"
        },
        {
          "internalType": "uint256",
          "name": "_budget",
          "type": "uint256"
        },
        {
          "internalType": "string",
          "name": "_title",
          "type": "string"
        },
        {
          "internalType": "string",
          "name": "_description",
          "type": "string"
        },
        {
          "internalType": "uint256",
          "name": "_deadline",
          "type": "uint256"
        },
        {
          "internalType": "uint256",
          "name": "_totalMilestones",
          "type": "uint256"
        }
      ],
      "name": "createTender",
      "outputs": [],
      "stateMutability": "nonpayable",
      "type": "function"
    },
    {
      "inputs": [],
      "name": "getAllTenders",
      "outputs": [
        {
          "components": [
            {
              "internalType": "string",
              "name": "title",
              "type": "string"
            },
            {
              "internalType": "string",
              "name": "description",
              "type": "string"
            },
            {
              "internalType": "uint256",
              "name": "budget",
              "type": "uint256"
            },
            {
              "internalType": "address",
              "name": "issuerAddress",
              "type": "address"
            },
            {
              "internalType": "enum TenderStatus",
              "name": "tenderStatus",
              "type": "uint8"
            },
            {
              "internalType": "uint256",
              "name": "createdAt",
              "type": "uint256"
            },
            {
              "internalType": "uint256",
              "name": "deadline",
              "type": "uint256"
            },
            {
              "internalType": "uint256",
              "name": "totalMilestones",
              "type": "uint256"
            },
            {
              "internalType": "address",
              "name": "tenderAddress",
              "type": "address"
            },
            {
              "internalType": "address[]",
              "name": "validatorsAddresses",
              "type": "address[]"
            },
            {
              "internalType": "uint256[]",
              "name": "milestoneTimePeriods",
              "type": "uint256[]"
            },
            {
              "internalType": "address[]",
              "name": "bidIds",
              "type": "address[]"
            },
            {
              "components": [
                {
                  "internalType": "string",
                  "name": "bidClause",
                  "type": "string"
                },
                {
                  "internalType": "uint256",
                  "name": "quotedAmount",
                  "type": "uint256"
                },
                {
                  "internalType": "address",
                  "name": "bidderAddress",
                  "type": "address"
                },
                {
                  "internalType": "address",
                  "name": "tenderAddress",
                  "type": "address"
                },
                {
                  "internalType": "enum BidStatus",
                  "name": "bidStatus",
                  "type": "uint8"
                },
                {
                  "internalType": "uint256",
                  "name": "createdAt",
                  "type": "uint256"
                }
              ],
              "internalType": "struct Bid[]",
              "name": "bids",
              "type": "tuple[]"
            }
          ],
          "internalType": "struct Tender[]",
          "name": "",
          "type": "tuple[]"
        }
      ],
      "stateMutability": "view",
      "type": "function"
    },
    {
      "inputs": [
        {
          "internalType": "address",
          "name": "_partyAddress",
          "type": "address"
        }
      ],
      "name": "getMyTenders",
      "outputs": [
        {
          "components": [
            {
              "internalType": "string",
              "name": "title",
              "type": "string"
            },
            {
              "internalType": "string",
              "name": "description",
              "type": "string"
            },
            {
              "internalType": "uint256",
              "name": "budget",
              "type": "uint256"
            },
            {
              "internalType": "address",
              "name": "issuerAddress",
              "type": "address"
            },
            {
              "internalType": "enum TenderStatus",
              "name": "tenderStatus",
              "type": "uint8"
            },
            {
              "internalType": "uint256",
              "name": "createdAt",
              "type": "uint256"
            },
            {
              "internalType": "uint256",
              "name": "deadline",
              "type": "uint256"
            },
            {
              "internalType": "uint256",
              "name": "totalMilestones",
              "type": "uint256"
            },
            {
              "internalType": "address",
              "name": "tenderAddress",
              "type": "address"
            },
            {
              "internalType": "address[]",
              "name": "validatorsAddresses",
              "type": "address[]"
            },
            {
              "internalType": "uint256[]",
              "name": "milestoneTimePeriods",
              "type": "uint256[]"
            },
            {
              "internalType": "address[]",
              "name": "bidIds",
              "type": "address[]"
            },
            {
              "components": [
                {
                  "internalType": "string",
                  "name": "bidClause",
                  "type": "string"
                },
                {
                  "internalType": "uint256",
                  "name": "quotedAmount",
                  "type": "uint256"
                },
                {
                  "internalType": "address",
                  "name": "bidderAddress",
                  "type": "address"
                },
                {
                  "internalType": "address",
                  "name": "tenderAddress",
                  "type": "address"
                },
                {
                  "internalType": "enum BidStatus",
                  "name": "bidStatus",
                  "type": "uint8"
                },
                {
                  "internalType": "uint256",
                  "name": "createdAt",
                  "type": "uint256"
                }
              ],
              "internalType": "struct Bid[]",
              "name": "bids",
              "type": "tuple[]"
            }
          ],
          "internalType": "struct Tender[]",
          "name": "",
          "type": "tuple[]"
        }
      ],
      "stateMutability": "view",
      "type": "function"
    },
    {
      "inputs": [
        {
          "internalType": "address",
          "name": "_partyAddress",
          "type": "address"
        },
        {
          "internalType": "address",
          "name": "_tenderAddress",
          "type": "address"
        }
      ],
      "name": "getTenderDetails",
      "outputs": [
        {
          "components": [
            {
              "internalType": "string",
              "name": "title",
              "type": "string"
            },
            {
              "internalType": "string",
              "name": "description",
              "type": "string"
            },
            {
              "internalType": "uint256",
              "name": "budget",
              "type": "uint256"
            },
            {
              "internalType": "address",
              "name": "issuerAddress",
              "type": "address"
            },
            {
              "internalType": "enum TenderStatus",
              "name": "tenderStatus",
              "type": "uint8"
            },
            {
              "internalType": "uint256",
              "name": "createdAt",
              "type": "uint256"
            },
            {
              "internalType": "uint256",
              "name": "deadline",
              "type": "uint256"
            },
            {
              "internalType": "uint256",
              "name": "totalMilestones",
              "type": "uint256"
            },
            {
              "internalType": "address",
              "name": "tenderAddress",
              "type": "address"
            },
            {
              "internalType": "address[]",
              "name": "validatorsAddresses",
              "type": "address[]"
            },
            {
              "internalType": "uint256[]",
              "name": "milestoneTimePeriods",
              "type": "uint256[]"
            },
            {
              "internalType": "address[]",
              "name": "bidIds",
              "type": "address[]"
            },
            {
              "components": [
                {
                  "internalType": "string",
                  "name": "bidClause",
                  "type": "string"
                },
                {
                  "internalType": "uint256",
                  "name": "quotedAmount",
                  "type": "uint256"
                },
                {
                  "internalType": "address",
                  "name": "bidderAddress",
                  "type": "address"
                },
                {
                  "internalType": "address",
                  "name": "tenderAddress",
                  "type": "address"
                },
                {
                  "internalType": "enum BidStatus",
                  "name": "bidStatus",
                  "type": "uint8"
                },
                {
                  "internalType": "uint256",
                  "name": "createdAt",
                  "type": "uint256"
                }
              ],
              "internalType": "struct Bid[]",
              "name": "bids",
              "type": "tuple[]"
            }
          ],
          "internalType": "struct Tender",
          "name": "",
          "type": "tuple"
        }
      ],
      "stateMutability": "view",
      "type": "function"
    },
    {
      "inputs": [
        {
          "internalType": "address",
          "name": "_partyAddress",
          "type": "address"
        },
        {
          "internalType": "address",
          "name": "_tenderAddress",
          "type": "address"
        },
        {
          "internalType": "enum TenderStatus",
          "name": "_tenderStatus",
          "type": "uint8"
        }
      ],
      "name": "updateTenderStatus",
      "outputs": [],
      "stateMutability": "nonpayable",
      "type": "function"
    },
    {
      "inputs": [
        {
          "internalType": "address",
          "name": "_partyAddress",
          "type": "address"
        },
        {
          "internalType": "address",
          "name": "_tenderAddress",
          "type": "address"
        },
        {
          "internalType": "uint256",
          "name": "_budget",
          "type": "uint256"
        },
        {
          "internalType": "string",
          "name": "_title",
          "type": "string"
        },
        {
          "internalType": "string",
          "name": "_description",
          "type": "string"
        },
        {
          "internalType": "uint256",
          "name": "_deadline",
          "type": "uint256"
        },
        {
          "internalType": "uint256",
          "name": "_totalMilestones",
          "type": "uint256"
        }
      ],
      "name": "updateTender",
      "outputs": [],
      "stateMutability": "nonpayable",
      "type": "function"
    },
    {
      "inputs": [
        {
          "internalType": "address",
          "name": "_partyAddress",
          "type": "address"
        },
        {
          "internalType": "address",
          "name": "_tenderAddress",
          "type": "address"
        }
      ],
      "name": "deleteTender",
      "outputs": [],
      "stateMutability": "nonpayable",
      "type": "function"
    }
  ],
  "bytecode": "0x608060405234801561001057600080fd5b50615008806100206000396000f3fe608060405234801561001057600080fd5b50600436106100e95760003560e01c80637a0c7d391161008c578063c792d8fd11610066578063c792d8fd1461024e578063cffedb471461027e578063ed10bec2146102ae578063ef8c0391146102ca576100e9565b80637a0c7d39146101fa578063ae23d26714610216578063b2a88f6f14610232576100e9565b8063228becb6116100c8578063228becb61461015a5780632358c0461461018a57806342c8de69146101a85780634f235207146101c4576100e9565b8062da7228146100ee578063135d8d1414610122578063171fd8481461013e575b600080fd5b610108600480360381019061010391906139c1565b6102e6565b604051610119959493929190613aa6565b60405180910390f35b61013c60048036038101906101379190613b33565b61074e565b005b61015860048036038101906101539190613cbb565b610802565b005b610174600480360381019061016f91906139c1565b610a8d565b6040516101819190614374565b60405180910390f35b6101926112b8565b60405161019f9190614374565b60405180910390f35b6101c260048036038101906101bd9190614396565b611c3c565b005b6101de60048036038101906101d991906139c1565b6122d9565b6040516101f197969594939291906143d6565b60405180910390f35b610214600480360381019061020f9190614461565b61255b565b005b610230600480360381019061022b9190614518565b612709565b005b61024c600480360381019061024791906145f2565b6127d4565b005b610268600480360381019061026391906146b7565b612a6c565b60405161027591906146e4565b60405180910390f35b61029860048036038101906102939190614396565b612aab565b6040516102a5919061483b565b60405180910390f35b6102c860048036038101906102c3919061485d565b613223565b005b6102e460048036038101906102df91906139c1565b6133b5565b005b6060806060600080858073ffffffffffffffffffffffffffffffffffffffff163373ffffffffffffffffffffffffffffffffffffffff161461035d576040517f08c379a0000000000000000000000000000000000000000000000000000000008152600401610354906148e9565b60405180910390fd5b86600073ffffffffffffffffffffffffffffffffffffffff166000808373ffffffffffffffffffffffffffffffffffffffff1673ffffffffffffffffffffffffffffffffffffffff16815260200190815260200160002060060160009054906101000a900473ffffffffffffffffffffffffffffffffffffffff1673ffffffffffffffffffffffffffffffffffffffff160361042e576040517f08c379a000000000000000000000000000000000000000000000000000000000815260040161042590614955565b60405180910390fd5b6000808973ffffffffffffffffffffffffffffffffffffffff1673ffffffffffffffffffffffffffffffffffffffff1681526020019081526020016000206000016000808a73ffffffffffffffffffffffffffffffffffffffff1673ffffffffffffffffffffffffffffffffffffffff1681526020019081526020016000206001016000808b73ffffffffffffffffffffffffffffffffffffffff1673ffffffffffffffffffffffffffffffffffffffff1681526020019081526020016000206002016000808c73ffffffffffffffffffffffffffffffffffffffff1673ffffffffffffffffffffffffffffffffffffffff16815260200190815260200160002060060160009054906101000a900473ffffffffffffffffffffffffffffffffffffffff166000808d73ffffffffffffffffffffffffffffffffffffffff1673ffffffffffffffffffffffffffffffffffffffff168152602001908152602001600020600401548480546105a1906149a4565b80601f01602080910402602001604051908101604052809291908181526020018280546105cd906149a4565b801561061a5780601f106105ef5761010080835404028352916020019161061a565b820191906000526020600020905b8154815290600101906020018083116105fd57829003601f168201915b5050505050945083805461062d906149a4565b80601f0160208091040260200160405190810160405280929190818152602001828054610659906149a4565b80156106a65780601f1061067b576101008083540402835291602001916106a6565b820191906000526020600020905b81548152906001019060200180831161068957829003601f168201915b505050505093508280546106b9906149a4565b80601f01602080910402602001604051908101604052809291908181526020018280546106e5906149a4565b80156107325780601f1061070757610100808354040283529160200191610732565b820191906000526020600020905b81548152906001019060200180831161071557829003601f168201915b5050505050925096509650965096509650505091939590929450565b60008060008573ffffffffffffffffffffffffffffffffffffffff1673ffffffffffffffffffffffffffffffffffffffff16815260200190815260200160002060080160008473ffffffffffffffffffffffffffffffffffffffff1673ffffffffffffffffffffffffffffffffffffffff1681526020019081526020016000209050818160030160146101000a81548160ff021916908360048111156107f7576107f6613e3a565b5b021790555050505050565b808073ffffffffffffffffffffffffffffffffffffffff163373ffffffffffffffffffffffffffffffffffffffff1614610871576040517f08c379a0000000000000000000000000000000000000000000000000000000008152600401610868906148e9565b60405180910390fd5b600073ffffffffffffffffffffffffffffffffffffffff166000808473ffffffffffffffffffffffffffffffffffffffff1673ffffffffffffffffffffffffffffffffffffffff16815260200190815260200160002060060160009054906101000a900473ffffffffffffffffffffffffffffffffffffffff1673ffffffffffffffffffffffffffffffffffffffff1614610941576040517f08c379a000000000000000000000000000000000000000000000000000000000815260040161093890614a21565b60405180910390fd5b60008060008473ffffffffffffffffffffffffffffffffffffffff1673ffffffffffffffffffffffffffffffffffffffff1681526020019081526020016000209050868160000190816109949190614bed565b50858160010190816109a69190614bed565b50848160020190816109b89190614bed565b50838160030190816109ca9190614bed565b5060008160040181905550428160050181905550828160060160006101000a81548173ffffffffffffffffffffffffffffffffffffffff021916908373ffffffffffffffffffffffffffffffffffffffff1602179055506001839080600181540180825580915050600190039060005260206000200160009091909190916101000a81548173ffffffffffffffffffffffffffffffffffffffff021916908373ffffffffffffffffffffffffffffffffffffffff16021790555050505050505050565b606060008060008473ffffffffffffffffffffffffffffffffffffffff1673ffffffffffffffffffffffffffffffffffffffff1681526020019081526020016000206007018054905011610b16576040517f08c379a0000000000000000000000000000000000000000000000000000000008152600401610b0d90614d0b565b60405180910390fd5b60008060008473ffffffffffffffffffffffffffffffffffffffff1673ffffffffffffffffffffffffffffffffffffffff168152602001908152602001600020600701805480602002602001604051908101604052809291908181526020018280548015610bd957602002820191906000526020600020905b8160009054906101000a900473ffffffffffffffffffffffffffffffffffffffff1673ffffffffffffffffffffffffffffffffffffffff1681526020019060010190808311610b8f575b505050505090506000815167ffffffffffffffff811115610bfd57610bfc613b90565b5b604051908082528060200260200182016040528015610c3657816020015b610c2361374d565b815260200190600190039081610c1b5790505b50905060005b82518110156112ad576000808673ffffffffffffffffffffffffffffffffffffffff1673ffffffffffffffffffffffffffffffffffffffff1681526020019081526020016000206008016000848381518110610c9b57610c9a614d2b565b5b602002602001015173ffffffffffffffffffffffffffffffffffffffff1673ffffffffffffffffffffffffffffffffffffffff168152602001908152602001600020604051806101a0016040529081600082018054610cf9906149a4565b80601f0160208091040260200160405190810160405280929190818152602001828054610d25906149a4565b8015610d725780601f10610d4757610100808354040283529160200191610d72565b820191906000526020600020905b815481529060010190602001808311610d5557829003601f168201915b50505050508152602001600182018054610d8b906149a4565b80601f0160208091040260200160405190810160405280929190818152602001828054610db7906149a4565b8015610e045780601f10610dd957610100808354040283529160200191610e04565b820191906000526020600020905b815481529060010190602001808311610de757829003601f168201915b50505050508152602001600282015481526020016003820160009054906101000a900473ffffffffffffffffffffffffffffffffffffffff1673ffffffffffffffffffffffffffffffffffffffff1673ffffffffffffffffffffffffffffffffffffffff1681526020016003820160149054906101000a900460ff166004811115610e9257610e91613e3a565b5b6004811115610ea457610ea3613e3a565b5b81526020016004820154815260200160058201548152602001600682015481526020016007820160009054906101000a900473ffffffffffffffffffffffffffffffffffffffff1673ffffffffffffffffffffffffffffffffffffffff1673ffffffffffffffffffffffffffffffffffffffff16815260200160088201805480602002602001604051908101604052809291908181526020018280548015610fa157602002820191906000526020600020905b8160009054906101000a900473ffffffffffffffffffffffffffffffffffffffff1673ffffffffffffffffffffffffffffffffffffffff1681526020019060010190808311610f57575b5050505050815260200160098201805480602002602001604051908101604052809291908181526020018280548015610ff957602002820191906000526020600020905b815481526020019060010190808311610fe5575b50505050508152602001600a820180548060200260200160405190810160405280929190818152602001828054801561108757602002820191906000526020600020905b8160009054906101000a900473ffffffffffffffffffffffffffffffffffffffff1673ffffffffffffffffffffffffffffffffffffffff168152602001906001019080831161103d575b50505050508152602001600b8201805480602002602001604051908101604052809291908181526020016000905b8282101561127457838290600052602060002090600502016040518060c00160405290816000820180546110e8906149a4565b80601f0160208091040260200160405190810160405280929190818152602001828054611114906149a4565b80156111615780601f1061113657610100808354040283529160200191611161565b820191906000526020600020905b81548152906001019060200180831161114457829003601f168201915b50505050508152602001600182015481526020016002820160009054906101000a900473ffffffffffffffffffffffffffffffffffffffff1673ffffffffffffffffffffffffffffffffffffffff1673ffffffffffffffffffffffffffffffffffffffff1681526020016003820160009054906101000a900473ffffffffffffffffffffffffffffffffffffffff1673ffffffffffffffffffffffffffffffffffffffff1673ffffffffffffffffffffffffffffffffffffffff1681526020016003820160149054906101000a900460ff16600281111561124557611244613e3a565b5b600281111561125757611256613e3a565b5b8152602001600482015481525050815260200190600101906110b5565b505050508152505082828151811061128f5761128e614d2b565b5b602002602001018190525080806112a590614d89565b915050610c3c565b508092505050919050565b6060600060018054905011611302576040517f08c379a00000000000000000000000000000000000000000000000000000000081526004016112f990614e1d565b60405180910390fd5b6000805b6001805490508110156113b6576000806001838154811061132a57611329614d2b565b5b9060005260206000200160009054906101000a900473ffffffffffffffffffffffffffffffffffffffff1673ffffffffffffffffffffffffffffffffffffffff1673ffffffffffffffffffffffffffffffffffffffff16815260200190815260200160002060070180549050826113a19190614e3d565b915080806113ae90614d89565b915050611306565b5060008167ffffffffffffffff8111156113d3576113d2613b90565b5b60405190808252806020026020018201604052801561140c57816020015b6113f961374d565b8152602001906001900390816113f15790505b5090506000805b600180549050811015611c325760008060006001848154811061143957611438614d2b565b5b9060005260206000200160009054906101000a900473ffffffffffffffffffffffffffffffffffffffff1673ffffffffffffffffffffffffffffffffffffffff1673ffffffffffffffffffffffffffffffffffffffff16815260200190815260200160002060070180548060200260200160405190810160405280929190818152602001828054801561152157602002820191906000526020600020905b8160009054906101000a900473ffffffffffffffffffffffffffffffffffffffff1673ffffffffffffffffffffffffffffffffffffffff16815260200190600101908083116114d7575b5050505050905060005b8151811015611c1d5760008060006001868154811061154d5761154c614d2b565b5b9060005260206000200160009054906101000a900473ffffffffffffffffffffffffffffffffffffffff1673ffffffffffffffffffffffffffffffffffffffff1673ffffffffffffffffffffffffffffffffffffffff16815260200190815260200160002060080160008484815181106115ca576115c9614d2b565b5b602002602001015173ffffffffffffffffffffffffffffffffffffffff1673ffffffffffffffffffffffffffffffffffffffff168152602001908152602001600020604051806101a0016040529081600082018054611628906149a4565b80601f0160208091040260200160405190810160405280929190818152602001828054611654906149a4565b80156116a15780601f10611676576101008083540402835291602001916116a1565b820191906000526020600020905b81548152906001019060200180831161168457829003601f168201915b505050505081526020016001820180546116ba906149a4565b80601f01602080910402602001604051908101604052809291908181526020018280546116e6906149a4565b80156117335780601f1061170857610100808354040283529160200191611733565b820191906000526020600020905b81548152906001019060200180831161171657829003601f168201915b50505050508152602001600282015481526020016003820160009054906101000a900473ffffffffffffffffffffffffffffffffffffffff1673ffffffffffffffffffffffffffffffffffffffff1673ffffffffffffffffffffffffffffffffffffffff1681526020016003820160149054906101000a900460ff1660048111156117c1576117c0613e3a565b5b60048111156117d3576117d2613e3a565b5b81526020016004820154815260200160058201548152602001600682015481526020016007820160009054906101000a900473ffffffffffffffffffffffffffffffffffffffff1673ffffffffffffffffffffffffffffffffffffffff1673ffffffffffffffffffffffffffffffffffffffff168152602001600882018054806020026020016040519081016040528092919081815260200182805480156118d057602002820191906000526020600020905b8160009054906101000a900473ffffffffffffffffffffffffffffffffffffffff1673ffffffffffffffffffffffffffffffffffffffff1681526020019060010190808311611886575b505050505081526020016009820180548060200260200160405190810160405280929190818152602001828054801561192857602002820191906000526020600020905b815481526020019060010190808311611914575b50505050508152602001600a82018054806020026020016040519081016040528092919081815260200182805480156119b657602002820191906000526020600020905b8160009054906101000a900473ffffffffffffffffffffffffffffffffffffffff1673ffffffffffffffffffffffffffffffffffffffff168152602001906001019080831161196c575b50505050508152602001600b8201805480602002602001604051908101604052809291908181526020016000905b82821015611ba357838290600052602060002090600502016040518060c0016040529081600082018054611a17906149a4565b80601f0160208091040260200160405190810160405280929190818152602001828054611a43906149a4565b8015611a905780601f10611a6557610100808354040283529160200191611a90565b820191906000526020600020905b815481529060010190602001808311611a7357829003601f168201915b50505050508152602001600182015481526020016002820160009054906101000a900473ffffffffffffffffffffffffffffffffffffffff1673ffffffffffffffffffffffffffffffffffffffff1673ffffffffffffffffffffffffffffffffffffffff1681526020016003820160009054906101000a900473ffffffffffffffffffffffffffffffffffffffff1673ffffffffffffffffffffffffffffffffffffffff1673ffffffffffffffffffffffffffffffffffffffff1681526020016003820160149054906101000a900460ff166002811115611b7457611b73613e3a565b5b6002811115611b8657611b85613e3a565b5b8152602001600482015481525050815260200190600101906119e4565b5050505081525050905060016004811115611bc157611bc0613e3a565b5b81608001516004811115611bd857611bd7613e3a565b5b03611c095780868680611bea90614d89565b975081518110611bfd57611bfc614d2b565b5b60200260200101819052505b508080611c1590614d89565b91505061152b565b50508080611c2a90614d89565b915050611413565b5081935050505090565b60008060008473ffffffffffffffffffffffffffffffffffffffff1673ffffffffffffffffffffffffffffffffffffffff1681526020019081526020016000206007018054905011611cc3576040517f08c379a0000000000000000000000000000000000000000000000000000000008152600401611cba90614d0b565b60405180910390fd5b60008060008473ffffffffffffffffffffffffffffffffffffffff1673ffffffffffffffffffffffffffffffffffffffff16815260200190815260200160002060080160008373ffffffffffffffffffffffffffffffffffffffff1673ffffffffffffffffffffffffffffffffffffffff1681526020019081526020016000206002015411611d87576040517f08c379a0000000000000000000000000000000000000000000000000000000008152600401611d7e90614ee3565b60405180910390fd5b60006004811115611d9b57611d9a613e3a565b5b6000808473ffffffffffffffffffffffffffffffffffffffff1673ffffffffffffffffffffffffffffffffffffffff16815260200190815260200160002060080160008373ffffffffffffffffffffffffffffffffffffffff1673ffffffffffffffffffffffffffffffffffffffff16815260200190815260200160002060030160149054906101000a900460ff166004811115611e3c57611e3b613e3a565b5b1480611efa575060036004811115611e5757611e56613e3a565b5b6000808473ffffffffffffffffffffffffffffffffffffffff1673ffffffffffffffffffffffffffffffffffffffff16815260200190815260200160002060080160008373ffffffffffffffffffffffffffffffffffffffff1673ffffffffffffffffffffffffffffffffffffffff16815260200190815260200160002060030160149054906101000a900460ff166004811115611ef857611ef7613e3a565b5b145b611f39576040517f08c379a0000000000000000000000000000000000000000000000000000000008152600401611f3090614f4f565b60405180910390fd5b6000808373ffffffffffffffffffffffffffffffffffffffff1673ffffffffffffffffffffffffffffffffffffffff16815260200190815260200160002060080160008273ffffffffffffffffffffffffffffffffffffffff1673ffffffffffffffffffffffffffffffffffffffff16815260200190815260200160002060008082016000611fc891906137f3565b600182016000611fd891906137f3565b60028201600090556003820160006101000a81549073ffffffffffffffffffffffffffffffffffffffff02191690556003820160146101000a81549060ff02191690556004820160009055600582016000905560068201600090556007820160006101000a81549073ffffffffffffffffffffffffffffffffffffffff021916905560088201600061206a9190613833565b60098201600061207a9190613854565b600a8201600061208a9190613833565b600b8201600061209a9190613875565b505060005b6000808473ffffffffffffffffffffffffffffffffffffffff1673ffffffffffffffffffffffffffffffffffffffff168152602001908152602001600020600701805490508110156122d4578173ffffffffffffffffffffffffffffffffffffffff166000808573ffffffffffffffffffffffffffffffffffffffff1673ffffffffffffffffffffffffffffffffffffffff168152602001908152602001600020600701828154811061215557612154614d2b565b5b9060005260206000200160009054906101000a900473ffffffffffffffffffffffffffffffffffffffff1673ffffffffffffffffffffffffffffffffffffffff16036122c1576000808473ffffffffffffffffffffffffffffffffffffffff1673ffffffffffffffffffffffffffffffffffffffff16815260200190815260200160002060070181806121e790614d89565b9250815481106121fa576121f9614d2b565b5b9060005260206000200160009054906101000a900473ffffffffffffffffffffffffffffffffffffffff166000808573ffffffffffffffffffffffffffffffffffffffff1673ffffffffffffffffffffffffffffffffffffffff168152602001908152602001600020600701828154811061227857612277614d2b565b5b9060005260206000200160006101000a81548173ffffffffffffffffffffffffffffffffffffffff021916908373ffffffffffffffffffffffffffffffffffffffff1602179055505b80806122cc90614d89565b91505061209f565b505050565b60006020528060005260406000206000915090508060000180546122fc906149a4565b80601f0160208091040260200160405190810160405280929190818152602001828054612328906149a4565b80156123755780601f1061234a57610100808354040283529160200191612375565b820191906000526020600020905b81548152906001019060200180831161235857829003601f168201915b50505050509080600101805461238a906149a4565b80601f01602080910402602001604051908101604052809291908181526020018280546123b6906149a4565b80156124035780601f106123d857610100808354040283529160200191612403565b820191906000526020600020905b8154815290600101906020018083116123e657829003601f168201915b505050505090806002018054612418906149a4565b80601f0160208091040260200160405190810160405280929190818152602001828054612444906149a4565b80156124915780601f1061246657610100808354040283529160200191612491565b820191906000526020600020905b81548152906001019060200180831161247457829003601f168201915b5050505050908060030180546124a6906149a4565b80601f01602080910402602001604051908101604052809291908181526020018280546124d2906149a4565b801561251f5780601f106124f45761010080835404028352916020019161251f565b820191906000526020600020905b81548152906001019060200180831161250257829003601f168201915b5050505050908060040154908060050154908060060160009054906101000a900473ffffffffffffffffffffffffffffffffffffffff16905087565b808073ffffffffffffffffffffffffffffffffffffffff163373ffffffffffffffffffffffffffffffffffffffff16146125ca576040517f08c379a00000000000000000000000000000000000000000000000000000000081526004016125c1906148e9565b60405180910390fd5b81600073ffffffffffffffffffffffffffffffffffffffff166000808373ffffffffffffffffffffffffffffffffffffffff1673ffffffffffffffffffffffffffffffffffffffff16815260200190815260200160002060060160009054906101000a900473ffffffffffffffffffffffffffffffffffffffff1673ffffffffffffffffffffffffffffffffffffffff160361269b576040517f08c379a000000000000000000000000000000000000000000000000000000000815260040161269290614955565b60405180910390fd5b60008060008573ffffffffffffffffffffffffffffffffffffffff1673ffffffffffffffffffffffffffffffffffffffff1681526020019081526020016000209050858160000190816126ee9190614bed565b50848160030190816127009190614bed565b50505050505050565b60008060008973ffffffffffffffffffffffffffffffffffffffff1673ffffffffffffffffffffffffffffffffffffffff16815260200190815260200160002060080160008873ffffffffffffffffffffffffffffffffffffffff1673ffffffffffffffffffffffffffffffffffffffff1681526020019081526020016000209050858160020181905550848160000190816127a59190614bed565b50838160010190816127b79190614bed565b508281600501819055508181600601819055505050505050505050565b858073ffffffffffffffffffffffffffffffffffffffff163373ffffffffffffffffffffffffffffffffffffffff1614612843576040517f08c379a000000000000000000000000000000000000000000000000000000000815260040161283a906148e9565b60405180910390fd5b60008060008973ffffffffffffffffffffffffffffffffffffffff1673ffffffffffffffffffffffffffffffffffffffff16815260200190815260200160002060080160003073ffffffffffffffffffffffffffffffffffffffff1673ffffffffffffffffffffffffffffffffffffffff1681526020019081526020016000209050858160000190816128d69190614bed565b50848160010190816128e89190614bed565b5086816002018190555060008160030160146101000a81548160ff0219169083600481111561291a57612919613e3a565b5b0217905550428160040181905550838160050181905550878160030160006101000a81548173ffffffffffffffffffffffffffffffffffffffff021916908373ffffffffffffffffffffffffffffffffffffffff160217905550308160070160006101000a81548173ffffffffffffffffffffffffffffffffffffffff021916908373ffffffffffffffffffffffffffffffffffffffff1602179055508281600601819055506000808973ffffffffffffffffffffffffffffffffffffffff1673ffffffffffffffffffffffffffffffffffffffff168152602001908152602001600020600701309080600181540180825580915050600190039060005260206000200160009091909190916101000a81548173ffffffffffffffffffffffffffffffffffffffff021916908373ffffffffffffffffffffffffffffffffffffffff1602179055505050505050505050565b60018181548110612a7c57600080fd5b906000526020600020016000915054906101000a900473ffffffffffffffffffffffffffffffffffffffff1681565b612ab361374d565b60008060008573ffffffffffffffffffffffffffffffffffffffff1673ffffffffffffffffffffffffffffffffffffffff1681526020019081526020016000206007018054905011612b3a576040517f08c379a0000000000000000000000000000000000000000000000000000000008152600401612b3190614d0b565b60405180910390fd5b60008060008573ffffffffffffffffffffffffffffffffffffffff1673ffffffffffffffffffffffffffffffffffffffff16815260200190815260200160002060080160008473ffffffffffffffffffffffffffffffffffffffff1673ffffffffffffffffffffffffffffffffffffffff1681526020019081526020016000206002015411612bfe576040517f08c379a0000000000000000000000000000000000000000000000000000000008152600401612bf590614ee3565b60405180910390fd5b6000808473ffffffffffffffffffffffffffffffffffffffff1673ffffffffffffffffffffffffffffffffffffffff16815260200190815260200160002060080160008373ffffffffffffffffffffffffffffffffffffffff1673ffffffffffffffffffffffffffffffffffffffff168152602001908152602001600020604051806101a0016040529081600082018054612c98906149a4565b80601f0160208091040260200160405190810160405280929190818152602001828054612cc4906149a4565b8015612d115780601f10612ce657610100808354040283529160200191612d11565b820191906000526020600020905b815481529060010190602001808311612cf457829003601f168201915b50505050508152602001600182018054612d2a906149a4565b80601f0160208091040260200160405190810160405280929190818152602001828054612d56906149a4565b8015612da35780601f10612d7857610100808354040283529160200191612da3565b820191906000526020600020905b815481529060010190602001808311612d8657829003601f168201915b50505050508152602001600282015481526020016003820160009054906101000a900473ffffffffffffffffffffffffffffffffffffffff1673ffffffffffffffffffffffffffffffffffffffff1673ffffffffffffffffffffffffffffffffffffffff1681526020016003820160149054906101000a900460ff166004811115612e3157612e30613e3a565b5b6004811115612e4357612e42613e3a565b5b81526020016004820154815260200160058201548152602001600682015481526020016007820160009054906101000a900473ffffffffffffffffffffffffffffffffffffffff1673ffffffffffffffffffffffffffffffffffffffff1673ffffffffffffffffffffffffffffffffffffffff16815260200160088201805480602002602001604051908101604052809291908181526020018280548015612f4057602002820191906000526020600020905b8160009054906101000a900473ffffffffffffffffffffffffffffffffffffffff1673ffffffffffffffffffffffffffffffffffffffff1681526020019060010190808311612ef6575b5050505050815260200160098201805480602002602001604051908101604052809291908181526020018280548015612f9857602002820191906000526020600020905b815481526020019060010190808311612f84575b50505050508152602001600a820180548060200260200160405190810160405280929190818152602001828054801561302657602002820191906000526020600020905b8160009054906101000a900473ffffffffffffffffffffffffffffffffffffffff1673ffffffffffffffffffffffffffffffffffffffff1681526020019060010190808311612fdc575b50505050508152602001600b8201805480602002602001604051908101604052809291908181526020016000905b8282101561321357838290600052602060002090600502016040518060c0016040529081600082018054613087906149a4565b80601f01602080910402602001604051908101604052809291908181526020018280546130b3906149a4565b80156131005780601f106130d557610100808354040283529160200191613100565b820191906000526020600020905b8154815290600101906020018083116130e357829003601f168201915b50505050508152602001600182015481526020016002820160009054906101000a900473ffffffffffffffffffffffffffffffffffffffff1673ffffffffffffffffffffffffffffffffffffffff1673ffffffffffffffffffffffffffffffffffffffff1681526020016003820160009054906101000a900473ffffffffffffffffffffffffffffffffffffffff1673ffffffffffffffffffffffffffffffffffffffff1673ffffffffffffffffffffffffffffffffffffffff1681526020016003820160149054906101000a900460ff1660028111156131e4576131e3613e3a565b5b60028111156131f6576131f5613e3a565b5b815260200160048201548152505081526020019060010190613054565b5050505081525050905092915050565b818073ffffffffffffffffffffffffffffffffffffffff163373ffffffffffffffffffffffffffffffffffffffff1614613292576040517f08c379a0000000000000000000000000000000000000000000000000000000008152600401613289906148e9565b60405180910390fd5b82600073ffffffffffffffffffffffffffffffffffffffff166000808373ffffffffffffffffffffffffffffffffffffffff1673ffffffffffffffffffffffffffffffffffffffff16815260200190815260200160002060060160009054906101000a900473ffffffffffffffffffffffffffffffffffffffff1673ffffffffffffffffffffffffffffffffffffffff1603613363576040517f08c379a000000000000000000000000000000000000000000000000000000000815260040161335a90614955565b60405180910390fd5b60008060008673ffffffffffffffffffffffffffffffffffffffff1673ffffffffffffffffffffffffffffffffffffffff16815260200190815260200160002090508381600401819055505050505050565b808073ffffffffffffffffffffffffffffffffffffffff163373ffffffffffffffffffffffffffffffffffffffff1614613424576040517f08c379a000000000000000000000000000000000000000000000000000000000815260040161341b906148e9565b60405180910390fd5b81600073ffffffffffffffffffffffffffffffffffffffff166000808373ffffffffffffffffffffffffffffffffffffffff1673ffffffffffffffffffffffffffffffffffffffff16815260200190815260200160002060060160009054906101000a900473ffffffffffffffffffffffffffffffffffffffff1673ffffffffffffffffffffffffffffffffffffffff16036134f5576040517f08c379a00000000000000000000000000000000000000000000000000000000081526004016134ec90614955565b60405180910390fd5b6000808473ffffffffffffffffffffffffffffffffffffffff1673ffffffffffffffffffffffffffffffffffffffff1681526020019081526020016000206000808201600061354491906137f3565b60018201600061355491906137f3565b60028201600061356491906137f3565b60038201600061357491906137f3565b600482016000905560058201600090556006820160006101000a81549073ffffffffffffffffffffffffffffffffffffffff02191690556007820160006135bb9190613833565b505060005b600180549050811015613747573373ffffffffffffffffffffffffffffffffffffffff16600182815481106135f8576135f7614d2b565b5b9060005260206000200160009054906101000a900473ffffffffffffffffffffffffffffffffffffffff1673ffffffffffffffffffffffffffffffffffffffff16036137345760018080805490506136509190614f6f565b8154811061366157613660614d2b565b5b9060005260206000200160009054906101000a900473ffffffffffffffffffffffffffffffffffffffff16600182815481106136a05761369f614d2b565b5b9060005260206000200160006101000a81548173ffffffffffffffffffffffffffffffffffffffff021916908373ffffffffffffffffffffffffffffffffffffffff16021790555060018054806136fa576136f9614fa3565b5b6001900381819060005260206000200160006101000a81549073ffffffffffffffffffffffffffffffffffffffff02191690559055613747565b808061373f90614d89565b9150506135c0565b50505050565b604051806101a00160405280606081526020016060815260200160008152602001600073ffffffffffffffffffffffffffffffffffffffff1681526020016000600481111561379f5761379e613e3a565b5b8152602001600081526020016000815260200160008152602001600073ffffffffffffffffffffffffffffffffffffffff168152602001606081526020016060815260200160608152602001606081525090565b5080546137ff906149a4565b6000825580601f106138115750613830565b601f01602090049060005260206000209081019061382f9190613899565b5b50565b50805460008255906000526020600020908101906138519190613899565b50565b50805460008255906000526020600020908101906138729190613899565b50565b508054600082556005029060005260206000209081019061389691906138b6565b50565b5b808211156138b257600081600090555060010161389a565b5090565b5b8082111561394b57600080820160006138d091906137f3565b60018201600090556002820160006101000a81549073ffffffffffffffffffffffffffffffffffffffff02191690556003820160006101000a81549073ffffffffffffffffffffffffffffffffffffffff02191690556003820160146101000a81549060ff02191690556004820160009055506005016138b7565b5090565b6000604051905090565b600080fd5b600080fd5b600073ffffffffffffffffffffffffffffffffffffffff82169050919050565b600061398e82613963565b9050919050565b61399e81613983565b81146139a957600080fd5b50565b6000813590506139bb81613995565b92915050565b6000602082840312156139d7576139d6613959565b5b60006139e5848285016139ac565b91505092915050565b600081519050919050565b600082825260208201905092915050565b60005b83811015613a28578082015181840152602081019050613a0d565b60008484015250505050565b6000601f19601f8301169050919050565b6000613a50826139ee565b613a5a81856139f9565b9350613a6a818560208601613a0a565b613a7381613a34565b840191505092915050565b613a8781613983565b82525050565b6000819050919050565b613aa081613a8d565b82525050565b600060a0820190508181036000830152613ac08188613a45565b90508181036020830152613ad48187613a45565b90508181036040830152613ae88186613a45565b9050613af76060830185613a7e565b613b046080830184613a97565b9695505050505050565b60058110613b1b57600080fd5b50565b600081359050613b2d81613b0e565b92915050565b600080600060608486031215613b4c57613b4b613959565b5b6000613b5a868287016139ac565b9350506020613b6b868287016139ac565b9250506040613b7c86828701613b1e565b9150509250925092565b600080fd5b600080fd5b7f4e487b7100000000000000000000000000000000000000000000000000000000600052604160045260246000fd5b613bc882613a34565b810181811067ffffffffffffffff82111715613be757613be6613b90565b5b80604052505050565b6000613bfa61394f565b9050613c068282613bbf565b919050565b600067ffffffffffffffff821115613c2657613c25613b90565b5b613c2f82613a34565b9050602081019050919050565b82818337600083830152505050565b6000613c5e613c5984613c0b565b613bf0565b905082815260208101848484011115613c7a57613c79613b8b565b5b613c85848285613c3c565b509392505050565b600082601f830112613ca257613ca1613b86565b5b8135613cb2848260208601613c4b565b91505092915050565b600080600080600060a08688031215613cd757613cd6613959565b5b600086013567ffffffffffffffff811115613cf557613cf461395e565b5b613d0188828901613c8d565b955050602086013567ffffffffffffffff811115613d2257613d2161395e565b5b613d2e88828901613c8d565b945050604086013567ffffffffffffffff811115613d4f57613d4e61395e565b5b613d5b88828901613c8d565b935050606086013567ffffffffffffffff811115613d7c57613d7b61395e565b5b613d8888828901613c8d565b9250506080613d99888289016139ac565b9150509295509295909350565b600081519050919050565b600082825260208201905092915050565b6000819050602082019050919050565b600082825260208201905092915050565b6000613dee826139ee565b613df88185613dd2565b9350613e08818560208601613a0a565b613e1181613a34565b840191505092915050565b613e2581613a8d565b82525050565b613e3481613983565b82525050565b7f4e487b7100000000000000000000000000000000000000000000000000000000600052602160045260246000fd5b60058110613e7a57613e79613e3a565b5b50565b6000819050613e8b82613e69565b919050565b6000613e9b82613e7d565b9050919050565b613eab81613e90565b82525050565b600081519050919050565b600082825260208201905092915050565b6000819050602082019050919050565b6000613ee98383613e2b565b60208301905092915050565b6000602082019050919050565b6000613f0d82613eb1565b613f178185613ebc565b9350613f2283613ecd565b8060005b83811015613f53578151613f3a8882613edd565b9750613f4583613ef5565b925050600181019050613f26565b5085935050505092915050565b600081519050919050565b600082825260208201905092915050565b6000819050602082019050919050565b6000613f988383613e1c565b60208301905092915050565b6000602082019050919050565b6000613fbc82613f60565b613fc68185613f6b565b9350613fd183613f7c565b8060005b83811015614002578151613fe98882613f8c565b9750613ff483613fa4565b925050600181019050613fd5565b5085935050505092915050565b600081519050919050565b600082825260208201905092915050565b6000819050602082019050919050565b6003811061404c5761404b613e3a565b5b50565b600081905061405d8261403b565b919050565b600061406d8261404f565b9050919050565b61407d81614062565b82525050565b600060c08301600083015184820360008601526140a08282613de3565b91505060208301516140b56020860182613e1c565b5060408301516140c86040860182613e2b565b5060608301516140db6060860182613e2b565b5060808301516140ee6080860182614074565b5060a083015161410160a0860182613e1c565b508091505092915050565b60006141188383614083565b905092915050565b6000602082019050919050565b60006141388261400f565b614142818561401a565b9350836020820285016141548561402b565b8060005b858110156141905784840389528151614171858261410c565b945061417c83614120565b925060208a01995050600181019050614158565b50829750879550505050505092915050565b60006101a08301600083015184820360008601526141c08282613de3565b915050602083015184820360208601526141da8282613de3565b91505060408301516141ef6040860182613e1c565b5060608301516142026060860182613e2b565b5060808301516142156080860182613ea2565b5060a083015161422860a0860182613e1c565b5060c083015161423b60c0860182613e1c565b5060e083015161424e60e0860182613e1c565b50610100830151614263610100860182613e2b565b5061012083015184820361012086015261427d8282613f02565b9150506101408301518482036101408601526142998282613fb1565b9150506101608301518482036101608601526142b58282613f02565b9150506101808301518482036101808601526142d1828261412d565b9150508091505092915050565b60006142ea83836141a2565b905092915050565b6000602082019050919050565b600061430a82613da6565b6143148185613db1565b93508360208202850161432685613dc2565b8060005b85811015614362578484038952815161434385826142de565b945061434e836142f2565b925060208a0199505060018101905061432a565b50829750879550505050505092915050565b6000602082019050818103600083015261438e81846142ff565b905092915050565b600080604083850312156143ad576143ac613959565b5b60006143bb858286016139ac565b92505060206143cc858286016139ac565b9150509250929050565b600060e08201905081810360008301526143f0818a613a45565b905081810360208301526144048189613a45565b905081810360408301526144188188613a45565b9050818103606083015261442c8187613a45565b905061443b6080830186613a97565b61444860a0830185613a97565b61445560c0830184613a7e565b98975050505050505050565b60008060006060848603121561447a57614479613959565b5b600084013567ffffffffffffffff8111156144985761449761395e565b5b6144a486828701613c8d565b935050602084013567ffffffffffffffff8111156144c5576144c461395e565b5b6144d186828701613c8d565b92505060406144e2868287016139ac565b9150509250925092565b6144f581613a8d565b811461450057600080fd5b50565b600081359050614512816144ec565b92915050565b600080600080600080600060e0888a03121561453757614536613959565b5b60006145458a828b016139ac565b97505060206145568a828b016139ac565b96505060406145678a828b01614503565b955050606088013567ffffffffffffffff8111156145885761458761395e565b5b6145948a828b01613c8d565b945050608088013567ffffffffffffffff8111156145b5576145b461395e565b5b6145c18a828b01613c8d565b93505060a06145d28a828b01614503565b92505060c06145e38a828b01614503565b91505092959891949750929550565b60008060008060008060c0878903121561460f5761460e613959565b5b600061461d89828a016139ac565b965050602061462e89828a01614503565b955050604087013567ffffffffffffffff81111561464f5761464e61395e565b5b61465b89828a01613c8d565b945050606087013567ffffffffffffffff81111561467c5761467b61395e565b5b61468889828a01613c8d565b935050608061469989828a01614503565b92505060a06146aa89828a01614503565b9150509295509295509295565b6000602082840312156146cd576146cc613959565b5b60006146db84828501614503565b91505092915050565b60006020820190506146f96000830184613a7e565b92915050565b60006101a083016000830151848203600086015261471d8282613de3565b915050602083015184820360208601526147378282613de3565b915050604083015161474c6040860182613e1c565b50606083015161475f6060860182613e2b565b5060808301516147726080860182613ea2565b5060a083015161478560a0860182613e1c565b5060c083015161479860c0860182613e1c565b5060e08301516147ab60e0860182613e1c565b506101008301516147c0610100860182613e2b565b506101208301518482036101208601526147da8282613f02565b9150506101408301518482036101408601526147f68282613fb1565b9150506101608301518482036101608601526148128282613f02565b91505061018083015184820361018086015261482e828261412d565b9150508091505092915050565b6000602082019050818103600083015261485581846146ff565b905092915050565b6000806040838503121561487457614873613959565b5b6000614882858286016139ac565b925050602061489385828601614503565b9150509250929050565b7f43616c6c6572206973206e6f74206f776e657200000000000000000000000000600082015250565b60006148d36013836139f9565b91506148de8261489d565b602082019050919050565b60006020820190508181036000830152614902816148c6565b9050919050565b7f506172747920646f6573206e6f74206578697374000000000000000000000000600082015250565b600061493f6014836139f9565b915061494a82614909565b602082019050919050565b6000602082019050818103600083015261496e81614932565b9050919050565b7f4e487b7100000000000000000000000000000000000000000000000000000000600052602260045260246000fd5b600060028204905060018216806149bc57607f821691505b6020821081036149cf576149ce614975565b5b50919050565b7f506172747920616c726561647920657869737473000000000000000000000000600082015250565b6000614a0b6014836139f9565b9150614a16826149d5565b602082019050919050565b60006020820190508181036000830152614a3a816149fe565b9050919050565b60008190508160005260206000209050919050565b60006020601f8301049050919050565b600082821b905092915050565b600060088302614aa37fffffffffffffffffffffffffffffffffffffffffffffffffffffffffffffffff82614a66565b614aad8683614a66565b95508019841693508086168417925050509392505050565b6000819050919050565b6000614aea614ae5614ae084613a8d565b614ac5565b613a8d565b9050919050565b6000819050919050565b614b0483614acf565b614b18614b1082614af1565b848454614a73565b825550505050565b600090565b614b2d614b20565b614b38818484614afb565b505050565b5b81811015614b5c57614b51600082614b25565b600181019050614b3e565b5050565b601f821115614ba157614b7281614a41565b614b7b84614a56565b81016020851015614b8a578190505b614b9e614b9685614a56565b830182614b3d565b50505b505050565b600082821c905092915050565b6000614bc460001984600802614ba6565b1980831691505092915050565b6000614bdd8383614bb3565b9150826002028217905092915050565b614bf6826139ee565b67ffffffffffffffff811115614c0f57614c0e613b90565b5b614c1982546149a4565b614c24828285614b60565b600060209050601f831160018114614c575760008415614c45578287015190505b614c4f8582614bd1565b865550614cb7565b601f198416614c6586614a41565b60005b82811015614c8d57848901518255600182019150602085019450602081019050614c68565b86831015614caa5784890151614ca6601f891682614bb3565b8355505b6001600288020188555050505b505050505050565b7f4e6f2074656e6465727320657869737473000000000000000000000000000000600082015250565b6000614cf56011836139f9565b9150614d0082614cbf565b602082019050919050565b60006020820190508181036000830152614d2481614ce8565b9050919050565b7f4e487b7100000000000000000000000000000000000000000000000000000000600052603260045260246000fd5b7f4e487b7100000000000000000000000000000000000000000000000000000000600052601160045260246000fd5b6000614d9482613a8d565b91507fffffffffffffffffffffffffffffffffffffffffffffffffffffffffffffffff8203614dc657614dc5614d5a565b5b600182019050919050565b7f4e6f207061727469657320657869737473000000000000000000000000000000600082015250565b6000614e076011836139f9565b9150614e1282614dd1565b602082019050919050565b60006020820190508181036000830152614e3681614dfa565b9050919050565b6000614e4882613a8d565b9150614e5383613a8d565b9250828201905080821115614e6b57614e6a614d5a565b5b92915050565b7f74656e6465722077697468206164647265737320646f65736e2774206578697360008201527f7473000000000000000000000000000000000000000000000000000000000000602082015250565b6000614ecd6022836139f9565b9150614ed882614e71565b604082019050919050565b60006020820190508181036000830152614efc81614ec0565b9050919050565b7f74656e6465722063616e6e6f742062652064656c657465640000000000000000600082015250565b6000614f396018836139f9565b9150614f4482614f03565b602082019050919050565b60006020820190508181036000830152614f6881614f2c565b9050919050565b6000614f7a82613a8d565b9150614f8583613a8d565b9250828203905081811115614f9d57614f9c614d5a565b5b92915050565b7f4e487b7100000000000000000000000000000000000000000000000000000000600052603160045260246000fdfea2646970667358221220fa10dce9bd7843a1d4924a0acecb78bd3411b30dcf0a5db3518c995220286a4764736f6c63430008110033",
  "immutableReferences": {},
  "source": "// SPDX-License-Identifier: UNLICENSED\r\n\r\n//the version of solidity that is compatible\r\npragma solidity >=0.7.0 <0.9.0; \r\n\r\nimport {Party, Tender, TenderStatus} from './entities.sol';\r\n\r\ncontract PartyContract{\r\n\r\n    mapping (address => Party) public parties;\r\n    address[] public partyAddresses;\r\n\r\n    constructor() {\r\n    }\r\n\r\n    modifier isOwner(address owner) {\r\n        require(msg.sender == owner, \"Caller is not owner\");\r\n        _;\r\n    }\r\n\r\n    modifier isPartyExists(address _partyAddress) {\r\n        require(parties[_partyAddress].partyAddress != address(0), \"Party does not exist\");\r\n        _;\r\n    }\r\n\r\n    // Function for creating party\r\n    function createParty(string memory _name, string memory _contactNumber, string memory _email, string memory _password, address _partyAddress) public isOwner(_partyAddress){\r\n        require(parties[_partyAddress].partyAddress == address(0), \"Party already exists\"); //\r\n\r\n        Party storage newParty = parties[_partyAddress];\r\n        newParty.name = _name;\r\n        newParty.contactNumber = _contactNumber;\r\n        newParty.email = _email;\r\n        newParty.password = _password;\r\n        newParty.trustScore = 0;\r\n        newParty.createdAt = block.timestamp;\r\n        newParty.partyAddress = _partyAddress;\r\n        // newParty.tenderIds = new address[](0);\r\n        partyAddresses.push(_partyAddress);\r\n    }\r\n\r\n    //Function for updating party\r\n    function updateParty(string memory _name, string memory _password, address _partyAddress) public isOwner(_partyAddress) isPartyExists(_partyAddress) {\r\n        // require(msg.sender == parties[_partyAddress].partyAddress, \"Only party owner can update/delete party details.\");\r\n        Party storage updatedParty = parties[_partyAddress];\r\n        updatedParty.name  = _name;\r\n        updatedParty.password = _password;\r\n    }\r\n    \r\n    //Function for deleting a party on platform\r\n    function deleteParty(address _partyAddress) public isOwner(_partyAddress) isPartyExists(_partyAddress) {\r\n        // require(msg.sender == parties[_partyAddress].partyAddress, \"Only party owner can update/delete party details.\");\r\n        delete parties[_partyAddress];\r\n        for (uint256 i = 0; i < partyAddresses.length; i++) {\r\n            if (partyAddresses[i] == msg.sender) {\r\n                partyAddresses[i] = partyAddresses[partyAddresses.length - 1];\r\n                partyAddresses.pop();\r\n                break;\r\n            }\r\n        }\r\n    }\r\n \r\n    // Function for getting details of a particular party\r\n    function getPartyDetails(address _partyAddress) public isOwner(_partyAddress) isPartyExists(_partyAddress) view returns (string memory, string memory, string memory, address, uint256) {\r\n        return (parties[_partyAddress].name, parties[_partyAddress].contactNumber, parties[_partyAddress].email, parties[_partyAddress].partyAddress, parties[_partyAddress].trustScore);\r\n    }\r\n\r\n    //function to update party's trust score\r\n    function updateTrustScore(address _partyAddress, uint256 _trustScore) public isOwner(_partyAddress) isPartyExists(_partyAddress) {\r\n        Party storage updatedParty = parties[_partyAddress];\r\n        updatedParty.trustScore = _trustScore;\r\n    }\r\n\r\n    \r\n    // Function for getting total no of parties\r\n    // function getPartyCount() public view returns (uint256) {\r\n    //     return partyAddresses.length;\r\n    // }\r\n    \r\n    // Function for getting the address of a particular party.\r\n    // function getPartyAddress(uint256 index) public view returns (address) {\r\n    //     return partyAddresses[index];\r\n    // }\r\n\r\n    // Function for creating a tender\r\n    function createTender(address _partyAddress, uint256 _budget, string memory _title, string memory _description, uint256 _deadline, uint256 _totalMilestones) isOwner(_partyAddress) public {\r\n        Tender storage newTender = parties[_partyAddress].tenders[address(this)];\r\n        newTender.title = _title;\r\n        newTender.description = _description;\r\n        newTender.budget = _budget;\r\n        newTender.tenderStatus = TenderStatus.NEW;\r\n        newTender.createdAt = block.timestamp;\r\n        newTender.deadline = _deadline;\r\n        newTender.issuerAddress = _partyAddress;\r\n        newTender.tenderAddress = address(this);\r\n        newTender.totalMilestones = _totalMilestones;\r\n        parties[_partyAddress].tenderIds.push(address(this));\r\n    }\r\n\r\n    function getAllTenders() public view returns (Tender[] memory){\r\n        require(partyAddresses.length > 0, \"No parties exists\");\r\n        uint count = 0;\r\n        for(uint i = 0; i< partyAddresses.length ; i++){\r\n            count += parties[partyAddresses[i]].tenderIds.length;\r\n        }\r\n        Tender[] memory tenderList  = new Tender[](count);\r\n        uint k = 0;\r\n        for(uint i = 0; i < partyAddresses.length ; i++){\r\n            address[] memory partyTenders = parties[partyAddresses[i]].tenderIds;\r\n            for(uint j = 0; j< partyTenders.length; j++){\r\n                Tender memory tempTender = parties[partyAddresses[i]].tenders[partyTenders[j]];\r\n                if(tempTender.tenderStatus == TenderStatus.OPEN)\r\n                    tenderList[k++] = tempTender;\r\n            }\r\n        }\r\n        return(tenderList);\r\n    }\r\n\r\n    function getMyTenders(address _partyAddress) public view returns ( Tender[] memory){\r\n        require(parties[_partyAddress].tenderIds.length > 0, \"No tenders exists\");\r\n        address[] memory partyTenders = parties[_partyAddress].tenderIds;\r\n        Tender[] memory tenderList  = new Tender[](partyTenders.length);\r\n        for(uint i = 0; i< partyTenders.length; i++){\r\n            tenderList[i] = parties[_partyAddress].tenders[partyTenders[i]];\r\n        }\r\n        return(tenderList);\r\n    }\r\n\r\n    function getTenderDetails(address _partyAddress, address _tenderAddress) public view returns ( Tender memory){\r\n        require(parties[_partyAddress].tenderIds.length > 0, \"No tenders exists\");\r\n        require(parties[_partyAddress].tenders[_tenderAddress].budget > 0 , \"tender with address doesn't exists\");\r\n        return(parties[_partyAddress].tenders[_tenderAddress]);\r\n    }\r\n\r\n    function updateTenderStatus(address _partyAddress, address _tenderAddress, TenderStatus _tenderStatus) public {\r\n        Tender storage updatedTender = parties[_partyAddress].tenders[_tenderAddress];\r\n        updatedTender.tenderStatus = _tenderStatus;\r\n    }\r\n\r\n    function updateTender(address _partyAddress, address _tenderAddress, uint256 _budget, string memory _title, string memory _description, uint256 _deadline, uint256 _totalMilestones) public {\r\n        Tender storage updatedTender = parties[_partyAddress].tenders[_tenderAddress];\r\n        updatedTender.budget = _budget;\r\n        updatedTender.title = _title;\r\n        updatedTender.description = _description;\r\n        updatedTender.deadline = _deadline;\r\n        updatedTender.totalMilestones = _totalMilestones;\r\n    }\r\n\r\n    function deleteTender(address _partyAddress, address _tenderAddress) public{\r\n        require(parties[_partyAddress].tenderIds.length > 0, \"No tenders exists\");\r\n        require(parties[_partyAddress].tenders[_tenderAddress].budget > 0 , \"tender with address doesn't exists\");\r\n        require(parties[_partyAddress].tenders[_tenderAddress].tenderStatus == TenderStatus.NEW ||\r\n                parties[_partyAddress].tenders[_tenderAddress].tenderStatus == TenderStatus.SUSPENDED , \"tender cannot be deleted\");\r\n        delete parties[_partyAddress].tenders[_tenderAddress];\r\n        for (uint i = 0; i < parties[_partyAddress].tenderIds.length; i++){\r\n            if(parties[_partyAddress].tenderIds[i] == _tenderAddress){\r\n                parties[_partyAddress].tenderIds[i] = parties[_partyAddress].tenderIds[i++];\r\n            }\r\n        }\r\n    }\r\n\r\n    // @todo - add modifer for above functions\r\n\r\n}\r\n",
  "sourcePath": "C:\\Users\\sabba\\OneDrive\\Documents\\BlockchainProject\\blockchain-based-contracting-system\\contracts\\party.sol",
  "compiler": {
    "name": "solc",
    "version": "0.8.17+commit.8df45f5f.Emscripten.clang"
  },
  "schemaVersion": "3.4.13",
  "updatedAt": "2023-04-03T06:45:18.626Z",
  "devdoc": {
    "kind": "dev",
    "methods": {},
    "version": 1
  },
  "userdoc": {
    "kind": "user",
    "methods": {},
    "version": 1
  }
}